:100000000C9459010C9478010C9478010C947801AB
:100010000C9478010C9478010C9478010C9478017C
:100020000C9478010C9478010C9478010C9478016C
:100030000C94CF3B0C9478010C9478010C947801CB
:100040000C9478010C94372B0C94742B0C94B12BDA
:100050000C94FA2A0C9478010C9478010C94780191
:100060000C9478010C94CB3F0C9478010C9478019B
:100070000C9478010C9478010C9478010C9478011C
:100080000C942B2C0C94682C0C94A52C0C94EE2B1B
:100090000C9478010C9478010C9478010C947801FC
:1000A0000C9478010C9478010C941F2D0C945C2D09
:1000B0000C94992D0C94E22C0C9478010C94132E32
:1000C0000C94502E0C948D2E0C94D62D0C947801FB
:1000D0000C9478010C9478010C9478010C947801BC
:1000E0000C9478010C9478010C9478010C947801AC
:1000F0000C9478010C9478010C9478010C9478019C
:100100000C9478010C94E0320C941D330C945A3307
:100110000C94A3320C9497330C9478010C947801CE
:100120006E616E00696E660000407A10F35A00A09E
:10013000724E18090010A5D4E80000E876481700B0
:1001400000E40B54020000CA9A3B000000E1F505F0
:10015000000080969800000040420F000000A0863A
:1001600001000000102700000000E803000000006C
:100170006400000000000A00000000000100000010
:1001800000002C76D888DC674F0823DFC1DFAE592A
:10019000E1B1B796E5E3E453C63AE651997696E8BD
:1001A000E6C28426EB898C9B62ED407C6FFCEFBC41
:1001B0009C9F40F2BAA56FA5F490055A2AF75C936C
:1001C0006B6CF9676DC11BFCE0E40D47FEF520E6A2
:1001D000B500D0ED902E0300943577050080841E85
:1001E000080000204E0A000000C80C333333330FE0
:1001F000986E12831141EF8D2114893BE65516CF7D
:10020000FEE6DB18D1844B381BF77C1D901DA4BB88
:10021000E424203284725E228100C9F124ECA1E53D
:100220003D27330019000C00060003000200010006
:10023000FF00A001CF006700330019000C00070089
:1002400008004003A001CF00670033001900100030
:100250001000330019000C0006000300020001002A
:10026000FF00A001CF006700330019000C00070059
:1002700008004003A001CF00670033001900100000
:100280001000330019000C000600030002000100FA
:10029000FF00A001CF006700330019000C00070029
:1002A00008004003A001CF006700330019001000D0
:1002B000100011241FBECFEFD1E4DEBFCDBF12E08E
:1002C000A0E0B2E0E4E0F2EA00E00BBF02C0079079
:1002D0000D92AE32B107D9F72DE1AEE2B2E001C026
:1002E0001D92A932B207E1F70E94DE050C94544F2B
:1002F0000C940000CF93DF931F92CDB7DEB78FE54C
:1003000090E0FC0180818983F89489810F90DF91CE
:10031000CF910895CF93DF931F92CDB7DEB7898336
:100320008FE590E02981FC01208300000F90DF9190
:10033000CF910895CF93DF93CDB7DEB78CED90E0EA
:100340002CED30E0F90120812860FC0120838CED48
:1003500090E02CED30E0F90120812F7BFC0120831F
:100360000000DF91CF910895CF93DF93CDB7DEB733
:100370002B970FB6F894DEBF0FBECDBF9B878A8741
:1003800081E3898381E08A8389818B838A818C835D
:100390008B818695869586958D838D81282F30E07B
:1003A000C901880F991F820F931F80969F838E83A8
:1003B0008C818823D1F08E819F81FC0142818B81C9
:1003C00088878885882F90E09C012770332781E0FB
:1003D00090E002C0880F991F2A95E2F7242F282B5E
:1003E0008E819F81FC0122831BC08E819F81FC0135
:1003F0008281482F8B8189878985882F90E09C0195
:100400002770332781E090E002C0880F991F2A955A
:10041000E2F780958423282F8E819F81FC0122831F
:1004200000002B960FB6F894DEBF0FBECDBFDF9154
:10043000CF910895CF93DF93CDB7DEB789E0809356
:1004400039020000DF91CF910895CF93DF9300D060
:10045000CDB7DEB79A83898387E0809339020000A5
:100460000F900F90DF91CF910895CF93DF9300D03D
:1004700000D0CDB7DEB79C838B838B819C81FC0140
:10048000878190859A83898389819A81FC01808103
:10049000882319F482E08093390281E00F900F9055
:1004A0000F900F90DF91CF9108950F931F93CF93EB
:1004B000DF931F92CDB7DEB719820EC08981082F56
:1004C00010E00E94F34B282FC801855A9D4FFC0174
:1004D000208389818F5F89838981803478F300004C
:1004E0000F90DF91CF911F910F910895CF93DF93DC
:1004F000CDB7DEB729970FB6F894DEBF0FBECDBFDC
:1005000081E389831A8289818B838A818C838B81A1
:100510008695869586958D838D81282F30E0C9013B
:10052000880F991F820F931F80969F838E838C81E3
:100530008823D1F08E819F81FC0142818B81888745
:100540008885882F90E09C012770332781E090E018
:1005500002C0880F991F2A95E2F7242F282B8E813D
:100560009F81FC0122831BC08E819F81FC018281BF
:10057000482F8B8189878985882F90E09C0127707F
:10058000332781E090E002C0880F991F2A95E2F797
:1005900080958423282F8E819F81FC012283809166
:1005A0000D03882329F087E492E00E94280E04C0FE
:1005B0008AEA92E00E94280E000029960FB6F8946D
:1005C000DEBF0FBECDBFDF91CF910895CF93DF93F4
:1005D000CDB7DEB72B970FB6F894DEBF0FBECDBFF9
:1005E0009B878A8785E38B838B818C838C818D832A
:1005F0008D818695869586958E838E81282F30E015
:10060000C901880F991F820F931F809698878F8347
:100610008C8189878985882F90E09C0127703327FA
:1006200081E090E002C0880F991F2A95E2F7282FF9
:100630008F819885FC0120838A859B850E94F90B18
:100640008A859B850E943C078A859B85FC01878162
:1006500090859A83898389819A81FC018081833086
:1006600019F481E080930D0381E02B960FB6F89486
:10067000DEBF0FBECDBFDF91CF910895CF93DF9343
:10068000CDB7DEB729970FB6F894DEBF0FBECDBF4A
:1006900081E090E00E94430D8EEF9AEC0E945A0D8B
:1006A0008FE00E94311E81E00E94211E80E3898339
:1006B0001A8289818B838A818C838B81869586952A
:1006C00086958D838D81282F30E0C901880F991F71
:1006D000820F931F80969F838E838C818823D1F015
:1006E0008E819F81FC0142818B8188878885882F3C
:1006F00090E09C012770332781E090E002C0880FD2
:10070000991F2A95E2F7242F282B8E819F81FC01C7
:1007100022831BC08E819F81FC018281482F8B81A7
:1007200089878985882F90E09C012770332781E095
:1007300090E002C0880F991F2A95E2F780958423E4
:10074000282F8E819F81FC0122830E94221F0E94FC
:10075000F74B82E390E0A0E0B0E0809340029093FA
:100760004102A0934202B09343021092440284EBF0
:1007700091E0909346028093450283E08093BD020E
:100780008FEF9FEF9093B0028093AF0281E0809350
:10079000B10281E08093B20288E08093B3028DEBD6
:1007A00092E09093B7028093B60281E08093B80202
:1007B0001092BA021092B90210920D0310922E03F9
:1007C00010922F031092300365E372E080E00E94E4
:1007D000710D66EE72E081E00E94710D81E0809300
:1007E0005A028FEF9FEF90934D0280934C0281E06D
:1007F00080934E0281E080934F0288E08093500204
:100800008AE592E0909354028093530281E48093AE
:10081000550285E292E090935702809356028AE156
:1008200092E00E94AB350E949A0181E00E9424343C
:1008300021E04BEC53EB63E070E081E00E94D834A0
:10084000000029960FB6F894DEBF0FBECDBFDF9132
:10085000CF910895CF93DF93CDB7DEB7A5970FB6AD
:10086000F894DEBF0FBECDBF80913902882F90E093
:1008700083309105A9F0843091053CF4009709F488
:1008800088C1029709F467C08FC18830910509F4C7
:100890007CC08930910551F0079709F462C084C18A
:1008A0000E94760285E0809339027EC10E94CA0DC3
:1008B00080E38D831E828D818F838E8188878F81D7
:1008C00086958695869589878985282F30E0C90188
:1008D000880F991F820F931F80969B878A87888530
:1008E0008823D1F08A859B85FC0142818F818C878A
:1008F0008C85882F90E09C012770332781E090E061
:1009000002C0880F991F2A95E2F7242F282B8A8589
:100910009B85FC0122831BC08A859B85FC0182810B
:10092000482F8F818D878D85882F90E09C012770BF
:10093000332781E090E002C0880F991F2A95E2F7E3
:1009400080958423282F8A859B85FC01228381E062
:100950008093390229C10E94550283E080933902B5
:1009600023C10E948E0D982F81E08927882309F4E6
:100970001AC10E947A018A830E94C00D88E0809388
:1009800039028A810E948A010EC180E38B8381E053
:100990008E8F8B818F8F8E8D88A38F8D8695869578
:1009A000869589A389A1282F30E0C901880F991F56
:1009B000820F931F80969BA38AA388A18823D1F0DE
:1009C0008AA19BA1FC0142818F8D8CA38CA1882FD1
:1009D00090E09C012770332781E090E002C0880FEF
:1009E000991F2A95E2F7242F282B8AA19BA1FC01AD
:1009F00022831BC08AA19BA1FC018281482F8F8D7D
:100A00008DA38DA1882F90E09C012770332781E072
:100A100090E002C0880F991F2A95E2F78095842301
:100A2000282F8AA19BA1FC01228381E38C8381E092
:100A30008E8B8C818F8B8E89888F8F8986958695FA
:100A40008695898F898D282F30E0C901880F991FDD
:100A5000820F931F80969B8F8A8F888D8823D1F079
:100A60008A8D9B8DFC0142818F898C8F8C8D882F84
:100A700090E09C012770332781E090E002C0880F4E
:100A8000991F2A95E2F7242F282B8A8D9B8DFC0134
:100A900022831BC08A8D9B8DFC018281482F8F8908
:100AA0008D8F8D8D882F90E09C012770332781E0FA
:100AB00090E002C0880F991F2A95E2F78095842361
:100AC000282F8A8D9B8DFC01228385E3898381E019
:100AD0008E8789818F878E85888B8F858695869571
:100AE0008695898B8989282F30E0C901880F991F45
:100AF000820F931F80969B8B8A8B88898823D1F0E5
:100B00008A899B89FC0142818F858C8B8C89882FF7
:100B100090E09C012770332781E090E002C0880FAD
:100B2000991F2A95E2F7242F282B8A899B89FC019B
:100B300022831BC08A899B89FC018281482F8F8573
:100B40008D8B8D89882F90E09C012770332781E061
:100B500090E002C0880F991F2A95E2F780958423C0
:100B6000282F8A899B89FC01228383E590E023E575
:100B700030E0F90120812160FC012083889583E524
:100B800090E023E530E0F90120812E7FFC012083F5
:100B90000BC00E94590B0E94F0050E943E0381E0A9
:100BA0008093390201C000000000A5960FB6F894AA
:100BB000DEBF0FBECDBFDF91CF910895CF93DF93FE
:100BC000CDB7DEB70E94EE3C0E9423400E94112167
:100BD0000E94513278940E9421210E942A04FBCF66
:100BE000CF93DF93CDB7DEB71092070C0000DF91F3
:100BF000CF910895CF93DF93CDB7DEB78091940363
:100C0000DF91CF910895CF93DF93CDB7DEB7809179
:100C1000A403DF91CF910895CF93DF9300D000D04C
:100C200000D0CDB7DEB78D836E831C821B821A8203
:100C3000198221C08D81882F90E0098002C095958E
:100C400087950A94E2F781709927892B79F08E8134
:100C5000882F90E0098002C0880F991F0A94E2F75C
:100C60002B813C81822793279C838B8389819A8166
:100C700001969A83898389819A810897DCF286E0BC
:100C800090E09A83898323C080E091E0098002C0CC
:100C9000880F991F0A94E2F79C018B819C81822323
:100CA0009323892B79F089EA91E0098002C0880FAB
:100CB000991F0A94E2F79C018B819C8182279327DC
:100CC0009C838B8389819A8101979A838983898107
:100CD0009A819923CCF68B8126960FB6F894DEBFC5
:100CE0000FBECDBFDF91CF910895CF93DF93CDB7E6
:100CF000DEB728970FB6F894DEBF0FBECDBF98873A
:100D00008F838F81988501964FE050E060E070E01E
:100D10000E94EE4C8F819885409640E450E060E060
:100D200070E00E94EE4C8091070C805D89831B82ED
:100D30001A825FC08A819B818B569C4FFC01808107
:100D4000813009F051C02F8138858A819B81820FC3
:100D5000931F01962981FC0120831D821C823BC0C8
:100D60008A819B819C0100243695279507943695AE
:100D700027950794322F202D8C819D81820F931F00
:100D80008B559C4FFC0140812F8138858A819B8146
:100D9000820F931F0196FC018081642F0E940C0634
:100DA0008E832F8138858C819D81820F931F409681
:100DB000FC0190818E81492F48272F8138858C81B5
:100DC0009D81820F931F4096FC0140838C819D8101
:100DD00001969D838C838C819D81803491050CF4D8
:100DE000BFCF89818F5F89838A819B8101969B8395
:100DF0008A838A819B810F970CF49CCF00002896F0
:100E00000FB6F894DEBF0FBECDBFDF91CF9108952E
:100E1000CF93DF931F92CDB7DEB78983898180930B
:100E2000070C00000F90DF91CF910895CF93DF93CF
:100E3000CDB7DEB71092A403109265071092940309
:100E40004FE050E060E070E085E993E00E94EE4CF6
:100E500041EE50E060E070E086E697E00E94EE4CE4
:100E600040EC53E060E070E087E498E00E94EE4CD4
:100E70000000DF91CF910895CF93DF9300D000D091
:100E8000CDB7DEB79C838B838B819C81FC018081F5
:100E90009181892B09F440C08B819C81FC01808168
:100EA00091810F97C8F58B819C81FC01878190858A
:100EB0009A83898389819A81FC018081813069F5D7
:100EC000809194038F5F809394038B819C81FC01BC
:100ED0008081918101978B569C4F21E0FC012083FA
:100EE00089819A819C012F5F3F4F8B819C81FC01FE
:100EF0008081918101970024969587950794969516
:100F000087950794982F802D8B559C4F40E450E097
:100F1000B9010E94E54C01C000000F900F900F90A6
:100F20000F90DF91CF910895CF93DF9300D01F9260
:100F3000CDB7DEB789837B836A83809194038F5F0B
:100F4000809394038981882F90E001978B569C4F62
:100F500021E0FC0120838A819B819C012F5F3F4F10
:100F60008981882F90E001970024969587950794B2
:100F7000969587950794982F802D8B559C4F40E42C
:100F800050E0B9010E94E54C00000F900F900F90C7
:100F9000DF91CF9108952F923F924F925F926F927F
:100FA0007F928F929F92AF92BF92CF92DF92EF92F9
:100FB000FF920F931F93CF93DF93CDB7DEB7629766
:100FC0000FB6F894DEBF0FBECDBF988B8F877A8B9C
:100FD000698B8F8598899A83898389899A899C836B
:100FE0008B838B819C81FC018181282F30E089815A
:100FF0009A81FC018181882F90E0A901481B590B3F
:10100000CA019E838D838D819E8199231CF49195C5
:101010008195910949971CF08D819E819AC08981A3
:101020009A81FC018489882309F47FC08B819C818B
:10103000FC018489882309F478C089819A81FC01A4
:10104000A384FC01B484FC01C584FC01D684FC01AA
:10105000E784FC01F088FC010189FC0112898B8185
:101060009C81FC012384FC013484FC014584FC0147
:101070005684FC016784FC017088FC018188FC01B6
:1010800092882A2D3B2D4C2D5D2D6E2D7F2D802F8E
:10109000912FA22CB32CC42CD52CE62CF72C082D88
:1010A000192D0E947F49A22EB32EC42ED52EE62ED6
:1010B000F72E082F192FAF82B886C986DA86EB86FD
:1010C000FC860D871E87AF80B884C984DA84EB84E0
:1010D000FC840D851E852A2D3B2D4C2D5D2D6E2DFE
:1010E0007F2D802F912FA0E00E94884921F01CF0D5
:1010F0008FEF9FEF2EC0AF80B884C984DA84EB8471
:10110000FC840D851E852A2D3B2D4C2D5D2D6E2DCD
:101110007F2D802F912FA0E00E9488491CF481E050
:1011200090E017C080E090E014C089819A81FC01B2
:101130008489882319F081E090E00BC08B819C8129
:10114000FC018489882319F08FEF9FEF02C080E0B3
:1011500090E062960FB6F894DEBF0FBECDBFDF9170
:10116000CF911F910F91FF90EF90DF90CF90BF90A4
:10117000AF909F908F907F906F905F904F903F9037
:101180002F9008958F929F92AF92BF92CF92DF924D
:10119000EF92FF920F931F93CF93DF93CDB7DEB7FC
:1011A00010915E0E0E94FA05912F981B892F809353
:1011B000090C8091090C882314F41092090C809179
:1011C0000A0290910B02A0910C02B0910D029C01B9
:1011D000AD0160E070E080E89FE30E943847DC01E9
:1011E000CB017C018D0180910A0C90910B0CA09198
:1011F0000C0CB0910D0C9C01AD01C801B7010E940F
:10120000C148DC01CB016C017D018091090C082EE5
:10121000000C990BAA0BBB0BBC01CD010E94F4473B
:101220004B015C0180910A0290910B02A0910C028B
:10123000B0910D029C01AD01C501B4010E94C148ED
:10124000DC01CB019C01AD01C701B6010E94394709
:10125000DC01CB0180930A0C90930B0CA0930C0C37
:10126000B0930D0C80910E0290910F02A09110028C
:10127000B09111029C01AD0160E070E080E89FE355
:101280000E943847DC01CB017C018D0180910E0C5E
:1012900090910F0CA091100CB091110C9C01AD011C
:1012A000C801B7010E94C148DC01CB016C017D017E
:1012B0008091090C082E000C990BAA0BBB0BBC01EA
:1012C000CD010E94F4474B015C0180910A0C909182
:1012D0000B0CA0910C0CB0910D0C9C01AD01C50143
:1012E000B4010E943847DC01CB01BC01CD010E9452
:1012F000BC47DC01CB0199231CF4919581959109A0
:10130000092E000CAA0BBB0BBC01CD010E94F447B7
:101310004B015C0180910E0290910F02A09110028E
:10132000B09111029C01AD01C501B4010E94C148F8
:10133000DC01CB019C01AD01C701B6010E94394718
:10134000DC01CB0180930E0C90930F0CA093100C3A
:10135000B093110C8091120290911302A09114028B
:10136000B091150220910A0C30910B0C40910C0C9D
:1013700050910D0CBC01CD010E94C148DC01CB0194
:101380007C018D0180910E0C90910F0CA091100C9E
:10139000B091110C9C01AD01C801B7010E94394701
:1013A000DC01CB01BC01CD010E94A547DC01CB01D2
:1013B000BC01CD010E94C347DC01CB018093080C26
:1013C0008091080C8F3018F08EE08093080C00009C
:1013D000DF91CF911F910F91FF90EF90DF90CF9011
:1013E000BF90AF909F908F900895CF93DF9300D0E0
:1013F000CDB7DEB71A8219824BC029813A8145E107
:10140000429FC001439F900D1124845E934FFC01C5
:101410008081282F30E049815A8165E1649FC001B5
:10142000659F900D11248B5D934FFC018081882F67
:1014300090E0820F931F41E004970CF440E0298173
:101440003A8155E1529FC001539F900D11248A5D4E
:10145000934FFC01408329813A8145E1429FC001BD
:10146000439F900D1124845E934FFC0110822981CB
:101470003A8145E1429FC001439F900D11248B5D4D
:10148000934FFC01108289819A8101969A83898306
:1014900089819A810F970CF4B0CF00000F900F90C4
:1014A000DF91CF910895CF93DF93CDB7DEB7299722
:1014B0000FB6F894DEBF0FBECDBF19821A821B8211
:1014C0001C8286E291E0E2E1FCE0A8E3BDE001904D
:1014D0000D920197E1F71E821D823CC02D813E8155
:1014E00045E1429FC001439F900D1124875C924FBC
:1014F000FC018081882369F42D813E8145E1429F72
:10150000C001439F900D1124875C924F27E1FC019D
:1015100020832D813E8145E1429FC001439F900D74
:101520001124875C924FFC018081882F90E0A0E01D
:10153000B0E029813A814B815C81820F931FA41F07
:10154000B51F89839A83AB83BC838D819E8101966D
:101550009E838D838D819E810F970CF4BFCF8981EF
:101560009A81AB81BC812EE030E040E050E0BC01CC
:10157000CD010E944249DA01C90189839A83AB8374
:10158000BC8389819A81AB81BC814897A105B10553
:1015900040F489E190E0A0E0B0E089839A83AB83D6
:1015A000BC832BEC37E045E150E06EE070E088E36F
:1015B0009DE00E94DB4980916D0E8E5F8987898551
:1015C000882F90E08359914FFC018081882F90E013
:1015D00002969C018985882F90E08359914FA9013B
:1015E000BC018DE69EE00E94E54C80916D0E8E5F01
:1015F00089871F8218863CC08885282F30E045E106
:10160000429FC001439F900D1124875C924FFC01C3
:101610008081282F30E040E050E089819A81AB81C1
:10162000BC81281739074A075B07F0F08985282F06
:1016300030E08F81882F90E0820F931F02962F81D8
:10164000422F50E065E1649F9001659F300D1124A9
:10165000285C324FF90120818359914FFC0120838E
:101660008F818F5F8F8301C0000088858F5F88879F
:101670008091080C9885981708F4BECF8985882F2B
:1016800090E08359914F2F81FC0120838985882F19
:1016900090E001968359914F24E0FC0120830000E3
:1016A00029960FB6F894DEBF0FBECDBFDF91CF9164
:1016B0000895CF93DF931F92CDB7DEB71092080C39
:1016C00010925E0E198284C08981282F30E08981B2
:1016D00041E0480F55E1529FC001539F900D1124E6
:1016E0008E5E934FFC0140838981282F30E045E1D5
:1016F000429FC001439F900D11248D5E934FFC01CA
:1017000010828981282F30E045E1429FC001439F2C
:10171000900D11248C5E934FFC011082FC0111820C
:10172000FC011282FC011382FC011482FC0115826F
:10173000FC011682FC0117828981282F30E045E1E7
:10174000429FC001439F900D1124835E934FFC0183
:101750001082FC011182FC011282FC011382FC0147
:101760001482FC011582FC011682FC01178289811A
:10177000282F30E045E1429FC001439F900D112486
:10178000845E934FFC0110828981282F30E045E16F
:10179000429FC001439F900D11248B5D934FFC012C
:1017A00010828981282F30E045E1429FC001439F8C
:1017B000900D11248A5D934FFC0110828981882F3E
:1017C00090E0815A914FFC01108289818F5F89835B
:1017D00089818E3008F478CF40E250E060E070E01C
:1017E0008DE69EE00E94EE4C00000F90DF91CF91BD
:1017F0000895AF92BF92CF92DF92EF92FF920F9334
:101800001F93CF93DF9300D000D0CDB7DEB79C837A
:101810008B838B819C81DC018D919C91892B09F4B8
:10182000A3C08B819C81FC01808191810F9708F07E
:101830009BC08B819C81DC0117968D919C911897A0
:101840009A8389838B819C81FC01808191819C0199
:10185000215031098B819C81DC011B968C91582F82
:1018600045E1429FC001439F900D11248D5E934F2F
:10187000FC01508389819A81DC018C91813009F0CF
:1018800074C08B819C81FC0180819181FC01319726
:1018900025E12E9FC0012F9F900D11248C5E934F48
:1018A000DC01AC90DC011196BC90DC011296CC906E
:1018B000DC011396DC90DC011496EC90DC011596AB
:1018C000FC90DC0116960C91DC0117961C912A2DD8
:1018D0003B2D4C2D5D2D6E2D7F2D802F912FA1E066
:1018E0000E947349A22EB32EC42ED52EE62EF72EBB
:1018F000082F192F25E12E9FC0012F9F900D112435
:101900008C5E934FFC01A082DC011196BC92FC011D
:10191000C282DC011396DC92FC01E482DC011596A4
:10192000FC92FC010683DC0117961C938B819C8141
:10193000FC0180819181019745E1489F9001499F79
:10194000300D1124245E334FD9012C9141E0420F18
:1019500055E1589F9001599F300D1124C901845EB3
:10196000934FFC01408301C000000F900F900F9037
:101970000F90DF91CF911F910F91FF90EF90DF902B
:10198000CF90BF90AF900895CF93DF93CDB7DEB7E0
:101990000000DF91CF910895CF93DF9300D0CDB7B2
:1019A000DEB79A83898389819A8120E2EDE6FEE0A1
:1019B000DC0101900D922A95E1F700000F900F9045
:1019C000DF91CF910895CF93DF9300D0CDB7DEB7ED
:1019D0009A83898389819A812EE0EFE5FEE0DC011C
:1019E00001900D922A95E1F780915E0E0F900F9075
:1019F000DF91CF910895CF93DF931F92CDB7DEB7DC
:101A000089838981282F30E045E1429FC001439FAF
:101A1000900D11248E5E934F0F90DF91CF9108951A
:101A2000CF93DF931F92CDB7DEB71092EC1C1092CC
:101A3000ED1C1092E91C1092E81C10920F1D1092E0
:101A40000E1D19820EC08981882F90E00396880FA1
:101A5000991F8851934EFC011182108289818F5FFA
:101A600089838981803178F30E9472190E94301332
:101A70000E9466110E941C0E0E946A1200000F90C4
:101A8000DF91CF910895CF93DF9300D0CDB7DEB72C
:101A90009A83898389819A819093E91C8093E81CB9
:101AA00089819A810E946B1E00000F900F90DF9138
:101AB000CF910895CF93DF9300D0CDB7DEB79A834F
:101AC000898389819A819093EB1C8093EA1C898198
:101AD0009A810E94471E00000F900F90DF91CF91D6
:101AE0000895CF93DF9300D01F92CDB7DEB78983DF
:101AF0007B836A838981882F90E00396880F991FE2
:101B00008851934E2A813B81FC0131832083000060
:101B10000F900F900F90DF91CF910895CF93DF93A7
:101B2000CDB7DEB780910E1D90910F1D21E0892B5E
:101B300009F420E0822FDF91CF910895CF93DF93B6
:101B4000CDB7DEB780910E1D90910F1D0196909339
:101B50000F1D80930E1D0000DF91CF910895CF934C
:101B6000DF93CDB7DEB780910E1D90910F1D0197C9
:101B700090930F1D80930E1D0000DF91CF9108956B
:101B8000CF93DF93CDB7DEB70E94B41E0000DF9184
:101B9000CF910895CF93DF93CDB7DEB70E94CD1ECE
:101BA0000000DF91CF910895CF93DF93CDB7DEB7DB
:101BB0002C970FB6F894DEBF0FBECDBF8C8789E09F
:101BC000E5E2F2E0DE01139601900D928A95E1F7CD
:101BD00089E189831A8215C09C858981981758F4F8
:101BE0008A81882F90E09E012D5F3F4F820F931FC7
:101BF000FC0180810AC08981875E89838A818F5F29
:101C00008A838A81893040F38FEF2C960FB6F8943F
:101C1000DEBF0FBECDBFDF91CF910895CF93DF938D
:101C2000CDB7DEB70E9431190E946A1C0E943011A4
:101C30000000DF91CF910895CF93DF93CDB7DEB74A
:101C400010928E0E10928D0E0000DF91CF910895AC
:101C5000CF93DF9300D0CDB7DEB79A838983898194
:101C60009A81FC01148289819A81FC01118A8981FF
:101C70009A81FC011382128280910E1D90910F1D9A
:101C8000019690930F1D80930E1D80918D0E909163
:101C90008E0E892B61F489819A81FC011182108258
:101CA00089819A8190938E0E80938D0E0FC0209122
:101CB0008D0E30918E0E89819A81FC0131832083B3
:101CC00089819A8190938E0E80938D0E00000F90E3
:101CD0000F90DF91CF910895CF93DF9300D000D084
:101CE00000D0CDB7DEB79E838D830E9485119A8385
:101CF000898389819A81892B59F48D819E8122E083
:101D0000FC0124838D819E8122E0FC01218BF2C1A4
:101D10008D819E8129813A81FC01338322838D81CB
:101D20009E8121E0FC01248389819A8189579F4FFC
:101D300023E830E1FC01318320838D819E81FC0109
:101D40008185882F90E080729927892B09F47DC0C6
:101D500089819A81FC0181812BE0280F89819A81F8
:101D6000FC01218389819A818F579F4FFC018081DB
:101D700091819C01255F3F4F89819A818F579F4FA9
:101D8000FC013183208389819A818A579F4FFC010E
:101D9000108289819A81FC012185207F2860FC01C5
:101DA000218789819A81FC0121852F702066FC01A1
:101DB000218789819A81FC012285207F2160FC0195
:101DC000228789819A81FC0122852061FC0122877A
:101DD00089819A81FC0122852064FC012287898106
:101DE0009A81FC0122852F77FC01228789819A81C3
:101DF000FC01138689819A81FC0114868D819E8164
:101E0000FC018685482F50E08D819E81FC01248550
:101E1000358589819A818F579F4FFC0180819181FF
:101E2000B9010E94E54C89819A81FC0121818D8153
:101E30009E81FC018685280F89819A81FC0121837E
:101E400089819A810E94A61955C189819A81FC01D4
:101E5000818120E1280F89819A81FC012183898178
:101E60009A818F579F4FFC01808191819C01205F57
:101E70003F4F89819A818F579F4FFC013183208387
:101E80008D819E81FC018185882F90E08470992747
:101E900021E0892B09F420E089819A818A579F4F9C
:101EA000FC0120838D819E81FC018185882F90E03B
:101EB0008170992721E0892B09F420E089819A819A
:101EC0002170FC0133853E7F232BFC0123878D810C
:101ED0009E81FC018185882F90E08870992721E000
:101EE000892B09F420E089819A812170220F220F29
:101EF000FC0133853B7F232BFC0123878D819E8151
:101F0000FC018185882F90E08072992721E0892B40
:101F100009F420E089819A8121702295207FFC01BB
:101F200033853F7E232BFC0123878D819E81FC011D
:101F30008185882F90E08071992721E0892B09F411
:101F400020E089819A812170220F220F220FFC014B
:101F50003385377F232BFC01238789819A81FC01FC
:101F600083858870882309F462C089819A818F579C
:101F70009F4FFC01808191819C838B838D819E8109
:101F8000FC018285282F2F708B819C812F70FC0192
:101F90003181307F232BFC0121838D819E81FC01C7
:101FA0008285282F2F708B819C812295207FFC01B8
:101FB00031813F70232BFC0121838D819E81FC01A7
:101FC0008385282F2F708B819C812F70FC0130819D
:101FD000307F232BFC0120838D819E81FC01838532
:101FE000282F2F708B819C812295207FFC013081CE
:101FF0003F70232BFC01208389819A818F579F4F4B
:10200000FC01808191819C012E5F3F4F89819A81E3
:102010008F579F4FFC013183208389819A81FC0176
:10202000818122E0280F89819A81FC01218380919E
:10203000EC1C8F5F8093EC1C2091EC1C89819A81B1
:10204000FC0124872091E81C3091E91C89819A8148
:10205000FC01368725878D819E81FC012581368193
:1020600089819A81FC01308B27878D819E81FC01BB
:102070008085282F2F7089819A812F70FC013189EA
:10208000307F232BFC01218B8D819E81FC01878178
:10209000282F2F7089819A812295207FFC01318918
:1020A0003F70232BFC01218B8D819E81FC01868555
:1020B000482F50E08D819E81FC01248535858981E2
:1020C0009A818F579F4FFC0180819181B9010E94B5
:1020D000E54C89819A81FC0121818D819E81FC01E1
:1020E0008685280F89819A81FC01218389819A81C3
:1020F0000E94F11926960FB6F894DEBF0FBECDBF31
:10210000DF91CF910895CF93DF9300D000D0CDB76A
:10211000DEB79C838B8380918D0E90918E0E9A8377
:1021200089832BC089819A81FC01228133818B8133
:102130009C8128173907D1F48B819C818D579F4F43
:10214000FC01208189819A81FC01218B8B819C81FA
:102150008A579F4FFC01208189819A81FC01228B43
:1021600089819A8122E0FC0124830BC089819A81B4
:10217000FC01808191819A83898389819A81892B4D
:1021800089F68B819C810E94F71100000F900F90BF
:102190000F900F90DF91CF910895CF93DF9300D0F0
:1021A00000D0CDB7DEB79C838B8320918D0E30910C
:1021B0008E0E8B819C812817390761F480918D0EDA
:1021C00090918E0EFC018081918190938E0E809370
:1021D0008D0E25C080918D0E90918E0E9A838983ED
:1021E00007C089819A81FC01808191819A838983CA
:1021F00089819A81FC01208131818B819C81281702
:10220000390779F789819A81FC0180819181FC01EC
:102210002081318189819A81FC01318320838091E1
:102220000E1D90910F1D019790930F1D80930E1D11
:102230008B819C81FC0187859089892B49F08B815A
:102240009C81FC01278530898B819C81F90109954E
:1022500000000F900F900F900F90DF91CF91089595
:10226000CF93DF9300D0CDB7DEB780918D0E9091E4
:102270008E0E9A83898321C089819A81FC01848191
:10228000882F90E08130910581F08230910541F0F6
:10229000892B09F00BC089819A810E946C0E11C0B4
:1022A00089819A810E94CD100CC0000089819A8199
:1022B000FC01808191819A83898389819A81892B0C
:1022C000D9F60F900F90DF91CF910895CF93DF93C0
:1022D0001F92CDB7DEB7198210C08981282F30E058
:1022E00049E8429FC001439F900D11248157914FAF
:1022F000FC01108289818F5F89838981843168F331
:1023000000000F90DF91CF910895CF93DF931F923C
:10231000CDB7DEB7198261C08981282F30E049E846
:10232000429FC001439F900D11248157914FFC01A2
:102330008081882309F04EC08981282F30E049E848
:10234000429FC001439F900D11248157914F49E84E
:1023500050E060E070E00E94EE4C8981282F30E070
:1023600049E8429FC001439F900D11248057914F2F
:10237000FC0110828981482F50E08981282F30E0AC
:1023800069E8629FC001639F900D112402969C0131
:102390002157314F69E8649FC001659F900D11245A
:1023A000805F904FFC013183208380910E1D9091BE
:1023B0000F1D019690930F1D80930E1D8981282F6C
:1023C00030E049E8429FC001439F900D112481579E
:1023D000914F09C089818F5F89838981843108F495
:1023E0009BCF80E090E00F90DF91CF910895CF9345
:1023F000DF9300D0CDB7DEB79A83898389819A8134
:10240000FC01108280910E1D90910F1D01979093F9
:102410000F1D80930E1D00000F900F90DF91CF9144
:102420000895CF93DF9300D0CDB7DEB79A83898329
:1024300089819A81892B29F48FE89EE09A83898388
:1024400016C089819A8187579F4F9A8389830FC0CD
:1024500089819A81FC018081882319F089819A8180
:102460000DC089819A8187579F4F9A83898389817B
:102470009A818354994160F380E090E00F900F902F
:10248000DF91CF910895CF93DF9300D0CDB7DEB722
:102490009A83898389819A818D579F4FFC0110828D
:1024A0008091EC1C8F5F8093EC1C2091EC1C898147
:1024B0009A81FC0124872091E81C3091E91C8981D4
:1024C0009A81FC013687258700000F900F90DF91DD
:1024D000CF910895CF93DF931F92CDB7DEB71982C6
:1024E0000FC08981882F90E0880F991F8D5B964ED1
:1024F0002FEF3FEFFC013183208389818F5F898338
:102500008981833070F300000F90DF91CF9108959F
:10251000CF93DF9300D0CDB7DEB79A8389838981CB
:102520009A81BC018FEF9FEF0E94D5120F900F9000
:10253000DF91CF910895CF93DF9300D0CDB7DEB771
:102540009A83898389819A816FEF7FEF0E94D512E8
:102550000F900F90DF91CF910895CF93DF9300D02C
:102560001F92CDB7DEB79B838A83198214C08981FD
:10257000882F90E0880F991F8D5B964EFC0120817B
:1025800031818A819B812817390711F481E007C0C6
:1025900089818F5F89838981833048F380E00F9040
:1025A0000F900F90DF91CF910895CF93DF9300D0DC
:1025B00000D01F92CDB7DEB79B838A837D836C8367
:1025C000198220C08981882F90E0880F991F8D5B28
:1025D000964EFC01208131818A819B812817390721
:1025E00071F48981882F90E0880F991F8D5B964E3A
:1025F0002C813D81FC013183208381E007C08981EA
:102600008F5F898389818330E8F280E00F900F909B
:102610000F900F900F90DF91CF910895CF93DF939C
:1026200000D0CDB7DEB79A83898389819A81FC0176
:10263000418189819A818F579F4FFC0180819181CF
:102640009C0189819A810296B901681B790BCB01A3
:10265000742F781B872F0F900F90DF91CF910895E3
:10266000CF93DF931F92CDB7DEB7198211C0898156
:10267000282F30E0C901880F991F880F991F820FFA
:10268000931F835B964EFC01108289818F5F898343
:102690008981823360F384E690E0A0E0B0E080932B
:1026A0004A1A90934B1AA0934C1AB0934D1A109259
:1026B0004E1A89ED94E19093501A80934F1A6AEF65
:1026C00075E180E00E94710D00000F90DF91CF91C5
:1026D0000895CF93DF9300D000D0CDB7DEB79C83B1
:1026E0008B838B819C81FC01808191810196FC010F
:1026F00080818838D1F48B819C81FC01808191811B
:10270000FC018081813651F08B819C81FC018081AC
:102710009181FC018081813409F0A8C08B819C816A
:10272000FC0182818031E8F4A1C08B819C81FC0195
:10273000808191810196FC018081803809F098C0E8
:102740008B819C81FC0180819181FC0180818823A7
:1027500009F090C08B819C81FC0182818B3008F450
:1027600089C00E9485119A83898389819A81892BE6
:1027700009F482C08B819C81FC018081918101964A
:10278000FC018081883811F420E201C025E28981B2
:102790009A81FC01208389819A81FC0180818532A4
:1027A000E1F489819A81FC0181812BE0280F8981E4
:1027B0009A81FC01218389819A818F579F4FFC0167
:1027C000808191819C01255F3F4F89819A818F573C
:1027D0009F4FFC01318320831BC089819A81FC01BA
:1027E000818120E1280F89819A81FC0121838981DF
:1027F0009A818F579F4FFC01808191819C01205FBE
:102800003F4F89819A818F579F4FFC0131832083ED
:102810008B819C81FC01228189819A81FC01218329
:102820008B819C81FC01238189819A818D579F4FE7
:10283000FC0120838B819C81FC01248189819A8108
:102840008C579F4FFC0120838B819C81FC018281EE
:10285000482F50E08B819C81FC012081318189814E
:102860009A810296B9010E94E54C07C0000005C09C
:10287000000003C0000001C000000F900F900F90F7
:102880000F90DF91CF910895CF93DF9300D000D0C8
:1028900000D0CDB7DEB79E838D830E9485119A83C9
:1028A000898389819A81892B09F46BC08D819E81EE
:1028B000FC01818120E1280F8D819E81FC01218313
:1028C0008D819E818F579F4FFC01808191819C015A
:1028D000205F3F4F8D819E818F579F4FFC01318339
:1028E000208389819A810E94431289819A81FC0107
:1028F000818123E0280F89819A81FC0121838981CC
:102900009A8189579F4FFC01118210828D819E818F
:10291000FC01838581FB222720F989819A8121701E
:10292000220FFC0133853D7F232BFC0123878D8102
:102930009E81FC012585368589819A81FC01308B39
:10294000278789819A818F579F4FFC0180819181D0
:102950009C838B838B819C81FC0110822091431A84
:102960008B819C81FC0122838D819E81FC012485C9
:102970008B819C81FC01218389819A810E94F119BC
:1029800001C0000026960FB6F894DEBF0FBECDBF83
:10299000DF91CF910895CF93DF931F92CDB7DEB72C
:1029A000898389818093431A00000F90DF91CF9132
:1029B0000895CF93DF9300D000D0CDB7DEB79C83CE
:1029C0008B8319821A8230C08A81282F30E0C90196
:1029D000880F991F880F991F820F931F835B964E54
:1029E000FC0180818823E9F08A81282F30E0C90129
:1029F000880F991F880F991F820F931F835B964E34
:102A0000FC0180814FEF480FC901880F991F880F83
:102A1000991F820F931F835B964EFC01408381E0D8
:102A200089838A818F5F8A838A81823368F2898170
:102A3000882321F08B819C810E94672100000F90E8
:102A40000F900F900F90DF91CF910895CF93DF9368
:102A5000CDB7DEB729970FB6F894DEBF0FBECDBF56
:102A6000998788871A8219821B8290C08B81282FB0
:102A700030E0C901880F991F880F991F820F931F9B
:102A8000875B964E9D838C838C819D81FC01848124
:102A9000882309F46EC088859985FC0123853485D7
:102AA0008C819D81FC01808191812817390709F073
:102AB00060C08C819D81FC01228188859985FC0103
:102AC0008285F22FF81B8F2F8E838E81883058F5E8
:102AD0008C819D81FC018381882F90E02E81222FA3
:102AE00030E002C0959587952A95E2F78170992785
:102AF000892B11F081E075C08C819D81FC0183815F
:102B0000482F8E81282F30E081E090E002C0880FAE
:102B1000991F2A95E2F7842B282F8C819D81FC0137
:102B2000238380E05EC08E8181958F83888599851F
:102B3000FC0122858C819D81FC0122838C819D81F9
:102B4000FC018381882F90E02F81222F30E002C08A
:102B5000880F991F2A95E2F78160282F8C819D812B
:102B6000FC0123838C819D8125E1FC01248380E08D
:102B700038C08C819D81FC018481882321F48C8163
:102B80009D819A8389838B818F5F8B838B81823335
:102B900008F46CCF89819A81892B11F481E021C0DE
:102BA00088859985FC012385348589819A81FC017A
:102BB0003183208388859985FC01228589819A81CA
:102BC000FC01228389819A8121E0FC012383898190
:102BD0009A8125E1FC01248384E49AE10E94672123
:102BE00080E029960FB6F894DEBF0FBECDBFDF910F
:102BF000CF910895CF93DF9300D0CDB7DEB79A83FE
:102C0000898389819A81FC018185882311F480E080
:102C100011C089819A81FC0187819085FC018081A6
:102C2000882F90E0892B29F489819A810E94171BB3
:102C300001C080E00F900F90DF91CF910895CF9366
:102C4000DF93CDB7DEB728970FB6F894DEBF0FBE7F
:102C5000CDBF98878F838F81988502969B838A83C7
:102C60008F81988524E2FC0120838A819B81FC016D
:102C700081858270882309F03BC18A819B81FC0198
:102C800081858870882341F08A819B81FC01818540
:102C90008170882309F02EC18A819B81FC01838188
:102CA00094810196D1F42091E81C3091E91C8A812D
:102CB0009B81FC01858596852817390741F08A811B
:102CC0009B81FC0185859685019609F015C18F8150
:102CD000988522E2FC0120830FC18A819B81FC013F
:102CE00085859685019641F48A819B81FC018185C9
:102CF0008170882309F002C12091E81C3091E91C01
:102D00008A819B81FC01838594852817390709F402
:102D1000F7C08A819B810E942615882309F0F2C0A2
:102D20008A819B81FC0181858870882309F4A9C070
:102D30008F8198858F579F4FFC01808191819D8362
:102D40008C838A819B81FC01858596850E94AD12CA
:102D50008E8319828A819B81FC01858196810196EF
:102D600009F061C08E81882379F18C819D81FC01FD
:102D700081818F70882F90E021E0181619060CF0E1
:102D800020E029838C819D81FC0181818F702FE05F
:102D9000280F2F708C819D812F70FC013181307F35
:102DA000232BFC0121838C819D81FC018081282FB4
:102DB00022952F708C819D812F70FC013081307F96
:102DC000232BFC0120833BC08C819D81FC018081F1
:102DD0008F70882F90E021E0181619060CF020E083
:102DE00029838C819D81FC0180818F702FE0280FC9
:102DF0002F708C819D812F70FC013081307F232BBF
:102E0000FC0120838C819D81FC018181282F2295EA
:102E10002F708C819D812F70FC013181307F232B9D
:102E2000FC0121830CC08E81882349F081E08983D5
:102E30008A819B81FC0121852460FC012187898195
:102E4000882321F08F8198850E94881A8E8188239B
:102E500009F459C08F8198858F579F4FFC0180815D
:102E600091819C012E5F3F4F8F8198858F579F4F97
:102E7000FC01318320838F81988522E2FC0120832D
:102E800042C08A819B81FC01858196810196B9F4BB
:102E90002091E81C3091E91C8A819B81FC01858589
:102EA00096852817390759F08A819B81FC01818515
:102EB0008470882321F48F8198850E94881A20913C
:102EC000E81C3091E91C8A819B81FC0185859685EF
:102ED0002817390739F08A819B81FC018585968501
:102EE000019689F48F81988522E2FC0120830BC032
:102EF000000009C0000007C0000005C0000003C0BA
:102F0000000001C0000028960FB6F894DEBF0FBE87
:102F1000CDBFDF91CF910895CF93DF93CDB7DEB7CB
:102F200060970FB6F894DEBF0FBECDBF988B8F872A
:102F30008F85988902969A83898389819A81FC0179
:102F4000878582958F70882F90E00396880F991F50
:102F50008851934EFC0180819181892B11F480E08E
:102F6000B9C089819A81FC01838594859C838B8378
:102F700089819A81FC01858596859E838D838981CF
:102F80009A81FC0187858F708F8389819A81FC01EA
:102F9000878582958F7088878F8598898F579F4FF7
:102FA000FC01808191819B878A878F8598890E9407
:102FB0000E138C878F8598898D579F4FFC018081D8
:102FC0008D878F8598898C579F4FFC0180818E87D4
:102FD00089819A81FC018185982F917081E09923E4
:102FE00009F480E089878985282F89819A81FC01ED
:102FF00081858270822B89878985282F89819A8192
:10300000FC0181858470882311F080E201C080E09A
:10301000822B89878985282F89819A81FC01818566
:103020008870882311F080E401C080E0822B8987BA
:103030008985282F89819A81FC0181858071882367
:1030400011F080E801C080E0822B89878985282FD4
:1030500089819A81FC0185859685019611F484E029
:1030600001C080E0822B89878985482F89819A81D8
:10307000FC012385348589819A81FC0187819085B3
:103080002817390711F488E001C080E0842B898774
:103090008985282F89819A81FC01838194810196F9
:1030A00011F480E101C080E0822B898789819A81B7
:1030B000FC01878582958F70882F90E00396880F9A
:1030C000991F8851934EFC0120813181CE010396D6
:1030D000F901099560960FB6F894DEBF0FBECDBF1B
:1030E000DF91CF910895CF93DF93CDB7DEB760978F
:1030F0000FB6F894DEBF0FBECDBF988B8F878F853C
:10310000988902969A8389838F85988924E2FC01A5
:1031100020838091EE1C9091EF1C892B11F480E0AC
:1031200042C08F859889FC01878190859C838B8321
:103130008F859889FC01878190859E838D831F826E
:1031400018868F8598898F579F4FFC0180819181C8
:103150009B878A878F8598890E940E138C878F851D
:1031600098898D579F4FFC0180818D878F85988925
:103170008C579F4FFC0180818E8780E889878981E9
:103180009A81FC01878582958F70882F90E0039645
:10319000880F991F8851934EFC0120813181CE0107
:1031A0000396F901099560960FB6F894DEBF0FBE3D
:1031B000CDBFDF91CF910895CF93DF9300D01F92C1
:1031C000CDB7DEB79B838A831092431A8A819B8195
:1031D0000E948C1789838A819B81FC018385817081
:1031E000882309F419828A819B81FC01878190855B
:1031F0000196A9F42091E81C3091E91C8A819B81F9
:10320000FC01878590892817390749F48A819B81B9
:10321000FC0183858870882311F481E089838A8189
:103220009B81FC0185819681019609F41982809128
:10323000E81C9091E91C019609F419828981882380
:1032400021F08A819B810E9444148A819B8124E21F
:10325000FC01208300000F900F900F90DF91CF9121
:103260000895CF93DF9300D0CDB7DEB71A821982CD
:1032700029C089819A81FC018081882F90E0823267
:10328000910589F0833291051CF4809739F01AC0BA
:103290008432910569F0859781F014C089819A8103
:1032A0000E941F160FC089819A810E94DC180AC0F3
:1032B00089819A810E94F71105C089819A810E94B3
:1032C0007318000089819A810E9411129A83898360
:1032D00089819A81892B69F600000F900F90DF9108
:1032E000CF910895CF93DF93CDB7DEB71092521AE6
:1032F0001092511A82E390E0A0E0B0E08093591A56
:1033000090935A1AA0935B1AB0935C1A10925D1AAC
:1033100086E69BE190935F1A80935E1A8AE090E0C4
:10332000A0E0B0E08093661A9093671AA093681AA1
:10333000B093691A10926A1A80ED9BE190936C1A0F
:1033400080936B1A0000DF91CF910895CF93DF93A4
:1033500000D000D0CDB7DEB79C838B838B819C815E
:1033600002969A8389838B819C8123E1FC012083CF
:103370008B819C818D579F4FFC0110828B819C819A
:103380008C579F4FFC011182108289819A8120E025
:1033900030E8FC01318320838091ED1C8F5F8093A6
:1033A000ED1C2091ED1C89819A81FC0122832091E2
:1033B000EA1C3091EB1C89819A81FC0134832383C0
:1033C0002091E81C3091E91C89819A81FC013683A7
:1033D000258300000F900F900F900F90DF91CF91F9
:1033E0000895CF93DF9300D000D0CDB7DEB79C8394
:1033F0008B838B819C8102969A8389838B819C81AC
:103400008A579F4FFC018081882F90E08270992716
:10341000892B31F08B819C8122E1FC01208305C046
:103420008B819C8122E1FC0120838B819C818D57C3
:103430009F4FFC0110828B819C818A579F4FFC011A
:103440008081882F90E081709927892B41F08981B4
:103450009A812FEF3FEFFC013483238309C0209131
:10346000EA1C3091EB1C89819A81FC01348323830F
:1034700089819A81FC012585368589819A81FC01A3
:10348000368325832091E81C3091E91C89819A813B
:10349000FC01308727838091ED1C8F5F8093ED1CAA
:1034A0002091ED1C89819A81FC01228389819A8176
:1034B000FC01858196810196A9F489819A8121E494
:1034C00038E8FC01318320830E94F34B87709927F1
:1034D00001969C018B819C818C579F4FFC0131830D
:1034E00020830EC089819A8121E438E8FC01318370
:1034F00020838B819C818C579F4FFC01118210820D
:1035000000000F900F900F900F90DF91CF910895D2
:10351000CF93DF9300D000D0CDB7DEB79C838B83F1
:103520000E9485119A83898389819A81892B09F464
:1035300076C089819A818F579F4FFC01808191814C
:103540009C01205F3F4F89819A818F579F4FFC01DB
:103550003183208389819A8122E1FC0120838B8140
:103560009C81FC01218189819A81FC0121838981CF
:103570009A818D579F4FFC0110820E94F34B8770F8
:10358000992701969C0189819A818C579F4FFC0154
:103590003183208389819A8189579F4FFC01118251
:1035A00010828B819C81FC018181482F50E08B81AE
:1035B0009C819C012E5F3F4F89819A810296B901BF
:1035C0000E94E54C89819A8121E438E8FC0133832B
:1035D000228389819A812FEF3FEFFC013087278377
:1035E0008B819C81FC012581368189819A81FC0136
:1035F000368325832091E81C3091E91C89819A81CA
:10360000FC01328721878091ED1C8F5F8093ED1C38
:103610002091ED1C89819A81FC01248301C0000066
:103620000F900F900F900F90DF91CF910895CF934F
:10363000DF9300D000D000D0CDB7DEB79E838D835E
:103640008D819E81FC01878190859C838B831A826A
:1036500019828D819E81FC018185833019F180E082
:103660002CC089819A81FC0180818631D9F48981BD
:103670009A81FC0124858B819C81FC018181281722
:1036800089F489819A8127E1FC0120838B819C81C7
:10369000FC01228189819A818A579F4FFC012083F6
:1036A00081E00BC089819A810E9411129A838983DB
:1036B00089819A81892BA9F680E026960FB6F89425
:1036C000DEBF0FBECDBFDF91CF910895CF93DF93C3
:1036D00000D000D01F92CDB7DEB79D838C831A82B5
:1036E00019821B8227C089819A81FC0180818631E1
:1036F00009F581E08B8389819A818C579F4FFC016A
:10370000808191819C012150310989819A818C5756
:103710009F4FFC013183208389819A818C579F4F71
:10372000FC0180819181892B29F489819A8160E152
:103730000E94B41B89819A810E9411129A83898305
:1037400089819A81892B79F68B81882321F08C815C
:103750009D810E94672100000F900F900F900F90A5
:103760000F90DF91CF910895CF93DF9300D01F92F8
:10377000CDB7DEB79A8389836B8389819A8127E1EC
:10378000FC01208389819A818D579F4F2B81FC01F9
:10379000208300000F900F900F90DF91CF9108953C
:1037A000CF93DF9300D000D01F92CDB7DEB79D83BB
:1037B0008C831A8219821B8227C089819A81FC011D
:1037C0008081813109F581E08B8389819A818C57D1
:1037D0009F4FFC01808191819C0121503109898199
:1037E0009A818C579F4FFC013183208389819A8174
:1037F0008C579F4FFC0180819181892B29F489810D
:103800009A8123E1FC01208389819A810E9411120F
:103810009A83898389819A81892B79F68B81882380
:1038200021F08C819D810E94672100000F900F90F4
:103830000F900F900F90DF91CF910895CF93DF936A
:103840001F92CDB7DEB789838981882F90E08130C0
:10385000910539F08230910531F0892B31F480E007
:1038600005C080E203C081E201C081E00F90DF91DA
:10387000CF9108950F931F93CF93DF931F92CDB7EE
:10388000DEB789830091511A1091521A89810E94E2
:103890001E1C282FC8018D579F4FFC01208380914B
:1038A000511A9091521A25E1FC0120831092521A6C
:1038B0001092511A80910E1D90910F1D01979093B7
:1038C0000F1D80930E1D00000F90DF91CF911F916F
:1038D0000F910895CF93DF9300D0CDB7DEB71A8252
:1038E0001982AEC089819A81FC018081882F90E085
:1038F0008431910509F4A4C08531910534F48231F5
:10390000910579F0439731F19AC08631910509F418
:1039100097C0863191050CF43EC0479709F475C0F5
:103920008EC089819A818C579F4FFC018081918143
:10393000892B51F089819A8121E1FC01208380E665
:103940009AE10E9467217CC089819A8123E1FC0170
:10395000208376C08091511A9091521A892B09F0D8
:103960006FC089819A819093521A8093511A8981EC
:103970009A8124E1FC01208389819A8101960E9429
:10398000E11E80910E1D90910F1D019690930F1DC9
:1039900080930E1D55C089819A818D579F4FFC01E0
:1039A0008081882361F589819A81FC01258536858E
:1039B0008091E81C9091E91C28173907D1F489817E
:1039C0009A81FC0183858170882399F089819A818D
:1039D00026E1FC01208389819A818C579F4F25E144
:1039E00030E0FC013183208383E59AE10E94672166
:1039F0000BC089819A8127E1FC01208321C0898144
:103A00009A8127E1FC0120831BC089819A81895713
:103A10009F4FFC0180819181892B29F489819A81B2
:103A20000E94F7110DC089819A8189579F4FFC012F
:103A30002081318189819A81F901099501C00000B5
:103A400089819A810E9411129A83898389819A813E
:103A5000892B09F047CF00000F900F90DF91CF9195
:103A60000895CF93DF9300D0CDB7DEB79A838983D3
:103A700089819A81892B09F47BC089819A81883751
:103A8000910549F461E080E00E94143D60E180E02E
:103A90000E94143D6DC089819A81803C910529F472
:103AA00062E080E00E94143D63C089819A818C3479
:103AB000910529F464E080E00E94143D59C0898199
:103AC0009A818038910529F468E080E00E94143DD5
:103AD0004FC089819A818434910529F460E280E0A5
:103AE0000E94143D45C089819A81803B910529F44B
:103AF00060E480E00E94143D3BC089819A81883B4C
:103B0000910529F460E880E00E94143D31C089816C
:103B10009A81883C910529F461E081E00E94143D7E
:103B200027C089819A818039910529F468E081E074
:103B30000E94143D1DC089819A81803A910529F423
:103B400060E181E00E94143D13C089819A81803236
:103B5000914029F460E281E00E94143D09C089810E
:103B60009A818334914021F460E481E00E94143D05
:103B700000000F900F90DF91CF910895615071096F
:103B800081099109D9F70895CF93DF93CDB7DEB7B7
:103B900083E491E00E94311D89E391E0FC012081E2
:103BA0002160FC0120831092EE1A81E080936D1A4F
:103BB00088E00E94BE1F8CE491E0FC012081206817
:103BC000FC0120830000DF91CF910895CF93DF9314
:103BD0001F92CDB7DEB7898389818823B1F08CE647
:103BE00091E0FC0120812F70FC0120838CE691E0A4
:103BF000FC0120812E60FC0120838EE691E0FC0117
:103C000020812061FC01208317C08CE691E0FC013B
:103C100020812F702063FC0120838CE691E0FC0161
:103C20002081217F2860FC0120838EE691E0FC0149
:103C300020812F7EFC01208300000F90DF91CF9127
:103C40000895CF93DF931F92CDB7DEB78983898123
:103C50008093EE1A0E94A71F00000F90DF91CF9172
:103C60000895CF93DF931F92CDB7DEB7898388E4A1
:103C700091E029812F712F71FC013081307E232B3F
:103C8000FC01208300000F90DF91CF910895CF9326
:103C9000DF9300D000D0CDB7DEB79C838B83CE01FD
:103CA00003969A83898382E691E029813A81F9011A
:103CB0002081FC01208383E691E029813A81F9018A
:103CC0002181FC01208300000F900F900F900F9036
:103CD000DF91CF910895CF93DF9300D000D0CDB77F
:103CE000DEB79C838B83CE0103969A83898380E61B
:103CF00091E029813A81F9012081FC01208381E64C
:103D000091E029813A81F9012181FC0120838DE62E
:103D100091E029813A81F901408129813A812F5F1F
:103D20003F4FF9012081240FFC01208300000F90F8
:103D30000F900F900F90DF91CF910895CF93DF9365
:103D40001F92CDB7DEB7898385E491E029812F707A
:103D50002F70FC013081307F232BFC012083000079
:103D60000F90DF91CF910895CF93DF93CDB7DEB75A
:103D700080916D1A823069F088E00E94BE1F89E34D
:103D800091E0FC0120812260FC01208382E080938D
:103D90006D1A0000DF91CF910895CF93DF93CDB7D7
:103DA000DEB789E391E0FC0120812D7FFC012083B7
:103DB0000E94A71F81E080936D1A0000DF91CF91D0
:103DC0000895CF93DF9300D01F92CDB7DEB79B83CA
:103DD0008A8389E10E94BE1F80E891E02A813B81AD
:103DE000F90120812E5FFC012083198215C0898191
:103DF000882F90E08F579E4FAC018981882F90E0EB
:103E000001962A813B81820F931FFC018081FA0178
:103E1000808389818F5F89838A819B81FC01908166
:103E20008981891720F383E080936D1A82E491E001
:103E300022E0FC01208300000F900F900F90DF9193
:103E4000CF910895CF93DF9300D01F92CDB7DEB707
:103E50001A82198286E00E94BE1F1B8222C062E085
:103E600070E080E090E00E94BE1D86E491E0FC01DD
:103E700080818295869587708370882F90E02B8152
:103E8000222F30E002C0880F991F2A95E2F79C018B
:103E900089819A81822B932B9A8389838B818E5F70
:103EA0008B838B818031D8F20E94A71F89819A81F0
:103EB0000F900F900F90DF91CF910895CF93DF93E4
:103EC00000D000D0CDB7DEB79A8389837C836B8323
:103ED0008B819C8140E060E00E94083089819A815A
:103EE0000E94143189819A810E944A3100000F900A
:103EF0000F900F900F90DF91CF910895CF93DF93A4
:103F00001F92CDB7DEB786E00E94BE1F8FE491E01E
:103F1000FC0120812061FC01208387E491E0FC0109
:103F2000108200008FE491E0FC0180818295817015
:103F30008823C1F387E491E0FC0180818A5589835D
:103F40000E94A71F89810F90DF91CF910895CF9391
:103F5000DF93CDB7DEB788E00E94BE1F8FE491E00B
:103F60002FEFFC0120838091EE1A882319F086E15F
:103F70000E94BE1F0000DF91CF910895CF93DF9381
:103F80001F92CDB7DEB7898382E491E023E0FC0184
:103F9000208381E491E0FC0180818F718830A1F75A
:103FA00082E491E02981FC01208381E491E0FC011D
:103FB00080818F71982F8981981791F700000F9059
:103FC000DF91CF910895CF93DF9300D000D0CDB78C
:103FD000DEB79C838B838B819C819A83898324E6C3
:103FE00031E089819A81AC014F5F5F4F5A834983E9
:103FF000FC018081F901808325E631E089819A8185
:10400000AC014F5F5F4F5A834983FC018081F90106
:10401000808326E631E089819A81AC014F5F5F4F52
:104020005A834983FC018081F901808327E631E0CE
:1040300089819A81AC014F5F5F4F5A834983FC01AC
:104040008081F901808328E631E089819A81AC0181
:104050004F5F5F4F5A834983FC018081F901808360
:1040600029E631E089819A81AC014F5F5F4F5A8325
:104070004983FC018081F90180832AE631E089814E
:104080009A81AC014F5F5F4F5A834983FC01808165
:10409000F90180838BE691E029813A81F901208141
:1040A000FC01208300000F900F900F900F90DF9184
:1040B000CF910895CF93DF93CDB7DEB728970FB692
:1040C000F894DEBF0FBECDBF80916D1A823009F427
:1040D0009EC08FE491E0FC01808183FB882780F9FA
:1040E000882309F459C08BE791E0FC0180818B8320
:1040F000198211C08981882F90E02981222F30E018
:1041000020583E4FF90120818259954EFC012083B1
:1041100089818F5F89838981282F30E08B81882F67
:1041200090E00196281739072CF38EE69AE19D83DB
:104130008C838B8182508E838B81882F90E0825973
:10414000954EFC0180818F8387E491E0FC018081A2
:104150008A558887CE0104960E946913000081E485
:1041600091E0FC0180818F718631C9F78FE491E085
:10417000FC0120812860FC0120838CE491E0FC019B
:1041800020812F77FC0120838CE491E0FC012081C9
:104190002068FC0120833CC08FE491E0FC01808119
:1041A00086FB882780F9882399F181E491E0FC015E
:1041B00080818F71893119F582E491E0FC01808161
:1041C0008295869587708A838A81882311F41A8262
:1041D0000EC08A81833019F481E08A8308C08A8105
:1041E000853019F482E08A8302C083E08A830E94CA
:1041F000A71F81E080936D1A8A810E943A1C8FE488
:1042000091E0FC0120812064FC01208301C00000BA
:1042100028960FB6F894DEBF0FBECDBFDF91CF91C9
:104220000895CF93DF93CDB7DEB70E944F210E9450
:1042300000300E94C41D0E94100D0000DF91CF913C
:104240000895CF93DF93CDB7DEB70E945A200E9426
:104250000E0E0E9421220000DF91CF910895CF938E
:10426000DF931F92CDB7DEB78FE590E0FC01808130
:104270008983F89489810F90DF91CF910895CF932E
:10428000DF931F92CDB7DEB789838FE590E0298158
:10429000FC01208300000F90DF91CF910895CF9310
:1042A000DF93CDB7DEB71092101D89EB93E20E9429
:1042B0008D430E943F4380E197E20E94D5421092D5
:1042C000F01A1092EF1A0000DF91CF910895CF936A
:1042D000DF9300D0CDB7DEB79A83898389819A8135
:1042E0000E94F621982F81E08927882321F0898177
:1042F0009A810E94E42200000F900F90DF91CF91ED
:104300000895CF93DF9300D000D000D0CDB7DEB7B3
:104310009E838D831A8219828091EF1A9091F01AF0
:104320009C838B8352C02B813C818D819E81281779
:10433000390709F03FC089819A81892B59F08B8117
:104340009C81FC012081318189819A81FC0131832A
:10435000208309C08B819C81FC0180819181909395
:10436000F01A8093EF1A8B819C81FC0180819181EE
:10437000892B89F18B819C81FC01608171818B810A
:104380009C81FC0180819181FC01228133814481E7
:1043900055818D819E81FC0182819381A481B581AB
:1043A000820F931FA41FB51FFB0182839383A483F5
:1043B000B58311C08B819C819A8389838B819C8179
:1043C000FC01808191819C838B838B819C81892BD3
:1043D00009F0A9CF01C00000000026960FB6F8949E
:1043E000DEBF0FBECDBFDF91CF910895CF93DF9396
:1043F00000D000D0CDB7DEB79C838B838091EF1ABD
:104400009091F01A9A83898310C029813A818B8117
:104410009C812817390711F481E00CC089819A81A9
:10442000FC01808191819A83898389819A81892B7A
:1044300061F780E00F900F900F900F90DF91CF9178
:104440000895EF92FF920F931F93CF93DF93CDB711
:10445000DEB728970FB6F894DEBF0FBECDBF8091B0
:10446000101D882309F4A2C00E942F218D83809102
:10447000101D8E831092101D8D810E943F218E8110
:10448000882F90E0A0E0B0E0880F991FAA1FBB1F03
:104490009C01AD01220F331F441F551F220F331FF4
:1044A000441F551F820F931FA41FB51F89839A8332
:1044B000AB83BC833DC08091EF1A9091F01A98872E
:1044C0008F838091EF1A9091F01AFC018281938181
:1044D000A481B58129813A814B815C8179018A016E
:1044E000E81AF90A0A0B1B0BD801C70189839A83C2
:1044F000AB83BC838091EF1A9091F01AFC0180810C
:1045000091819093F01A8093EF1A8F819885FC0126
:104510008285813021F48F8198850E94E4228F81E9
:104520009885FC01238534858F819885F90109954B
:104530008091EF1A9091F01A892B99F08091EF1ADF
:104540009091F01AFC012281338144815581898147
:104550009A81AB81BC8182179307A407B50708F045
:10456000AACF8091EF1A9091F01A892B01F16091F6
:10457000EF1A7091F01A8091EF1A9091F01AFC01E5
:10458000228133814481558189819A81AB81BC81AB
:1045900079018A01E81AF90A0A0B1B0BD801C70135
:1045A000FB0182839383A483B58301C00000289616
:1045B0000FB6F894DEBF0FBECDBFDF91CF911F9134
:1045C0000F91FF90EF900895EF92FF920F931F933A
:1045D000CF93DF93CDB7DEB72A970FB6F894DEBF3F
:1045E0000FBECDBF9A8789878091EF1A9091F01AFC
:1045F000892B09F497C01A82198289859A85FC0152
:1046000086819781A085B1858B839C83AD83BE8392
:104610008091EF1A9091F01A98878F834DC08F8107
:104620009885FC0122813381448155818B819C8155
:10463000AD81BE8182179307A407B507D8F48F8197
:104640009885FC0122813381448155818B819C8135
:10465000AD81BE8179018A01E81AF90A0A0B1B0BA8
:10466000D801C7012F813885F90182839383A48300
:10467000B58327C08F819885FC0182819381A481B5
:10468000B5812B813C814D815E8179018A01E81AD7
:10469000F90A0A0B1B0BD801C7018B839C83AD83DE
:1046A000BE838F8198859A8389838F819885FC0149
:1046B0008081918198878F838F819885892B09F0DC
:1046C000AECF29853A858B819C81AD81BE81F90170
:1046D00082839383A483B58389819A81892B91F006
:1046E00089819A81FC012081318189859A85FC012B
:1046F0003183208389819A8129853A85FC01318320
:10470000208329C02091EF1A3091F01A89859A856B
:10471000FC013183208389859A859093F01A8093D8
:10472000EF1A19C089859A85FC011182108289854A
:104730009A85FC0186819781A085B18529853A8576
:10474000F90182839383A483B58389859A859093A5
:10475000F01A8093EF1A00002A960FB6F894DEBF85
:104760000FBECDBFDF91CF911F910F91FF90EF90C2
:104770000895CF93DF93CDB7DEB78091101D8F5F83
:104780008093101D80E197E20E94D5420000DF91E6
:10479000CF910895CF93DF931F92CDB7DEB78FE50A
:1047A00090E0FC0180818983F89489810F90DF91EA
:1047B000CF910895CF93DF931F92CDB7DEB7898352
:1047C0008FE590E02981FC01208300000F90DF91AC
:1047D000CF910895CF93DF93CDB7DEB780E094E219
:1047E000A4EFB0E0BC01CD01DF91CF910895CF934C
:1047F000DF93CDB7DEB70E94EA23DC01CB01BC0119
:10480000CD01DF91CF910895CF93DF9300D0CDB745
:10481000DEB79A83898389819A81892B21F480E08C
:1048200090E0DC01A3C089819A818837910529F441
:104830000E94F723DC01CB0199C089819A81803CD9
:10484000910529F40E94F723DC01CB018FC08981F7
:104850009A818C34910529F40E94F723DC01CB0165
:1048600085C089819A818038910529F40E94F723B7
:10487000DC01CB017BC089819A818434910529F4C4
:104880000E94F723DC01CB0171C089819A81803BB2
:10489000910529F40E94F723DC01CB0167C08981CF
:1048A0009A81803C910529F40E94F723DC01CB0119
:1048B0005DC089819A81883B910529F40E94F72384
:1048C000DC01CB0153C089819A818039910529F49B
:1048D0000E94F723DC01CB0149C089819A81803A8B
:1048E000910529F40E94F723DC01CB013FC08981A7
:1048F0009A818032914029F40E94F723DC01CB0198
:1049000035C089819A818334914029F40E94F7232C
:10491000DC01CB012BC089819A818533914029F438
:104920000E94F723DC01CB0121C089819A81843365
:10493000914029F40E94F723DC01CB0117C0898143
:104940009A818333914029F40E94F723DC01CB0143
:104950000DC089819A818233914029F40E94F72306
:10496000DC01CB0103C080E090E0DC01BC01CD01A3
:104970000F900F90DF91CF910895CF93DF9300D0E8
:104980001F92CDB7DEB79A8389836B8389819A8121
:104990008038910559F481E890E021E830E0F90190
:1049A00030812B81232BFC0120832FC089819A81A8
:1049B0008039910559F481E990E021E930E0F9016D
:1049C00030812B81232BFC0120831FC089819A8198
:1049D000803A910559F481EA90E021EA30E0F9014A
:1049E00030812B81232BFC0120830FC089819A8188
:1049F0008032914051F481E291E021E231E0F9010D
:104A000030812B81232BFC01208300000F900F901D
:104A10000F90DF91CF910895CF93DF9300D0CDB762
:104A2000DEB79A83898389819A818038910551F410
:104A30008FE690E02FE630E0F90120812160FC0153
:104A400020832CC089819A818039910551F481E7B6
:104A500090E021E730E0F90120812160FC01208312
:104A60001DC089819A81803A910551F482E790E0D6
:104A700022E730E0F90120812160FC0120830EC093
:104A800089819A818032914049F483E790E023E75D
:104A900030E0F90120812160FC01208300000F90AB
:104AA0000F90DF91CF910895CF93DF9300D0CDB7D2
:104AB000DEB79A83898389819A818038910551F480
:104AC0008FE690E02FE630E0F90120812260FC01C2
:104AD00020832CC089819A818039910551F481E726
:104AE00090E021E730E0F90120812260FC01208381
:104AF0001DC089819A81803A910551F482E790E046
:104B000022E730E0F90120812260FC0120830EC001
:104B100089819A818032914049F483E790E023E7CC
:104B200030E0F90120812260FC01208300000F9019
:104B30000F90DF91CF910895CF93DF9300D0CDB741
:104B4000DEB79A83898389819A818038910551F4EF
:104B50008FE690E02FE630E0F90120812D7FFC0107
:104B600020832CC089819A818039910551F481E795
:104B700090E021E730E0F90120812D7FFC012083C6
:104B80001DC089819A81803A910551F482E790E0B5
:104B900022E730E0F90120812D7FFC0120830EC047
:104BA00089819A818032914049F483E790E023E73C
:104BB00030E0F90120812D7FFC01208300000F905F
:104BC0000F90DF91CF910895CF93DF93CDB7DEB7EC
:104BD00027970FB6F894DEBF0FBECDBF9C838B83A3
:104BE0006D835F834E838B819C819A8389838D81C2
:104BF000882F90E0019629813A81820F931F2D81A1
:104C0000222F30E02F5F3F4F49815A81240F351FFB
:104C1000F90140812E813F81232F3327242BFC0172
:104C200020838D81882F90E029813A81820F931F04
:104C30002D81222F30E049815A81240F351FF9013F
:104C400030812E81232BFC012083000027960FB694
:104C5000F894DEBF0FBECDBFDF91CF910895CF9303
:104C6000DF9300D0CDB7DEB79A83898389819A819B
:104C70008038910551F486E390E026E330E0F901B5
:104C800020812160FC0120832CC089819A81803998
:104C9000910551F488E390E028E330E0F9012081A8
:104CA0002160FC0120831DC089819A81803A910591
:104CB00051F489E390E029E330E0F901208121609B
:104CC000FC0120830EC089819A818032914049F491
:104CD0008AE390E02AE330E0F90120812160FC01C1
:104CE000208300000F900F90DF91CF910895CF9314
:104CF000DF9300D0CDB7DEB79A83898389819A810B
:104D00008038910551F486E390E026E330E0F90124
:104D100020812260FC0120832CC089819A81803906
:104D2000910551F488E390E028E330E0F901208117
:104D30002260FC0120831DC089819A81803A9105FF
:104D400051F489E390E029E330E0F9012081226009
:104D5000FC0120830EC089819A818032914049F400
:104D60008AE390E02AE330E0F90120812260FC012F
:104D7000208300000F900F90DF91CF910895CF9383
:104D8000DF9300D0CDB7DEB79A83898389819A817A
:104D90008038910531F484E890E0FC0180819181B4
:104DA00023C089819A818039910531F484E990E0AA
:104DB000FC018081918118C089819A81803A910596
:104DC00031F484EA90E0FC01808191810DC08981F9
:104DD0009A818032914031F484E291E0FC0180813B
:104DE000918102C080E090E00F900F90DF91CF9111
:104DF0000895CF93DF9300D000D01F92CDB7DEB7D8
:104E00009C838B836D838B819C819A8389838D8125
:104E1000882349F489819A81FC01208189819A81C2
:104E2000FC0120830FC08D81843061F489819A81D7
:104E3000019629813A812F5F3F4FF9012081286037
:104E4000FC01208300000F900F900F900F900F90A7
:104E5000DF91CF910895CF93DF93CDB7DEB780E890
:104E600090E00E94BF26DF91CF910895CF93DF930A
:104E7000CDB7DEB780E890E00E949C2580E890E006
:104E80000E9477260000DF91CF910895CF93DF93A2
:104E9000CDB7DEB780E890E00E94772680E890E00A
:104EA0000E9454250000DF91CF910895CF93DF93A6
:104EB000CDB7DEB780E890E00E940C2580E890E056
:104EC0000E942F260000DF91CF910895CF93DF93AA
:104ED000CDB7DEB780E890E00E94E32E0000DF91BE
:104EE000CF910895CF93DF9300D0CDB7DEB79A83EB
:104EF000898389819A81AC0168E080E890E00E9412
:104F0000E42500000F900F90DF91CF910895CF938B
:104F1000DF93CDB7DEB70E94CA23DF91CF9108950A
:104F2000CF93DF931F92CDB7DEB7898389810E942B
:104F3000DA2300000F90DF91CF910895CF93DF9394
:104F40001F92CDB7DEB780E890E00E94CA2E67E3DB
:104F500078E280E890E00E94FC2E60E080E890E03B
:104F60000E94F92680E890E00E940C2580E890E0FD
:104F70000E94D92780E890E00E949C2561E080E8AB
:104F800090E00E94BD2480E890E00E940424DC01AF
:104F9000CB0120E432E44FE050E0BC01CD010E949F
:104FA0004249DA01C901898389810F90DF91CF914C
:104FB0000895CF93DF9300D0CDB7DEB79A8389836E
:104FC00089819A818038910579F089819A81803927
:104FD000910551F089819A81803A910529F0898162
:104FE0009A818032914039F461E478E280E890E07F
:104FF0000E943D2F36C089819A818138910579F0D0
:1050000089819A818139910551F089819A81813A0A
:10501000910529F089819A818132914039F461E4C6
:1050200078E280E890E00E947E2F1BC089819A81FF
:105030008238910579F089819A818239910551F000
:1050400089819A81823A910529F089819A818232F7
:10505000914039F461E478E280E890E00E94BF2F4B
:1050600000C000000F900F90DF91CF910895CF9373
:10507000DF93CDB7DEB70E9446430000DF91CF91AA
:105080000895CF93DF93CDB7DEB70E947E43000033
:10509000DF91CF910895CF93DF931F92CDB7DEB705
:1050A0008FE590E0FC0180818983F89489810F90DD
:1050B000DF91CF910895CF93DF931F92CDB7DEB7E5
:1050C00089838FE590E02981FC01208300000F9007
:1050D000DF91CF910895EF92FF920F931F93CF939B
:1050E000DF93CDB7DEB72C970FB6F894DEBF0FBEB7
:1050F000CDBF6B837C838D839E832F8338874987C5
:105100005A871C870B878F819885A985BA858093DC
:10511000F11A9093F21AA093F31AB093F41A8B85B4
:105120009C859A8389838B819C81AD81BE818827F0
:105130009F5FAF4FBF4F8093F51A9093F61AA093DD
:10514000F71AB093F81A8B819C81AD81BE818827B4
:1051500009EF1AE120E031E040E050E0BC01CD0170
:105160000E945E2929EF3AE140E051E060E070E002
:10517000CB010E94A34F2091F11A3091F21A409175
:10518000F31A5091F41A8B819C81AD81BE81280F56
:10519000391F4A1F5B1F8091F51A9091F61AA09152
:1051A000F71AB091F81A82179307A407B507A0F46D
:1051B0008091F51A9091F61AA091F71AB091F81A09
:1051C0009C018B819C817901E81AF90AC7019093AF
:1051D000FA1B8093F91B0CC08091F11A9091F21A7E
:1051E000A091F31AB091F41A9093FA1B8093F91BD3
:1051F0002091F11A3091F21A4091F31A5091F41A59
:105200008091F91B9091FA1BCC01A0E0B0E07901EC
:105210008A01E81AF90A0A0B1B0BD801C70180930F
:10522000F11A9093F21AA093F31AB093F41A4091E2
:10523000F91B5091FA1B29813A818B819C81AD81A8
:10524000BE81BC01CD010E94A34F8B819C81AD81A9
:10525000BE81BC01CD010E94B0508091F51A9091A1
:10526000F61AA091F71AB091F81A8B839C83AD833C
:10527000BE838091F91B9091FA1B29813A81820F9C
:10528000931F9A8389838091F11A9091F21AA091C9
:10529000F31AB091F41A892B8A2B8B2B09F043CF88
:1052A00000002C960FB6F894DEBF0FBECDBFDF9185
:1052B000CF911F910F91FF90EF9008950F931F933F
:1052C000CF93DF93CDB7DEB762970FB6F894DEBF0A
:1052D0000FBECDBF69877A878B879C872D873E87D6
:1052E0004F87588B1A8B098B0E944B288B831A820D
:1052F000198229C029893A8989819A81B901680F5F
:10530000791F89859A85AB85BC859C01AD012F5F8E
:105310003F4F4F4F5F4F29873A874B875C878C837E
:105320009D83AE83BF838C819D81AE81BF81ABBFE6
:10533000FC01879188878885FB01808389819A8118
:1053400001969A83898389819A819C0140E050E08B
:105350008D859E85AF85B889281739074A075B0771
:1053600048F28B810E945B28000062960FB6F89489
:10537000DEBF0FBECDBFDF91CF911F910F9108957A
:10538000CF93DF931F92CDB7DEB78FE590E0FC019E
:1053900080818983F89489810F90DF91CF9108955E
:1053A000CF93DF931F92CDB7DEB789838FE590E06F
:1053B0002981FC01208300000F90DF91CF91089597
:1053C000CF93DF9300D0CDB7DEB79A8389838981ED
:1053D0009A81892B09F47BC089819A81883791054C
:1053E00049F461E080E00E94143D60E180E00E94A9
:1053F000143D6DC089819A81803C910529F462E059
:1054000080E00E94143D63C089819A818C349105AB
:1054100029F464E080E00E94143D59C089819A819A
:105420008038910529F468E080E00E94143D4FC067
:1054300089819A818434910529F460E280E00E9498
:10544000143D45C089819A81803B910529F460E42F
:1054500080E00E94143D3BC089819A81883B910580
:1054600029F460E880E00E94143D31C089819A816E
:10547000883C910529F461E081E00E94143D27C039
:1054800089819A818039910529F468E081E00E9440
:10549000143D1DC089819A81803A910529F460E10B
:1054A00081E00E94143D13C089819A81803291402D
:1054B00029F460E281E00E94143D09C089819A814B
:1054C0008334914021F460E481E00E94143D0000A7
:1054D0000F900F90DF91CF910895CF93DF9300D07D
:1054E000CDB7DEB79A83898389819A81892B09F4A4
:1054F0007BC089819A818837910549F461E080E019
:105500000E94493D60E180E00E94493D6DC0898173
:105510009A81803C910529F462E080E00E94493D37
:1055200063C089819A818C34910529F464E080E01C
:105530000E94493D59C089819A818038910529F49A
:1055400068E080E00E94493D4FC089819A8184349F
:10555000910529F460E280E00E94493D45C08981BF
:105560009A81803B910529F460E480E00E94493DE6
:105570003BC089819A81883B910529F460E880E0ED
:105580000E94493D31C089819A81883C910529F466
:1055900061E081E00E94493D27C089819A8180397C
:1055A000910529F468E081E00E94493D1DC0898190
:1055B0009A81803A910529F460E181E00E94493D99
:1055C00013C089819A818032914029F460E281E0A0
:1055D0000E94493D09C089819A818334914021F418
:1055E00060E481E00E94493D00000F900F90DF9140
:1055F000CF9108951F920F9200905F000F92112497
:1056000000905B000F922F933F934F935F936F93A4
:105610007F938F939F93AF93BF93EF93FF93CF931A
:10562000DF93CDB7DEB78091FB1B9091FC1B892BDC
:1056300031F08091FB1B9091FC1BFC01099500004F
:10564000DF91CF91FF91EF91BF91AF919F918F919A
:105650007F916F915F914F913F912F910F900092A9
:105660005B000F9000925F000F901F9018951F92A3
:105670000F9200905F000F92112400905B000F9238
:105680002F933F934F935F936F937F938F939F934A
:10569000AF93BF93EF93FF93CF93DF93CDB7DEB775
:1056A0008091FD1B9091FE1B892B31F08091FD1B99
:1056B0009091FE1BFC0109950000DF91CF91FF91B5
:1056C000EF91BF91AF919F918F917F916F915F917A
:1056D0004F913F912F910F9000925B000F9000929D
:1056E0005F000F901F9018951F920F9200905F001F
:1056F0000F92112400905B000F922F933F934F93D2
:105700005F936F937F938F939F93AF93BF93EF9329
:10571000FF93CF93DF93CDB7DEB78091FF1B9091BE
:10572000001C892B31F08091FF1B9091001CFC0123
:1057300009950000DF91CF91FF91EF91BF91AF915B
:105740009F918F917F916F915F914F913F912F9199
:105750000F9000925B000F9000925F000F901F90DF
:1057600018951F920F9200905F000F9211240090E5
:105770005B000F922F933F934F935F936F937F93B1
:105780008F939F93AF93BF93EF93FF93CF93DF9349
:10579000CDB7DEB78091011C9091021C892B31F0AE
:1057A0008091011C9091021CFC0109950000DF9181
:1057B000CF91FF91EF91BF91AF919F918F917F9189
:1057C0006F915F914F913F912F910F9000925B00ED
:1057D0000F9000925F000F901F9018951F920F92EC
:1057E00000905F000F92112400905B000F922F93A6
:1057F0003F934F935F936F937F938F939F93AF9359
:10580000BF93EF93FF93CF93DF93CDB7DEB7809134
:10581000031C9091041C892B31F08091031C909102
:10582000041CFC0109950000DF91CF91FF91EF91DD
:10583000BF91AF919F918F917F916F915F914F91A8
:105840003F912F910F9000925B000F9000925F00AC
:105850000F901F9018951F920F9200905F000F926B
:10586000112400905B000F922F933F934F935F930F
:105870006F937F938F939F93AF93BF93EF93FF9318
:10588000CF93DF93CDB7DEB78091051C9091061CB6
:10589000892B31F08091051C9091061CFC01099523
:1058A0000000DF91CF91FF91EF91BF91AF919F9158
:1058B0008F917F916F915F914F913F912F910F90B9
:1058C00000925B000F9000925F000F901F90189560
:1058D0001F920F9200905F000F92112400905B00C6
:1058E0000F922F933F934F935F936F937F938F9379
:1058F0009F93AF93BF93EF93FF93CF93DF93CDB776
:10590000DEB78091071C9091081C892B31F08091A3
:10591000071C9091081CFC0109950000DF91CF91B4
:10592000FF91EF91BF91AF919F918F917F916F9177
:105930005F914F913F912F910F9000925B000F90DC
:1059400000925F000F901F9018951F920F92009089
:105950005F000F92112400905B000F922F933F93F2
:105960004F935F936F937F938F939F93AF93BF9367
:10597000EF93FF93CF93DF93CDB7DEB78091091CF0
:1059800090910A1C892B31F08091091C90910A1C7E
:10599000FC0109950000DF91CF91FF91EF91BF913C
:1059A000AF919F918F917F916F915F914F913F91B7
:1059B0002F910F9000925B000F9000925F000F906C
:1059C0001F9018951F920F9200905F000F92112464
:1059D00000905B000F922F933F934F935F936F93D1
:1059E0007F938F939F93AF93BF93EF93FF93CF9347
:1059F000DF93CDB7DEB780910B1C90910C1C892BE7
:105A000031F080910B1C90910C1CFC010995000059
:105A1000DF91CF91FF91EF91BF91AF919F918F91C6
:105A20007F916F915F914F913F912F910F900092D5
:105A30005B000F9000925F000F901F9018951F92CF
:105A40000F9200905F000F92112400905B000F9264
:105A50002F933F934F935F936F937F938F939F9376
:105A6000AF93BF93EF93FF93CF93DF93CDB7DEB7A1
:105A700080910D1C90910E1C892B31F080910D1C92
:105A800090910E1CFC0109950000DF91CF91FF91D0
:105A9000EF91BF91AF919F918F917F916F915F91A6
:105AA0004F913F912F910F9000925B000F900092C9
:105AB0005F000F901F9018951F920F9200905F004B
:105AC0000F92112400905B000F922F933F934F93FE
:105AD0005F936F937F938F939F93AF93BF93EF9356
