:100000000C9471010C9490010C9490010C9490014B
:100010000C9490010C9490010C9490010C9490011C
:100020000C9490010C9490010C9490010C9490010C
:100030000C9494320C9490010C9490010C949001C7
:100040000C9490010C94FC210C9439220C9476228F
:100050000C94BF210C9490010C9490010C9490018D
:100060000C9490010C9490360C9490010C94900197
:100070000C9490010C9490010C9490010C949001BC
:100080000C94F0220C942D230C946A230C94B3222C
:100090000C9490010C9490010C9490010C9490019C
:1000A0000C9490010C9490010C94E4230C94212462
:1000B0000C945E240C94A7230C9490010C94D824E7
:1000C0000C9415250C9452250C949B240C949001AF
:1000D0000C9490010C9490010C9490010C9490015C
:1000E0000C9490010C9490010C9490010C9490014C
:1000F0000C9490010C9490010C9490010C9490013C
:100100000C9490010C94A5290C94E2290C941F2ABC
:100110000C9468290C945C2A0C9490010C94900126
:100120006E616E00696E660000407A10F35A00A09E
:10013000724E18090010A5D4E80000E876481700B0
:1001400000E40B54020000CA9A3B000000E1F505F0
:10015000000080969800000040420F000000A0863A
:1001600001000000102700000000E803000000006C
:100170006400000000000A00000000000100000010
:1001800000002C76D888DC674F0823DFC1DFAE592A
:10019000E1B1B796E5E3E453C63AE651997696E8BD
:1001A000E6C28426EB898C9B62ED407C6FFCEFBC41
:1001B0009C9F40F2BAA56FA5F490055A2AF75C936C
:1001C0006B6CF9676DC11BFCE0E40D47FEF520E6A2
:1001D000B500D0ED902E0300943577050080841E85
:1001E000080000204E0A000000C80C333333330FE0
:1001F000986E12831141EF8D2114893BE65516CF7D
:10020000FEE6DB18D1844B381BF77C1D901DA4BB88
:10021000E424203284725E228100C9F124ECA1E53D
:100220003D27330019000C00060003000200010006
:10023000FF00A001CF006700330019000C00070089
:1002400008004003A001CF00670033001900100030
:100250001000330019000C0006000300020001002A
:10026000FF00A001CF006700330019000C00070059
:1002700008004003A001CF00670033001900100000
:100280001000330019000C000600030002000100FA
:10029000FF00A001CF006700330019000C00070029
:1002A00008004003A001CF006700330019001000D0
:1002B0001000330019000C000600030002000100CA
:1002C000FF00A001CF006700330019000C000700F9
:1002D00008004003A001CF006700330019001000A0
:1002E000100011241FBECFEFD1E4DEBFCDBF12E05E
:1002F000A0E0B2E0EAE3F3E900E00BBF02C0079040
:100300000D92AA32B107D9F720E1AAE2B2E001C00A
:100310001D92AB3CB207E1F70E9469020C94EF47D3
:100320000C940000CF93DF93CDB7DEB780E094E26A
:10033000A4EFB0E0BC01CD01DF91CF910895CF9340
:10034000DF93CDB7DEB70E949201DC01CB01BC0187
:10035000CD01DF91CF910895CF93DF9300D0CDB73A
:10036000DEB79A83898389819A81FC018081282F55
:10037000226089819A81FC01208300000F900F90F8
:10038000DF91CF910895CF93DF93CDB7DEB72B9751
:100390000FB6F894DEBF0FBECDBF998788877B87E5
:1003A0006A878A859B85FC0184818D838A859B85EC
:1003B000FC0185818E838A859B85FC0186818F83E4
:1003C0008A859B85FC0180819181A281B38189838B
:1003D0009A83AB83BC83888599859E012F5F3F4FAD
:1003E000B9010E94EC2D882311F081E001C080E06A
:1003F0002B960FB6F894DEBF0FBECDBFDF91CF9125
:100400000895CF93DF9300D01F92CDB7DEB79A83C4
:1004100089836B8389819A816B810E94FA2F0F9067
:100420000F900F90DF91CF910895CF93DF9300D07D
:1004300000D0CDB7DEB79A8389837C836B838981B3
:100440009A810E941930282F8B819C81FC01208386
:1004500000000F900F900F900F90DF91CF910895B3
:10046000CF93DF9300D000D0CDB7DEB79A838983D6
:100470007C836B8389819A819093BF108093BE1097
:1004800081E092E09093BD108093BC1085E192E0F2
:100490009093BB108093BA102B813C8189819A8103
:1004A000B9010E94C3016CEC74E38BEE94E30E94EB
:1004B0009B4500000F900F900F900F90DF91CF9110
:1004C0000895CF93DF93CDB7DEB70000DF91CF91D2
:1004D00008950F931F93CF93DF93CDB7DEB7279780
:1004E0000FB6F894DEBF0FBECDBF0E94B3330E949B
:1004F000E8360E94D61781E00E9438140E9416291F
:10050000789427E0E9E1F2E0CE010196DC01019068
:100510000D922A95E1F7CE010196BC0180EC90E0A6
:100520000E94300280EC90E00E94AC010E949F018A
:10053000DC01CB018C019D0140E052EC61E070E0F8
:1005400080EC90E00E9495300E94E6170E946102C4
:10055000FBCFCF93DF931F92CDB7DEB710928E10F3
:1005600010928F1010928B1010928A101092B1106E
:100570001092B01019820EC08981882F90E00396E6
:10058000880F991F86579F4EFC0111821082898126
:100590008F5F89838981803178F30E947F0F0E9469
:1005A00017090E9459070E94B30300000F90DF91C2
:1005B000CF910895CF93DF9300D0CDB7DEB79A8364
:1005C000898389819A8190938B1080938A10898185
:1005D0009A810E948A1500000F900F90DF91CF91B1
:1005E0000895CF93DF9300D0CDB7DEB79A83898388
:1005F00089819A8190938D1080938C1089819A8142
:100600000E94661500000F900F90DF91CF91089522
:10061000CF93DF9300D01F92CDB7DEB789837B8362
:100620006A838981882F90E00396880F991F8657E7
:100630009F4E2A813B81FC013183208300000F9073
:100640000F900F90DF91CF910895CF93DF93CDB7A7
:10065000DEB78091B0109091B11021E0892B09F4A0
:1006600020E0822FDF91CF910895CF93DF93CDB714
:10067000DEB78091B0109091B11001969093B110B7
:100680008093B0100000DF91CF910895CF93DF9356
:10069000CDB7DEB78091B0109091B11001979093D3
:1006A000B1108093B0100000DF91CF910895CF93E7
:1006B000DF93CDB7DEB70E94C4150000DF91CF9164
:1006C0000895CF93DF93CDB7DEB70E94D915000010
:1006D000DF91CF910895CF93DF93CDB7DEB72C97FD
:1006E0000FB6F894DEBF0FBECDBF8C8789E0E0E285
:1006F000F2E0DE01139601900D928A95E1F789E10F
:1007000089831A8215C09C858981981758F48A813B
:10071000882F90E09E012D5F3F4F820F931FFC01B9
:1007200080810AC08981875E89838A818F5F8A83FD
:100730008A81893040F38FEF2C960FB6F894DEBF94
:100740000FBECDBFDF91CF910895CF93DF93CDB78B
:10075000DEB70E942D0F0E943E130E942307000067
:10076000DF91CF910895CF93DF93CDB7DEB710928D
:100770003602109235020000DF91CF910895CF9399
:10078000DF9300D0CDB7DEB79A83898389819A81C0
:10079000FC01148289819A81FC01108A89819A81E5
:1007A000FC01138212828091B0109091B1100196D9
:1007B0009093B1108093B0108091350290913602E1
:1007C000892B61F489819A81FC01118210828981CF
:1007D0009A8190933602809335020FC020913502A2
:1007E0003091360289819A81FC013183208389818D
:1007F0009A81909336028093350200000F900F90FB
:10080000DF91CF910895CF93DF9300D000D000D037
:10081000CDB7DEB79E838D838D819E81FC0181855E
:1008200092858034910598F40E9478079A83898391
:1008300089819A81892B61F58D819E8122E0FC015D
:1008400024838D819E8122E0FC01208B46C28D8114
:100850009E81FC018185928580749927892B21F0E6
:1008600081E00E94EA0703C080E00E94EA079A83C1
:10087000898389819A81892B59F48D819E8122E017
:10088000FC0124838D819E8122E0FC01208B25C206
:100890008D819E81FC018185928580749927892BA9
:1008A00009F49AC089819A818A579F4FFC0110826E
:1008B0008D819E81FC018185928580789927892B85
:1008C00041F089819A81FC012581287FFC012583E3
:1008D00034C08D819E81FC0181859285882791702D
:1008E000892B49F089819A81FC012581287F246028
:1008F000FC01258322C08D819E81FC01818592852A
:1009000088279270892B49F089819A81FC01258181
:10091000287F2660FC01258310C08D819E81FC010B
:100920008185928588279470892B39F089819A81F5
:10093000FC0125812760FC01258389819A81FC01C6
:100940002581277FFC01258389819A81FC012581EE
:100950002F7EFC01258389819A81FC012581206EEF
:10096000FC0125838D819E81FC01818592858827EC
:100970009870892B31F089819A8121E0FC012783CD
:1009800013C08D819E81FC0181859285882790719D
:10099000892B31F089819A8122E0FC01278304C0F0
:1009A00089819A81FC01178289819A812FEFFC014C
:1009B000208780918A1090918B109C838B838B81F0
:1009C0009C81FC01208189819A81FC012683898197
:1009D0009A810E94FE0F6CC18D819E81FC018185F0
:1009E0009285992394F08D819E81FC018185928569
:1009F00088279072892B49F48D819E81FC01818525
:100A0000928588279074892B99F189819A818A57D8
:100A10009F4FFC0110828D819E81FC018585482FAE
:100A200050E08D819E81FC012385348589819A81E6
:100A30008F579F4FFC0180819181B9010E948045B1
:100A400089819A81FC0121818D819E81FC018585AE
:100A5000280F89819A81FC0121838D819E81FC016F
:100A60002185328589819A81B9010E94511020C166
:100A70008D819E81FC018185928580729927892BC9
:100A800009F462C089819A818A579F4FFC011082C4
:100A900089819A81FC012185207F2860FC012187C2
:100AA00089819A81FC0121852F702066FC012187B4
:100AB00089819A81FC012285207F2160FC012287A7
:100AC00089819A81FC0122852061FC01228789812C
:100AD0009A81FC0122852064FC01228789819A8108
:100AE000FC0122852F77FC01228789819A81FC01F4
:100AF000138689819A81FC0114868D819E81FC0177
:100B00008585482F50E08D819E81FC0123853485A9
:100B100089819A818F579F4FFC0180819181B90112
:100B20000E94804589819A81FC0121818D819E816D
:100B3000FC018585280F89819A81FC0121838981A7
:100B40009A810E94B30FB4C08D819E81FC01818582
:100B500092858470992721E0892B09F420E089810E
:100B60009A818A579F4FFC0120838D819E81FC01D1
:100B7000818592858170992721E0892B09F420E0F5
:100B800089819A812170FC0133853E7F232BFC01F2
:100B900023878D819E81FC018185928588709927AC
:100BA00021E0892B09F420E089819A812170220FAC
:100BB000220FFC0133853B7F232BFC0123878D8192
:100BC0009E81FC01818592858072992721E0892B85
:100BD00009F420E089819A8121702295207FFC010F
:100BE00033853F7E232BFC01238780918E108F5FFE
:100BF00080938E1020918E1089819A81FC01248728
:100C000020918A1030918B1089819A81FC0136875E
:100C100025878D819E81FC012581368189819A817C
:100C2000FC01308B27878D819E81FC018085282FD8
:100C30002F7089819A812F70FC013189307F232B9D
:100C4000FC01218B8D819E81FC018781282F2F70D3
:100C500089819A812295207FFC0131893F70232B65
:100C6000FC01218B8D819E81FC018585482F50E000
:100C70008D819E81FC012385348589819A818F57DE
:100C80009F4FFC0180819181B9010E94804589813B
:100C90009A81FC0121818D819E81FC018585280F2F
:100CA00089819A81FC01218389819A810E94C510E2
:100CB0008D819E8129813A81FC01338322838D813C
:100CC0009E8121E0FC01248389819A8189579F4F6D
:100CD00026E736E0FC013183208326960FB6F89490
:100CE000DEBF0FBECDBFDF91CF910895CF93DF93CD
:100CF00000D000D0CDB7DEB79C838B8380913502C6
:100D0000909136029A8389832BC089819A81FC0154
:100D1000228133818B819C8128173907D1F48B8103
:100D20009C818D579F4FFC01208189819A81FC0114
:100D3000208B8B819C818A579F4FFC012081898168
:100D40009A81FC01218B89819A8122E0FC01248314
:100D50000BC089819A81FC01808191819A8389836A
:100D600089819A81892B89F68B819C810E948208D6
:100D700000000F900F900F900F90DF91CF9108958A
:100D8000CF93DF9300D000D0CDB7DEB79C838B83A9
:100D900020913502309136028B819C8128173907CA
:100DA00061F48091350290913602FC01808191813D
:100DB000909336028093350225C080913502909140
:100DC00036029A83898307C089819A81FC018081D8
:100DD00091819A83898389819A81FC012081318163
:100DE0008B819C812817390779F789819A81FC01C9
:100DF00080819181FC012081318189819A81FC016E
:100E0000318320838091B0109091B110019790931D
:100E1000B1108093B0108B819C81FC0186859785F1
:100E2000892B49F08B819C81FC01268537858B813C
:100E30009C81F901099500000F900F900F900F9081
:100E4000DF91CF910895CF93DF9300D0CDB7DEB778
:100E500080913502909136029A83898321C08981DD
:100E60009A81FC018481882F90E08130910581F086
:100E70008230910541F0892B09F00BC089819A815C
:100E80000E94030411C089819A810E94C0060CC08F
:100E9000000089819A81FC01808191819A838983F4
:100EA00089819A81892BD9F60F900F90DF91CF918C
:100EB0000895CF93DF931F92CDB7DEB7198210C08C
:100EC0008981282F30E049E8429FC001439F900D5F
:100ED0001124895C9D4FFC01108289818F5F898379
:100EE0008981843168F300000F90DF91CF910895DC
:100EF000CF93DF931F92CDB7DEB7198261C089818E
:100F0000282F30E049E8429FC001439F900D1124F3
:100F1000895C9D4FFC018081882309F04EC0898146
:100F2000282F30E049E8429FC001439F900D1124D3
:100F3000895C9D4F49E850E060E070E00E9489457F
:100F40008981282F30E049E8429FC001439F900DDE
:100F50001124885C9D4FFC0110828981482F50E04C
:100F60008981282F30E069E8629FC001639F900D5E
:100F7000112402969C01295C3D4F69E8649FC001E1
:100F8000659F900D112488549D4FFC01318320836F
:100F90008091B0109091B11001969093B110809310
:100FA000B0108981282F30E049E8429FC001439F5B
:100FB000900D1124895C9D4F09C089818F5F8983C1
:100FC0008981843108F49BCF80E090E00F90DF911D
:100FD000CF910895CF93DF9300D0CDB7DEB78A834A
:100FE000198285C08981282F30E049E8429FC001DD
:100FF000439F900D1124895C9D4FFC0180818823C3
:1010000009F072C08981282F30E049E8429FC00171
:10101000439F900D1124895C9D4F49E850E060E0AA
:1010200070E00E9489458A81882379F08981282F80
:1010300030E049E8429FC001439F900D1124885C35
:101040009D4F27E0FC0120830EC08981282F30E0CE
:1010500049E8429FC001439F900D1124885C9D4F39
:1010600023E0FC0120838981482F50E08981282FCB
:1010700030E069E8629FC001639F900D11240296E1
:101080009C01295C3D4F8981682F70E0E9E8E69F6B
:10109000C001E79F900D1124885C9D4FFC01808169
:1010A000882F90E0280F391F69E8649FC001659F71
:1010B000900D112488549D4FFC0131832083809131
:1010C000B0109091B11001969093B1108093B01030
:1010D0008981282F30E049E8429FC001439F900D4D
:1010E0001124895C9D4F09C089818F5F8983898123
:1010F000843108F477CF80E090E00F900F90DF917B
:10110000CF910895CF93DF9300D0CDB7DEB79A8308
:10111000898389819A81FC0110828091B01090911D
:10112000B11001979093B1108093B01000000F9010
:101130000F90DF91CF910895CF93DF9300D0CDB77B
:10114000DEB79A83898389819A81892B29F487E381
:1011500092E09A83898316C089819A8187579F4F2D
:101160009A8389830FC089819A81FC0180818823B9
:1011700019F089819A810DC089819A8187579F4F83
:101180009A83898389819A818B5E9C4060F380E099
:1011900090E00F900F90DF91CF910895CF93DF9360
:1011A00000D0CDB7DEB79A83898389819A818D5724
:1011B0009F4FFC01108280918E108F5F80938E1064
:1011C00020918E1089819A81FC01248720918A10B8
:1011D00030918B1089819A81FC0136872587000028
:1011E0000F900F90DF91CF910895CF93DF9300D0B0
:1011F000CDB7DEB79A83898389819A81FC014181C9
:1012000089819A818F579F4FFC01808191819C0138
:1012100089819A810296B901681B790BCB01742FE1
:10122000781B872F0F900F90DF91CF910895CF9368
:10123000DF931F92CDB7DEB7198211C08981282FA5
:1012400030E0C901880F991F880F991F820F931FE3
:101250008151934FFC01108289818F5F898389813D
:10126000823360F384E690E0A0E0B0E08093EC0D80
:101270009093ED0DA093EE0DB093EF0D1092F00D45
:1012800085EE9AE09093F20D8093F10D66E07CE09C
:1012900080E00E94080300000F90DF91CF91089535
:1012A000CF93DF9300D000D0CDB7DEB79C838B8384
:1012B0008B819C81FC0180819181FC0180818C303B
:1012C00041F48B819C81FC018281873008F052C0FF
:1012D000E0C08B819C81FC0180819181FC01808137
:1012E0008C3C41F48B819C81FC018281833008F02D
:1012F00041C0CFC08B819C81FC018081918101968E
:10130000FC0180818838D1F48B819C81FC01808133
:101310009181FC018081813651F08B819C81FC019F
:1013200080819181FC018081813409F0A7C08B818B
:101330009C81FC0182818031E8F4A0C08B819C817A
:10134000FC01808191810196FC018081803809F047
:1013500097C08B819C81FC0180819181FC018081FF
:10136000882309F08FC08B819C81FC0182818B30A6
:1013700008F488C08B819C81FC0180819181019659
:10138000FC018081883851F08B819C81FC01808137
:1013900091810196FC0180818038D9F40E94780700
:1013A0009A83898389819A81892B09F46DC08B8105
:1013B0009C81FC01808191810196FC0180818838AB
:1013C00011F420E201C025E289819A81FC01208389
:1013D00027C08B819C81FC0180819181FC018081EF
:1013E0008C3081F481E00E94EA079A8389838981A5
:1013F0009A81892B09F44AC089819A8126E2FC01ED
:1014000020830EC080E00E94EA079A838983898145
:101410009A81892BE9F189819A8127E2FC01208355
:101420008B819C81FC01228189819A81FC0121832D
:101430008B819C81FC01238189819A818D579F4FEB
:10144000FC0120838B819C81FC01248189819A810C
:101450008C579F4FFC0120838B819C81FC018281F2
:10146000482F50E08B819C81FC0120813181898152
:101470009A810296B9010E9480450BC0000009C004
:10148000000007C0000005C0000003C0000001C04C
:1014900000000F900F900F900F90DF91CF91089563
:1014A000CF93DF9300D000D000D0CDB7DEB79E83BE
:1014B0008D830E9478079A83898389819A81892BF9
:1014C00009F46BC08D819E81FC01818120E1280F90
:1014D0008D819E81FC0121838D819E818F579F4F3D
:1014E000FC01808191819C01205F3F4F8D819E8115
:1014F0008F579F4FFC013183208389819A810E94FD
:10150000CE0889819A81FC01818123E0280F89819D
:101510009A81FC01218389819A8189579F4FFC011F
:10152000118210828D819E81FC01838581FB22279F
:1015300020F989819A812170220FFC0133853D7F3A
:10154000232BFC0123878D819E81FC012585368517
:1015500089819A81FC01308B278789819A818F57F5
:101560009F4FFC01808191819C838B838B819C8127
:10157000FC0110822091E50D8B819C81FC0122836E
:101580008D819E81FC0124858B819C81FC012183BE
:1015900089819A810E94C51001C0000026960FB66D
:1015A000F894DEBF0FBECDBFDF91CF910895CF93EA
:1015B000DF931F92CDB7DEB7898389818093E50DD4
:1015C00000000F90DF91CF910895CF93DF9300D06B
:1015D00000D0CDB7DEB79C838B8319821A8230C0CE
:1015E0008A81282F30E0C901880F991F880F991F21
:1015F000820F931F8151934FFC0180818823E9F072
:101600008A81282F30E0C901880F991F880F991F00
:10161000820F931F8151934FFC0180814FEF480F40
:10162000C901880F991F880F991F820F931F81513D
:10163000934FFC01408381E089838A818F5F8A8395
:101640008A81823368F28981882321F08B819C8191
:101650000E942C1800000F900F900F900F90DF91B8
:10166000CF910895CF93DF93CDB7DEB729970FB60B
:10167000F894DEBF0FBECDBF998788871A82198282
:101680001B8290C08B81282F30E0C901880F991FE1
:10169000880F991F820F931F8551934F9D838C83D1
:1016A0008C819D81FC018481882309F46EC088852A
:1016B0009985FC01238534858C819D81FC01808185
:1016C00091812817390709F060C08C819D81FC0148
:1016D000228188859985FC018285F22FF81B8F2F46
:1016E0008E838E81883058F58C819D81FC018381A9
:1016F000882F90E02E81222F30E002C095958795AB
:101700002A95E2F781709927892B11F081E075C045
:101710008C819D81FC018381482F8E81282F30E0B0
:1017200081E090E002C0880F991F2A95E2F7842B90
:10173000282F8C819D81FC01238380E05EC08E81F7
:1017400081958F8388859985FC0122858C819D8177
:10175000FC0122838C819D81FC018381882F90E094
:101760002F81222F30E002C0880F991F2A95E2F7BF
:101770008160282F8C819D81FC0123838C819D8138
:1017800025E1FC01248380E038C08C819D81FC012F
:101790008481882321F48C819D819A8389838B8124
:1017A0008F5F8B838B81823308F46CCF89819A8120
:1017B000892B11F481E021C088859985FC0123855E
:1017C000348589819A81FC013183208388859985BC
:1017D000FC01228589819A81FC01228389819A8179
:1017E00021E0FC01238389819A8125E1FC01248386
:1017F00086EE9DE00E942C1880E029960FB6F894A2
:10180000DEBF0FBECDBFDF91CF910895CF93DF93A1
:1018100000D0CDB7DEB79A83898389819A81FC0194
:101820008285882311F480E011C089819A81FC01AE
:1018300080859185FC018081882F90E0892B29F497
:1018400089819A810E94EB1101C080E00F900F9076
:10185000DF91CF910895CF93DF9300D000D0CDB723
:10186000DEB79C838B838B819C8102969A838983CC
:101870008B819C8124E2FC01208389819A81FC0177
:1018800081858270882309F083C089819A81FC0157
:1018900081858870882309F07DC089819A81FC0147
:1018A000838194810196D1F420918A1030918B101C
:1018B00089819A81FC01858596852817390741F031
:1018C00089819A81FC0185859685019609F064C01D
:1018D0008B819C8122E2FC0120835EC089819A81F8
:1018E000FC0185859685019641F489819A81FC01E8
:1018F00081858170882309F051C020918A10309130
:101900008B1089819A81FC0183859485281739077A
:1019100009F446C089819A810E94320B882309F01C
:1019200041C089819A81FC01858196810196B9F433
:1019300020918A1030918B1089819A81FC018585D4
:1019400096852817390759F089819A81FC0181858C
:101950008470882321F48B819C810E945C112091EA
:101960008A1030918B1089819A81FC01858596853A
:101970002817390739F089819A81FC018585968578
:10198000019689F48B819C8122E2FC0120830BC0AB
:10199000000009C0000007C0000005C0000003C02F
:1019A000000001C000000F900F900F900F90DF918A
:1019B000CF910895CF93DF93CDB7DEB761970FB680
:1019C000F894DEBF0FBECDBF998B888B888999892B
:1019D00002969A83898389819A81FC018785829501
:1019E0008F70882F90E00396880F991F86579F4E1F
:1019F000FC0180819181892B11F480E0D9C089811B
:101A00009A81FC01838594859C838B8389819A814B
:101A1000FC01858596859E838D8389819A81FC0151
:101A200087858F708F8389819A81FC018785829554
:101A30008F708887888999898F579F4FFC01808193
:101A400091819C878B87888999890E94F5088D8769
:101A5000888999898D579F4FFC0180818E8788895D
:101A600099898C579F4FFC0180818F8789819A814A
:101A7000FC018185982F917081E0992309F480E021
:101A8000882F90E09A87898729853A8589819A816C
:101A9000FC018185882F90E082709927822B932BFF
:101AA0009A87898729853A8589819A81FC01818570
:101AB0008470882319F080E290E002C080E090E01A
:101AC000822B932B9A87898729853A8589819A81E8
:101AD000FC0181858870882319F080E490E002C0C1
:101AE00080E090E0822B932B9A87898729853A851D
:101AF00089819A81FC0181858071882319F080E8B1
:101B000090E002C080E090E0822B932B9A87898737
:101B100029853A8589819A81FC018585968501967A
:101B200019F484E090E002C080E090E0822B932BD7
:101B30009A87898729853A8589819A81FC0143851D
:101B4000548589819A81FC018781908548175907BE
:101B500019F488E090E002C080E090E0822B932BA3
:101B60009A87898729853A8589819A81FC018381B1
:101B70009481019619F480E190E002C080E090E049
:101B8000822B932B9A87898789819A81FC0187858B
:101B900082958F70882F90E00396880F991F865743
:101BA0009F4EFC0120813181CE010396F9010995F8
:101BB00061960FB6F894DEBF0FBECDBFDF91CF9117
:101BC0000895CF93DF93CDB7DEB761970FB6F89442
:101BD000DEBF0FBECDBF998B888B8889998902960D
:101BE0009A8389838889998924E2FC0120838091E2
:101BF000901090919110892B11F480E044C0888955
:101C00009989FC01878190859C838B838889998938
:101C1000FC01878190859E838D831F821886888929
:101C200099898F579F4FFC01808191819C878B8779
:101C3000888999890E94F5088D87888999898D57A7
:101C40009F4FFC0180818E87888999898C579F4F8F
:101C5000FC0180818F8780E890E09A87898789815D
:101C60009A81FC01878582958F70882F90E003967A
:101C7000880F991F86579F4EFC0120813181CE012C
:101C80000396F901099561960FB6F894DEBF0FBE71
:101C9000CDBFDF91CF910895CF93DF93CDB7DEB75E
:101CA0002F970FB6F894DEBF0FBECDBF9F878E87EC
:101CB0008E859F8524E2FC01208380919210909173
:101CC0009310892B11F480E01FC08E859F850296AA
:101CD0009A8789878E859F858D579F4FFC018081CC
:101CE0008C878E859F858C579F4FFC0180818D87C7
:101CF00080E091E098878F8320919210309193102B
:101D0000CE010196F90109952F960FB6F894DEBF22
:101D10000FBECDBFDF91CF910895CF93DF93CDB7A5
:101D2000DEB761970FB6F894DEBF0FBECDBF998BBB
:101D3000888B8889998902969A8389838889998969
:101D400024E2FC0120838091941090919510892BBE
:101D500011F480E024C08889998902969C878B873A
:101D6000888999890E94F5088D87888999898D5776
:101D70009F4FFC0180818E87888999898C579F4F5E
:101D8000FC0180818F8780E092E09A87898720918B
:101D9000941030919510CE010396F9010995619642
:101DA0000FB6F894DEBF0FBECDBFDF91CF9108957F
:101DB000CF93DF9300D01F92CDB7DEB79B838A838A
:101DC0001092E50D8A819B810E94DA0C89838A81B9
:101DD0009B81FC0183858170882309F419828A81A3
:101DE0009B81FC01878190850196A9F420918A103E
:101DF00030918B108A819B81FC01878590892817FF
:101E0000390749F48A819B81FC0183858870882386
:101E100011F481E089838A819B81FC01858196810F
:101E2000019609F4198280918A1090918B10019685
:101E300009F419828981882321F08A819B810E947B
:101E4000500A8A819B8124E2FC01208300000F90CC
:101E50000F900F90DF91CF910895CF93DF9300D033
:101E6000CDB7DEB71A82198239C089819A81FC0107
:101E70008081882F90E084329105E1F085329105D0
:101E800034F48032910561F0829779F027C0863270
:101E90009105D1F08632910594F08797D1F01EC05C
:101EA00089819A810E942B0C19C089819A810E9494
:101EB000D80E14C089819A810E9482080FC089813E
:101EC0009A810E94E10D0AC089819A810E944C0E7C
:101ED00005C089819A810E948D0E000089819A81B6
:101EE0000E949C089A83898389819A81892B09F0B1
:101EF000BCCF00000F900F90DF91CF910895CF934A
:101F0000DF93CDB7DEB71092F40D1092F30D82E39C
:101F100090E0A0E0B0E08093FB0D9093FC0DA093C7
:101F2000FD0DB093FE0D1092FF0D8AE392E19093A8
:101F3000010E8093000E8AE090E0A0E0B0E0809374
:101F4000080E9093090EA0930A0EB0930B0E1092F8
:101F50000C0E84EA92E190930E0E80930D0E000019
:101F6000DF91CF910895CF93DF9300D000D0CDB70C
:101F7000DEB79C838B838B819C8102969A838983B5
:101F80008B819C8123E1FC0120838B819C818D5777
:101F90009F4FFC0110828B819C818C579F4FFC01CD
:101FA0001182108289819A8120E030E8FC0131831E
:101FB000208380918F108F5F80938F1020918F10DE
:101FC00089819A81FC01228320918C1030918D109F
:101FD00089819A81FC013483238320918A10309176
:101FE0008B1089819A81FC013683258300000F9034
:101FF0000F900F900F90DF91CF910895CF93DF93C3
:1020000000D000D0CDB7DEB79C838B838B819C81C1
:1020100002969A8389838B819C8123E1FC01208332
:102020008B819C818D579F4FFC0110828B819C81FD
:102030008C579F4FFC011182108289819A812CE07C
:10204000FC01208380918F108F5F80938F102091EF
:102050008F1089819A81FC01218389819A81FC01F9
:102060002281287FFC01228389819A81FC012281BF
:10207000277EFC01228389819A81FC0122812F7DA8
:10208000FC01228389819A81FC0122812F7BFC0142
:10209000228300000F900F900F900F90DF91CF914F
:1020A0000895CF93DF9300D000D000D0CDB7DEB736
:1020B0009C838B837E836D838B819C8102969A8324
:1020C00089838B819C8123E1FC0120838B819C810E
:1020D0008D579F4FFC0110828B819C818C579F4FA5
:1020E000FC01118210828D819E81992334F48981B3
:1020F0009A812CECFC01208317C08D819E8188275A
:102100009072892B31F089819A812CE4FC01208323
:102110000BC08D819E8188279074892B29F089813D
:102120009A812CE8FC01208380918F108F5F80932F
:102130008F1020918F1089819A81FC0121838981E0
:102140009A81FC012281287FFC01228389819A8166
:10215000FC012281277EFC01228389819A81FC0176
:1021600022812F7DFC01228389819A81FC012281B9
:102170002F7BFC012283000026960FB6F894DEBF69
:102180000FBECDBFDF91CF910895CF93DF9300D0E5
:1021900000D0CDB7DEB79C838B838B819C81029668
:1021A0009A8389838B819C818A579F4FFC01808110
:1021B000882F90E082709927892B31F08B819C8148
:1021C00022E1FC01208305C08B819C8122E1FC017E
:1021D00020838B819C818D579F4FFC0110828B81C6
:1021E0009C818A579F4FFC018081882F90E08170ED
:1021F0009927892B41F089819A812FEF3FEFFC01CC
:102200003483238309C020918C1030918D108981F3
:102210009A81FC013483238389819A81FC0125857D
:10222000368589819A81FC013683258320918A1025
:1022300030918B1089819A81FC01308727838091AE
:102240008F108F5F80938F1020918F1089819A81DA
:10225000FC01228389819A81FC0185819681019606
:10226000A9F489819A8121E438E8FC013183208333
:102270000E948E448770992701969C018B819C81D6
:102280008C579F4FFC01318320830EC089819A8136
:1022900021E438E8FC01318320838B819C818C57B9
:1022A0009F4FFC011182108200000F900F900F9041
:1022B0000F90DF91CF910895CF93DF9300D000D09E
:1022C000CDB7DEB79C838B830E9478079A8389837E
:1022D00089819A81892B09F476C089819A818F57E7
:1022E0009F4FFC01808191819C01205F3F4F89813C
:1022F0009A818F579F4FFC013183208389819A8176
:1023000022E1FC0120838B819C81FC012181898158
:102310009A81FC01218389819A818D579F4FFC010D
:1023200010820E948E448770992701969C018981B2
:102330009A818C579F4FFC013183208389819A8138
:1023400089579F4FFC01118210828B819C81FC0177
:102350008181482F50E08B819C819C012E5F3F4FF3
:1023600089819A810296B9010E94804589819A816A
:1023700021E438E8FC013383228389819A812FEF9D
:102380003FEFFC01308727838B819C81FC012581F5
:10239000368189819A81FC013683258320918A10B8
:1023A00030918B1089819A81FC013287218780913D
:1023B0008F108F5F80938F1020918F1089819A8169
:1023C000FC01248301C000000F900F900F900F902C
:1023D000DF91CF910895CF93DF9300D000D000D04C
:1023E000CDB7DEB79E838D838D819E81FC01808574
:1023F00091859C838B831A8219828D819E81FC0139
:102400008285833019F180E02CC089819A81FC019A
:1024100080818631D9F489819A81FC0124858B8160
:102420009C81FC018181281789F489819A8127E1A7
:10243000FC0120838B819C81FC01228189819A810E
:102440008A579F4FFC01208381E00BC089819A81CC
:102450000E949C089A83898389819A81892BA9F695
:1024600080E026960FB6F894DEBF0FBECDBFDF9199
:10247000CF910895CF93DF9300D000D01F92CDB7B6
:10248000DEB79D838C831A8219821B8227C08981C3
:102490009A81FC018081863109F581E08B838981F5
:1024A0009A818C579F4FFC01808191819C01215022
:1024B000310989819A818C579F4FFC013183208398
:1024C00089819A818C579F4FFC0180819181892B52
:1024D00029F489819A8160E10E94881289819A8118
:1024E0000E949C089A83898389819A81892B79F635
:1024F0008B81882321F08C819D810E942C18000003
:102500000F900F900F900F900F90DF91CF91089543
:10251000CF93DF9300D01F92CDB7DEB79A83898324
:102520006B8389819A8127E1FC01208389819A81CB
:102530008D579F4F2B81FC01208300000F900F903F
:102540000F90DF91CF910895CF93DF9300D000D00B
:102550001F92CDB7DEB79D838C831A8219821B82AE
:1025600027C089819A81FC018081813109F581E050
:102570008B8389819A818C579F4FFC018081918147
:102580009C012150310989819A818C579F4FFC0110
:102590003183208389819A818C579F4FFC018081F0
:1025A0009181892B29F489819A8123E1FC0120837F
:1025B00089819A810E949C089A83898389819A8162
:1025C000892B79F68B81882321F08C819D810E9453
:1025D0002C1800000F900F900F900F900F90DF912C
:1025E000CF910895CF93DF931F92CDB7DEB7898344
:1025F0008981882F90E08130910539F082309105F2
:1026000031F0892B31F480E005C080E203C081E223
:1026100001C081E00F90DF91CF9108950F931F9338
:10262000CF93DF931F92CDB7DEB789830091F30D6F
:102630001091F40D89810E94F212282FC8018D5744
:102640009F4FFC0120838091F30D9091F40D25E1C3
:10265000FC0120831092F40D1092F30D8091B010C4
:102660009091B11001979093B1108093B010000039
:102670000F90DF91CF911F910F910895CF93DF932A
:1026800000D0CDB7DEB71A821982B3C089819A8192
:10269000FC018081882F90E08431910509F4A9C064
:1026A0008531910534F48231910579F0439731F108
:1026B0009FC08631910509F49CC0863191050CF4C8
:1026C00043C0479709F47AC093C089819A818C5797
:1026D0009F4FFC0180819181892B51F089819A81E2
:1026E00021E1FC01208382E09EE00E942C1881C041
:1026F00089819A8123E1FC0120837BC08091F30DC5
:102700009091F40D892B09F074C089819A8190937E
:10271000F40D8093F30D89819A8124E1FC012083DB
:1027200089819A81FC01218189819A810296622F97
:102730000E94ED158091B0109091B1100196909388
:10274000B1108093B01055C089819A818D579F4FE9
:10275000FC018081882361F589819A81FC012585AE
:10276000368580918A1090918B1028173907D1F403
:1027700089819A81FC0183858170882399F0898100
:102780009A8126E1FC01208389819A818C579F4F91
:1027900025E130E0FC013183208385EF9DE00E943C
:1027A0002C180BC089819A8127E1FC01208321C06C
:1027B00089819A8127E1FC0120831BC089819A814C
:1027C00089579F4FFC0180819181892B29F4898150
:1027D0009A810E9482080DC089819A8189579F4FF2
:1027E000FC012081318189819A81F901099501C01B
:1027F000000089819A810E949C089A83898389813B
:102800009A81892B09F042CF00000F900F90DF9141
:10281000CF9108956150710981099109D9F70895FF
:102820000F931F93CF93DF93CDB7DEB789E391E08A
:10283000FC0120812160FC0120831092900E81E038
:1028400080930F0E88E00E9481168CE491E0FC01D9
:1028500020812068FC0120830DE611E00E942E16E5
:10286000F80180830000DF91CF911F910F910895AF
:10287000CF93DF931F92CDB7DEB7898389818823F9
:10288000B1F08CE691E0FC0120812F70FC012083E7
:102890008CE691E0FC0120812E60FC0120838EE615
:1028A00091E0FC0120812061FC01208317C08CE6AF
:1028B00091E0FC0120812F702063FC0120838CE6D5
:1028C00091E0FC012081217F2860FC0120838EE6BD
:1028D00091E0FC0120812F7EFC01208300000F90FD
:1028E000DF91CF910895CF93DF93CDB7DEB72997CE
:1028F0000FB6F894DEBF0FBECDBF898728E0CE01AA
:102900000196FC01322F11923A95E9F789858823C7
:1029100049F180E090E00E948A1580E090E00E94FA
:102920006615CE0101960E94A81687E591E0FC018C
:1029300020812260FC01208387E591E0FC01208159
:102940002061FC01208387E591E0FC0120812F7D3F
:10295000FC0120838EE691E0FC0120812061FC01D6
:1029600020830BC087E591E0FC0110828EE691E0A8
:10297000FC0120812F7EFC012083000029960FB6E8
:10298000F894DEBF0FBECDBFDF91CF910895CF93F6
:10299000DF931F92CDB7DEB7898389818093900E34
:1029A0000E946A1600000F90DF91CF910895CF9397
:1029B000DF931F92CDB7DEB7898388E491E0298148
:1029C0002F712F71FC013081307E232BFC0120837D
:1029D00000000F90DF91CF910895CF93DF931F9266
:1029E000CDB7DEB789838981882F90E08230910549
:1029F00019F1833091051CF4892B41F062C08031BC
:102A0000910589F1419709F445C05BC08CE491E0E0
:102A1000FC0120812C7FFC01208387E591E0FC01F3
:102A200020812B7FFC01208385E591E0FC01208142
:102A3000207FFC01208345C08CE491E0FC012081D3
:102A40002C7F2160FC01208387E591E0FC0120813F
:102A50002460FC01208385E591E0FC012081207F3A
:102A6000FC0120832EC08CE491E0FC0120812C7FAE
:102A70002260FC01208387E591E0FC012081246035
:102A8000FC01208385E591E0FC012081207FFC0191
:102A9000208317C08CE491E0FC0120812360FC01BD
:102AA000208387E591E0FC0120812460FC012083E4
:102AB00085E591E0FC012081207F2160FC012083DD
:102AC000000000000F90DF91CF910895CF93DF9326
:102AD00000D000D0CDB7DEB79C838B83CE010396A8
:102AE0009A83898382E691E029813A81F9012081E4
:102AF000FC01208383E691E029813A81F90121815B
:102B0000FC01208300000F900F900F900F90DF9139
:102B1000CF910895CF93DF9300D000D0CDB7DEB72B
:102B20009C838B83CE0103969A83898380E691E010
:102B300029813A81F9012081FC01208381E691E01D
:102B400029813A81F9012181FC01208300000F9045
:102B50000F900F900F90DF91CF910895CF93DF9357
:102B60001F92CDB7DEB7898385E491E029812F706C
:102B70002F70FC013081307F232BFC01208300006B
:102B80000F90DF91CF910895CF93DF93CDB7DEB74C
:102B900088E00E94811689E391E0FC012081226097
:102BA000FC01208382E080930F0E0000DF91CF9123
:102BB0000895CF93DF93CDB7DEB789E391E0FC01B1
:102BC00020812D7FFC0120830E946A1681E0809382
:102BD0000F0E0000DF91CF910895CF93DF9300D0C7
:102BE00000D0CDB7DEB79B838A836C8389E10E94D6
:102BF00081168FE491E02FEFFC01208380E891E0C3
:102C00002C812E5FFC012083198214C08981882FBA
:102C100090E08F579E4FAC018981882F90E02A81E8
:102C20003B81820F931FFC018081FA01808389819F
:102C30008F5F898399818C81981740F383E080931B
:102C40000F0E82E491E022E0FC01208300000F904F
:102C50000F900F900F90DF91CF910895CF93DF9356
:102C600000D01F92CDB7DEB71A82198286E00E948B
:102C700081161B8222C062E070E080E090E00E943A
:102C80000A1486E491E0FC01808182958695877024
:102C90008370882F90E02B81222F30E002C0880FB4
:102CA000991F2A95E2F79C0189819A81822B932BA7
:102CB0009A8389838B818E5F8B838B818031D8F25D
:102CC0000E946A1689819A810F900F900F90DF9170
:102CD000CF910895CF93DF93CDB7DEB788E00E9400
:102CE00081168FE491E02FEFFC0120838091900EFC
:102CF000882319F086E10E9481160000DF91CF91B0
:102D00000895CF93DF931F92CDB7DEB7898382E416
:102D100091E023E0FC012083000081E491E0FC01CC
:102D200080818F718830C9F782E491E02981FC01AC
:102D30002083000081E491E0FC0180818F71982F55
:102D400089819817B9F700000F90DF91CF9108950E
:102D5000CF93DF9300D000D0CDB7DEB79C838B83B9
:102D60008B819C819A83898324E631E089819A81D1
:102D7000AC014F5F5F4F5A834983FC018081F901A9
:102D8000808325E631E089819A81AC014F5F5F4FF6
:102D90005A834983FC018081F901808326E631E072
:102DA00089819A81AC014F5F5F4F5A834983FC014F
:102DB0008081F901808327E631E089819A81AC0125
:102DC0004F5F5F4F5A834983FC018081F901808303
:102DD00028E631E089819A81AC014F5F5F4F5A83C9
:102DE0004983FC018081F901808329E631E08981F2
:102DF0009A81AC014F5F5F4F5A834983FC01808108
:102E0000F90180832AE631E089819A81AC014F5F24
:102E10005F4F5A834983FC018081F90180838BE6EF
:102E200091E029813A81F9012081FC012083000091
:102E30000F900F900F900F90DF91CF910895CF9347
:102E4000DF93CDB7DEB728970FB6F894DEBF0FBE7D
:102E5000CDBF80910F0E823009F49EC08FE491E0C7
:102E6000FC01808183FB882780F9882309F459C0FD
:102E70008BE791E0FC0180818B83198211C08981ED
:102E8000882F90E02981222F30E020583E4FF90111
:102E90002081805F914FFC01208389818F5F89832E
:102EA0008981282F30E08B81882F90E001962817A8
:102EB00039072CF380E19EE09D838C838B818250C7
:102EC0008E838B81882F90E0805F914FFC01808101
:102ED0008F8387E491E0FC0180818A558887CE0149
:102EE00004960E945009000081E491E0FC01808179
:102EF0008F718631C9F78FE491E0FC012081286051
:102F0000FC0120838CE491E0FC0120812F77FC01FF
:102F100020838CE491E0FC0120812068FC01208367
:102F20003CC08FE491E0FC01808186FB882780F91A
:102F3000882399F181E491E0FC0180818F718931CE
:102F400019F582E491E0FC01808182958695877075
:102F50008A838A81882311F41A820EC08A81833081
:102F600019F481E08A8308C08A81853019F482E0EF
:102F70008A8302C083E08A830E946A1681E080937C
:102F80000F0E8A810E940E138FE491E0FC012081D4
:102F90002064FC01208301C0000028960FB6F8943D
:102FA000DEBF0FBECDBFDF91CF910895CF93DF93EA
:102FB000CDB7DEB70E9414180E94C5260E941014D7
:102FC0000E94A9020000DF91CF910895CF93DF9373
:102FD000CDB7DEB70E941F170E94A5030E94E61816
:102FE0000000DF91CF910895CF93DF931F92CDB76B
:102FF000DEB78FE590E0FC0180818983F8948981B8
:103000000F90DF91CF910895CF93DF931F92CDB7AB
:10301000DEB789838FE590E02981FC0120830000E1
:103020000F90DF91CF910895CF93DF93CDB7DEB7A7
:103030001092B2108EE79AE10E9453400E94054020
:1030400080E197E20E949B3F1092920E1092910EA7
:103050000000DF91CF910895CF93DF9300D0CDB7DB
:10306000DEB79A83898389819A810E94BB18982F41
:1030700081E08927882321F089819A810E94A919FA
:1030800000000F900F90DF91CF910895CF93DF93C1
:1030900000D000D000D0CDB7DEB79E838D831A82DA
:1030A00019828091910E9091920E9C838B8352C0D5
:1030B0002B813C818D819E812817390709F03FC003
:1030C00089819A81892B59F08B819C81FC01208117
:1030D000318189819A81FC013183208309C08B81F0
:1030E0009C81FC01808191819093920E8093910E3E
:1030F0008B819C81FC0180819181892B89F18B815D
:103100009C81FC01608171818B819C81FC018081AB
:103110009181FC0122813381448155818D819E8181
:10312000FC0182819381A481B581820F931FA41F2A
:10313000B51FFB0182839383A483B58311C08B8168
:103140009C819A8389838B819C81FC018081918100
:103150009C838B838B819C81892B09F0A9CF01C033
:103160000000000026960FB6F894DEBF0FBECDBF5C
:10317000DF91CF910895CF93DF9300D000D0CDB7EA
:10318000DEB79C838B838091910E9091920E9A83EF
:10319000898310C029813A818B819C812817390746
:1031A00011F481E00CC089819A81FC0180819181B8
:1031B0009A83898389819A81892B61F780E00F90B6
:1031C0000F900F900F90DF91CF910895EF92FF92A3
:1031D0000F931F93CF93DF93CDB7DEB728970FB62A
:1031E000F894DEBF0FBECDBF8091B210882309F4E2
:1031F000A2C00E94F4178D838091B2108E8310922A
:10320000B2108D810E9404188E81882F90E0A0E07A
:10321000B0E0880F991FAA1FBB1F9C01AD01220FB0
:10322000331F441F551F220F331F441F551F820F8A
:10323000931FA41FB51F89839A83AB83BC833DC0B2
:103240008091910E9091920E98878F838091910E2C
:103250009091920EFC0182819381A481B581298194
:103260003A814B815C8179018A01E81AF90A0A0BDB
:103270001B0BD801C70189839A83AB83BC838091E0
:10328000910E9091920EFC01808191819093920E0B
:103290008093910E8F819885FC018285813021F485
:1032A0008F8198850E94A9198F819885FC012385BB
:1032B00034858F819885F90109958091910E9091BF
:1032C000920E892B99F08091910E9091920EFC01B3
:1032D000228133814481558189819A81AB81BC816E
:1032E00082179307A407B50708F0AACF8091910E23
:1032F0009091920E892B01F16091910E7091920E36
:103300008091910E9091920EFC0122813381448133
:10331000558189819A81AB81BC8179018A01E81A42
:10332000F90A0A0B1B0BD801C701FB0182839383A7
:10333000A483B58301C0000028960FB6F894DEBFC1
:103340000FBECDBFDF91CF911F910F91FF90EF90F6
:103350000895EF92FF920F931F93CF93DF93CDB712
:10336000DEB72A970FB6F894DEBF0FBECDBF9A879F
:1033700089878091910E9091920E892B09F497C0C4
:103380001A82198289859A85FC0186819781A08598
:10339000B1858B839C83AD83BE838091910E909188
:1033A000920E98878F834DC08F819885FC01228172
:1033B0003381448155818B819C81AD81BE8182178F
:1033C0009307A407B507D8F48F819885FC01228163
:1033D0003381448155818B819C81AD81BE8179018E
:1033E0008A01E81AF90A0A0B1B0BD801C7012F81C1
:1033F0003885F90182839383A483B58327C08F81A5
:103400009885FC0182819381A481B5812B813C81C7
:103410004D815E8179018A01E81AF90A0A0B1B0BBA
:10342000D801C7018B839C83AD83BE838F81988530
:103430009A8389838F819885FC0180819181988707
:103440008F838F819885892B09F0AECF29853A85A6
:103450008B819C81AD81BE81F90182839383A4839A
:10346000B58389819A81892B91F089819A81FC01A8
:103470002081318189859A85FC013183208389816E
:103480009A8129853A85FC013183208329C02091C6
:10349000910E3091920E89859A85FC0131832083AB
:1034A00089859A859093920E8093910E19C0898593
:1034B0009A85FC011182108289859A85FC0186819A
:1034C0009781A085B18529853A85F9018283938307
:1034D000A483B58389859A859093920E8093910EEB
:1034E00000002A960FB6F894DEBF0FBECDBFDF9165
:1034F000CF911F910F91FF90EF900895CF93DF939D
:10350000CDB7DEB78091B2108F5F8093B21080E1AB
:1035100097E20E949B3F0000DF91CF910895CF93E7
:10352000DF931F92CDB7DEB78FE590E0FC0180817D
:103530008983F89489810F90DF91CF910895CF937B
:10354000DF931F92CDB7DEB789838FE590E02981A5
:10355000FC01208300000F90DF91CF910895CF935D
:10356000DF93CDB7DEB780E094E2A4EFB0E0BC011A
:10357000CD01DF91CF910895CF93DF93CDB7DEB723
:103580000E94AF1ADC01CB01BC01CD01DF91CF91CC
:103590000895CF93DF9300D0CDB7DEB79A838983A8
:1035A00089819A81892B21F480E090E0DC01A3C01D
:1035B00089819A818837910529F40E94BC1ADC011F
:1035C000CB0199C089819A81803C910529F40E94A0
:1035D000BC1ADC01CB018FC089819A818C349105A2
:1035E00029F40E94BC1ADC01CB0185C089819A8133
:1035F0008038910529F40E94BC1ADC01CB017BC004
:1036000089819A818434910529F40E94BC1ADC01D5
:10361000CB0171C089819A81803B910529F40E9478
:10362000BC1ADC01CB0167C089819A81803C91057D
:1036300029F40E94BC1ADC01CB015DC089819A810A
:10364000883B910529F40E94BC1ADC01CB0153C0D0
:1036500089819A818039910529F40E94BC1ADC0184
:10366000CB0149C089819A81803A910529F40E9451
:10367000BC1ADC01CB013FC089819A818032914024
:1036800029F40E94BC1ADC01CB0135C089819A81E2
:103690008334914029F40E94BC1ADC01CB012BC079
:1036A00089819A818533914029F40E94BC1ADC01FA
:1036B000CB0121C089819A818433914029F40E94F1
:1036C000BC1ADC01CB0117C089819A8183339140F8
:1036D00029F40E94BC1ADC01CB010DC089819A81BA
:1036E0008233914029F40E94BC1ADC01CB0103C053
:1036F00080E090E0DC01BC01CD010F900F90DF91E4
:10370000CF910895CF93DF9300D01F92CDB7DEB74E
:103710009A8389836B8389819A818038910559F4D2
:1037200081E890E021E830E0F90130812B81232B02
:10373000FC0120832FC089819A818039910559F439
:1037400081E990E021E930E0F90130812B81232BE0
:10375000FC0120831FC089819A81803A910559F428
:1037600081EA90E021EA30E0F90130812B81232BBE
:10377000FC0120830FC089819A818032914051F4ED
:1037800081E291E021E231E0F90130812B81232BAC
:10379000FC01208300000F900F900F90DF91CF91DC
:1037A0000895CF93DF9300D0CDB7DEB79A83898396
:1037B00089819A818038910551F48FE690E02FE657
:1037C00030E0F90120812160FC0120832CC0898137
:1037D0009A818039910551F481E790E021E730E04A
:1037E000F90120812160FC0120831DC089819A811B
:1037F000803A910551F482E790E022E730E0F90148
:1038000020812160FC0120830EC089819A81803251
:10381000914049F483E790E023E730E0F90120810B
:103820002160FC01208300000F900F90DF91CF9169
:103830000895CF93DF9300D0CDB7DEB79A83898305
:1038400089819A818038910551F48FE690E02FE6C6
:1038500030E0F90120812260FC0120832CC08981A5
:103860009A818039910551F481E790E021E730E0B9
:10387000F90120812260FC0120831DC089819A8189
:10388000803A910551F482E790E022E730E0F901B7
:1038900020812260FC0120830EC089819A818032C0
:1038A000914049F483E790E023E730E0F90120817B
:1038B0002260FC01208300000F900F90DF91CF91D8
:1038C0000895CF93DF9300D0CDB7DEB79A83898375
:1038D00089819A818038910551F48FE690E02FE636
:1038E00030E0F90120812D7FFC0120832CC08981EB
:1038F0009A818039910551F481E790E021E730E029
:10390000F90120812D7FFC0120831DC089819A81CE
:10391000803A910551F482E790E022E730E0F90126
:1039200020812D7FFC0120830EC089819A81803205
:10393000914049F483E790E023E730E0F9012081EA
:103940002D7FFC01208300000F900F90DF91CF911D
:103950000895CF93DF93CDB7DEB727970FB6F894CE
:10396000DEBF0FBECDBF9C838B836D835F834E8391
:103970008B819C819A8389838D81882F90E0019629
:1039800029813A81820F931F2D81222F30E02F5FF2
:103990003F4F49815A81240F351FF90140812E8103
:1039A0003F81232F3327242BFC0120838D81882FF7
:1039B00090E029813A81820F931F2D81222F30E0E0
:1039C00049815A81240F351FF90130812E81232B23
:1039D000FC012083000027960FB6F894DEBF0FBECF
:1039E000CDBFDF91CF910895CF93DF9300D0CDB7B6
:1039F000DEB79A83898389819A818038910551F451
:103A000086E390E026E330E0F90120812160FC01AB
:103A100020832CC089819A818039910551F488E3F3
:103A200090E028E330E0F90120812160FC0120834F
:103A30001DC089819A81803A910551F489E390E013
:103A400029E330E0F90120812160FC0120830EC0D0
:103A500089819A818032914049F48AE390E02AE397
:103A600030E0F90120812160FC01208300000F90EB
:103A70000F90DF91CF910895CF93DF9300D0CDB712
:103A8000DEB79A83898389819A818038910551F4C0
:103A900086E390E026E330E0F90120812260FC011A
:103AA00020832CC089819A818039910551F488E363
:103AB00090E028E330E0F90120812260FC012083BE
:103AC0001DC089819A81803A910551F489E390E083
:103AD00029E330E0F90120812260FC0120830EC03F
:103AE00089819A818032914049F48AE390E02AE307
:103AF00030E0F90120812260FC01208300000F905A
:103B00000F90DF91CF910895CF93DF9300D0CDB781
:103B1000DEB79A83898389819A818038910531F44F
:103B200084E890E0FC018081918123C089819A81A1
:103B30008039910531F484E990E0FC018081918124
:103B400018C089819A81803A910531F484EA90E025
:103B5000FC01808191810DC089819A8180329140E0
:103B600031F484E291E0FC018081918102C080E027
:103B700090E00F900F90DF91CF910895CF93DF9356
:103B800000D000D01F92CDB7DEB79C838B836D83AE
:103B90008B819C819A8389838D81882349F48981D3
:103BA0009A81FC01208189819A81FC0120830FC0C8
:103BB0008D81843061F489819A81019629813A81CD
:103BC0002F5F3F4FF90120812860FC012083000016
:103BD0000F900F900F900F900F90DF91CF9108955D
:103BE000CF93DF93CDB7DEB780E890E00E94841DCD
:103BF000DF91CF910895CF93DF93CDB7DEB780E803
:103C000090E00E94611C80E890E00E943C1D000052
:103C1000DF91CF910895CF93DF93CDB7DEB780E8E2
:103C200090E00E943C1D80E890E00E94191C00007A
:103C3000DF91CF910895CF93DF93CDB7DEB780E8C2
:103C400090E00E94D11B80E890E00E94F41C0000EC
:103C5000DF91CF910895CF93DF93CDB7DEB780E8A2
:103C600090E00E94A8250000DF91CF910895CF93A6
:103C7000DF9300D0CDB7DEB79A83898389819A819B
:103C8000AC0168E080E890E00E94A91C00000F9061
:103C90000F90DF91CF910895CF93DF93CDB7DEB72B
:103CA0000E948F1ADF91CF910895CF93DF931F92D7
:103CB000CDB7DEB7898389810E949F1A00000F90DB
:103CC000DF91CF910895CF93DF931F92CDB7DEB7E9
:103CD00080E890E00E948F256CEF7EE180E890E024
:103CE0000E94C12560E080E890E00E94BE1D80E84F
:103CF00090E00E94D11B80E890E00E949E1E80E828
:103D000090E00E94611C61E080E890E00E94821BCC
:103D100080E890E00E94C91ADC01CB0120E432E483
:103D20004FE050E0BC01CD010E941244DA01C9010C
:103D3000898389810F90DF91CF910895CF93DF938D
:103D400000D0CDB7DEB79A83898389819A81803884
:103D5000910579F089819A818039910551F08981A5
:103D60009A81803A910529F089819A818032914027
:103D700039F466E07FE180E890E00E94022636C0D8
:103D800089819A818138910579F089819A81813977
:103D9000910551F089819A81813A910529F08981B3
:103DA0009A818132914039F466E07FE180E890E0C9
:103DB0000E9443261BC089819A818238910579F03F
:103DC00089819A818239910551F089819A81823A5B
:103DD000910529F089819A818232914039F466E017
:103DE0007FE180E890E00E94842600C000000F90F0
:103DF0000F90DF91CF910895CF93DF93CDB7DEB7CA
:103E00000E940C400000DF91CF910895CF93DF9383
:103E1000CDB7DEB70E9444400000DF91CF910895F6
:103E2000CF93DF931F92CDB7DEB78FE590E0FC0113
:103E300080818983F89489810F90DF91CF910895D3
:103E4000CF93DF931F92CDB7DEB789838FE590E0E4
:103E50002981FC01208300000F90DF91CF9108950C
:103E6000EF92FF920F931F93CF93DF93CDB7DEB7FF
:103E70002C970FB6F894DEBF0FBECDBF6B837C834B
:103E80008D839E832F83388749875A871C870B87AA
:103E90008F819885A985BA858093930E9093940E0F
:103EA000A093950EB093960E8B859C859A838983FB
:103EB0008B819C81AD81BE8188279F5FAF4FBF4FB3
:103EC0008093970E9093980EA093990EB0939A0EAC
:103ED0008B819C81AD81BE8188270BE91EE020E0AB
:103EE00031E040E050E0BC01CD010E9423202BE9ED
:103EF0003EE040E051E060E070E0CB010E943E48CF
:103F00002091930E3091940E4091950E5091960E03
:103F10008B819C81AD81BE81280F391F4A1F5B1F99
:103F20008091970E9091980EA091990EB0919A0E53
:103F300082179307A407B507A0F48091970E90917C
:103F4000980EA091990EB0919A0E9C018B819C8144
:103F50007901E81AF90AC70190939C0F80939B0F8F
:103F60000CC08091930E9091940EA091950EB091FB
:103F7000960E90939C0F80939B0F2091930E3091FF
:103F8000940E4091950E5091960E80919B0F9091BA
:103F90009C0FCC01A0E0B0E079018A01E81AF90A8F
:103FA0000A0B1B0BD801C7018093930E9093940EBC
:103FB000A093950EB093960E40919B0F50919C0F3D
:103FC00029813A818B819C81AD81BE81BC01CD016B
:103FD0000E943E488B819C81AD81BE81BC01CD0198
:103FE0000E944B498091970E9091980EA091990E46
:103FF000B0919A0E8B839C83AD83BE8380919B0F7F
:1040000090919C0F29813A81820F931F9A83898313
:104010008091930E9091940EA091950EB091960E72
:10402000892B8A2B8B2B09F043CF00002C960FB6DF
:10403000F894DEBF0FBECDBFDF91CF911F910F91DE
:10404000FF90EF9008950F931F93CF93DF93CDB719
:10405000DEB762970FB6F894DEBF0FBECDBF69879B
:104060007A878B879C872D873E874F87588B1A8B43
:10407000098B0E94101F8B831A82198229C02989FB
:104080003A8989819A81B901680F791F89859A8552
:10409000AB85BC859C01AD012F5F3F4F4F4F5F4FFC
:1040A00029873A874B875C878C839D83AE83BF8348
:1040B0008C819D81AE81BF81ABBFFC0187918887D8
:1040C0008885FB01808389819A8101969A838983FF
:1040D00089819A819C0140E050E08D859E85AF8565
:1040E000B889281739074A075B0748F28B810E9475
:1040F000201F000062960FB6F894DEBF0FBECDBF42
:10410000DF91CF911F910F910895CF93DF931F926D
:10411000CDB7DEB78FE590E0FC0180818983F8940C
:1041200089810F90DF91CF910895CF93DF931F92F4
:10413000CDB7DEB789838FE590E02981FC0120832C
:1041400000000F90DF91CF910895CF93DF9300D0BF
:10415000CDB7DEB79A83898389819A81892B09F447
:104160007BC089819A818837910549F461E080E0BC
:104170000E94D93360E180E00E94D9336DC089810B
:104180009A81803C910529F462E080E00E94D93355
:1041900063C089819A818C34910529F464E080E0C0
:1041A0000E94D93359C089819A818038910529F4B8
:1041B00068E080E00E94D9334FC089819A818434BD
:1041C000910529F460E280E00E94D93345C08981DD
:1041D0009A81803B910529F460E480E00E94D93304
:1041E0003BC089819A81883B910529F460E880E091
:1041F0000E94D93331C089819A81883C910529F484
:1042000061E081E00E94D93327C089819A81803999
:10421000910529F468E081E00E94D9331DC08981AD
:104220009A81803A910529F460E181E00E94D933B6
:1042300013C089819A818032914029F460E281E043
:104240000E94D93309C089819A818334914021F435
:1042500060E481E00E94D93300000F900F90DF915D
:10426000CF910895CF93DF9300D0CDB7DEB79A8377
:10427000898389819A81892B09F47BC089819A81FC
:104280008837910549F461E080E00E940E3460E1D6
:1042900080E00E940E346DC089819A81803C910536
:1042A00029F462E080E00E940E3463C089819A8123
:1042B0008C34910529F464E080E00E940E3459C0EA
:1042C00089819A818038910529F468E080E00E9414
:1042D0000E344FC089819A818434910529F460E2BB
:1042E00080E00E940E3445C089819A81803B91050F
:1042F00029F460E480E00E940E343BC089819A81F9
:10430000883B910529F460E880E00E940E3431C0BA
:1043100089819A81883C910529F461E081E00E94BD
:104320000E3427C089819A818039910529F468E08B
:1043300081E00E940E341DC089819A81803A9105E6
:1043400029F460E181E00E940E3413C089819A81D2
:104350008032914029F460E281E00E940E3409C06D
:1043600089819A818334914021F460E481E00E9444
:104370000E3400000F900F90DF91CF9108951F929F
:104380000F9200905F000F92112400905B000F923B
:104390002F933F934F935F936F937F938F939F934D
:1043A000AF93BF93EF93FF93CF93DF93CDB7DEB778
:1043B00080919D0F90919E0F892B31F080919D0FE0
:1043C00090919E0FFC0109950000DF91CF91FF9124
:1043D000EF91BF91AF919F918F917F916F915F917D
:1043E0004F913F912F910F9000925B000F900092A0
:1043F0005F000F901F9018951F920F9200905F0022
:104400000F92112400905B000F922F933F934F93D4
:104410005F936F937F938F939F93AF93BF93EF932C
:10442000FF93CF93DF93CDB7DEB780919F0F90912D
:10443000A00F892B31F080919F0F9091A00FFC016C
:1044400009950000DF91CF91FF91EF91BF91AF915E
:104450009F918F917F916F915F914F913F912F919C
:104460000F9000925B000F9000925F000F901F90E2
:1044700018951F920F9200905F000F9211240090E8
:104480005B000F922F933F934F935F936F937F93B4
:104490008F939F93AF93BF93EF93FF93CF93DF934C
:1044A000CDB7DEB78091A10F9091A20F892B31F08B
:1044B0008091A10F9091A20FFC0109950000DF915E
:1044C000CF91FF91EF91BF91AF919F918F917F918C
:1044D0006F915F914F913F912F910F9000925B00F0
:1044E0000F9000925F000F901F9018951F920F92EF
:1044F00000905F000F92112400905B000F922F93A9
:104500003F934F935F936F937F938F939F93AF935B
:10451000BF93EF93FF93CF93DF93CDB7DEB7809137
:10452000A30F9091A40F892B31F08091A30F90914C
:10453000A40FFC0109950000DF91CF91FF91EF914D
:10454000BF91AF919F918F917F916F915F914F91AB
:104550003F912F910F9000925B000F9000925F00AF
:104560000F901F9018951F920F9200905F000F926E
:10457000112400905B000F922F933F934F935F9312
:104580006F937F938F939F93AF93BF93EF93FF931B
:10459000CF93DF93CDB7DEB78091A50F9091A60F93
:1045A000892B31F08091A50F9091A60FFC01099500
:1045B0000000DF91CF91FF91EF91BF91AF919F915B
:1045C0008F917F916F915F914F913F912F910F90BC
:1045D00000925B000F9000925F000F901F90189563
:1045E0001F920F9200905F000F92112400905B00C9
:1045F0000F922F933F934F935F936F937F938F937C
:104600009F93AF93BF93EF93FF93CF93DF93CDB778
:10461000DEB78091A70F9091A80F892B31F0809180
:10462000A70F9091A80FFC0109950000DF91CF9191
:10463000FF91EF91BF91AF919F918F917F916F917A
:104640005F914F913F912F910F9000925B000F90DF
:1046500000925F000F901F9018951F920F9200908C
:104660005F000F92112400905B000F922F933F93F5
:104670004F935F936F937F938F939F93AF93BF936A
:10468000EF93FF93CF93DF93CDB7DEB78091A90F60
:104690009091AA0F892B31F08091A90F9091AA0FC8
:1046A000FC0109950000DF91CF91FF91EF91BF913F
:1046B000AF919F918F917F916F915F914F913F91BA
:1046C0002F910F9000925B000F9000925F000F906F
:1046D0001F9018951F920F9200905F000F92112467
:1046E00000905B000F922F933F934F935F936F93D4
:1046F0007F938F939F93AF93BF93EF93FF93CF934A
:10470000DF93CDB7DEB78091AB0F9091AC0F892BC3
:1047100031F08091AB0F9091AC0FFC010995000036
:10472000DF91CF91FF91EF91BF91AF919F918F91C9
:104730007F916F915F914F913F912F910F900092D8
:104740005B000F9000925F000F901F9018951F92D2
:104750000F9200905F000F92112400905B000F9267
:104760002F933F934F935F936F937F938F939F9379
:10477000AF93BF93EF93FF93CF93DF93CDB7DEB7A4
:104780008091AD0F9091AE0F892B31F08091AD0FDC
:104790009091AE0FFC0109950000DF91CF91FF9140
:1047A000EF91BF91AF919F918F917F916F915F91A9
:1047B0004F913F912F910F9000925B000F900092CC
:1047C0005F000F901F9018951F920F9200905F004E
:1047D0000F92112400905B000F922F933F934F9301
:1047E0005F936F937F938F939F93AF93BF93EF9359
:1047F000FF93CF93DF93CDB7DEB78091AF0F90914A
:10480000B00F892B31F08091AF0F9091B00FFC0168
:1048100009950000DF91CF91FF91EF91BF91AF918A
:104820009F918F917F916F915F914F913F912F91C8
:104830000F9000925B000F9000925F000F901F900E
:1048400018951F920F9200905F000F921124009014
:104850005B000F922F933F934F935F936F937F93E0
:104860008F939F93AF93BF93EF93FF93CF93DF9378
:10487000CDB7DEB78091B10F9091B20F892B31F097
:104880008091B10F9091B20FFC0109950000DF916A
:10489000CF91FF91EF91BF91AF919F918F917F91B8
:1048A0006F915F914F913F912F910F9000925B001C
:1048B0000F9000925F000F901F9018951F920F921B
:1048C00000905F000F92112400905B000F922F93D5
:1048D0003F934F935F936F937F938F939F93AF9388
:1048E000BF93EF93FF93CF93DF93CDB7DEB7809164
:1048F000B30F9091B40F892B31F08091B30F909149
:10490000B40FFC0109950000DF91CF91FF91EF9169
:10491000BF91AF919F918F917F916F915F914F91D7
:104920003F912F910F9000925B000F9000925F00DB
:104930000F901F9018951F920F9200905F000F929A
:10494000112400905B000F922F933F934F935F933E
:104950006F937F938F939F93AF93BF93EF93FF9347
:10496000CF93DF93CDB7DEB78091B50F9091B60F9F
:10497000892B31F08091B50F9091B60FFC0109950C
:104980000000DF91CF91FF91EF91BF91AF919F9187
:104990008F917F916F915F914F913F912F910F90E8
:1049A00000925B000F9000925F000F901F9018958F
:1049B0001F920F9200905F000F92112400905B00F5
:1049C0000F922F933F934F935F936F937F938F93A8
:1049D0009F93AF93BF93EF93FF93CF93DF93CDB7A5
:1049E000DEB78091B70F9091B80F892B31F080918D
:1049F000B70F9091B80FFC0109950000DF91CF919E
:104A0000FF91EF91BF91AF919F918F917F916F91A6
:104A10005F914F913F912F910F9000925B000F900B
:104A200000925F000F901F9018951F920F920090B8
:104A30005F000F92112400905B000F922F933F9321
:104A40004F935F936F937F938F939F93AF93BF9396
:104A5000EF93FF93CF93DF93CDB7DEB78091B90F7C
:104A60009091BA0F892B31F08091B90F9091BA0FC4
:104A7000FC0109950000DF91CF91FF91EF91BF916B
:104A8000AF919F918F917F916F915F914F913F91E6
:104A90002F910F9000925B000F9000925F000F909B
:104AA0001F9018951F920F9200905F000F92112493
:104AB00000905B000F922F933F934F935F936F9300
:104AC0007F938F939F93AF93BF93EF93FF93CF9376
:104AD000DF93CDB7DEB78091BB0F9091BC0F892BD0
:104AE00031F08091BB0F9091BC0FFC010995000043
:104AF000DF91CF91FF91EF91BF91AF919F918F91F6
:104B00007F916F915F914F913F912F910F90009204
:104B10005B000F9000925F000F901F901895CF934D
:104B2000DF9300D01F92CDB7DEB79B838A830E94AC
:104B3000852089838A819B810E94A52089810E948A
:104B4000952000000F900F900F90DF91CF91089566
:104B5000CF93DF9300D01F92CDB7DEB79B838A83BC
:104B60000E94852089838A819B810E9432218981CC
:104B70000E94952000000F900F900F90DF91CF9131
:104B80000895CF93DF9300D000D0CDB7DEB79A83DE
:104B900089837C836B8389819A818038910539F47C
:104BA0008B819C8190939E0F80939D0F23C0898160
:104BB0009A818039910539F48B819C819093A60F5D
:104BC0008093A50F17C089819A81803A910539F4A5
:104BD0008B819C819093AE0F8093AD0F0BC0898128
:104BE0009A818032914031F48B819C819093B60FF1
:104BF0008093B50F00000F900F900F900F90DF91F2
:104C0000CF910895CF93DF9300D000D0CDB7DEB71A
:104C10009A8389837C836B8389819A81803891050B
:104C200039F48B819C819093A00F80939F0F23C0B8
:104C300089819A818039910539F48B819C81909387
:104C4000A80F8093A70F17C089819A81803A910598
:104C500039F48B819C819093B00F8093AF0F0BC080
:104C600089819A818032914031F48B819C8190932B
:104C7000B80F8093B70F00000F900F900F900F9018
:104C8000DF91CF910895CF93DF9300D000D0CDB7BF
:104C9000DEB79A8389837C836B8389819A8180388C
:104CA000910539F48B819C819093A20F8093A10F81
:104CB00023C089819A818039910539F48B819C8147
:104CC0009093AA0F8093A90F17C089819A81803A87
:104CD000910539F48B819C819093B20F8093B10F31
:104CE0000BC089819A818032914031F48B819C8103
:104CF0009093BA0F8093B90F00000F900F900F9010
:104D00000F90DF91CF910895CF93DF9300D000D023
:104D1000CDB7DEB79A8389837C836B8389819A813F
:104D20008038910539F48B819C819093A40F8093F6
:104D3000A30F23C089819A818039910539F48B8131
:104D40009C819093AC0F8093AB0F17C089819A819F
:104D5000803A910539F48B819C819093B40F8093B4
:104D6000B30F0BC089819A818032914031F48B81DD
:104D70009C819093BC0F8093BB0F00000F900F900D
:104D80000F900F90DF91CF910895CF93DF93CDB720
:104D9000DEB70000DF91CF910895CF93DF93CDB7B9
:104DA000DEB765970FB6F894DEBF0FBECDBF9B8B05
:104DB0008A8B6C8B4D8B8A899B89892B21F1109270
:104DC000BD0F82E080930A028A899B8920E1FC0161
:104DD000AFEBBFE001900D922A95E1F7198210C068
:104DE0008FE391E02981222F30E04A895B89240FEB
:104DF000351FF9012081FC01208389818F5F898320
:104E00008981803168F38D89882F90E0009719F0AF
:104E10000197D1F059C080910A02813009F056C043
:104E200019820EC08FE391E02981222F30E02154B6
:104E3000304FF9012081FC01208389818F5F8983B4
:104E40008981803178F342C080910A028130E1F19A
:104E50009091BD0F81E08927882311F11092BE0F38
:104E60008CE391E02091BE0FFC012083CE010296DD
:104E70000E94D92719820EC08981882F90E02FE3E4
:104E800031E0F90120818153904FFC012083898119
:104E90008F5F89838981803178F381E08093BD0FB2
:104EA00019820EC08FE391E02981222F30E0215337
:104EB000304FF9012081FC01208389818F5F898334
:104EC0008981803178F303C080E02DC000008D8996
:104ED00080930A028C89882F90E0029718F58C89BC
:104EE000882F90E0880F991F82959295907F982740
:104EF000807F9827282F20728D89882F90E0880F37
:104F0000991F880F991F880F991F8870822B809393
:104F1000BE0F00008CE391E02091BE0FFC012083C6
:104F200081E001C080E065960FB6F894DEBF0FBE49
:104F3000CDBFDF91CF910895CF93DF9300D01F9223
:104F4000CDB7DEB780910A02882329F48FEB9FE06A
:104F50009B838A8304C08FEC9FE09B838A831982A2
:104F600010C02FE331E08A819B81AC014F5F5F4F1E
:104F70005B834A83FC018081F901808389818F5F93
:104F800089838981803168F38CE391E02091BE0FA1
:104F9000FC01208300000F900F900F90DF91CF91C4
:104FA0000895CF93DF93CDB7DEB70000DF91CF91A7
:104FB0000895CF93DF9300D01F92CDB7DEB79B83C8
:104FC0008A83198210C02EE331E08A819B81AC0173
:104FD0004F5F5F4F5B834A83FC018081F9018083CF
:104FE00089818F5F89838981803168F38CE391E0C7
:104FF0002091BE0F2068FC01208300008DE391E02A
:10500000FC018081882F90E081709927892BB1F372
:1050100000000F900F900F90DF91CF910895CF93E4
:10502000DF9300D01F92CDB7DEB79B838A831982AE
:1050300010C08A819B819C012F5F3F4F3B832A8355
:105040002EE331E0F9012081FC01208389818F5F0B
:1050500089838981803168F300000F900F900F9051
:10506000DF91CF910895CF93DF931F92CDB7DEB735
:10507000898383E590E023E530E0F9012081322F38
:10508000317F2981232BFC01208300000F90DF91C9
:10509000CF910895CF93DF93CDB7DEB786EB90E045
:1050A00026EB30E0F90120812062FC012083000022
:1050B000DF91CF910895CF93DF931F92CDB7DEB7E5
:1050C000898389818823A1F48CED90E02CED30E078
:1050D000F9012081422F2981222F30E0229532953B
:1050E000307F3227207F3227242BFC0120830CC005
:1050F0008981813049F48CED90E02CED30E0F901AC
:1051000020812F7EFC01208300000F90DF91CF9142
:105110000895CF93DF9300D0CDB7DEB79A8389830C
:1051200089819A81892B09F47BC089819A8188378A
:10513000910549F461E080E00E94D93360E180E0AC
:105140000E94D9336DC089819A81803C910529F4F0
:1051500062E080E00E94D93363C089819A818C34F7
:10516000910529F464E080E00E94D93359C0898117
:105170009A818038910529F468E080E00E94D93353
:105180004FC089819A818434910529F460E280E0DE
:105190000E94D93345C089819A81803B910529F4C9
:1051A00060E480E00E94D9333BC089819A81883BCA
:1051B000910529F460E880E00E94D93331C08981EB
:1051C0009A81883C910529F461E081E00E94D933FD
:1051D00027C089819A818039910529F468E081E0AE
:1051E0000E94D9331DC089819A81803A910529F4A2
:1051F00060E181E00E94D93313C089819A818032B5
:10520000914029F460E281E00E94D93309C089818C
:105210009A818334914021F460E481E00E94D93383
:1052200000000F900F90DF91CF910895CF93DF93FF
:10523000CDB7DEB786E00E94332880EB90E00E9475
:10524000892881E00E945B280E944A280E94992AAE
:105250000000DF91CF910895CF93DF9300D000D06D
:10526000CDB7DEB769837A838B839C8383E590E037
:1052700023E530E0F90120812160FC01208388953D
:1052800000000F900F900F900F90DF91CF91089535
:10529000CF93DF931F92CDB7DEB78FE590E0FC018F
:1052A00080818983F89489810F90DF91CF9108954F
:1052B000CF93DF931F92CDB7DEB789838FE590E060
:1052C0002981FC01208300000F90DF91CF91089588
:1052D0001F920F9200905F000F92112400905B00CC
:1052E0000F922F933F934F935F936F937F938F937F
:1052F0009F93AF93BF93EF93FF93CF93DF93CDB77C
:10530000DEB78091DF0F9091E00F892B31F0809113
:10531000DF0F9091E00FFC0109950000DF91CF9124
:10532000FF91EF91BF91AF919F918F917F916F917D
:105330005F914F913F912F910F9000925B000F90E2
:1053400000925F000F901F9018951F920F9200908F
:105350005F000F92112400905B000F922F933F93F8
:105360004F935F936F937F938F939F93AF93BF936D
:10537000EF93FF93CF93DF93CDB7DEB78091E10F2B
:105380009091E20F892B31F08091E10F9091E20F23
:10539000FC0109950000DF91CF91FF91EF91BF9142
:1053A000AF919F918F917F916F915F914F913F91BD
:1053B0002F910F9000925B000F9000925F000F9072
:1053C0001F9018951F920F9200905F000F9211246A
:1053D00000905B000F922F933F934F935F936F93D7
:1053E0007F938F939F93AF93BF93EF93FF93CF934D
:1053F000DF93CDB7DEB78091E30F9091E40F892B57
:1054000031F08091E30F9091E40FFC0109950000C9
:10541000DF91CF91FF91EF91BF91AF919F918F91CC
:105420007F916F915F914F913F912F910F900092DB
:105430005B000F9000925F000F901F9018951F92D5
:105440000F9200905F000F92112400905B000F926A
:105450002F933F934F935F936F937F938F939F937C
:10546000AF93BF93EF93FF93CF93DF93CDB7DEB7A7
:105470008091E50F9091E60F892B31F08091E50F37
:105480009091E60FFC0109950000DF91CF91FF910B
:10549000EF91BF91AF919F918F917F916F915F91AC
:1054A0004F913F912F910F9000925B000F900092CF
:1054B0005F000F901F9018951F920F9200905F0051
:1054C0000F92112400905B000F922F933F934F9304
:1054D0005F936F937F938F939F93AF93BF93EF935C
:1054E000FF93CF93DF93CDB7DEB78091E70F909115
:1054F000E80F892B31F08091E70F9091E80FFC01C4
:1055000009950000DF91CF91FF91EF91BF91AF918D
:105510009F918F917F916F915F914F913F912F91CB
:105520000F9000925B000F9000925F000F901F9011
:105530001895CF93DF931F92CDB7DEB70E9448290D
:1055400089838CED90E02CED30E0F9012081206220
:10555000FC01208389810E94582900000F90DF916F
:10556000CF910895CF93DF93CDB7DEB78CED90E068
:10557000FC018081882319F081E090E002C080E086
:1055800090E08170DF91CF910895CF93DF93CDB7F5
:10559000DEB78CED90E02CED30E0F90120812F7D1D
:1055A000FC0120830000DF91CF910895CF93DF931A
:1055B000CDB7DEB78DED90E0FC018081882319F036
:1055C00081E090E002C080E090E08170DF91CF91B7
:1055D0000895CF93DF931F92CDB7DEB7898389817A
:1055E000882F90E08230910529F18330910509F4EC
:1055F0003EC0019709F05DC08FED90E0FC01808115
:10560000882F90E081709927892B09F04DC080EE9A
:1056100090E020EE30E0F90120812160FC01208340
:105620008FED90E02FED30E0F90120812160FC0149
:1056300020833AC08FED90E0FC018081882F90E0BC
:1056400082709927892B91F580EE90E020EE30E072
:10565000F90120812260FC0120838FED90E02FED85
:1056600030E0F90120812260FC0120831FC08FED12
:1056700090E0FC018081882F90E084709927892B2D
:10568000B9F480EE90E020EE30E0F9012081246052
:10569000FC0120838FED90E02FED30E0F9012081B7
:1056A0002460FC01208304C0000003C0000001C08E
:1056B000000000000F90DF91CF910895CF93DF930A
:1056C0001F92CDB7DEB789838981882F90E0823021
:1056D000910519F18330910529F1019709F028C04E
:1056E0008FED90E0FC018081882F90E081709927F8
:1056F000892BE9F080EE90E020EE30E0F901208186
:105700002160FC0120838FED90E02FED30E0F90166
:1057100020812E7FFC0120830AC08FED90E0FC01E8
:10572000808106C08FED90E0FC01808101C0000007
:1057300000000F90DF91CF910895CF93DF93CDB705
:10574000DEB762970FB6F894DEBF0FBECDBF8D8770
:105750004E875F87688B798B2A8B8A89882F90E0A8
:1057600082309105D1F18330910509F469C0019728
:1057700009F099C08D85882351F08CED90E02CEDD7
:1057800030E0F90120812160FC01208309C08CED0B
:1057900090E02CED30E0F90120812E7FFC01208388
:1057A0008E859F85A889B98989839A83AB83BC83B9
:1057B00088EF90E02C81FC01208387EF90E02B8123
:1057C000FC01208386EF90E02A81FC01208385EF95
:1057D00090E02981FC01208366C08D85882351F0EB
:1057E0008CED90E02CED30E0F90120812260FC018D
:1057F000208309C08CED90E02CED30E0F901208190
:105800002D7FFC0120838E859F85A889B9898D8392
:105810009E83AF83B88784EF90E02885FC012083C6
:1058200083EF90E02F81FC01208382EF90E02E81B6
:10583000FC01208381EF90E02D81FC01208333C0A7
:105840008D85882351F08CED90E02CED30E0F9014E
:1058500020812460FC01208309C08CED90E02CEDB8
:1058600030E0F90120812B7FFC0120838E859F850C
:10587000A889B98989879A87AB87BC8780EF90E030
:105880002C85FC0120838FEE90E02B85FC0120838A
:105890008EEE90E02A85FC0120838DEE90E0298534
:1058A000FC0120830000000062960FB6F894DEBF72
:1058B0000FBECDBFDF91CF910895CF93DF9300D07E
:1058C000CDB7DEB79A83898389819A819093E00F5F
:1058D0008093DF0F00000F900F90DF91CF9108951C
:1058E000CF93DF9300D0CDB7DEB79A8389838981C8
:1058F0009A819093E20F8093E10F00000F900F9038
:10590000DF91CF910895CF93DF9300D0CDB7DEB76D
:105910009A83898389819A819093E40F8093E30F1E
:1059200000000F900F90DF91CF910895CF93DF93F8
:1059300000D0CDB7DEB79A83898389819A8190930D
:10594000E60F8093E50F00000F900F90DF91CF914D
:105950000895CF93DF9300D0CDB7DEB79A838983C4
:1059600089819A819093E80F8093E70F00000F9050
:105970000F90DF91CF910895CF93DF9300D0CDB7F3
:10598000DEB79A83898389819A81FC018181282FDE
:10599000206189819A81FC01218300000F900F9082
:1059A000DF91CF910895CF93DF9300D000D01F9265
:1059B000CDB7DEB79A8389836B834C832D8389812E
:1059C0009A81FC018281282F297F8B81882F90E08A
:1059D00083709927880F991F822B282F89819A819C
:1059E000FC01228389819A81FC018181282F2B7FF0
:1059F0008B81882F90E084709927880F991F880FDA
:105A0000991F822B282F89819A81FC01218389810A
:105A10009A81FC018281982F9F7C8C81892B282F71
:105A200089819A81FC01228389819A81FC0182818A
:105A3000282F277F8D81882F90E0880F991F880F4E
:105A4000991F880F991F822B282F89819A81FC0129
:105A5000228300000F900F900F900F900F90DF9116
:105A6000CF910895CF93DF9300D0CDB7DEB79A835F
:105A7000898389819A81FC018181282F286089810D
:105A80009A81FC01218300000F900F90DF91CF914C
:105A90000895CF93DF9300D01F92CDB7DEB79A83DE
:105AA00089836B8389819A81FC018281982F9F73FE
:105AB0008B81892B282F89819A81FC012283000008
:105AC0000F900F900F90DF91CF910895CF93DF93B8
:105AD00000D0CDB7DEB79A83898389819A81FC0192
