:100000000C9471010C9490010C9490010C9490014B
:100010000C9490010C9490010C9490010C9490011C
:100020000C9490010C9490010C9490010C9490010C
:100030000C94D5320C9490010C9490010C94900186
:100040000C9490010C943D220C947A220C94B722CB
:100050000C9400220C9490010C9490010C9490014B
:100060000C9490010C94D1360C9490010C94900156
:100070000C9490010C9490010C9490010C949001BC
:100080000C9431230C946E230C94AB230C94F42227
:100090000C9490010C9490010C9490010C9490019C
:1000A0000C9490010C9490010C9425240C946224DF
:1000B0000C949F240C94E8230C9490010C94192523
:1000C0000C9456250C9493250C94DC240C949001EC
:1000D0000C9490010C9490010C9490010C9490015C
:1000E0000C9490010C9490010C9490010C9490014C
:1000F0000C9490010C9490010C9490010C9490013C
:100100000C9490010C94E6290C94232A0C94602AF8
:100110000C94A9290C949D2A0C9490010C949001A4
:100120006E616E00696E660000407A10F35A00A09E
:10013000724E18090010A5D4E80000E876481700B0
:1001400000E40B54020000CA9A3B000000E1F505F0
:10015000000080969800000040420F000000A0863A
:1001600001000000102700000000E803000000006C
:100170006400000000000A00000000000100000010
:1001800000002C76D888DC674F0823DFC1DFAE592A
:10019000E1B1B796E5E3E453C63AE651997696E8BD
:1001A000E6C28426EB898C9B62ED407C6FFCEFBC41
:1001B0009C9F40F2BAA56FA5F490055A2AF75C936C
:1001C0006B6CF9676DC11BFCE0E40D47FEF520E6A2
:1001D000B500D0ED902E0300943577050080841E85
:1001E000080000204E0A000000C80C333333330FE0
:1001F000986E12831141EF8D2114893BE65516CF7D
:10020000FEE6DB18D1844B381BF77C1D901DA4BB88
:10021000E424203284725E228100C9F124ECA1E53D
:100220003D27330019000C00060003000200010006
:10023000FF00A001CF006700330019000C00070089
:1002400008004003A001CF00670033001900100030
:100250001000330019000C0006000300020001002A
:10026000FF00A001CF006700330019000C00070059
:1002700008004003A001CF00670033001900100000
:100280001000330019000C000600030002000100FA
:10029000FF00A001CF006700330019000C00070029
:1002A00008004003A001CF006700330019001000D0
:1002B0001000330019000C000600030002000100CA
:1002C000FF00A001CF006700330019000C000700F9
:1002D00008004003A001CF006700330019001000A0
:1002E000100011241FBECFEFD1E4DEBFCDBF12E05E
:1002F000A0E0B2E0E4EEF3E900E00BBF02C007903B
:100300000D92A833B107D9F720E1A8E3B2E001C00C
:100310001D92A73EB207E1F70E94AF020C94444839
:100320000C940000CF93DF93CDB7DEB780E094E26A
:10033000A4EFB0E0BC01CD01DF91CF910895CF9340
:10034000DF93CDB7DEB70E949201DC01CB01BC0187
:10035000CD01DF91CF910895CF93DF9300D0CDB73A
:10036000DEB79A83898389819A81FC018081282F55
:10037000226089819A81FC01208300000F900F90F8
:10038000DF91CF910895CF93DF93CDB7DEB72B9751
:100390000FB6F894DEBF0FBECDBF998788877B87E5
:1003A0006A878A859B85FC0184818D838A859B85EC
:1003B000FC0185818E838A859B85FC0186818F83E4
:1003C0008A859B85FC0180819181A281B38189838B
:1003D0009A83AB83BC83888599859E012F5F3F4FAD
:1003E000B9010E942D2E882311F081E001C080E028
:1003F0002B960FB6F894DEBF0FBECDBFDF91CF9125
:100400000895CF93DF9300D01F92CDB7DEB79A83C4
:1004100089836B8389819A816B810E943B300F9025
:100420000F900F90DF91CF910895CF93DF9300D07D
:1004300000D0CDB7DEB79A8389837C836B838981B3
:100440009A810E945A30282F8B819C81FC01208345
:1004500000000F900F900F900F90DF91CF910895B3
:10046000CF93DF9300D000D0CDB7DEB79A838983D6
:100470007C836B8389819A819093DB108093DA105F
:1004800081E092E09093D9108093D81085E192E0BA
:100490009093D7108093D6102B813C8189819A81CB
:1004A000B9010E94C3016DE075E38CE295E30E94FF
:1004B000DC4500000F900F900F900F90DF91CF91CF
:1004C0000895CF93DF9300D0CDB7DEB79A838983A9
:1004D00089E192E0892F8F9389E192E08F930E94C6
:1004E00063460F900F9000000F900F90DF91CF9117
:1004F0000895CF93DF93CDB7DEB784EC99E0A0E009
:10050000B0E080934A0290934B02A0934C02B093C8
:100510004D0281E080934E0281E692E0909350027A
:1005200080934F0284E492E00E946D180000DF91F6
:10053000CF910895CF93DF93CDB7DEB7809143027B
:10054000882F90E0892B09F006C00E94790281E093
:100550008093430200000000DF91CF9108950F9334
:100560001F93CF93DF93CDB7DEB727970FB6F894DD
:10057000DEBF0FBECDBF0E94F4330E9429370E9418
:10058000171881E00E9479140E945729789427E077
:10059000E7E2F2E0CE010196DC0101900D922A958E
:1005A000E1F7CE010196BC0180EC90E00E943002A0
:1005B00080EC90E00E94AC010E949F01DC01CB0125
:1005C0008C019D0140E052EC61E070E080EC90E035
:1005D0000E94D6300E9427180E949A02FBCFCF9328
:1005E000DF931F92CDB7DEB71092AA101092AB1016
:1005F0001092A7101092A6101092CD101092CC104D
:1006000019820EC08981882F90E00396880F991F68
:100610008A559F4EFC011182108289818F5F8983E8
:100620008981803178F30E94C00F0E945D090E9489
:100630009F070E94F90300000F90DF91CF9108956A
:10064000CF93DF9300D0CDB7DEB79A8389838981BA
:100650009A819093A7108093A61089819A810E9415
:10066000CB1500000F900F90DF91CF910895CF939D
:10067000DF9300D0CDB7DEB79A83898389819A81D1
:100680009093A9108093A81089819A810E94A71540
:1006900000000F900F90DF91CF910895CF93DF93DB
:1006A00000D01F92CDB7DEB789837B836A838981AF
:1006B000882F90E00396880F991F8A559F4E2A81B4
:1006C0003B81FC013183208300000F900F900F903D
:1006D000DF91CF910895CF93DF93CDB7DEB78091AF
:1006E000CC109091CD1021E0892B09F420E0822FCD
:1006F000DF91CF910895CF93DF93CDB7DEB780918F
:10070000CC109091CD1001969093CD108093CC1089
:100710000000DF91CF910895CF93DF93CDB7DEB77F
:100720008091CC109091CD1001979093CD10809333
:10073000CC100000DF91CF910895CF93DF93CDB718
:10074000DEB70E9405160000DF91CF910895CF9388
:10075000DF93CDB7DEB70E941A160000DF91CF916C
:100760000895CF93DF93CDB7DEB72C970FB6F894EB
:10077000DEBF0FBECDBF8C8789E0EEE2F2E0DE0186
:10078000139601900D928A95E1F789E189831A8287
:1007900015C09C858981981758F48A81882F90E02C
:1007A0009E012D5F3F4F820F931FFC0180810AC085
:1007B0008981875E89838A818F5F8A838A81893074
:1007C00040F38FEF2C960FB6F894DEBF0FBECDBF6F
:1007D000DF91CF910895CF93DF93CDB7DEB70E941D
:1007E0006E0F0E947F130E9469070000DF91CF9176
:1007F0000895CF93DF93CDB7DEB7109252021092D7
:1008000051020000DF91CF910895CF93DF9300D084
:10081000CDB7DEB79A83898389819A81FC011482DE
:1008200089819A81FC01108A89819A81FC01138255
:1008300012828091CC109091CD1001969093CD10A2
:100840008093CC108091510290915202892B61F4D7
:1008500089819A81FC011182108289819A81909309
:100860005202809351020FC02091510230915202E6
:1008700089819A81FC013183208389819A819093B7
:1008800052028093510200000F900F90DF91CF91A0
:100890000895CF93DF9300D000D000D0CDB7DEB75E
:1008A0009E838D838D819E81FC018185928580341C
:1008B000910598F40E94BE079A83898389819A8161
:1008C000892B61F58D819E8122E0FC0124838D813D
:1008D0009E8122E0FC01208B46C28D819E81FC011D
:1008E0008185928580749927892B21F081E00E946F
:1008F000300803C080E00E9430089A838983898190
:100900009A81892B59F48D819E8122E0FC012483F8
:100910008D819E8122E0FC01208B25C28D819E81EC
:10092000FC018185928580749927892B09F49AC0EE
:1009300089819A818A579F4FFC0110828D819E8107
:10094000FC018185928580789927892B41F08981E6
:100950009A81FC012581287FFC01258334C08D818B
:100960009E81FC018185928588279170892B49F0B1
:1009700089819A81FC012581287F2460FC012583DF
:1009800022C08D819E81FC0181859285882792708D
:10099000892B49F089819A81FC012581287F266075
:1009A000FC01258310C08D819E81FC01818592858B
:1009B00088279470892B39F089819A81FC012581DF
:1009C0002760FC01258389819A81FC012581277F8D
:1009D000FC01258389819A81FC0125812F7EFC0100
:1009E000258389819A81FC012581206EFC01258364
:1009F0008D819E81FC018185928588279870892B45
:100A000031F089819A8121E0FC01278313C08D8117
:100A10009E81FC018185928588279071892B31F018
:100A200089819A8122E0FC01278304C089819A810F
:100A3000FC01178289819A812FEFFC012087809128
:100A4000A6109091A7109C838B838B819C81FC01C5
:100A5000208189819A81FC01268389819A810E9463
:100A60003F106CC18D819E81FC0181859285992307
:100A700094F08D819E81FC018185928588279072FA
:100A8000892B49F48D819E81FC018185928588277F
:100A90009074892B99F189819A818A579F4FFC0123
:100AA00010828D819E81FC018585482F50E08D81CB
:100AB0009E81FC012385348589819A818F579F4FC0
:100AC000FC0180819181B9010E94C14589819A818F
:100AD000FC0121818D819E81FC018585280F898102
:100AE0009A81FC0121838D819E81FC0121853285C3
:100AF00089819A81B9010E94921020C18D819E81C5
:100B0000FC018185928580729927892B09F462C046
:100B100089819A818A579F4FFC01108289819A812D
:100B2000FC012185207F2860FC01218789819A8131
:100B3000FC0121852F702066FC01218789819A8123
:100B4000FC012285207F2160FC01228789819A8116
:100B5000FC0122852061FC01228789819A81FC01A8
:100B600022852064FC01228789819A81FC012285EB
:100B70002F77FC01228789819A81FC011386898164
:100B80009A81FC0114868D819E81FC018585482F08
:100B900050E08D819E81FC012385348589819A8175
:100BA0008F579F4FFC0180819181B9010E94C145FF
:100BB00089819A81FC0121818D819E81FC0185853D
:100BC000280F89819A81FC01218389819A810E9461
:100BD000F40FB4C08D819E81FC0181859285847063
:100BE000992721E0892B09F420E089819A818A578D
:100BF0009F4FFC0120838D819E81FC018185928520
:100C00008170992721E0892B09F420E089819A815C
:100C10002170FC0133853E7F232BFC0123878D81CE
:100C20009E81FC01818592858870992721E0892B1E
:100C300009F420E089819A812170220F220FFC01A2
:100C400033853B7F232BFC0123878D819E81FC0113
:100C5000818592858072992721E0892B09F420E013
:100C600089819A8121702295207FFC0133853F7E06
:100C7000232BFC0123878091AA108F5F8093AA10F9
:100C80002091AA1089819A81FC0124872091A610C5
:100C90003091A71089819A81FC01368725878D8143
:100CA0009E81FC012581368189819A81FC01308BEE
:100CB00027878D819E81FC018085282F2F70898157
:100CC0009A812F70FC013189307F232BFC01218B0D
:100CD0008D819E81FC018781282F2F7089819A81C7
:100CE0002295207FFC0131893F70232BFC01218B51
:100CF0008D819E81FC018585482F50E08D819E81EC
:100D0000FC012385348589819A818F579F4FFC018F
:100D100080819181B9010E94C14589819A81FC013C
:100D200021818D819E81FC018585280F89819A8191
:100D3000FC01218389819A810E9406118D819E8107
:100D400029813A81FC01338322838D819E8121E0B8
:100D5000FC01248389819A8189579F4F2CEB36E0CF
:100D6000FC013183208326960FB6F894DEBF0FBEB8
:100D7000CDBFDF91CF910895CF93DF9300D000D006
:100D8000CDB7DEB79C838B83809151029091520244
:100D90009A8389832BC089819A81FC0122813381C6
:100DA0008B819C8128173907D1F48B819C818D57C9
:100DB0009F4FFC01208189819A81FC01208B8B81CE
:100DC0009C818A579F4FFC01208189819A81FC0177
:100DD000218B89819A8122E0FC0124830BC08981C7
:100DE0009A81FC01808191819A83898389819A818A
:100DF000892B89F68B819C810E94C80800000F9086
:100E00000F900F900F90DF91CF910895CF93DF93C4
:100E100000D000D0CDB7DEB79C838B8320915102E8
:100E2000309152028B819C812817390761F480919F
:100E3000510290915202FC01808191819093520263
:100E40008093510225C080915102909152029A8361
:100E5000898307C089819A81FC01808191819A836D
:100E6000898389819A81FC01208131818B819C81D8
:100E70002817390779F789819A81FC01808191814E
:100E8000FC012081318189819A81FC013183208399
:100E90008091CC109091CD1001979093CD108093BC
:100EA000CC108B819C81FC0186859785892B49F02C
:100EB0008B819C81FC01268537858B819C81F90182
:100EC000099500000F900F900F900F90DF91CF9138
:100ED0000895CF93DF9300D0CDB7DEB78091510254
:100EE000909152029A83898321C089819A81FC0161
:100EF0008481882F90E08130910581F082309105C6
:100F000041F0892B09F00BC089819A810E94490424
:100F100011C089819A810E9406070CC00000898156
:100F20009A81FC01808191819A83898389819A8148
:100F3000892BD9F60F900F90DF91CF910895CF9321
:100F4000DF931F92CDB7DEB7198210C08981282F99
:100F500030E049E8429FC001439F900D11248D5A13
:100F60009D4FFC01108289818F5F89838981843143
:100F700068F300000F90DF91CF910895CF93DF9336
:100F80001F92CDB7DEB7198261C08981282F30E06A
:100F900049E8429FC001439F900D11248D5A9D4FF7
:100FA000FC018081882309F04EC08981282F30E020
:100FB00049E8429FC001439F900D11248D5A9D4FD7
:100FC00049E850E060E070E00E94CA458981282F1E
:100FD00030E049E8429FC001439F900D11248C5A94
:100FE0009D4FFC0110828981482F50E08981282F74
:100FF00030E069E8629FC001639F900D1124029662
:101000009C012D5A3D4F69E8649FC001659F900D7A
:1010100011248C529D4FFC01318320838091CC1090
:101020009091CD1001969093CD108093CC10898132
:10103000282F30E049E8429FC001439F900D1124C2
:101040008D5A9D4F09C089818F5F89838981843141
:1010500008F49BCF80E090E00F90DF91CF9108954E
:10106000CF93DF9300D0CDB7DEB78A83198285C0D6
:101070008981282F30E049E8429FC001439F900DAD
:1010800011248D5A9D4FFC018081882309F072C084
:101090008981282F30E049E8429FC001439F900D8D
:1010A00011248D5A9D4F49E850E060E070E00E94A5
:1010B000CA458A81882379F08981282F30E049E860
:1010C000429FC001439F900D11248C5A9D4F27E0F1
:1010D000FC0120830EC08981282F30E049E8429F1F
:1010E000C001439F900D11248C5A9D4F23E0FC01B9
:1010F00020838981482F50E08981282F30E069E8DA
:10110000629FC001639F900D112402969C012D5A8D
:101110003D4F8981682F70E0E9E8E69FC001E79FB5
:10112000900D11248C5A9D4FFC018081882F90E0F6
:10113000280F391F69E8649FC001659F900D112435
:101140008C529D4FFC01318320838091CC10909173
:10115000CD1001969093CD108093CC108981282FCB
:1011600030E049E8429FC001439F900D11248D5A01
:101170009D4F09C089818F5F89838981843108F4FB
:1011800077CF80E090E00F900F90DF91CF9108959E
:10119000CF93DF9300D0CDB7DEB79A83898389815F
:1011A0009A81FC0110828091CC109091CD10019712
:1011B0009093CD108093CC1000000F900F90DF9192
:1011C000CF910895CF93DF9300D0CDB7DEB79A8348
:1011D000898389819A81892B29F483E592E09A8316
:1011E000898316C089819A8187579F4F9A83898303
:1011F0000FC089819A81FC018081882319F089813F
:101200009A810DC089819A8187579F4F9A838983DC
:1012100089819A8187509D4060F380E090E00F9033
:101220000F90DF91CF910895CF93DF9300D0CDB78A
:10123000DEB79A83898389819A818D579F4FFC01FC
:1012400010828091AA108F5F8093AA102091AA101B
:1012500089819A81FC0124872091A6103091A710E2
:1012600089819A81FC013687258700000F900F90B5
:10127000DF91CF910895CF93DF9300D0CDB7DEB744
:101280009A83898389819A81FC01418189819A812C
:101290008F579F4FFC01808191819C0189819A81A8
:1012A0000296B901681B790BCB01742F781B872F2D
:1012B0000F900F90DF91CF910895CF93DF931F92FE
:1012C000CDB7DEB7198211C08981282F30E0C9015E
:1012D000880F991F880F991F820F931F855F924F68
:1012E000FC01108289818F5F89838981823360F359
:1012F00084E690E0A0E0B0E08093080E9093090EA1
:10130000A0930A0EB0930B0E10920C0E8BE29BE092
:1013100090930E0E80930D0E6CE47CE080E00E94B2
:101320004E0300000F90DF91CF910895CF93DF938C
:1013300000D000D0CDB7DEB79C838B838B819C819E
:10134000FC0180819181FC0180818C3041F48B8192
:101350009C81FC018281873008F052C0E0C08B8103
:101360009C81FC0180819181FC0180818C3C41F455
:101370008B819C81FC018281833008F041C0CFC009
:101380008B819C81FC01808191810196FC0180818F
:101390008838D1F48B819C81FC0180819181FC0192
:1013A0008081813651F08B819C81FC01808191810B
:1013B000FC018081813409F0A7C08B819C81FC01F4
:1013C00082818031E8F4A0C08B819C81FC01808106
:1013D00091810196FC018081803809F097C08B8152
:1013E0009C81FC0180819181FC018081882309F02E
:1013F0008FC08B819C81FC0182818B3008F488C076
:101400008B819C81FC01808191810196FC0180810E
:10141000883851F08B819C81FC01808191810196FB
:10142000FC0180818038D9F40E94BE079A838983A9
:1014300089819A81892B09F46DC08B819C81FC0183
:10144000808191810196FC018081883811F420E22D
:1014500001C025E289819A81FC01208327C08B810C
:101460009C81FC0180819181FC0180818C3081F420
:1014700081E00E9430089A83898389819A81892B2F
:1014800009F44AC089819A8126E2FC0120830EC0BA
:1014900080E00E9430089A83898389819A81892B10
:1014A000E9F189819A8127E2FC0120838B819C816B
:1014B000FC01228189819A81FC0121838B819C819D
:1014C000FC01238189819A818D579F4FFC012083E4
:1014D0008B819C81FC01248189819A818C579F4F4B
:1014E000FC0120838B819C81FC018281482F50E08C
:1014F0008B819C81FC012081318189819A810296B6
:10150000B9010E94C1450BC0000009C0000007C01E
:10151000000005C0000003C0000001C000000F90E3
:101520000F900F900F90DF91CF910895CF93DF939D
:1015300000D000D000D0CDB7DEB79E838D830E944F
:10154000BE079A83898389819A81892B09F46BC0AC
:101550008D819E81FC01818120E1280F8D819E81FA
:10156000FC0121838D819E818F579F4FFC018081DB
:1015700091819C01205F3F4F8D819E818F579F4FAE
:10158000FC013183208389819A810E941409898119
:101590009A81FC01818123E0280F89819A81FC01D5
:1015A000218389819A8189579F4FFC011182108282
:1015B0008D819E81FC01838581FB222720F9898111
:1015C0009A812170220FFC0133853D7F232BFC0182
:1015D00023878D819E81FC012585368589819A81AD
:1015E000FC01308B278789819A818F579F4FFC019F
:1015F000808191819C838B838B819C81FC011082F3
:101600002091010E8B819C81FC0122838D819E8122
:10161000FC0124858B819C81FC01218389819A8135
:101620000E94061101C0000026960FB6F894DEBF96
:101630000FBECDBFDF91CF910895CF93DF931F925F
:10164000CDB7DEB7898389818093010E00000F90AA
:10165000DF91CF910895CF93DF9300D000D0CDB725
:10166000DEB79C838B8319821A8230C08A81282F2F
:1016700030E0C901880F991F880F991F820F931FAF
:10168000855F924FFC0180818823E9F08A81282FB1
:1016900030E0C901880F991F880F991F820F931F8F
:1016A000855F924FFC0180814FEF480FC901880F81
:1016B000991F880F991F820F931F855F924FFC011E
:1016C000408381E089838A818F5F8A838A81823324
:1016D00068F28981882321F08B819C810E946D189A
:1016E00000000F900F900F900F90DF91CF91089511
:1016F000CF93DF93CDB7DEB729970FB6F894DEBF4F
:101700000FBECDBF998788871A8219821B8290C02D
:101710008B81282F30E0C901880F991F880F991FEE
:10172000820F931F895F924F9D838C838C819D8153
:10173000FC018481882309F46EC088859985FC01A9
:10174000238534858C819D81FC01808191812817BE
:10175000390709F060C08C819D81FC012281888558
:101760009985FC018285F22FF81B8F2F8E838E8145
:10177000883058F58C819D81FC018381882F90E011
:101780002E81222F30E002C0959587952A95E2F7A9
:1017900081709927892B11F081E075C08C819D8122
:1017A000FC018381482F8E81282F30E081E090E07A
:1017B00002C0880F991F2A95E2F7842B282F8C816D
:1017C0009D81FC01238380E05EC08E8181958F83A3
:1017D00088859985FC0122858C819D81FC0122836D
:1017E0008C819D81FC018381882F90E02F81222FA5
:1017F00030E002C0880F991F2A95E2F78160282FF8
:101800008C819D81FC0123838C819D8125E1FC01DC
:10181000248380E038C08C819D81FC0184818823F1
:1018200021F48C819D819A8389838B818F5F8B8347
:101830008B81823308F46CCF89819A81892B11F4D2
:1018400081E021C088859985FC01238534858981C3
:101850009A81FC013183208388859985FC0122854A
:1018600089819A81FC01228389819A8121E0FC018E
:10187000238389819A8125E1FC01248382E09EE013
:101880000E946D1880E029960FB6F894DEBF0FBE57
:10189000CDBFDF91CF910895CF93DF9300D0CDB727
:1018A000DEB79A83898389819A81FC0182858823A6
:1018B00011F480E011C089819A81FC0180859185B5
:1018C000FC018081882F90E0892B29F489819A81FD
:1018D0000E942C1201C080E00F900F90DF91CF91F9
:1018E0000895CF93DF9300D000D0CDB7DEB79C83AF
:1018F0008B838B819C8102969A8389838B819C81C7
:1019000024E2FC01208389819A81FC018185827017
:10191000882309F083C089819A81FC0181858870C0
:10192000882309F07DC089819A81FC01838194819B
:101930000196D1F42091A6103091A71089819A8147
:10194000FC01858596852817390741F089819A81A0
:10195000FC0185859685019609F064C08B819C8188
:1019600022E2FC0120835EC089819A81FC01858589
:101970009685019641F489819A81FC018185817067
:10198000882309F051C02091A6103091A7108981B9
:101990009A81FC01838594852817390709F446C08C
:1019A00089819A810E94780B882309F041C089813E
:1019B0009A81FC01858196810196B9F42091A61047
:1019C0003091A71089819A81FC0185859685281719
:1019D000390759F089819A81FC01818584708823B7
:1019E00021F48B819C810E949D112091A610309141
:1019F000A71089819A81FC0185859685281739076A
:101A000039F089819A81FC0185859685019689F452
:101A10008B819C8122E2FC0120830BC0000009C065
:101A2000000007C0000005C0000003C0000001C0A6
:101A300000000F900F900F900F90DF91CF910895BD
:101A4000CF93DF93CDB7DEB761970FB6F894DEBFC3
:101A50000FBECDBF998B888B8889998902969A830E
:101A6000898389819A81FC01878582958F70882F6F
:101A700090E00396880F991F8A559F4EFC01808144
:101A80009181892B11F480E0D9C089819A81FC0170
:101A9000838594859C838B8389819A81FC018585CC
:101AA00096859E838D8389819A81FC0187858F70BD
:101AB0008F8389819A81FC01878582958F708887C1
:101AC000888999898F579F4FFC01808191819C87DC
:101AD0008B87888999890E943B098D878889998994
:101AE0008D579F4FFC0180818E87888999898C57FB
:101AF0009F4FFC0180818F8789819A81FC018185BC
:101B0000982F917081E0992309F480E0882F90E06C
:101B10009A87898729853A8589819A81FC018185FF
:101B2000882F90E082709927822B932B9A87898740
:101B300029853A8589819A81FC0181858470882371
:101B400019F080E290E002C080E090E0822B932BBD
:101B50009A87898729853A8589819A81FC018185BF
:101B60008870882319F080E490E002C080E090E063
:101B7000822B932B9A87898729853A8589819A8137
:101B8000FC0181858071882319F080E890E002C013
:101B900080E090E0822B932B9A87898729853A856C
:101BA00089819A81FC0185859685019619F484E0E6
:101BB00090E002C080E090E0822B932B9A87898787
:101BC00029853A8589819A81FC01438554858981DB
:101BD0009A81FC01878190854817590719F488E09C
:101BE00090E002C080E090E0822B932B9A87898757
:101BF00029853A8589819A81FC01838194810196A6
:101C000019F480E190E002C080E090E0822B932BF9
:101C10009A87898789819A81FC01878582958F704F
:101C2000882F90E00396880F991F8A559F4EFC01DC
:101C300020813181CE010396F901099561960FB695
:101C4000F894DEBF0FBECDBFDF91CF910895CF9343
:101C5000DF93CDB7DEB761970FB6F894DEBF0FBE46
:101C6000CDBF998B888B8889998902969A838983BD
:101C70008889998924E2FC0120838091AC1090919D
:101C8000AD10892B11F480E044C088899989FC014A
:101C9000878190859C838B8388899989FC018781C2
:101CA00090859E838D831F821886888999898F5796
:101CB0009F4FFC01808191819C878B8788899989BE
:101CC0000E943B098D87888999898D579F4FFC0118
:101CD00080818E87888999898C579F4FFC018081EC
:101CE0008F8780E890E09A87898789819A81FC01B3
:101CF000878582958F70882F90E00396880F991FB3
:101D00008A559F4EFC0120813181CE010396F90155
:101D1000099561960FB6F894DEBF0FBECDBFDF9177
:101D2000CF910895CF93DF93CDB7DEB72F970FB63E
:101D3000F894DEBF0FBECDBF9F878E878E859F85AF
:101D400024E2FC0120838091AE109091AF10892B8A
:101D500011F480E01FC08E859F8502969A8789873F
:101D60008E859F858D579F4FFC0180818C878E8546
:101D70009F858C579F4FFC0180818D8780E091E08B
:101D800098878F832091AE103091AF10CE010196CD
:101D9000F90109952F960FB6F894DEBF0FBECDBF9F
:101DA000DF91CF910895CF93DF93CDB7DEB72F9713
:101DB0000FB6F894DEBF0FBECDBF9F878E878E858E
:101DC0009F8524E2FC0120838091B2109091B31092
:101DD000892B11F480E024C08E859F8502969A8716
:101DE00089878E859F850E943B098B878E859F857D
:101DF0008D579F4FFC0180818C878E859F858C57E6
:101E00009F4FFC0180818D8780E092E098878F83CF
:101E10002091B2103091B310CE010196F9010995CD
:101E20002F960FB6F894DEBF0FBECDBFDF91CF91D6
:101E30000895CF93DF9300D01F92CDB7DEB79B8379
:101E40008A831092010E8A819B810E94200D8983D2
:101E50008A819B81FC0183858170882309F4198222
:101E60008A819B81FC01878190850196A9F420914C
:101E7000A6103091A7108A819B81FC0187859089EB
:101E80002817390749F48A819B81FC018385887072
:101E9000882311F481E089838A819B81FC018581FB
:101EA0009681019609F419828091A6109091A7104D
:101EB000019609F419828981882321F08A819B8106
:101EC0000E94960A8A819B8124E2FC012083000003
:101ED0000F900F900F90DF91CF910895CF93DF93E4
:101EE00000D0CDB7DEB71A82198239C089819A81B4
:101EF000FC018081882F90E084329105E1F08532E9
:101F0000910534F48032910561F0829779F027C011
:101F100086329105D1F08632910594F08797D1F001
:101F20001EC089819A810E94710C19C089819A8191
:101F30000E94190F14C089819A810E94C8080FC09D
:101F400089819A810E94270E0AC089819A810E9404
:101F5000920E05C089819A810E94D30E000089816A
:101F60009A810E94E2089A83898389819A81892BC8
:101F700009F0BCCF00000F900F90DF91CF91089532
:101F8000CF93DF93CDB7DEB71092100E10920F0EE5
:101F900082E390E0A0E0B0E08093170E9093180EDB
:101FA000A093190EB0931A0E10921B0E8BE792E1BC
:101FB00090931D0E80931C0E8AE090E0A0E0B0E0AC
:101FC0008093240E9093250EA093260EB093270E97
:101FD0001092280E85EE92E190932A0E8093290E9E
:101FE0000000DF91CF910895CF93DF9300D000D010
:101FF000CDB7DEB79C838B838B819C8102969A83BD
:1020000089838B819C8123E1FC0120838B819C81CE
:102010008D579F4FFC0110828B819C818C579F4F65
:10202000FC011182108289819A8120E030E8FC0154
:10203000318320838091AB108F5F8093AB10209110
:10204000AB1089819A81FC0122832091A8103091E4
:10205000A91089819A81FC01348323832091A610E1
:102060003091A71089819A81FC0136832583000075
:102070000F900F900F900F90DF91CF910895CF9315
:10208000DF9300D000D0CDB7DEB79C838B838B81EC
:102090009C8102969A8389838B819C8123E1FC0138
:1020A00020838B819C818D579F4FFC0110828B81F7
:1020B0009C818C579F4FFC011182108289819A81EB
:1020C0002CE0FC0120838091AB108F5F8093AB10DC
:1020D0002091AB1089819A81FC01218389819A81A9
:1020E000FC012281287FFC01228389819A81FC01E5
:1020F0002281277EFC01228389819A81FC01228131
:102100002F7DFC01228389819A81FC0122812F7B12
:10211000FC01228300000F900F900F900F90DF9131
:10212000CF910895CF93DF9300D000D000D0CDB7EA
:10213000DEB79C838B837E836D838B819C8102962B
:102140009A8389838B819C8123E1FC0120838B818D
:102150009C818D579F4FFC0110828B819C818C57F5
:102160009F4FFC01118210828D819E81992334F44E
:1021700089819A812CECFC01208317C08D819E817E
:1021800088279072892B31F089819A812CE4FC0197
:1021900020830BC08D819E8188279074892B29F024
:1021A00089819A812CE8FC0120838091AB108F5F9C
:1021B0008093AB102091AB1089819A81FC0121831F
:1021C00089819A81FC012281287FFC0122838981F7
:1021D0009A81FC012281277EFC01228389819A81D8
:1021E000FC0122812F7DFC01228389819A81FC01DF
:1021F00022812F7BFC012283000026960FB6F894E3
:10220000DEBF0FBECDBFDF91CF910895CF93DF9397
:1022100000D000D0CDB7DEB79C838B838B819C81AF
:1022200002969A8389838B819C818A579F4FFC01F8
:102230008081882F90E082709927892B31F08B81E3
:102240009C8122E1FC01208305C08B819C8122E1DD
:10225000FC0120838B819C818D579F4FFC01108254
:102260008B819C818A579F4FFC018081882F90E051
:1022700081709927892B41F089819A812FEF3FEF57
:10228000FC013483238309C02091A8103091A91048
:1022900089819A81FC013483238389819A81FC019D
:1022A0002585368589819A81FC0136832583209195
:1022B000A6103091A71089819A81FC01308727836D
:1022C0008091AB108F5F8093AB102091AB10898110
:1022D0009A81FC01228389819A81FC018581968102
:1022E0000196A9F489819A8121E438E8FC013183BF
:1022F00020830E94CF448770992701969C018B818F
:102300009C818C579F4FFC01318320830EC08981B3
:102310009A8121E438E8FC01318320838B819C8100
:102320008C579F4FFC011182108200000F900F907C
:102330000F900F90DF91CF910895CF93DF9300D04E
:1023400000D0CDB7DEB79C838B830E94BE079A83F3
:10235000898389819A81892B09F476C089819A8140
:102360008F579F4FFC01808191819C01205F3F4FDF
:1023700089819A818F579F4FFC0131832083898106
:102380009A8122E1FC0120838B819C81FC012181C7
:1023900089819A81FC01218389819A818D579F4F80
:1023A000FC0110820E94CF448770992701969C01FE
:1023B00089819A818C579F4FFC01318320838981C9
:1023C0009A8189579F4FFC01118210828B819C81D9
:1023D000FC018181482F50E08B819C819C012E5F04
:1023E0003F4F89819A810296B9010E94C145898136
:1023F0009A8121E438E8FC013383228389819A8120
:102400002FEF3FEFFC01308727838B819C81FC01FC
:102410002581368189819A81FC013683258320912B
:10242000A6103091A71089819A81FC0132872187FB
:102430008091AB108F5F8093AB102091AB1089819E
:102440009A81FC01248301C000000F900F900F902F
:102450000F90DF91CF910895CF93DF9300D000D0FC
:1024600000D0CDB7DEB79E838D838D819E81FC0128
:10247000808591859C838B831A8219828D819E81B0
:10248000FC018285833019F180E02CC089819A811A
:10249000FC0180818631D9F489819A81FC012485EF
:1024A0008B819C81FC018181281789F489819A8123
:1024B00027E1FC0120838B819C81FC0122818981A1
:1024C0009A818A579F4FFC01208381E00BC089814C
:1024D0009A810E94E2089A83898389819A81892B53
:1024E000A9F680E026960FB6F894DEBF0FBECDBFEA
:1024F000DF91CF910895CF93DF9300D000D01F924A
:10250000CDB7DEB79D838C831A8219821B8227C0C8
:1025100089819A81FC018081863109F581E08B8374
:1025200089819A818C579F4FFC01808191819C0108
:102530002150310989819A818C579F4FFC01318349
:10254000208389819A818C579F4FFC0180819181E2
:10255000892B29F489819A8160E10E94C9128981BD
:102560009A810E94E2089A83898389819A81892BC2
:1025700079F68B81882321F08C819D810E946D18D2
:1025800000000F900F900F900F900F90DF91CF9160
:102590000895CF93DF9300D01F92CDB7DEB79A8313
:1025A00089836B8389819A8127E1FC01208389815A
:1025B0009A818D579F4F2B81FC01208300000F9043
:1025C0000F900F90DF91CF910895CF93DF9300D0BC
:1025D00000D01F92CDB7DEB79D838C831A821982FB
:1025E0001B8227C089819A81FC018081813109F594
:1025F00081E08B8389819A818C579F4FFC01808178
:1026000091819C012150310989819A818C579F4F7A
:10261000FC013183208389819A818C579F4FFC0173
:1026200080819181892B29F489819A8123E1FC01A0
:10263000208389819A810E94E2089A838983898113
:102640009A81892B79F68B81882321F08C819D8159
:102650000E946D1800000F900F900F900F900F9038
:10266000DF91CF910895CF93DF931F92CDB7DEB75F
:1026700089838981882F90E08130910539F08230FB
:10268000910531F0892B31F480E005C080E203C070
:1026900081E201C081E00F90DF91CF9108950F9307
:1026A0001F93CF93DF931F92CDB7DEB7898300913D
:1026B0000F0E1091100E89810E943313282FC8012C
:1026C0008D579F4FFC01208380910F0E9091100E2B
:1026D00025E1FC0120831092100E10920F0E8091C4
:1026E000CC109091CD1001979093CD108093CC1089
:1026F00000000F90DF91CF911F910F910895CF931C
:10270000DF9300D0CDB7DEB71A821982B3C08981BA
:102710009A81FC018081882F90E08431910509F431
:10272000A9C08531910534F48231910579F0439740
:1027300031F19FC08631910509F49CC08631910525
:102740000CF443C0479709F47AC093C089819A81F9
:102750008C579F4FFC0180819181892B51F0898199
:102760009A8121E1FC0120838EE19EE00E946D1898
:1027700081C089819A8123E1FC0120837BC0809103
:102780000F0E9091100E892B09F074C089819A81E7
:102790009093100E80930F0E89819A8124E1FC01A1
:1027A000208389819A81FC01218189819A81029605
:1027B000622F0E942E168091CC109091CD10019620
:1027C0009093CD108093CC1055C089819A818D57FC
:1027D0009F4FFC018081882361F589819A81FC01EA
:1027E000258536858091A6109091A7102817390766
:1027F000D1F489819A81FC0183858170882399F0C5
:1028000089819A8126E1FC01208389819A818C57F4
:102810009F4F25E130E0FC013183208381E19EE080
:102820000E946D180BC089819A8127E1FC012083E9
:1028300021C089819A8127E1FC0120831BC0898105
:102840009A8189579F4FFC0180819181892B29F4BE
:1028500089819A810E94C8080DC089819A8189570F
:102860009F4FFC012081318189819A81F90109956D
:1028700001C0000089819A810E94E2089A838983BD
:1028800089819A81892B09F042CF00000F900F9027
:10289000DF91CF9108956150710981099109D9F7AC
:1028A00008950F931F93CF93DF93CDB7DEB789E3DE
:1028B00091E0FC0120812160FC0120831092AC0E8C
:1028C00081E080932B0E88E00E94C2168CE491E098
:1028D000FC0120812068FC0120830DE611E00E94AC
:1028E0006F16F80180830000DF91CF911F910F9147
:1028F0000895CF93DF931F92CDB7DEB78983898187
:102900008823B1F08CE691E0FC0120812F70FC015E
:1029100020838CE691E0FC0120812E60FC01208365
:102920008EE691E0FC0120812061FC01208317C02C
:102930008CE691E0FC0120812F702063FC01208354
:102940008CE691E0FC012081217F2860FC0120833E
:102950008EE691E0FC0120812F7EFC0120830000A7
:102960000F90DF91CF910895CF93DF93CDB7DEB76E
:1029700029970FB6F894DEBF0FBECDBF898728E038
:10298000CE010196FC01322F11923A95E9F7898523
:10299000882349F180E090E00E94CB1580E090E030
:1029A0000E94A715CE0101960E94E91687E591E0E5
:1029B000FC0120812260FC01208387E591E0FC017D
:1029C00020812061FC01208387E591E0FC012081CA
:1029D0002F7DFC0120838EE691E0FC0120812061A7
:1029E000FC0120830BC087E591E0FC0110828EE69C
:1029F00091E0FC0120812F7EFC01208300002996BC
:102A00000FB6F894DEBF0FBECDBFDF91CF91089512
:102A1000CF93DF931F92CDB7DEB7898389818093EF
:102A2000AC0E0E94AB1600000F90DF91CF9108957D
:102A3000CF93DF931F92CDB7DEB7898388E491E00F
:102A400029812F712F71FC013081307E232BFC01F5
:102A5000208300000F90DF91CF910895CF93DF93F3
:102A60001F92CDB7DEB789838981882F90E08230AD
:102A7000910519F1833091051CF4892B41F062C056
:102A80008031910589F1419709F445C05BC08CE420
:102A900091E0FC0120812C7FFC01208387E591E0FF
:102AA000FC0120812B7FFC01208385E591E0FC0166
:102AB0002081207FFC01208345C08CE491E0FC0153
:102AC00020812C7F2160FC01208387E591E0FC01BF
:102AD00020812460FC01208385E591E0FC012081B8
:102AE000207FFC0120832EC08CE491E0FC0120813A
:102AF0002C7F2260FC01208387E591E0FC0120818E
:102B00002460FC01208385E591E0FC012081207F89
:102B1000FC01208317C08CE491E0FC01208123603C
:102B2000FC01208387E591E0FC0120812460FC0109
:102B3000208385E591E0FC012081207F2160FC015C
:102B40002083000000000F90DF91CF910895CF9374
:102B5000DF9300D000D0CDB7DEB79C838B83CE014E
:102B600003969A83898382E691E029813A81F9016B
:102B70002081FC01208383E691E029813A81F901DB
:102B80002181FC01208300000F900F900F900F9087
:102B9000DF91CF910895CF93DF9300D000D0CDB7D0
:102BA000DEB79C838B83CE0103969A83898380E66C
:102BB00091E029813A81F9012081FC01208381E69D
:102BC00091E029813A81F9012181FC0120830000F3
:102BD0000F900F900F900F90DF91CF910895CF93AA
:102BE000DF931F92CDB7DEB7898385E491E0298119
:102BF0002F702F70FC013081307F232BFC0120834C
:102C000000000F90DF91CF910895CF93DF93CDB760
:102C1000DEB788E00E94C21689E391E0FC012081C2
:102C20002260FC01208382E080932B0E0000DF9164
:102C3000CF910895CF93DF93CDB7DEB789E391E0CD
:102C4000FC0120812D7FFC0120830E94AB1681E0D6
:102C500080932B0E0000DF91CF910895CF93DF93E7
:102C600000D000D0CDB7DEB79B838A836C8389E127
:102C70000E94C2168FE491E02FEFFC01208380E8D0
:102C800091E02C812E5FFC012083198214C0898180
:102C9000882F90E08F579E4FAC018981882F90E05C
:102CA0002A813B81820F931FFC018081FA0180837E
:102CB00089818F5F898399818C81981740F383E0A4
:102CC00080932B0E82E491E022E0FC01208300003F
:102CD0000F900F900F900F90DF91CF910895CF93A9
:102CE000DF9300D01F92CDB7DEB71A82198286E03B
:102CF0000E94C2161B8222C062E070E080E090E079
:102D00000E944B1486E491E0FC01808182958695B7
:102D100087708370882F90E02B81222F30E002C0D3
:102D2000880F991F2A95E2F79C0189819A81822B4D
:102D3000932B9A8389838B818E5F8B838B818031E8
:102D4000D8F20E94AB1689819A810F900F900F9054
:102D5000DF91CF910895CF93DF93CDB7DEB788E0B1
:102D60000E94C2168FE491E02FEFFC012083809136
:102D7000AC0E882319F086E10E94C2160000DF9194
:102D8000CF910895CF93DF931F92CDB7DEB789839C
:102D900082E491E023E0FC012083000081E491E0E3
:102DA000FC0180818F718830C9F782E491E029812C
:102DB000FC012083000081E491E0FC0180818F719F
:102DC000982F89819817B9F700000F90DF91CF9164
:102DD0000895CF93DF9300D000D0CDB7DEB79C83AA
:102DE0008B838B819C819A83898324E631E089815E
:102DF0009A81AC014F5F5F4F5A834983FC01808108
:102E0000F901808325E631E089819A81AC014F5F29
:102E10005F4F5A834983FC018081F901808326E654
:102E200031E089819A81AC014F5F5F4F5A834983BA
:102E3000FC018081F901808327E631E089819A8154
:102E4000AC014F5F5F4F5A834983FC018081F901D8
:102E5000808328E631E089819A81AC014F5F5F4F22
:102E60005A834983FC018081F901808329E631E09E
:102E700089819A81AC014F5F5F4F5A834983FC017E
:102E80008081F90180832AE631E089819A81AC0151
:102E90004F5F5F4F5A834983FC018081F901808332
:102EA0008BE691E029813A81F9012081FC012083A0
:102EB00000000F900F900F900F90DF91CF91089529
:102EC000CF93DF93CDB7DEB728970FB6F894DEBF68
:102ED0000FBECDBF80912B0E823009F49EC08FE4CF
:102EE00091E0FC01808183FB882780F9882309F425
:102EF00059C08BE791E0FC0180818B83198211C05E
:102F00008981882F90E02981222F30E020583E4F80
:102F1000F9012081845D914FFC01208389818F5FBD
:102F200089838981282F30E08B81882F90E001965A
:102F3000281739072CF38CE29EE09D838C838B81CC
:102F400082508E838B81882F90E0845D914FFC01AD
:102F500080818F8387E491E0FC0180818A55888796
:102F6000CE0104960E949609000081E491E0FC01E4
:102F700080818F718631C9F78FE491E0FC01208157
:102F80002860FC0120838CE491E0FC0120812F77F4
:102F9000FC0120838CE491E0FC0120812068FC018D
:102FA00020833CC08FE491E0FC01808186FB882770
:102FB00080F9882399F181E491E0FC0180818F718F
:102FC000893119F582E491E0FC0180818295869532
:102FD00087708A838A81882311F41A820EC08A81BD
:102FE000833019F481E08A8308C08A81853019F41E
:102FF00082E08A8302C083E08A830E94AB1681E06C
:1030000080932B0E8A810E944F138FE491E0FC0184
:1030100020812064FC01208301C0000028960FB6A7
:10302000F894DEBF0FBECDBFDF91CF910895CF934F
:10303000DF93CDB7DEB70E9455180E9406270E9485
:1030400051140E94EF020000DF91CF910895CF93B9
:10305000DF93CDB7DEB70E9460170E94EB030E949A
:1030600027190000DF91CF910895CF93DF931F922E
:10307000CDB7DEB78FE590E0FC0180818983F894BD
:1030800089810F90DF91CF910895CF93DF931F92A5
:10309000CDB7DEB789838FE590E02981FC012083DD
:1030A00000000F90DF91CF910895CF93DF93CDB7BC
:1030B000DEB71092CE108FEB9AE10E9494400E94EE
:1030C000464080E197E20E94DC3F1092AE0E1092E3
:1030D000AD0E0000DF91CF910895CF93DF9300D024
:1030E000CDB7DEB79A83898389819A810E94FC18C3
:1030F000982F81E08927882321F089819A810E9475
:10310000EA1900000F900F90DF91CF910895CF93AF
:10311000DF9300D000D000D0CDB7DEB79E838D8383
:103120001A8219828091AD0E9091AE0E9C838B8392
:1031300052C02B813C818D819E812817390709F06F
:103140003FC089819A81892B59F08B819C81FC0138
:103150002081318189819A81FC013183208309C0DA
:103160008B819C81FC01808191819093AE0E809334
:10317000AD0E8B819C81FC0180819181892B89F12D
:103180008B819C81FC01608171818B819C81FC0120
:1031900080819181FC0122813381448155818D811F
:1031A0009E81FC0182819381A481B581820F931F4E
:1031B000A41FB51FFB0182839383A483B58311C031
:1031C0008B819C819A8389838B819C81FC01808186
:1031D00091819C838B838B819C81892B09F0A9CF62
:1031E00001C00000000026960FB6F894DEBF0FBEA7
:1031F000CDBFDF91CF910895CF93DF9300D000D062
:10320000CDB7DEB79C838B838091AD0E9091AE0ECF
:103210009A83898310C029813A818B819C812817E8
:10322000390711F481E00CC089819A81FC01808109
:1032300091819A83898389819A81892B61F780E0C2
:103240000F900F900F900F90DF91CF910895EF9214
:10325000FF920F931F93CF93DF93CDB7DEB72897DD
:103260000FB6F894DEBF0FBECDBF8091CE1088237D
:1032700009F4A2C00E9435188D838091CE108E83F0
:103280001092CE108D810E9445188E81882F90E07B
:10329000A0E0B0E0880F991FAA1FBB1F9C01AD01E1
:1032A000220F331F441F551F220F331F441F551F6A
:1032B000820F931FA41FB51F89839A83AB83BC839E
:1032C0003DC08091AD0E9091AE0E98878F83809116
:1032D000AD0E9091AE0EFC0182819381A481B581E7
:1032E00029813A814B815C8179018A01E81AF90AC6
:1032F0000A0B1B0BD801C70189839A83AB83BC835C
:103300008091AD0E9091AE0EFC01808191819093E1
:10331000AE0E8093AD0E8F819885FC018285813041
:1033200021F48F8198850E94EA198F819885FC018C
:10333000238534858F819885F90109958091AD0E9B
:103340009091AE0E892B99F08091AD0E9091AE0EBA
:10335000FC01228133814481558189819A81AB812D
:10336000BC8182179307A407B50708F0AACF809104
:10337000AD0E9091AE0E892B01F16091AD0E709162
:10338000AE0E8091AD0E9091AE0EFC012281338184
:103390004481558189819A81AB81BC8179018A01FF
:1033A000E81AF90A0A0B1B0BD801C701FB0182833B
:1033B0009383A483B58301C0000028960FB6F894C8
:1033C000DEBF0FBECDBFDF91CF911F910F91FF9058
:1033D000EF900895EF92FF920F931F93CF93DF9397
:1033E000CDB7DEB72A970FB6F894DEBF0FBECDBFBC
:1033F0009A8789878091AD0E9091AE0E892B09F442
:1034000097C01A82198289859A85FC0186819781E5
:10341000A085B1858B839C83AD83BE838091AD0EE7
:103420009091AE0E98878F834DC08F819885FC0157
:1034300022813381448155818B819C81AD81BE8104
:1034400082179307A407B507D8F48F819885FC01EC
:1034500022813381448155818B819C81AD81BE81E4
:1034600079018A01E81AF90A0A0B1B0BD801C70176
:103470002F813885F90182839383A483B58327C084
:103480008F819885FC0182819381A481B5812B81F4
:103490003C814D815E8179018A01E81AF90A0A0BA3
:1034A0001B0BD801C7018B839C83AD83BE838F81A7
:1034B00098859A8389838F819885FC018081918189
:1034C00098878F838F819885892B09F0AECF2985C6
:1034D0003A858B819C81AD81BE81F9018283938382
:1034E000A483B58389819A81892B91F089819A81FE
:1034F000FC012081318189859A85FC0131832083FB
:1035000089819A8129853A85FC013183208329C0EC
:103510002091AD0E3091AE0E89859A85FC013183E4
:10352000208389859A859093AE0E8093AD0E19C045
:1035300089859A85FC011182108289859A85FC0112
:1035400086819781A085B18529853A85F901828395
:103550009383A483B58389859A859093AE0E8093D7
:10356000AD0E00002A960FB6F894DEBF0FBECDBF99
:10357000DF91CF911F910F91FF90EF900895CF931E
:10358000DF93CDB7DEB78091CE108F5F8093CE10E2
:1035900080E197E20E94DC3F0000DF91CF91089527
:1035A000CF93DF931F92CDB7DEB78FE590E0FC019C
:1035B00080818983F89489810F90DF91CF9108955C
:1035C000CF93DF931F92CDB7DEB789838FE590E06D
:1035D0002981FC01208300000F90DF91CF91089595
:1035E000CF93DF93CDB7DEB780E094E2A4EFB0E0F5
:1035F000BC01CD01DF91CF910895CF93DF93CDB77B
:10360000DEB70E94F01ADC01CB01BC01CD01DF91D5
:10361000CF910895CF93DF9300D0CDB7DEB79A83D3
:10362000898389819A81892B21F480E090E0DC01F3
:10363000A3C089819A818837910529F40E94FD1AD7
:10364000DC01CB0199C089819A81803C910529F4E4
:103650000E94FD1ADC01CB018FC089819A818C34D4
:10366000910529F40E94FD1ADC01CB0185C08981F6
:103670009A818038910529F40E94FD1ADC01CB0162
:103680007BC089819A818434910529F40E94FD1AB6
:10369000DC01CB0171C089819A81803B910529F4BD
:1036A0000E94FD1ADC01CB0167C089819A81803CB0
:1036B000910529F40E94FD1ADC01CB015DC08981CE
:1036C0009A81883B910529F40E94FD1ADC01CB0107
:1036D00053C089819A818039910529F40E94FD1A8D
:1036E000DC01CB0149C089819A81803A910529F496
:1036F0000E94FD1ADC01CB013FC089819A81803292
:10370000914029F40E94FD1ADC01CB0135C089816A
:103710009A818334914029F40E94FD1ADC01CB0187
:103720002BC089819A818533914029F40E94FD1A2A
:10373000DC01CB0121C089819A818433914029F435
:103740000E94FD1ADC01CB0117C089819A81833365
:10375000914029F40E94FD1ADC01CB010DC0898142
:103760009A818233914029F40E94FD1ADC01CB0139
:1037700003C080E090E0DC01BC01CD010F900F9010
:10378000DF91CF910895CF93DF9300D01F92CDB7F3
:10379000DEB79A8389836B8389819A81803891050A
:1037A00059F481E890E021E830E0F90130812B8183
:1037B000232BFC0120832FC089819A8180399105B8
:1037C00059F481E990E021E930E0F90130812B8161
:1037D000232BFC0120831FC089819A81803A9105A7
:1037E00059F481EA90E021EA30E0F90130812B813F
:1037F000232BFC0120830FC089819A818032914064
:1038000051F481E291E021E231E0F90130812B8134
:10381000232BFC01208300000F900F900F90DF916D
:10382000CF910895CF93DF9300D0CDB7DEB79A83C1
:10383000898389819A818038910551F48FE690E0DF
:103840002FE630E0F90120812160FC0120832CC0AB
:1038500089819A818039910551F481E790E021E7CF
:1038600030E0F90120812160FC0120831DC08981A5
:103870009A81803A910551F482E790E022E730E0A6
:10388000F90120812160FC0120830EC089819A8189
:103890008032914049F483E790E023E730E0F9017A
:1038A00020812160FC01208300000F900F90DF91A8
:1038B000CF910895CF93DF9300D0CDB7DEB79A8331
:1038C000898389819A818038910551F48FE690E04F
:1038D0002FE630E0F90120812260FC0120832CC01A
:1038E00089819A818039910551F481E790E021E73F
:1038F00030E0F90120812260FC0120831DC0898114
:103900009A81803A910551F482E790E022E730E015
:10391000F90120812260FC0120830EC089819A81F7
:103920008032914049F483E790E023E730E0F901E9
:1039300020812260FC01208300000F900F90DF9116
:10394000CF910895CF93DF9300D0CDB7DEB79A83A0
:10395000898389819A818038910551F48FE690E0BE
:103960002FE630E0F90120812D7FFC0120832CC05F
:1039700089819A818039910551F481E790E021E7AE
:1039800030E0F90120812D7FFC0120831DC0898159
:103990009A81803A910551F482E790E022E730E085
:1039A000F90120812D7FFC0120830EC089819A813D
:1039B0008032914049F483E790E023E730E0F90159
:1039C00020812D7FFC01208300000F900F90DF915C
:1039D000CF910895CF93DF93CDB7DEB727970FB67A
:1039E000F894DEBF0FBECDBF9C838B836D835F8356
:1039F0004E838B819C819A8389838D81882F90E06F
:103A0000019629813A81820F931F2D81222F30E068
:103A10002F5F3F4F49815A81240F351FF9014081A3
:103A20002E813F81232F3327242BFC0120838D817E
:103A3000882F90E029813A81820F931F2D81222FB8
:103A400030E049815A81240F351FF90130812E81E0
:103A5000232BFC012083000027960FB6F894DEBFCD
:103A60000FBECDBFDF91CF910895CF93DF9300D0EC
:103A7000CDB7DEB79A83898389819A818038910591
:103A800051F486E390E026E330E0F90120812160E3
:103A9000FC0120832CC089819A818039910551F4E1
:103AA00088E390E028E330E0F90120812160FC0107
:103AB00020831DC089819A81803A910551F489E360
:103AC00090E029E330E0F90120812160FC012083AE
:103AD0000EC089819A818032914049F48AE390E056
:103AE0002AE330E0F90120812160FC0120830000FD
:103AF0000F900F90DF91CF910895CF93DF9300D077
:103B0000CDB7DEB79A83898389819A818038910500
:103B100051F486E390E026E330E0F9012081226051
:103B2000FC0120832CC089819A818039910551F450
:103B300088E390E028E330E0F90120812260FC0175
:103B400020831DC089819A81803A910551F489E3CF
:103B500090E029E330E0F90120812260FC0120831C
:103B60000EC089819A818032914049F48AE390E0C5
:103B70002AE330E0F90120812260FC01208300006B
:103B80000F900F90DF91CF910895CF93DF9300D0E6
:103B9000CDB7DEB79A83898389819A818038910570
:103BA00031F484E890E0FC018081918123C0898117
:103BB0009A818039910531F484E990E0FC0180819B
:103BC000918118C089819A81803A910531F484EA03
:103BD00090E0FC01808191810DC089819A818032C1
:103BE000914031F484E291E0FC018081918102C036
:103BF00080E090E00F900F90DF91CF910895CF93E8
:103C0000DF9300D000D01F92CDB7DEB79C838B83AB
:103C10006D838B819C819A8389838D81882349F46C
:103C200089819A81FC01208189819A81FC0120830C
:103C30000FC08D81843061F489819A810196298138
:103C40003A812F5F3F4FF90120812860FC012083DA
:103C500000000F900F900F900F900F90DF91CF9179
:103C60000895CF93DF93CDB7DEB780E890E00E9450
:103C7000C51DDF91CF910895CF93DF93CDB7DEB708
:103C800080E890E00E94A21C80E890E00E947D1DE8
:103C90000000DF91CF910895CF93DF93CDB7DEB7CA
:103CA00080E890E00E947D1D80E890E00E945A1C10
:103CB0000000DF91CF910895CF93DF93CDB7DEB7AA
:103CC00080E890E00E94121C80E890E00E94351D80
:103CD0000000DF91CF910895CF93DF93CDB7DEB78A
:103CE00080E890E00E94E9250000DF91CF910895DF
:103CF000CF93DF9300D0CDB7DEB79A8389838981D4
:103D00009A81AC0168E080E890E00E94EA1C000023
:103D10000F900F90DF91CF910895CF93DF93CDB7A0
:103D2000DEB70E94D01ADF91CF910895CF93DF9331
:103D30001F92CDB7DEB7898389810E94E01A000007
:103D40000F90DF91CF910895CF93DF931F92CDB75E
:103D5000DEB780E890E00E94D0256DE37FE180E847
:103D600090E00E94022660E080E890E00E94FF1D43
:103D700080E890E00E94121C80E890E00E94DF1E24
:103D800080E890E00E94A21C61E080E890E00E9440
:103D9000C31B80E890E00E940A1BDC01CB0120E4F9
:103DA00032E44FE050E0BC01CD010E945344DA01FF
:103DB000C901898389810F90DF91CF910895CF93B5
:103DC000DF9300D0CDB7DEB79A83898389819A814A
:103DD0008038910579F089819A818039910551F077
:103DE00089819A81803A910529F089819A8180326E
:103DF000914039F467E47FE180E890E00E94432637
:103E000036C089819A818138910579F089819A81BA
:103E10008139910551F089819A81813A910529F082
:103E200089819A818132914039F467E47FE180E8A9
:103E300090E00E9484261BC089819A818238910576
:103E400079F089819A818239910551F089819A812D
:103E5000823A910529F089819A818232914039F420
:103E600067E47FE180E890E00E94C52600C0000082
:103E70000F900F90DF91CF910895CF93DF93CDB73F
:103E8000DEB70E944D400000DF91CF910895CF939F
:103E9000DF93CDB7DEB70E9485400000DF91CF9160
:103EA0000895CF93DF931F92CDB7DEB78FE590E0F3
:103EB000FC0180818983F89489810F90DF91CF91F3
:103EC0000895CF93DF931F92CDB7DEB789838FE537
:103ED00090E02981FC01208300000F90DF91CF91B9
:103EE0000895EF92FF920F931F93CF93DF93CDB777
:103EF000DEB72C970FB6F894DEBF0FBECDBF6B8335
:103F00007C838D839E832F83388749875A871C87BC
:103F10000B878F819885A985BA858093AF0E909382
:103F2000B00EA093B10EB093B20E8B859C859A8390
:103F300089838B819C81AD81BE8188279F5FAF4F34
:103F4000BF4F8093B30E9093B40EA093B50EB09371
:103F5000B60E8B819C81AD81BE81882707EB1EE068
:103F600020E031E040E050E0BC01CD010E9464203F
:103F700027EB3EE040E051E060E070E0CB010E94C2
:103F800093482091AF0E3091B00E4091B10E5091F8
:103F9000B20E8B819C81AD81BE81280F391F4A1FD3
:103FA0005B1F8091B30E9091B40EA091B50EB091AD
:103FB000B60E82179307A407B507A0F48091B30E3D
:103FC0009091B40EA091B50EB091B60E9C018B816C
:103FD0009C817901E81AF90AC7019093B80F809380
:103FE000B70F0CC08091AF0E9091B00EA091B10EA2
:103FF000B091B20E9093B80F8093B70F2091AF0E8F
:104000003091B00E4091B10E5091B20E8091B70F29
:104010009091B80FCC01A0E0B0E079018A01E81AD4
:10402000F90A0A0B1B0BD801C7018093AF0E9093BE
:10403000B00EA093B10EB093B20E4091B70F509155
:10404000B80F29813A818B819C81AD81BE81BC01F1
:10405000CD010E9493488B819C81AD81BE81BC01C2
:10406000CD010E94A0498091B30E9091B40EA09111
:10407000B50EB091B60E8B839C83AD83BE838091C9
:10408000B70F9091B80F29813A81820F931F9A83BD
:1040900089838091AF0E9091B00EA091B10EB09136
:1040A000B20E892B8A2B8B2B09F043CF00002C9664
:1040B0000FB6F894DEBF0FBECDBFDF91CF911F9139
:1040C0000F91FF90EF9008950F931F93CF93DF937D
:1040D000CDB7DEB762970FB6F894DEBF0FBECDBF87
:1040E00069877A878B879C872D873E874F87588B78
:1040F0001A8B098B0E94511F8B831A82198229C047
:1041000029893A8989819A81B901680F791F89853E
:104110009A85AB85BC859C01AD012F5F3F4F4F4F0A
:104120005F4F29873A874B875C878C839D83AE835B
:10413000BF838C819D81AE81BF81ABBFFC01879124
:1041400088878885FB01808389819A8101969A837B
:10415000898389819A819C0140E050E08D859E850C
:10416000AF85B889281739074A075B0748F28B8162
:104170000E94611F000062960FB6F894DEBF0FBE6A
:10418000CDBFDF91CF911F910F910895CF93DF9312
:104190001F92CDB7DEB78FE590E0FC018081898367
:1041A000F89489810F90DF91CF910895CF93DF9399
:1041B0001F92CDB7DEB789838FE590E02981FC019E
:1041C000208300000F90DF91CF910895CF93DF936C
:1041D00000D0CDB7DEB79A83898389819A81892BF4
:1041E00009F47BC089819A818837910549F461E09F
:1041F00080E00E941A3460E180E00E941A346DC0B1
:1042000089819A81803C910529F462E080E00E94D6
:104210001A3463C089819A818C34910529F464E051
:1042200080E00E941A3459C089819A8180389105B2
:1042300029F468E080E00E941A344FC089819A8195
:104240008434910529F460E280E00E941A3445C06C
:1042500089819A81803B910529F460E480E00E9485
:104260001A343BC089819A81883B910529F460E822
:1042700080E00E941A3431C089819A81883C91057E
:1042800029F461E081E00E941A3427C089819A8173
:104290008039910529F468E081E00E941A341DC03C
:1042A00089819A81803A910529F460E181E00E9438
:1042B0001A3413C089819A818032914029F460E2D6
:1042C00081E00E941A3409C089819A818334914027
:1042D00021F460E481E00E941A3400000F900F90F6
:1042E000DF91CF910895CF93DF9300D0CDB7DEB7A4
:1042F0009A83898389819A81892B09F47BC089817A
:104300009A818837910549F461E080E00E944F343A
:1043100060E180E00E944F346DC089819A81803CC9
:10432000910529F462E080E00E944F3463C08981E6
:104330009A818C34910529F464E080E00E944F3426
:1043400059C089819A818038910529F468E080E01C
:104350000E944F344FC089819A818434910529F499
:1043600060E280E00E944F3445C089819A81803BA1
:10437000910529F460E480E00E944F343BC08981BC
:104380009A81883B910529F460E880E00E944F34CF
:1043900031C089819A81883C910529F461E081E0EE
:1043A0000E944F3427C089819A818039910529F470
:1043B00068E081E00E944F341DC089819A81803A73
:1043C000910529F460E181E00E944F3413C0898196
:1043D0009A818032914029F460E281E00E944F345A
:1043E00009C089819A818334914021F460E481E09D
:1043F0000E944F3400000F900F90DF91CF910895ED
:104400001F920F9200905F000F92112400905B00AA
:104410000F922F933F934F935F936F937F938F935D
:104420009F93AF93BF93EF93FF93CF93DF93CDB75A
:10443000DEB78091B90F9091BA0F892B31F080913E
:10444000B90F9091BA0FFC0109950000DF91CF914F
:10445000FF91EF91BF91AF919F918F917F916F915C
:104460005F914F913F912F910F9000925B000F90C1
:1044700000925F000F901F9018951F920F9200906E
:104480005F000F92112400905B000F922F933F93D7
:104490004F935F936F937F938F939F93AF93BF934C
:1044A000EF93FF93CF93DF93CDB7DEB78091BB0F30
:1044B0009091BC0F892B31F08091BB0F9091BC0F74
:1044C000FC0109950000DF91CF91FF91EF91BF9121
:1044D000AF919F918F917F916F915F914F913F919C
:1044E0002F910F9000925B000F9000925F000F9051
:1044F0001F9018951F920F9200905F000F92112449
:1045000000905B000F922F933F934F935F936F93B5
:104510007F938F939F93AF93BF93EF93FF93CF932B
:10452000DF93CDB7DEB78091BD0F9091BE0F892B81
:1045300031F08091BD0F9091BE0FFC0109950000F4
:10454000DF91CF91FF91EF91BF91AF919F918F91AB
:104550007F916F915F914F913F912F910F900092BA
:104560005B000F9000925F000F901F9018951F92B4
:104570000F9200905F000F92112400905B000F9249
:104580002F933F934F935F936F937F938F939F935B
:10459000AF93BF93EF93FF93CF93DF93CDB7DEB786
:1045A0008091BF0F9091C00F892B31F08091BF0F88
:1045B0009091C00FFC0109950000DF91CF91FF9110
:1045C000EF91BF91AF919F918F917F916F915F918B
:1045D0004F913F912F910F9000925B000F900092AE
:1045E0005F000F901F9018951F920F9200905F0030
:1045F0000F92112400905B000F922F933F934F93E3
:104600005F936F937F938F939F93AF93BF93EF933A
:10461000FF93CF93DF93CDB7DEB78091C10F909119
:10462000C20F892B31F08091C10F9091C20FFC0114
:1046300009950000DF91CF91FF91EF91BF91AF916C
:104640009F918F917F916F915F914F913F912F91AA
:104650000F9000925B000F9000925F000F901F90F0
:1046600018951F920F9200905F000F9211240090F6
:104670005B000F922F933F934F935F936F937F93C2
:104680008F939F93AF93BF93EF93FF93CF93DF935A
:10469000CDB7DEB78091C30F9091C40F892B31F055
:1046A0008091C30F9091C40FFC0109950000DF9128
:1046B000CF91FF91EF91BF91AF919F918F917F919A
:1046C0006F915F914F913F912F910F9000925B00FE
:1046D0000F9000925F000F901F9018951F920F92FD
:1046E00000905F000F92112400905B000F922F93B7
:1046F0003F934F935F936F937F938F939F93AF936A
:10470000BF93EF93FF93CF93DF93CDB7DEB7809145
:10471000C50F9091C60F892B31F08091C50F9091F4
:10472000C60FFC0109950000DF91CF91FF91EF9139
:10473000BF91AF919F918F917F916F915F914F91B9
:104740003F912F910F9000925B000F9000925F00BD
:104750000F901F9018951F920F9200905F000F927C
:10476000112400905B000F922F933F934F935F9320
:104770006F937F938F939F93AF93BF93EF93FF9329
:10478000CF93DF93CDB7DEB78091C70F9091C80F5D
:10479000892B31F08091C70F9091C80FFC010995CA
:1047A0000000DF91CF91FF91EF91BF91AF919F9169
:1047B0008F917F916F915F914F913F912F910F90CA
:1047C00000925B000F9000925F000F901F90189571
:1047D0001F920F9200905F000F92112400905B00D7
:1047E0000F922F933F934F935F936F937F938F938A
:1047F0009F93AF93BF93EF93FF93CF93DF93CDB787
:10480000DEB78091C90F9091CA0F892B31F080914A
:10481000C90F9091CA0FFC0109950000DF91CF915B
:10482000FF91EF91BF91AF919F918F917F916F9188
:104830005F914F913F912F910F9000925B000F90ED
:1048400000925F000F901F9018951F920F9200909A
:104850005F000F92112400905B000F922F933F9303
:104860004F935F936F937F938F939F93AF93BF9378
:10487000EF93FF93CF93DF93CDB7DEB78091CB0F4C
:104880009091CC0F892B31F08091CB0F9091CC0F70
:10489000FC0109950000DF91CF91FF91EF91BF914D
:1048A000AF919F918F917F916F915F914F913F91C8
:1048B0002F910F9000925B000F9000925F000F907D
:1048C0001F9018951F920F9200905F000F92112475
:1048D00000905B000F922F933F934F935F936F93E2
:1048E0007F938F939F93AF93BF93EF93FF93CF9358
:1048F000DF93CDB7DEB78091CD0F9091CE0F892B8E
:1049000031F08091CD0F9091CE0FFC010995000000
:10491000DF91CF91FF91EF91BF91AF919F918F91D7
:104920007F916F915F914F913F912F910F900092E6
:104930005B000F9000925F000F901F9018951F92E0
:104940000F9200905F000F92112400905B000F9275
:104950002F933F934F935F936F937F938F939F9387
:10496000AF93BF93EF93FF93CF93DF93CDB7DEB7B2
:104970008091CF0F9091D00F892B31F08091CF0F84
:104980009091D00FFC0109950000DF91CF91FF912C
:10499000EF91BF91AF919F918F917F916F915F91B7
:1049A0004F913F912F910F9000925B000F900092DA
:1049B0005F000F901F9018951F920F9200905F005C
:1049C0000F92112400905B000F922F933F934F930F
:1049D0005F936F937F938F939F93AF93BF93EF9367
:1049E000FF93CF93DF93CDB7DEB78091D10F909136
:1049F000D20F892B31F08091D10F9091D20FFC0111
:104A000009950000DF91CF91FF91EF91BF91AF9198
:104A10009F918F917F916F915F914F913F912F91D6
:104A20000F9000925B000F9000925F000F901F901C
:104A300018951F920F9200905F000F921124009022
:104A40005B000F922F933F934F935F936F937F93EE
:104A50008F939F93AF93BF93EF93FF93CF93DF9386
:104A6000CDB7DEB78091D30F9091D40F892B31F061
:104A70008091D30F9091D40FFC0109950000DF9134
:104A8000CF91FF91EF91BF91AF919F918F917F91C6
:104A90006F915F914F913F912F910F9000925B002A
:104AA0000F9000925F000F901F9018951F920F9229
:104AB00000905F000F92112400905B000F922F93E3
:104AC0003F934F935F936F937F938F939F93AF9396
:104AD000BF93EF93FF93CF93DF93CDB7DEB7809172
:104AE000D50F9091D60F892B31F08091D50F9091F1
:104AF000D60FFC0109950000DF91CF91FF91EF9156
:104B0000BF91AF919F918F917F916F915F914F91E5
:104B10003F912F910F9000925B000F9000925F00E9
:104B20000F901F9018951F920F9200905F000F92A8
:104B3000112400905B000F922F933F934F935F934C
:104B40006F937F938F939F93AF93BF93EF93FF9355
:104B5000CF93DF93CDB7DEB78091D70F9091D80F69
:104B6000892B31F08091D70F9091D80FFC010995D6
:104B70000000DF91CF91FF91EF91BF91AF919F9195
:104B80008F917F916F915F914F913F912F910F90F6
:104B900000925B000F9000925F000F901F9018959D
:104BA000CF93DF9300D01F92CDB7DEB79B838A836C
:104BB0000E94C62089838A819B810E94E620898188
:104BC0000E94D62000000F900F900F90DF91CF91A0
:104BD0000895CF93DF9300D01F92CDB7DEB79B83AC
:104BE0008A830E94C62089838A819B810E947321C7
:104BF00089810E94D62000000F900F900F90DF91C6
:104C0000CF910895CF93DF9300D000D0CDB7DEB71A
:104C10009A8389837C836B8389819A81803891050B
:104C200039F48B819C819093BA0F8093B90F23C084
:104C300089819A818039910539F48B819C81909387
:104C4000C20F8093C10F17C089819A81803A910564
:104C500039F48B819C819093CA0F8093C90F0BC04C
:104C600089819A818032914031F48B819C8190932B
:104C7000D20F8093D10F00000F900F900F900F90E4
:104C8000DF91CF910895CF93DF9300D000D0CDB7BF
:104C9000DEB79A8389837C836B8389819A8180388C
:104CA000910539F48B819C819093BC0F8093BB0F4D
:104CB00023C089819A818039910539F48B819C8147
:104CC0009093C40F8093C30F17C089819A81803A53
:104CD000910539F48B819C819093CC0F8093CB0FFD
:104CE0000BC089819A818032914031F48B819C8103
:104CF0009093D40F8093D30F00000F900F900F90DC
:104D00000F90DF91CF910895CF93DF9300D000D023
:104D1000CDB7DEB79A8389837C836B8389819A813F
:104D20008038910539F48B819C819093BE0F8093DC
:104D3000BD0F23C089819A818039910539F48B8117
:104D40009C819093C60F8093C50F17C089819A816B
:104D5000803A910539F48B819C819093CE0F80939A
:104D6000CD0F0BC089819A818032914031F48B81C3
:104D70009C819093D60F8093D50F00000F900F90D9
:104D80000F900F90DF91CF910895CF93DF9300D0D4
:104D900000D0CDB7DEB79A8389837C836B8389810A
:104DA0009A818038910539F48B819C819093C00F52
:104DB0008093BF0F23C089819A818039910539F48E
:104DC0008B819C819093C80F8093C70F17C08981F6
:104DD0009A81803A910539F48B819C819093D00F10
:104DE0008093CF0F0BC089819A818032914031F43A
:104DF0008B819C819093D80F8093D70F00000F90E8
:104E00000F900F900F90DF91CF910895CF93DF9384
:104E1000CDB7DEB70000DF91CF910895CF93DF9338
:104E2000CDB7DEB765970FB6F894DEBF0FBECDBF26
:104E30009B8B8A8B6C8B4D8B8A899B89892B21F16B
:104E40001092D90F82E080930A028A899B8920E11F
:104E5000FC01ABEDBFE001900D922A95E1F71982BC
:104E600010C08FE391E02981222F30E04A895B89CD
:104E7000240F351FF9012081FC01208389818F5F78
:104E800089838981803168F38D89882F90E000972C
:104E900019F00197D1F059C080910A02813009F0D0
:104EA00056C019820EC08FE391E02981222F30E095
:104EB0002552304FF9012081FC01208389818F5FC9
:104EC00089838981803178F342C080910A028130E0
:104ED000E1F19091D90F81E08927882311F1109297
:104EE000DA0F8CE391E02091DA0FFC012083CE01F0
:104EF00002960E941A2819820EC08981882F90E09C
:104F00002FE331E0F90120818551904FFC0120838E
:104F100089818F5F89838981803178F381E08093F3
:104F2000D90F19820EC08FE391E02981222F30E042
:104F30002551304FF9012081FC01208389818F5F49
:104F400089838981803178F303C080E02DC000001F
:104F50008D8980930A028C89882F90E0029718F53A
:104F60008C89882F90E0880F991F82959295907F69
:104F70009827807F9827282F20728D89882F90E08E
:104F8000880F991F880F991F880F991F8870822B8F
:104F90008093DA0F00008CE391E02091DA0FFC019E
:104FA000208381E001C080E065960FB6F894DEBFF3
:104FB0000FBECDBFDF91CF910895CF93DF9300D087
:104FC0001F92CDB7DEB780910A02882329F48BEDBA
:104FD0009FE09B838A8304C08BEE9FE09B838A8340
:104FE000198210C02FE331E08A819B81AC014F5FB1
:104FF0005F4F5B834A83FC018081F9018083898153
:105000008F5F89838981803168F38CE391E02091FF
:10501000DA0FFC01208300000F900F900F90DF91BA
:10502000CF910895CF93DF93CDB7DEB70000DF9126
:10503000CF910895CF93DF9300D01F92CDB7DEB705
:105040009B838A83198210C02EE331E08A819B8181
:10505000AC014F5F5F4F5B834A83FC018081F901A4
:10506000808389818F5F89838981803168F38CE3B4
:1050700091E02091DA0F2068FC01208300008DE38D
:1050800091E0FC018081882F90E081709927892B25
:10509000B1F300000F900F900F90DF91CF91089522
:1050A000CF93DF9300D01F92CDB7DEB79B838A8367
:1050B000198210C08A819B819C012F5F3F4F3B83E7
:1050C0002A832EE331E0F9012081FC0120838981CC
:1050D0008F5F89838981803168F300000F900F9082
:1050E0000F90DF91CF910895CF93DF931F92CDB7AB
:1050F000DEB7898383E590E023E530E0F901208184
:10510000322F317F2981232BFC01208300000F9057
:10511000DF91CF910895CF93DF93CDB7DEB786EBC4
:1051200090E026EB30E0F90120812062FC01208331
:105130000000DF91CF910895CF93DF931F92CDB7F9
:10514000DEB7898389818823A1F48CED90E02CED72
:1051500030E0F9012081422F2981222F30E0229571
:105160003295307F3227207F3227242BFC01208389
:105170000CC08981813049F48CED90E02CED30E059
:10518000F90120812F7EFC01208300000F90DF9128
:10519000CF910895CF93DF9300D0CDB7DEB79A8338
:1051A000898389819A81892B09F47BC089819A81BD
:1051B0008837910549F461E080E00E941A3460E18B
:1051C00080E00E941A346DC089819A81803C9105EB
:1051D00029F462E080E00E941A3463C089819A81D8
:1051E0008C34910529F464E080E00E941A3459C09F
:1051F00089819A818038910529F468E080E00E94D5
:105200001A344FC089819A818434910529F460E26F
:1052100080E00E941A3445C089819A81803B9105C3
:1052200029F460E480E00E941A343BC089819A81AD
:10523000883B910529F460E880E00E941A3431C06F
:1052400089819A81883C910529F461E081E00E947E
:105250001A3427C089819A818039910529F468E040
:1052600081E00E941A341DC089819A81803A91059B
:1052700029F460E181E00E941A3413C089819A8187
:105280008032914029F460E281E00E941A3409C022
:1052900089819A818334914021F460E481E00E9405
:1052A0001A3400000F900F90DF91CF910895CF93A3
:1052B000DF93CDB7DEB786E00E94742880EB90E0E4
:1052C0000E94CA2881E00E949C280E948B280E948C
:1052D000DA2A0000DF91CF910895CF93DF9300D0B9
:1052E00000D0CDB7DEB769837A838B839C8383E557
:1052F00090E023E530E0F90120812160FC0120836A
:10530000889500000F900F900F900F90DF91CF9134
:105310000895CF93DF931F92CDB7DEB78FE590E06E
:10532000FC0180818983F89489810F90DF91CF916E
:105330000895CF93DF931F92CDB7DEB789838FE5B2
:1053400090E02981FC01208300000F90DF91CF9134
:1053500008951F920F9200905F000F921124009009
:105360005B000F922F933F934F935F936F937F93C5
:105370008F939F93AF93BF93EF93FF93CF93DF935D
:10538000CDB7DEB78091FB0F9091FC0F892B31F0E8
:105390008091FB0F9091FC0FFC0109950000DF91BB
:1053A000CF91FF91EF91BF91AF919F918F917F919D
:1053B0006F915F914F913F912F910F9000925B0001
:1053C0000F9000925F000F901F9018951F920F9200
:1053D00000905F000F92112400905B000F922F93BA
:1053E0003F934F935F936F937F938F939F93AF936D
:1053F000BF93EF93FF93CF93DF93CDB7DEB7809149
:10540000FD0F9091FE0F892B31F08091FD0F90914F
:10541000FE0FFC0109950000DF91CF91FF91EF9104
:10542000BF91AF919F918F917F916F915F914F91BC
:105430003F912F910F9000925B000F9000925F00C0
:105440000F901F9018951F920F9200905F000F927F
:10545000112400905B000F922F933F934F935F9323
:105460006F937F938F939F93AF93BF93EF93FF932C
:10547000CF93DF93CDB7DEB78091FF0F90910010EF
:10548000892B31F08091FF0F90910010FC0109955C
:105490000000DF91CF91FF91EF91BF91AF919F916C
:1054A0008F917F916F915F914F913F912F910F90CD
:1054B00000925B000F9000925F000F901F90189574
:1054C0001F920F9200905F000F92112400905B00DA
:1054D0000F922F933F934F935F936F937F938F938D
:1054E0009F93AF93BF93EF93FF93CF93DF93CDB78A
:1054F000DEB78091011090910210892B31F08091DC
:10550000011090910210FC0109950000DF91CF91EC
:10551000FF91EF91BF91AF919F918F917F916F918B
:105520005F914F913F912F910F9000925B000F90F0
:1055300000925F000F901F9018951F920F9200909D
:105540005F000F92112400905B000F922F933F9306
:105550004F935F936F937F938F939F93AF93BF937B
:10556000EF93FF93CF93DF93CDB7DEB78091031016
:1055700090910410892B31F08091031090910410C8
:10558000FC0109950000DF91CF91FF91EF91BF9150
:10559000AF919F918F917F916F915F914F913F91CB
:1055A0002F910F9000925B000F9000925F000F9080
:1055B0001F901895CF93DF931F92CDB7DEB70E944F
:1055C000892989838CED90E02CED30E0F901208170
:1055D0002062FC01208389810E94992900000F909C
:1055E000DF91CF910895CF93DF93CDB7DEB78CEDE8
:1055F00090E0FC018081882319F081E090E002C0F6
:1056000080E090E08170DF91CF910895CF93DF9398
:10561000CDB7DEB78CED90E02CED30E0F9012081C4
:105620002F7DFC0120830000DF91CF910895CF935F
:10563000DF93CDB7DEB78DED90E0FC01808188234C
:1056400019F081E090E002C080E090E08170DF918D
:10565000CF910895CF93DF931F92CDB7DEB78983A3
:105660008981882F90E08230910529F1833091055E
:1056700009F43EC0019709F05DC08FED90E0FC0198
:105680008081882F90E081709927892B09F04DC087
:1056900080EE90E020EE30E0F90120812160FC01F5
:1056A00020838FED90E02FED30E0F9012081216023
:1056B000FC0120833AC08FED90E0FC018081882FAF
:1056C00090E082709927892B91F580EE90E020EE92
:1056D00030E0F90120812260FC0120838FED90E011
:1056E0002FED30E0F90120812260FC0120831FC0F2
:1056F0008FED90E0FC018081882F90E084709927E5
:10570000892BB9F480EE90E020EE30E0F9012081A1
:105710002460FC0120838FED90E02FED30E0F90153
:1057200020812460FC01208304C0000003C000002D
:1057300001C0000000000F90DF91CF910895CF933A
:10574000DF931F92CDB7DEB789838981882F90E0E0
:105750008230910519F18330910529F1019709F003
:1057600028C08FED90E0FC018081882F90E081704F
:105770009927892BE9F080EE90E020EE30E0F901E6
:1057800020812160FC0120838FED90E02FED30E03F
:10579000F90120812E7FFC0120830AC08FED90E06B
:1057A000FC01808106C08FED90E0FC01808101C08A
:1057B000000000000F90DF91CF910895CF93DF9309
:1057C000CDB7DEB762970FB6F894DEBF0FBECDBF80
:1057D0008D874E875F87688B798B2A8B8A89882F84
:1057E00090E082309105D1F18330910509F469C0D0
:1057F000019709F099C08D85882351F08CED90E0D8
:105800002CED30E0F90120812160FC01208309C0EA
:105810008CED90E02CED30E0F90120812E7FFC0131
:1058200020838E859F85A889B98989839A83AB83D4
:10583000BC8388EF90E02C81FC01208387EF90E00F
:105840002B81FC01208386EF90E02A81FC012083DC
:1058500085EF90E02981FC01208366C08D85882337
:1058600051F08CED90E02CED30E0F90120812260C8
:10587000FC01208309C08CED90E02CED30E0F901B3
:1058800020812D7FFC0120838E859F85A889B98981
:105890008D839E83AF83B88784EF90E02885FC01D9
:1058A000208383EF90E02F81FC01208382EF90E042
:1058B0002E81FC01208381EF90E02D81FC0120836B
:1058C00033C08D85882351F08CED90E02CED30E0D5
:1058D000F90120812460FC01208309C08CED90E057
:1058E0002CED30E0F90120812B7FFC0120838E8597
:1058F0009F85A889B98989879A87AB87BC8780EFFC
:1059000090E02C85FC0120838FEE90E02B85FC013C
:1059100020838EEE90E02A85FC0120838DEE90E0BE
:105920002985FC0120830000000062960FB6F894E0
:10593000DEBF0FBECDBFDF91CF910895CF93DF9330
:1059400000D0CDB7DEB79A83898389819A819093FD
:10595000FC0F8093FB0F00000F900F90DF91CF9111
:105960000895CF93DF9300D0CDB7DEB79A838983B4
:1059700089819A819093FE0F8093FD0F00000F9014
:105980000F90DF91CF910895CF93DF9300D0CDB7E3
:10599000DEB79A83898389819A81909300108093DE
:1059A000FF0F00000F900F90DF91CF910895CF93DC
:1059B000DF9300D0CDB7DEB79A83898389819A813E
:1059C000909302108093011000000F900F90DF91D0
:1059D000CF910895CF93DF9300D0CDB7DEB79A83F0
:1059E000898389819A819093041080930310000029
:1059F0000F900F90DF91CF910895CF93DF9300D058
:105A0000CDB7DEB79A83898389819A81FC01818130
:105A1000282F206189819A81FC01218300000F9049
:105A20000F90DF91CF910895CF93DF9300D000D0F6
:105A30001F92CDB7DEB79A8389836B834C832D8306
:105A400089819A81FC018281282F297F8B81882F6F
:105A500090E083709927880F991F822B282F8981C6
:105A60009A81FC01228389819A81FC018181282FFE
:105A70002B7F8B81882F90E084709927880F991F46
:105A8000880F991F822B282F89819A81FC012183FD
:105A900089819A81FC018281982F9F7C8C81892B3E
:105AA000282F89819A81FC01228389819A81FC01B6
:105AB0008281282F277F8D81882F90E0880F991F62
:105AC000880F991F880F991F822B282F89819A810F
:105AD000FC01228300000F900F900F900F900F9009
