:104000009831002059850000E9AF0000E41A010052
:10401000518500005185000051850000000000001E
:1040200000000000000000000000000051850000BA
:1040300051850000000000005185000051850000FE
:104040005185000051850000518500005185000018
:104050005185000051850000518500005185000008
:1040600051850000518500005185000051850000F8
:1040700051850000518500005185000051850000E8
:10408000518500005185000009BA000051850000EB
:1040900051850000518500005185000051850000C8
:1040A00051850000B1AB0000C1AB00007D7F000076
:1040B000D3AB0000E5AB0000F5AB000007AC00009F
:1040C00019AC00002BAC00003BAC00004DAC000074
:1040D0005FAC000051850000518500005185000053
:1040E0005185000051850000518500005185000078
:1040F00051850000F7AF000005B0000013B00000CC
:1041000021B000002FB000003DB000004BB0000017
:1041100059B0000051850000518500007574000001
:1041200091740000AD740000CD490000C974000016
:10413000E5740000518500005185000051850000A4
:104140005185000051850000518500005185000017
:104150005185000051850000518500005185000007
:1041600051850000518500005185000051850000F7
:1041700051850000518500005185000051850000E7
:1041800010B5054C237833B9044B13B10448AFF391
:1041900000800123237010BD600B00200000000090
:1041A000E47601000C4B43B10C480D4910B5AFF358
:1041B00000800C48036823B910BD0A48036833B96E
:1041C0007047094B002BF7D0BDE810401847064B4D
:1041D000002BF5D0184700BF00000000E476010076
:1041E000640B0020E47601000000000080B483B07E
:1041F00000AF0346FB71084997F907305B09FA796C
:1042000002F01F02012000FA02F241F8232000BF51
:104210000C37BD4680BC704700E100E080B582B03D
:1042200000AF0346FB71FB79062B23D801A252F89D
:1042300023F000BF51420000574200005D420000E1
:1042400063420000694200006F42000075420000B6
:104250000B4B98470FE00B4B98470CE00A4B9847E5
:1042600009E00A4B984706E0094B984703E0094BE1
:10427000984700E000BF00BF0837BD4680BD00BFC3
:1042800035F00000A5F000001DF1000005F200006F
:1042900079F2000091F1000080B483B000AF0346D2
:1042A000FB71FB79062B4FD801A252F823F000BF17
:1042B000CD420000E1420000F54200000943000049
:1042C0001D4300003143000045430000214B5B6962
:1042D00003F00103002B14BF01230023DBB234E001
:1042E0001D4B5B6903F00103002B14BF0123002366
:1042F000DBB22AE0184B5B6A03F00103002B14BF0A
:1043000001230023DBB220E0124B1B6D03F00103FD
:10431000002B14BF01230023DBB216E00D4B9B6C76
:1043200003F00103002B14BF01230023DBB20CE0D8
:10433000094B9B6D03F00103002B14BF01230023E5
:10434000DBB202E0012300E0002318460C37BD4633
:1043500080BC704700080E4000040F4080B483B05A
:1043600000AF0346FB71FB79062B21D801A252F85E
:1043700023F000BF91430000954300009B430000E1
:10438000A1430000A5430000A9430000AD43000085
:104390000A4B0EE04FF400430BE04FF4004308E0FB
:1043A000074B06E0074B04E0074B02E0074B00E039
:1043B000002318460C37BD4680BC7047001BB70071
:1043C00000B4C40400093D0040420F0038C10100A0
:1043D00080B582B000AF0346FB7100BFFB79184681
:1043E000FFF75AFF034683F00103DBB2002BF5D140
:1043F00000BF0837BD4680BD80B483B000AF786091
:1044000039607B681A683B680333012101FA03F3C2
:104410001A437B681A6000BF0C37BD4680BC7047EA
:1044200080B586B000AFF8607A603B600B46FB72E7
:10443000FB7A1846FFF792FF02463B6803FB02F344
:104440007B617A697B68B2FBF3F37B61FB680022D6
:104450001A607B69154A93420CD83B68082B09D82F
:104460003B685B003B607B695B007B610121F86816
:10447000FFF7C2FF7B690E4A934203D90021F86817
:10448000FFF7BAFFFB681A683B68013B19047B68B9
:104490001B020B43F97A49000B43134343F07C5250
:1044A000FB681A6000BF1837BD4680BDFFB3C40467
:1044B0007FFE210A80B483B000AF7860084B5A6950
:1044C0007B680633012101FA03F31340002B14BF6C
:1044D00001230023DBB218460C37BD4680BC704771
:1044E00000080E4080B582B000AF0346FB71FB7937
:1044F000002B00D00FE00020FFF7CEFE034683F034
:104500000103DBB2002B05D00020FFF787FE00205F
:10451000FFF75EFF00BF00BF0837BD4680BD80B516
:1045200084B000AF78607868FFF7C4FF0346002BC3
:104530001FD17B68002B00D00AE00020FFF7D2FFDC
:1045400007F10C00102304220021FFF769FF00BFD0
:1045500007F10C0379681846084B984700BF786844
:10456000FFF7A8FF034683F00103DBB2002BF6D16F
:1045700000E000BF1037BD4680BD00BFC5F300009E
:1045800080B483B000AF786039607B6800221A6025
:1045900000BF0C37BD4680BC704780B483B000AF0D
:1045A00078600B46FB707B681B6823F4F852FB783D
:1045B0001B0203F4F8531A437B681A6000BF0C37E0
:1045C000BD4680BC704780B483B000AF786039606E
:1045D0007B681A684FF6FD7313407A6813603B6876
:1045E000012B0FD97B681B6843F002027B681A60BD
:1045F0007B681A683B6801335B08013B1B041A4364
:104600007B681A6000BF0C37BD4680BC704780B421
:1046100083B000AF7860396007497B681B6843F05E
:1046200001023B681C339B000B445A6000BF0C37EF
:10463000BD4680BC704700BF00080E4080B582B008
:1046400000AF0346FB71FB79102B00F28D8001A2B5
:1046500052F823F0694700009946000039470000EE
:1046600041470000B9460000D9460000F946000065
:10467000694700006947000069470000694700007A
:1046800069470000694700001947000069470000BA
:1046900099460000614700000120FFF7FDFD034639
:1046A00083F00103DBB2002B60D00120FFF7B6FDE1
:1046B0000120FFF78DFE59E00320FFF7EDFD0346D3
:1046C00083F00103DBB2002B52D00320FFF7A6FDDD
:1046D0000320FFF77DFE4BE00420FFF7DDFD0346DE
:1046E00083F00103DBB2002B44D00420FFF796FDDA
:1046F0000420FFF76DFE3DE00520FFF7CDFD0346EA
:1047000083F00103DBB2002B36D00520FFF786FDD6
:104710000520FFF75DFE2FE00220FFF7BDFD0346F9
:1047200083F00103DBB2002B28D00220FFF776FDD7
:104730000220FFF74DFE21E00020144B984720E0B7
:104740000020FFF7A9FD034683F00103DBB2002B35
:1047500016D00020FFF762FD0020FFF739FE0FE0C2
:104760000020FFF7DCFE0CE000BF0AE000BF08E01D
:1047700000BF06E000BF04E000BF02E000BF00E0B1
:1047800000BF00BF0837BD4680BD00BF29EF000055
:1047900080B586B000AFF8600B467A60FB7207F117
:1047A0001403F9681846FFF7EBFEFB7A1846FFF78B
:1047B00045FFFA7A07F1140311461846FFF7EDFE9C
:1047C00007F1140379681846FFF7FDFE07F114039B
:1047D000F9681846FFF71BFF00BF1837BD4680BDBC
:1047E00080B400AF00BFBD4680BC704780B400AF4E
:1047F00000BFBD4680BC704780B500AF00210248B5
:10480000024B984700BF80BD0040014079B50000D1
:1048100080B582B000AF0346FB80FB881A460021BA
:104820000448054B984700F0A9F800BF0837BD467B
:1048300080BD00BF0040014061B6000080B500AF00
:104840001E2206210820FFF7A3FF0F480F4B9847B1
:104850004FF4004200210C480D4B984700210A48B4
:1048600000F01EF8002108480A4B98470122002159
:104870000548094B984700F095F800210248074B7E
:10488000984700BF80BD00BF0040014065DD0000CB
:10489000C5B40000F3B6000085B6000059B50000AD
:1048A00080B582B000AF78600B46FB707B681B4A16
:1048B000934213D1FB78012B08D0022B0AD0002B96
:1048C00000D023E03720FFF791FC1FE03820FFF7EE
:1048D0008DFC1BE03920FFF789FC17E07B68104A4C
:1048E000934213D1FB78012B08D0022B0AD0002B66
:1048F00000D00BE03A20FFF779FC07E03B20FFF700
:1049000075FC03E03C20FFF771FC00BF054B064A35
:104910001A6000BF0837BD4680BD00BF00000140DF
:1049200000400140AC1F00202D49000080B582B03E
:1049300000AF00210E480F4B9847786000210C48CB
:104940000D4B984702467B6813407B607B6803F001
:104950001003002B01D0FFF743FF7B6803F0010336
:10496000002B01D0FFF742FF00BF0837BD4680BDD6
:1049700000400140F3B60000D1B6000080B500AFA2
:1049800000210548054B9847102200210248044B9E
:10499000984700BF80BD00BF00400140F3B6000053
:1049A00085B6000080B500AF00210548054B98474B
:1049B000102200210248044B984700BF80BD00BF71
:1049C00000400140F3B60000ABB6000080B500AF78
:1049D000044B1B68002B02D0024B1B68984700BF9A
:1049E00080BD00BFAC1F002080B500AF0A4B9847C8
:1049F0000A4B98470A4B984701200A4B98470A4BA5
:104A000098470A4B01221A70BFF35F8F62B6084BBA
:104A100098470023184680BDB9E6000093190100AD
:104A2000096E0000916800008D7B0000A401002049
:104A30001916010080B582B000AF154B00221A7123
:104A4000134B00225A71124B00221A80104B002285
:104A5000A3F848200023FB7108E0FB790C4A0233DD
:104A6000002142F82310FB790133FB71FB790F2BF6
:104A7000F3D9084B9847084B9847084B9847084B81
:104A80009847084B984700BF0837BD4680BD00BF18
:104A9000B01F0020AD60000047550000AD51000080
:104AA000194C00001954000080B582B000AF0346D5
:104AB000FB80054AFB881380FB881846034B984708
:104AC00000BF0837BD4680BDB01F002069690000E7
:104AD00080B582B000AF0346FB80054AFB88538057
:104AE000FB881846034B984700BF0837BD4680BD7A
:104AF000B01F00203969000080B483B000AF0346C6
:104B00003960FB71FB79054902333A6841F823208B
:104B100000BF0C37BD4680BC704700BFB01F0020EF
:104B200080B400AF054BB3F84830002B14BF01230D
:104B30000023DBB21846BD4680BC7047B01F002082
:104B400080B400AF054BB3F8483001339AB2034B41
:104B5000A3F8482000BFBD4680BC7047B01F0020AE
:104B600080B400AF054BB3F84830013B9AB2034B19
:104B7000A3F8482000BFBD4680BC7047B01F00208E
:104B800080B500AF014B984700BF80BDDF690000D2
:104B900080B500AF014B984700BF80BD496A000057
:104BA00080B487B000AF0346FB71124A07F10C03D3
:104BB00007CA03C31A701923FB750023BB7510E0E5
:104BC000FA79FB7D9A4206D2BB7D07F118021344A5
:104BD00013F80C3C09E0FB7D1933FB75BB7D0133F9
:104BE000BB75BB7D082BEBD9FF2318461C37BD4690
:104BF00080BC7047F073010080B500AF034B98474D
:104C0000034B9847034B984700BF80BD15600000D9
:104C1000496600006551000080B400AF034B0022DC
:104C20001A6000BFBD4680BC704700BF7C0B0020EF
:104C300080B483B000AF78607B6800221A727B6812
:104C4000002283F820207B6800225A600F4BB3F8C3
:104C5000483001339AB20D4BA3F848200C4B1B6827
:104C6000002B06D17B6800221A60094A7B6813601A
:104C700006E0074B1A687B681A60054A7B68136078
:104C800000BF0C37BD4680BC704700BFB01F00207E
:104C90007C0B002080B586B000AF78607B68DB8934
:104CA0003F2B0DD8874B984778617B69002B22D129
:104CB0007B6802221A727B68022283F82020E0E1DE
:104CC0007B68DB8903F04003002B04D001207E4B7E
:104CD0009847034603E000207B4B984703467B61DF
:104CE0007B69002B07D17B6802221A727B68022243
:104CF00083F82020C5E17B68DB8903F04003002BAB
:104D00006BD07B69002283F888207B68DB8903F005
:104D10008003002B05D07A6953796FF30203537136
:104D200024E07B68DB8903F48073002B06D07A696A
:104D30005379042161F30203537117E07B68DB8927
:104D400003F40073002B06D07A695379062161F3CE
:104D5000020353710AE07B68DB8903F48063002B54
:104D600004D07A69537943F0070353717A69537910
:104D70006FF3C30353717A6953796FF3041353715B
:104D80007A695379022161F3471353717B68DB8998
:104D900003F40063002B03D07B690122DA710CE07D
:104DA0007B68DB8903F48053002B03D07B690222EC
:104DB000DA7102E07B690022DA71444B1B783E33E2
:104DC000DAB27B691A724CF6FE233B617B69FE22E4
:104DD0009A7178693E4B984749E17B68DB891BB241
:104DE000002B0BDB7B68DB8903F40053002B05D120
:104DF0007B68DB8903F48043002B1CD07B68DB8954
:104E000019467869334B98477B69002283F88820DC
:104E10007B69D3F881007B6859697B681B7E1A46E1
:104E20002D4B98477B695A787B681B7E1344DAB216
:104E30007B695A701BE17B68DB8903F02003002B40
:104E40004ED07B69002283F888207A69537A082142
:104E500061F3030353727A69537A062161F30713EE
:104E600053727A69937A012161F3030393727A6929
:104E7000937A43F0100393727A69937A43F0400374
:104E800093727A69937A6FF3C71393727B690022E6
:104E9000DA727B6900221A737B69D3F881007B6820
:104EA00059697B681B7E1A460B4B98477B695A7879
:104EB0007B681B7E1344DAB27B695A707869074BB2
:104EC0009847D4E0E55100008D520000A81F002053
:104ED00069610000E5610000911C0100F9600000BB
:104EE0007B68DB89002B00F0C2807B68DB8903F0E4
:104EF0000403002B14BF01230023DBB21A467B6995
:104F000083F888207B68DB8903F00103002B14BF42
:104F100001230023D9B27A69D37A61F30003D372F3
:104F20007B68DB8903F00803002B14BF01230023F7
:104F3000D9B27A69D37A61F38203D3727B68DB8951
:104F400003F02003002B14BF01230023D9B27A6998
:104F5000D37A61F30413D3727B68DB8903F0100307
:104F6000002B14BF01230023D9B27A69D37A61F3ED
:104F7000C303D3727B69DB7A03F00803DBB2002B37
:104F800038D07B69D3F88130FB607B681B7C03F0F1
:104F90000F03D9B2FA68537861F3030353707B6847
:104FA0001B7C03F00F03D9B2FA68537861F307133F
:104FB00053707B685B7C03F00F03D9B2FA681378F7
:104FC00061F3030313707B685B7C03F00F03D9B2BA
:104FD000FA68137861F3071313707B69D3F8813093
:104FE0009A1C7B69C3F881207B695B780233DAB253
:104FF0007B695A70244B1B790133DAB2224B1A7148
:10500000214B1A797B691A731F4B1A887B69A3F8A5
:105010000D207B685A897B69A3F80F207B685B7B36
:1050200003F00F03D9B27A69537C61F3030353741D
:105030007B681B7B03F00F03D9B27A69537C61F361
:10504000071353747B69D3F881007B6859697B68C7
:105050001B7E1A460D4B98477B695A787B681B7EEE
:105060001344DAB27B695A707869094B98477B68B8
:105070007A695A607B6801221A727B69054AC3F813
:1050800089201837BD4680BDB01F0020911C01004B
:10509000916200009950000080B584B000AF786044
:1050A000124B1B68FB6017E0FB685A687B689A42EA
:1050B0000FD17B6893F88520FB6883F820207B68FC
:1050C00093F88820FB6883F82120FB6802221A727B
:1050D00005E0FB681B68FB60FB68002BE4D1786887
:1050E000034B984700BF1037BD4680BD7C0B0020A6
:1050F0006553000080B584B000AF7860174B1A6824
:105100007B689A4205D1154B1B681B68134A1360D4
:1051100010E0124B1B68FB6002E0FB681B68FB6041
:10512000FB681A687B689A42F7D1FB681B681A68AB
:10513000FB681A600A4BB3F84830013B9AB2084B3F
:10514000A3F848207B68DB69002B03D07B68DB6910
:105150007868984700BF1037BD4680BD7C0B0020A3
:10516000B01F002080B582B000AF0F4B1B687B6082
:1051700014E07B681B7A012B0CD0022B06D0002B8D
:1051800000D008E07868FFF785FD0AE07868FFF74F
:10519000B1FF06E000BF7B681B687B607B68002B6B
:1051A000E7D10837BD4680BD7C0B002080B483B0BA
:1051B00000AF0023FB710AE0FB79094A8D2101FB56
:1051C00003F3134400221A70FB790133FB71FB795E
:1051D000132BF1D900BF0C37BD4680BC704700BF10
:1051E000800B002080B582B000AF0023FB713EE051
:1051F000FB79234A8D2101FB03F313441B78002B19
:1052000032D1FB798D2202FB03F31D4A13448D2218
:10521000002118461B4B9847FB79194A8D2101FB49
:1052200003F31344013300221A70FB79FA798D21BC
:1052300001FB02F212490A44023211498D2000FB9F
:1052400003F30B448033C3F801200F4BB3F848300D
:1052500001339AB20C4BA3F84820FB798D2202FB54
:1052600003F3074A134406E0FB790133FB71FB7932
:10527000132BBDD9002318460837BD4680BD00BF9B
:10528000800B0020C51D0100B01F002090B585B027
:1052900000AF0346FB710023FB7354E0FB7B2E4AF7
:1052A0008D2101FB03F313441B78002B48D1FB7BBA
:1052B0008D2202FB03F3284A13448D220021184655
:1052C000264B9847FB79002B09D0FB7B224A8D2186
:1052D00001FB03F31344013307221A7008E0FB7B40
:1052E0001D4A8D2101FB03F31344013303221A707D
:1052F000FB7BFA7B8D2101FB02F217490A44023243
:10530000F97B15488D2404FB01F101440131097832
:105310000A4411498D2000FB03F30B448033C3F88A
:1053200001200F4BB3F8483001339AB20C4BA3F86D
:105330004820FB7B8D2202FB03F3074A134406E05F
:10534000FB7B0133FB73FB7B132BA7D90023184690
:105350001437BD4690BD00BF800B0020C51D010065
:10536000B01F002080B483B000AF78607B6800225B
:105370001A70064BB3F84830013B9AB2034BA3F8BE
:10538000482000BF0C37BD4680BC7047B01F0020CE
:1053900080B483B000AF78607B68002B02D10D4BE6
:1053A0007B600CE07B688D337B6008E07B681B785A
:1053B000002B01D07B6807E07B688D337B607B68C6
:1053C000054A9342F2D3002318460C37BD4680BCF1
:1053D000704700BF800B00208416002080B483B08B
:1053E00000AF78607B68002283F88520094B1B7929
:1053F0000133DAB2074B1A71064B1A797B681A73BC
:10540000044B1A887B68A3F80D2000BF0C37BD46FB
:1054100080BC7047B01F002080B483B000AF002371
:10542000FB7108E0FB79084A4FF6FF7122F8131070
:10543000FB790133FB71FB79022BF3D900BF0C37E9
:10544000BD4680BC704700BF8416002080B582B086
:1054500000AF0346FB80FB8819464FF6FF7000F053
:1054600035F8034618460837BD4680BD80B582B082
:1054700000AF0346FB80FB884FF6FF71184600F033
:1054800025F8034618460837BD4680BD80B485B070
:1054900000AF0346FB800023FB730BE0FB7B0A4A53
:1054A00032F81330FA889A4201D1012306E0FB7BDF
:1054B0000133FB73FB7B022BF0D900231846143712
:1054C000BD4680BC704700BF8416002080B485B004
:1054D00000AF03460A46FB801346BB800023FB73E4
:1054E00010E0FB7B0C4A32F81330FA889A4206D15E
:1054F000FB7B0949BA8821F81320012306E0FB7BD6
:105500000133FB73FB7B022BEBD9002318461437C6
:10551000BD4680BC704700BF8416002080B483B0B5
:1055200000AF78607B685A787B68D3F88130194681
:105530007B680233CB1ADBB2D31ADBB218460C37C6
:10554000BD4680BC704780B582B000AF0023FB71C0
:105550000CE0FA790F4913465B0013445B000B44DF
:10556000043300221A70FB790133FB71FB79312B74
:10557000EFD9094B64229A60074B00221A73064B3D
:10558000064A1A6106490020064B984700BF0837B3
:10559000BD4680BD8C160020BC170020E5570000DA
:1055A00075590000F94A000080B584B000AF7860FA
:1055B0007B681B681B780C2B04D17B681B79062B3E
:1055C00033D897E07B681B681B78CC2B04D07B68B2
:1055D0001B681B788C2B04D17B681B79022B24D889
:1055E00088E07B681B6801331B78882B0ED17B68B1
:1055F0001B681B78612B04D07B681B681B78412BD0
:105600006DD17B681B790F2B0FD868E07B681B6816
:1056100001331B78802B64D17B681B681B78002BBF
:1056200061D17B681B790A2B5DD97B681B680133CC
:105630001B78882B05D07B681B6801331B78802B77
:1056400011D12E4B9847F860FB68002B4DD07B683A
:105650001B6801331B78882B01D1202200E0252212
:10566000FB681A7022E07B681B681B780C2B0AD140
:105670000120234B9847F860FB68002B37D0FB686C
:1056800026221A7012E000201D4B9847F860FB6834
:10569000002B2ED07B681B681B788C2B03D1FB68FA
:1056A00028221A7002E0FB6827221A707B681A7998
:1056B000FB685A707B685A79FB6883F885207B68A1
:1056C00093F90620FB6883F88620FB68981C7B68AA
:1056D00019687B681B791A460A4B98470AE000BF95
:1056E00008E000BF06E000BF04E000BF02E000BF2A
:1056F00000E000BF1037BD4680BD00BFE55100008F
:105700008D520000911C010080B584B000AF78601C
:10571000284B9847F860FB68002B47D07B685B7884
:105720001033DAB27B685A707B68D3F8813003F1AA
:1057300010027B68C3F88120F8681F4B9847FB680C
:105740005B780333DAB2FB685A70FB68002283F897
:105750008920002283F88A20002283F88B200022EF
:1057600083F88C207B68DB7AC3F34003D9B2FA68F4
:10577000D37A61F34103D3727B68B3F80D309AB2E8
:10578000FB68A3F80F20FB68D3F88130BB60BB68CF
:1057900000221A70094B1A78BB689A707B681A7BD2
:1057A000BB685A70F868064B984700E000BF103796
:1057B000BD4680BDE5510000DD530000B817002054
:1057C0009162000080B483B000AF0346FB71044ACD
:1057D000FB79137000BF0C37BD4680BC704700BF1B
:1057E000B817002080B584B000AF78600023FB7349
:1057F0000023BB7323E0BA7B174913465B001344B5
:105800005B000B4404331B78002B15D0BA7B124984
:1058100013465B0013445B000B4404331B78013BCD
:10582000D8B20D4913465B0013445B000B440433AC
:1058300002461A700123FB73BB7B0133BB73BB7B36
:10584000312BD8D9FB7B002B02D07868034B9847CB
:1058500000BF1037BD4680BD8C160020156F0000BC
:1058600080B586B000AF786000237B610023FB74B5
:1058700059E0FA7C13465B0013445B003A4A134438
:10588000FB60FB681B79002B44D07B68B3F80B30BE
:105890009AB2FB681B889A423CD1FB689A787B6875
:1058A0009B7AD31AFB72FB7A072B1AD8FB68DB783A
:1058B0001A46FB7A42FA03F303F00103002B01D0EE
:1058C00001234CE0FB68DB785AB2FB7A012101FA34
:1058D00003F35BB213435BB2DAB2FB68DA70002306
:1058E0003DE0FB7A5B42BB727B689A7AFB689A70F8
:1058F000FB68DB781A46BB7A02FA03F35BB243F02B
:1059000001035BB2DAB2FB68DA70FB6815221A7128
:10591000002324E0FB681B79002B01D1FB687B612D
:10592000FB7C0133FB74FB7C312BA2D97B69002B00
:1059300001D1012313E07B68B3F80B309AB27B6985
:105940001A807B689A7A7B699A707B690122DA7087
:105950007B6915221A710548054B984700231846A4
:105960001837BD4680BD00BF8C160020BC17002034
:10597000156F000080B582B000AF78607B681B7B3C
:10598000002B01D100230AE07B689B681B78002B69
:1059900004D17868044B9847034600E0002318467A
:1059A0000837BD4680BD00BF6964000080B586B081
:1059B00000AF78607B6802333B617B6824221A70F9
:1059C0003B695B7A03F00203DBB2002B40F0FF80FF
:1059D0003B695B7A03F00803DBB2002B07D03B691D
:1059E0005B7A03F00103DBB2002B40F0F2803B69ED
:1059F000B3F803309BB24FF6FF72934214D17B4B46
:105A00001A883B69B3F80D309BB29A4208D03B69C3
:105A1000B3F80D309BB24FF6FF72934240F0DB803B
:105A20007B6822221A70D6E03B69B3F80D309BB236
:105A30004FF6FF72934207D13B695B7A03F0010393
:105A4000DBB2002B40F0C980684B1A883B69B3F881
:105A50000B309BB29A4200F0C2803869FFF700FF1A
:105A60000346002B40F0BD803B695B7A03F00803DE
:105A7000DBB2002B7DD07B68D3F88130FB603B69C3
:105A8000B3F80D309BB21846594B98470346FB724A
:105A90000023FB753B69B3F805309BB24FF6FF72EC
:105AA000934248D1FB7A002B22D0FB685B78C3F38A
:105AB0000303DBB2002BCCBF01230023FB75FB6883
:105AC0005B78C3F30303DBB20F3303F00F03D9B2E8
:105AD000FA68537861F303035370FB681B78C3F3D0
:105AE0000313D9B2FA68137861F3030313702CE03F
:105AF000FB681B78C3F30303DBB2002BCCBF01238D
:105B00000023FB75FB681B78C3F30303DBB20F3381
:105B100003F00F03D9B2FA68137861F3030313702B
:105B2000FB685B78C3F30313D9B2FA68537861F367
:105B30000303537009E0FB7A002B06D00123FB75A9
:105B40003A69537A43F004035372FB7D002B02D071
:105B50007868284B9847FB7A002B43D07B68D3F8B2
:105B600081309A1C7B68C3F881207B6822221A70DE
:105B700038E03B69B3F805309BB24FF6FF729342B1
:105B800011D11A4B1A883B69B3F80D309BB29A4277
:105B900009D03B695B7A03F00403DBB2002B02D12E
:105BA0007868144B9847114B1A883B69B3F80D304D
:105BB0009BB29A4207D03B69B3F80D309BB24FF6C7
:105BC000FF7293420ED17B6822221A700AE000BF56
:105BD00008E000BF06E000BF04E000BF02E000BF35
:105BE00000E000BF1837BD4680BD00BFB01F0020D9
:105BF0008D5400008563000080B588B000AF7860E8
:105C00007B680233FB61FB69DB7BC3F30313DBB20D
:105C10005E4A023352F82330002B01D10023B1E059
:105C2000FB69B3F80B309BB2BB81FB69B3F80D3055
:105C30009BB2FB81FB69DB7BC3F30303DBB23B74E9
:105C4000FB69DB7BC3F30313DBB27B747B68D3F8A4
:105C500081307B617868FFF761FC03463B767B68A7
:105C600093F885307B767B6893F98630BB76FB6949
:105C70005B7A03F00103DBB2002B14BF0123002386
:105C8000DBB29BB27B827B8A1AB2FB695B7A1BB266
:105C900003F002031BB213431BB29BB27B827B8ACD
:105CA0001AB2FB695B7A03F00403DBB2002B01D06C
:105CB000202300E0002313431BB29BB27B827B8A2C
:105CC0001AB2FB695B7A03F00803DBB2002B01D048
:105CD000402300E0002313431BB29BB27B827B8AEC
:105CE0001AB2FB695B7A03F01003DBB2002B01D020
:105CF000802300E0002313431BB29BB27B827B8A8C
:105D00001AB2FB69B3F80D309BB24FF6FF718B42AC
:105D100001D1042300E0002313431BB29BB27B821A
:105D20007B8A1AB2FB69B3F80B3099B2FB69B3F8FE
:105D300007309BB2994201D1082300E000231343AE
:105D40001BB29BB27B827B8A1AB2FB69B3F8033029
:105D50009BB24FF6FF718B4201D1102300E000236C
:105D600013431BB29BB27B82FB69DB7BC3F3031340
:105D7000DBB2064A023352F8233007F10C02104618
:105D80009847034618462037BD4680BDB01F002007
:105D900080B588B000AF78607B680233FB617B68B8
:105DA00024221A701C4B9B68002B01D100232EE08B
:105DB0007B68B3F807309BB2BB817B68B3F80730D0
:105DC0009BB2FB8100233B7400237B747B68D3F878
:105DD00081307B617868FFF7A1FB03463B767B68E7
:105DE00093F885307B767B6893F98630BB76802389
:105DF0007B82FB69DB7BC3F30313DBB2064A02330E
:105E000052F8233007F10C02104698470346184613
:105E10002037BD4680BD00BFB01F002080B586B0D2
:105E200000AF78607B6824221A70164B9B68002BA9
:105E300001D1002321E000233B8100237B8100234B
:105E40003B7300237B737B6802333B617868FFF709
:105E500065FB03463B757B6893F885307B757B68F3
:105E600093F98630BB754FF48073FB81054B9B68BB
:105E700007F1080210469847034618461837BD46F2
:105E800080BD00BFB01F002080B588B000AF786033
:105E90007B680233FB617B6824221A70164B5B69B6
:105EA000002B01D1002322E00023BB810023FB81D2
:105EB00000233B7400237B747B68D3F881307B61C3
:105EC0007868FFF72BFB03463B767B6893F88530B9
:105ED0007B767B6893F98630BB764FF400737B82C8
:105EE000054B5B6907F10C021046984703461846BC
:105EF0002037BD4680BD00BFB01F002080B588B0F0
:105F000000AF78607B680233FB617B6824221A70E3
:105F1000164B9B69002B01D1002322E00023BB819B
:105F20000023FB8100233B7400237B747B68D3F840
:105F300081307B617868FFF7F1FA03463B767B6836
:105F400093F885307B767B6893F98630BB764FF487
:105F500080437B82054B9B6907F10C0210469847F2
:105F6000034618462037BD4680BD00BFB01F002045
:105F700080B584B000AF7860244B00221A70786836
:105F8000FFF73AFE0346FB737B68DB7A03F00103FD
:105F9000DBB2002B01D10023FB737B68B3F8073021
:105FA0009BB24FF6FF72934210D1194B1A887B684F
:105FB000B3F80F309BB29A4208D17B68DB7A03F0CA
:105FC0000803DBB2002B01D10123FB737B68B3F81C
:105FD00005309BB24FF6FF72934201D10023FB7351
:105FE0000B4B1B884FF6FF72934201D10023FB73CA
:105FF000FB7B002B02D07868FFF786FB7B682422AE
:106000001A7000BF1037BD4680BD00BFB817002012
:10601000B01F002080B582B000AF00237B6035E068
:106020007B681B78203B082B30D801A252F823F064
:10603000556000008D6000005D6000008D60000014
:10604000656000006D600000756000007D6000000C
:10605000856000007868FFF7A9FC17E07868FFF713
:1060600087FF13E078680F4B98470FE07868FFF7D9
:106070008FFE0BE07868FFF7D1FE07E07868FFF746
:1060800003FF03E07868FFF739FF00BF7868064B2D
:10609000984778607B68002BC2D100BF0837BD46A7
:1060A00080BD00BF655300009153000080B400AF75
:1060B0000C4B00221A600C4B32229A600A4B0022D1
:1060C0001A73094B094A1A61094B0A229A60084B54
:1060D00000221A73064B074A1A6100BFBD4680BCF6
:1060E000704700BFD0170020D4170020CD640000F7
:1060F000E81700206165000080B485B000AF7860CB
:106100007B680233FB607B6813221A707B68002275
:1061100083F885207B68002283F88620002283F89C
:106120008720FB6800221A70002262F07F025A70FA
:106130000C4B5B790133DAB20A4B5A71094B5A792D
:10614000FB689A70074B5A88FB68A3F80320054B3D
:106150001A88FB68A3F8052000BF1437BD4680BC31
:10616000704700BFB01F002080B485B000AF7860DA
:106170007B680233FB607B6813221A707B68002205
:1061800083F885207B68002283F88620002283F82C
:106190008720FB680C221A70114B5B790133DAB24D
:1061A0000F4B5A710E4B5A79FB685A70FA68937804
:1061B0006FF302039370FA6893786FF3C4039370DC
:1061C000FA6893786FF345139370FA6893786FF3D6
:1061D0008613937000BF1437BD4680BC704700BF64
:1061E000B01F002080B485B000AF78600B467B8084
:1061F0007B680233FB607B6813221A707B68002285
:1062000083F885207B68002283F88620002283F8AB
:106210008720B7F90230002B03DAFB68CC221A7012
:1062200010E07B8803F40053002B03D0FB684C2262
:106230001A7007E07B8803F48043002B02D0FB68D0
:106240008C221A70114B5B790133DAB20F4B5A7101
:106250000E4B5A79FB685A70FA6893786FF3020311
:106260009370FA6893786FF3C4039370FA68937825
:106270006FF345139370FA6893786FF386139370F6
:1062800000BF1437BD4680BC704700BFB01F002060
:1062900080B584B000AF78607B680233FB607B68B8
:1062A00093F8883003F00203002B03D07B6812229E
:1062B0001A7002E07B6812221A707B68002283F851
:1062C00085207B6893F8883003F00103002B07D00A
:1062D000FB684FF0FF32DA704FF0FF321A7104E0C2
:1062E000264B5A88FB68A3F80320FB68B3F80D30EF
:1062F0009AB2FB68A3F80520204B1A88FB68A3F824
:1063000007201E4B5B790133DAB21C4B5A711B4BD1
:106310005A79FB689A70FB68B3F805309BB24FF668
:10632000FF72934215D1FB68002242F041021A70BD
:10633000002262F077025A70114B984703469BB2D5
:1063400003F007039BB201339AB27B68A3F886205F
:106350000FE0FB68002242F041021A70002262F056
:1063600077025A707B68002283F88620002283F827
:10637000872000BF1037BD4680BD00BFB01F002082
:10638000891E010080B584B000AF7860324B984719
:10639000F860FB68002B5BD0FB68D3F8813003F119
:1063A0001002FB68C3F88120FB6812221A707B6818
:1063B0005A78FB685A70FB68002283F88520274BC7
:1063C000984703469BB203F007039BB201339AB28E
:1063D000FB68A3F88620FB68002283F8892000224E
:1063E00083F88A20002283F88B20002283F88C20F7
:1063F000FB68981C7B68991C7B685B781A46184B75
:106400009847FB68002242F041029A70002262F035
:106410007702DA70FB684FF0FF32DA714FF0FF322B
:106420001A727B68B3F805309AB2FB68A3F80520AE
:106430000C4B1A88FB68A3F809200A4B5B790133DF
:10644000DAB2084B5A71074B5A79FB681A7100E0AF
:1064500000BF1037BD4680BDE5510000891E010018
:10646000911C0100B01F002080B584B000AF78609F
:106470007B689B68BB600023FB607B681B7B032BF6
:1064800015D000231BE0FB681B78162B0FD1FB688F
:106490001A7BBB685B789A4209D1FB6817221A7095
:1064A000BB689A78FB6883F88820012307E0F868C6
:1064B000054B9847F860FB68002BE4D10023184691
:1064C0001037BD4680BD00BF9153000080B584B039
:1064D00000AF78600023FB600023FB7218E0FB68CC
:1064E0001B78162B14D10123FB72FB68B3F886309E
:1064F0009BB2013B9AB2FB68A3F88620FB68B3F815
:1065000086309BB2002B03D11021F86800F016F8FA
:10651000F868084B9847F860FB68002BDFD1FB7ADE
:10652000002B02D07868044B984700BF1037BD4657
:1065300080BD00BF91530000156F000080B483B090
:1065400000AF78600B46FB707B6817221A707B687F
:10655000FA7883F8852000BF0C37BD4680BC7047B1
:1065600080B584B000AF78600023FB600023FB722D
:1065700017E0FB681B78112B13D10123FB72FB681A
:10658000B3F886309BB2013B9AB2FB68A3F8862031
:10659000FB68B3F886309BB2002B02D1FB68132254
:1065A0001A70F868074B9847F860FB68002BE0D139
:1065B000FB7A002B02D07868034B984700BF103756
:1065C000BD4680BD91530000156F000080B483B0BC
:1065D00000AF0346FB71FB79012B05D0022B05D0E0
:1065E000002B05D1002304E0202302E0212300E05A
:1065F000012318460C37BD4680BC704790B583B068
:1066000000AF0346FB710E4B1C68FB791846FFF781
:10661000DDFF034684F88530094B1B6815221A708C
:10662000074B00221A60074BB3F84830013B9AB27F
:10663000044BA3F8482000BF0C37BD4690BD00BFF7
:10664000D0170020B01F002080B582B000AF00231B
:106650007B607BE07B681B78123B052B75D801A221
:1066600052F823F07D6600009F6600004D67000031
:10667000D56600004D6700002D6700007B68B3F809
:1066800086309BB2002B06D07B6811221A703548E9
:10669000354B98475AE07B6813221A7056E0334B0B
:1066A0001B68002B52D1314A7B6813607B6814222F
:1066B0001A707B689A1C7B685B78194610462C4BD5
:1066C00098472C4BB3F8483001339AB2294BA3F8C2
:1066D00048203BE07B6893F88530002B22D17B6813
:1066E000B3F80D309AB2234B1B889A4216D17B68BF
:1066F000DB7A03F00103DBB2002B0FD07B6816229C
:106700001A707B68002242F0150283F8862000226E
:1067100083F887201848144B984706E07B681722B7
:106720001A7013E07B6817221A700FE07B68D3F8A9
:106730008930002B03D17868104B984706E07B68BE
:10674000D3F889307868984700E000BF78680C4B30
:10675000984778607B68002B7FF47CAF00BF0837D8
:10676000BD4680BDE8170020156F0000D01700203F
:10677000696A0000B01F0020D41700206553000094
:106780009153000080B48DB000AF78600B46FB7071
:106790007B68FB62FB7887F82B3097F82B30002B57
:1067A00017D0FB6A7B627B6A3B623B6A5B09FB61D9
:1067B000FB6903F5001303F5E1635B021946FB6A0D
:1067C000BB61BB6903F01F03012202FA03F34B65AF
:1067D00016E0FB6A7B617B693B613B695B09FB609F
:1067E000FB6803F5001303F5E1635B021946FB6ADE
:1067F000BB60BB6803F01F03012202FA03F38B6541
:1068000000BF3437BD4680BC704780B582B000AF52
:106810001B4B98471B4B98471B4B00221A701B4B76
:1068200001221A700821022000F0BCF9012000F0BA
:10683000CDF9034603F01F03082BF3D12E210420CA
:1068400000F0B0F9A0210C2000F0ACF905210D20DA
:1068500000F0A8F9042000F0B9F90346FB71FB79B8
:1068600063F07F03DBB21946042000F09BF901219D
:106870000B20FFF787FF00BF0837BD4680BD00BF74
:10688000CD7F00008180000080180020FC170020D0
:1068900080B584B000AF0346FB712E2000F096F95E
:1068A0000346FB73FB79002B0CD00E212C2000F04B
:1068B00079F9FB7B43F01003DBB219462E2000F080
:1068C00071F90CE038212C2000F06CF9FB7B23F0EF
:1068D0001003FB73FB7B19462E2000F063F900BF09
:1068E0001037BD4680BD80B582B000AF0346FB7156
:1068F000044AFB79137000F08EF900BF0837BD46DB
:1069000080BD00BF8018002080B584B000AF034672
:10691000FB71082000F05AF9034623F01F03FB73B4
:10692000FA7BFB791343DBB21946082000F03AF9F1
:1069300000BF1037BD4680BD80B584B000AF0346B0
:10694000FB80BB1DFB60FB681B781946222000F012
:1069500029F9FB6801331B781946232000F022F93E
:1069600000BF1037BD4680BD80B584B000AF034680
:10697000FB80BB1DFB60FB681B781946202000F0E4
:1069800011F9FB6801331B781946212000F00AF940
:10699000FB681A78FB6801331B781344DBB2194695
:1069A0002D2000F0FFF800BF1037BD4680BD80B538
:1069B00084B000AF0346FB71052000F007F90346E1
:1069C00023F00F03FB73FA7BFB791343DBB2194609
:1069D000052000F0E7F800BF1037BD4680BD80B548
:1069E00082B000AF174B1B78022B09D0082000F0B3
:1069F00025F901210920FFF7C5FE124B02221A706A
:106A00000D2000F0E3F80346FB71FB7923F0070348
:106A1000DBB219460D2000F0C5F8042000F0D6F8CE
:106A20000346FB71FB7903F07F03DBB219460420B8
:106A300000F0B8F800210B20FFF7A4FE00BF0837D4
:106A4000BD4680BDFC17002080B500AF00210920A5
:106A5000FFF798FE00F0DFF8024B01221A7000BF2A
:106A600080BD00BFFC17002080B582B000AF786009
:106A70000B46FB7000210B20FFF784FE192000F06D
:106A8000DDF80F2000F0A2F87B681B780233DAB241
:106A90007B681A70FB7819467868094B9847094B50
:106AA00003221A7001210920FFF76CFE00BF00BF0E
:106AB00000210920FFF766FE00BF0837BD4680BDF4
:106AC000CD820000FC17002080B582B000AF00230B
:106AD000FB80062000F0B2F800237B7118E0042050
:106AE000104B9847062000F071F803465B09DBB2B3
:106AF00003F003033B713A797B7902FA03F31AB28C
:106B0000B7F9063013431BB2FB807B7902337B71EC
:106B10007B790F2BE3D900F07EF8FB881846083705
:106B2000BD4680BD7500002080B582B000AF7860A2
:106B30003960002200213868064B984700217868A8
:106B4000054B98477868054B984700BF0837BD4606
:106B500080BD00BF0D75000029770000A9770000F7
:106B600080B582B000AF062000F068F80021072051
:106B700000F018F800BF0F2000F028F8034603F0DB
:106B80001003002BF7D0072000F020F80346FB711C
:106B900000F041F8FB795B3BDBB25BB2184608378B
:106BA000BD4680BD80B582B000AF03460A46FB718A
:106BB0001346BB71BA79FB7911461846024B9847C8
:106BC00000BF0837BD4680BD3181000080B584B06C
:106BD00000AF0346FB71FB791846044B9847034608
:106BE000FB73FB7B18461037BD4680BDBD8000009F
:106BF00090B583B000AF0346FB7100BFFC79012064
:106C0000FFF7E4FF034603F01F039C42F6D100BFE9
:106C10000C37BD4690BD80B500AF082000F00EF8DF
:106C20000F20FFF7D3FF044B1B78002B02D0162058
:106C300000F004F800BF80BD8018002090B585B03A
:106C400000AF0346FB71204B1B78022B1DD10D209A
:106C5000FFF7BCFF0346FB73FB7B43F00503DBB28E
:106C600019460D20FFF79EFF0420FFF7AFFF0346F4
:106C7000FB73FB7B63F07F03DBB219460420FFF755
:106C800091FF01210B20FFF77DFD03210220FFF77B
:106C900089FF0120FFF79AFF034603F01F03082B2B
:106CA000F3D1FB7919460220FFF77CFFFC79012024
:106CB000FFF78CFF034603F01F039C42F1D100BF96
:106CC0001437BD4690BD00BFFC17002080B584B0CE
:106CD00000AF78607B68FB600023FB720EE0FB7AFC
:106CE0002433DAB2FB681B7819461046074B9847E5
:106CF000FB680133FB60FB7A0133FB72FB7A072BE5
:106D0000EDD900BF1037BD4680BD00BF3181000006
:106D100080B584B000AF364B1B78022B63D00F20B8
:106D2000FFF754FF034603F00803002B5CD0304B01
:106D30001B78012B28D10720FFF748FF0346BB73C0
:106D4000FB1C012118462B4B9847FB780233DBB222
:106D500019462948274B9847284B7B60FB78023B14
:106D6000DBB23B72FB780133234AD35C7B72BB7B83
:106D70005B3BDBB25BB2BB723B1D1846204B9847B6
:106D80001620FFF735FF2FE0194B1B78032B2BD173
:106D900001210B20FFF7F6FC0220FFF717FF034647
:106DA0005B09DBB203F00703FB73FB7B002B02D113
:106DB0000023FB730DE0FB7B032B02D10123FB734C
:106DC00007E0FB7B052B02D10223FB7301E00323C9
:106DD000FB73FFF720FF064B01221A70FB7B18465E
:106DE000084B984700E000BF1037BD4680BD00BF8C
:106DF000FC1700206182000000180020011800200C
:106E0000A9550000FD65000080B500AF044B984710
:106E1000044B9847044B9847044B984700BF80BDEC
:106E2000D56E0000017500000B680000354A0000B7
:106E300080B500AF034B9847034B9847034B9847E7
:106E400000BF80BD116D0000F94B0000E96F00002C
:106E500080B483B000AFEFF310833B603B68002B3E
:106E60000CBF01230023DBB27B6072B6BFF35F8FE0
:106E7000044B00221A707B6818460C37BD4680BC54
:106E8000704700BFA401002080B483B000AF7860D9
:106E90007B68002B14BF01230023DBB218460C379C
:106EA000BD4680BC704780B582B000AF786078681E
:106EB000FFF7EAFF0346002B05D0054B01221A70AD
:106EC000BFF35F8F62B600BF0837BD4680BD00BF0D
:106ED000A401002080B500AF084B00221A700848BA
:106EE000084B9847084B984742F21070074B984759
:106EF000074B00221A6000BF80BD00BFFC1F0020AE
:106F000035710000351C0100911B0100F91A0100C8
:106F10008418002080B582B000AF7860786800F0F7
:106F200047F8034683F00103DBB2002B02D07868F8
:106F300000F0AEF800BF0837BD4680BD80B485B014
:106F400000AF78600023FB60184B1B68BB6022E039
:106F5000BA687B689A4219D1FB68002B04D0BB68E1
:106F60001A68FB681A6003E0BB681B680F4A13606D
:106F7000BB681B68002B12D0BB681B68BA6812681C
:106F800051687A6852680A445A6008E0BB68FB603E
:106F9000BB681B68BB60BB68002BD9D100E000BF99
:106FA00000BF1437BD4680BC704700BF8418002066
:106FB00080B485B000AF78600A4B1B68FB6008E0C6
:106FC000FA687B689A4201D1012306E0FB681B68DE
:106FD000FB60FB68002BF3D1002318461437BD4635
:106FE00080BC70478418002080B584B000AF264B69
:106FF0001B78DBB2002B42D0FFF72AFFB860224B90
:107000001B78FB71204B00221A70B868FFF74BFF0A
:10701000FA7913469B0013445B00FB6018E01B4B9E
:107020001B683B60194B1B685B68FA68D31AFB60EE
:10703000164B1B681B68154A13603B681B7B012BB2
:1070400002D1386800F024F83B681B69386898471B
:107050000E4B1B68002B05D00C4B1B685A68FB6855
:107060009A42DCD9094B1B68002B09D0074B1B68DF
:10707000064A12685168FA688A1A5A6000E000BF2E
:107080001037BD4680BD00BFFC1F002084180020C3
:1070900080B487B000AF7860254B1B68002B37D0D9
:1070A00000237B617B689B683B61214B1B68FB6015
:1070B00015E0FB685A683B699A4206D9FB685A6832
:1070C0003B69D21AFB685A600CE0FB685B683A695E
:1070D000D31A3B61FB687B61FB681B68FB60FB6844
:1070E000002BE6D17B683A695A607B69002B07D098
:1070F0007B691A687B681A607B697A681A6011E09C
:107100000B4B1A687B681A60094A7B68136009E0B8
:107110007B6800221A607B689A687B685A60044A20
:107120007B68136000BF1C37BD4680BC704700BF42
:107130008418002080B500AF064B1B78DBB201330A
:10714000DAB2044B1A7042F21070034B984700BF3A
:1071500080BD00BFFC1F0020F91A010080B483B07D
:1071600000AF0346FB71084997F907305B09FA79CC
:1071700002F01F02012000FA02F241F8232000BFB2
:107180000C37BD4680BC704700E100E080B483B09E
:1071900000AFEFF310833B603B68002B0CBF012373
:1071A0000023DBB27B6072B6BFF35F8F044B00221B
:1071B0001A707B6818460C37BD4680BC704700BF0C
:1071C000A401002080B483B000AF78607B68002BFE
:1071D00014BF01230023DBB218460C37BD4680BC28
:1071E000704780B582B000AF78607868FFF7EAFF3B
:1071F0000346002B05D0054B01221A70BFF35F8FA9
:1072000062B600BF0837BD4680BD00BFA4010020A4
:1072100080B500AF00210348034B984703469BB25B
:10722000184680BD0000014099B5000080B500AF50
:10723000FFF7ACFF0346DBB2184680BD80B582B0D5
:1072400000AF0346FB71FB791846FFF7CAFF00BF8A
:107250000837BD4680BD80B500AF00210248034B12
:10726000984700BF80BD00BF0000014079B5000015
:1072700080B582B000AF0346FB80FB881A46002130
:107280000348044B984700BF0837BD4680BD00BF88
:107290000000014061B6000080B582B000AF164822
:1072A000164B98471448164B98470246154BA3FBBC
:1072B00002239B0CFB71FB795B08FB7148F2010216
:1072C00000210D48104B984700210B4800F060F852
:1072D000002109480D4B98470122002106480C4B1C
:1072E000984700F019F8002103480A4B9847FB79AA
:1072F00018460837BD4680BD0000014065DD00002E
:1073000009DB000083DE1B43C5B40000F3B60000B8
:1073100085B6000059B5000080B500AF00210548D2
:10732000054B9847102200210248044B984700BFA4
:1073300080BD00BF00000140F3B60000ABB6000006
:1073400080B500AF00210548054B98471022002169
:107350000248044B984700BF80BD00BF00000140B9
:10736000F3B6000085B6000080B500AF00210548E7
:10737000054B9847012200210248044B984700BF63
:1073800080BD00BF00000140F3B60000ABB60000B6
:1073900080B582B000AF78600B46FB707B681B4AFB
:1073A000934213D1FB78012B08D0022B0AD0002B7B
:1073B00000D023E03720FFF7D1FE1FE03820FFF791
:1073C000CDFE1BE03920FFF7C9FE17E07B68104AAD
:1073D000934213D1FB78012B08D0022B0AD0002B4B
:1073E00000D00BE03A20FFF7B9FE07E03B20FFF7A3
:1073F000B5FE03E03C20FFF7B1FE00BF054B064A97
:107400001A6000BF0837BD4680BD00BF00000140C4
:1074100000400140AC1F00201D74000080B582B008
:1074200000AF00210E480F4B9847786000210C48B0
:107430000D4B984702467B6813407B607B6803F0E6
:107440001003002B01D0094B98477B6803F0010320
:10745000002B01D0064B984700BF0837BD4680BDC2
:1074600000000140F3B60000D1B60000191C010075
:10747000B91B010080B500AF044B1B68002B02D084
:10748000024B1B68984700BF80BD00BFAC1F0020A7
:1074900080B500AF044B1B68002B02D0024B1B6869
:1074A000984700BF80BD00BFAC1F002080B500AF73
:1074B000044B1B68002B02D0024B1B68984700BF8F
:1074C00080BD00BFAC1F002080B500AF044B1B681F
:1074D000002B02D0024B1B68984700BF80BD00BF45
:1074E000AC1F002080B500AF044B1B68002B02D0FE
:1074F000024B1B68984700BF80BD00BFAC1F002037
:1075000080B400AF00BFBD4680BC7047B0B586B048
:1075100000AF78600B46FB701346BB707B68002B96
:107520001BD0584B00221A70574B02221A70574A30
:107530007B681446186859689A68DB680FC4544B16
:1075400010221A70534B102279681846524B9847F4
:1075500011224F498320514B9847BB78002B02D012
:10756000012B16D051E0484B1B78012B4FD1484BD3
:1075700010221A70474A454B14461D460FCD206015
:107580006160A260E360112241498320434B984728
:107590003DE03D4B1B78012B3BD03D4B10221A7038
:1075A000384B1B7883F00103DBB2002B1BD0384B28
:1075B00000221A70364B80225A74394B01221A70FD
:1075C00007F108030021184600F0AEF8304B1022F6
:1075D0001A7001222E498320304B984710223149DE
:1075E0008420314B98472B4A2E4B14461D460FCD15
:1075F00020606160A260E360112225498320274B4F
:107600009847204B01221A7003E0002336E000BFA8
:1076100000E000BF1C4ABB781370FB78002B01D040
:10762000022B2AD1FB781B015BB203F070035AB224
:10763000BB78DB005BB203F008035BB213435BB2C1
:10764000DAB2134B1A70FB781B015BB203F07003C4
:107650005AB2BB78DB005BB203F008035BB21343A2
:107660005BB263F07F035BB2DAB2094B5A7400BFBE
:107670000B4B01221A70012300E000231846183733
:10768000BD46B0BD891800207E000020A018002053
:107690008C1800208D180020911C010035830000FB
:1076A00088180020B0180020C983000080B582B07F
:1076B00000AF124B1B78002B02D1114B7B6001E015
:1076C000104B7B60104B1B78FB700F4B10221A7015
:1076D0000E4B1022796818460D4B984711220A4923
:1076E00083200C4B9847084AFB7813700A4B012201
:1076F0001A7000BF0837BD4680BD00BF7E00002065
:10770000A0180020B01800208C1800208D18002030
:10771000911C0100358300008818002080B400AF60
:1077200000BFBD4680BC704780B584B000AF7860B4
:107730003960174B102279681846164B9847164B3C
:107740005B7CFB73154B1B78002B08D0122212496F
:107750008320134B9847114B00221A7005E00C4B05
:107760001122194684200E4B98473B68002B05D008
:10777000074B102219463868064B9847064AFB7B90
:1077800053745320074B984700BF1037BD4680BD48
:107790008D180020911C01008C18002088180020F2
:1077A000698400007500002080B582B000AF786069
:1077B000102279688420034B984700BF0837BD46E4
:1077C00080BD00BFC983000080B483B000AFEFF379
:1077D00010833B603B68002B0CBF01230023DBB20E
:1077E0007B6072B6BFF35F8F044B00221A707B6818
:1077F00018460C37BD4680BC704700BFA40100206E
:1078000080B483B000AF78607B68002B14BF012385
:107810000023DBB218460C37BD4680BC704780B5EC
:1078200082B000AF78607868FFF7EAFF0346002B6C
:1078300005D0054B01221A70BFF35F8F62B600BFFF
:107840000837BD4680BD00BFA401002080B582B0CE
:1078500000AF0346FB7172B6BFF35F8F054B00228A
:107860001A70FB7919460448044B984700BF083743
:10787000BD4680BDA401002000000F401B95000004
:1078800080B483B000AF0023FB7106E0FB79084AA7
:107890000021D154FB790133FB71FB79062BF5D91B
:1078A000034B0122DA7100BF0C37BD4680BC704724
:1078B0005821002080B584B000AF0346FB71FFF76C
:1078C00083FFF860FB79064AD25C0132D1B2044AE8
:1078D000D154F868FFF7A3FF00BF1037BD4680BD45
:1078E0005821002080B483B000AF0023FB71094B06
:1078F0003B6005E03B6801333B60FB790133FB7182
:107900003B681B78002BF5D0FB7918460C37BD4639
:1079100080BC70475821002080B582B000AF72B69D
:10792000BFF35F8F0B4B00221A70FFF7DBFF03469C
:10793000FB71FB79002B06D1064B01221A70BFF3B5
:107940005F8F62B603E0FB791846FFF77FFF0837C9
:10795000BD4680BDA401002080B483B000AF786034
:107960007B685B6818460C37BD4680BC704780B5A5
:1079700082B000AF0346FB71FB79062B22D801A22F
:1079800052F823F0A1790000A7790000AD7900003A
:10799000B3790000B9790000BF790000C579000013
:1079A0000B4B98470FE00B4B98470CE00A4B98475E
:1079B00009E00A4B984706E0094B984703E0094B5A
:1079C000984700E000BF00BF0837BD4680BD00BF3C
:1079D00035F00000A5F000001DF1000005F20000E8
:1079E00079F2000091F1000080B483B000AF03464B
:1079F000FB71FB79062B4FD801A252F823F000BF90
:107A00001D7A0000317A0000457A0000597A0000A2
:107A10006D7A0000817A0000957A0000214B5B6945
:107A200003F00103002B14BF01230023DBB234E079
:107A30001D4B5B6903F00103002B14BF01230023DE
:107A4000DBB22AE0184B5B6A03F00103002B14BF82
:107A500001230023DBB220E0124B1B6D03F0010376
:107A6000002B14BF01230023DBB216E00D4B9B6CEF
:107A700003F00103002B14BF01230023DBB20CE051
:107A8000094B9B6D03F00103002B14BF012300235E
:107A9000DBB202E0012300E0002318460C37BD46AC
:107AA00080BC704700080E4000040F4080B582B0D3
:107AB00000AF0346FB7100BFFB791846FFF794FF48
:107AC000034683F00103DBB2002BF5D100BF08377A
:107AD000BD4680BD80B500AF00210448044B9847E7
:107AE00000210248034B984700BF80BD00080F40AB
:107AF000918E0000158F000090B587B002AF022074
:107B0000FFF772FF034683F00103DBB2002B05D0C1
:107B10000220FFF72CFF0220FFF7C8FF1348144B89
:107B2000984700233B7101237B710E23BB71002317
:107B3000BB603B1D19460D480E4B984700210B4872
:107B40000D4B9847002109480C4B9847012300939F
:107B500027230B4A002105480A4CA047002103486F
:107B6000094B984700BF1437BD4690BD00080F4031
:107B70006D890000558A0000158F0000F18F00000C
:107B8000D57A0000998F0000918E000080B582B0F8
:107B900000AF0623FB71012109480A4B9847FFF704
:107BA000ABFF02210648084B9847FFF769FEFB79B7
:107BB0001846FFF77FFE00BF0837BD4680BD00BFF7
:107BC00000000F4055930000B393000080B582B0D1
:107BD00000AF78600D48FFF7BFFE02460C4B1A60FD
:107BE0000B4B1A687B6813440A4A1360094B1B68E5
:107BF00019460648084B984700210448074B984708
:107C0000FFF78AFE00BF0837BD4680BD00080F4061
:107C10000420002000200020A58D00000D8E000013
:107C200080B483B000AF0346FB71084997F9073071
:107C30005B09FA7902F01F02012000FA02F241F812
:107C4000232000BF0C37BD4680BC704700E100E038
:107C500080B483B000AF0346FB71094997F9073040
:107C60005B09FA7902F01F02012000FA02F22033C8
:107C700041F8232000BF0C37BD4680BC704700BFD1
:107C800000E100E080B483B000AFEFF310833B600D
:107C90003B68002B0CBF01230023DBB27B6072B674
:107CA000BFF35F8F044B00221A707B6818460C37B5
:107CB000BD4680BC704700BFA401002080B483B0E3
:107CC00000AF78607B68002B14BF01230023DBB278
:107CD00018460C37BD4680BC704780B582B000AFF7
:107CE00078607868FFF7EAFF0346002B05D0054B64
:107CF00001221A70BFF35F8F62B600BF0837BD461E
:107D000080BD00BFA401002080B483B000AF7860C4
:107D10007B6801221A6000BF0C37BD4680BC7047EB
:107D200080B483B000AF78607B689B689BB21846D4
:107D30000C37BD4680BC704780B483B000AF78601C
:107D40007B681B6903F40073002B01D0012300E062
:107D5000002318460C37BD4680BC704780B582B002
:107D600000AF786039607868FFF7DAFF0346DAB26F
:107D70003B681A7000BF0837BD4680BD80B495B01F
:107D800000AF78600B46FB707B68FB64FB7887F87C
:107D90004B3097F84B30012B2FD1FB6C7B647B6C05
:107DA0003B643B6C5B09FB63FB6B03F5001303F562
:107DB000E1635B021946FB6CBB63BB6B03F01F0303
:107DC000012202FA03F34B64FB6C7B637B6B3B6326
:107DD0003B6B5B09FB62FB6A03F5001303F5E16390
:107DE0005B021946FB6CBB62BB6A03F01F030122F6
:107DF00002FA03F3C1F8683132E097F84B30002BF8
:107E00002ED1FB6C7B627B6A3B623B6A5B09FB6148
:107E1000FB6903F5001303F5E1635B021946FB6C94
:107E2000BB61BB6903F01F03012202FA03F38B64F9
:107E3000FB6C7B617B693B613B695B09FB60FB68B9
:107E400003F5001303F5E1635B021946FB6CBB60AD
:107E5000BB6803F01F03012202FA03F3C1F8643187
:107E600000BF5437BD4680BC704780B48DB000AFB2
:107E700078600B46FB707B68FB62FB7887F82B30E1
:107E800097F82B30002B17D0FB6A7B627B6A3B6232
:107E90003B6A5B09FB61FB6903F5001303F5E163D2
:107EA0005B021946FB6ABB61BB6903F01F03012239
:107EB00002FA03F34B6516E0FB6A7B617B693B6169
:107EC0003B695B09FB60FB6803F5001303F5E163A5
:107ED0005B021946FB6ABB60BB6803F01F0301220B
:107EE00002FA03F38B6500BF3437BD4680BC704790
:107EF00080B48DB000AF78600B46FB707B68FB628E
:107F0000FB7887F82B30FB6A7B627B6A5A09FB6A35
:107F10003B623B6A03F01F03012101FA03F3FA619C
:107F2000BB6197F82B30FB75FB693B613B6903F53F
:107F3000001303F5E1635B02FB60FB7D03F00103CB
:107F4000002B04D0FB68BA69C3F8A42003E0FB68E7
:107F5000BA69C3F8A820FB7D03F00203002B04D00C
:107F6000FB68BA69C3F8B42003E0FB68BA69C3F8D8
:107F7000B82000BF3437BD4680BC704780B584B0A0
:107F800000AF1423BB60BB687B607B685B093B6010
:107F90003B6803F5001303F5E1635B021946142304
:107FA000FB60FB6803F01F03012202FA03F3C1F830
:107FB000D830054B1B68002B02D0034B1B68984739
:107FC00000BF1037BD4680BDC018002090B58BB0F3
:107FD00002AF2648264B984700230093254B0022EA
:107FE00025492248254CA0472048FFF78DFE002157
:107FF0001420FFF7C3FE01211420FFF779FF14239B
:10800000BB60BB687B607B685B093B603B6803F5DA
:10801000001303F5E1635B0219461423FB60FB6860
:1080200003F01F03012202FA03F3C1F89430142372
:10803000BB61BB697B617B695B093B613B6903F5A4
:10804000001303F5E1635B0219461423FB61FB692E
:1080500003F01F03012202FA03F3C1F8A4301B202E
:10806000FFF7DEFD00BF2437BD4690BD0080004015
:1080700041F60000C0C62D008000002099F60000E7
:1080800080B500AF01210A20FFF7EFFE0021092093
:10809000FFF7EBFE40F26C40074B984700210A20A7
:1080A000FFF7E3FE2320044B984701210A20FFF746
:1080B000DCFE00BF80BD00BF7500002080B584B02D
:1080C00000AF0346FB710023BB73FFF7DBFD0346E4
:1080D000FB73FB7963F07F03DBB2FB710E490F4842
:1080E0000F4B9847FB1D012219460C480D4B984732
:1080F00007F10E030122194608480B4B9847064921
:1081000006480A4B9847FB7B1846FFF7E6FDBB7B0A
:1081100018461037BD4680BD80000020008000401A
:1081200049F70000D1F700003DF800009DF700007E
:1081300080B584B000AF03460A46FB711346BB719D
:10814000FFF7A0FD0346FB73FB7963F03F03DBB24F
:10815000FB710E490E480F4B9847FB1D0122194633
:108160000B480D4B9847BB1D0122194608480A4B86
:10817000984706490648094B9847FB7B1846FFF786
:10818000ACFD00BF1037BD4680BD00BF80000020A1
:108190000080004049F70000D1F700009DF7000083
:1081A00080B483B000AF78607B68034A136000BF7F
:1081B0000C37BD4680BC7047C018002080B584B025
:1081C00000AF0346FB710B46BB7113467B71FB7915
:1081D0001846FFF773FF0346FB73FA7BBB79134026
:1081E000FB73FA7B7B7942FA03F3FB73FB7B184644
:1081F0001037BD4680BD90B585B000AF0446084637
:1082000011461A462346FB710346BB710B467B7130
:1082100013463B71FB791846FFF750FF0346FB738B
:1082200097F90630DB435AB297F90F3013405BB22F
:10823000FB733A797B7902FA03F33B713A79BB79A4
:1082400013403B713A79FB7B13433B713A79FB79DD
:1082500011461846FFF76CFF00BF1437BD4690BDAE
:1082600080B584B000AF78600B46FB70FFF70AFD65
:108270000346FB730F491048104B98472023BB73EC
:1082800007F10E03012219460B480D4B9847FB7866
:108290001A46796808480B4B9847064906480A4B26
:1082A0009847FB7B1846FFF718FD00BF1037BD4607
:1082B00080BD00BF800000200080004049F7000022
:1082C000D1F700003DF800009DF7000080B584B0B4
:1082D00000AF78600B46FB70FFF7D4FC0346FB73DE
:1082E0000F491048104B98476023BB7307F10E03EA
:1082F000012219460B480D4B9847FB781A467968BE
:1083000008480A4B984706490648094B9847FB7BA3
:108310001846FFF7E2FC00BF1037BD4680BD00BF26
:10832000800000200080004049F70000D1F70000E5
:108330009DF7000080B584B000AF03463960FB7143
:108340001346BB71FFF79EFC0346FB7319491A489D
:108350001A4B98474023BB7307F10E0301221946BD
:108360001548174B984700BF1348FFF7E5FC034635
:10837000002BF9D0FB1D012219460F48104B9847DE
:1083800000BF0D48FFF7D8FC0346002BF9D0BB799E
:108390001A46396808480A4B984706490648094B67
:1083A0009847FB7B1846FFF798FC00BF1037BD4687
:1083B00080BD00BF800000200080004049F7000021
:1083C000D1F700009DF7000080B584B000AF0346F0
:1083D0003960FB711346BB7104201C4B9847FFF7B3
:1083E00051FC0346FB731A491A481B4B984700235C
:1083F000BB7307F10E03012219461648174B984725
:1084000000BF1448FFF798FC0346002BF9D0FB1D72
:10841000012219460F48114B984700BF0D48FFF73E
:108420008BFC0346002BF9D0BB791A463968094802
:108430000B4B9847064907480A4B9847FB7B184661
:10844000FFF74BFC00BF1037BD4680BD7500002014
:10845000800000200080004049F70000D1F70000B4
:108460003DF800009DF7000080B584B000AF0346E2
:108470003960FB711346BB7104202E4B98471B20BB
:10848000FFF7E6FB2C492D482D4B98474023FB7204
:1084900007F10B030122194628482A4B984700BFD1
:1084A0002648FFF749FC0346002BF9D0FB1D0122AB
:1084B00019462248234B984700BF2048FFF73CFC51
:1084C0000346002BF9D03B68FB603B685A1C3A60BE
:1084D0000122194619481B4B984718E03B685A1C63
:1084E0003A60012219461548164B984700BF1348B9
:1084F000FFF722FC0346002BF9D0FB685A1CFA60F8
:1085000019460E48FFF72AFCBB79013BBB71BB79CA
:10851000002BE3D10122F96808480B4B9847064924
:1085200006480A4B98471B20FFF77AFB00BF10371D
:10853000BD4680BD75000020800000200080004006
:1085400049F70000D1F700003DF800009DF700005A
:1085500080B400AFFEE7000080B582B000AF164BDC
:108560007B60164B3B607A683B689A420CD007E010
:108570003B681A1D3A607A68111D796012681A60AA
:108580003B680F4A9342F3D30E4B3B6004E03B68D9
:108590001A1D3A6000221A603B680B4A9342F6D3D8
:1085A0000A4B7B600A4A7B6823F07F039360094B88
:1085B0009847094B9847FEE7E47601000000002049
:1085C000580B0020600B0020982100200040000084
:1085D00000ED00E0411C0100E949000080B485B0D5
:1085E00000AF7860104BFB60104B1B68002B02D172
:1085F0000E4B0F4A1A600D4B1B68BB60BA687B6854
:108600001A44FB689A4202DD4FF0FF3306E0074B45
:108610001A687B681344054A1360BB681846143710
:10862000BD4680BC704700BFFC7F0020C4180020FE
:108630009831002080B483B000AF786039604FF08B
:10864000FF3318460C37BD4680BC704780B483B0FA
:1086500000AF78604FF0FF3318460C37BD4680BC42
:10866000704780B483B000AF786039603B684FF4E6
:1086700000525A60002318460C37BD4680BC704734
:1086800080B483B000AF7860012318460C37BD4634
:1086900080BC704780B485B000AFF860B9607A6084
:1086A000002318461437BD4680BC704780B582B0A1
:1086B00000AF786079680248024B9847FEE700BF38
:1086C000FC730100611E010080B483B000AF7860CC
:1086D000396000BF0C37BD4680BC704780B400AF26
:1086E0004FF0FF331846BD4680BC704780B483B05E
:1086F00000AF78607B681B680F4A13607B685B681B
:108700000E4A13607B689B680D4A13607B68DB68C8
:108710000C4A13607B681B690B4A13607B685B69BA
:108720000A4A13607B689B69094A13607B68DB69AE
:10873000084A1360FEE700BFC8180020CC180020CC
:10874000D0180020D4180020D8180020DC180020F1
:10875000E0180020E418002080B483B000AF034686
:10876000FB71084997F907305B09FA7902F01F029B
:10877000012000FA02F241F8232000BF0C37BD4669
:1087800080BC704700E100E080B483B000AF0346D6
:10879000FB71094997F907305B09FA7902F01F026A
:1087A000012000FA02F2603341F8232000BF0C37A9
:1087B000BD4680BC704700BF00E100E080B483B0DC
:1087C00000AF03463960FB7197F90730002B0BDAD5
:1087D0000D49FB7903F00F03043B3A68D2B2120152
:1087E000D2B20B441A7609E0084997F907303A6883
:1087F000D2B21201D2B20B4483F8002300BF0C376F
:10880000BD4680BC704700BF00ED00E000E100E025
:1088100080B483B000AFEFF310833B603B68002B64
:108820000CBF01230023DBB27B6072B6BFF35F8F06
:10883000044B00221A707B6818460C37BD4680BC7A
:10884000704700BFA401002080B483B000AF7860FF
:108850007B68002B14BF01230023DBB218460C37C2
:10886000BD4680BC704780B582B000AF7860786844
:10887000FFF7EAFF0346002B05D0054B01221A70D3
:10888000BFF35F8F62B600BF0837BD4680BD00BF33
:10889000A401002080B483B000AF78607B689B683F
:1088A00003F08053002B14BF01230023DBB21846D2
:1088B0000C37BD4680BC704780B483B000AF786091
:1088C0007B689B6803F08073002B14BF0123002397
:1088D000DBB218460C37BD4680BC704780B584B00B
:1088E00000AF0346FB71FFF793FFF860FB79064A80
:1088F000D25C0132D1B2044AD154F868FFF7B3FF19
:1089000000BF1037BD4680BD5821002080B584B01F
:1089100000AF0346FB71FFF77BFFF860FB79064A67
:10892000D25C013AD1B2044AD154F868FFF79BFFF8
:1089300000BF1037BD4680BD5821002080B582B0F1
:1089400000AF786000BF7868FFF7B6FF0346002BE2
:10895000F9D17B681B6803F00103002B14BF0123CE
:108960000023DBB218460837BD4680BD80B582B013
:1089700000AF78607868044B98470720FFF7AEFF98
:1089800000BF0837BD4680BD65DD000080B582B000
:1089900000AF786000BF7868FFF78EFF0346002BBA
:1089A000F9D17B681B6823F001027B681A6000BF65
:1089B0007868FFF781FF0346002BF9D17868044BF4
:1089C00098470720FFF7A2FF00BF0837BD4680BDCC
:1089D00073E1000080B582B000AF78600B46FB7099
:1089E00000BF7868FFF768FF0346002BF9D17B686A
:1089F0001A68FB78002B01D0002301E04FF480734C
:108A00001A437B681A6000BF7868FFF755FF03467A
:108A1000002BF9D100BF0837BD4680BD80B582B0BC
:108A200000AF786000BF7868FFF746FF0346002B71
:108A3000F9D17B681B6843F002027B681A6000BFB3
:108A40007868FFF739FF0346002BF9D100BF0837DC
:108A5000BD4680BD80B584B000AF7860396042F219
:108A60001073FB6007E0FB68013BFB60FB68002BB9
:108A700001D1002379E07868FFF70CFF0346002B53
:108A8000F1D13B685B781B021A467B681A6442F29C
:108A90001073FB6007E0FB68013BFB60FB68002B89
:108AA00001D1002361E07868FFF7F4FE0346002B54
:108AB000F1D17B681B6C43F001027B681A6442F2BF
:108AC0001073FB6007E0FB68013BFB60FB68002B59
:108AD00001D1002349E07868FFF7DCFE0346002B54
:108AE000F1D13B681B78012B06D13B689B781B04B6
:108AF00043F004027B681A603B681B78002B05D1A9
:108B00003B689B781B041A467B681A6000BF786834
:108B1000FFF7D2FE0346002BF9D13B681B78012BEF
:108B200004D13B689968786800F0FBF83B681B78D3
:108B3000002B05D13B685B681946786800F00BF99B
:108B400000BF7868FFF7B8FE0346002BF9D17B68B9
:108B50001B6843F001027B681A6000BF7868FFF76A
:108B6000ABFE0346002BF9D1012318461037BD4652
:108B700080BD80B58AB000AFF860B9607A607A686D
:108B8000BB689A4212D2BB689B003A4AA2FB0323FD
:108B90009A087B689A4201D9002366E0002387F88F
:108BA0002730BA687B68D31A7B6118E07A68BB68A3
:108BB0009A4212D9BB689B002F4AA2FB03235A0892
:108BC0007B689A4201D200234FE0012387F82730C7
:108BD0007A68BB68D31A7B6101E0012345E07A68BB
:108BE0007B69B2FBF3F3BB617B687A69B3FBF2F29A
:108BF000796901FB02F29A1A7B695B089A4202D9F1
:108C0000BB690133BB610223FB6102233B62012389
:108C100087F82630FB69FE2B03D8FB690133FB6123
:108C200009E03B6A5B003B620223FB6197F8263058
:108C3000013387F826303B6AFA6902FB03F2BB690D
:108C40009A42E7D3FB69013BFB61FB6903F1FF0239
:108C5000FB69B2FBF3F3FB7497F82630FA7C97F8C4
:108C60002710F86800F00AF8012318462837BD4697
:108C700080BD00BFCDCCCCCCABAAAAAA80B582B0B7
:108C800000AF7860084611461A460346FB700B4653
:108C9000BB7013467B7000BF7868FFF70DFE03467C
:108CA000002BF9D1FB78002B0BD0BB781B029AB2BA
:108CB0007B7803F01F03134343F020027B685A6460
:108CC00008E0BB781B029AB27B7803F01F031A43BB
:108CD0007B685A6400BF7868FFF7EEFD0346002BFF
:108CE000F9D100BF0837BD4680BD80B582B000AF66
:108CF000786000BF7868FFF7DFFD0346002BF9D1ED
:108D00007B685B6C23F47F427B685A6400BF7868A1
:108D1000FFF7D2FD0346002BF9D100BF0837BD464F
:108D200080BD80B582B000AF7860396000BF7868E0
:108D3000FFF7C2FD0346002BF9D13A687B685A65FC
:108D400000BF7868FFF7B8FD0346002BF9D100BFDC
:108D50000837BD4680BD80B582B000AF786039600D
:108D600000BF7868FFF7A8FD0346002BF9D17B68A8
:108D70003A685A6000BF7868FFF79EFD0346002BF3
:108D8000F9D100BF0837BD4680BD80B485B000AFC3
:108D900078607B685B6DFB60FB6818461437BD46E6
:108DA00080BC704780B582B000AF7860396000BF8A
:108DB0007868FFF781FD0346002BF9D17B683A689C
:108DC0001A6200BF7868FFF777FD0346002BF9D1E0
:108DD00000BF0837BD4680BD80B582B000AF786067
:108DE000396000BF7868FFF767FD0346002BF9D1B3
:108DF0007B683A681A6300BF7868FFF75DFD034639
:108E0000002BF9D100BF0837BD4680BD80B582B0C8
:108E100000AF78600B46FB7000BF7868FFF74CFD31
:108E20000346002BF9D1FB78042B25D801A252F878
:108E300023F000BF498E0000538E00005D8E0000BD
:108E4000658E00006F8E00007B684FF480721A619F
:108E500013E07B684FF480321A610EE07B680122D8
:108E60001A610AE07B684FF000721A6105E07B68C6
:108E70004FF000521A6100E000BF00BF7868FFF7B2
:108E80001BFD0346002BF9D100BF0837BD4680BD4E
:108E900080B582B000AF78600B46FB7000BF786889
:108EA000FFF70AFD0346002BF9D1FB78042B25D8E8
:108EB00001A252F823F000BFCD8E0000D78E000033
:108EC000E18E0000E98E0000F38E00007B684FF415
:108ED00080725A6113E07B684FF480325A610EE071
:108EE0007B6801225A610AE07B684FF000725A6188
:108EF00005E07B684FF000525A6100E000BF00BF00
:108F00007868FFF7D9FC0346002BF9D100BF08377A
:108F1000BD4680BD80B582B000AF78600B46FB7067
:108F200000BF7868FFF7C8FC0346002BF9D1FB7837
:108F3000042B25D801A252F823F000BF518F000066
:108F40005B8F0000658F00006D8F0000778F000041
:108F50007B684FF48072DA6013E07B684FF48032F4
:108F6000DA600EE07B680122DA600AE07B684FF08D
:108F70000072DA6005E07B684FF00052DA6000E0D2
:108F800000BF00BF7868FFF797FC0346002BF9D1BC
:108F900000BF0837BD4680BD80B584B000AFF86023
:108FA0007A601A460B46FB721346BB72FB7A0F4976
:108FB0007A6841F8232097F90A301846FFF7E4FB56
:108FC00097F90A303A7E11461846FFF7F7FB97F9F2
:108FD0000A301846FFF7C0FBFB7A1946F868FFF71E
:108FE00015FF00BF1037BD4680BD00BF0820002020
:108FF00080B582B000AF78600B46FB7000BF786828
:10900000FFF75AFC0346002BF9D1FB78012B0BD05C
:10901000022B10D0002B00D014E07B68DB6943F4F6
:1090200080727B68DA610DE07B68DB6943F4803233
:109030007B68DA6106E07B68DB6943F001027B68EC
:10904000DA6100BF00BF7868FFF736FC0346002BEB
:10905000F9D100BF0837BD4680BD80B582B000AFF2
:1090600078600B46FB7000BF7868FFF725FC03466D
:10907000002BF9D1FB78012B0BD0022B10D0002B49
:1090800000D014E07B68DB6923F480727B68DA61CE
:109090000DE07B68DB6923F480327B68DA6106E0EF
:1090A0007B68DB6923F001027B68DA6100BF00BFE7
:1090B0007868FFF701FC0346002BF9D100BF0837A1
:1090C000BD4680BD80B582B000AF78600B46FB70B6
:1090D00000BF7868FFF7F0FB0346002BF9D1FB785F
:1090E000012B09D0022B0CD0002B00D00DE07B68A7
:1090F0004FF480729A6408E07B684FF480329A647F
:1091000003E07B6801229A6400BF00BF7868FFF724
:10911000D3FB0346002BF9D100BF0837BD4680BD05
:1091200080B582B000AF78600B46FB7000BF7868F6
:10913000FFF7C2FB0346002BF9D1FB78012B09D0C6
:10914000022B0CD0002B00D00DE07B684FF4807216
:10915000DA6408E07B684FF48032DA6403E07B680D
:109160000122DA6400BF00BF7868FFF7A5FB034661
:10917000002BF9D100BF0837BD4680BD80B483B055
:1091800000AFEFF310833B603B68002B0CBF012363
:109190000023DBB27B6072B6BFF35F8F044B00220B
:1091A0001A707B6818460C37BD4680BC704700BFFC
:1091B000A401002080B483B000AF78607B68002BEE
:1091C00014BF01230023DBB218460C37BD4680BC18
:1091D000704780B582B000AF78607868FFF7EAFF2B
:1091E0000346002B05D0054B01221A70BFF35F8F99
:1091F00062B600BF0837BD4680BD00BFA401002095
:1092000080B58AB000AFF860B9607A6000237B62F5
:10921000FB68DB697B627B6A23F003037B62BB68CC
:1092200003F003037A6A13437B627B6A43F008030B
:109230007B627B6A43F004037B62FFF79FFF386227
:10924000144B9B68FB61134B1B68BB61114B5B6844
:109250007B61104A7B6853600E4B05221A60796A65
:10926000F8680D4B98470346FB740A4B00221A60BE
:10927000084A7B695360074AFB699360054ABB69EA
:109280001360386AFFF7A5FFFB7C18462837BD46F8
:1092900080BD00BF10E000E00100002080B485B078
:1092A00000AF786039600023FB607B68DB69FB609E
:1092B000FB6823F00303FB603B6803F00303FA68D9
:1092C0001343FB60FB6843F00803FB60FB6843F05B
:1092D0000403FB60054B064A9A617B68FA68DA6111
:1092E00000BF1437BD4680BC704700BF00000F4070
:1092F0001C0000AA80B485B000AF78607B68DB6991
:1093000043F08073FB60054B054A9A617B68FA68FD
:10931000DA6100BF1437BD4680BC704700000F40C3
:109320001C0000AA80B485B000AF78607B68DB6960
:1093300023F08073FB60054B054A9A617B68FA68ED
:10934000DA6100BF1437BD4680BC704700000F4093
:109350001C0000AA80B485B000AF786039607B68DB
:10936000DB69FB603B68002B04D1FB6823F480338E
:10937000FB6003E0FB6843F48033FB60054B064A67
:109380009A617B68FA68DA6100BF1437BD4680BC19
:10939000704700BF00000F401C0000AA80B483B0DB
:1093A00000AF78607B689B6A18460C37BD4680BC6E
:1093B000704780B483B000AF786039607B68DA6A48
:1093C0003B681A437B68DA6200BF0C37BD4680BC3D
:1093D000704780B483B000AF786039607B68DA6A28
:1093E0003B68DB431A407B68DA6200BF0C37BD463E
:1093F00080BC704780B483B000AF786039607B6810
:109400001A6B3B681A437B681A6300BF0C37BD4672
:1094100080BC704780B483B000AF786039607B68EF
:109420001A6B3B68DB431A407B681A6300BF0C373A
:10943000BD4680BC704780B483B000AF78607B6865
:109440005B6B43F001027B685A6300BF0C37BD467B
:1094500080BC704780B483B000AF78607B685B6B82
:1094600023F001027B685A6300BF0C37BD4680BC05
:10947000704780B483B000AF786039607B683A6829
:109480001A6000BF0C37BD4680BC704780B483B003
:1094900000AF786039607B683A685A6000BF0C376B
:1094A000BD4680BC704780B483B000AF78607B68F5
:1094B0009B6818460C37BD4680BC704780B483B0AB
:1094C00000AF78607B68DB6818460C37BD4680BC0F
:1094D000704780B483B000AF786039607B683A68C9
:1094E0001A6100BF0C37BD4680BC704780B483B0A2
:1094F00000AF78607B685B6918460C37BD4680BC5E
:10950000704780B483B000AF78607B68D3F8FC30DC
:1095100018460C37BD4680BC704780B485B000AF9C
:10952000786039607B68DB69FB60FB6823F48073DB
:10953000FB60FB6823F40073FB60FB6823F440537B
:10954000FB60434B434A9A613B68012B09D17B681E
:10955000FA68DA61404A404B1B6923F00403136147
:1095600060E03B68022B0DD1FB6843F48053FB6045
:109570007B68FA68DA61384A374B1B6923F00403C9
:1095800013614FE03B68032B0DD1FB6843F400539C
:10959000FB607B68FA68DA612F4A2F4B1B6923F066
:1095A000040313613EE03B68042B0DD1FB6843F4D8
:1095B0004053FB607B68FA68DA61274A264B1B69D7
:1095C00023F0040313612DE03B68052B09D17B6870
:1095D000FA68DA61204A204B1B6943F004031361E7
:1095E00020E03B68062B0DD1FB6843F40073FB6061
:1095F0007B68FA68DA61184A174B1B6943F0040369
:1096000013610FE03B68072B1CD1FB6843F48073A8
:10961000FB607B68FA68DA610F4A0F4B1B6943F005
:109620000403136100BF0D4B5B6903F48063002BDF
:10963000F9D030BF00BF0A4B01221A70BFF35F8F11
:1096400062B600E000BF1437BD4680BC704700BF63
:1096500000000F401C0000AA00ED00E000040F40D5
:10966000A401002080B588B000AF3B462022002135
:1096700018461A4B984704233B8008237B8010230D
:10968000BB802023FB8030233B8140237B816023F0
:10969000BB818023FB81C0233B824FF480737B829C
:1096A0004FF4C073BB824FF40073FB824FF44073DE
:1096B0003B834FF480637B834FF40063BB83084B91
:1096C000DB6803F00F035B0007F12002134433F85B
:1096D000203C9B0218462037BD4680BDC51D0100B9
:1096E00000000A4080B500AFFFF7BCFF03465B0AED
:1096F000184680BD80B500AFFFF7F4FF03461B0995
:10970000184680BD90B583B000AF78607B68002BB1
:1097100003DA00F06BF9044600E07C68FFF7EAFF2B
:109720000346B4FBF3F318460C37BD4690BD80B535
:1097300082B000AF7860FFF7DDFF02467B6803FB75
:1097400002F318460837BD4680BD80B400AF064B13
:109750001B6803F04003002B14BF01230023DBB27E
:109760001846BD4680BC704700000A4080B483B0F4
:1097700000AF78600849084B1B6823F040027B6803
:10978000002B01D0402300E0002313430B6000BFF7
:109790000C37BD4680BC704700000A4080B584B0DD
:1097A00000AFF860B9601346FB71BB68002B32D183
:1097B000FB68234A934215D9FB68224A934208D892
:1097C0000120FFF7D3FF4FF0FF31112000F01AF90D
:1097D00031E00120FFF7CAFF4FF0FF31102000F009
:1097E00011F928E0FB79002B0CD0FB68164A934254
:1097F00008D80120FFF7BAFF4FF0FF31112000F029
:1098000001F918E00020FFF7B1FF4FF0FF31112000
:1098100000F0F8F80FE0FB680C4A934203D90120EE
:10982000FFF7A4FF02E00020FFF7A0FF4FF0FF3199
:10983000112000F0E7F800BF1037BD4680BD00BF23
:1098400080A8120100512502001BB70000127A0007
:1098500080B400AF064B1B6803F00103002B14BF5C
:1098600001230023DBB21846BD4680BC704700BF11
:1098700000000A4080B483B000AF0346FB71064984
:10988000054B1A68FB7963F0010313400B6000BFBE
:109890000C37BD4680BC704700000A4080B400AF62
:1098A000064B1B6803F00403002B14BF01230023A5
:1098B000DBB21846BD4680BC704700BF00000A40BE
:1098C00080B483B000AF0346FB710649054B1A68AC
:1098D000FB7963F0040313400B6000BF0C37BD46F7
:1098E00080BC704700000A4080B400AF064B1B6884
:1098F00003F00803002B14BF01230023DBB218463A
:10990000BD4680BC704700BF00000A4080B483B0F1
:1099100000AF0346FB710649054B1A68FB7963F0FB
:10992000080313400B6000BF0C37BD4680BC704776
:1099300000000A4080B400AF064B9B6803F00103AF
:10994000002B14BF01230023DBB21846BD4680BCA8
:10995000704700BF00000A4080B500AF00BFFFF7AE
:10996000E9FF034683F00103DBB2002BF7D100BF10
:1099700080BD80B400AF044B9B6803F00C03184615
:10998000BD4680BC704700BF00000A4080B400AFF5
:10999000064B1B6803F00403002B14BF01230023B4
:1099A000DBB21846BD4680BC704700BFE8180020F7
:1099B00080B400AF064B1B6803F00803002B14BFF4
:1099C00001230023DBB21846BD4680BC704700BFB0
:1099D000E818002080B400AF034B5B6803F03F033E
:1099E0001846BD4680BC704700000A4080B400AFF6
:1099F000034B5B681B0A9BB21846BD4680BC704790
:109A000000000A4080B584B000AF78603960174B21
:109A10001B689847164B5B68FB60FB6823F03F03AD
:109A2000FB603B68002B0BDB3B681B0223F07F4392
:109A300023F0FF037A68134343F02543FB6005E0FE
:109A40007A68FB68134343F02543FB60084AFB68D0
:109A50005360FFF78EFF0246064B1A60034B1B68EC
:109A6000984700BF1037BD4680BD00BF840000206E
:109A700000000A40E818002080B500AF4FF0FF3129
:109A80000020FFF7BFFF00BF80BD80B500AF4FF0E3
:109A9000FF310620FFF7B6FF00BF80BD80B400AFE6
:109AA000064B9B6803F01003002B14BF0123002317
:109AB000DBB21846BD4680BC704700BF00000A40BC
:109AC00080B500AF4FF0FF310920FFF79BFF00BFCB
:109AD00080BD80B582B000AF78607B681846FFF724
