:100000000C9487010C94A6010C94A6010C94A601F3
:100010000C94A6010C94A6010C94A6010C94A601C4
:100020000C94A6010C94A6010C94A6010C94A601B4
:100030000C944E3C0C94A6010C94A6010C94A601C1
:100040000C94A6010C94B62B0C94F32B0C94302C2E
:100050000C94792B0C94A6010C94A6010C94A60187
:100060000C94A6010C944A400C94A6010C94A60191
:100070000C94A6010C94A6010C94A6010C94A60164
:100080000C94AA2C0C94E72C0C94242D0C946D2C1D
:100090000C94A6010C94A6010C94A6010C94A60144
:1000A0000C94A6010C94A6010C949E2D0C94DB2DAF
:1000B0000C94182E0C94612D0C94A6010C94922E85
:1000C0000C94CF2E0C940C2F0C94552E0C94A6014E
:1000D0000C94A6010C94A6010C94A6010C94A60104
:1000E0000C94A6010C94A6010C94A6010C94A601F4
:1000F0000C94A6010C94A6010C94A6010C94A601E4
:100100000C94A6010C945F330C949C330C94D9335B
:100110000C9422330C9416340C94A6010C94A60172
:100120004E081E0729076B077E078B07B1079E073E
:10013000EE07060856080F081A1841181F1841182C
:10014000241829182E1833183C1838186E616E00C0
:10015000696E660000407A10F35A00A0724E1809CA
:100160000010A5D4E80000E87648170000E40B541E
:10017000020000CA9A3B000000E1F50500008096ED
:100180009800000040420F000000A086010000001F
:10019000102700000000E8030000000064000000D9
:1001A00000000A00000000000100000000002C76A2
:1001B000D888DC674F0823DFC1DFAE59E1B1B796BD
:1001C000E5E3E453C63AE651997696E8E6C284261A
:1001D000EB898C9B62ED407C6FFCEFBC9C9F40F2F6
:1001E000BAA56FA5F490055A2AF75C936B6CF96772
:1001F0006DC11BFCE0E40D47FEF520E6B500D0ED37
:10020000902E0300943577050080841E080000209E
:100210004E0A000000C80C333333330F986E12833C
:100220001141EF8D2114893BE65516CFFEE6DB1810
:10023000D1844B381BF77C1D901DA4BBE4242032D5
:1002400084725E228100C9F124ECA1E53D273300D0
:1002500019000C000600030002000100FF00A001CD
:10026000CF006700330019000C00070008004003AE
:10027000A001CF0067003300190010001000330008
:1002800019000C000600030002000100FF00A0019D
:10029000CF006700330019000C000700080040037E
:1002A000A001CF00670033001900100010003300D8
:1002B00019000C000600030002000100FF00A0016D
:1002C000CF006700330019000C000700080040034E
:1002D000A001CF00670033001900100010003300A8
:1002E00019000C000600030002000100FF00A0013D
:1002F000CF006700330019000C000700080040031E
:10030000A001CF0067003300190010001000112475
:100310001FBECFEFD1E4DEBFCDBF12E0A0E0B2E060
:10032000EAEFFAEA00E00BBF02C007900D92AA3B89
:10033000B107D9F728E1AAEBB2E001C01D92AF3AAC
:10034000B207E1F70E945C080C94CF530C940000B4
:10035000CF93DF93CDB7DEB780E094E2A4EFB0E0B7
:10036000BC01CD01DF91CF910895CF93DF93CDB73D
:10037000DEB70E94A801DC01CB01BC01CD01DF91F9
:10038000CF910895CF93DF9300D0CDB7DEB79A8396
:10039000898389819A81FC018081282F226089814B
:1003A0009A81FC01208300000F900F90DF91CF9184
:1003B0000895CF93DF93CDB7DEB72B970FB6F894A0
:1003C000DEBF0FBECDBF998788877B876A878A8506
:1003D0009B85FC0184818D838A859B85FC018581B9
:1003E0008E838A859B85FC0186818F838A859B8588
:1003F000FC0180819181A281B38189839A83AB833F
:10040000BC83888599859E012F5F3F4FB9010E946B
:10041000A637882311F081E001C080E02B960FB64B
:10042000F894DEBF0FBECDBFDF91CF910895CF937B
:10043000DF9300D01F92CDB7DEB79A8389836B8399
:1004400089819A816B810E94B4390F900F900F902F
:10045000DF91CF910895CF93DF9300D000D0CDB737
:10046000DEB79A8389837C836B8389819A810E941A
:10047000D339282F8B819C81FC01208300000F90B1
:100480000F900F900F90DF91CF910895CF93DF934E
:1004900000D000D0CDB7DEB79A8389837C836B838D
:1004A00089819A819093A3188093A21887E192E0A2
:1004B0009093A1188093A0188BE292E090939F18DC
:1004C00080939E182B813C8189819A81B9010E9479
:1004D000D90166E87EE385EA9EE30E946751000049
:1004E0000F900F900F900F90DF91CF910895CF93C1
:1004F000DF93CDB7DEB78CED90E02CED30E0F90165
:1005000020812064FC0120838CED90E02CED30E014
:10051000F9012081277FFC0120830000DF91CF912A
:100520000895CF93DF93CDB7DEB78091CF0290913E
:10053000D002892BC1F08091CF029091D002292F57
:100540002F938F9383E292E0892F8F9383E292E03F
:100550008F930E94EE510F900F900F900F9086ECAA
:1005600092E00E94B1090000DF91CF910895CF93EE
:10057000DF9300D0CDB7DEB79A83898382E0809382
:10058000C50200000F900F90DF91CF910895CF9397
:10059000DF93CDB7DEB70E94770282E08093C50279
:1005A0000000DF91CF910895CF93DF93CDB7DEB7F1
:1005B0000E94770283E08093C5020000DF91CF9113
:1005C0000895CF93DF93CDB7DEB78091CF0290919E
:1005D000D0028115904419F482E08093C502000096
:1005E000DF91CF910895CF93DF93CDB7DEB783E04E
:1005F0008093C5028AE080930A020000DF91CF91C8
:100600000895CF93DF93CDB7DEB78091CF0290915D
:10061000D002892B59F084E392E0892F8F9384E3F1
:1006200092E08F930E94EE510F900F9083E00E9412
:1006300018350000DF91CF910895CF93DF9300D05C
:1006400000D01F92CDB7DEB78D838D8186958695BC
:100650008695882F90E09A8389838D81882F90E0FA
:100660008770992728E030E0A901481B590BCA017F
:100670009C838B8389819A818B5A9E4EFC01808159
:10068000882F90E00B8002C0959587950A94E2F739
:1006900081709927892BA9F08D81882F90E0292FCF
:1006A0002F938F9385E492E0892F8F9385E492E0D6
:1006B0008F930E94EE510F900F900F900F9080E05B
:1006C00023C081E090E00B8002C0880F991F0A943C
:1006D000E2F7282F89819A818B5A9E4EFC01208354
:1006E00089819A819C012F5F3F4F8091DF02909119
:1006F000E002821793073CF489819A8101969093D6
:10070000E0028093DF0281E00F900F900F900F9036
:100710000F90DF91CF910895CF93DF9300D01F9278
:10072000CDB7DEB79B838A838091DD029091DE0294
:1007300001969093DE028093DD02198203C08981C5
:100740008F5F89838981882F90E086589E4EFC01B7
:1007500080818130A1F38981882F90E086589E4E58
:1007600021E0FC0120838091F4029091F502019632
:100770009093F5028093F4028A819B81FC0184812D
:100780008F77282F30E0809110028F77882F90E0AC
:100790008217930764F48A819B81FC0184818F779F
:1007A0008F77909110029078892B8093100280911E
:1007B000DD029091DE022A813B81F90124812F77AD
:1007C000880F991F880F991F87589B4EFC01208323
:1007D0008091DD029091DE022A813B81F901238123
:1007E000222F30E0880F991F880F991F89589B4E40
:1007F000FC01318320838091DD029091DE02880F1D
:10080000991F880F991F8A589B4E2981FC012083CC
:1008100000000F900F900F90DF91CF910895CF932C
:10082000DF9300D0CDB7DEB79A83898389819A811F
:10083000880F991F880F991F8A589B4EFC01808151
:1008400080930E0289819A81880F991F880F991FC2
:1008500089589B4EFC018081918180930F0200009A
:100860000F900F90DF91CF910895CF93DF9300D039
:1008700000D000D0CDB7DEB79E838D838D819E8161
:10088000FC0180859185FC0180818D3021F58D8171
:100890009E81FC01808591859C838B838B819C81CB
:1008A000FC0181810E941D038B819C81FC0181815F
:1008B000882F90E0292F2F938F9382E592E0892F44
:1008C0008F9382E592E08F930E94EE510F900F90EC
:1008D0000F900F902DC08D819E81FC0180859185A8
:1008E000FC0180818E3011F58D819E81FC01808517
:1008F00091859A83898389819A810E948C03898159
:100900009A81FC018381882F90E0292F2F938F9368
:100910008DE592E0892F8F938DE592E08F930E9471
:10092000EE510F900F900F900F9002C080E001C029
:1009300081E026960FB6F894DEBF0FBECDBFDF91E3
:10094000CF910895CF93DF9300D0CDB7DEB79A83D0
:10095000898386E692E0892F8F9386E692E08F93D3
:100960000E94EE510F900F9000000F900F90DF91BA
:10097000CF910895CF93DF93CDB7DEB71092CC021D
:100980001092CB021092CD021092CE0280E090E441
:100990009093D0028093CF0284E591E19093D402AA
:1009A0008093D3028091DF029091E0028F5F809369
:1009B000D5020000DF91CF910895CF93DF9300D04F
:1009C00000D0CDB7DEB71092CC021092CB021092BD
:1009D000CD021092CE0280E494E09093D0028093F6
:1009E000CF021092D4021092D3021092D5021A8232
:1009F00019820BC089819A818B5A9E4EFC0110820C
:100A000089819A8101969A83898389819A818097C5
:100A10008CF31C821B8216C08B819C8186589E4E53
:100A2000FC0110828B819C81880F991F880F991F70
:100A300089589B4EFC01118210828B819C8101960A
:100A40009C838B838B819C818F3F91052CF382E06B
:100A500090E09093F5028093F4021092E0021092DD
:100A6000DF021092DE021092DD021092F802109264
:100A7000F7021092751100000F900F900F900F90D9
:100A8000DF91CF910895CF93DF9300D0CDB7DEB73C
:100A90001A8219820BC089819A818B5A9E4EFC0161
:100AA000108289819A8101969A83898389819A81AA
:100AB00080978CF31092E0021092DF021092CC0229
:100AC0001092CB021092CD021092CE0280E491E0FF
:100AD0009093D0028093CF021092D4021092D3024E
:100AE0001092D50280911302882309F0A0C08FE7ED
:100AF0008093751180917511882F90E00396880F6F
:100B0000991F092E000CAA0BBB0BBC01CD010E9442
:100B1000C84EDC01CB0120E030E040E451E4BC01F0
:100B2000CD010E94B94DDC01CB0120E030E040E274
:100B300052E4BC01CD010E94B94DDC01CB0120E0A3
:100B400034E244E757E4BC01CD010E94254EDC01AC
:100B5000CB018093761190937711A0937811B09385
:100B600079118091761190917711A0917811B091BF
:100B7000791120E030E040E850E4BC01CD010E9452
:100B8000544FDC01CB012DEB37E346E857E3BC01C2
:100B9000CD010E94254EDC01CB018093E1029093B0
:100BA000E202A093E302B093E40287EC92E00E9499
:100BB0002A360E94770281E00E94A3348091E102EC
:100BC0009091E202A091E302B091E402BC01CD0158
:100BD0000E94974EDC01CB0121E0AC01BD0181E018
:100BE0000E94573581E093E00E943D3682E00E94EA
:100BF000A3348091E1029091E202A091E302B091CE
:100C0000E40220E030E040E050E4BC01CD010E946D
:100C1000254EDC01CB01BC01CD010E94974EDC01C9
:100C2000CB0122E0AC01BD0181E00E9457350000FC
:100C30000F900F90DF91CF910895EF92FF920F9355
:100C40001F93CF93DF93CDB7DEB71092F6028EEEEF
:100C500093E9A3EABBE38093761190937711A09375
:100C60007811B09379118FE7809375111092CC02AF
:100C70001092CB021092CD021092CE0280EC90E046
:100C80009093D0028093CF021092D4021092D3029C
:100C90001092D5028091F4029091F5020496092EEB
:100CA000000CAA0BBB0BBC01CD010E94C84E7B01FE
:100CB0008C018091761190917711A0917811B0916B
:100CC00079119C01AD01C801B7010E94544FDC01AC
:100CD000CB012DEB37E346E857E3BC01CD010E9481
:100CE000254EDC01CB018093E1029093E202A093B8
:100CF000E302B093E40284ED92E00E942A360E945F
:100D0000770281E00E94A33480917611909177114F
:100D1000A0917811B09179112DEB37E346E857E3B4
:100D2000BC01CD010E94254EDC01CB01BC01CD01EF
:100D30000E94974EDC01CB0121E0AC01BD0181E0B6
:100D40000E94573562EA74E081E00E94FA080000D0
:100D5000DF91CF911F910F91FF90EF900895CF9366
:100D6000DF93CDB7DEB780E090E00E94CC088FE043
:100D70000E94911E81E00E94811E82E090E0A0E02E
:100D8000B0E08093ED029093EE02A093EF02B09357
:100D9000F0021092F10287EB92E09093F3028093BD
:100DA000F2028EEF9AEC0E94E3088EEF8093DA0253
:100DB0008EEF8093541181E00E94D01D65E374E0B2
:100DC00083E00E94FA0881E00E940B1E0000DF9180
:100DD000CF910895CF93DF93CDB7DEB78091C50251
:100DE000882F90E08230910561F08330910579F091
:100DF000892B09F05DC10E94AF0683E08093C50294
:100E000057C10E94910283E08093C50251C1809135
:100E10000A02882F90E0092E000CAA0BBB0B40E0C1
:100E200050E02BE030E0841B950B2817390708F4BD
:100E30003EC180579F4FFC010C94F74F0E94DD0488
:100E400082E080930A0282E08093C502109213022E
:100E50002EC18091F7029091F8020C9721F08091B9
:100E60001302823078F12091F7023091F8028091DC
:100E70001302882F90E0432F4F932F93292F2F9306
:100E80008F9385E792E0892F8F9385E792E08F9388
:100E90000E94EE510F900F900F900F900F900F90B7
:100EA0001092F8021092F70282E00E941835109218
:100EB000D0021092CF0281E08093C50289E0809336
:100EC0000A02F5C00E94430581E08093C50283E0D9
:100ED00080930A02ECC080E499E09093D002809362
:100EE000CF021092D4021092D3021092D50284E065
:100EF0008093C50284E080930A02D9C00E94BA049C
:100F000087EE92E00E94E62185E080930A0281E06C
:100F10008093C502CCC080E492E09093D00280938D
:100F2000CF021092D4021092D3021092D50281E027
:100F30008093C50287E080930A02B9C080E49AE0FA
:100F40009093D0028093CF021092D4021092D302D9
:100F50001092D50281E08093C50286E080930A0258
:100F6000A6C08091DD029091DE021816190694F554
:100F70008091DD029091DE020E940F0480E090E8F3
:100F80009093D0028093CF028BE092E09093D402B2
:100F90008093D30286E08093D50281E08093C502DE
:100FA00086E080930A028091DD029091DE02019733
:100FB0009093DE028093DD028091F7029091F80217
:100FC00001969093F8028093F70287EE92E00E94D8
:100FD000E6216DC088E080930A0269C080E492E156
:100FE0009093D0028093CF021092D4021092D30239
:100FF0001092D50281E08093C50282E080930A02BC
:10100000809113028F5F8093130251C00E941D06CE
:1010100082E08093C5028BE080930A0248C08091F1
:10102000F602282F30E08091F4029091F502281703
:101030003907BCF08DE792E0892F8F938DE792E01E
:101040008F930E94EE510F900F9081E00E9418350F
:1010500082E00E94183581E08093C50210920A0256
:1010600026C08091F602882F90E0292F2F938F932E
:1010700080E992E0892F8F9380E992E08F930E941C
:10108000EE510F900F900F900F9081E08093C5026A
:101090008091F6028F5F8093F60209C01092D00211
:1010A0001092CF0281E08093C50201C000000000D1
:1010B0000000DF91CF9108950F931F93CF93DF939B
:1010C000CDB7DEB727970FB6F894DEBF0FBECDBF02
:1010D0000E946D3D0E94A2400E9490210E94D03249
:1010E000789427E0EAEAF2E0CE010196DC01019073
:1010F0000D922A95E1F7CE010196BC0180EC90E0BB
:101100000E94460280EC90E00E94C2010E94B5015C
:10111000DC01CB018C019D0140E052EC61E070E00C
:1011200080EC90E00E944F3A0E94A0210E94EA06C3
:10113000FBCFCF93DF931F92CDB7DEB7109272181B
:101140001092731810926F1810926E1810929518D2
:101150001092941819820EC08981882F90E003960E
:10116000880F991F8259974EFC0111821082898144
:101170008F5F89838981803178F30E9452180E94A1
:1011800036100E94D40D0E94A5090E94700F000025
:101190000F90DF91CF910895CF93DF9300D0CDB71B
:1011A000DEB79A83898389819A8190936F1880939F
:1011B0006E1889819A810E94CB1E00000F900F90BB
:1011C000DF91CF910895CF93DF9300D0CDB7DEB7F5
:1011D0009A83898389819A8190937118809370187A
:1011E00089819A810E94A71E00000F900F90DF91C5
:1011F000CF910895CF93DF9300D01F92CDB7DEB784
:1012000089837B836A838981882F90E00396880F86
:10121000991F8259974E2A813B81FC01318320839B
:1012200000000F900F900F90DF91CF910895CF9312
:10123000DF93CDB7DEB7809194189091951821E097
:10124000892B09F420E0822FDF91CF910895CF936D
:10125000DF93CDB7DEB780919418909195180196E1
:1012600090939518809394180000DF91CF91089582
:10127000CF93DF93CDB7DEB78091941890919518F6
:10128000019790939518809394180000DF91CF9167
:101290000895CF93DF93CDB7DEB70E94051F0000FE
:1012A000DF91CF910895CF93DF93CDB7DEB70E9442
:1012B000331F0000DF91CF910895CF93DF93CDB717
:1012C000DEB72C970FB6F894DEBF0FBECDBF8C876C
:1012D00089E0E1EBF2E0DE01139601900D928A9530
:1012E000E1F789E189831A8215C09C858981981765
:1012F00058F48A81882F90E09E012D5F3F4F820F26
:10130000931FFC0180810AC08981875E89838A815D
:101310008F5F8A838A81893040F38FEF2C960FB6D6
:10132000F894DEBF0FBECDBFDF91CF910895CF936C
:10133000DF93CDB7DEB70E94FA170E94111C0E94FE
:101340009E0D0000DF91CF910895CF93DF93CDB72D
:10135000DEB71092FA021092F9020000DF91CF91ED
:101360000895CF93DF9300D0CDB7DEB79A838983FA
:1013700089819A81FC01148289819A81FC01128AF7
:1013800089819A81FC011382128280919418909134
:101390009518019690939518809394188091F9026E
:1013A0009091FA02892B61F489819A81FC01118262
:1013B000108289819A819093FA028093F9020FC07A
:1013C0002091F9023091FA0289819A81FC013183DE
:1013D000208389819A819093FA028093F902000018
:1013E0000F900F90DF91CF910895CF93DF93CDB7FA
:1013F000DEB728970FB6F894DEBF0FBECDBF988733
:101400008F838F819885FC01818592858034910539
:1014100098F40E94F30D9A83898389819A81892B9C
:1014200061F58F81988522E0FC0124838F81988566
:1014300022E0FC01228BCCC28F819885FC01818542
:10144000928580749927892B21F081E00E94650E96
:1014500003C080E00E94650E9A83898389819A8106
:10146000892B59F48F81988522E0FC0124838F8198
:10147000988522E0FC01228BABC28F819885FC010C
:101480008185928580749927892B09F497C0898179
:101490009A818A579F4FFC0110828F819885FC01A9
:1014A0008185928580789927892B41F089819A815D
:1014B000FC012581287FFC01258334C08F8198851C
:1014C000FC018185928588279170892B49F089815B
:1014D0009A81FC012581287F2460FC01258322C09C
:1014E0008F819885FC018185928588279270892B50
:1014F00049F089819A81FC012581287F2660FC01C1
:10150000258310C08F819885FC018185928588276D
:101510009470892B39F089819A81FC01258127609B
:10152000FC01258389819A81FC012581277FFC01AB
:10153000258389819A81FC0125812F7EFC012583E9
:1015400089819A81FC0125812F712064FC0125830A
:101550008F819885FC018185928588279870892BD9
:1015600031F089819A8121E0FC01278313C08F81AA
:101570009885FC018185928588279071892B31F0AF
:1015800089819A8122E0FC01278304C089819A81A4
:10159000FC0117822091751189819A81FC012087B5
:1015A0008EEF9AEC9C838B8389819A812EEFFC01CC
:1015B000268389819A810E94D118F5C18F819885EF
:1015C000FC0181859285992394F08F819885FC0197
:1015D0008185928588279072892B49F48F8198851F
:1015E000FC018185928588279074892B99F18F81E0
:1015F0009885FC012185328589819A81B9010E94F3
:10160000241989819A818A579F4FFC0110828F810A
:101610009885FC018785482F50E08F819885FC01D3
:101620002585368589819A818F579F4FFC0180815E
:101630009181B9010E944C5189819A81FC012181DB
:101640008F819885FC018785280F89819A81FC010B
:101650002183A9C18F819885FC0181859285807243
:101660009927892B09F462C089819A818A579F4FF3
:10167000FC01108289819A81FC012185207F2860EC
:10168000FC01218789819A81FC0121852F702066C8
:10169000FC01218789819A81FC012285207F2160BC
:1016A000FC01228789819A81FC0122852061FC014D
:1016B000228789819A81FC0122852064FC0122878E
:1016C00089819A81FC0122852F77FC0122878981FB
:1016D0009A81FC01138689819A81FC0114868F818D
:1016E0009885FC018785482F50E08F819885FC0103
:1016F0002585368589819A818F579F4FFC0180818E
:101700009181B9010E944C5189819A81FC0121810A
:101710008F819885FC018785280F89819A81FC013A
:10172000218389819A810E9486183DC18F81988585
:10173000FC0181859285892B09F435C18F819885BB
:10174000FC01818592858470992721E0892B09F419
:1017500020E089819A818A579F4FFC0120838F81E5
:101760009885FC01818592858170992721E0892BDC
:1017700009F420E089819A812170FC0133853E7F44
:10178000232BFC0123878F819885FC01818592851D
:101790008870992721E0892B09F420E089819A81BA
:1017A0002170220F220FFC0133853B7F232BFC018C
:1017B00023878F819885FC01818592858072992786
:1017C00021E0892B09F420E089819A8121702295FA
:1017D000207FFC0133853F7E232BFC0123878F81F3
:1017E0009885FC01818592858071992721E0892B5C
:1017F00009F420E089819A812170220F220F220FA3
:10180000FC013385377F232BFC01238789819A8153
:10181000FC0183858870882309F462C089819A81DC
:101820008F579F4FFC01808191819E838D838F8193
:101830009885FC018385282F2F708D819E812F70C4
:10184000FC013181307F232BFC0121838F8198851E
:10185000FC018385282F2F708D819E812295207F0A
:10186000FC0131813F70232BFC0121838F819885FE
:10187000FC018485282F2F708D819E812F70FC01A3
:101880003081307F232BFC0120838F819885FC01E0
:101890008485282F2F708D819E812295207FFC01C9
:1018A00030813F70232BFC01208389819A818F57DF
:1018B0009F4FFC01808191819C012E5F3F4F898168
:1018C0009A818F579F4FFC013183208389819A81B0
:1018D000FC01818122E0280F89819A81FC0121830A
:1018E000809172188F5F809372182091721889818D
:1018F0009A81FC01248720916E1830916F1889819C
:101900009A81FC01368725878F819885FC01258186
:10191000368189819A81FC01308B27878F81988558
:10192000FC018085282F2F7089819A812F70FC01FE
:101930003189307F232BFC01218B8F819885FC011D
:101940008781282F2F7089819A812295207FFC0121
:1019500031893F70232BFC01218B8F819885FC01FD
:101960008785482F50E08F819885FC012585368535
:1019700089819A818F579F4FFC0180819181B901A4
:101980000E944C5189819A81FC0121818F81988527
:10199000FC018785280F89819A81FC012183898137
:1019A0009A810E9498198F81988529813A81FC013A
:1019B000338322838F81988521E0FC0124838981F0
:1019C0009A8189579F4F21EF3CE0FC0131832083AE
:1019D00028960FB6F894DEBF0FBECDBFDF91CF9132
:1019E0000895CF93DF9300D000D0CDB7DEB79C83AE
:1019F0008B838091F9029091FA029A8389832BC09C
:101A000089819A81FC01228133818B819C812817F5
:101A10003907D1F48B819C818D579F4FFC01208128
:101A200089819A81FC01228B8B819C818A579F4FEF
:101A3000FC01208189819A81FC01238B89819A8113
:101A400022E0FC0124830BC089819A81FC01808102
:101A500091819A83898389819A81892B89F68B81E7
:101A60009C810E94FD0E00000F900F900F900F9030
:101A7000DF91CF910895CF93DF9300D000D0CDB701
:101A8000DEB79C838B832091F9023091FA028B811F
:101A90009C812817390761F48091F9029091FA022C
:101AA000FC01808191819093FA028093F90225C014
:101AB0008091F9029091FA029A83898307C0898103
:101AC0009A81FC01808191819A83898389819A819D
:101AD000FC01208131818B819C812817390779F79E
:101AE00089819A81FC0180819181FC012081318171
:101AF00089819A81FC01318320838091941890918F
:101B00009518019790939518809394188B819C81D8
:101B1000FC0180899189892B49F08B819C81FC0192
:101B2000208931898B819C81F901099500000F90F2
:101B30000F900F900F90DF91CF910895CF93DF9387
:101B400000D0CDB7DEB78091F9029091FA029A8366
:101B5000898321C089819A81FC018481882F90E04A
:101B60008130910581F08230910541F0892B09F097
:101B70000BC089819A810E94F50911C089819A81DF
:101B80000E943B0D0CC0000089819A81FC0180817C
:101B900091819A83898389819A81892BD9F60F90C3
:101BA0000F90DF91CF910895CF93DF931F92CDB720
:101BB000DEB7198210C08981282F30E049E8429FA2
:101BC000C001439F900D112485509D4FFC01108250
:101BD00089818F5F89838981843168F300000F9048
:101BE000DF91CF910895CF93DF931F92CDB7DEB7EA
:101BF000198261C08981282F30E049E8429FC001E5
:101C0000439F900D112485509D4FFC0180818823B6
:101C100009F04EC08981282F30E049E8429FC00179
:101C2000439F900D112485509D4F49E850E060E09E
:101C300070E00E9455518981282F30E049E8429F89
:101C4000C001439F900D112484509D4FFC011082D0
:101C50008981482F50E08981282F30E069E8629F10
:101C6000C001639F900D112402969C0125503D4FA9
:101C700069E8649FC001659F900D112484589C4FB2
:101C8000FC013183208380919418909195180196DE
:101C900090939518809394188981282F30E049E813
:101CA000429FC001439F900D112485509D4F09C054
:101CB00089818F5F89838981843108F49BCF80E09B
:101CC00090E00F90DF91CF910895CF93DF9300D0F4
:101CD000CDB7DEB78A83198285C08981282F30E08D
:101CE00049E8429FC001439F900D112485509D4FAC
:101CF000FC018081882309F072C08981282F30E09F
:101D000049E8429FC001439F900D112485509D4F8B
:101D100049E850E060E070E00E9455518A818823D4
:101D200079F08981282F30E049E8429FC001439F24
:101D3000900D112484509D4F27E0FC0120830EC09C
:101D40008981282F30E049E8429FC001439F900DD0
:101D5000112484509D4F23E0FC0120838981482F6A
:101D600050E08981282F30E069E8629FC001639FBD
:101D7000900D112402969C0125503D4F8981682FBA
:101D800070E0E9E8E69FC001E79F900D11248450C0
:101D90009D4FFC018081882F90E0280F391F69E852
:101DA000649FC001659F900D112484589C4FFC01D5
:101DB0003183208380919418909195180196909387
:101DC0009518809394188981282F30E049E8429F24
:101DD000C001439F900D112485509D4F09C08981FA
:101DE0008F5F89838981843108F477CF80E090E028
:101DF0000F900F90DF91CF910895CF93DF9300D094
:101E0000CDB7DEB79A83898389819A81FC011082DC
:101E100080919418909195180197909395188093BC
:101E2000941800000F900F90DF91CF910895CF93F9
:101E3000DF9300D0CDB7DEB79A83898389819A81F9
:101E4000892B29F48BEF92E09A83898316C08981CC
:101E50009A8187579F4F9A8389830FC089819A817E
:101E6000FC018081882319F089819A810DC08981C4
:101E70009A8187579F4F9A83898389819A818F5A44
:101E80009D4060F380E090E00F900F90DF91CF9144
:101E90000895CF93DF9300D0CDB7DEB79A838983BF
:101EA00089819A818D579F4FFC0110828091721811
:101EB0008F5F809372182091721889819A81FC013A
:101EC000248720916E1830916F1889819A81FC01C6
:101ED0003687258700000F900F90DF91CF910895EE
:101EE000CF93DF931F92CDB7DEB719820FC08981E0
:101EF000882F90E0880F991F8155924F2FEF3FEF69
:101F0000FC013183208389818F5F898389818330BC
:101F100070F300000F90DF91CF910895CF93DF937E
:101F200000D0CDB7DEB79A83898389819A81BC01BD
:101F30008FEF9FEF0E94DB0F0F900F90DF91CF91FB
:101F40000895CF93DF9300D0CDB7DEB79A8389830E
:101F500089819A816FEF7FEF0E94DB0F0F900F90C6
:101F6000DF91CF910895CF93DF9300D01F92CDB72B
:101F7000DEB79B838A83198214C08981882F90E001
:101F8000880F991F8155924FFC01208131818A81F0
:101F90009B812817390711F481E007C089818F5F81
:101FA00089838981833048F380E00F900F900F90F0
:101FB000DF91CF910895CF93DF9300D000D01F928F
:101FC000CDB7DEB79B838A837D836C83198220C063
:101FD0008981882F90E0880F991F8155924FFC01CD
:101FE000208131818A819B812817390771F4898189
:101FF000882F90E0880F991F8155924F2C813D8149
:10200000FC013183208381E007C089818F5F898350
:1020100089818330E8F280E00F900F900F900F904D
:102020000F90DF91CF910895CF93DF9300D0CDB77C
:10203000DEB79A83898389819A81FC0141818981F4
:102040009A818F579F4FFC01808191819C018981EA
:102050009A810296B901681B790BCB01742F781B0A
:10206000872F0F900F90DF91CF910895CF93DF933B
:102070001F92CDB7DEB7198211C08981282F30E0B9
:10208000C901880F991F880F991F820F931F8754CA
:10209000924FFC01108289818F5F8983898182330D
:1020A00060F384E690E0A0E0B0E08093B60E9093F9
:1020B000B70EA093B80EB093B90E1092BA0E85E386
:1020C00092E19093BC0E8093BB0E66E573E180E0D5
:1020D0000E94FA0800000F90DF91CF910895CF93EE
:1020E000DF9300D000D0CDB7DEB79C838B838B818C
:1020F0009C81FC0180819181FC0180818C3041F4C4
:102100008B819C81FC018281873008F064C011C101
:102110008B819C81FC0180819181FC0180818C3CC0
:1021200091F08B819C81FC0180819181FC018081F7
:102130008C3849F08B819C81FC0180819181FC016C
:1021400080818C3441F48B819C81FC0182818330BD
:1021500008F041C0EEC08B819C81FC01808191819F
:102160000196FC0180818838D1F48B819C81FC012F
:1021700080819181FC018081813651F08B819C812D
:10218000FC0180819181FC018081813409F0C6C00D
:102190008B819C81FC0182818031E8F4BFC08B81FE
:1021A0009C81FC01808191810196FC0180818038B5
:1021B00009F0B6C08B819C81FC0180819181FC017A
:1021C0008081882309F0AEC08B819C81FC018281D3
:1021D0008B3008F4A7C08B819C81FC0180819181A8
:1021E0000196FC018081883851F08B819C81FC0133
:1021F000808191810196FC0180818038D9F40E9410
:10220000F30D9A83898389819A81892B09F48CC083
:102210008B819C81FC01808191810196FC018081F0
:10222000883811F420E201C025E289819A81FC01FD
:10223000208346C08B819C81FC0180819181FC01BF
:1022400080818C3081F481E00E94650E9A838983BD
:1022500089819A81892B09F469C089819A8126E252
:10226000FC0120832DC080E00E94650E9A83898343
:1022700089819A81892B09F45BC08B819C81FC0147
:1022800080819181FC0180818C3831F489819A812F
:1022900028E2FC01208314C08B819C81FC01808199
:1022A0009181FC0180818C3C31F489819A8127E203
:1022B000FC01208305C089819A8129E2FC012083E9
:1022C0008B819C81FC01228189819A81FC0121837F
:1022D0008B819C81FC01238189819A818D579F4F3D
:1022E000FC0120838B819C81FC01248189819A815E
:1022F0008C579F4FFC0120838B819C81FC01828144
:10230000482F50E08B819C81FC01208131818981A3
:102310009A810296B9010E944C510BC0000009C07D
:10232000000007C0000005C0000003C0000001C09D
:1023300000000F900F900F900F90DF91CF910895B4
:10234000CF93DF9300D000D000D0CDB7DEB79E830F
:102350008D830E94F30D9A83898389819A81892BC9
:1023600009F46BC08D819E81FC01818120E1280FE1
:102370008D819E81FC0121838D819E818F579F4F8E
:10238000FC01808191819C01205F3F4F8D819E8166
:102390008F579F4FFC013183208389819A810E944E
:1023A000490F89819A81FC01818123E0280F89816D
:1023B0009A81FC01218389819A8189579F4FFC0171
:1023C000118210828D819E81FC01838581FB2227F1
:1023D00020F989819A812170220FFC0133853D7F8C
:1023E000232BFC0123878D819E81FC012585368569
:1023F00089819A81FC01308B278789819A818F5747
:102400009F4FFC01808191819C838B838B819C8178
:10241000FC0110822091AF0E8B819C81FC012283F4
:102420008D819E81FC0124858B819C81FC0121830F
:1024300089819A810E94981901C0000026960FB6E2
:10244000F894DEBF0FBECDBFDF91CF910895CF933B
:10245000DF931F92CDB7DEB7898389818093AF0E5A
:1024600000000F90DF91CF910895CF93DF9300D0BC
:1024700000D0CDB7DEB79C838B8319821A8230C01F
:102480008A81282F30E0C901880F991F880F991F72
:10249000820F931F8754924FFC0180818823E9F0BB
:1024A0008A81282F30E0C901880F991F880F991F52
:1024B000820F931F8754924FFC0180814FEF480F8A
:1024C000C901880F991F880F991F820F931F875486
:1024D000924FFC01408381E089838A818F5F8A83E8
:1024E0008A81823368F28981882321F08B819C81E3
:1024F0000E94E62100000F900F900F900F90DF9147
:10250000CF910895CF93DF93CDB7DEB729970FB65C
:10251000F894DEBF0FBECDBF998788871A821982D3
:102520001B8290C08B81282F30E0C901880F991F32
:10253000880F991F820F931F8B54924F9D838C831A
:102540008C819D81FC018481882309F46EC088857B
:102550009985FC01238534858C819D81FC018081D6
:1025600091812817390709F060C08C819D81FC0199
:10257000228188859985FC018285F22FF81B8F2F97
:102580008E838E81883058F58C819D81FC018381FA
:10259000882F90E02E81222F30E002C095958795FC
:1025A0002A95E2F781709927892B11F081E075C097
:1025B0008C819D81FC018381482F8E81282F30E002
:1025C00081E090E002C0880F991F2A95E2F7842BE2
:1025D000282F8C819D81FC01238380E05EC08E8149
:1025E00081958F8388859985FC0122858C819D81C9
:1025F000FC0122838C819D81FC018381882F90E0E6
:102600002F81222F30E002C0880F991F2A95E2F710
:102610008160282F8C819D81FC0123838C819D8189
:1026200025E1FC01248380E038C08C819D81FC0180
:102630008481882321F48C819D819A8389838B8175
:102640008F5F8B838B81823308F46CCF89819A8171
:10265000892B11F481E021C088859985FC012385AF
:10266000348589819A81FC0131832083888599850D
:10267000FC01228589819A81FC01228389819A81CA
:1026800021E0FC01238389819A8125E1FC012483D7
:1026900080EB9EE00E94E62180E029960FB6F89438
:1026A000DEBF0FBECDBFDF91CF910895CF93DF93F3
:1026B00000D0CDB7DEB79A83898389819A81FC01E6
:1026C0008285882311F480E011C089819A81FC0100
:1026D00080859185FC018081882F90E0892B29F4E9
:1026E00089819A810E94BE1A01C080E00F900F90EC
:1026F000DF91CF910895CF93DF93CDB7DEB72897C1
:102700000FB6F894DEBF0FBECDBF98878F838F8141
:10271000988502969B838A838F81988524E2FC01A9
:1027200020838A819B81FC0181858270882309F046
:102730003BC18A819B81FC0181858870882341F09F
:102740008A819B81FC0181858170882309F02EC1DB
:102750008A819B81FC01838194810196D1F420912F
:102760006E1830916F188A819B81FC018585968552
:102770002817390741F08A819B81FC018585968560
:10278000019609F015C18F81988522E2FC01208312
:102790000FC18A819B81FC0185859685019641F454
:1027A0008A819B81FC0181858170882309F002C1A7
:1027B00020916E1830916F188A819B81FC0183856E
:1027C00094852817390709F4F7C08A819B810E94F4
:1027D0008212882309F0F2C08A819B81FC018185E5
:1027E0008870882309F4A9C08F8198858F579F4FDF
:1027F000FC01808191819D838C838A819B81FC0176
:10280000858596850E94B30F8E8319828A819B816C
:10281000FC0185819681019609F061C08E81882333
:1028200079F18C819D81FC0181818F70882F90E0EE
:1028300021E0181619060CF020E029838C819D8177
:10284000FC0181818F702FE0280F2F708C819D817A
:102850002F70FC013181307F232BFC0121838C817F
:102860009D81FC018081282F22952F708C819D8174
:102870002F70FC013081307F232BFC0120833BC073
:102880008C819D81FC0180818F70882F90E021E0F8
:10289000181619060CF020E029838C819D81FC011B
:1028A00080818F702FE0280F2F708C819D812F7079
:1028B000FC013081307F232BFC0120838C819D81A2
:1028C000FC018181282F22952F708C819D812F7092
:1028D000FC013181307F232BFC0121830CC08E81D0
:1028E000882349F081E089838A819B81FC012185CD
:1028F0002460FC0121878981882321F08F819885BC
:102900000E942F1A8E81882309F459C08F819885DF
:102910008F579F4FFC01808191819C012E5F3F4F1B
:102920008F8198858F579F4FFC01318320838F8142
:10293000988522E2FC01208342C08A819B81FC01B0
:10294000858196810196B9F420916E1830916F18A7
:102950008A819B81FC01858596852817390759F066
:102960008A819B81FC0181858470882321F48F8179
:1029700098850E942F1A20916E1830916F188A81C5
:102980009B81FC01858596852817390739F08A8156
:102990009B81FC0185859685019689F48F819885B8
:1029A00022E2FC0120830BC0000009C0000007C028
:1029B000000005C0000003C0000001C00000289610
:1029C0000FB6F894DEBF0FBECDBFDF91CF91089553
:1029D000CF93DF93CDB7DEB761970FB6F894DEBF24
:1029E0000FBECDBF998B888B8889998902969A836F
:1029F000898389819A81FC01878582958F70882FD0
:102A000090E00396880F991F8259974EFC018081B0
:102A10009181892B11F480E0D9C089819A81FC01D0
:102A2000838594859C838B8389819A81FC0185852C
:102A300096859E838D8389819A81FC0187858F701D
:102A40008F8389819A81FC01878582958F70888721
:102A5000888999898F579F4FFC01808191819C873C
:102A60008B87888999890E9414108D878889998914
:102A70008D579F4FFC0180818E87888999898C575B
:102A80009F4FFC0180818F8789819A81FC0181851C
:102A9000982F917081E0992309F480E0882F90E0CD
:102AA0009A87898729853A8589819A81FC01818560
:102AB000882F90E082709927822B932B9A878987A1
:102AC00029853A8589819A81FC01818584708823D2
:102AD00019F080E290E002C080E090E0822B932B1E
:102AE0009A87898729853A8589819A81FC01818520
:102AF0008870882319F080E490E002C080E090E0C4
:102B0000822B932B9A87898729853A8589819A8197
:102B1000FC0181858071882319F080E890E002C073
:102B200080E090E0822B932B9A87898729853A85CC
:102B300089819A81FC0185859685019619F484E046
:102B400090E002C080E090E0822B932B9A878987E7
:102B500029853A8589819A81FC014385548589813B
:102B60009A81FC01878190854817590719F488E0FC
:102B700090E002C080E090E0822B932B9A878987B7
:102B800029853A8589819A81FC0183819481019606
:102B900019F480E190E002C080E090E0822B932B5A
:102BA0009A87898789819A81FC01878582958F70B0
:102BB000882F90E00396880F991F8259974EFC0149
:102BC00020813181CE010396F901099561960FB6F6
:102BD000F894DEBF0FBECDBFDF91CF910895CF93A4
:102BE000DF93CDB7DEB761970FB6F894DEBF0FBEA7
:102BF000CDBF998B888B8889998902969A8389831E
:102C00008889998924E2FC0120838091741890912D
:102C10007518892B11F480E044C088899989FC01DA
:102C2000878190859C838B8388899989FC01878122
:102C300090859E838D831F821886888999898F57F6
:102C40009F4FFC01808191819C878B87888999891E
:102C50000E9414108D87888999898D579F4FFC0198
:102C600080818E87888999898C579F4FFC0180814C
:102C70008F8780E890E09A87898789819A81FC0113
:102C8000878582958F70882F90E00396880F991F13
:102C90008259974EFC0120813181CE010396F901C2
:102CA000099561960FB6F894DEBF0FBECDBFDF91D8
:102CB000CF910895CF93DF93CDB7DEB72F970FB69F
:102CC000F894DEBF0FBECDBF9F878E878E859F8510
:102CD00024E2FC0120838091741890917518892B4F
:102CE00011F480E02AC01A8219821C821B821D8284
:102CF0001E828E859F8502969A8789878E859F85FD
:102D00000E9414108B878E859F858D579F4FFC01E5
:102D100080818C878E859F858C579F4FFC01808199
:102D20008D8780E091E098878F832091741830918F
:102D30007518CE010196F90109952F960FB6F894F2
:102D4000DEBF0FBECDBFDF91CF910895CF93DF934C
:102D5000CDB7DEB761970FB6F894DEBF0FBECDBF1B
:102D6000998B888B8889998902969A838983888927
:102D7000998924E2FC01208380917A1890917B1834
:102D8000892B11F480E02EC01C821B821E821D82C2
:102D90001F821886888999898F579F4FFC018081EF
:102DA00091819C878B87888999890E9414108D87CF
:102DB000888999898D579F4FFC0180818E878889EA
:102DC00099898C579F4FFC0180818F8780E092E02A
:102DD0009A87898720917A1830917B18CE010396C3
:102DE000F901099561960FB6F894DEBF0FBECDBF0D
:102DF000DF91CF910895CF93DF93CDB7DEB7619781
:102E00000FB6F894DEBF0FBECDBF998B888B888933
:102E1000998902969A8389838889998924E2FC0199
:102E200020838091761890917718892B11F480E097
:102E30002EC01C821B821E821D821F8218868889DA
:102E400099898F579F4FFC01808191819C878B8747
:102E5000888999890E9414108D87888999898D574E
:102E60009F4FFC0180818E87888999898C579F4F5D
:102E7000FC0180818F8780E094E09A878987209188
:102E8000761830917718CE010396F901099561966D
:102E90000FB6F894DEBF0FBECDBFDF91CF9108957E
:102EA000CF93DF93CDB7DEB761970FB6F894DEBF4F
:102EB0000FBECDBF998B888B8889998902969A839A
:102EC00089838889998924E2FC01208380917C1878
:102ED00090917D18892B11F480E02EC01C821B82FA
:102EE0001E821D821F821886888999898F579F4F5D
:102EF000FC01808191819C878B87888999890E94B8
:102F000014108D87888999898D579F4FFC01808186
:102F10008E87888999898C579F4FFC0180818F8784
:102F200080E090E49A87898720917C1830917D1801
:102F3000CE010396F901099561960FB6F894DEBFAC
:102F40000FBECDBFDF91CF910895CF93DF9300D017
:102F50001F92CDB7DEB79B838A831092AF0E8A8112
:102F60009B810E94E81489838A819B81FC0183856F
:102F70008170882309F419828A819B81FC018781F1
:102F800090850196A9F420916E1830916F188A816E
:102F90009B81FC01878590892817390749F48A812C
:102FA0009B81FC0183858870882311F481E08983EB
:102FB0008A819B81FC0185819681019609F41982A1
:102FC00080916E1890916F18019609F41982898189
:102FD000882321F08A819B810E94A0118A819B8194
:102FE00024E2FC01208300000F900F900F90DF91EE
:102FF000CF910895CF93DF9300D0CDB7DEB71A827B
:1030000019823FC089819A81FC018081882F90E0DC
:10301000092E000CAA0BBB0B40E250E029E030E087
:10302000841B950B2817390760F184569F4FFC01CC
:103030000C94F74F89819A810E947B1322C0898169
:103040009A810E94A5171DC089819A810E94FD0E58
:1030500018C089819A810E94EF1513C089819A81D5
:103060000E945A160EC089819A810E94A61609C034
:1030700089819A810E94FB1689819A810E9450174A
:10308000000089819A810E94170F9A838983898120
:103090009A81892B09F0B6CF00000F900F90DF9135
:1030A000CF910895CF93DF93CDB7DEB71092BE0EC8
:1030B0001092BD0E82E390E0A0E0B0E08093C50ED8
:1030C0009093C60EA093C70EB093C80E1092C90E6F
:1030D0008DE09BE19093CB0E8093CA0E8AE090E046
:1030E000A0E0B0E08093D20E9093D30EA093D40EC4
:1030F000B093D50E1092D60E87E79BE19093D80E31
:103100008093D70E0000DF91CF910895CF93DF9386
:1031100000D000D0CDB7DEB79C838B838B819C81A0
:1031200002969A8389838B819C8123E1FC01208311
:103130008B819C818D579F4FFC0110828B819C81DC
:103140008C579F4FFC011182108289819A8120E067
:1031500030E8FC0131832083809173188F5F809366
:1031600073182091731889819A81FC012283209120
:1031700070183091711889819A81FC0134832383FE
:1031800020916E1830916F1889819A81FC013683E5
:10319000258300000F900F900F900F90DF91CF913B
:1031A0000895CF93DF9300D000D0CDB7DEB79C83D6
:1031B0008B838B819C8102969A8389838B819C81EE
:1031C00023E1FC0120838B819C818D579F4FFC0163
:1031D00010828B819C818C579F4FFC011182108241
:1031E00089819A812CE0FC012083809173188F5F84
:1031F000809373182091731889819A81FC0121832F
:1032000089819A81FC012281287FFC0122838981A6
:103210009A81FC012281277EFC01228389819A8187
:10322000FC0122812F7DFC01228389819A81FC018E
:1032300022812F7BFC01228300000F900F900F90C2
:103240000F90DF91CF910895CF93DF9300D000D0FE
:1032500000D0CDB7DEB79C838B837E836D838B815B
:103260009C8102969A8389838B819C8123E1FC0156
:1032700020838B819C818D579F4FFC0110828B8115
:103280009C818C579F4FFC01118210828D819E8101
:10329000992334F489819A812CECFC01208317C096
:1032A0008D819E8188279072892B31F089819A8146
:1032B0002CE4FC0120830BC08D819E8188279074B3
:1032C000892B29F089819A812CE8FC012083809147
:1032D00073188F5F809373182091731889819A8176
:1032E000FC01218389819A81FC012281287FFC01D4
:1032F000228389819A81FC012281277EFC0122831D
:1033000089819A81FC0122812F7DFC0122838981A0
:103310009A81FC0122812F7BFC01228300002696EA
:103320000FB6F894DEBF0FBECDBFDF91CF910895E9
:10333000CF93DF9300D000D0CDB7DEB79C838B83D3
:103340008B819C8102969A8389838B819C818A5789
:103350009F4FFC018081882F90E082709927892BF4
:1033600031F08B819C8122E1FC01208305C08B819F
:103370009C8122E1FC0120838B819C818D579F4F92
:10338000FC0110828B819C818A579F4FFC018081B8
:10339000882F90E081709927892B41F089819A814B
:1033A0002FEF3FEFFC013483238309C02091701875
:1033B0003091711889819A81FC013483238389813A
:1033C0009A81FC012585368589819A81FC013683A5
:1033D000258320916E1830916F1889819A81FC01A4
:1033E00030872783809173188F5F809373182091A3
:1033F000731889819A81FC01228389819A81FC0159
:10340000858196810196A9F489819A8121E438E821
:10341000FC01318320830E945A50877099270196BE
:103420009C018B819C818C579F4FFC0131832083B1
:103430000EC089819A8121E438E8FC013183208320
:103440008B819C818C579F4FFC0111821082000060
:103450000F900F900F900F90DF91CF910895CF9321
:10346000DF9300D000D0CDB7DEB79C838B830E9462
:10347000F30D9A83898389819A81892B09F476C017
:1034800089819A818F579F4FFC01808191819C0196
:10349000205F3F4F89819A818F579F4FFC01318375
:1034A000208389819A8122E1FC0120838B819C8188
:1034B000FC01218189819A81FC01218389819A8182
:1034C0008D579F4FFC0110820E945A508770992798
:1034D00001969C0189819A818C579F4FFC01318311
:1034E000208389819A8189579F4FFC011182108224
:1034F0008B819C81FC018181482F50E08B819C81D4
:103500009C012E5F3F4F89819A810296B9010E94EA
:103510004C5189819A8121E438E8FC01338322836C
:1035200089819A812FEF3FEFFC01308727838B81C0
:103530009C81FC012581368189819A81FC01368339
:10354000258320916E1830916F1889819A81FC0132
:1035500032872187809173188F5F80937318209131
:10356000731889819A81FC01248301C000000F90A7
:103570000F900F900F90DF91CF910895CF93DF932D
:1035800000D000D000D0CDB7DEB79E838D838D8173
:103590009E81FC01808591859C838B831A82198290
:1035A0008D819E81FC018285833019F180E02CC0E1
:1035B00089819A81FC0180818631D9F489819A813F
:1035C000FC0124858B819C81FC018181281789F471
:1035D00089819A8127E1FC0120838B819C81FC01F8
:1035E000228189819A818A579F4FFC01208381E043
:1035F0000BC089819A810E94170F9A8389838981E0
:103600009A81892BA9F680E026960FB6F894DEBF42
:103610000FBECDBFDF91CF910895CF93DF9300D040
:1036200000D01F92CDB7DEB79D838C831A8219829A
:103630001B8227C089819A81FC018081863109F52E
:1036400081E08B8389819A818C579F4FFC01808117
:1036500091819C012150310989819A818C579F4F1A
:10366000FC013183208389819A818C579F4FFC0113
:1036700080819181892B29F489819A8160E10E945E
:103680005B1B89819A810E94170F9A8389838981A4
:103690009A81892B79F68B81882321F08C819D81F9
:1036A0000E94E62100000F900F900F900F900F9056
:1036B000DF91CF910895CF93DF9300D01F92CDB7C4
:1036C000DEB79A8389836B8389819A8127E1FC0124
:1036D000208389819A818D579F4F2B81FC01208304
:1036E00000000F900F900F90DF91CF910895CF932E
:1036F000DF9300D000D01F92CDB7DEB79D838C83BF
:103700001A8219821B8227C089819A81FC018081DB
:10371000813109F581E08B8389819A818C579F4F94
:10372000FC01808191819C012150310989819A811C
:103730008C579F4FFC013183208389819A818C575C
:103740009F4FFC0180819181892B29F489819A8185
:1037500023E1FC01208389819A810E94170F9A83BB
:10376000898389819A81892B79F68B81882321F03D
:103770008C819D810E94E62100000F900F900F9098
:103780000F900F90DF91CF910895CF93DF931F9209
:10379000CDB7DEB789838981882F90E0813091058C
:1037A00039F08230910531F0892B31F480E005C089
:1037B00080E203C081E201C081E00F90DF91CF91F0
:1037C00008950F931F93CF93DF931F92CDB7DEB76A
:1037D00089830091BD0E1091BE0E89810E94C51B88
:1037E000282FC8018D579F4FFC0120838091BD0E6B
:1037F0009091BE0E25E1FC0120831092BE0E109226
:10380000BD0E8091941890919518019790939518FA
:103810008093941800000F90DF91CF911F910F912A
:103820000895CF93DF9300D0CDB7DEB71A82198207
:10383000B3C089819A81FC018081882F90E0843116
:10384000910509F4A9C08531910534F482319105BF
:1038500079F0439731F19FC08631910509F49CC0FE
:10386000863191050CF443C0479709F47AC093C0A0
:1038700089819A818C579F4FFC0180819181892B8E
:1038800051F089819A8121E1FC0120838CEC9EE03A
:103890000E94E62181C089819A8123E1FC01208375
:1038A0007BC08091BD0E9091BE0E892B09F074C033
:1038B00089819A819093BE0E8093BD0E89819A81F1
:1038C00024E1FC01208389819A81FC012181898185
:1038D0009A810296622F0E94471F809194189091BE
:1038E00095180196909395188093941855C08981E6
:1038F0009A818D579F4FFC018081882361F58981D2
:103900009A81FC012585368580916E1890916F18FB
:1039100028173907D1F489819A81FC018385817048
:10392000882399F089819A8126E1FC01208389818D
:103930009A818C579F4F25E130E0FC013183208331
:103940008FEB9EE00E94E6210BC089819A8127E1DE
:10395000FC01208321C089819A8127E1FC01208319
:103960001BC089819A8189579F4FFC018081918179
:10397000892B29F489819A810E94FD0E0DC08981CD
:103980009A8189579F4FFC012081318189819A81D9
:10399000F901099501C0000089819A810E94170FE1
:1039A0009A83898389819A81892B09F042CF00000B
:1039B0000F900F90DF91CF910895CF93DF9300D0B8
:1039C000CDB7DEB79A83898389819A81892B09F4DF
:1039D0007BC089819A818837910549F461E080E054
:1039E0000E94933D60E180E00E94933D6DC089811B
:1039F0009A81803C910529F462E080E00E94933D29
:103A000063C089819A818C34910529F464E080E057
:103A10000E94933D59C089819A818038910529F48B
:103A200068E080E00E94933D4FC089819A81843490
:103A3000910529F460E280E00E94933D45C08981B0
:103A40009A81803B910529F460E480E00E94933DD7
:103A50003BC089819A81883B910529F460E880E028
:103A60000E94933D31C089819A81883C910529F457
:103A700061E081E00E94933D27C089819A8180396D
:103A8000910529F468E081E00E94933D1DC0898181
:103A90009A81803A910529F460E181E00E94933D8A
:103AA00013C089819A818032914029F460E281E0DB
:103AB0000E94933D09C089819A818334914021F409
:103AC00060E481E00E94933D00000F900F90DF9131
:103AD000CF9108956150710981099109D9F708952D
:103AE0000F931F93CF93DF93CDB7DEB783E491E0BD
:103AF0000E94DD1C89E391E0FC0120812160FC0132
:103B0000208310925A0F81E08093D90E88E00E94A2
:103B100024208CE491E0FC0120812068FC012083BA
:103B20000DE611E00E94881FF80180838DE491E08A
:103B3000FC0120812C7F2260FC0120838AE491E03B
:103B4000FC012081207F2360FC0120838DE491E033
:103B5000FC0120812860FC0120838DE491E0FC01C0
:103B600020812460FC01208384E491E0FC01208119
:103B70002068FC0120830000DF91CF911F910F91FD
:103B80000895CF93DF93CDB7DEB789E391E0FC01D1
:103B900020812160FC0120830000DF91CF910895F6
:103BA000CF93DF931F92CDB7DEB7898389818823B6
:103BB000B1F08CE691E0FC0120812F70FC012083A4
:103BC0008CE691E0FC0120812E60FC0120838EE6D2
:103BD00091E0FC0120812061FC01208317C08CE66C
:103BE00091E0FC0120812F702063FC0120838CE692
:103BF00091E0FC012081217F2860FC0120838EE67A
:103C000091E0FC0120812F7EFC01208300000F90B9
:103C1000DF91CF910895CF93DF93CDB7DEB729978A
:103C20000FB6F894DEBF0FBECDBF898728E0CE0166
:103C30000196FC01322F11923A95E9F78985882384
:103C400049F180E090E00E94CB1E80E090E00E946D
:103C5000A71ECE0101960E94622087E591E0FC013B
:103C600020812260FC01208387E591E0FC01208116
:103C70002061FC01208387E591E0FC0120812F7DFC
:103C8000FC0120838EE691E0FC0120812061FC0193
:103C900020830BC087E591E0FC0110828EE691E065
:103CA000FC0120812F7EFC012083000029960FB6A5
:103CB000F894DEBF0FBECDBFDF91CF9108950F9373
:103CC0001F93CF93DF93CDB7DEB78FE691E0FC0172
:103CD0002081207F2360FC0120838FE691E0FC019E
:103CE00020812F702068FC0120830DE611E00E94E6
:103CF000881FF80180830000DF91CF911F910F9101
:103D00000895CF93DF931F92CDB7DEB78983898162
:103D100080935A0F0E940D2000000F90DF91CF91E9
:103D20000895CF93DF931F92CDB7DEB7898388E4E0
:103D300091E029812F712F71FC013081307E232B7E
:103D4000FC01208300000F90DF91CF910895CF9365
:103D5000DF9300D000D0CDB7DEB79C838B83CE013C
:103D600003969A83898382E691E029813A81F90159
:103D70002081FC01208383E691E029813A81F901C9
:103D80002181FC01208300000F900F900F900F9075
:103D9000DF91CF910895CF93DF9300D000D0CDB7BE
:103DA000DEB79C838B83CE0103969A83898380E65A
:103DB00091E029813A81F9012081FC01208381E68B
:103DC00091E029813A81F9012181FC0120830000E1
:103DD0000F900F900F900F90DF91CF910895CF9398
:103DE000DF931F92CDB7DEB7898385E491E0298107
:103DF0002F702F70FC013081307F232BFC0120833A
:103E000000000F90DF91CF910895CF93DF93CDB74E
:103E1000DEB78091D90E823069F088E00E942420BC
:103E200089E391E0FC0120812260FC01208382E093
:103E30008093D90E8DE491E0FC0120812B7FFC0161
:103E400020838DE491E0FC012081277FFC01208309
:103E500084E491E0FC0120812F77FC0120830000A5
:103E6000DF91CF910895CF93DF93CDB7DEB789E38C
:103E700091E0FC0120812D7FFC0120830E940D2018
:103E800081E08093D90E0000DF91CF910895CF9308
:103E9000DF9300D000D0CDB7DEB79B838A836C83DD
:103EA00089E10E9424208FE491E02FEFFC01208320
:103EB00080E891E02C812E5FFC012083198214C0E0
:103EC0008981882F90E08F579E4FAC018981882F80
:103ED00090E02A813B81820F931FFC018081FA01CF
:103EE000808389818F5F898399818C81981740F3C2
:103EF00083E08093D90E82E491E022E0FC012083EC
:103F000000000F900F900F900F90DF91CF910895C8
:103F1000CF93DF9300D01F92CDB7DEB71A821982FC
:103F200086E00E9424201B8222C062E070E080E0D4
:103F300090E00E946A1D86E491E0FC0180818295F8
:103F4000869587708370882F90E02B81222F30E038
:103F500002C0880F991F2A95E2F79C0189819A81F6
:103F6000822B932B9A8389838B818E5F8B838B81AA
:103F70008031D8F20E940D2089819A810F900F9094
:103F80000F90DF91CF910895CF93DF9300D000D0B1
:103F9000CDB7DEB79A8389837C836B838B819C81C9
:103FA00040E060E00E94873089819A810E949331CD
:103FB00089819A810E94C93100000F900F900F9063
:103FC0000F90DF91CF910895CF93DF931F92CDB7DC
:103FD000DEB786E00E9424208FE491E0FC0120817E
:103FE0002061FC01208387E491E0FC011082000045
:103FF0008FE491E0FC018081829581708823C1F378
:1040000087E491E0FC0180818A5589830E940D201C
:1040100089810F90DF91CF910895CF93DF93CDB732
:10402000DEB788E00E9424208FE491E02FEFFC01AE
:10403000208380915A0F882319F086E10E94242062
:104040000000DF91CF910895CF93DF931F92CDB7FA
:10405000DEB789838091D90E8230A9F48DE491E096
:10406000FC0120812860FC0120838DE491E0FC01AB
:1040700020812460FC01208384E491E0FC01208104
:104080002068FC01208382E491E023E0FC0120838E
:1040900081E491E0FC0180818F718830A1F782E496
:1040A00091E02981FC01208381E491E0FC01808181
:1040B0008F71982F8981981791F700000F90DF91E9
:1040C000CF910895CF93DF9300D000D0CDB7DEB766
:1040D0009C838B838B819C819A83898324E631E046
:1040E00089819A81AC014F5F5F4F5A834983FC01FC
:1040F0008081F901808325E631E089819A81AC01D4
:104100004F5F5F4F5A834983FC018081F9018083AF
:1041100026E631E089819A81AC014F5F5F4F5A8377
:104120004983FC018081F901808327E631E08981A0
:104130009A81AC014F5F5F4F5A834983FC018081B4
:10414000F901808328E631E089819A81AC014F5FD3
:104150005F4F5A834983FC018081F901808329E6FE
:1041600031E089819A81AC014F5F5F4F5A83498367
:10417000FC018081F90180832AE631E089819A81FE
:10418000AC014F5F5F4F5A834983FC018081F90185
:1041900080838BE691E029813A81F9012081FC013D
:1041A000208300000F900F900F900F90DF91CF9120
:1041B0000895CF93DF93CDB7DEB728970FB6F89465
:1041C000DEBF0FBECDBF8091D90E823009F49EC0F4
:1041D0008FE491E0FC01808183FB882780F98823AC
:1041E00009F459C08BE791E0FC0180818B8319822F
:1041F00011C08981882F90E02981222F30E020583A
:104200003E4FF90120818652914FFC012083898124
:104210008F5F89838981282F30E08B81882F90E000
:104220000196281739072CF38AED9EE09D838C8335
:104230008B8182508E838B81882F90E08652914FA4
:10424000FC0180818F8387E491E0FC0180818A55A5
:104250008887CE0104960E946F10000081E491E0EF
:10426000FC0180818F718631C9F78FE491E0FC01F8
:1042700020812860FC0120838CE491E0FC012081F6
:104280002F77FC0120838CE491E0FC0120812068E1
:10429000FC0120833CC08FE491E0FC01808186FB1F
:1042A000882780F9882399F181E491E0FC018081DD
:1042B0008F71893119F582E491E0FC01808182954A
:1042C000869587708A838A81882311F41A820EC0AA
:1042D0008A81833019F481E08A8308C08A8185301D
:1042E00019F482E08A8302C083E08A830E940D2051
:1042F00081E08093D90E8A810E94E11B8FE491E0D6
:10430000FC0120812064FC01208301C0000028966C
:104310000FB6F894DEBF0FBECDBFDF91CF910895E9
:10432000CF93DF93CDB7DEB70E94CE210E947F30BE
:104330000E94701D0E9499080000DF91CF9108959E
:10434000CF93DF93CDB7DEB70E94D9200E949709A3
:104350000E94A0220000DF91CF910895CF93DF93B8
:104360001F92CDB7DEB78FE590E0FC018081898395
:10437000F89489810F90DF91CF910895CF93DF93C7
:104380001F92CDB7DEB789838FE590E02981FC01CC
:10439000208300000F90DF91CF910895CF93DF939A
:1043A000CDB7DEB71092961888E394E20E940D4ACA
:1043B0000E94BF4980E197E20E94554910925C0F2C
:1043C00010925B0F0000DF91CF910895CF93DF93A0
:1043D00000D0CDB7DEB79A83898389819A810E9404
:1043E0007522982F81E08927882321F089819A817D
:1043F0000E94632300000F900F90DF91CF910895EA
:10440000CF93DF9300D000D000D0CDB7DEB79E832E
:104410008D831A82198280915B0F90915C0F9C832F
:104420008B8352C02B813C818D819E812817390757
:1044300009F03FC089819A81892B59F08B819C8139
:10444000FC012081318189819A81FC0131832083A3
:1044500009C08B819C81FC018081918190935C0FCC
:1044600080935B0F8B819C81FC0180819181892BE2
:1044700089F18B819C81FC01608171818B819C81A0
:10448000FC0180819181FC0122813381448155812D
:104490008D819E81FC0182819381A481B581820FEF
:1044A000931FA41FB51FFB0182839383A483B5834D
:1044B00011C08B819C819A8389838B819C81FC01B3
:1044C000808191819C838B838B819C81892B09F0D6
:1044D000A9CF01C00000000026960FB6F894DEBFF9
:1044E0000FBECDBFDF91CF910895CF93DF9300D062
:1044F00000D0CDB7DEB79C838B8380915B0F90910A
:104500005C0F9A83898310C029813A818B819C81B9
:104510002817390711F481E00CC089819A81FC01C8
:10452000808191819A83898389819A81892B61F71E
:1045300080E00F900F900F900F90DF91CF91089532
:10454000EF92FF920F931F93CF93DF93CDB7DEB718
:1045500028970FB6F894DEBF0FBECDBF8091961896
:10456000882309F4A2C00E94AE218D838091961801
:104570008E83109296188D810E94BE218E81882F85
:1045800090E0A0E0B0E0880F991FAA1FBB1F9C011C
:10459000AD01220F331F441F551F220F331F441F2D
:1045A000551F820F931FA41FB51F89839A83AB8366
:1045B000BC833DC080915B0F90915C0F98878F8387
:1045C00080915B0F90915C0FFC0182819381A481AB
:1045D000B58129813A814B815C8179018A01E81A90
:1045E000F90A0A0B1B0BD801C70189839A83AB8395
:1045F000BC8380915B0F90915C0FFC018081918165
:1046000090935C0F80935B0F8F819885FC0182856E
:10461000813021F48F8198850E9463238F81988552
:10462000FC01238534858F819885F9010995809156
:104630005B0F90915C0F892B99F080915B0F9091AB
:104640005C0FFC01228133814481558189819A81EB
:10465000AB81BC8182179307A407B50708F0AACFE6
:1046600080915B0F90915C0F892B01F160915B0F42
:1046700070915C0F80915B0F90915C0FFC01228127
:1046800033814481558189819A81AB81BC817901D3
:104690008A01E81AF90A0A0B1B0BD801C701FB01B2
:1046A00082839383A483B58301C0000028960FB64C
:1046B000F894DEBF0FBECDBFDF91CF911F910F9158
:1046C000FF90EF900895EF92FF920F931F93CF9377
:1046D000DF93CDB7DEB72A970FB6F894DEBF0FBED3
:1046E000CDBF9A87898780915B0F90915C0F892B52
:1046F00009F497C01A82198289859A85FC018681FE
:104700009781A085B1858B839C83AD83BE83809187
:104710005B0F90915C0F98878F834DC08F81988538
:10472000FC0122813381448155818B819C81AD8143
:10473000BE8182179307A407B507D8F48F819885A7
:10474000FC0122813381448155818B819C81AD8123
:10475000BE8179018A01E81AF90A0A0B1B0BD801FC
:10476000C7012F813885F90182839383A483B583A0
:1047700027C08F819885FC0182819381A481B581B6
:104780002B813C814D815E8179018A01E81AF90A09
:104790000A0B1B0BD801C7018B839C83AD83BE839F
:1047A0008F8198859A8389838F819885FC01808188
:1047B000918198878F838F819885892B09F0AECF5F
:1047C00029853A858B819C81AD81BE81F9018283E7
:1047D0009383A483B58389819A81892B91F0898100
:1047E0009A81FC012081318189859A85FC01318380
:1047F000208389819A8129853A85FC013183208330
:1048000029C020915B0F30915C0F89859A85FC014E
:104810003183208389859A8590935C0F80935B0F09
:1048200019C089859A85FC011182108289859A8533
:10483000FC0186819781A085B18529853A85F9019A
:1048400082839383A483B58389859A8590935C0F33
:1048500080935B0F00002A960FB6F894DEBF0FBE60
:10486000CDBFDF91CF911F910F91FF90EF900895F1
:10487000CF93DF93CDB7DEB7809196188F5F80938B
:10488000961880E197E20E9455490000DF91CF9190
:104890000895CF93DF931F92CDB7DEB78FE590E0F9
:1048A000FC0180818983F89489810F90DF91CF91F9
:1048B0000895CF93DF931F92CDB7DEB789838FE53D
:1048C00090E02981FC01208300000F90DF91CF91BF
:1048D0000895CF93DF93CDB7DEB780E094E2A4EFE5
:1048E000B0E0BC01CD01DF91CF910895CF93DF936C
:1048F000CDB7DEB70E946924DC01CB01BC01CD013C
:10490000DF91CF910895CF93DF9300D0CDB7DEB77D
:104910009A83898389819A81892B21F480E090E0B0
:10492000DC01A3C089819A818837910529F40E940E
:104930007624DC01CB0199C089819A81803C910564
:1049400029F40E947624DC01CB018FC089819A81F1
:104950008C34910529F40E947624DC01CB0185C0BA
:1049600089819A818038910529F40E947624DC019E
:10497000CB017BC089819A818434910529F40E94FE
:104980007624DC01CB0171C089819A81803B91053D
:1049900029F40E947624DC01CB0167C089819A81C9
:1049A000803C910529F40E947624DC01CB015DC096
:1049B00089819A81883B910529F40E947624DC0143
:1049C000CB0153C089819A818039910529F40E94D5
:1049D0007624DC01CB0149C089819A81803A910516
:1049E00029F40E947624DC01CB013FC089819A81A1
:1049F0008032914029F40E947624DC01CB0135C03D
:104A000089819A818334914029F40E947624DC01C3
:104A1000CB012BC089819A818533914029F40E9472
:104A20007624DC01CB0121C089819A8184339140B5
:104A300029F40E947624DC01CB0117C089819A8178
:104A40008333914029F40E947624DC01CB010DC010
:104A500089819A818233914029F40E947624DC0175
:104A6000CB0103C080E090E0DC01BC01CD010F90E0
:104A70000F90DF91CF910895CF93DF9300D01F92D5
:104A8000CDB7DEB79A8389836B8389819A81803819
:104A9000910559F481E890E021E830E0F901308196
:104AA0002B81232BFC0120832FC089819A8180399F
:104AB000910559F481E990E021E930E0F901308174
:104AC0002B81232BFC0120831FC089819A81803A8E
:104AD000910559F481EA90E021EA30E0F901308152
:104AE0002B81232BFC0120830FC089819A81803286
:104AF000914051F481E291E021E231E0F90130810D
:104B00002B81232BFC01208300000F900F900F902E
:104B1000DF91CF910895CF93DF9300D0CDB7DEB76B
:104B20009A83898389819A818038910551F48FE62F
:104B300090E02FE630E0F90120812160FC01208324
:104B40002CC089819A818039910551F481E790E0E8
:104B500021E730E0F90120812160FC0120831DC0A4
:104B600089819A81803A910551F482E790E022E7A9
:104B700030E0F90120812160FC0120830EC0898191
:104B80009A818032914049F483E790E023E730E056
:104B9000F90120812160FC01208300000F900F901B
:104BA000DF91CF910895CF93DF9300D0CDB7DEB7DB
:104BB0009A83898389819A818038910551F48FE69F
:104BC00090E02FE630E0F90120812260FC01208393
:104BD0002CC089819A818039910551F481E790E058
:104BE00021E730E0F90120812260FC0120831DC013
:104BF00089819A81803A910551F482E790E022E719
:104C000030E0F90120812260FC0120830EC08981FF
:104C10009A818032914049F483E790E023E730E0C5
:104C2000F90120812260FC01208300000F900F9089
:104C3000DF91CF910895CF93DF9300D0CDB7DEB74A
:104C40009A83898389819A818038910551F48FE60E
:104C500090E02FE630E0F90120812D7FFC012083D8
:104C60002CC089819A818039910551F481E790E0C7
:104C700021E730E0F90120812D7FFC0120831DC058
:104C800089819A81803A910551F482E790E022E788
:104C900030E0F90120812D7FFC0120830EC0898145
:104CA0009A818032914049F483E790E023E730E035
:104CB000F90120812D7FFC01208300000F900F90CF
:104CC000DF91CF910895CF93DF93CDB7DEB72797CC
:104CD0000FB6F894DEBF0FBECDBF9C838B836D8370
:104CE0005F834E838B819C819A8389838D81882FFA
:104CF00090E0019629813A81820F931F2D81222F06
:104D000030E02F5F3F4F49815A81240F351FF90151
:104D100040812E813F81232F3327242BFC012083C8
:104D20008D81882F90E029813A81820F931F2D81F8
:104D3000222F30E049815A81240F351FF90130813B
:104D40002E81232BFC012083000027960FB6F894B8
:104D5000DEBF0FBECDBFDF91CF910895CF93DF931C
:104D600000D0CDB7DEB79A83898389819A81803854
:104D7000910551F486E390E026E330E0F9012081CB
:104D80002160FC0120832CC089819A8180399105A2
:104D900051F488E390E028E330E0F90120812160BC
:104DA000FC0120831DC089819A81803A910551F4CC
:104DB00089E390E029E330E0F90120812160FC01E2
:104DC00020830EC089819A818032914049F48AE320
:104DD00090E02AE330E0F90120812160FC0120838A
:104DE00000000F900F90DF91CF910895CF93DF9344
:104DF00000D0CDB7DEB79A83898389819A818038C4
:104E0000910551F486E390E026E330E0F90120813A
:104E10002260FC0120832CC089819A818039910510
:104E200051F488E390E028E330E0F901208122602A
:104E3000FC0120831DC089819A81803A910551F43B
:104E400089E390E029E330E0F90120812260FC0150
:104E500020830EC089819A818032914049F48AE38F
:104E600090E02AE330E0F90120812260FC012083F8
:104E700000000F900F90DF91CF910895CF93DF93B3
:104E800000D0CDB7DEB79A83898389819A81803833
:104E9000910531F484E890E0FC018081918123C088
:104EA00089819A818039910531F484E990E0FC018F
:104EB0008081918118C089819A81803A910531F46D
:104EC00084EA90E0FC01808191810DC089819A8102
:104ED0008032914031F484E291E0FC018081918143
:104EE00002C080E090E00F900F90DF91CF91089585
:104EF000CF93DF9300D000D01F92CDB7DEB79C8355
:104F00008B836D838B819C819A8389838D81882398
:104F100049F489819A81FC01208189819A81FC016F
:104F200020830FC08D81843061F489819A8101963C
:104F300029813A812F5F3F4FF90120812860FC01D0
:104F4000208300000F900F900F900F900F90DF9133
:104F5000CF910895CF93DF93CDB7DEB780E890E08F
:104F60000E943E27DF91CF910895CF93DF93CDB775
:104F7000DEB780E890E00E941B2680E890E00E9467
:104F8000F6260000DF91CF910895CF93DF93CDB740
:104F9000DEB780E890E00E94F62680E890E00E946C
:104FA000D3250000DF91CF910895CF93DF93CDB744
:104FB000DEB780E890E00E948B2580E890E00E94B8
:104FC000AE260000DF91CF910895CF93DF93CDB748
:104FD000DEB780E890E00E94622F0000DF91CF9161
:104FE0000895CF93DF9300D0CDB7DEB79A8389833E
:104FF00089819A81AC0168E080E890E00E94632694
:1050000000000F900F90DF91CF910895CF93DF9321
:10501000CDB7DEB70E944924DF91CF910895CF9399
:10502000DF931F92CDB7DEB7898389810E9459240F
:1050300000000F90DF91CF910895CF93DF931F92DF
:10504000CDB7DEB780E890E00E94492F66EB78E2AA
:1050500080E890E00E947B2F60E080E890E00E9472
:10506000782780E890E00E948B2580E890E00E94FD
:10507000582880E890E00E941B2661E080E890E0DC
:105080000E943C2580E890E00E948324DC01CB0153
:1050900020E432E44FE050E0BC01CD010E94D54F46
:1050A000DA01C901898389810F90DF91CF91089539
:1050B000CF93DF9300D0CDB7DEB79A838983898100
:1050C0009A818038910579F089819A81803991059A
:1050D00051F089819A81803A910529F089819A81DC
:1050E0008032914039F460EC78E280E890E00E94F0
:1050F000BC2F36C089819A818138910579F08981E8
:105100009A818139910551F089819A81813A91057D
:1051100029F089819A818132914039F460EC78E2FA
:1051200080E890E00E94FD2F1BC089819A8182381F
:10513000910579F089819A818239910551F08981AF
:105140009A81823A910529F089819A81823291402F
:1051500039F460EC78E280E890E00E943E3000C0D4
:1051600000000F900F90DF91CF910895CF93DF93C0
:10517000CDB7DEB70E94C6490000DF91CF910895F8
:10518000CF93DF93CDB7DEB70E94FE490000DF91D9
:10519000CF910895CF93DF931F92CDB7DEB78FE500
:1051A00090E0FC0180818983F89489810F90DF91E0
:1051B000CF910895CF93DF931F92CDB7DEB7898348
:1051C0008FE590E02981FC01208300000F90DF91A2
:1051D000CF910895EF92FF920F931F93CF93DF9398
:1051E000CDB7DEB72C970FB6F894DEBF0FBECDBF9C
:1051F0006B837C838D839E832F83388749875A876F
:105200001C870B878F819885A985BA8580935D0F50
:1052100090935E0FA0935F0FB093600F8B859C857A
:105220009A8389838B819C81AD81BE8188279F5F12
:10523000AF4FBF4F8093610F9093620FA093630FA6
:10524000B093640F8B819C81AD81BE81882705E678
:105250001FE020E031E040E050E0BC01CD010E94C1
:10526000DD2925E63FE040E051E060E070E0CB0161
:105270000E941E5420915D0F30915E0F40915F0F90
:105280005091600F8B819C81AD81BE81280F391FA9
:105290004A1F5B1F8091610F9091620FA091630F75
:1052A000B091640F82179307A407B507A0F480910B
:1052B000610F9091620FA091630FB091640F9C01F8
:1052C0008B819C817901E81AF90AC70190936610D5
:1052D000809365100CC080915D0F90915E0FA0913E
:1052E0005F0FB091600F90936610809365102091CE
:1052F0005D0F30915E0F40915F0F5091600F809174
:10530000651090916610CC01A0E0B0E079018A01AF
:10531000E81AF90A0A0B1B0BD801C70180935D0F2D
:1053200090935E0FA0935F0FB093600F4091651054
:105330005091661029813A818B819C81AD81BE811B
:10534000BC01CD010E941E548B819C81AD81BE8128
:10535000BC01CD010E942B558091610F9091620F8D
:10536000A091630FB091640F8B839C83AD83BE8348
:10537000809165109091661029813A81820F931F68
:105380009A83898380915D0F90915E0FA0915F0F4A
:10539000B091600F892B8A2B8B2B09F043CF000033
:1053A0002C960FB6F894DEBF0FBECDBFDF91CF9124
:1053B0001F910F91FF90EF9008950F931F93CF933C
:1053C000DF93CDB7DEB762970FB6F894DEBF0FBE9E
:1053D000CDBF69877A878B879C872D873E874F87CC
:1053E000588B1A8B098B0E94CA288B831A821982C8
:1053F00029C029893A8989819A81B901680F791F61
:1054000089859A85AB85BC859C01AD012F5F3F4F97
:105410004F4F5F4F29873A874B875C878C839D83EB
:10542000AE83BF838C819D81AE81BF81ABBFFC0108
:10543000879188878885FB01808389819A8101967D
:105440009A83898389819A819C0140E050E08D850F
:105450009E85AF85B889281739074A075B0748F248
:105460008B810E94DA28000062960FB6F894DEBFA6
:105470000FBECDBFDF91CF911F910F910895CF93B4
:10548000DF931F92CDB7DEB78FE590E0FC018081FE
:105490008983F89489810F90DF91CF910895CF93FC
:1054A000DF931F92CDB7DEB789838FE590E0298126
:1054B000FC01208300000F90DF91CF910895CF93DE
:1054C000DF9300D0CDB7DEB79A83898389819A8133
:1054D000892B09F47BC089819A818837910549F429
:1054E00061E080E00E94933D60E180E00E94933D96
:1054F0006DC089819A81803C910529F462E080E049
:105500000E94933D63C089819A818C34910529F46E
:1055100064E080E00E94933D59C089819A8180387F
:10552000910529F468E080E00E94933D4FC0898195
:105530009A818434910529F460E280E00E94933DD1
:1055400045C089819A81803B910529F460E480E01F
:105550000E94933D3BC089819A81883B910529F443
:1055600060E880E00E94933D31C089819A81883C47
:10557000910529F461E081E00E94933D27C0898173
:105580009A818039910529F468E081E00E94933D79
:105590001DC089819A81803A910529F460E181E0FA
:1055A0000E94933D13C089819A818032914029F4F1
:1055B00060E281E00E94933D09C089819A81833431
:1055C000914021F460E481E00E94933D00000F903F
:1055D0000F90DF91CF910895CF93DF9300D0CDB797
:1055E000DEB79A83898389819A81892B09F47BC0EC
:1055F00089819A818837910549F461E080E00E94B1
:10560000C83D60E180E00E94C83D6DC089819A81FB
:10561000803C910529F462E080E00E94C83D63C0AF
:1056200089819A818C34910529F464E080E00E949C
:10563000C83D59C089819A818038910529F468E074
:1056400080E00E94C83D4FC089819A8184349105D1
:1056500029F460E280E00E94C83D45C089819A81BA
:10566000803B910529F460E480E00E94C83D3BC086
:1056700089819A81883B910529F460E880E00E9445
:10568000C83D31C089819A81883C910529F461E047
:1056900081E00E94C83D27C089819A8180399105A7
:1056A00029F468E081E00E94C83D1DC089819A818B
:1056B000803A910529F460E181E00E94C83D13C061
:1056C00089819A818032914029F460E281E00E94D0
:1056D000C83D09C089819A818334914021F460E4F6
:1056E00081E00E94C83D00000F900F90DF91CF91A4
:1056F00008951F920F9200905F000F921124009066
:105700005B000F922F933F934F935F936F937F9321
:105710008F939F93AF93BF93EF93FF93CF93DF93B9
:10572000CDB7DEB78091671090916810892B31F06A
:105730008091671090916810FC0109950000DF913D
:10574000CF91FF91EF91BF91AF919F918F917F91F9
:105750006F915F914F913F912F910F9000925B005D
:105760000F9000925F000F901F9018951F920F925C
:1057700000905F000F92112400905B000F922F9316
:105780003F934F935F936F937F938F939F93AF93C9
:10579000BF93EF93FF93CF93DF93CDB7DEB78091A5
:1057A000691090916A10892B31F080916910909165
:1057B0006A10FC0109950000DF91CF91FF91EF91F4
:1057C000BF91AF919F918F917F916F915F914F9119
:1057D0003F912F910F9000925B000F9000925F001D
:1057E0000F901F9018951F920F9200905F000F92DC
:1057F000112400905B000F922F933F934F935F9380
:105800006F937F938F939F93AF93BF93EF93FF9388
:10581000CF93DF93CDB7DEB780916B1090916C1072
:10582000892B31F080916B1090916C10FC010995DF
:105830000000DF91CF91FF91EF91BF91AF919F91C8
:105840008F917F916F915F914F913F912F910F9029
:1058500000925B000F9000925F000F901F901895D0
:105860001F920F9200905F000F92112400905B0036
:105870000F922F933F934F935F936F937F938F93E9
:105880009F93AF93BF93EF93FF93CF93DF93CDB7E6
:10589000DEB780916D1090916E10892B31F0809160
:1058A0006D1090916E10FC0109950000DF91CF9171
:1058B000FF91EF91BF91AF919F918F917F916F91E8
:1058C0005F914F913F912F910F9000925B000F904D
:1058D00000925F000F901F9018951F920F920090FA
:1058E0005F000F92112400905B000F922F933F9363
:1058F0004F935F936F937F938F939F93AF93BF93D8
:10590000EF93FF93CF93DF93CDB7DEB780916F1006
:1059100090917010892B31F080916F1090917010E0
:10592000FC0109950000DF91CF91FF91EF91BF91AC
:10593000AF919F918F917F916F915F914F913F9127
:105940002F910F9000925B000F9000925F000F90DC
:105950001F9018951F920F9200905F000F921124D4
:1059600000905B000F922F933F934F935F936F9341
:105970007F938F939F93AF93BF93EF93FF93CF93B7
:10598000DF93CDB7DEB78091711090917210892BA3
:1059900031F08091711090917210FC010995000016
:1059A000DF91CF91FF91EF91BF91AF919F918F9137
:1059B0007F916F915F914F913F912F910F90009246
:1059C0005B000F9000925F000F901F9018951F9240
:1059D0000F9200905F000F92112400905B000F92D5
:1059E0002F933F934F935F936F937F938F939F93E7
:1059F000AF93BF93EF93FF93CF93DF93CDB7DEB712
:105A00008091731090917410892B31F080917310F4
:105A100090917410FC0109950000DF91CF91FF91E6
:105A2000EF91BF91AF919F918F917F916F915F9116
:105A30004F913F912F910F9000925B000F90009239
:105A40005F000F901F9018951F920F9200905F00BB
:105A50000F92112400905B000F922F933F934F936E
:105A60005F936F937F938F939F93AF93BF93EF93C6
:105A7000FF93CF93DF93CDB7DEB7809175109091F0
:105A80007610892B31F08091751090917610FC0181
:105A900009950000DF91CF91FF91EF91BF91AF91F8
:105AA0009F918F917F916F915F914F913F912F9136
:105AB0000F9000925B000F9000925F000F901F907C
:105AC00018951F920F9200905F000F921124009082
:105AD0005B000F922F933F934F935F936F937F934E
