:100000000C9471010C9490010C9490010C9490014B
:100010000C9490010C9490010C9490010C9490011C
:100020000C9490010C9490010C9490010C9490010C
:100030000C94E43E0C9490010C9490010C9490016B
:100040000C9490010C944C2E0C94892E0C94C62E7A
:100050000C940F2E0C9490010C9490010C94900130
:100060000C9490010C94E0420C9490010C9490013B
:100070000C9490010C9490010C9490010C949001BC
:100080000C94402F0C947D2F0C94BA2F0C94032FBA
:100090000C9490010C9490010C9490010C9490019C
:1000A0000C9490010C9490010C9434300C947130A9
:1000B0000C94AE300C94F72F0C9490010C942831D2
:1000C0000C9465310C94A2310C94EB300C9490019B
:1000D0000C9490010C9490010C9490010C9490015C
:1000E0000C9490010C9490010C9490010C9490014C
:1000F0000C9490010C9490010C9490010C9490013C
:100100000C9490010C94F5350C9432360C946F36A7
:100110000C94B8350C94AC360C9490010C9490016E
:100120006E616E00696E660000407A10F35A00A09E
:10013000724E18090010A5D4E80000E876481700B0
:1001400000E40B54020000CA9A3B000000E1F505F0
:10015000000080969800000040420F000000A0863A
:1001600001000000102700000000E803000000006C
:100170006400000000000A00000000000100000010
:1001800000002C76D888DC674F0823DFC1DFAE592A
:10019000E1B1B796E5E3E453C63AE651997696E8BD
:1001A000E6C28426EB898C9B62ED407C6FFCEFBC41
:1001B0009C9F40F2BAA56FA5F490055A2AF75C936C
:1001C0006B6CF9676DC11BFCE0E40D47FEF520E6A2
:1001D000B500D0ED902E0300943577050080841E85
:1001E000080000204E0A000000C80C333333330FE0
:1001F000986E12831141EF8D2114893BE65516CF7D
:10020000FEE6DB18D1844B381BF77C1D901DA4BB88
:10021000E424203284725E228100C9F124ECA1E53D
:100220003D27330019000C00060003000200010006
:10023000FF00A001CF006700330019000C00070089
:1002400008004003A001CF00670033001900100030
:100250001000330019000C0006000300020001002A
:10026000FF00A001CF006700330019000C00070059
:1002700008004003A001CF00670033001900100000
:100280001000330019000C000600030002000100FA
:10029000FF00A001CF006700330019000C00070029
:1002A00008004003A001CF006700330019001000D0
:1002B0001000330019000C000600030002000100CA
:1002C000FF00A001CF006700330019000C000700F9
:1002D00008004003A001CF006700330019001000A0
:1002E000100011241FBECFEFD1E4DEBFCDBF12E05E
:1002F000A0E0B2E0E8E5F4EB00E00BBF02C007903D
:100300000D92A434B107D9F72BE1A4E4B2E001C007
:100310001D92A13FB207E1F70E94AF020C947E58F4
:100320000C940000CF93DF93CDB7DEB780E094E26A
:10033000A4EFB0E0BC01CD01DF91CF910895CF9340
:10034000DF93CDB7DEB70E949201DC01CB01BC0187
:10035000CD01DF91CF910895CF93DF9300D0CDB73A
:10036000DEB79A83898389819A81FC018081282F55
:10037000226089819A81FC01208300000F900F90F8
:10038000DF91CF910895CF93DF93CDB7DEB72B9751
:100390000FB6F894DEBF0FBECDBF998788877B87E5
:1003A0006A878A859B85FC0184818D838A859B85EC
:1003B000FC0185818E838A859B85FC0186818F83E4
:1003C0008A859B85FC0180819181A281B38189838B
:1003D0009A83AB83BC83888599859E012F5F3F4FAD
:1003E000B9010E943C3A882311F081E001C080E00D
:1003F0002B960FB6F894DEBF0FBECDBFDF91CF9125
:100400000895CF93DF9300D01F92CDB7DEB79A83C4
:1004100089836B8389819A816B810E944A3C0F900A
:100420000F900F90DF91CF910895CF93DF9300D07D
:1004300000D0CDB7DEB79A8389837C836B838981B3
:100440009A810E94693C282F8B819C81FC0120832A
:1004500000000F900F900F900F90DF91CF910895B3
:10046000CF93DF9300D000D0CDB7DEB79A838983D6
:100470007C836B8389819A819093E51B8093E41B35
:1004800081E092E09093E31B8093E21B85E192E090
:100490009093E11B8093E01B2B813C8189819A81A1
:1004A000B9010E94C3016CE171E48BE391E40E9405
:1004B000165600000F900F900F900F90DF91CF9184
:1004C0000895CF93DF9300D0CDB7DEB79A838983A9
:1004D00085E292E0892F8F9385E292E08F930E94CC
:1004E0009D560F900F9000000F900F90DF91CF91CD
:1004F0000895CF93DF93CDB7DEB784EC99E0A0E009
:10050000B0E08093560290935702A0935802B093A4
:10051000590281E080935A0281E692E090935C0256
:1005200080935B0280E592E00E947C240000DF91D2
:10053000CF910895CF93DF93CDB7DEB780914F026F
:10054000882F90E0892B09F006C00E94790281E093
:1005500080934F0200000000DF91CF9108950F9328
:100560001F93CF93DF93CDB7DEB727970FB6F894DD
:10057000DEBF0FBECDBF0E9403400E9438430E94E1
:10058000262481E00E94DC200E946635789427E0D2
:10059000E3E3F2E0CE010196DC0101900D922A9591
:1005A000E1F7CE010196BC0180EC90E00E943002A0
:1005B00080EC90E00E94AC010E949F01DC01CB0125
:1005C0008C019D0140E052EC61E070E080EC90E035
:1005D0000E94E53C0E9436240E949A02FBCFCF93F2
:1005E000DF93CDB7DEB710926D0210922E061092F7
:1005F0005D020000DF91CF910895CF93DF93CDB7D7
:10060000DEB780915D02DF91CF910895CF93DF93A4
:10061000CDB7DEB780916D02DF91CF910895CF9372
:10062000DF9300D000D000D0CDB7DEB78D836E83CE
:100630001C821B821A82198221C08D81882F90E032
:10064000098002C0959587950A94E2F781709927F1
:10065000892B79F08E81882F90E0098002C0880F65
:10066000991F0A94E2F72B813C81822793279C8370
:100670008B8389819A8101969A83898389819A8162
:100680000897DCF286E090E09A83898323C080E0BB
:1006900091E0098002C0880F991F0A94E2F79C013B
:1006A0008B819C8182239323892B79F089EA91E0C5
:1006B000098002C0880F991F0A94E2F79C018B8180
:1006C0009C81822793279C838B8389819A810197C0
:1006D0009A83898389819A819923CCF68B81269686
:1006E0000FB6F894DEBF0FBECDBFDF91CF91089556
:1006F000CF93DF93CDB7DEB769970FB6F894DEBF1F
:100700000FBECDBF898F898D882311F480E0B6C0DC
:100710001A82198268C0898D882F90E09C01098017
:1007200002C0220F331F0A94E2F789819A81880F51
:10073000991FAE014F5F5F4F840F951F0896FC0114
:100740003183208386E090E09C838B8342C0898143
:100750009A81880F991F9E012F5F3F4F820F931F31
:100760000896FC018081918120E031E00B8002C07D
:10077000220F331F0A94E2F782239323892B21F15E
:1007800089819A81880F991F9E012F5F3F4F820FA9
:10079000931F0896FC018081918129EA31E00B804A
:1007A00002C0220F331F0A94E2F7282739278981D4
:1007B0009A81880F991FAE014F5F5F4F840F951F7D
:1007C0000896FC01318320838B819C8101979C8357
:1007D0008B838B819C8199230CF0B9CF89819A817D
:1007E00001969A83898389819A8108970CF493CF23
:1007F0001E821D823BC018861F821A82198227C062
:1008000081E090E0098002C0880F991F0A94E2F706
:100810009C018D819E8182239323892B99F089816C
:100820009A81880F991F9E012F5F3F4F820F931F60
:100830000896FC01808191812F813885822793273A
:1008400098878F8389819A8101969A838983898188
:100850009A810897ACF28F819885019711F48D8168
:100860000DC08D819E8101969E838D838D819E8199
:100870008F3F910509F008F4BECF80E069960FB66E
:10088000F894DEBF0FBECDBFDF91CF910895CF9317
:10089000DF93CDB7DEB728970FB6F894DEBF0FBE53
:1008A000CDBF9E838D8378876F838D819E819A8350
:1008B00089834AC08D819E814FE0489F9001499F66
:1008C000300D112489819A81820F931F815D994F88
:1008D000FC018081882F90E09C838B838F81988599
:1008E0004FE0489F9001499F300D112489819A81E2
:1008F000820F931F815D994FFC0140818D819E8104
:100900005FE0589F9001599F300D112489819A8191
:10091000820F931F815D994FFC0140834B818F8132
:1009200098855FE0589F9001599F300D112489816F
:100930009A81820F931F815D994FFC0140838981C9
:100940009A8101969A83898389819A81409708F4D4
:10095000B1CF1A8219825AC08D819E819C010024D8
:10096000369527950794369527950794322F202D95
:1009700089819A81820F931F805F984FFC0180814B
:10098000882F90E09C838B838F8198859C01002425
:10099000369527950794369527950794322F202D65
:1009A00089819A81820F931F805F984FFC0140815B
:1009B0008D819E819C01002436952795079436955C
:1009C00027950794322F202D89819A81820F931FBA
:1009D000805F984FFC0140834B818F8198859C01FB
:1009E0000024369527950794369527950794322F3E
:1009F000202D89819A81820F931F805F984FFC017F
:100A0000408389819A8101969A83898389819A8119
:100A10008034910508F4A0CF000028960FB6F89412
:100A2000DEBF0FBECDBFDF91CF910895CF93DF938F
:100A3000CDB7DEB727970FB6F894DEBF0FBECDBF98
:100A40008B837D836C835F834E838C819D819A83AE
:100A500089833CC08C819D814FE0489F9001499FD4
:100A6000300D112489819A81820F931F815D994FE6
:100A7000FC018081682F8B810E940F03582F8E818B
:100A80009F814FE0489F9001499F300D112489813B
:100A90009A81820F931F815D994FFC018081482FBD
:100AA00045278E819F815FE0589F9001599F300DAF
:100AB000112489819A81820F931F815D994FFC01D6
:100AC000408389819A8101969A83898389819A8159
:100AD000409708F4BFCF1A82198247C08C819D814C
:100AE0009C01002436952795079436952795079401
:100AF000322F202D89819A81820F931F805F984F1A
:100B0000FC018081682F8B810E940F03482F8E810A
:100B10009F819C010024369527950794369527954B
:100B20000794322F202D89819A81820F931F805F35
:100B3000984FFC01808148278E819F819C01002471
:100B4000369527950794369527950794322F202DB3
:100B500089819A81820F931F805F984FFC014083A7
:100B600089819A8101969A83898389819A818034C7
:100B7000910508F4B3CF000027960FB6F894DEBFB6
:100B80000FBECDBFDF91CF9108951F93CF93DF9319
:100B900000D000D000D0CDB7DEB79C838B837E839E
:100BA0006D838B819C8101969A83898346C089815C
:100BB0009A814FE0489F9001499F300D11248D810B
:100BC0009E81820F931F815D994FFC018081882354
:100BD00079F189819A814FE0489F9001499F300DBA
:100BE00011248D819E81820F931F815D994FFC019D
:100BF00010818B819C814FE0489F9001499F300D6F
:100C000011248D819E81820F931F815D994FFC017C
:100C100080810E947803612F0E940F03E82F2981B1
:100C20003A818B819C81A901BC018E2F0E941605FF
:100C300089819A8101969A83898380912E06282F33
:100C400030E089819A818217930708F4B0CF0000C1
:100C500026960FB6F894DEBF0FBECDBFDF91CF91C1
:100C60001F910895DF92EF92FF920F931F93CF93FE
:100C7000DF93CDB7DEB727970FB6F894DEBF0FBE70
:100C8000CDBF80916D02882319F480E090E05BC2B3
:100C900080916D0280932E061A82A9C08A81882FC6
:100CA00090E0825A9D4FDC018C91882309F49CC00E
:100CB00019828EC08981482F880F550B8A81882F11
:100CC00090E06FE0649F9001659F300D1124820FCA
:100CD000931F815D994FFC018081882309F475C0C1
:100CE0001B825CC08A81282F30E08B81882F90E0A6
:100CF0000024369527950794369527950794322F2B
:100D0000202D820F931F82599D4FDC017C91898198
:100D1000482F880F550B8A81882F90E06FE0649FE1
:100D20009001659F300D1124820F931F815D994FB3
:100D3000FC018081672F0E940F03E82F8981282FF3
:100D4000880F330B8B81882F90E04981642F440FEB
:100D5000770B4B81442F50E00024769567950794DC
:100D6000769567950794762F602D460F571F405F45
:100D7000584FDA014C914E27002436952795079459
:100D8000369527950794322F202D820F931F805F71
:100D9000984FFC0140838B818F5F8B838B818034E4
:100DA00008F4A0CF8981482F880F550B8A81882F9E
:100DB00090E06FE0649F9001659F300D1124820FD9
:100DC000931F815D994FDC011C9289818F5F89831C
:100DD0008981282F880F330B80912E06882F90E071
:100DE000281739070CF466CF8A818F5F8A838A813E
:100DF0008F3008F453CF1A821E8265C08E8189839A
:100E00008981482F880F550B8A81882F90E06FE0E9
:100E1000649F9001659F300D1124820F931F815DA7
:100E2000994FFC018081882369F08A81282F30E066
:100E30008E81882F90E0B9010E94C5058E818F5F59
:100E40008E833EC089818F5F89832FC08981482F1F
:100E5000880F550B8A81882F90E06FE0649F900186
:100E6000659F300D1124820F931F815D994FDC0126
:100E70008C918823B9F08981282F880F330B8E81BC
:100E8000882F90E0B9010E9447048A81282F30E022
:100E90008E81882F90E0B9010E94C5058E818F5FF9
:100EA0008E830EC089818F5F89838981282F880F67
:100EB000330B80912E06882F90E02817390734F2E3
:100EC0008A818F5F8A838A818F3008F497CF1F824F
:100ED00080912E06815089832DC11D821A821DC0EA
:100EE0008981482F880F550B8A81882F90E06FE009
:100EF000649F9001659F300D1124820F931F815DC7
:100F0000994FFC018081882329F08D818F5F8D832B
:100F10008A818C838A818F5F8A838A818F3000F3F4
:100F20008D81882331F480912E06815080932E0686
:100F3000FEC08D81813009F002C11B8248C08C81C6
:100F4000E82EF12C8B81082F10E08981282F880F43
:100F5000330B8B81882F90E00024369527950794DA
:100F6000369527950794322F202D820F931F805F8F
:100F7000984FDC01DC908981482F880F550B8C81BC
:100F8000882F90E06FE0649F9001659F300D1124E1
:100F9000820F931F815D994FFC0180810E9478032D
:100FA0006D2D0E940F03282FC70100249695879569
:100FB0000794969587950794982F802D800F911F01
:100FC00082599D4FDC012C938B818F5F8B838B81AA
:100FD000803408F4B4CF8C81882F90E0825A9D4FE2
:100FE00022E0FC01208380912E06815080932E0602
:100FF0008F818F5F8F8319828EC08981482F880FE0
:10100000550B8C81882F90E06FE0649F9001659F65
:10101000300D1124820F931F815D994FDC018C915B
:10102000882309F475C01B825CC08C81282F30E0B6
:101030008B81882F90E0002436952795079436956C
:1010400027950794322F202D820F931F82599D4F91
:10105000FC0170818981482F880F550B8C81882F66
:1010600090E06FE0649F9001659F300D1124820F26
:10107000931F815D994FDC018C91672F0E940F03B4
:10108000E82F8981282F880F330B8B81882F90E0E0
:101090004981642F440F770B4B81442F50E000248B
:1010A000769567950794769567950794762F602DCA
:1010B000460F571F405F584FDA014C914E270024CE
:1010C000369527950794369527950794322F202D2E
:1010D000820F931F805F984FFC0140838B818F5F4D
:1010E0008B838B81803408F4A0CF8981482F880FAF
:1010F000550B8C81882F90E06FE0649F9001659F75
:10110000300D1124820F931F815D994FDC011C92D9
:1011100089818F5F89838981282F880F330B809184
:101120002E06882F90E0281739070CF466CF8981A6
:1011300081508983898188230CF0CFCE01C00000C3
:101140008F81882F90E027960FB6F894DEBF0FBEF0
:10115000CDBFDF91CF911F910F91FF90EF90DF9066
:101160000895CF93DF93CDB7DEB710926D02109242
:101170002E0610925D024FE050E060E070E08EE5D8
:1011800092E00E94045641EE50E060E070E08FE291
:1011900096E00E94045640EC53E060E070E080E18D
:1011A00097E00E9404560000DF91CF910895CF93FD
:1011B000DF9300D000D0CDB7DEB79C838B838B81CB
:1011C0009C81FC0180819181892B09F47BC08B81FA
:1011D0009C81FC01808191810F9708F073C08B8105
:1011E0009C81FC01878190859A83898389819A817A
:1011F000FC018081813061F580915D028F5F809379
:101200005D028B819C81FC01808191810197825AD2
:101210009D4F21E0FC01208389819A819C012F5FF1
:101220003F4F8B819C81FC0180819181019700243B
:10123000969587950794969587950794982F802D76
:1012400082599D4F40E450E0B9010E94FB553BC0DC
:1012500089819A81FC0180818230A9F589819A81F6
:10126000BC016F5F7F4F80916D02282F30E04FE00F
:10127000429FC001439F900D1124815D994F4FE023
:1012800050E00E94FB5589819A819C01205F3F4F6D
:1012900080916D02882F90E00024969587950794A1
:1012A000969587950794982F802D805F984F40E4FE
:1012B00050E0B9010E94FB5580916D028F5F8093D1
:1012C0006D0201C000000F900F900F900F90DF9102
:1012D000CF910895CF93DF9300D01F92CDB7DEB7A3
:1012E00089837B836A8380915D028F5F80935D0237
:1012F0008981882F90E00197825A9D4F21E0FC015F
:1013000020838A819B819C012F5F3F4F8981882F99
:1013100090E0019700249695879507949695879578
:101320000794982F802D82599D4F40E450E0B901D9
:101330000E94FB5500000F900F900F90DF91CF910E
:101340000895CF93DF9300D0CDB7DEB789836A834A
:1013500089818F30C8F48981882F90E0825A9D4F0F
:10136000FC0190818A81981779F48981882F90E017
:101370000024969587950794969587950794982FBE
:10138000802D82599D4F02C080E090E00F900F9019
:10139000DF91CF9108952F923F924F925F926F927B
:1013A0007F928F929F92AF92BF92CF92DF92EF92F5
:1013B000FF920F931F93CF93DF93CDB7DEB7629762
:1013C0000FB6F894DEBF0FBECDBF988B8F877A8B98
:1013D000698B8F8598899A83898389899A899C8367
:1013E0008B838B819C81FC018181282F30E0898156
:1013F0009A81FC018181882F90E0A901481B590B3B
:10140000CA019E838D838D819E8199231CF49195C1
:101410008195910949971CF08D819E819AC089819F
:101420009A81FC018489882309F47FC08B819C8187
:10143000FC018489882309F478C089819A81FC01A0
:10144000A384FC01B484FC01C584FC01D684FC01A6
:10145000E784FC01F088FC010189FC0112898B8181
:101460009C81FC012384FC013484FC014584FC0143
:101470005684FC016784FC017088FC018188FC01B2
:1014800092882A2D3B2D4C2D5D2D6E2D7F2D802F8A
:10149000912FA22CB32CC42CD52CE62CF72C082D84
:1014A000192D0E949552A22EB32EC42ED52EE62EB3
:1014B000F72E082F192FAF82B886C986DA86EB86F9
:1014C000FC860D871E87AF80B884C984DA84EB84DC
:1014D000FC840D851E852A2D3B2D4C2D5D2D6E2DFA
:1014E0007F2D802F912FA0E00E949E5221F01CF0B2
:1014F0008FEF9FEF2EC0AF80B884C984DA84EB846D
:10150000FC840D851E852A2D3B2D4C2D5D2D6E2DC9
:101510007F2D802F912FA0E00E949E521CF481E02D
:1015200090E017C080E090E014C089819A81FC01AE
:101530008489882319F081E090E00BC08B819C8125
:10154000FC018489882319F08FEF9FEF02C080E0AF
:1015500090E062960FB6F894DEBF0FBECDBFDF916C
:10156000CF911F910F91FF90EF90DF90CF90BF90A0
:10157000AF909F908F907F906F905F904F903F9033
:101580002F9008958F929F92AF92BF92CF92DF9249
:10159000EF92FF920F931F93CF93DF93CDB7DEB7F8
:1015A0001091260D0E94FD02912F981B892F809388
:1015B000D10A8091D10A882314F41092D10A809123
:1015C0000A0290910B02A0910C02B0910D029C01B5
:1015D000AD0160E070E080E89FE30E944E50DC01C6
:1015E000CB017C018D018091D20A9091D30AA09108
:1015F000D40AB091D50A9C01AD01C801B7010E947F
:10160000D751DC01CB016C017D018091D10A082EFC
:10161000000C990BAA0BBB0BBC01CD010E940A5117
:101620004B015C0180910A0290910B02A0910C0287
:10163000B0910D029C01AD01C501B4010E94D751CA
:10164000DC01CB019C01AD01C701B6010E944F50E6
:10165000DC01CB018093D20A9093D30AA093D40AE1
:10166000B093D50A80910E0290910F02A0911002C2
:10167000B09111029C01AD0160E070E080E89FE351
:101680000E944E50DC01CB017C018D018091D60A75
:101690009091D70AA091D80AB091D90A9C01AD01C6
:1016A000C801B7010E94D751DC01CB016C017D015B
:1016B0008091D10A082E000C990BAA0BBB0BBC0120
:1016C000CD010E940A514B015C018091D20A909198
:1016D000D30AA091D40AB091D50A9C01AD01C501ED
:1016E000B4010E944E50DC01CB01BC01CD010E942F
:1016F000D250DC01CB0199231CF49195819591097D
:10170000092E000CAA0BBB0BBC01CD010E940A5193
:101710004B015C0180910E0290910F02A09110028A
:10172000B09111029C01AD01C501B4010E94D751D5
:10173000DC01CB019C01AD01C701B6010E944F50F5
:10174000DC01CB018093D60A9093D70AA093D80AE4
:10175000B093D90A8091120290911302A0911402C1
:10176000B09115022091D20A3091D30A4091D40A47
:101770005091D50ABC01CD010E94D751DC01CB01AB
:101780007C018D018091D60A9091D70AA091D80A48
:10179000B091D90A9C01AD01C801B7010E944F5018
:1017A000DC01CB01BC01CD010E94BB50DC01CB01AF
:1017B000BC01CD010E94D950DC01CB018093D00A3D
:1017C0008091D00A8F3018F08EE08093D00A00000C
:1017D000DF91CF911F910F91FF90EF90DF90CF900D
:1017E000BF90AF909F908F900895CF93DF9300D0DC
:1017F000CDB7DEB71A8219824BC029813A8145E103
:10180000429FC001439F900D11248C51954FFC01C4
:101810008081282F30E049815A8165E1649FC001B1
:10182000659F900D11248351954FFC018081882F75
:1018300090E0820F931F41E004970CF440E029816F
:101840003A8155E1529FC001539F900D112482515E
:10185000954FFC01408329813A8145E1429FC001B7
:10186000439F900D11248C51954FFC0110822981CA
:101870003A8145E1429FC001439F900D112483515D
:10188000954FFC01108289819A8101969A83898300
:1018900089819A810F970CF4B0CF00000F900F90C0
:1018A000DF91CF910895CF93DF93CDB7DEB729971E
:1018B0000FB6F894DEBF0FBECDBF19821A821B820D
:1018C0001C8286E291E0EAEDFAE0A0E0BCE0019043
:1018D0000D920197E1F71E821D823CC02D813E8151
:1018E00045E1429FC001439F900D11248F5F934FAC
:1018F000FC018081882369F42D813E8145E1429F6E
:10190000C001439F900D11248F5F934F27E1FC018D
:1019100020832D813E8145E1429FC001439F900D70
:1019200011248F5F934FFC018081882F90E0A0E00D
:10193000B0E029813A814B815C81820F931FA41F03
:10194000B51F89839A83AB83BC838D819E81019669
:101950009E838D838D819E810F970CF4BFCF8981EB
:101960009A81AB81BC812EE030E040E050E0BC01C8
:10197000CD010E945852DA01C90189839A83AB8351
:10198000BC8389819A81AB81BC814897A105B1054F
:1019900040F489E190E0A0E0B0E089839A83AB83D2
:1019A000BC832BEC39E045E150E06EE070E080E074
:1019B0009CE00E94F1528091350D8E5F8987898568
:1019C000882F90E08B5C924FFC018081882F90E003
:1019D00002969C018985882F90E08B5C924FA9012B
:1019E000BC0185E39DE00E94FB558091350D8E5F23
:1019F00089871F8218863CC08885282F30E045E102
:101A0000429FC001439F900D11248F5F934FFC01B3
:101A10008081282F30E040E050E089819A81AB81BD
:101A2000BC81281739074A075B07F0F08985282F02
:101A300030E08F81882F90E0820F931F02962F81D4
:101A4000422F50E065E1649F9001659F300D1124A5
:101A50002050344FF90120818B5C924FFC01208390
:101A60008F818F5F8F8301C0000088858F5F88879B
:101A70008091D00A9885981708F4BECF8985882F61
:101A800090E08B5C924F2F81FC0120838985882F09
:101A900090E001968B5C924F24E0FC0120830000D3
:101AA00029960FB6F894DEBF0FBECDBFDF91CF9160
:101AB0000895CF93DF931F92CDB7DEB71092D00A6F
:101AC0001092260D198284C08981282F30E08981E7
:101AD00041E0480F55E1529FC001539F900D1124E2
:101AE0008652954FFC0140838981282F30E045E1E3
:101AF000429FC001439F900D11248552954FFC01D8
:101B000010828981282F30E045E1429FC001439F28
:101B1000900D11248452954FFC011082FC0111821A
:101B2000FC011282FC011382FC011482FC0115826B
:101B3000FC011682FC0117828981282F30E045E1E3
:101B4000429FC001439F900D11248B51954FFC0182
:101B50001082FC011182FC011282FC011382FC0143
:101B60001482FC011582FC011682FC011782898116
:101B7000282F30E045E1429FC001439F900D112482
:101B80008C51954FFC0110828981282F30E045E16E
:101B9000429FC001439F900D11248351954FFC013A
:101BA00010828981282F30E045E1429FC001439F88
:101BB000900D11248251954FFC0110828981882F4C
:101BC00090E0895D924FFC01108289818F5F89834B
:101BD00089818E3008F478CF40E250E060E070E018
:101BE00085E39DE00E94045600000F90DF91CF91A5
:101BF0000895AF92BF92CF92DF92EF92FF920F9330
:101C00001F93CF93DF9300D000D0CDB7DEB79C8376
:101C10008B838B819C81DC018D919C91892B09F4B4
:101C200040C18B819C81FC01808191810F9708F0DC
:101C300038C18B819C81DC0117968D919C911897FE
:101C40009A8389838B819C81FC01808191819C0195
:101C5000215031098B819C81DC011B968C91582F7E
:101C600045E1429FC001439F900D11248552954F3D
:101C7000FC01508389819A81DC018C91813009F0CB
:101C800073C08B819C81FC0180819181FC01319723
:101C900025E12E9FC0012F9F900D11248452954F56
:101CA000DC01AC90DC011196BC90DC011296CC906A
:101CB000DC011396DC90DC011496EC90DC011596A7
:101CC000FC90DC0116960C91DC0117961C912A2DD4
:101CD0003B2D4C2D5D2D6E2D7F2D802F912FA1E062
:101CE0000E948952A22EB32EC42ED52EE62EF72E98
:101CF000082F192F25E12E9FC0012F9F900D112431
:101D00008452954FFC01A082DC011196BC92FC012B
:101D1000C282DC011396DC92FC01E482DC011596A0
:101D2000FC92FC010683DC0117961C938B819C813D
:101D3000FC0180819181019745E1489F9001499F75
:101D4000300D11242C51354FD9012C9141E0420F17
:101D500055E1589F9001599F300D1124C9018C51B4
:101D6000954FFC0140839EC089819A81DC018C9152
:101D7000823009F073C08B819C81FC01808191814C
:101D8000FC01319725E12E9FC0012F9F900D11245A
:101D90008B51954FDC01AC90DC011196BC90DC01BD
:101DA0001296CC90DC011396DC90DC011496EC903A
:101DB000DC011596FC90DC0116960C91DC0117965F
:101DC0001C912A2D3B2D4C2D5D2D6E2D7F2D802FAE
:101DD000912FA1E00E948952A22EB32EC42ED52E9F
:101DE000E62EF72E082F192F25E12E9FC0012F9FD9
:101DF000900D11248B51954FFC01A082DC011196AE
:101E0000BC92FC01C282DC011396DC92FC01E482EC
:101E1000DC011596FC92FC010683DC0117961C93ED
:101E20008B819C81FC0180819181019745E1489FD4
:101E30009001499F300D11242351354FD9012C9128
:101E400041E0420F55E1589F9001599F300D1124F8
:101E5000C9018351954FFC01408324C089819A8137
:101E6000DC018C918330F1F48B819C81FC018081B9
:101E700091810197895D924FDC018C91882391F4C7
:101E80008B819C81FC01808191810197895D924FBA
:101E900021E0DC012C938091260D8F5F8093260D2D
:101EA00001C000000F900F900F900F90DF91CF9125
:101EB0001F910F91FF90EF90DF90CF90BF90AF9068
:101EC0000895CF93DF931F92CDB7DEB70E94C20A69
:101ED0008091360D882329F08091360D81508093B2
:101EE000360D8091360D882321F40E94F50B0E9457
:101EF000530C198210C08981282F30E045E1429FA0
:101F0000C001439F900D11248552954FFC01108212
:101F100089818F5F898389818E3068F300000F90FB
:101F2000DF91CF910895CF93DF9300D0CDB7DEB787
:101F30009A83898389819A8120E2E5E3FDE0DC01CF
:101F400001900D922A95E1F700000F900F90DF911C
:101F5000CF910895CF93DF9300D0CDB7DEB79A83AA
:101F6000898389819A812EE0E7E2FDE0DC0101901E
:101F70000D922A95E1F78091260D0F900F90DF9139
:101F8000CF910895CF93DF931F92CDB7DEB78983AA
:101F90008981282F30E045E1429FC001439F900D89
:101FA00011248652954F0F90DF91CF910895CF93D2
:101FB000DF931F92CDB7DEB71092B41B1092B51B02
:101FC0001092B11B1092B01B1092D71B1092D61B0F
:101FD00019820EC08981882F90E00396880F991F7F
:101FE0008055944EFC011182108289818F5F898314
:101FF0008981803178F30E94391C0E94F7150E9474
:102000002D140E94E3100E94311500000F90DF9103
:10201000CF910895CF93DF9300D0CDB7DEB79A83E9
:10202000898389819A819093B11B8093B01B8981A8
:102030009A810E94612100000F900F90DF91CF9153
:102040000895CF93DF9300D0CDB7DEB79A8389830D
:1020500089819A819093B31B8093B21B89819A8165
:102060000E943D2100000F900F90DF91CF910895C5
:10207000CF93DF9300D01F92CDB7DEB789837B83E8
:102080006A838981882F90E00396880F991F805575
:10209000944E2A813B81FC013183208300000F9004
:1020A0000F900F90DF91CF910895CF93DF93CDB72D
:1020B000DEB78091D61B9091D71B21E0892B09F4C4
:1020C00020E0822FDF91CF910895CF93DF93CDB79A
:1020D000DEB78091D61B9091D71B01969093D71BAA
:1020E0008093D61B0000DF91CF910895CF93DF93AB
:1020F000CDB7DEB78091D61B9091D71B01979093F7
:10210000D71B8093D61B0000DF91CF910895CF930A
:10211000DF93CDB7DEB70E949B210000DF91CF9106
:102120000895CF93DF93CDB7DEB70E94C921000099
:10213000DF91CF910895CF93DF93CDB7DEB72C9782
:102140000FB6F894DEBF0FBECDBF8C8789E0EAE3FF
:10215000F2E0DE01139601900D928A95E1F789E194
:1021600089831A8215C09C858981981758F48A81C1
:10217000882F90E09E012D5F3F4F820F931FFC013F
:1021800080810AC08981875E89838A818F5F8A8383
:102190008A81893040F38FEF2C960FB6F894DEBF1A
:1021A0000FBECDBFDF91CF910895CF93DF93CDB711
:1021B000DEB70E94F81B0E94311F0E94F713000037
:1021C000DF91CF910895CF93DF93CDB7DEB7109213
:1021D000560D1092550D0000DF91CF910895CF93C9
:1021E000DF9300D0CDB7DEB79A83898389819A8146
:1021F000FC01148289819A81FC01118A89819A816A
:10220000FC01138212828091D61B9091D71B0196FC
:102210009093D71B8093D61B8091550D9091560DAE
:10222000892B61F489819A81FC0111821082898154
:102230009A819093560D8093550D0FC02091550DA6
:102240003091560D89819A81FC01318320838981E7
:102250009A819093560D8093550D00000F900F902A
:10226000DF91CF910895CF93DF9300D000D000D0BD
:10227000CDB7DEB79E838D830E944C149A838983E9
:1022800089819A81892B59F48D819E8122E0FC01FC
:1022900024838D819E8122E0FC01218BF2C18D81FE
:1022A0009E8129813A81FC01338322838D819E8125
:1022B00021E0FC01248389819A8189579F4F2AE478
:1022C00033E1FC01318320838D819E81FC01818576
:1022D000882F90E080729927892B09F47DC089812D
:1022E0009A81FC0181812BE0280F89819A81FC0170
:1022F000218389819A818F579F4FFC018081918131
:102300009C01255F3F4F89819A818F579F4FFC0128
:102310003183208389819A818A579F4FFC011082E3
:1023200089819A81FC012185207F2860FC01218719
:1023300089819A81FC0121852F702066FC0121870B
:1023400089819A81FC012285207F2160FC012287FE
:1023500089819A81FC0122852061FC012287898183
:102360009A81FC0122852064FC01228789819A815F
:10237000FC0122852F77FC01228789819A81FC014B
:10238000138689819A81FC0114868D819E81FC01CE
:102390008685482F50E08D819E81FC0124853585FE
:1023A00089819A818F579F4FFC0180819181B9016A
:1023B0000E94FB5589819A81FC0121818D819E813A
:1023C000FC018685280F89819A81FC0121838981FE
:1023D0009A810E946D1C55C189819A81FC0181817D
:1023E00020E1280F89819A81FC01218389819A81CA
:1023F0008F579F4FFC01808191819C01205F3F4F4F
:1024000089819A818F579F4FFC01318320838D8171
:102410009E81FC018185882F90E08470992721E0BE
:10242000892B09F420E089819A818A579F4FFC010A
:1024300020838D819E81FC018185882F90E08170B1
:10244000992721E0892B09F420E089819A81217064
:10245000FC0133853E7F232BFC0123878D819E81E8
:10246000FC018185882F90E08870992721E0892BD5
:1024700009F420E089819A812170220F220FFC014A
:1024800033853B7F232BFC0123878D819E81FC01BB
:102490008185882F90E08072992721E0892B09F4AB
:1024A00020E089819A8121702295207FFC0133856B
:1024B0003F7E232BFC0123878D819E81FC0181853A
:1024C000882F90E08071992721E0892B09F420E082
:1024D00089819A812170220F220F220FFC013385FE
:1024E000377F232BFC01238789819A81FC01838517
:1024F0008870882309F462C089819A818F579F4F21
:10250000FC01808191819C838B838D819E81FC0164
:102510008285282F2F708B819C812F70FC01318147
:10252000307F232BFC0121838D819E81FC018285DC
:10253000282F2F708B819C812295207FFC01318177
:102540003F70232BFC0121838D819E81FC018385BB
:10255000282F2F708B819C812F70FC013081307F60
:10256000232BFC0120838D819E81FC018385282FF4
:102570002F708B819C812295207FFC0130813F70E0
:10258000232BFC01208389819A818F579F4FFC0167
:10259000808191819C012E5F3F4F89819A818F5765
:1025A0009F4FFC013183208389819A81FC018181C5
:1025B00022E0280F89819A81FC0121838091B41B3C
:1025C0008F5F8093B41B2091B41B89819A81FC0199
:1025D00024872091B01B3091B11B89819A81FC0125
:1025E000368725878D819E81FC01258136818981F1
:1025F0009A81FC01308B27878D819E81FC0180852B
:10260000282F2F7089819A812F70FC013189307FAA
:10261000232BFC01218B8D819E81FC018781282F3A
:102620002F7089819A812295207FFC0131893F702A
:10263000232BFC01218B8D819E81FC018685482FF7
:1026400050E08D819E81FC012485358589819A81A8
:102650008F579F4FFC0180819181B9010E94FB55EA
:1026600089819A81FC0121818D819E81FC01868571
:10267000280F89819A81FC01218389819A810E9496
:10268000B81C26960FB6F894DEBF0FBECDBFDF9103
:10269000CF910895CF93DF9300D000D0CDB7DEB7B0
:1026A0009C838B838091550D9091560D9A838983DD
:1026B0002BC089819A81FC01228133818B819C818D
:1026C00028173907D1F48B819C818D579F4FFC01CE
:1026D000208189819A81FC01218B8B819C818A5781
:1026E0009F4FFC01208189819A81FC01228B898185
:1026F0009A8122E0FC0124830BC089819A81FC012C
:10270000808191819A83898389819A81892B89F635
:102710008B819C810E94BE1400000F900F900F903F
:102720000F90DF91CF910895CF93DF9300D000D029
:10273000CDB7DEB79C838B832091550D3091560D1C
:102740008B819C812817390761F48091550D9091F8
:10275000560DFC01808191819093560D8093550D0B
:1027600025C08091550D9091560D9A83898307C09D
:1027700089819A81FC01808191819A8389838981F1
:102780009A81FC01208131818B819C812817390736
:1027900079F789819A81FC0180819181FC012081F6
:1027A000318189819A81FC01318320838091D61BFC
:1027B0009091D71B01979093D71B8093D61B8B8149
:1027C0009C81FC0187859089892B49F08B819C81B4
:1027D000FC01278530898B819C81F90109950000D6
:1027E0000F900F900F900F90DF91CF910895CF939E
:1027F000DF9300D0CDB7DEB78091550D9091560D87
:102800009A83898321C089819A81FC018481882FE0
:1028100090E08130910581F08230910541F0892B63
:1028200009F00BC089819A810E94331111C08981FE
:102830009A810E9494130CC0000089819A81FC0146
:10284000808191819A83898389819A81892BD9F6A4
:102850000F900F90DF91CF910895CF93DF931F9248
:10286000CDB7DEB7198210C08981282F30E049E842
:10287000429FC001439F900D1124895A924FFC0141
:10288000108289818F5F89838981843168F3000098
:102890000F90DF91CF910895CF93DF931F92CDB723
:1028A000DEB7198261C08981282F30E049E8429F54
:1028B000C001439F900D1124895A924FFC018081E1
:1028C000882309F04EC08981282F30E049E8429FD3
:1028D000C001439F900D1124895A924F49E850E05E
:1028E00060E070E00E9404568981282F30E049E8BA
:1028F000429FC001439F900D1124885A924FFC01C2
:1029000010828981482F50E08981282F30E069E8C2
:10291000629FC001639F900D112402969C01295A69
:10292000324F69E8649FC001659F900D1124885261
:10293000924FFC01318320838091D61B9091D71B4D
:1029400001969093D71B8093D61B8981282F30E066
:1029500049E8429FC001439F900D1124895A924F2C
:1029600009C089818F5F89838981843108F49BCF75
:1029700080E090E00F90DF91CF910895CF93DF93A7
:1029800000D0CDB7DEB79A83898389819A81FC0113
:1029900010828091D61B9091D71B01979093D71BE3
:1029A0008093D61B00000F900F90DF91CF91089578
:1029B000CF93DF9300D0CDB7DEB79A838983898127
:1029C0009A81892B29F487E59DE09A83898316C033
:1029D00089819A8187579F4F9A8389830FC0898104
:1029E0009A81FC018081882319F089819A810DC028
:1029F00089819A8187579F4F9A83898389819A8198
:102A00008B50984160F380E090E00F900F90DF9141
:102A1000CF910895CF93DF9300D0CDB7DEB79A83DF
:102A2000898389819A818D579F4FFC011082809103
:102A3000B41B8F5F8093B41B2091B41B89819A8152
:102A4000FC0124872091B01B3091B11B89819A81B0
:102A5000FC013687258700000F900F90DF91CF9102
:102A60000895CF93DF931F92CDB7DEB719820FC0C1
:102A70008981882F90E0880F991F855F974E2FEFEF
:102A80003FEFFC013183208389818F5F89838981B6
:102A9000833070F300000F90DF91CF910895CF93B2
:102AA000DF9300D0CDB7DEB79A83898389819A817D
:102AB000BC018FEF9FEF0E949C150F900F90DF914C
:102AC000CF910895CF93DF9300D0CDB7DEB79A832F
:102AD000898389819A816FEF7FEF0E949C150F9007
:102AE0000F90DF91CF910895CF93DF9300D01F9285
:102AF000CDB7DEB79B838A83198214C08981882F62
:102B000090E0880F991F855F974EFC0120813181ED
:102B10008A819B812817390711F481E007C08981D8
:102B20008F5F89838981833048F380E00F900F9015
:102B30000F90DF91CF910895CF93DF9300D000D015
:102B40001F92CDB7DEB79B838A837D836C83198206
:102B500020C08981882F90E0880F991F855F974E4C
:102B6000FC01208131818A819B812817390771F40A
:102B70008981882F90E0880F991F855F974E2C815F
:102B80003D81FC013183208381E007C089818F5F13
:102B9000898389818330E8F280E00F900F900F9055
:102BA0000F900F90DF91CF910895CF93DF9300D0D6
:102BB000CDB7DEB79A83898389819A81FC014181EF
:102BC00089819A818F579F4FFC01808191819C015F
:102BD00089819A810296B901681B790BCB01742F08
:102BE000781B872F0F900F90DF91CF910895CF938F
:102BF000DF931F92CDB7DEB7198211C08981282FCC
:102C000030E0C901880F991F880F991F820F931F09
:102C10008B5E974EFC01108289818F5F8983898149
:102C2000823360F384E690E0A0E0B0E08093121974
:102C300090931319A0931419B093151910921619A3
:102C400080EA97E1909318198093171961EC78E165
:102C500080E00E94381000000F90DF91CF9108951E
:102C6000CF93DF9300D000D0CDB7DEB79C838B83AA
:102C70008B819C81FC01808191810196FC01808186
:102C80008838D1F48B819C81FC0180819181FC0189
:102C90008081813651F08B819C81FC018081918102
:102CA000FC018081813409F0A8C08B819C81FC01EA
:102CB00082818031E8F4A1C08B819C81FC018081FC
:102CC00091810196FC018081803809F098C08B8148
:102CD0009C81FC0180819181FC018081882309F025
:102CE00090C08B819C81FC0182818B3008F489C06B
:102CF0000E944C149A83898389819A81892B09F4D3
:102D000082C08B819C81FC01808191810196FC01B4
:102D10008081883811F420E201C025E289819A81FE
:102D2000FC01208389819A81FC0180818532E1F454
:102D300089819A81FC0181812BE0280F89819A8108
:102D4000FC01218389819A818F579F4FFC018081EB
:102D500091819C01255F3F4F89819A818F579F4FB9
:102D6000FC01318320831BC089819A81FC01818110
:102D700020E1280F89819A81FC01218389819A8130
:102D80008F579F4FFC01808191819C01205F3F4FB5
:102D900089819A818F579F4FFC01318320838B81DA
:102DA0009C81FC01228189819A81FC0121838B8194
:102DB0009C81FC01238189819A818D579F4FFC0161
:102DC00020838B819C81FC01248189819A818C578D
:102DD0009F4FFC0120838B819C81FC018281482FC5
:102DE00050E08B819C81FC012081318189819A8115
:102DF0000296B9010E94FB5507C0000005C0000003
:102E000003C0000001C000000F900F900F900F90C2
:102E1000DF91CF910895CF93DF9300D000D000D001
:102E2000CDB7DEB79E838D830E944C149A8389832D
:102E300089819A81892B09F46BC08D819E81FC0167
:102E4000818120E1280F8D819E81FC0121838D816C
:102E50009E818F579F4FFC01808191819C01205F53
:102E60003F4F8D819E818F579F4FFC01318320837F
:102E700089819A810E940A1589819A81FC01818148
:102E800023E0280F89819A81FC01218389819A811D
:102E900089579F4FFC01118210828D819E81FC0118
:102EA000838581FB222720F989819A812170220F55
:102EB000FC0133853D7F232BFC0123878D819E817F
:102EC000FC012585368589819A81FC01308B278715
:102ED00089819A818F579F4FFC01808191819C83CA
:102EE0008B838B819C81FC01108220910B198B813B
:102EF0009C81FC0122838D819E81FC0124858B8134
:102F00009C81FC01218389819A810E94B81C01C0A7
:102F1000000026960FB6F894DEBF0FBECDBFDF913E
:102F2000CF910895CF93DF931F92CDB7DEB78983FA
:102F3000898180930B1900000F90DF91CF91089544
:102F4000CF93DF9300D000D0CDB7DEB79C838B83C7
:102F500019821A8230C08A81282F30E0C901880F77
:102F6000991F880F991F820F931F8B5E974EFC014C
:102F700080818823E9F08A81282F30E0C901880FF9
:102F8000991F880F991F820F931F8B5E974EFC012C
:102F900080814FEF480FC901880F991F880F991F33
:102FA000820F931F8B5E974EFC01408381E08983E3
:102FB0008A818F5F8A838A81823368F2898188233C
:102FC00021F08B819C810E947C2400000F900F9047
:102FD0000F900F90DF91CF910895CF93DF93CDB7EE
:102FE000DEB729970FB6F894DEBF0FBECDBF998725
:102FF00088871A8219821B8290C08B81282F30E02B
:10300000C901880F991F880F991F820F931F8F5E28
:10301000974E9D838C838C819D81FC0184818823C4
:1030200009F46EC088859985FC01238534858C81DF
:103030009D81FC01808191812817390709F060C0CA
:103040008C819D81FC01228188859985FC01828586
:10305000F22FF81B8F2F8E838E81883058F58C814C
:103060009D81FC018381882F90E02E81222F30E00A
:1030700002C0959587952A95E2F781709927892B4B
:1030800011F081E075C08C819D81FC018381482F06
:103090008E81282F30E081E090E002C0880F991FD8
:1030A0002A95E2F7842B282F8C819D81FC012383B4
:1030B00080E05EC08E8181958F8388859985FC0133
:1030C00022858C819D81FC0122838C819D81FC0164
:1030D0008381882F90E02F81222F30E002C0880F5B
:1030E000991F2A95E2F78160282F8C819D81FC0130
:1030F00023838C819D8125E1FC01248380E038C0FD
:103100008C819D81FC018481882321F48C819D81A7
:103110009A8389838B818F5F8B838B81823308F4C1
:103120006CCF89819A81892B11F481E021C0888537
:103130009985FC012385348589819A81FC0131833D
:10314000208388859985FC01228589819A81FC01EB
:10315000228389819A8121E0FC01238389819A81DC
:1031600025E1FC0124838CE099E10E947C2480E02D
:1031700029960FB6F894DEBF0FBECDBFDF91CF9179
:103180000895CF93DF9300D0CDB7DEB79A838983BC
:1031900089819A81FC018185882311F480E011C026
:1031A00089819A81FC0187819085FC018081882F2B
:1031B00090E0892B29F489819A810E94DE1D01C04B
:1031C00080E00F900F90DF91CF910895CF93DF9320
:1031D000CDB7DEB728970FB6F894DEBF0FBECDBFD0
:1031E00098878F838F81988502969B838A838F81AE
:1031F000988524E2FC0120838A819B81FC018185E2
:103200008270882309F03BC18A819B81FC01818502
:103210008870882341F08A819B81FC0181858170BF
:10322000882309F02EC18A819B81FC0183819481CE
:103230000196D1F42091B01B3091B11B8A819B8102
:10324000FC01858596852817390741F08A819B8185
:10325000FC0185859685019609F015C18F819885B9
:1032600022E2FC0120830FC18A819B81FC018585BC
:103270009685019641F48A819B81FC01818581704C
:10328000882309F002C12091B01B3091B11B8A81C3
:103290009B81FC01838594852817390709F4F7C0C1
:1032A0008A819B810E94ED17882309F0F2C08A81F0
:1032B0009B81FC0181858870882309F4A9C08F81D6
:1032C00098858F579F4FFC01808191819D838C83CE
:1032D0008A819B81FC01858596850E9474158E8369
:1032E00019828A819B81FC0185819681019609F072
:1032F00061C08E81882379F18C819D81FC0181815F
:103300008F70882F90E021E0181619060CF020E04D
:1033100029838C819D81FC0181818F702FE0280F92
:103320002F708C819D812F70FC013181307F232B88
:10333000FC0121838C819D81FC018081282F2295B5
:103340002F708C819D812F70FC013081307F232B69
:10335000FC0120833BC08C819D81FC0180818F70AA
:10336000882F90E021E0181619060CF020E0298340
:103370008C819D81FC0180818F702FE0280F2F7040
:103380008C819D812F70FC013081307F232BFC01CB
:1033900020838C819D81FC018181282F22952F70B3
:1033A0008C819D812F70FC013181307F232BFC01AA
:1033B00021830CC08E81882349F081E089838A8132
:1033C0009B81FC0121852460FC0121878981882360
:1033D00021F08F8198850E944F1D8E81882309F4EA
:1033E00059C08F8198858F579F4FFC0180819181B3
:1033F0009C012E5F3F4F8F8198858F579F4FFC0117
:10340000318320838F81988522E2FC01208342C092
:103410008A819B81FC01858196810196B9F4209176
:10342000B01B3091B11B8A819B81FC0185859685FB
:103430002817390759F08A819B81FC0181858470A6
:10344000882321F48F8198850E944F1D2091B01B05
:103450003091B11B8A819B81FC0185859685281757
:10346000390739F08A819B81FC0185859685019613
:1034700089F48F81988522E2FC0120830BC0000033
:1034800009C0000007C0000005C0000003C0000024
:1034900001C0000028960FB6F894DEBF0FBECDBF66
:1034A000DF91CF910895CF93DF93CDB7DEB76097CB
:1034B0000FB6F894DEBF0FBECDBF988B8F878F8578
:1034C000988902969A83898389819A81FC018785EC
:1034D00082958F70882F90E00396880F991F8055F2
:1034E000944EFC0180819181892B11F480E0B9C058
:1034F00089819A81FC01838594859C838B83898152
:103500009A81FC01858596859E838D8389819A8128
:10351000FC0187858F708F8389819A81FC01878563
:1035200082958F7088878F8598898F579F4FFC0170
:10353000808191819B878A878F8598890E94D51584
:103540008C878F8598898D579F4FFC0180818D874F
:103550008F8598898C579F4FFC0180818E87898148
:103560009A81FC018185982F917081E0992309F45B
:1035700080E089878985282F89819A81FC0181854E
:103580008270822B89878985282F89819A81FC0105
:1035900081858470882311F080E201C080E0822B55
:1035A00089878985282F89819A81FC018185887086
:1035B000882311F080E401C080E0822B898789850F
:1035C000282F89819A81FC0181858071882311F0DF
:1035D00080E801C080E0822B89878985282F898136
:1035E0009A81FC0185859685019611F484E001C0DD
:1035F00080E0822B89878985482F89819A81FC0107
:103600002385348589819A81FC01878190852817DB
:10361000390711F488E001C080E0842B898789850F
:10362000282F89819A81FC0183819481019611F46C
:1036300080E101C080E0822B898789819A81FC0129
:10364000878582958F70882F90E00396880F991F49
:103650008055944EFC0120813181CE010396F90101
:10366000099560960FB6F894DEBF0FBECDBFDF910F
:10367000CF910895CF93DF93CDB7DEB760970FB6A4
:10368000F894DEBF0FBECDBF988B8F878F8598894A
:1036900002969A8389838F85988924E2FC0120838E
:1036A0008091B61B9091B71B892B11F480E042C02A
:1036B0008F859889FC01878190859C838B838F857A
:1036C0009889FC01878190859E838D831F8218864F
:1036D0008F8598898F579F4FFC01808191819B87AF
:1036E0008A878F8598890E94D5158C878F859889C0
:1036F0008D579F4FFC0180818D878F8598898C57CE
:103700009F4FFC0180818E8780E8898789819A811B
:10371000FC01878582958F70882F90E00396880F33
:10372000991F8055944EFC0120813181CE01039672
:10373000F901099560960FB6F894DEBF0FBECDBFB4
:10374000DF91CF910895CF93DF9300D01F92CDB733
:10375000DEB79B838A8310920B198A819B810E941A
:10376000531A89838A819B81FC0183858170882318
:1037700009F419828A819B81FC01878190850196D9
:10378000A9F42091B01B3091B11B8A819B81FC016F
:10379000878590892817390749F48A819B81FC0124
:1037A00083858870882311F481E089838A819B81D5
:1037B000FC0185819681019609F419828091B01BE4
:1037C0009091B11B019609F419828981882321F017
:1037D0008A819B810E940B178A819B8124E2FC01D4
:1037E000208300000F900F900F90DF91CF910895EC
:1037F000CF93DF9300D0CDB7DEB71A82198229C0EC
:1038000089819A81FC018081882F90E08232910524
:1038100089F0833291051CF4809739F01AC0843204
:10382000910569F0859781F014C089819A810E9481
:10383000E6180FC089819A810E94A31B0AC0898162
:103840009A810E94BE1405C089819A810E943A1B08
:10385000000089819A810E94D8149A838983898182
:103860009A81892B69F600000F900F90DF91CF911C
:103870000895CF93DF93CDB7DEB710921A19109247
:10388000191982E390E0A0E0B0E0809321199093B1
:103890002219A0932319B0932419109225198DE2AF
:1038A0009EE190932719809326198AE090E0A0E08A
:1038B000B0E080932E1990932F19A0933019B093F4
:1038C00031191092321987E99EE19093341980934F
:1038D00033190000DF91CF910895CF93DF9300D08B
:1038E00000D0CDB7DEB79C838B838B819C81029601
:1038F0009A8389838B819C8123E1FC0120838B81C6
:103900009C818D579F4FFC0110828B819C818C572D
:103910009F4FFC011182108289819A8120E030E85A
:10392000FC01318320838091B51B8F5F8093B51B91
:103930002091B51B89819A81FC0122832091B21BC1
:103940003091B31B89819A81FC01348323832091B8
:10395000B01B3091B11B89819A81FC01368325838C
:1039600000000F900F900F900F90DF91CF9108956E
:10397000CF93DF9300D000D0CDB7DEB79C838B838D
:103980008B819C8102969A8389838B819C818A5743
:103990009F4FFC018081882F90E082709927892BAE
:1039A00031F08B819C8122E1FC01208305C08B8159
:1039B0009C8122E1FC0120838B819C818D579F4F4C
:1039C000FC0110828B819C818A579F4FFC01808172
:1039D000882F90E081709927892B41F089819A8105
:1039E0002FEF3FEFFC013483238309C02091B21BEA
:1039F0003091B31B89819A81FC01348323838981AF
:103A00009A81FC012585368589819A81FC0136835E
:103A100025832091B01B3091B11B89819A81FC01D3
:103A2000308727838091B51B8F5F8093B51B2091D2
:103A3000B51B89819A81FC01228389819A81FC01CD
:103A4000858196810196A9F489819A8121E438E8DB
:103A5000FC01318320830E940955877099270196C4
:103A60009C018B819C818C579F4FFC01318320836B
:103A70000EC089819A8121E438E8FC0131832083DA
:103A80008B819C818C579F4FFC011182108200001A
:103A90000F900F900F900F90DF91CF910895CF93DB
:103AA000DF9300D000D0CDB7DEB79C838B830E941C
:103AB0004C149A83898389819A81892B09F476C071
:103AC00089819A818F579F4FFC01808191819C0150
:103AD000205F3F4F89819A818F579F4FFC0131832F
:103AE000208389819A8122E1FC0120838B819C8142
:103AF000FC01218189819A81FC01218389819A813C
:103B00008D579F4FFC0110820E940955877099279D
:103B100001969C0189819A818C579F4FFC013183CA
:103B2000208389819A8189579F4FFC0111821082DD
:103B30008B819C81FC018181482F50E08B819C818D
:103B40009C012E5F3F4F89819A810296B9010E94A4
:103B5000FB5589819A8121E438E8FC013383228373
:103B600089819A812FEF3FEFFC01308727838B817A
:103B70009C81FC012581368189819A81FC013683F3
:103B800025832091B01B3091B11B89819A81FC0162
:103B9000328721878091B51B8F5F8093B51B209161
:103BA000B51B89819A81FC01248301C000000F901C
:103BB0000F900F900F90DF91CF910895CF93DF93E7
:103BC00000D000D000D0CDB7DEB79E838D838D812D
:103BD0009E81FC01878190859C838B831A82198248
:103BE0008D819E81FC018185833019F180E02CC09C
:103BF00089819A81FC0180818631D9F489819A81F9
:103C0000FC0124858B819C81FC018181281789F42A
:103C100089819A8127E1FC0120838B819C81FC01B1
:103C2000228189819A818A579F4FFC01208381E0FC
:103C30000BC089819A810E94D8149A8389838981D3
:103C40009A81892BA9F680E026960FB6F894DEBFFC
:103C50000FBECDBFDF91CF910895CF93DF9300D0FA
:103C600000D01F92CDB7DEB79D838C831A82198254
:103C70001B8227C089819A81FC018081863109F5E8
:103C800081E08B8389819A818C579F4FFC018081D1
:103C900091819C012150310989819A818C579F4FD4
:103CA000FC013183208389819A818C579F4FFC01CD
:103CB00080819181892B29F489819A8160E10E9418
:103CC0007B1E89819A810E94D8149A838983898175
:103CD0009A81892B79F68B81882321F08C819D81B3
:103CE0000E947C2400000F900F900F900F900F9077
:103CF000DF91CF910895CF93DF9300D01F92CDB77E
:103D0000DEB79A8389836B8389819A8127E1FC01DD
:103D1000208389819A818D579F4F2B81FC012083BD
:103D200000000F900F900F90DF91CF910895CF93E7
:103D3000DF9300D000D01F92CDB7DEB79D838C8378
:103D40001A8219821B8227C089819A81FC01808195
:103D5000813109F581E08B8389819A818C579F4F4E
:103D6000FC01808191819C012150310989819A81D6
:103D70008C579F4FFC013183208389819A818C5716
:103D80009F4FFC0180819181892B29F489819A813F
:103D900023E1FC01208389819A810E94D8149A83AF
:103DA000898389819A81892B79F68B81882321F0F7
:103DB0008C819D810E947C2400000F900F900F90B9
:103DC0000F900F90DF91CF910895CF93DF931F92C3
:103DD000CDB7DEB789838981882F90E08130910546
:103DE00039F08230910531F0892B31F480E005C043
:103DF00080E203C081E201C081E00F90DF91CF91AA
:103E000008950F931F93CF93DF931F92CDB7DEB723
:103E100089830091191910911A1989810E94E51E50
:103E2000282FC8018D579F4FFC01208380911919BD
:103E300090911A1925E1FC01208310921A19109211
:103E400019198091D61B9091D71B01979093D71B7E
:103E50008093D61B00000F90DF91CF911F910F919F
:103E60000895CF93DF9300D0CDB7DEB71A821982C1
:103E7000AEC089819A81FC018081882F90E08431D5
:103E8000910509F4A4C08531910534F4823191057E
:103E900079F0439731F19AC08631910509F497C0C2
:103EA000863191050CF43EC0479709F475C08EC069
:103EB00089819A818C579F4FFC0180819181892B48
:103EC00051F089819A8121E1FC01208388E299E106
:103ED0000E947C247CC089819A8123E1FC0120839B
:103EE00076C08091191990911A19892B09F06FC029
:103EF00089819A8190931A198093191989819A81DD
:103F000024E1FC01208389819A8101960E94DD21B0
:103F10008091D61B9091D71B01969093D71B8093CD
:103F2000D61B55C089819A818D579F4FFC01808196
:103F3000882361F589819A81FC01258536858091E8
:103F4000B01B9091B11B28173907D1F489819A8150
:103F5000FC0183858170882399F089819A8126E10B
:103F6000FC01208389819A818C579F4F25E130E0A5
:103F7000FC01318320838BE199E10E947C240BC0FA
:103F800089819A8127E1FC01208321C089819A815E
:103F900027E1FC0120831BC089819A8189579F4FAB
:103FA000FC0180819181892B29F489819A810E9469
:103FB000BE140DC089819A8189579F4FFC012081D1
:103FC000318189819A81F901099501C000008981B7
:103FD0009A810E94D8149A83898389819A81892B36
:103FE00009F047CF00000F900F90DF91CF91089517
:103FF000CF93DF9300D0CDB7DEB79A8389838981D1
:104000009A81892B09F47BC089819A81883791052F
:1040100049F461E080E00E94294060E180E00E9474
:1040200029406DC089819A81803C910529F462E024
:1040300080E00E94294063C089819A818C34910577
:1040400029F464E080E00E94294059C089819A8166
:104050008038910529F468E080E00E9429404FC033
:1040600089819A818434910529F460E280E00E947C
:10407000294045C089819A81803B910529F460E4FB
:1040800080E00E9429403BC089819A81883B91054C
:1040900029F460E880E00E94294031C089819A813A
:1040A000883C910529F461E081E00E94294027C005
:1040B00089819A818039910529F468E081E00E9424
:1040C00029401DC089819A81803A910529F460E1D7
:1040D00081E00E94294013C089819A8180329140F9
:1040E00029F460E281E00E94294009C089819A8117
:1040F0008334914021F460E481E00E942940000073
:104100000F900F90DF91CF9108956150710981094F
:104110009109D9F708950F931F93CF93DF93CDB7EC
:10412000DEB783E491E00E94F81F89E391E0FC018F
:1041300020812160FC0120831092B61981E08093D8
:10414000351988E00E94BA228CE491E0FC012081BC
:104150002068FC0120830DE611E00E941E22F80178
:1041600080838DE491E0FC0120812C7F2260FC01A2
:1041700020838AE491E0FC012081207F2360FC0100
:1041800020838DE491E0FC0120812860FC012083E4
:104190008DE491E0FC0120812460FC01208384E413
:1041A00091E0FC0120812068FC0120830000DF9168
:1041B000CF911F910F910895CF93DF931F92CDB7A9
:1041C000DEB7898389818823B1F08CE691E0FC0118
:1041D00020812F70FC0120838CE691E0FC0120817E
:1041E0002E60FC0120838EE691E0FC01208120619D
:1041F000FC01208317C08CE691E0FC0120812F7028
:104200002063FC0120838CE691E0FC012081217F6A
:104210002860FC0120838EE691E0FC0120812F7E46
:10422000FC01208300000F90DF91CF910895CF9380
:10423000DF931F92CDB7DEB7898389818093B6194A
:104240000E94A32200000F90DF91CF910895CF9399
:10425000DF931F92CDB7DEB7898388E491E029818F
:104260002F712F71FC013081307E232BFC012083C4
:1042700000000F90DF91CF910895CF93DF9300D08E
:1042800000D0CDB7DEB79C838B83CE0103969A8393
:10429000898382E691E029813A81F9012081FC013C
:1042A000208383E691E029813A81F9012181FC0193
:1042B000208300000F900F900F900F90DF91CF910F
:1042C0000895CF93DF9300D000D0CDB7DEB79C83A5
:1042D0008B83CE0103969A83898380E691E02981BE
:1042E0003A81F9012081FC01208381E691E0298156
:1042F0003A81F9012181FC01208300000F900F9089
:104300000F900F90DF91CF910895CF93DF931F927D
:10431000CDB7DEB7898385E491E029812F702F70B6
:10432000FC013081307F232BFC01208300000F90A3
:10433000DF91CF910895CF93DF93CDB7DEB7809112
:104340003519823069F088E00E94BA2289E391E051
:10435000FC0120812260FC01208382E080933519DA
:104360008DE491E0FC0120812B7FFC0120838DE412
:1043700091E0FC012081277FFC01208384E491E00F
:10438000FC0120812F77FC0120830000DF91CF9179
:104390000895CF93DF93CDB7DEB789E391E0FC01B9
:1043A00020812D7FFC0120830E94A32281E0809345
:1043B00035190000DF91CF910895CF93DF9300D09E
:1043C0001F92CDB7DEB79B838A8389E10E94BA2210
:1043D00080E891E02A813B81F90120812E5FFC0178
:1043E0002083198215C08981882F90E08F579E4FB6
:1043F000AC018981882F90E001962A813B81820F50
:10440000931FFC018081FA01808389818F5F8983FA
:104410008A819B81FC0190818981891720F383E047
:104420008093351982E491E022E0FC0120830000B2
:104430000F900F900F90DF91CF910895CF93DF935E
:1044400000D01F92CDB7DEB71A82198286E00E9493
:10445000BA221B8222C062E070E080E090E00E94FD
:10446000852086E491E0FC018081829586958770A5
:104470008370882F90E02B81222F30E002C0880FBC
:10448000991F2A95E2F79C0189819A81822B932BAF
:104490009A8389838B818E5F8B838B818031D8F265
:1044A0000E94A32289819A810F900F900F90DF9133
:1044B000CF910895CF93DF9300D000D0CDB7DEB772
:1044C0009A8389837C836B838B819C8140E060E04D
:1044D0000E941D3389819A810E94293489819A81A1
:1044E0000E945F3400000F900F900F900F90DF91AB
:1044F000CF910895CF93DF931F92CDB7DEB786E0BB
:104500000E94BA228FE491E0FC0120812061FC012D
:10451000208387E491E0FC01108200008FE491E0A9
:10452000FC018081829581708823C1F387E491E04A
:10453000FC0180818A5589830E94A32289810F9082
:10454000DF91CF910895CF93DF93CDB7DEB788E0A9
:104550000E94BA228FE491E02FEFFC01208380912A
:10456000B619882319F086E10E94BA220000DF9173
:10457000CF910895CF93DF931F92CDB7DEB7898394
:10458000809135198230A9F48DE491E0FC012081FD
:104590002860FC0120838DE491E0FC0120812460EF
:1045A000FC01208384E491E0FC0120812068FC016F
:1045B000208382E491E023E0FC01208381E491E008
:1045C000FC0180818F718830A1F782E491E029811C
:1045D000FC01208381E491E0FC0180818F71982FA0
:1045E0008981981791F700000F90DF91CF9108957E
:1045F000CF93DF9300D000D0CDB7DEB79C838B8301
:104600008B819C819A83898324E631E089819A8118
:10461000AC014F5F5F4F5A834983FC018081F901F0
:10462000808325E631E089819A81AC014F5F5F4F3D
:104630005A834983FC018081F901808326E631E0B9
:1046400089819A81AC014F5F5F4F5A834983FC0196
:104650008081F901808327E631E089819A81AC016C
:104660004F5F5F4F5A834983FC018081F90180834A
:1046700028E631E089819A81AC014F5F5F4F5A8310
:104680004983FC018081F901808329E631E0898139
:104690009A81AC014F5F5F4F5A834983FC0180814F
:1046A000F90180832AE631E089819A81AC014F5F6C
:1046B0005F4F5A834983FC018081F90180838BE637
:1046C00091E029813A81F9012081FC0120830000D9
:1046D0000F900F900F900F90DF91CF910895CF938F
:1046E000DF93CDB7DEB728970FB6F894DEBF0FBEC5
:1046F000CDBF80913519823009F49EC08FE491E0DE
:10470000FC01808183FB882780F9882309F459C044
:104710008BE791E0FC0180818B83198211C0898134
:10472000882F90E02981222F30E020583E4FF90158
:1047300020818A5C964EFC01208389818F5F89836A
:104740008981282F30E08B81882F90E001962817EF
:1047500039072CF386E399E19D838C838B8182500A
:104760008E838B81882F90E08A5C964EFC0180813D
:104770008F8387E491E0FC0180818A558887CE0190
:1047800004960E943016000081E491E0FC018081D3
:104790008F718631C9F78FE491E0FC012081286098
:1047A000FC0120838CE491E0FC0120812F77FC0147
:1047B00020838CE491E0FC0120812068FC012083AF
:1047C0003CC08FE491E0FC01808186FB882780F962
:1047D000882399F181E491E0FC0180818F71893116
:1047E00019F582E491E0FC018081829586958770BD
:1047F0008A838A81882311F41A820EC08A818330C9
:1048000019F481E08A8308C08A81853019F482E036
:104810008A8302C083E08A830E94A32281E080937E
:1048200035198A810E94011F8FE491E0FC012081EB
:104830002064FC01208301C0000028960FB6F89484
:10484000DEBF0FBECDBFDF91CF910895CF93DF9331
:10485000CDB7DEB70E9464240E9415330E948B20DE
:104860000E94D70F0000DF91CF910895CF93DF937F
:10487000CDB7DEB70E946F230E94D5100E94362567
:104880000000DF91CF910895CF93DF931F92CDB7B2
:10489000DEB78FE590E0FC0180818983F8948981FF
:1048A0000F90DF91CF910895CF93DF931F92CDB7F3
:1048B000DEB789838FE590E02981FC012083000029
:1048C0000F90DF91CF910895CF93DF93CDB7DEB7EF
:1048D0001092D81B8EEC96E20E94A34C0E94554C7D
:1048E00080E197E20E94EB4B1092B8191092B71931
:1048F0000000DF91CF910895CF93DF9300D0CDB723
:10490000DEB79A83898389819A810E940B25982F2B
:1049100081E08927882321F089819A810E94F925E5
:1049200000000F900F90DF91CF910895CF93DF9308
:1049300000D000D000D0CDB7DEB79E838D831A8221
:1049400019828091B7199091B8199C838B8352C0BA
:104950002B813C818D819E812817390709F03FC04A
:1049600089819A81892B59F08B819C81FC0120815E
:10497000318189819A81FC013183208309C08B8137
:104980009C81FC01808191819093B8198093B71923
:104990008B819C81FC0180819181892B89F18B81A4
:1049A0009C81FC01608171818B819C81FC018081F3
:1049B0009181FC0122813381448155818D819E81C9
:1049C000FC0182819381A481B581820F931FA41F72
:1049D000B51FFB0182839383A483B58311C08B81B0
:1049E0009C819A8389838B819C81FC018081918148
:1049F0009C838B838B819C81892B09F0A9CF01C07B
:104A00000000000026960FB6F894DEBF0FBECDBFA3
:104A1000DF91CF910895CF93DF9300D000D0CDB731
:104A2000DEB79C838B838091B7199091B8199A83D4
:104A3000898310C029813A818B819C81281739078D
:104A400011F481E00CC089819A81FC0180819181FF
:104A50009A83898389819A81892B61F780E00F90FD
:104A60000F900F900F90DF91CF910895EF92FF92EA
:104A70000F931F93CF93DF93CDB7DEB728970FB671
:104A8000F894DEBF0FBECDBF8091D81B882309F4F8
:104A9000A2C00E9444248D838091D81B8E831092E3
:104AA000D81B8D810E9454248E81882F90E0A0E035
:104AB000B0E0880F991FAA1FBB1F9C01AD01220FF8
:104AC000331F441F551F220F331F441F551F820FD2
:104AD000931FA41FB51F89839A83AB83BC833DC0FA
:104AE0008091B7199091B81998878F838091B719E1
:104AF0009091B819FC0182819381A481B5812981AB
:104B00003A814B815C8179018A01E81AF90A0A0B22
:104B10001B0BD801C70189839A83AB83BC83809127
:104B2000B7199091B819FC01808191819093B819BF
:104B30008093B7198F819885FC018285813021F49B
:104B40008F8198850E94F9258F819885FC012385A6
:104B500034858F819885F90109958091B7199091D5
:104B6000B819892B99F08091B7199091B819FC0167
:104B7000228133814481558189819A81AB81BC81B5
:104B800082179307A407B50708F0AACF8091B71939
:104B90009091B819892B01F16091B7197091B819EA
:104BA0008091B7199091B819FC0122813381448119
:104BB000558189819A81AB81BC8179018A01E81A8A
:104BC000F90A0A0B1B0BD801C701FB0182839383EF
:104BD000A483B58301C0000028960FB6F894DEBF09
:104BE0000FBECDBFDF91CF911F910F91FF90EF903E
:104BF0000895EF92FF920F931F93CF93DF93CDB75A
:104C0000DEB72A970FB6F894DEBF0FBECDBF9A87E6
:104C100089878091B7199091B819892B09F497C0A9
:104C20001A82198289859A85FC0186819781A085DF
:104C3000B1858B839C83AD83BE838091B71990919E
:104C4000B81998878F834DC08F819885FC01228188
:104C50003381448155818B819C81AD81BE818217D6
:104C60009307A407B507D8F48F819885FC012281AA
:104C70003381448155818B819C81AD81BE817901D5
:104C80008A01E81AF90A0A0B1B0BD801C7012F8108
:104C90003885F90182839383A483B58327C08F81EC
:104CA0009885FC0182819381A481B5812B813C810F
:104CB0004D815E8179018A01E81AF90A0A0B1B0B02
:104CC000D801C7018B839C83AD83BE838F81988578
:104CD0009A8389838F819885FC018081918198874F
:104CE0008F838F819885892B09F0AECF29853A85EE
:104CF0008B819C81AD81BE81F90182839383A483E2
:104D0000B58389819A81892B91F089819A81FC01EF
:104D10002081318189859A85FC01318320838981B5
:104D20009A8129853A85FC013183208329C020910D
:104D3000B7193091B81989859A85FC013183208390
:104D400089859A859093B8198093B71919C0898578
:104D50009A85FC011182108289859A85FC018681E1
:104D60009781A085B18529853A85F901828393834E
:104D7000A483B58389859A859093B8198093B719D0
:104D800000002A960FB6F894DEBF0FBECDBFDF91AC
:104D9000CF911F910F91FF90EF900895CF93DF93E4
:104DA000CDB7DEB78091D81B8F5F8093D81B80E191
:104DB00097E20E94EB4B0000DF91CF910895CF93D3
:104DC000DF931F92CDB7DEB78FE590E0FC018081C5
:104DD0008983F89489810F90DF91CF910895CF93C3
:104DE000DF931F92CDB7DEB789838FE590E02981ED
:104DF000FC01208300000F90DF91CF910895CF93A5
:104E0000DF93CDB7DEB780E094E2A4EFB0E0BC0161
:104E1000CD01DF91CF910895CF93DF93CDB7DEB76A
:104E20000E94FF26DC01CB01BC01CD01DF91CF91B7
:104E30000895CF93DF9300D0CDB7DEB79A838983EF
:104E400089819A81892B21F480E090E0DC01A3C064
:104E500089819A818837910529F40E940C27DC0109
:104E6000CB0199C089819A81803C910529F40E94E7
:104E70000C27DC01CB018FC089819A818C3491058C
:104E800029F40E940C27DC01CB0185C089819A811D
:104E90008038910529F40E940C27DC01CB017BC0EE
:104EA00089819A818434910529F40E940C27DC01C0
:104EB000CB0171C089819A81803B910529F40E94C0
:104EC0000C27DC01CB0167C089819A81803C910568
:104ED00029F40E940C27DC01CB015DC089819A81F5
:104EE000883B910529F40E940C27DC01CB0153C0BB
:104EF00089819A818039910529F40E940C27DC016F
:104F0000CB0149C089819A81803A910529F40E9498
:104F10000C27DC01CB013FC089819A81803291400E
:104F200029F40E940C27DC01CB0135C089819A81CC
:104F30008334914029F40E940C27DC01CB012BC063
:104F400089819A818533914029F40E940C27DC01E4
:104F5000CB0121C089819A818433914029F40E9438
:104F60000C27DC01CB0117C089819A8183339140E2
:104F700029F40E940C27DC01CB010DC089819A81A4
:104F80008233914029F40E940C27DC01CB0103C03D
:104F900080E090E0DC01BC01CD010F900F90DF912B
:104FA000CF910895CF93DF9300D01F92CDB7DEB796
:104FB0009A8389836B8389819A818038910559F41A
:104FC00081E890E021E830E0F90130812B81232B4A
:104FD000FC0120832FC089819A818039910559F481
:104FE00081E990E021E930E0F90130812B81232B28
:104FF000FC0120831FC089819A81803A910559F470
:1050000081EA90E021EA30E0F90130812B81232B05
:10501000FC0120830FC089819A818032914051F434
:1050200081E291E021E231E0F90130812B81232BF3
:10503000FC01208300000F900F900F90DF91CF9123
:105040000895CF93DF9300D0CDB7DEB79A838983DD
:1050500089819A818038910551F48FE690E02FE69E
:1050600030E0F90120812160FC0120832CC089817E
:105070009A818039910551F481E790E021E730E091
:10508000F90120812160FC0120831DC089819A8162
:10509000803A910551F482E790E022E730E0F9018F
:1050A00020812160FC0120830EC089819A81803299
:1050B000914049F483E790E023E730E0F901208153
:1050C0002160FC01208300000F900F90DF91CF91B1
:1050D0000895CF93DF9300D0CDB7DEB79A8389834D
:1050E00089819A818038910551F48FE690E02FE60E
:1050F00030E0F90120812260FC0120832CC08981ED
:105100009A818039910551F481E790E021E730E000
:10511000F90120812260FC0120831DC089819A81D0
:10512000803A910551F482E790E022E730E0F901FE
:1051300020812260FC0120830EC089819A81803207
:10514000914049F483E790E023E730E0F9012081C2
:105150002260FC01208300000F900F90DF91CF911F
:105160000895CF93DF9300D0CDB7DEB79A838983BC
:1051700089819A818038910551F48FE690E02FE67D
:1051800030E0F90120812D7FFC0120832CC0898132
:105190009A818039910551F481E790E021E730E070
:1051A000F90120812D7FFC0120831DC089819A8116
:1051B000803A910551F482E790E022E730E0F9016E
:1051C00020812D7FFC0120830EC089819A8180324D
:1051D000914049F483E790E023E730E0F901208132
:1051E0002D7FFC01208300000F900F90DF91CF9165
:1051F0000895CF93DF93CDB7DEB727970FB6F89416
:10520000DEBF0FBECDBF9C838B836D835F834E83D8
:105210008B819C819A8389838D81882F90E0019670
:1052200029813A81820F931F2D81222F30E02F5F39
:105230003F4F49815A81240F351FF90140812E814A
:105240003F81232F3327242BFC0120838D81882F3E
:1052500090E029813A81820F931F2D81222F30E027
:1052600049815A81240F351FF90130812E81232B6A
:10527000FC012083000027960FB6F894DEBF0FBE16
:10528000CDBFDF91CF910895CF93DF9300D0CDB7FD
:10529000DEB79A83898389819A818038910551F498
:1052A00086E390E026E330E0F90120812160FC01F3
:1052B00020832CC089819A818039910551F488E33B
:1052C00090E028E330E0F90120812160FC01208397
:1052D0001DC089819A81803A910551F489E390E05B
:1052E00029E330E0F90120812160FC0120830EC018
:1052F00089819A818032914049F48AE390E02AE3DF
:1053000030E0F90120812160FC01208300000F9032
:105310000F90DF91CF910895CF93DF9300D0CDB759
:10532000DEB79A83898389819A818038910551F407
:1053300086E390E026E330E0F90120812260FC0161
:1053400020832CC089819A818039910551F488E3AA
:1053500090E028E330E0F90120812260FC01208305
:105360001DC089819A81803A910551F489E390E0CA
:1053700029E330E0F90120812260FC0120830EC086
:1053800089819A818032914049F48AE390E02AE34E
:1053900030E0F90120812260FC01208300000F90A1
:1053A0000F90DF91CF910895CF93DF9300D0CDB7C9
:1053B000DEB79A83898389819A818038910531F497
:1053C00084E890E0FC018081918123C089819A81E9
:1053D0008039910531F484E990E0FC01808191816C
:1053E00018C089819A81803A910531F484EA90E06D
:1053F000FC01808191810DC089819A818032914028
:1054000031F484E291E0FC018081918102C080E06E
:1054100090E00F900F90DF91CF910895CF93DF939D
:1054200000D000D01F92CDB7DEB79C838B836D83F5
:105430008B819C819A8389838D81882349F489811A
:105440009A81FC01208189819A81FC0120830FC00F
:105450008D81843061F489819A81019629813A8114
:105460002F5F3F4FF90120812860FC01208300005D
:105470000F900F900F900F900F90DF91CF910895A4
:10548000CF93DF93CDB7DEB780E890E00E94D429B8
:10549000DF91CF910895CF93DF93CDB7DEB780E84A
:1054A00090E00E94B12880E890E00E948C290000E2
:1054B000DF91CF910895CF93DF93CDB7DEB780E82A
:1054C00090E00E948C2980E890E00E94692800000A
:1054D000DF91CF910895CF93DF93CDB7DEB780E80A
:1054E00090E00E94212880E890E00E94442900007A
:1054F000DF91CF910895CF93DF93CDB7DEB780E8EA
:1055000090E00E94F8310000DF91CF910895CF9391
:10551000DF9300D0CDB7DEB79A83898389819A81E2
:10552000AC0168E080E890E00E94F92800000F904C
:105530000F90DF91CF910895CF93DF93CDB7DEB772
:105540000E94DF26DF91CF910895CF93DF931F92C2
:10555000CDB7DEB7898389810E94EF2600000F90C6
:10556000DF91CF910895CF93DF931F92CDB7DEB730
:1055700080E890E00E94DF316CE47BE280E890E01C
:105580000E94113260E080E890E00E940E2A80E8DC
:1055900090E00E94212880E890E00E94EE2A80E8B6
:1055A00090E00E94B12861E080E890E00E94D2275C
:1055B00080E890E00E941927DC01CB0120E432E46E
:1055C0004FE050E0BC01CD010E945852DA01C90100
:1055D000898389810F90DF91CF910895CF93DF93D5
:1055E00000D0CDB7DEB79A83898389819A818038CC
:1055F000910579F089819A818039910551F08981ED
:105600009A81803A910529F089819A81803291406E
:1056100039F466E57BE280E890E00E94523236C0C1
:1056200089819A818138910579F089819A818139BE
:10563000910551F089819A81813A910529F08981FA
:105640009A818132914039F466E57BE280E890E00E
:105650000E9493321BC089819A818238910579F02A
:1056600089819A818239910551F089819A81823AA2
:10567000910529F089819A818232914039F466E559
:105680007BE280E890E00E94D43200C000000F90DE
:105690000F90DF91CF910895CF93DF93CDB7DEB711
:1056A0000E945C4C0000DF91CF910895CF93DF936F
:1056B000CDB7DEB70E94944C0000DF91CF910895E2
:1056C000CF93DF931F92CDB7DEB78FE590E0FC015B
:1056D00080818983F89489810F90DF91CF9108951B
:1056E000CF93DF931F92CDB7DEB789838FE590E02C
:1056F0002981FC01208300000F90DF91CF91089554
:10570000EF92FF920F931F93CF93DF93CDB7DEB746
:105710002C970FB6F894DEBF0FBECDBF6B837C8392
:105720008D839E832F83388749875A871C870B87F1
:105730008F819885A985BA858093B9199093BA19F4
:10574000A093BB19B093BC198B859C859A838983E0
:105750008B819C81AD81BE8188279F5FAF4FBF4FFA
:105760008093BD199093BE19A093BF19B093C0192F
:105770008B819C81AD81BE81882701EC19E120E0FD
:1057800031E040E050E0BC01CD010E94732C21ECDF
:1057900039E140E051E060E070E0CB010E94CD587B
:1057A0002091B9193091BA194091BB195091BC1987
:1057B0008B819C81AD81BE81280F391F4A1F5B1FE1
:1057C0008091BD199091BE19A091BF19B091C019D7
:1057D00082179307A407B507A0F48091BD19909193
:1057E000BE19A091BF19B091C0199C018B819C81F9
:1057F0007901E81AF90AC7019093C21A8093C11A75
:105800000CC08091B9199091BA19A091BB19B091AF
:10581000BC199093C21A8093C11A2091B919309182
:10582000BA194091BB195091BC198091C11A90913D
:10583000C21ACC01A0E0B0E079018A01E81AF90AA5
:105840000A0B1B0BD801C7018093B9199093BA19A1
:10585000A093BB19B093BC194091C11A5091C21AC0
:1058600029813A818B819C81AD81BE81BC01CD01B2
:105870000E94CD588B819C81AD81BE81BC01CD0140
:105880000E94DA598091BD199091BE19A091BF195B
:10589000B091C0198B839C83AD83BE838091C11A64
:1058A0009091C21A29813A81820F931F9A8389832A
:1058B0008091B9199091BA19A091BB19B091BC19F6
:1058C000892B8A2B8B2B09F043CF00002C960FB627
:1058D000F894DEBF0FBECDBFDF91CF911F910F9126
:1058E000FF90EF9008950F931F93CF93DF93CDB761
:1058F000DEB762970FB6F894DEBF0FBECDBF6987E3
:105900007A878B879C872D873E874F87588B1A8B8A
:10591000098B0E94602B8B831A82198229C02989E6
:105920003A8989819A81B901680F791F89859A8599
:10593000AB85BC859C01AD012F5F3F4F4F4F5F4F43
:1059400029873A874B875C878C839D83AE83BF838F
:105950008C819D81AE81BF81ABBFFC01879188871F
:105960008885FB01808389819A8101969A83898346
:1059700089819A819C0140E050E08D859E85AF85AC
:10598000B889281739074A075B0748F28B810E94BC
:10599000702B000062960FB6F894DEBF0FBECDBF2D
:1059A000DF91CF911F910F910895CF93DF931F92B5
:1059B000CDB7DEB78FE590E0FC0180818983F89454
:1059C00089810F90DF91CF910895CF93DF931F923C
:1059D000CDB7DEB789838FE590E02981FC01208374
:1059E00000000F90DF91CF910895CF93DF9300D007
:1059F000CDB7DEB79A83898389819A81892B09F48F
:105A00007BC089819A818837910549F461E080E003
:105A10000E94294060E180E00E9429406DC0898198
:105A20009A81803C910529F462E080E00E9429403F
:105A300063C089819A818C34910529F464E080E007
:105A40000E94294059C089819A818038910529F4A2
:105A500068E080E00E9429404FC089819A818434A7
:105A6000910529F460E280E00E94294045C08981C7
:105A70009A81803B910529F460E480E00E942940EE
:105A80003BC089819A81883B910529F460E880E0D8
:105A90000E94294031C089819A81883C910529F46E
:105AA00061E081E00E94294027C089819A81803984
:105AB000910529F468E081E00E9429401DC0898198
:105AC0009A81803A910529F460E181E00E942940A1
:105AD00013C089819A818032914029F460E281E08B
