:100000000C9485010C94A4010C94A4010C94A401FB
:100010000C94A4010C94A4010C94A4010C94A401CC
:100020000C94A4010C94A4010C94A4010C94A401BC
:100030000C948E3A0C94A4010C94A4010C94A40189
:100040000C94A4010C94F6290C94332A0C94702A75
:100050000C94B9290C94A4010C94A4010C94A4014F
:100060000C94A4010C948A3E0C94A4010C94A40159
:100070000C94A4010C94A4010C94A4010C94A4016C
:100080000C94EA2A0C94272B0C94642B0C94AD2A24
:100090000C94A4010C94A4010C94A4010C94A4014C
:1000A0000C94A4010C94A4010C94DE2B0C941B2C36
:1000B0000C94582C0C94A12B0C94A4010C94D22CCD
:1000C0000C940F2D0C944C2D0C94952C0C94A40195
:1000D0000C94A4010C94A4010C94A4010C94A4010C
:1000E0000C94A4010C94A4010C94A4010C94A401FC
:1000F0000C94A4010C94A4010C94A4010C94A401EC
:100100000C94A4010C949F310C94DC310C941932A2
:100110000C9462310C9456320C94A4010C94A401FA
:100120004B0762066D06B106C406D106F706E40663
:10013000300748075307AC16CF16B116CF16B616C0
:10014000BB16C016C516CA166E616E00696E6600D3
:1001500000407A10F35A00A0724E18090010A5D47E
:10016000E80000E87648170000E40B54020000CADB
:100170009A3B000000E1F505000080969800000021
:1001800040420F000000A086010000001027000080
:100190000000E803000000006400000000000A0006
:1001A000000000000100000000002C76D888DC6709
:1001B0004F0823DFC1DFAE59E1B1B796E5E3E45361
:1001C000C63AE651997696E8E6C28426EB898C9B7E
:1001D00062ED407C6FFCEFBC9C9F40F2BAA56FA51E
:1001E000F490055A2AF75C936B6CF9676DC11BFCA0
:1001F000E0E40D47FEF520E6B500D0ED902E0300BB
:10020000943577050080841E080000204E0A000007
:1002100000C80C333333330F986E12831141EF8DC6
:100220002114893BE65516CFFEE6DB18D1844B3806
:100230001BF77C1D901DA4BBE424203284725E2237
:100240008100C9F124ECA1E53D27330019000C0021
:100250000600030002000100FF00A001CF006700BC
:10026000330019000C00070008004003A001CF0074
:1002700067003300190010001000330019000C0053
:100280000600030002000100FF00A001CF0067008C
:10029000330019000C00070008004003A001CF0044
:1002A00067003300190010001000330019000C0023
:1002B0000600030002000100FF00A001CF0067005C
:1002C000330019000C00070008004003A001CF0014
:1002D00067003300190010001000330019000C00F3
:1002E0000600030002000100FF00A001CF0067002C
:1002F000330019000C00070008004003A001CF00E4
:100300006700330019001000100011241FBECFEF4A
:10031000D1E4DEBFCDBF12E0A0E0B2E0EAE7F7EA49
:1003200000E00BBF02C007900D92AE39B107D9F7BC
:1003300027E1AEE9B2E001C01D92AC3BB207E1F7A4
:100340000E9459070C940F520C940000CF93DF9336
:10035000CDB7DEB780E094E2A4EFB0E0BC01CD0100
:10036000DF91CF910895CF93DF93CDB7DEB70E9491
:10037000A601DC01CB01BC01CD01DF91CF91089535
:10038000CF93DF9300D0CDB7DEB79A83898389817D
:100390009A81FC018081282F226089819A81FC0149
:1003A000208300000F900F90DF91CF910895CF939D
:1003B000DF93CDB7DEB72B970FB6F894DEBF0FBE35
:1003C000CDBF998788877B876A878A859B85FC0153
:1003D00084818D838A859B85FC0185818E838A85B6
:1003E0009B85FC0186818F838A859B85FC018081AA
:1003F0009181A281B38189839A83AB83BC838885F1
:1004000099859E012F5F3F4FB9010E94E6358823F1
:1004100011F081E001C080E02B960FB6F894DEBFAA
:100420000FBECDBFDF91CF910895CF93DF9300D062
:100430001F92CDB7DEB79A8389836B8389819A81B6
:100440006B810E94F4370F900F900F90DF91CF9146
:100450000895CF93DF9300D000D0CDB7DEB79A8355
:1004600089837C836B8389819A810E941338282F2A
:100470008B819C81FC01208300000F900F900F90D6
:100480000F90DF91CF910895CF93DF9300D000D0EC
:10049000CDB7DEB79A8389837C836B8389819A8108
:1004A0009093B0178093AF1785E192E09093AE17C9
:1004B0008093AD1789E292E09093AC178093AB17CD
:1004C0002B813C8189819A81B9010E94D70166EC18
:1004D0007CE385EE9CE30E94A74F00000F900F90F5
:1004E0000F900F90DF91CF910895CF93DF93CDB709
:1004F000DEB78CED90E02CED30E0F9012081206436
:10050000FC0120838CED90E02CED30E0F90120819E
:10051000277FFC0120830000DF91CF910895CF93C6
:10052000DF93CDB7DEB78091B7029091B802892BE7
:10053000C1F08091B7029091B802292F2F938F9329
:1005400081E292E0892F8F9381E292E08F930E9463
:100550002E500F900F900F900F908EEA92E00E9415
:10056000AE080000DF91CF910895CF93DF9300D0C4
:10057000CDB7DEB79A83898382E08093AD02000015
:100580000F900F90DF91CF910895CF93DF93CDB768
:10059000DEB70E94750282E08093AD020000DF9119
:1005A000CF910895CF93DF93CDB7DEB78091B70297
:1005B0009091B8028115904419F482E08093AD02C5
:1005C0000000DF91CF910895CF93DF93CDB7DEB7D1
:1005D00083E08093AD028AE080930A020000DF91FD
:1005E000CF910895CF93DF93CDB7DEB78091B70257
:1005F0009091B802892B59F082E392E0892F8F9372
:1006000082E392E08F930E942E500F900F9083E030
:100610000E9458330000DF91CF910895CF93DF936C
:1006200000D000D01F92CDB7DEB78D838D81869527
:1006300086958695882F90E09A8389838D81882F6F
:1006400090E08770992728E030E0A901481B590BFA
:10065000CA019C838B8389819A818A599E4EFC01B1
:100660008081882F90E00B8002C0959587950A9431
:10067000E2F781709927892BA9F08D81882F90E06E
:10068000292F2F938F9383E492E0892F8F9383E414
:1006900092E08F930E942E500F900F900F900F902A
:1006A00080E023C081E090E00B8002C0880F991F9A
:1006B0000A94E2F7282F89819A818A599E4EFC017B
:1006C000208389819A819C012F5F3F4F8091C702CF
:1006D0009091C802821793073CF489819A81019610
:1006E0009093C8028093C70281E00F900F900F9003
:1006F0000F900F90DF91CF910895CF93DF9300D0AB
:10070000CDB7DEB79A8389838091C5029091C602E6
:1007100001969093C6028093C50289819A81FC015B
:1007200084818F77282F30E0809110028F77882F77
:1007300090E08217930764F489819A81FC01848197
:100740008F778F77909110029078892B8093100289
:100750008091C5029091C60229813A81F9012481D4
:100760002F77880F991F880F991F8A579C4EFC017D
:1007700020838091C5029091C60229813A81F901B6
:100780002381222F30E0880F991F880F991F8C57E3
:100790009C4EFC01318320838091C5029091C6025A
:1007A0002091C5023091C602880F991F880F991FAA
:1007B0008D579C4EFC01208300000F900F90DF911D
:1007C000CF910895CF93DF9300D0CDB7DEB79A8352
:1007D000898389819A81880F991F880F991F8D5766
:1007E0009C4EFC01808180930E0289819A81880F42
:1007F000991F880F991F8C579C4EFC018081918115
:1008000080930F0200000F900F90DF91CF91089519
:10081000CF93DF9300D000D000D0CDB7DEB79E835A
:100820008D838D819E81FC0180859185FC01808175
:100830008D3021F58D819E81FC01808591859C8381
:100840008B838B819C81FC0181810E940E038B81B3
:100850009C81FC018181882F90E0292F2F938F9319
:1008600086E692E0892F8F9386E692E08F930E942E
:100870002E500F900F900F900F902DC08D819E8164
:10088000FC0180859185FC0180818E3011F58D8180
:100890009E81FC01808591859A83898389819A81D3
:1008A0000E947D0389819A81FC018381882F90E0D9
:1008B000292F2F938F9381E792E0892F8F9381E7E0
:1008C00092E08F930E942E500F900F900F900F90F8
:1008D00002C080E001C081E026960FB6F894DEBF2A
:1008E0000FBECDBFDF91CF910895CF93DF93CDB7EA
:1008F000DEB71092B4021092B3021092B5021092B9
:10090000B60280E090E49093B8028093B70285E647
:1009100091E19093BC028093BB028091C7029091B9
:10092000C8028F5F8093BD020000DF91CF910895D0
:10093000CF93DF9300D000D0CDB7DEB71092B402D2
:100940001092B3021092B5021092B60280E494E0C5
:100950009093B8028093B7021092BC021092BB022F
:100960001092BD021A8219820BC089819A818A591C
:100970009E4EFC01108289819A8101969A83898317
:1009800089819A8180978CF31C821B8210C08B8195
:100990009C81880F991F880F991F8C579C4EFC01D2
:1009A000118210828B819C8101969C838B838B8129
:1009B0009C818F3F91055CF31092C8021092C70290
:1009C0001092C6021092C5021092DD021092DC0253
:1009D0001092861100000F900F900F900F90DF91F2
:1009E000CF910895CF93DF9300D0CDB7DEB71A82B1
:1009F00019820BC089819A818A599E4EFC0110820E
:100A000089819A8101969A83898389819A818097C5
:100A10008CF31092C8021092C7021092B402109286
:100A2000B3021092B5021092B60280E491E0909366
:100A3000B8028093B7021092BC021092BB021092CF
:100A4000BD0280911102882309F0A0C08FE7809336
:100A5000861180918611882F90E00396880F991F48
:100A6000092E000CAA0BBB0BBC01CD010E94084D46
:100A7000DC01CB0120E030E040E451E4BC01CD01D9
:100A80000E94F94BDC01CB0120E030E040E252E46F
:100A9000BC01CD010E94F94BDC01CB0120E034E226
:100AA00044E757E4BC01CD010E94654CDC01CB0159
:100AB0008093A9029093AA02A093AB02B093AC02D8
:100AC0008091A9029091AA02A091AB02B091AC02D0
:100AD00020E030E040E850E4BC01CD010E94944D9C
:100AE000DC01CB012DEB37E346E857E3BC01CD0138
:100AF0000E94654CDC01CB018093C9029093CA022D
:100B0000A093CB02B093CC0285EC92E00E946A34B1
:100B10000E94750281E00E94E3328091C9029091A7
:100B2000CA02A091CB02B091CC02BC01CD010E94BF
:100B3000D74CDC01CB0121E0AC01BD0181E00E947A
:100B4000973382EF92E00E947D3482E00E94E3328C
:100B50008091C9029091CA02A091CB02B091CC02BF
:100B600020E030E040E050E4BC01CD010E94654C43
:100B7000DC01CB01BC01CD010E94D74CDC01CB01D3
:100B800022E0AC01BD0181E00E94973300000F908C
:100B90000F90DF91CF910895CF93DF93CDB7DEB75C
:100BA0001092B4021092B3021092B5021092B602E3
:100BB00080EC90E09093B8028093B7021092BC0250
:100BC0001092BB021092BD020000DF91CF910895F8
:100BD000CF93DF93CDB7DEB780E090E00E94C907E6
:100BE0008FE00E94F01C81E00E94E01C8AE792E006
:100BF000892F8F938AE792E08F930E942E500F9057
:100C00000F9082E090E0A0E0B0E08093D502909356
:100C1000D602A093D702B093D8021092D90285EBE6
:100C200092E09093DB028093DA028EEF9AEC0E94BE
:100C3000E0078EEF8093C2028EEF8093651181E012
:100C40000E942F1C68E074E083E00E94F70781E0B7
:100C50000E946A1C0000DF91CF910895CF93DF932B
:100C6000CDB7DEB78091AD02882F90E0823091053C
:100C700061F08330910579F0892B09F016C10E944B
:100C8000E80583E08093AD0210C10E948F0283E0EB
:100C90008093AD020AC180910A02882F90E0092E4C
:100CA000000CAA0BBB0B40E050E02AE030E0841BB4
:100CB000950B2817390708F4F7C080579F4FFC01A0
:100CC0000C94374E0E94980482E080930A0282E0DE
:100CD0008093AD0210921102E7C08091DC029091E6
:100CE000DD020C9721F080911102823088F1209171
:100CF000DC023091DD0280911102882F90E0432FB9
:100D00004F932F93292F2F938F9385E892E0892F6C
:100D10008F9385E892E08F930E942E500F900F9052
:100D20000F900F900F900F901092DD021092DC0246
:100D300081E00E94583382E00E9458331092B8023A
:100D40001092B70281E08093AD0210920A02ACC00B
:100D50000E94F20481E08093AD0283E080930A0256
:100D6000A3C080E499E09093B8028093B7021092F8
:100D7000BC021092BB021092BD0284E08093AD02CF
:100D800084E080930A0290C00E9475048FEC92E088
:100D90000E94262085E080930A0281E08093AD02C4
:100DA00083C080E492E09093B8028093B7021092DF
:100DB000BC021092BB021092BD0281E08093AD0292
:100DC00087E080930A0270C080E49AE09093B802B2
:100DD0008093B7021092BC021092BB021092BD0227
:100DE00081E08093AD0286E080930A025DC080912D
:100DF000C5029091C6021816190674F58091C502B5
:100E00009091C6020E94E20380E090E89093B802BD
:100E10008093B7028BE092E09093BC028093BB0278
:100E200086E08093BD0281E08093AD0286E08093EE
:100E30000A028091C5029091C60201979093C60262
:100E40008093C5028091DC029091DD02019690931F
:100E5000DD028093DC0228C088E080930A0224C06F
:100E600080E492E19093B8028093B7021092BC02A2
:100E70001092BB021092BD0281E08093AD0282E02D
:100E800080930A02809111028F5F809311020CC03F
:100E90000E94CC0509C01092B8021092B70281E0FE
:100EA0008093AD0201C0000000000000DF91CF91EF
:100EB00008950F931F93CF93DF93CDB7DEB7279796
:100EC0000FB6F894DEBF0FBECDBF0E94AD3B0E94AF
:100ED000E23E0E94D01F0E941031789427E0EDE896
:100EE000F2E0CE010196DC0101900D922A95E1F726
:100EF000CE010196BC0180EC90E00E94440280EC9F
:100F000090E00E94C0010E94B301DC01CB018C0182
:100F10009D0140E052EC61E070E080EC90E00E94C6
:100F20008F380E94E01F0E942E06FBCFCF93DF93E5
:100F30001F92CDB7DEB710927F17109280171092D4
:100F40007C1710927B171092A2171092A11719828A
:100F50000EC08981882F90E00396880F991F8558CD
:100F6000984EFC011182108289818F5F898389816B
:100F7000803178F30E94E0160E94350F0E94D30C56
:100F80000E94A2080E946F0E00000F90DF91CF9187
:100F90000895CF93DF9300D0CDB7DEB79A838983CE
:100FA00089819A8190937C1780937B1789819A819C
:100FB0000E942A1D00000F900F90DF91CF9108959D
:100FC000CF93DF9300D0CDB7DEB79A838983898131
:100FD0009A8190937E1780937D1789819A810E94D0
:100FE000061D00000F900F90DF91CF910895CF93D1
:100FF000DF9300D01F92CDB7DEB789837B836A83EE
:101000008981882F90E00396880F991F8558984E04
:101010002A813B81FC013183208300000F900F90D7
:101020000F90DF91CF910895CF93DF93CDB7DEB7C7
:101030008091A1179091A21721E0892B09F420E05B
:10104000822FDF91CF910895CF93DF93CDB7DEB795
:101050008091A1179091A21701969093A217809367
:10106000A1170000DF91CF910895CF93DF93CDB703
:10107000DEB78091A1179091A21701979093A217C4
:101080008093A1170000DF91CF910895CF93DF9354
:10109000CDB7DEB70E94731D0000DF91CF91089598
:1010A000CF93DF93CDB7DEB70E948C1D0000DF9198
:1010B000CF910895CF93DF93CDB7DEB72C970FB6BE
:1010C000F894DEBF0FBECDBF8C8789E0E4E9F2E083
:1010D000DE01139601900D928A95E1F789E18983EB
:1010E0001A8215C09C858981981758F48A81882FA7
:1010F00090E09E012D5F3F4F820F931FFC01808186
:101100000AC08981875E89838A818F5F8A838A8109
:10111000893040F38FEF2C960FB6F894DEBF0FBEE8
:10112000CDBFDF91CF910895CF93DF93CDB7DEB7D9
:101130000E948C160E949F1A0E949D0C0000DF9155
:10114000CF910895CF93DF93CDB7DEB71092E7022A
:101150001092E6020000DF91CF910895CF93DF93C4
:1011600000D0CDB7DEB79A83898389819A81FC014B
:10117000148289819A81FC01128A89819A81FC01F9
:10118000138212828091A1179091A21701969093D9
:10119000A2178093A1178091E6029091E702892B14
:1011A00061F489819A81FC011182108289819A817E
:1011B0009093E7028093E6020FC02091E6023091FF
:1011C000E70289819A81FC013183208389819A8198
:1011D0009093E7028093E60200000F900F90DF915A
:1011E000CF910895CF93DF93CDB7DEB728970FB691
:1011F000F894DEBF0FBECDBF98878F838F8198850F
:10120000FC01818592858034910598F40E94F20C4E
:101210009A83898389819A81892B61F58F81988549
:1012200022E0FC0124838F81988522E0FC01228B3F
:10123000CEC28F819885FC01818592858074992723
:10124000892B21F081E00E94640D03C080E00E94A0
:10125000640D9A83898389819A81892B59F48F81BE
:10126000988522E0FC0124838F81988522E0FC018F
:10127000228BADC28F819885FC0181859285807417
:101280009927892B09F499C089819A818A579F4FA0
:10129000FC0110828F819885FC0181859285807880
:1012A0009927892B41F089819A81FC012581287F2A
:1012B000FC01258334C08F819885FC01818592854E
:1012C00088279170892B49F089819A81FC012581B9
:1012D000287F2460FC01258322C08F819885FC0132
:1012E0008185928588279270892B49F089819A811E
:1012F000FC012581287F2660FC01258310C08F8199
:101300009885FC018185928588279470892B39F016
:1013100089819A81FC0125812760FC0125838981CF
:101320009A81FC012581277FFC01258389819A818F
:10133000FC0125812F7EFC01258389819A81FC0196
:1013400025812F712064FC0125838F819885FC0104
:101350008185928588279870892B31F089819A81BF
:1013600021E0FC01278313C08F819885FC018185D2
:10137000928588279071892B31F089819A8122E0AA
:10138000FC01278304C089819A81FC011782809126
:1013900086112EE3280F89819A81FC0120878EEF28
:1013A0009AEC9C838B8389819A812EEFFC012683A2
:1013B00089819A810E945F17F5C18F819885FC0110
:1013C00081859285992394F08F819885FC01818590
:1013D000928588279072892B49F48F819885FC012A
:1013E0008185928588279074892B99F18F819885C2
:1013F000FC012185328589819A81B9010E94B21749
:1014000089819A818A579F4FFC0110828F8198852C
:10141000FC018785482F50E08F819885FC01258548
:10142000368589819A818F579F4FFC0180819181F8
:10143000B9010E948C4F89819A81FC0121818F81A1
:101440009885FC018785280F89819A81FC01218379
:10145000A9C18F819885FC01818592858072992729
:10146000892B09F462C089819A818A579F4FFC01B8
:10147000108289819A81FC012185207F2860FC01EE
:10148000218789819A81FC0121852F702066FC01CA
:10149000218789819A81FC012285207F2160FC01BE
:1014A000228789819A81FC0122852061FC012287A3
:1014B00089819A81FC0122852064FC01228789812F
:1014C0009A81FC0122852F77FC01228789819A81EC
:1014D000FC01138689819A81FC0114868F8198858D
:1014E000FC018785482F50E08F819885FC01258578
:1014F000368589819A818F579F4FFC018081918128
:10150000B9010E948C4F89819A81FC0121818F81D0
:101510009885FC018785280F89819A81FC012183A8
:1015200089819A810E9414173DC18F819885FC01A1
:1015300081859285892B09F435C18F819885FC01BD
:10154000818592858470992721E0892B09F420E018
:1015500089819A818A579F4FFC0120838F819885CA
:10156000FC01818592858170992721E0892B09F4FE
:1015700020E089819A812170FC0133853E7F232BF5
:10158000FC0123878F819885FC0181859285887075
:10159000992721E0892B09F420E089819A81217023
:1015A000220F220FFC0133853B7F232BFC01238775
:1015B0008F819885FC01818592858072992721E031
:1015C000892B09F420E089819A8121702295207F5E
:1015D000FC0133853F7E232BFC0123878F81988577
:1015E000FC01818592858071992721E0892B09F47E
:1015F00020E089819A812170220F220F220FFC01A5
:101600003385377F232BFC01238789819A81FC0155
:1016100083858870882309F462C089819A818F57F5
:101620009F4FFC01808191819E838D838F8198855E
:10163000FC018385282F2F708D819E812F70FC01E6
:101640003181307F232BFC0121838F819885FC0120
:101650008385282F2F708D819E812295207FFC010C
:1016600031813F70232BFC0121838F819885FC0100
:101670008485282F2F708D819E812F70FC013081F1
:10168000307F232BFC0120838F819885FC0184858A
:10169000282F2F708D819E812295207FFC01308123
:1016A0003F70232BFC01208389819A818F579F4FA4
:1016B000FC01808191819C012E5F3F4F89819A813D
:1016C0008F579F4FFC013183208389819A81FC01D0
:1016D000818122E0280F89819A81FC0121838091F8
:1016E0007F178F5F80937F1720917F1789819A8161
:1016F000FC01248720917B1730917C1789819A8186
:10170000FC01368725878F819885FC0125813681EC
:1017100089819A81FC01308B27878F819885FC0114
:101720008085282F2F7089819A812F70FC01318943
:10173000307F232BFC01218B8F819885FC018781D1
:10174000282F2F7089819A812295207FFC01318971
:101750003F70232BFC01218B8F819885FC018785AD
:10176000482F50E08F819885FC0125853685898139
:101770009A818F579F4FFC0180819181B9010E940E
:101780008C4F89819A81FC0121818F819885FC0190
:101790008785280F89819A81FC01218389819A811B
:1017A0000E9426188F81988529813A81FC01338314
:1017B00022838F81988521E0FC01248389819A818D
:1017C00089579F4F20EF3BE0FC013183208328960F
:1017D0000FB6F894DEBF0FBECDBFDF91CF91089555
:1017E000CF93DF9300D000D0CDB7DEB79C838B833F
:1017F0008091E6029091E7029A8389832BC08981C8
:101800009A81FC01228133818B819C8128173907C1
:10181000D1F48B819C818D579F4FFC012081898160
:101820009A81FC01228B8B819C818A579F4FFC01FE
:10183000208189819A81FC01238B89819A8122E010
:10184000FC0124830BC089819A81FC0180819181F4
:101850009A83898389819A81892B89F68B819C81DE
:101860000E94FC0D00000F900F900F900F90DF91E1
:10187000CF910895CF93DF9300D000D0CDB7DEB7DE
:101880009C838B832091E6023091E7028B819C81BF
:101890002817390761F48091E6029091E702FC0174
:1018A000808191819093E7028093E60225C0809128
:1018B000E6029091E7029A83898307C089819A8121
:1018C000FC01808191819A83898389819A81FC01BD
:1018D000208131818B819C812817390779F7898193
:1018E0009A81FC0180819181FC0120813181898173
:1018F0009A81FC01318320838091A1179091A217D6
:1019000001979093A2178093A1178B819C81FC0172
:1019100080899189892B49F08B819C81FC012089E8
:1019200031898B819C81F901099500000F900F90FE
:101930000F900F90DF91CF910895CF93DF9300D058
:10194000CDB7DEB78091E6029091E7029A83898352
:1019500021C089819A81FC018481882F90E08130A7
:10196000910581F08230910541F0892B09F00BC07F
:1019700089819A810E94F20811C089819A810E940E
:101980003A0C0CC0000089819A81FC018081918110
:101990009A83898389819A81892BD9F60F900F9038
:1019A000DF91CF910895CF93DF931F92CDB7DEB72C
:1019B000198210C08981282F30E049E8429FC00178
:1019C000439F900D112484519D4FFC011082898109
:1019D0008F5F89838981843168F300000F90DF91E4
:1019E000CF910895CF93DF931F92CDB7DEB71982C1
:1019F00061C08981282F30E049E8429FC001439FA0
:101A0000900D112484519D4FFC018081882309F0A1
:101A10004EC08981282F30E049E8429FC001439F92
:101A2000900D112484519D4F49E850E060E070E032
:101A30000E94954F8981282F30E049E8429FC001DC
:101A4000439F900D112483519D4FFC011082898189
:101A5000482F50E08981282F30E069E8629FC0015B
:101A6000639F900D112402969C0124513D4F69E81B
:101A7000649FC001659F900D112483599C4FFC0108
:101A8000318320838091A1179091A21701969093A2
:101A9000A2178093A1178981282F30E049E8429F3F
:101AA000C001439F900D112484519D4F09C089812D
:101AB0008F5F89838981843108F49BCF80E090E037
:101AC0000F90DF91CF910895CF93DF9300D0CDB7E2
:101AD000DEB78A83198285C08981282F30E049E8E2
:101AE000429FC001439F900D112484519D4FFC01E2
:101AF0008081882309F072C08981282F30E049E86D
:101B0000429FC001439F900D112484519D4F49E88D
:101B100050E060E070E00E94954F8A81882379F060
:101B20008981282F30E049E8429FC001439F900DF2
:101B3000112483519D4F27E0FC0120830EC0898131
:101B4000282F30E049E8429FC001439F900D1124A7
:101B500083519D4F23E0FC0120838981482F50E071
:101B60008981282F30E069E8629FC001639F900D52
:101B7000112402969C0124513D4F8981682F70E009
:101B8000E9E8E69FC001E79F900D112483519D4F26
:101B9000FC018081882F90E0280F391F69E8649F3D
:101BA000C001659F900D112483599C4FFC01318326
:101BB00020838091A1179091A21701969093A2176C
:101BC0008093A1178981282F30E049E8429FC00106
:101BD000439F900D112484519D4F09C089818F5FCF
:101BE00089838981843108F477CF80E090E00F9079
:101BF0000F90DF91CF910895CF93DF9300D0CDB7B1
:101C0000DEB79A83898389819A81FC011082809151
:101C1000A1179091A21701979093A2178093A117F3
:101C200000000F900F90DF91CF910895CF93DF9335
:101C300000D0CDB7DEB79A83898389819A81892BB9
:101C400029F48CEE92E09A83898316C089819A8167
:101C500087579F4F9A8389830FC089819A81FC019E
:101C60008081882319F089819A810DC089819A81A8
:101C700087579F4F9A83898389819A81805A9D4093
:101C800060F380E090E00F900F90DF91CF91089586
:101C9000CF93DF9300D0CDB7DEB79A838983898154
:101CA0009A818D579F4FFC01108280917F178F5F23
:101CB00080937F1720917F1789819A81FC01248767
:101CC00020917B1730917C1789819A81FC0136879E
:101CD000258700000F900F90DF91CF910895CF934B
:101CE000DF931F92CDB7DEB719820FC08981882F8D
:101CF00090E0880F991F8C55924F2FEF3FEFFC011A
:101D00003183208389818F5F89838981833070F358
:101D100000000F90DF91CF910895CF93DF9300D013
:101D2000CDB7DEB79A83898389819A81BC018FEF11
:101D30009FEF0E94DA0E0F900F90DF91CF910895E0
:101D4000CF93DF9300D0CDB7DEB79A8389838981A3
:101D50009A816FEF7FEF0E94DA0E0F900F90DF9164
:101D6000CF910895CF93DF9300D01F92CDB7DEB708
:101D70009B838A83198214C08981882F90E0880F01
:101D8000991F8C55924FFC01208131818A819B8162
:101D90002817390711F481E007C089818F5F898393
:101DA0008981833048F380E00F900F900F90DF918E
:101DB000CF910895CF93DF9300D000D01F92CDB77D
:101DC000DEB79B838A837D836C83198220C08981DF
:101DD000882F90E0880F991F8C55924FFC0120812D
:101DE00031818A819B812817390771F48981882F75
:101DF00090E0880F991F8C55924F2C813D81FC01FA
:101E00003183208381E007C089818F5F8983898145
:101E10008330E8F280E00F900F900F900F900F90BA
:101E2000DF91CF910895CF93DF9300D0CDB7DEB788
:101E30009A83898389819A81FC01418189819A8170
:101E40008F579F4FFC01808191819C0189819A81EC
:101E50000296B901681B790BCB01742F781B872F71
:101E60000F900F90DF91CF910895CF93DF931F9242
:101E7000CDB7DEB7198211C08981282F30E0C901A2
:101E8000880F991F880F991F820F931F8654924FB6
:101E9000FC01108289818F5F89838981823360F39D
:101EA00084E690E0A0E0B0E08093B70E9093B80E87
:101EB000A093B90EB093BA0E1092BB0E8CE191E1D3
:101EC0009093BD0E8093BC0E6DE372E180E00E94A2
:101ED000F70700000F90DF91CF910895CF93DF9324
:101EE00000D000D0CDB7DEB79C838B838B819C81E3
:101EF000FC0180819181FC0180818C3041F48B81D7
:101F00009C81FC018281873008F05BC0F9C08B8125
:101F10009C81FC0180819181FC0180818C3C49F095
:101F20008B819C81FC0180819181FC0180818C38B6
:101F300041F48B819C81FC018281833008F041C097
:101F4000DFC08B819C81FC01808191810196FC0125
:101F500080818838D1F48B819C81FC0180819181C2
:101F6000FC018081813651F08B819C81FC01808154
:101F70009181FC018081813409F0B7C08B819C8103
:101F8000FC0182818031E8F4B0C08B819C81FC012E
:101F9000808191810196FC018081803809F0A7C081
:101FA0008B819C81FC0180819181FC01808188234F
:101FB00009F09FC08B819C81FC0182818B3008F4E9
:101FC00098C08B819C81FC01808191810196FC01EC
:101FD0008081883851F08B819C81FC0180819181C6
:101FE0000196FC0180818038D9F40E94F20C9A831A
:101FF000898389819A81892B09F47DC08B819C8199
:10200000FC01808191810196FC018081883811F466
:1020100020E201C025E289819A81FC01208337C03A
:102020008B819C81FC0180819181FC0180818C30BD
:1020300081F481E00E94640D9A83898389819A8169
:10204000892B09F45AC089819A8126E2FC012083F8
:102050001EC080E00E94640D9A83898389819A81E1
:10206000892B09F44CC08B819C81FC01808191817A
:10207000FC0180818C3831F489819A8128E2FC014D
:10208000208305C089819A8127E2FC0120838B810E
:102090009C81FC01228189819A81FC0121838B81B1
:1020A0009C81FC01238189819A818D579F4FFC017E
:1020B00020838B819C81FC01248189819A818C57AA
:1020C0009F4FFC0120838B819C81FC018281482FE2
:1020D00050E08B819C81FC012081318189819A8132
:1020E0000296B9010E948C4F0BC0000009C000008D
:1020F00007C0000005C0000003C0000001C00000D0
:102100000F900F900F900F90DF91CF910895CF9384
:10211000DF9300D000D000D0CDB7DEB79E838D8393
:102120000E94F20C9A83898389819A81892B09F410
:102130006BC08D819E81FC01818120E1280F8D8102
:102140009E81FC0121838D819E818F579F4FFC01D1
:10215000808191819C01205F3F4F8D819E818F57AF
:102160009F4FFC013183208389819A810E94480E10
:1021700089819A81FC01818123E0280F89819A81DC
:10218000FC01218389819A8189579F4FFC0111822B
:1021900010828D819E81FC01838581FB222720F99D
:1021A00089819A812170220FFC0133853D7F232B89
:1021B000FC0123878D819E81FC01258536858981DF
:1021C0009A81FC01308B278789819A818F579F4F95
:1021D000FC01808191819C838B838B819C81FC019C
:1021E00010822091B00E8B819C81FC0122838D8115
:1021F0009E81FC0124858B819C81FC012183898146
:102200009A810E94261801C0000026960FB6F89405
:10221000DEBF0FBECDBFDF91CF910895CF93DF9387
:102220001F92CDB7DEB7898389818093B00E0000FD
:102230000F90DF91CF910895CF93DF9300D000D01E
:10224000CDB7DEB79C838B8319821A8230C08A8116
:10225000282F30E0C901880F991F880F991F820F1E
:10226000931F8654924FFC0180818823E9F08A8174
:10227000282F30E0C901880F991F880F991F820FFE
:10228000931F8654924FFC0180814FEF480FC90184
:10229000880F991F880F991F820F931F8654924FA2
:1022A000FC01408381E089838A818F5F8A838A81F0
:1022B000823368F28981882321F08B819C810E947E
:1022C000262000000F900F900F900F90DF91CF917C
:1022D0000895CF93DF93CDB7DEB729970FB6F89463
:1022E000DEBF0FBECDBF998788871A8219821B82F5
:1022F00090C08B81282F30E0C901880F991F880F6B
:10230000991F820F931F8A54924F9D838C838C81D7
:102310009D81FC018481882309F46EC0888599859C
:10232000FC01238534858C819D81FC018081918114
:102330002817390709F060C08C819D81FC0122813A
:1023400088859985FC018285F22FF81B8F2F8E835B
:102350008E81883058F58C819D81FC018381882F86
:1023600090E02E81222F30E002C0959587952A9526
:10237000E2F781709927892B11F081E075C08C817B
:102380009D81FC018381482F8E81282F30E081E0E0
:1023900090E002C0880F991F2A95E2F7842B282F1E
:1023A0008C819D81FC01238380E05EC08E818195BC
:1023B0008F8388859985FC0122858C819D81FC0114
:1023C00022838C819D81FC018381882F90E02F8165
:1023D000222F30E002C0880F991F2A95E2F7816012
:1023E000282F8C819D81FC0123838C819D8125E197
:1023F000FC01248380E038C08C819D81FC018481B4
:10240000882321F48C819D819A8389838B818F5FBE
:102410008B838B81823308F46CCF89819A81892BDD
:1024200011F481E021C088859985FC0123853485DC
:1024300089819A81FC013183208388859985FC01FB
:10244000228589819A81FC01228389819A8121E0F8
:10245000FC01238389819A8125E1FC01248381EB9E
:102460009EE00E94262080E029960FB6F894DEBFF9
:102470000FBECDBFDF91CF910895CF93DF9300D0F2
:10248000CDB7DEB79A83898389819A81FC018285E1
:10249000882311F480E011C089819A81FC01808534
:1024A0009185FC018081882F90E0892B29F4898116
:1024B0009A810E944C1901C080E00F900F90DF912B
:1024C000CF910895CF93DF93CDB7DEB728970FB69E
:1024D000F894DEBF0FBECDBF98878F838F8198851C
:1024E00002969B838A838F81988524E2FC01208356
:1024F0008A819B81FC0181858270882309F03BC120
:102500008A819B81FC0181858870882341F08A81C2
:102510009B81FC0181858170882309F02EC18A810D
:102520009B81FC01838194810196D1F420917B17DA
:1025300030917C178A819B81FC01858596852817BF
:10254000390741F08A819B81FC018585968501963A
:1025500009F015C18F81988522E2FC0120830FC10B
:102560008A819B81FC0185859685019641F48A814B
:102570009B81FC0181858170882309F002C1209133
:102580007B1730917C178A819B81FC018385948520
:102590002817390709F4F7C08A819B810E946911C5
:1025A000882309F0F2C08A819B81FC0181858870B3
:1025B000882309F4A9C08F8198858F579F4FFC010C
:1025C000808191819D838C838A819B81FC0185859B
:1025D00096850E94B20E8E8319828A819B81FC01AE
:1025E00085819681019609F061C08E81882379F1F9
:1025F0008C819D81FC0181818F70882F90E021E08A
:10260000181619060CF020E029838C819D81FC01AD
:1026100081818F702FE0280F2F708C819D812F700A
:10262000FC013181307F232BFC0121838C819D8132
:10263000FC018081282F22952F708C819D812F7025
:10264000FC013081307F232BFC0120833BC08C8137
:102650009D81FC0180818F70882F90E021E0181609
:1026600019060CF020E029838C819D81FC0180817A
:102670008F702FE0280F2F708C819D812F70FC01AF
:102680003081307F232BFC0120838C819D81FC01D4
:102690008181282F22952F708C819D812F70FC01C4
:1026A0003181307F232BFC0121830CC08E81882354
:1026B00049F081E089838A819B81FC012185246026
:1026C000FC0121878981882321F08F8198850E94D0
:1026D000BD188E81882309F459C08F8198858F5742
:1026E0009F4FFC01808191819C012E5F3F4F8F8124
:1026F00098858F579F4FFC01318320838F81988568
:1027000022E2FC01208342C08A819B81FC018581F9
:1027100096810196B9F420917B1730917C178A81BC
:102720009B81FC01858596852817390759F08A8198
:102730009B81FC0181858470882321F48F81988599
:102740000E94BD1820917B1730917C178A819B8154
:10275000FC01858596852817390739F08A819B8188
:10276000FC0185859685019689F48F81988522E202
:10277000FC0120830BC0000009C0000007C000005E
:1027800005C0000003C0000001C0000028960FB67D
:10279000F894DEBF0FBECDBFDF91CF910895CF93E8
:1027A000DF93CDB7DEB761970FB6F894DEBF0FBEEB
:1027B000CDBF998B888B8889998902969A83898362
:1027C00089819A81FC01878582958F70882F90E09E
:1027D0000396880F991F8558984EFC01808191813E
:1027E000892B11F480E0D9C089819A81FC0183850D
:1027F00094859C838B8389819A81FC01858596854C
:102800009E838D8389819A81FC0187858F708F8358
:1028100089819A81FC01878582958F708887888954
:1028200099898F579F4FFC01808191819C878B876D
:10283000888999890E94130F8D87888999898D5776
:102840009F4FFC0180818E87888999898C579F4F83
:10285000FC0180818F8789819A81FC018185982F75
:10286000917081E0992309F480E0882F90E09A87A5
:10287000898729853A8589819A81FC018185882FFC
:1028800090E082709927822B932B9A8789872985DC
:102890003A8589819A81FC0181858470882319F0A9
:1028A00080E290E002C080E090E0822B932B9A8738
:1028B000898729853A8589819A81FC01818588707B
:1028C000882319F080E490E002C080E090E0822B41
:1028D000932B9A87898729853A8589819A81FC017A
:1028E00081858071882319F080E890E002C080E043
:1028F00090E0822B932B9A87898729853A85898155
:102900009A81FC0185859685019619F484E090E012
:1029100002C080E090E0822B932B9A8789872985DB
:102920003A8589819A81FC014385548589819A8100
:10293000FC01878190854817590719F488E090E0D9
:1029400002C080E090E0822B932B9A8789872985AB
:102950003A8589819A81FC0183819481019619F4D9
:1029600080E190E002C080E090E0822B932B9A8778
:10297000898789819A81FC01878582958F70882F4C
:1029800090E00396880F991F8558984EFC0120818E
:102990003181CE010396F901099561960FB6F8943D
:1029A000DEBF0FBECDBFDF91CF910895CF93DF93F0
:1029B000CDB7DEB761970FB6F894DEBF0FBECDBFBF
:1029C000998B888B8889998902969A8389838889CB
:1029D000998924E2FC0120838091811790918217CC
:1029E000892B11F480E044C088899989FC01878192
:1029F00090859C838B8388899989FC018781908548
:102A00009E838D831F821886888999898F579F4F4F
:102A1000FC01808191819C878B87888999890E949C
:102A2000130F8D87888999898D579F4FFC0180816D
:102A30008E87888999898C579F4FFC0180818F8769
:102A400080E890E09A87898789819A81FC0187854F
:102A500082958F70882F90E00396880F991F855874
:102A6000984EFC0120813181CE010396F901099530
:102A700061960FB6F894DEBF0FBECDBFDF91CF9148
:102A80000895CF93DF93CDB7DEB72F970FB6F894A5
:102A9000DEBF0FBECDBF9F878E878E859F8524E2C8
:102AA000FC0120838091811790918217892B11F46A
:102AB00080E02AC01A8219821C821B821D821E821B
:102AC0008E859F8502969A8789878E859F850E942D
:102AD000130F8B878E859F858D579F4FFC018081BB
:102AE0008C878E859F858C579F4FFC0180818D87B9
:102AF00080E091E098878F83209181173091821731
:102B0000CE010196F90109952F960FB6F894DEBF14
:102B10000FBECDBFDF91CF910895CF93DF93CDB797
:102B2000DEB761970FB6F894DEBF0FBECDBF998BAD
:102B3000888B8889998902969A838983888999895B
:102B400024E2FC0120838091871790918817892BBC
:102B500011F480E02EC01C821B821E821D821F8207
:102B60001886888999898F579F4FFC0180819181B0
:102B70009C878B87888999890E94130F8D87888904
:102B800099898D579F4FFC0180818E87888999890B
:102B90008C579F4FFC0180818F8780E092E09A875D
:102BA00089872091871730918817CE010396F90104
:102BB000099561960FB6F894DEBF0FBECDBFDF91C9
:102BC000CF910895CF93DF93CDB7DEB761970FB65E
:102BD000F894DEBF0FBECDBF998B888B8889998909
:102BE00002969A8389838889998924E2FC0120834B
:102BF0008091891790918A17892B11F480E02EC05B
:102C00001C821B821E821D821F82188688899989D8
:102C10008F579F4FFC01808191819C878B8788898A
:102C200099890E94130F8D87888999898D579F4FA5
:102C3000FC0180818E87888999898C579F4FFC0180
:102C400080818F8780E090E49A8789872091891717
:102C500030918A17CE010396F901099561960FB656
:102C6000F894DEBF0FBECDBFDF91CF910895CF9313
:102C7000DF9300D01F92CDB7DEB79B838A8310927B
:102C8000B00E8A819B810E94CF1389838A819B81A8
:102C9000FC0183858170882309F419828A819B81D4
:102CA000FC01878190850196A9F420917B173091D2
:102CB0007C178A819B81FC018785908928173907B9
:102CC00049F48A819B81FC0183858870882311F4F3
:102CD00081E089838A819B81FC01858196810196AF
:102CE00009F4198280917B1790917C17019609F461
:102CF00019828981882321F08A819B810E94871013
:102D00008A819B8124E2FC01208300000F900F90B8
:102D10000F90DF91CF910895CF93DF9300D0CDB77F
:102D2000DEB71A8219823BC089819A81FC018081B9
:102D3000882F90E0092E000CAA0BBB0B40E250E05C
:102D400028E030E0841B950B2817390740F18556A1
:102D50009F4FFC010C94374E89819A810E94621228
:102D60001EC089819A810E94371619C089819A8173
:102D70000E94FC0D14C089819A810E94D6140FC054
:102D800089819A810E9441150AC089819A810E9495
:102D90008D1505C089819A810E94E2150000898104
:102DA0009A810E94160E9A83898389819A81892B40
:102DB00009F0BACF00000F900F90DF91CF910895E6
:102DC000CF93DF93CDB7DEB71092C70E1092C60E29
:102DD00082E390E0A0E0B0E08093CE0E9093CF0E1F
:102DE000A093D00EB093D10E1092D20E8BE999E140
:102DF0009093D40E8093D30E8AE090E0A0E0B0E0F0
:102E00008093DB0E9093DC0EA093DD0EB093DE0E6C
:102E10001092DF0E85E09AE19093E10E8093E00E30
:102E20000000DF91CF910895CF93DF9300D000D0C1
:102E3000CDB7DEB79C838B838B819C8102969A836E
:102E400089838B819C8123E1FC0120838B819C8180
:102E50008D579F4FFC0110828B819C818C579F4F17
:102E6000FC011182108289819A8120E030E8FC0106
:102E700031832083809180178F5F8093801720910A
:102E8000801789819A81FC01228320917D173091DE
:102E90007E1789819A81FC013483238320917B17DB
:102EA00030917C1789819A81FC013683258300004B
:102EB0000F900F900F900F90DF91CF910895CF93C7
:102EC000DF9300D000D0CDB7DEB79C838B838B819E
:102ED0009C8102969A8389838B819C8123E1FC01EA
:102EE00020838B819C818D579F4FFC0110828B81A9
:102EF0009C818C579F4FFC011182108289819A819D
:102F00002CE0FC012083809180178F5F80938017D5
:102F10002091801789819A81FC01218389819A817E
:102F2000FC012281287FFC01228389819A81FC0196
:102F30002281277EFC01228389819A81FC012281E2
:102F40002F7DFC01228389819A81FC0122812F7BC4
:102F5000FC01228300000F900F900F900F90DF91E3
:102F6000CF910895CF93DF9300D000D000D0CDB79C
:102F7000DEB79C838B837E836D838B819C810296DD
:102F80009A8389838B819C8123E1FC0120838B813F
:102F90009C818D579F4FFC0110828B819C818C57A7
:102FA0009F4FFC01118210828D819E81992334F400
:102FB00089819A812CECFC01208317C08D819E8130
:102FC00088279072892B31F089819A812CE4FC0149
:102FD00020830BC08D819E8188279074892B29F0D6
:102FE00089819A812CE8FC012083809180178F5F72
:102FF000809380172091801789819A81FC01218319
:1030000089819A81FC012281287FFC0122838981A8
:103010009A81FC012281277EFC01228389819A8189
:10302000FC0122812F7DFC01228389819A81FC0190
:1030300022812F7BFC012283000026960FB6F89494
:10304000DEBF0FBECDBFDF91CF910895CF93DF9349
:1030500000D000D0CDB7DEB79C838B838B819C8161
:1030600002969A8389838B819C818A579F4FFC01AA
:103070008081882F90E082709927892B31F08B8195
:103080009C8122E1FC01208305C08B819C8122E18F
:10309000FC0120838B819C818D579F4FFC01108206
:1030A0008B819C818A579F4FFC018081882F90E003
:1030B00081709927892B41F089819A812FEF3FEF09
:1030C000FC013483238309C020917D1730917E1742
:1030D00089819A81FC013483238389819A81FC014F
:1030E0002585368589819A81FC0136832583209147
:1030F0007B1730917C1789819A81FC013087278367
:10310000809180178F5F809380172091801789812D
:103110009A81FC01228389819A81FC0185819681B3
:103120000196A9F489819A8121E438E8FC01318370
:1031300020830E949A4E8770992701969C018B816B
:103140009C818C579F4FFC01318320830EC0898165
:103150009A8121E438E8FC01318320838B819C81B2
:103160008C579F4FFC011182108200000F900F902E
:103170000F900F90DF91CF910895CF93DF9300D000
:1031800000D0CDB7DEB79C838B830E94F20C9A836C
:10319000898389819A81892B09F476C089819A81F2
:1031A0008F579F4FFC01808191819C01205F3F4F91
:1031B00089819A818F579F4FFC01318320838981B8
:1031C0009A8122E1FC0120838B819C81FC01218179
:1031D00089819A81FC01218389819A818D579F4F32
:1031E000FC0110820E949A4E8770992701969C01DB
:1031F00089819A818C579F4FFC013183208389817B
:103200009A8189579F4FFC01118210828B819C818A
:10321000FC018181482F50E08B819C819C012E5FB5
:103220003F4F89819A810296B9010E948C4F898112
:103230009A8121E438E8FC013383228389819A81D1
:103240002FEF3FEFFC01308727838B819C81FC01AE
:103250002581368189819A81FC01368325832091DD
:103260007B1730917C1789819A81FC0132872187F5
:10327000809180178F5F80938017209180178981BC
:103280009A81FC01248301C000000F900F900F90E1
:103290000F90DF91CF910895CF93DF9300D000D0AE
:1032A00000D0CDB7DEB79E838D838D819E81FC01DA
:1032B000808591859C838B831A8219828D819E8162
:1032C000FC018285833019F180E02CC089819A81CC
:1032D000FC0180818631D9F489819A81FC012485A1
:1032E0008B819C81FC018181281789F489819A81D5
:1032F00027E1FC0120838B819C81FC012281898153
:103300009A818A579F4FFC01208381E00BC08981FD
:103310009A810E94160E9A83898389819A81892BCA
:10332000A9F680E026960FB6F894DEBF0FBECDBF9B
:10333000DF91CF910895CF93DF9300D000D01F92FB
:10334000CDB7DEB79D838C831A8219821B8227C07A
:1033500089819A81FC018081863109F581E08B8326
:1033600089819A818C579F4FFC01808191819C01BA
:103370002150310989819A818C579F4FFC013183FB
:10338000208389819A818C579F4FFC018081918194
:10339000892B29F489819A8160E10E94E919898148
:1033A0009A810E94160E9A83898389819A81892B3A
:1033B00079F68B81882321F08C819D810E942620C3
:1033C00000000F900F900F900F900F90DF91CF9112
:1033D0000895CF93DF9300D01F92CDB7DEB79A83C5
:1033E00089836B8389819A8127E1FC01208389810C
:1033F0009A818D579F4F2B81FC01208300000F90F5
:103400000F900F90DF91CF910895CF93DF9300D06D
:1034100000D01F92CDB7DEB79D838C831A821982AC
:103420001B8227C089819A81FC018081813109F545
:1034300081E08B8389819A818C579F4FFC01808129
:1034400091819C012150310989819A818C579F4F2C
:10345000FC013183208389819A818C579F4FFC0125
:1034600080819181892B29F489819A8123E1FC0152
:10347000208389819A810E94160E9A83898389818B
:103480009A81892B79F68B81882321F08C819D810B
:103490000E94262000000F900F900F900F900F9029
:1034A000DF91CF910895CF93DF931F92CDB7DEB711
:1034B00089838981882F90E08130910539F08230AD
:1034C000910531F0892B31F480E005C080E203C022
:1034D00081E201C081E00F90DF91CF9108950F93B9
:1034E0001F93CF93DF931F92CDB7DEB789830091EF
:1034F000C60E1091C70E89810E94531A282FC80149
:103500008D579F4FFC0120838091C60E9091C70E6E
:1035100025E1FC0120831092C70E1092C60E809107
:10352000A1179091A21701979093A2178093A117CA
:1035300000000F90DF91CF911F910F910895CF93CD
:10354000DF9300D0CDB7DEB71A821982B3C089816C
:103550009A81FC018081882F90E08431910509F4E3
:10356000A9C08531910534F48231910579F04397F2
:1035700031F19FC08631910509F49CC086319105D7
:103580000CF443C0479709F47AC093C089819A81AB
:103590008C579F4FFC0180819181892B51F089814B
:1035A0009A8121E1FC01208385ED9EE00E94262086
:1035B00081C089819A8123E1FC0120837BC08091B5
:1035C000C60E9091C70E892B09F074C089819A812B
:1035D0009093C70E8093C60E89819A8124E1FC01E5
:1035E000208389819A81FC01218189819A810296B7
:1035F000622F0E94A01D8091A1179091A2170196A1
:103600009093A2178093A11755C089819A818D57F5
:103610009F4FFC018081882361F589819A81FC019B
:103620002585368580917B1790917C17281739075F
:10363000D1F489819A81FC0183858170882399F076
:1036400089819A8126E1FC01208389819A818C57A6
:103650009F4F25E130E0FC013183208388EC9EE020
:103660000E9426200BC089819A8127E1FC012083DA
:1036700021C089819A8127E1FC0120831BC08981B7
:103680009A8189579F4FFC0180819181892B29F470
:1036900089819A810E94FC0D0DC089819A81895788
:1036A0009F4FFC012081318189819A81F90109951F
:1036B00001C0000089819A810E94160E9A83898335
:1036C00089819A81892B09F042CF00000F900F90D9
:1036D000DF91CF910895CF93DF9300D0CDB7DEB7C0
:1036E0009A83898389819A81892B09F47BC0898196
:1036F0009A818837910549F461E080E00E94D33BCC
:1037000060E180E00E94D33B6DC089819A81803C5A
:10371000910529F462E080E00E94D33B63C0898177
:103720009A818C34910529F464E080E00E94D33BB7
:1037300059C089819A818038910529F468E080E038
:103740000E94D33B4FC089819A818434910529F42A
:1037500060E280E00E94D33B45C089819A81803B32
:10376000910529F460E480E00E94D33B3BC089814D
:103770009A81883B910529F460E880E00E94D33B60
:1037800031C089819A81883C910529F461E081E00A
:103790000E94D33B27C089819A818039910529F401
:1037A00068E081E00E94D33B1DC089819A81803A04
:1037B000910529F460E181E00E94D33B13C0898127
:1037C0009A818032914029F460E281E00E94D33BEB
:1037D00009C089819A818334914021F460E481E0B9
:1037E0000E94D33B00000F900F90DF91CF9108957E
:1037F0006150710981099109D9F70895CF93DF9339
:10380000CDB7DEB783E491E00E946B1B89E391E0C2
:10381000FC0120812160FC0120831092630F81E074
:103820008093E20E88E00E947D1E8CE491E0FC0112
:1038300020812068FC0120830000DF91CF91089552
:10384000CF93DF93CDB7DEB789E391E0FC01208110
:103850002160FC0120830000DF91CF910895CF9378
:10386000DF931F92CDB7DEB7898389818823B1F0BA
:103870008CE691E0FC0120812F70FC0120838CE616
:1038800091E0FC0120812E60FC0120838EE691E016
:10389000FC0120812061FC01208317C08CE691E0AF
:1038A000FC0120812F702063FC0120838CE691E0D5
:1038B000FC012081217F2860FC0120838EE691E0BD
:1038C000FC0120812F7EFC01208300000F90DF91FE
:1038D000CF910895CF93DF93CDB7DEB729970FB679
:1038E000F894DEBF0FBECDBF898728E0CE010196D8
:1038F000FC01322F11923A95E9F78985882349F125
:1039000080E090E00E942A1D80E090E00E94061D69
:10391000CE0101960E94A21E87E591E0FC01208164
:103920002260FC01208387E591E0FC012081206179
:10393000FC01208387E591E0FC0120812F7DFC01C3
:1039400020838EE691E0FC0120812061FC01208330
:103950000BC087E591E0FC0110828EE691E0FC014E
:1039600020812F7EFC012083000029960FB6F89459
:10397000DEBF0FBECDBFDF91CF9108950F931F9390
:10398000CF93DF93CDB7DEB78FE691E0FC012081C6
:10399000207F2360FC0120838FE691E0FC012081E1
:1039A0002F702068FC0120830DE611E00E94E11DCC
:1039B000F80180830000DF91CF911F910F9108954E
:1039C000CF93DF931F92CDB7DEB789838981809330
:1039D000630F0E94661E00000F90DF91CF91089543
:1039E000CF93DF931F92CDB7DEB7898388E491E050
:1039F00029812F712F71FC013081307E232BFC0136
:103A0000208300000F90DF91CF910895CF93DF9333
:103A100000D000D0CDB7DEB79C838B83CE01039658
:103A20009A83898382E691E029813A81F901208194
:103A3000FC01208383E691E029813A81F90121810B
:103A4000FC01208300000F900F900F900F90DF91EA
:103A5000CF910895CF93DF9300D000D0CDB7DEB7DC
:103A60009C838B83CE0103969A83898380E691E0C1
:103A700029813A81F9012081FC01208381E691E0CE
:103A800029813A81F9012181FC0120838DE691E0B1
:103A900029813A81F901408129813A812F5F3F4F85
:103AA000F9012081240FFC01208300000F900F906A
:103AB0000F900F90DF91CF910895CF93DF931F92D6
:103AC000CDB7DEB7898385E491E029812F702F700F
:103AD000FC013081307F232BFC01208300000F90FC
:103AE000DF91CF910895CF93DF93CDB7DEB780916B
:103AF000E20E823069F088E00E947D1E89E391E049
:103B0000FC0120812260FC01208382E08093E20E90
:103B10000000DF91CF910895CF93DF93CDB7DEB74B
:103B200089E391E0FC0120812D7FFC0120830E942C
:103B3000661E81E08093E20E0000DF91CF91089530
:103B4000CF93DF9300D000D0CDB7DEB79B838A83BD
:103B50006C8389E10E947D1E8FE491E02FEFFC01D0
:103B6000208380E891E02C812E5FFC012083198264
:103B700014C08981882F90E08F579E4FAC018981B6
:103B8000882F90E02A813B81820F931FFC01808166
:103B9000FA01808389818F5F898399818C8198174D
:103BA00040F383E08093E20E82E491E022E0FC01A6
:103BB000208300000F900F900F900F90DF91CF9116
:103BC0000895CF93DF9300D01F92CDB7DEB71A824E
:103BD000198286E00E947D1E1B8222C062E070E096
:103BE00080E090E00E94F81B86E491E0FC01808177
:103BF0008295869587708370882F90E02B81222F85
:103C000030E002C0880F991F2A95E2F79C01898154
:103C10009A81822B932B9A8389838B818E5F8B83EE
:103C20008B818031D8F20E94661E89819A810F9023
:103C30000F900F90DF91CF910895CF93DF9300D035
:103C400000D0CDB7DEB79A8389837C836B838B8169
:103C50009C8140E060E00E94C72E89819A810E9489
:103C6000D32F89819A810E94093000000F900F9014
:103C70000F900F90DF91CF910895CF93DF931F9214
:103C8000CDB7DEB786E00E947D1E8FE491E0FC0197
:103C900020812061FC01208387E491E0FC011082F7
:103CA00000008FE491E0FC0180818295817088237F
:103CB000C1F387E491E0FC0180818A5589830E94E9
:103CC000661E89810F90DF91CF910895CF93DF9386
:103CD000CDB7DEB788E00E947D1E8FE491E02FEF24
:103CE000FC0120838091630F882319F086E10E94F4
:103CF0007D1E0000DF91CF910895CF93DF931F9237
:103D0000CDB7DEB7898382E491E023E0FC01208314
:103D100081E491E0FC0180818F718830A1F782E419
:103D200091E02981FC01208381E491E0FC01808104
:103D30008F71982F8981981791F700000F90DF916C
:103D4000CF910895CF93DF9300D000D0CDB7DEB7E9
:103D50009C838B838B819C819A83898324E631E0C9
:103D600089819A81AC014F5F5F4F5A834983FC017F
:103D70008081F901808325E631E089819A81AC0157
:103D80004F5F5F4F5A834983FC018081F901808333
:103D900026E631E089819A81AC014F5F5F4F5A83FB
:103DA0004983FC018081F901808327E631E0898124
:103DB0009A81AC014F5F5F4F5A834983FC01808138
:103DC000F901808328E631E089819A81AC014F5F57
:103DD0005F4F5A834983FC018081F901808329E682
:103DE00031E089819A81AC014F5F5F4F5A834983EB
:103DF000FC018081F90180832AE631E089819A8182
:103E0000AC014F5F5F4F5A834983FC018081F90108
:103E100080838BE691E029813A81F9012081FC01C0
:103E2000208300000F900F900F900F90DF91CF91A3
:103E30000895CF93DF93CDB7DEB728970FB6F894E8
:103E4000DEBF0FBECDBF8091E20E823009F49EC06E
:103E50008FE491E0FC01808183FB882780F988232F
:103E600009F459C08BE791E0FC0180818B831982B2
:103E700011C08981882F90E02981222F30E02058BD
:103E80003E4FF90120818D51914FFC0120838981A2
:103E90008F5F89838981282F30E08B81882F90E084
:103EA0000196281739072CF383EE9EE09D838C83BF
:103EB0008B8182508E838B81882F90E08D51914F22
:103EC000FC0180818F8387E491E0FC0180818A5529
:103ED0008887CE0104960E946E0F000081E491E075
:103EE000FC0180818F718631C9F78FE491E0FC017C
:103EF00020812860FC0120838CE491E0FC0120817A
:103F00002F77FC0120838CE491E0FC012081206864
:103F1000FC0120833CC08FE491E0FC01808186FBA2
:103F2000882780F9882399F181E491E0FC01808160
:103F30008F71893119F582E491E0FC0180818295CD
:103F4000869587708A838A81882311F41A820EC02D
:103F50008A81833019F481E08A8308C08A818530A0
:103F600019F482E08A8302C083E08A830E94661E7D
:103F700081E08093E20E8A810E946F1A8FE491E0C3
:103F8000FC0120812064FC01208301C000002896F0
:103F90000FB6F894DEBF0FBECDBFDF91CF9108956D
:103FA000CF93DF93CDB7DEB70E940E200E94BF2EC5
:103FB0000E94FE1B0E9496070000DF91CF9108959A
:103FC000CF93DF93CDB7DEB70E94191F0E949408EC
:103FD0000E94E0200000DF91CF910895CF93DF93FE
:103FE0001F92CDB7DEB78FE590E0FC018081898319
:103FF000F89489810F90DF91CF910895CF93DF934B
:104000001F92CDB7DEB789838FE590E02981FC014F
:10401000208300000F90DF91CF910895CF93DF931D
:10402000CDB7DEB71092A31788E792E20E944D4801
:104030000E94FF4780E197E20E94954710926D0F22
:1040400010926C0F0000DF91CF910895CF93DF9312
:1040500000D0CDB7DEB79A83898389819A810E9487
:10406000B520982F81E08927882321F089819A81C2
:104070000E94A32100000F900F90DF91CF9108952F
:10408000CF93DF9300D000D000D0CDB7DEB79E83B2
:104090008D831A82198280916C0F90916D0F9C8391
:1040A0008B8352C02B813C818D819E8128173907DB
:1040B00009F03FC089819A81892B59F08B819C81BD
:1040C000FC012081318189819A81FC013183208327
:1040D00009C08B819C81FC018081918190936D0F3F
:1040E00080936C0F8B819C81FC0180819181892B55
:1040F00089F18B819C81FC01608171818B819C8124
:10410000FC0180819181FC012281338144815581B0
:104110008D819E81FC0182819381A481B581820F72
:10412000931FA41FB51FFB0182839383A483B583D0
:1041300011C08B819C819A8389838B819C81FC0136
:10414000808191819C838B838B819C81892B09F059
:10415000A9CF01C00000000026960FB6F894DEBF7C
:104160000FBECDBFDF91CF910895CF93DF9300D0E5
:1041700000D0CDB7DEB79C838B8380916C0F90917C
:104180006D0F9A83898310C029813A818B819C812C
:104190002817390711F481E00CC089819A81FC014C
:1041A000808191819A83898389819A81892B61F7A2
:1041B00080E00F900F900F900F90DF91CF910895B6
:1041C000EF92FF920F931F93CF93DF93CDB7DEB79C
:1041D00028970FB6F894DEBF0FBECDBF8091A3170E
:1041E000882309F4A2C00E94EE1F8D838091A3173B
:1041F0008E831092A3178D810E94FE1F8E81882FBF
:1042000090E0A0E0B0E0880F991FAA1FBB1F9C019F
:10421000AD01220F331F441F551F220F331F441FB0
:10422000551F820F931FA41FB51F89839A83AB83E9
:10423000BC833DC080916C0F90916D0F98878F83E8
:1042400080916C0F90916D0FFC0182819381A4810C
:10425000B58129813A814B815C8179018A01E81A13
:10426000F90A0A0B1B0BD801C70189839A83AB8318
:10427000BC8380916C0F90916D0FFC0180819181C6
:1042800090936D0F80936C0F8F819885FC018285D0
:10429000813021F48F8198850E94A3218F81988598
:1042A000FC01238534858F819885F90109958091DA
:1042B0006C0F90916D0F892B99F080916C0F9091FC
:1042C0006D0FFC01228133814481558189819A815E
:1042D000AB81BC8182179307A407B50708F0AACF6A
:1042E00080916C0F90916D0F892B01F160916C0F93
:1042F00070916D0F80916C0F90916D0FFC01228178
:1043000033814481558189819A81AB81BC81790156
:104310008A01E81AF90A0A0B1B0BD801C701FB0135
:1043200082839383A483B58301C0000028960FB6CF
:10433000F894DEBF0FBECDBFDF91CF911F910F91DB
:10434000FF90EF900895EF92FF920F931F93CF93FA
:10435000DF93CDB7DEB72A970FB6F894DEBF0FBE56
:10436000CDBF9A87898780916C0F90916D0F892BB3
:1043700009F497C01A82198289859A85FC01868181
:104380009781A085B1858B839C83AD83BE8380910B
:104390006C0F90916D0F98878F834DC08F8198859A
:1043A000FC0122813381448155818B819C81AD81C7
:1043B000BE8182179307A407B507D8F48F8198852B
:1043C000FC0122813381448155818B819C81AD81A7
:1043D000BE8179018A01E81AF90A0A0B1B0BD80180
:1043E000C7012F813885F90182839383A483B58324
:1043F00027C08F819885FC0182819381A481B5813A
:104400002B813C814D815E8179018A01E81AF90A8C
:104410000A0B1B0BD801C7018B839C83AD83BE8322
:104420008F8198859A8389838F819885FC0180810B
:10443000918198878F838F819885892B09F0AECFE2
:1044400029853A858B819C81AD81BE81F90182836A
:104450009383A483B58389819A81892B91F0898183
:104460009A81FC012081318189859A85FC01318303
:10447000208389819A8129853A85FC0131832083B3
:1044800029C020916C0F30916D0F89859A85FC01B0
:104490003183208389859A8590936D0F80936C0F6B
:1044A00019C089859A85FC011182108289859A85B7
:1044B000FC0186819781A085B18529853A85F9011E
:1044C00082839383A483B58389859A8590936D0FA6
:1044D00080936C0F00002A960FB6F894DEBF0FBED3
:1044E000CDBFDF91CF911F910F91FF90EF90089575
:1044F000CF93DF93CDB7DEB78091A3178F5F809303
:10450000A31780E197E20E9495470000DF91CF91C9
:104510000895CF93DF931F92CDB7DEB78FE590E07C
:10452000FC0180818983F89489810F90DF91CF917C
:104530000895CF93DF931F92CDB7DEB789838FE5C0
:1045400090E02981FC01208300000F90DF91CF9142
:104550000895CF93DF93CDB7DEB780E094E2A4EF68
:10456000B0E0BC01CD01DF91CF910895CF93DF93EF
:10457000CDB7DEB70E94A922DC01CB01BC01CD0181
:10458000DF91CF910895CF93DF9300D0CDB7DEB701
:104590009A83898389819A81892B21F480E090E034
:1045A000DC01A3C089819A818837910529F40E9492
:1045B000B622DC01CB0199C089819A81803C9105AA
:1045C00029F40E94B622DC01CB018FC089819A8137
:1045D0008C34910529F40E94B622DC01CB0185C000
:1045E00089819A818038910529F40E94B622DC01E4
:1045F000CB017BC089819A818434910529F40E9482
:10460000B622DC01CB0171C089819A81803B910582
:1046100029F40E94B622DC01CB0167C089819A810E
:10462000803C910529F40E94B622DC01CB015DC0DB
:1046300089819A81883B910529F40E94B622DC0188
:10464000CB0153C089819A818039910529F40E9458
:10465000B622DC01CB0149C089819A81803A91055B
:1046600029F40E94B622DC01CB013FC089819A81E6
:104670008032914029F40E94B622DC01CB0135C082
:1046800089819A818334914029F40E94B622DC0109
:10469000CB012BC089819A818533914029F40E94F6
:1046A000B622DC01CB0121C089819A8184339140FB
:1046B00029F40E94B622DC01CB0117C089819A81BE
:1046C0008333914029F40E94B622DC01CB010DC056
:1046D00089819A818233914029F40E94B622DC01BB
:1046E000CB0103C080E090E0DC01BC01CD010F9064
:1046F0000F90DF91CF910895CF93DF9300D01F9259
:10470000CDB7DEB79A8389836B8389819A8180389C
:10471000910559F481E890E021E830E0F901308119
:104720002B81232BFC0120832FC089819A81803922
:10473000910559F481E990E021E930E0F9013081F7
:104740002B81232BFC0120831FC089819A81803A11
:10475000910559F481EA90E021EA30E0F9013081D5
:104760002B81232BFC0120830FC089819A81803209
:10477000914051F481E291E021E231E0F901308190
:104780002B81232BFC01208300000F900F900F90B2
:10479000DF91CF910895CF93DF9300D0CDB7DEB7EF
:1047A0009A83898389819A818038910551F48FE6B3
:1047B00090E02FE630E0F90120812160FC012083A8
:1047C0002CC089819A818039910551F481E790E06C
:1047D00021E730E0F90120812160FC0120831DC028
:1047E00089819A81803A910551F482E790E022E72D
:1047F00030E0F90120812160FC0120830EC0898115
:104800009A818032914049F483E790E023E730E0D9
:10481000F90120812160FC01208300000F900F909E
:10482000DF91CF910895CF93DF9300D0CDB7DEB75E
:104830009A83898389819A818038910551F48FE622
:1048400090E02FE630E0F90120812260FC01208316
:104850002CC089819A818039910551F481E790E0DB
:1048600021E730E0F90120812260FC0120831DC096
:1048700089819A81803A910551F482E790E022E79C
:1048800030E0F90120812260FC0120830EC0898183
:104890009A818032914049F483E790E023E730E049
:1048A000F90120812260FC01208300000F900F900D
:1048B000DF91CF910895CF93DF9300D0CDB7DEB7CE
:1048C0009A83898389819A818038910551F48FE692
:1048D00090E02FE630E0F90120812D7FFC0120835C
:1048E0002CC089819A818039910551F481E790E04B
:1048F00021E730E0F90120812D7FFC0120831DC0DC
:1049000089819A81803A910551F482E790E022E70B
:1049100030E0F90120812D7FFC0120830EC08981C8
:104920009A818032914049F483E790E023E730E0B8
:10493000F90120812D7FFC01208300000F900F9052
:10494000DF91CF910895CF93DF93CDB7DEB727974F
:104950000FB6F894DEBF0FBECDBF9C838B836D83F3
:104960005F834E838B819C819A8389838D81882F7D
:1049700090E0019629813A81820F931F2D81222F89
:1049800030E02F5F3F4F49815A81240F351FF901D5
:1049900040812E813F81232F3327242BFC0120834C
:1049A0008D81882F90E029813A81820F931F2D817C
:1049B000222F30E049815A81240F351FF9013081BF
:1049C0002E81232BFC012083000027960FB6F8943C
:1049D000DEBF0FBECDBFDF91CF910895CF93DF93A0
:1049E00000D0CDB7DEB79A83898389819A818038D8
:1049F000910551F486E390E026E330E0F90120814F
:104A00002160FC0120832CC089819A818039910525
:104A100051F488E390E028E330E0F901208121603F
:104A2000FC0120831DC089819A81803A910551F44F
:104A300089E390E029E330E0F90120812160FC0165
:104A400020830EC089819A818032914049F48AE3A3
:104A500090E02AE330E0F90120812160FC0120830D
:104A600000000F900F90DF91CF910895CF93DF93C7
:104A700000D0CDB7DEB79A83898389819A81803847
:104A8000910551F486E390E026E330E0F9012081BE
:104A90002260FC0120832CC089819A818039910594
:104AA00051F488E390E028E330E0F90120812260AE
:104AB000FC0120831DC089819A81803A910551F4BF
:104AC00089E390E029E330E0F90120812260FC01D4
:104AD00020830EC089819A818032914049F48AE313
:104AE00090E02AE330E0F90120812260FC0120837C
:104AF00000000F900F90DF91CF910895CF93DF9337
:104B000000D0CDB7DEB79A83898389819A818038B6
:104B1000910531F484E890E0FC018081918123C00B
:104B200089819A818039910531F484E990E0FC0112
:104B30008081918118C089819A81803A910531F4F0
:104B400084EA90E0FC01808191810DC089819A8185
:104B50008032914031F484E291E0FC0180819181C6
:104B600002C080E090E00F900F90DF91CF91089508
:104B7000CF93DF9300D000D01F92CDB7DEB79C83D8
:104B80008B836D838B819C819A8389838D8188231C
:104B900049F489819A81FC01208189819A81FC01F3
:104BA00020830FC08D81843061F489819A810196C0
:104BB00029813A812F5F3F4FF90120812860FC0154
:104BC000208300000F900F900F900F900F90DF91B7
:104BD000CF910895CF93DF93CDB7DEB780E890E013
:104BE0000E947E25DF91CF910895CF93DF93CDB7BB
:104BF000DEB780E890E00E945B2480E890E00E94AD
:104C000036250000DF91CF910895CF93DF93CDB784
:104C1000DEB780E890E00E94362580E890E00E94B0
:104C200013240000DF91CF910895CF93DF93CDB788
:104C3000DEB780E890E00E94CB2380E890E00E94FD
:104C4000EE240000DF91CF910895CF93DF93CDB78D
:104C5000DEB780E890E00E94A22D0000DF91CF91A6
:104C60000895CF93DF9300D0CDB7DEB79A838983C1
:104C700089819A81AC0168E080E890E00E94A324D9
:104C800000000F900F90DF91CF910895CF93DF93A5
:104C9000CDB7DEB70E948922DF91CF910895CF93DF
:104CA000DF931F92CDB7DEB7898389810E94992255
:104CB00000000F90DF91CF910895CF93DF931F9263
:104CC000CDB7DEB780E890E00E94892D66EF76E2EE
:104CD00080E890E00E94BB2D60E080E890E00E94B8
:104CE000B82580E890E00E94CB2380E890E00E9405
:104CF000982680E890E00E945B2461E080E890E0E4
:104D00000E947C2380E890E00E94C322DC01CB015A
:104D100020E432E44FE050E0BC01CD010E94154E8A
:104D2000DA01C901898389810F90DF91CF910895BC
:104D3000CF93DF9300D0CDB7DEB79A838983898183
:104D40009A818038910579F089819A81803991051D
:104D500051F089819A81803A910529F089819A815F
:104D60008032914039F460E077E280E890E00E9480
:104D7000FC2D36C089819A818138910579F089812D
:104D80009A818139910551F089819A81813A910501
:104D900029F089819A818132914039F460E077E28B
:104DA00080E890E00E943D2E1BC089819A81823864
:104DB000910579F089819A818239910551F0898133
:104DC0009A81823A910529F089819A8182329140B3
:104DD00039F460E077E280E890E00E947E2E00C027
:104DE00000000F900F90DF91CF910895CF93DF9344
:104DF000CDB7DEB70E9406480000DF91CF9108953D
:104E0000CF93DF93CDB7DEB70E943E480000DF911D
:104E1000CF910895CF93DF931F92CDB7DEB78FE583
:104E200090E0FC0180818983F89489810F90DF9163
:104E3000CF910895CF93DF931F92CDB7DEB78983CB
:104E40008FE590E02981FC01208300000F90DF9125
:104E5000CF910895EF92FF920F931F93CF93DF931B
:104E6000CDB7DEB72C970FB6F894DEBF0FBECDBF1F
:104E70006B837C838D839E832F83388749875A87F2
:104E80001C870B878F819885A985BA8580936E0FC3
:104E900090936F0FA093700FB093710F8B859C85CB
:104EA0009A8389838B819C81AD81BE8188279F5F96
:104EB000AF4FBF4F8093720F9093730FA093740FF7
:104EC000B093750F8B819C81AD81BE81882706E7E9
:104ED0001FE020E031E040E050E0BC01CD010E9445
:104EE0001D2826E73FE040E051E060E070E0CB01A4
:104EF0000E945E5220916E0F30916F0F4091700FA3
:104F00005091710F8B819C81AD81BE81280F391F1B
:104F10004A1F5B1F8091720F9091730FA091740FC5
:104F2000B091750F82179307A407B507A0F480917D
:104F3000720F9091730FA091740FB091750F9C0137
:104F40008B819C817901E81AF90AC7019093771047
:104F5000809376100CC080916E0F90916F0FA0918E
:104F6000700FB091710F909377108093761020910D
:104F70006E0F30916F0F4091700F5091710F8091B3
:104F8000761090917710CC01A0E0B0E079018A0111
:104F9000E81AF90A0A0B1B0BD801C70180936E0FA0
:104FA00090936F0FA093700FB093710F4091761094
:104FB0005091771029813A818B819C81AD81BE818E
:104FC000BC01CD010E945E528B819C81AD81BE816E
:104FD000BC01CD010E946B538091720F9091730FB1
:104FE000A091740FB091750F8B839C83AD83BE83AA
:104FF000809176109091771029813A81820F931FCA
:105000009A83898380916E0F90916F0FA091700F9A
:10501000B091710F892B8A2B8B2B09F043CF0000A5
:105020002C960FB6F894DEBF0FBECDBFDF91CF91A7
:105030001F910F91FF90EF9008950F931F93CF93BF
:10504000DF93CDB7DEB762970FB6F894DEBF0FBE21
:10505000CDBF69877A878B879C872D873E874F874F
:10506000588B1A8B098B0E940A278B831A8219820C
:1050700029C029893A8989819A81B901680F791FE4
:1050800089859A85AB85BC859C01AD012F5F3F4F1B
:105090004F4F5F4F29873A874B875C878C839D836F
:1050A000AE83BF838C819D81AE81BF81ABBFFC018C
:1050B000879188878885FB01808389819A81019601
:1050C0009A83898389819A819C0140E050E08D8593
:1050D0009E85AF85B889281739074A075B0748F2CC
:1050E0008B810E941A27000062960FB6F894DEBFEB
:1050F0000FBECDBFDF91CF911F910F910895CF9338
:10510000DF931F92CDB7DEB78FE590E0FC01808181
:105110008983F89489810F90DF91CF910895CF937F
:10512000DF931F92CDB7DEB789838FE590E02981A9
:10513000FC01208300000F90DF91CF910895CF9361
:10514000DF9300D0CDB7DEB79A83898389819A81B6
:10515000892B09F47BC089819A818837910549F4AC
:1051600061E080E00E94D33B60E180E00E94D33B9D
:105170006DC089819A81803C910529F462E080E0CC
:105180000E94D33B63C089819A818C34910529F4B4
:1051900064E080E00E94D33B59C089819A818038C5
:1051A000910529F468E080E00E94D33B4FC08981DB
:1051B0009A818434910529F460E280E00E94D33B17
:1051C00045C089819A81803B910529F460E480E0A3
:1051D0000E94D33B3BC089819A81883B910529F489
:1051E00060E880E00E94D33B31C089819A81883C8D
:1051F000910529F461E081E00E94D33B27C08981B9
:105200009A818039910529F468E081E00E94D33BBE
:105210001DC089819A81803A910529F460E181E07D
:105220000E94D33B13C089819A818032914029F436
:1052300060E281E00E94D33B09C089819A81833476
:10524000914021F460E481E00E94D33B00000F9084
:105250000F90DF91CF910895CF93DF9300D0CDB71A
:10526000DEB79A83898389819A81892B09F47BC06F
:1052700089819A818837910549F461E080E00E9434
:10528000083C60E180E00E94083C6DC089819A8101
:10529000803C910529F462E080E00E94083C63C0F4
:1052A00089819A818C34910529F464E080E00E9420
:1052B000083C59C089819A818038910529F468E0B9
:1052C00080E00E94083C4FC089819A818434910516
:1052D00029F460E280E00E94083C45C089819A81FF
:1052E000803B910529F460E480E00E94083C3BC0CB
:1052F00089819A81883B910529F460E880E00E94C9
:10530000083C31C089819A81883C910529F461E08B
:1053100081E00E94083C27C089819A8180399105EB
:1053200029F468E081E00E94083C1DC089819A81CF
:10533000803A910529F460E181E00E94083C13C0A5
:1053400089819A818032914029F460E281E00E9453
:10535000083C09C089819A818334914021F460E43A
:1053600081E00E94083C00000F900F90DF91CF91E8
:1053700008951F920F9200905F000F9211240090E9
:105380005B000F922F933F934F935F936F937F93A5
:105390008F939F93AF93BF93EF93FF93CF93DF933D
:1053A000CDB7DEB78091781090917910892B31F0CC
:1053B0008091781090917910FC0109950000DF919F
:1053C000CF91FF91EF91BF91AF919F918F917F917D
:1053D0006F915F914F913F912F910F9000925B00E1
:1053E0000F9000925F000F901F9018951F920F92E0
:1053F00000905F000F92112400905B000F922F939A
:105400003F934F935F936F937F938F939F93AF934C
:10541000BF93EF93FF93CF93DF93CDB7DEB7809128
:105420007A1090917B10892B31F080917A109091B5
:105430007B10FC0109950000DF91CF91FF91EF9166
:10544000BF91AF919F918F917F916F915F914F919C
:105450003F912F910F9000925B000F9000925F00A0
:105460000F901F9018951F920F9200905F000F925F
:10547000112400905B000F922F933F934F935F9303
:105480006F937F938F939F93AF93BF93EF93FF930C
:10549000CF93DF93CDB7DEB780917C1090917D10D4
:1054A000892B31F080917C1090917D10FC01099541
:1054B0000000DF91CF91FF91EF91BF91AF919F914C
:1054C0008F917F916F915F914F913F912F910F90AD
:1054D00000925B000F9000925F000F901F90189554
:1054E0001F920F9200905F000F92112400905B00BA
:1054F0000F922F933F934F935F936F937F938F936D
:105500009F93AF93BF93EF93FF93CF93DF93CDB769
:10551000DEB780917E1090917F10892B31F08091C1
:105520007E1090917F10FC0109950000DF91CF91D2
:10553000FF91EF91BF91AF919F918F917F916F916B
:105540005F914F913F912F910F9000925B000F90D0
:1055500000925F000F901F9018951F920F9200907D
:105560005F000F92112400905B000F922F933F93E6
:105570004F935F936F937F938F939F93AF93BF935B
:10558000EF93FF93CF93DF93CDB7DEB78091801079
:1055900090918110892B31F0809180109091811031
:1055A000FC0109950000DF91CF91FF91EF91BF9130
:1055B000AF919F918F917F916F915F914F913F91AB
:1055C0002F910F9000925B000F9000925F000F9060
:1055D0001F9018951F920F9200905F000F92112458
:1055E00000905B000F922F933F934F935F936F93C5
:1055F0007F938F939F93AF93BF93EF93FF93CF933B
:10560000DF93CDB7DEB78091821090918310892B04
:1056100031F08091821090918310FC010995000077
:10562000DF91CF91FF91EF91BF91AF919F918F91BA
:105630007F916F915F914F913F912F910F900092C9
:105640005B000F9000925F000F901F9018951F92C3
:105650000F9200905F000F92112400905B000F9258
:105660002F933F934F935F936F937F938F939F936A
:10567000AF93BF93EF93FF93CF93DF93CDB7DEB795
:105680008091841090918510892B31F08091841045
:1056900090918510FC0109950000DF91CF91FF9159
:1056A000EF91BF91AF919F918F917F916F915F919A
:1056B0004F913F912F910F9000925B000F900092BD
:1056C0005F000F901F9018951F920F9200905F003F
:1056D0000F92112400905B000F922F933F934F93F2
:1056E0005F936F937F938F939F93AF93BF93EF934A
:1056F000FF93CF93DF93CDB7DEB780918610909163
:105700008710892B31F08091861090918710FC01D1
:1057100009950000DF91CF91FF91EF91BF91AF917B
:105720009F918F917F916F915F914F913F912F91B9
:105730000F9000925B000F9000925F000F901F90FF
:1057400018951F920F9200905F000F921124009005
:105750005B000F922F933F934F935F936F937F93D1
:105760008F939F93AF93BF93EF93FF93CF93DF9369
:10577000CDB7DEB78091881090918910892B31F0D8
:105780008091881090918910FC0109950000DF91AB
:10579000CF91FF91EF91BF91AF919F918F917F91A9
:1057A0006F915F914F913F912F910F9000925B000D
:1057B0000F9000925F000F901F9018951F920F920C
:1057C00000905F000F92112400905B000F922F93C6
:1057D0003F934F935F936F937F938F939F93AF9379
:1057E000BF93EF93FF93CF93DF93CDB7DEB7809155
:1057F0008A1090918B10892B31F080918A109091B2
:105800008B10FC0109950000DF91CF91FF91EF9182
:10581000BF91AF919F918F917F916F915F914F91C8
:105820003F912F910F9000925B000F9000925F00CC
:105830000F901F9018951F920F9200905F000F928B
:10584000112400905B000F922F933F934F935F932F
:105850006F937F938F939F93AF93BF93EF93FF9338
:10586000CF93DF93CDB7DEB780918C1090918D10E0
:10587000892B31F080918C1090918D10FC0109954D
:105880000000DF91CF91FF91EF91BF91AF919F9178
:105890008F917F916F915F914F913F912F910F90D9
:1058A00000925B000F9000925F000F901F90189580
:1058B0001F920F9200905F000F92112400905B00E6
:1058C0000F922F933F934F935F936F937F938F9399
:1058D0009F93AF93BF93EF93FF93CF93DF93CDB796
:1058E000DEB780918E1090918F10892B31F08091CE
:1058F0008E1090918F10FC0109950000DF91CF91DF
:10590000FF91EF91BF91AF919F918F917F916F9197
:105910005F914F913F912F910F9000925B000F90FC
:1059200000925F000F901F9018951F920F920090A9
:105930005F000F92112400905B000F922F933F9312
:105940004F935F936F937F938F939F93AF93BF9387
:10595000EF93FF93CF93DF93CDB7DEB78091901095
:1059600090919110892B31F080919010909191102D
:10597000FC0109950000DF91CF91FF91EF91BF915C
:10598000AF919F918F917F916F915F914F913F91D7
:105990002F910F9000925B000F9000925F000F908C
:1059A0001F9018951F920F9200905F000F92112484
:1059B00000905B000F922F933F934F935F936F93F1
:1059C0007F938F939F93AF93BF93EF93FF93CF9367
:1059D000DF93CDB7DEB78091921090919310892B11
:1059E00031F08091921090919310FC010995000084
:1059F000DF91CF91FF91EF91BF91AF919F918F91E7
:105A00007F916F915F914F913F912F910F900092F5
:105A10005B000F9000925F000F901F9018951F92EF
:105A20000F9200905F000F92112400905B000F9284
:105A30002F933F934F935F936F937F938F939F9396
:105A4000AF93BF93EF93FF93CF93DF93CDB7DEB7C1
:105A50008091941090919510892B31F08091941041
:105A600090919510FC0109950000DF91CF91FF9175
:105A7000EF91BF91AF919F918F917F916F915F91C6
:105A80004F913F912F910F9000925B000F900092E9
:105A90005F000F901F9018951F920F9200905F006B
:105AA0000F92112400905B000F922F933F934F931E
:105AB0005F936F937F938F939F93AF93BF93EF9376
:105AC000FF93CF93DF93CDB7DEB78091961090917F
:105AD0009710892B31F08091961090919710FC01CE
