:100000000C947B010C949A010C949A010C949A0123
:100010000C949A010C949A010C949A010C949A01F4
:100020000C949A010C949A010C949A010C949A01E4
:100030000C94C73B0C949A010C949A010C949A016D
:100040000C949A010C942F2B0C946C2B0C94A92BD0
:100050000C94F22A0C949A010C949A010C949A0133
:100060000C949A010C94C33F0C949A010C949A013D
:100070000C949A010C949A010C949A010C949A0194
:100080000C94232C0C94602C0C949D2C0C94E62B3B
:100090000C949A010C949A010C949A010C949A0174
:1000A0000C949A010C949A010C94172D0C94542DD5
:1000B0000C94912D0C94DA2C0C949A010C940B2E28
:1000C0000C94482E0C94852E0C94CE2D0C949A01F1
:1000D0000C949A010C949A010C949A010C949A0134
:1000E0000C949A010C949A010C949A010C949A0124
:1000F0000C949A010C949A010C949A010C949A0114
:100100000C949A010C94D8320C9415330C945233FD
:100110000C949B320C948F330C949A010C949A019A
:10012000E1170818E6170818EB17F017F517FA1774
:100130000318FF176E616E00696E660000407A104A
:10014000F35A00A0724E18090010A5D4E80000E888
:100150007648170000E40B54020000CA9A3B0000E6
:1001600000E1F505000080969800000040420F0075
:100170000000A08601000000102700000000E80336
:10018000000000006400000000000A000000000001
:100190000100000000002C76D888DC674F0823DFC0
:1001A000C1DFAE59E1B1B796E5E3E453C63AE65193
:1001B000997696E8E6C28426EB898C9B62ED407CBA
:1001C0006FFCEFBC9C9F40F2BAA56FA5F490055A56
:1001D0002AF75C936B6CF9676DC11BFCE0E40D477B
:1001E000FEF520E6B500D0ED902E0300943577059E
:1001F0000080841E080000204E0A000000C80C3356
:100200003333330F986E12831141EF8D2114893BE4
:10021000E65516CFFEE6DB18D1844B381BF77C1D64
:10022000901DA4BBE424203284725E228100C9F1B7
:1002300024ECA1E53D27330019000C000600030063
:1002400002000100FF00A001CF0067003300190089
:100250000C00070008004003A001CF006700330036
:10026000190010001000330019000C0006000300F4
:1002700002000100FF00A001CF0067003300190059
:100280000C00070008004003A001CF006700330006
:10029000190010001000330019000C0006000300C4
:1002A00002000100FF00A001CF0067003300190029
:1002B0000C00070008004003A001CF0067003300D6
:1002C000190010001000330019000C000600030094
:1002D00002000100FF00A001CF00670033001900F9
:1002E0000C00070008004003A001CF0067003300A6
:1002F00019001000100011241FBECFEFD1E4DEBFA3
:10030000CDBF13E0A0E0B2E0E8EFFDE900E00BBFF5
:1003100002C007900D92A430B107D9F721E1A4E003
:10032000B3E001C01D92A23FB207E1F70E94F107BE
:100330000C944E4D0C940000CF93DF93CDB7DEB7F5
:1003400080E094E2A4EFB0E0BC01CD01DF91CF9159
:100350000895CF93DF93CDB7DEB70E949C01DC01F7
:10036000CB01BC01CD01DF91CF910895CF93DF93F5
:1003700000D0CDB7DEB79A83898389819A81FC0149
:100380008081282F226089819A81FC0120830000CE
:100390000F900F90DF91CF910895CF93DF93CDB75A
:1003A000DEB72B970FB6F894DEBF0FBECDBF99878F
:1003B00088877B876A878A859B85FC0184818D83FA
:1003C0008A859B85FC0185818E838A859B85FC01BE
:1003D00086818F838A859B85FC0180819181A281A2
:1003E000B38189839A83AB83BC83888599859E0179
:1003F0002F5F3F4FB9010E941F37882311F081E022
:1004000001C080E02B960FB6F894DEBF0FBECDBFC3
:10041000DF91CF910895CF93DF9300D01F92CDB796
:10042000DEB79A8389836B8389819A816B810E946D
:100430002D390F900F900F90DF91CF910895CF93AA
:10044000DF9300D000D0CDB7DEB79A8389837C8359
:100450006B8389819A810E944C39282F8B819C81E2
:10046000FC01208300000F900F900F900F90DF9100
:10047000CF910895CF93DF9300D000D0CDB7DEB7F2
:100480009A8389837C836B8389819A819093E61117
:100490008093E5118BE092E09093E4118093E31157
:1004A0008FE192E09093E2118093E1112B813C81E6
:1004B00089819A81B9010E94CD016FEF7DE38EE1C0
:1004C0009EE30E94E64A00000F900F900F900F905D
:1004D000DF91CF910895CF93DF93CDB7DEB72C97FF
:1004E0000FB6F894DEBF0FBECDBF9E838D83788795
:1004F0006F835A8749873C872B878B859C85FC01B6
:100500008081898389859A85FC0180818A838F8196
:100510009885FC0180818B838D819E81FC01808187
:100520008C8389819A81AB81BC81BC01CD012C96E1
:100530000FB6F894DEBF0FBECDBFDF91CF91089507
:10054000CF93DF93CDB7DEB721EE30E042EE50E03F
:1005500063EE70E084EE90E00E946B02DC01CB0160
:10056000BC01CD01DF91CF910895CF93DF93CDB73B
:10057000DEB78CED90E02CED30E0F90120812064B5
:10058000FC0120838CED90E02CED30E0F90120811E
:10059000277FFC0120830000DF91CF910895CF9346
:1005A000DF93CDB7DEB780911E0390911F03892B97
:1005B000E1F085E193E00E94460980911E0390914D
:1005C0001F03292F2F938F9383E692E0892F8F9318
:1005D00083E692E08F930E946D4B0F900F900F90E7
:1005E0000F9080E090E00E94B6350000DF91CF913F
:1005F0000895CF93DF93CDB7DEB70E94CF0281E09D
:100600000E9491340000DF91CF910895CF93DF9342
:10061000CDB7DEB781E0809335030E94A002DC01F4
:10062000CB0180933A0390933B03A0933C03B09398
:100630003D030000DF91CF910895CF93DF93CDB7B5
:10064000DEB78BE692E0892F8F938BE692E08F9353
:100650000E946D4B0F900F9085E192E00E94460939
:1006600080E090E00E94A3350000DF91CF910895D3
:10067000CF93DF93CDB7DEB780912A03882331F083
:1006800089E292E00E94460910922A0380E090E0FD
:100690000E94A3350000DF91CF910895CF93DF939F
:1006A000CDB7DEB781E792E0892F8F9381E792E0A3
:1006B0008F930E946D4B0F900F908DE392E00E94FC
:1006C000460980E090E00E94A3350000DF91CF91C1
:1006D0000895EF92FF920F931F93CF93DF9300D073
:1006E00000D0CDB7DEB79C838B838B819C81FC01CE
:1006F000808591859A83898389819A8128E0FC018C
:10070000ABE9B1E101900D922A95E1F789819A81D7
:10071000FC0184818093290389819A81FC0186816F
:10072000882F90E00396880F991F092E000CAA0BC2
:10073000BB0BBC01CD010E944748DC01CB0120E08E
:1007400030E040E451E4BC01CD010E943147DC01BE
:10075000CB0120E030E040E252E4BC01CD010E9438
:100760003147DC01CB0120E034E244E757E4BC012F
:10077000CD010E949D47DC01CB012DEB37E346E81C
:1007800057E3BC01CD010E949D47DC01CB01809362
:10079000A3119093A411A093A511B093A6118091D9
:1007A000A3119091A411A091A511B091A6112B2F86
:1007B0002F932A2F2F93292F2F938F938BE792E03C
:1007C000892F8F938BE792E08F930E946D4B0F9050
:1007D0000F900F900F900F900F9080919E11877047
:1007E000282F30E080915102882F90E02817390798
:1007F00009F0AEC08091A011882309F0A9C08091B2
:100800005102843029F48DE193E00E94A33511C098
:1008100080915102863029F488E393E00E94A33549
:1008200008C080915102882321F48EE493E00E9455
:10083000A33580915102882309F049C080919E110F
:10084000829586958770882F90E09C01220F331F38
:1008500080910B02882F90E0820F931F092E000CCD
:10086000AA0BBB0BBC01CD010E9447487B018C0148
:100870008091A3119091A411A091A511B091A611FE
:100880009C01AD01C801B7010E94D348DC01CB0136
:10089000BC01CD010E940F48DC01CB019093AC114B
:1008A0008093AB118091AB119091AC11292F2F93B4
:1008B0008F9382E892E0892F8F9382E892E08F9362
:1008C0000E946D4B0F900F900F900F902BC0809156
:1008D0009E11829586958770882F90E0092E000CD6
:1008E000AA0BBB0BBC01CD010E9447487B018C01C8
:1008F0008091A3119091A411A091A511B091A6117E
:100900009C01AD01C801B7010E94D348DC01CB01B5
:10091000BC01CD010E940F48DC01CB019093AC11CA
:100920008093AB1181E00E941C348091AB119091B7
:10093000AC1186599109092E000CAA0BBB0B21E0C2
:10094000AC01BD0181E00E94D0340E94B5020DC00F
:1009500080919E118770873041F480E00E94681D6D
:1009600010922A0384E08093510281E00F900F904F
:100970000F900F90DF91CF911F910F91FF90EF900B
:100980000895CF93DF9300D000D000D0CDB7DEB76D
:100990009E838D838D819E8199230CF40796959576
:1009A000879595958795959587959A8389838D8168
:1009B0009E8187709078992324F40197886F9F6FA8
:1009C00001969C0188E090E0821B930B9C838B83B3
:1009D0002091AF113091B01189819A81820F931FBC
:1009E0000196FC018081882F90E0292F2F938F930F
:1009F0008EE892E0892F8F938EE892E08F930E9489
:100A00006D4B0F900F900F900F902091AF11309180
:100A1000B01189819A81820F931F0196FC01808118
:100A2000882F90E00B8002C0959587950A94E2F795
:100A300081709927892B11F081E001C080E0269612
:100A40000FB6F894DEBF0FBECDBFDF91CF910895F2
:100A5000EF92FF920F931F93CF93DF9300D000D0BC
:100A600000D0CDB7DEB79E838D838D819E81FC0142
:100A7000808591859093B0118093AF118091AF11D3
:100A80009091B011FC01908180912903981709F091
:100A9000C1C080915102882309F0ABC080910B0244
:100AA000882F90E001960E94C10480932A039091C0
:100AB0002A0381E08927882309F4ACC01A821982AD
:100AC0001C821B8214C08B819C8101960E94C104F0
:100AD000982F81E08927882329F089819A810196BE
:100AE0009A8389838B819C8101969C838B838091DF
:100AF0000B02282F30E08B819C818217930784F4AE
:100B00008091A211882F90E0039799230CF401960D
:100B1000959587959C018B819C81821793079CF208
:100B200089819A81892B29F48DE392E00E944609FC
:100B30003BC00E94B5028EE493E00E94A33581E0A1
:100B40000E941C3489819A81092E000CAA0BBB0BD0
:100B5000BC01CD010E9447487B018C018091A3110B
:100B60009091A411A091A511B091A6119C01AD0185
:100B7000C801B7010E94D348DC01CB0120E030E07E
:100B800040E252E4BC01CD010E943047DC01CB01C0
:100B9000BC01CD010E941648DC01CB0121E0AC0173
:100BA000BD0181E00E94D0348091A3119091A411E5
:100BB000A091A511B091A6112B2F2F932A2F2F931F
:100BC000292F2F938F938A818F9389818F938EE919
:100BD00092E0892F8F938EE992E08F930E946D4B64
:100BE0008DB79EB708960FB6F894DEBF0FBECDBF87
:100BF00011C081E090E00E94C10480932A0380919B
:100C00005102843039F480912A03882319F086E058
:100C10008093510281E026960FB6F894DEBF0FBE96
:100C2000CDBFDF91CF911F910F91FF90EF9008956D
:100C3000CF93DF9300D000D0CDB7DEB79C838B83FA
:100C40008B819C81FC0180859185FC0180818F30A6
:100C500009F054C08B819C81FC01808591859A8329
:100C6000898389819A81FC018481813009F046C0A1
:100C700089819A81FC0182810E94291E89819A8141
:100C8000FC018181882F90E00E94780889819A81F7
:100C9000FC0181818093290389819A81FC018381F0
:100CA00080930B0289819A81FC0185818F778093E3
:100CB0000F0381E080932C031092510281E00E9487
:100CC000681D80910F03282F30E080910B02882F40
:100CD00090E0432F4F932F93292F2F938F938AEBDD
:100CE00092E0892F8F938AEB92E08F930E946D4B55
:100CF0000F900F900F900F900F900F9081E00F903A
:100D00000F900F900F90DF91CF910895CF93DF93C5
:100D1000CDB7DEB710921B0310921A0383E08093C5
:100D20001C0383E080931D0380E090E890931F03F1
:100D300080931E038DE092E090932303809322031F
:100D400083E0809324030000DF91CF910895CF9337
:100D5000DF93CDB7DEB710921B0310921A0383E026
:100D600080931C0383E080931D0380E090E89093C0
:100D70001F0380931E0380E192E0909323038093EE
:100D8000220385E0809324030000DF91CF91089532
:100D9000CF93DF93CDB7DEB781E00E94681D10923C
:100DA0001B0310921A0383E080931C0383E080935B
:100DB0001D0380E090E290931F0380931E038CE05C
:100DC00092E0909323038093220381E08093240395
:100DD0000000DF91CF910895CF93DF93CDB7DEB7B9
:100DE00081E090E00E9461088FE00E94291E81E06E
:100DF0000E94191E0E94860680E00E94681D0E94C3
:100E0000F71D8FE780930A0269E673E080E00E9495
:100E10008F0868E275E084E00E948F0868E176E060
:100E200083E00E948F0881E00E94A31D0000DF91F3
:100E3000CF910895CF93DF9300D000D0CDB7DEB728
:100E400080911403882F90E084309105E9F085307B
:100E500091052CF4009761F0029781F0BAC08630BA
:100E60009105B1F186309105ACF00797B9F1B1C0A9
:100E70000E94EC0681E080931403ABC00E94CF0275
:100E800081E080931403A5C00E94860681E08093D0
:100E900014039FC080912A03882389F08091A011B8
:100EA000882369F490912C0381E08927882339F005
:100EB00080915102882319F00E94A70603C081E0A7
:100EC0000E94913410922A0381E08093140381C020
:100ED0000E94C80681E0809314037BC090912A038E
:100EE00081E08927882309F470C081E0809314038E
:100EF0001A8219821C821B8213C08B819C810E94E2
:100F0000C104982F81E08927882329F089819A815B
:100F100001969A8389838B819C8101969C838B8324
:100F200080910B02882F90E09C01215031098B8128
:100F30009C818217930784F48091A211882F90E0FE
:100F4000039799230CF40196959587959C018B81C5
:100F50009C81821793078CF28A818F9389818F936A
:100F60008CED92E0892F8F938CED92E08F930E940D
:100F70006D4B0F900F900F900F9089819A81892B64
:100F800019F40E94CF0224C00E94B50289EF92E0BA
:100F90000E94A33581E00E941C344091AD11509114
:100FA000AE1129813A81429FC001439F900D529F0B
:100FB000900D1124092E000CAA0BBB0B21E0AC01F3
:100FC000BD0181E00E94D03403C081E0809314030E
:100FD000000000000F900F900F900F90DF91CF91C5
:100FE00008950F931F93CF93DF93CDB7DEB7279765
:100FF0000FB6F894DEBF0FBECDBF0E94E63C0E9444
:101000001B400E9409210E944932789427E0E3EFB7
:10101000F2E0CE010196DC0101900D922A95E1F7F4
:10102000CE010196BC0180EC90E00E943A0280EC77
:1010300090E00E94B6010E94A901DC01CB018C0165
:101040009D0140E052EC61E070E080EC90E00E9495
:10105000C8390E9419210E941A07FBCFCF93DF9352
:101060001F92CDB7DEB71092B5111092B611109243
:10107000B2111092B1111092D8111092D711198299
:101080000EC08981882F90E00396880F991F8F5496
:101090009E4EFC011182108289818F5F8983898134
:1010A000803178F30E9419180E94FD0F0E949B0D59
:1010B0000E943A090E94370F00000F90DF91CF91F4
:1010C0000895CF93DF9300D0CDB7DEB79A8389839D
:1010D00089819A819093B2118093B11189819A810B
:1010E0000E94631E00000F900F90DF91CF91089532
:1010F000CF93DF9300D0CDB7DEB79A838983898100
:101100009A819093B4118093B31189819A810E943E
:101110003F1E00000F900F90DF91CF910895CF9365
:10112000DF9300D01F92CDB7DEB789837B836A83BC
:101130008981882F90E00396880F991F8F549E4EC7
:101140002A813B81FC013183208300000F900F90A6
:101150000F90DF91CF910895CF93DF93CDB7DEB796
:101160008091D7119091D81121E0892B09F420E0CA
:10117000822FDF91CF910895CF93DF93CDB7DEB764
:101180008091D7119091D81101969093D8118093A6
:10119000D7110000DF91CF910895CF93DF93CDB7A2
:1011A000DEB78091D7119091D81101979093D81103
:1011B0008093D7110000DF91CF910895CF93DF93F3
:1011C000CDB7DEB70E94AC1E0000DF91CF9108952D
:1011D000CF93DF93CDB7DEB70E94C51E0000DF912D
:1011E000CF910895CF93DF93CDB7DEB72C970FB68D
:1011F000F894DEBF0FBECDBF8C8789E0EAEFF2E046
:10120000DE01139601900D928A95E1F789E18983B9
:101210001A8215C09C858981981758F48A81882F75
:1012200090E09E012D5F3F4F820F931FFC01808154
:101230000AC08981875E89838A818F5F8A838A81D8
:10124000893040F38FEF2C960FB6F894DEBF0FBEB7
:10125000CDBFDF91CF910895CF93DF93CDB7DEB7A8
:101260000E94C1170E94D81B0E94650D0000DF91EB
:10127000CF910895CF93DF93CDB7DEB710923F03A0
:1012800010923E030000DF91CF910895CF93DF933A
:1012900000D0CDB7DEB79A83898389819A81FC011A
:1012A000148289819A81FC01128A89819A81FC01C8
:1012B000138212828091D7119091D8110196909348
:1012C000D8118093D71180913E0390913F03892BD1
:1012D00061F489819A81FC011182108289819A814D
:1012E00090933F0380933E030FC020913E033091C3
:1012F0003F0389819A81FC013183208389819A810E
:1013000090933F0380933E0300000F900F90DF9176
:10131000CF910895CF93DF93CDB7DEB728970FB65F
:10132000F894DEBF0FBECDBF98878F838F819885DD
:10133000FC01818592858034910598F40E94BA0D54
:101340009A83898389819A81892B61F58F81988518
:1013500022E0FC0124838F81988522E0FC01228B0E
:10136000FEC28F819885FC018185928580749927C2
:10137000892B21F081E00E942C0E03C080E00E94A6
:101380002C0E9A83898389819A81892B59F48F81C4
:10139000988522E0FC0124838F81988522E0FC015E
:1013A000228BDDC28F819885FC01818592858074B6
:1013B0009927892B09F4C9C089819A810E949818BC
:1013C00089819A818A579F4FFC0110828F8198856D
:1013D000FC018185928580789927892B89F18091FC
:1013E000991190919A111816190614F58F81988504
:1013F000FC018785482F50E08F819885FC01258569
:10140000368589819A818F579F4FFC018081918118
:10141000B9010E94CB4A89819A81FC0121818F8187
:101420009885FC018785280F89819A81FC01218399
:1014300089819A81FC012581287FFC01258334C0A4
:101440008F819885FC018185928588279170892BF1
:1014500049F089819A81FC012581287F2460FC0163
:10146000258322C08F819885FC01818592858827FC
:101470009270892B49F089819A81FC012581287F0E
:101480002660FC01258310C08F819885FC01818531
:10149000928588279470892B39F089819A81FC0183
:1014A00025812760FC01258389819A81FC012581A2
:1014B000277FFC01258389819A81FC0125812F7E6C
:1014C000FC01258389819A81FC0125812F7120648B
:1014D000FC0125838F819885FC0181859285882771
:1014E0009870892B31F089819A8121E0FC01278352
:1014F00013C08F819885FC01818592858827907122
:10150000892B31F089819A8122E0FC01278304C074
:1015100089819A81FC01178220910F0389819A8128
:10152000FC0120878091A9119091AA11282F89810F
:101530009A81FC0121878EEF9AEC9C838B838981B1
:101540009A812EEFFC012683F5C18F819885FC01DD
:1015500081859285992394F08F819885FC018185FE
:10156000928588279072892B49F48F819885FC0198
:101570008185928588279074892B99F18F81988530
:10158000FC012185328589819A81B9010E94EB187D
:1015900089819A818A579F4FFC0110828F8198859B
:1015A000FC018785482F50E08F819885FC012585B7
:1015B000368589819A818F579F4FFC018081918167
:1015C000B9010E94CB4A89819A81FC0121818F81D6
:1015D0009885FC018785280F89819A81FC012183E8
:1015E000A9C18F819885FC01818592858072992798
:1015F000892B09F462C089819A818A579F4FFC0127
:10160000108289819A81FC012185207F2860FC015C
:10161000218789819A81FC0121852F702066FC0138
:10162000218789819A81FC012285207F2160FC012C
:10163000228789819A81FC0122852061FC01228711
:1016400089819A81FC0122852064FC01228789819D
:101650009A81FC0122852F77FC01228789819A815A
:10166000FC01138689819A81FC0114868F819885FB
:10167000FC018785482F50E08F819885FC012585E6
:10168000368589819A818F579F4FFC018081918196
:10169000B9010E94CB4A89819A81FC0121818F8105
:1016A0009885FC018785280F89819A81FC01218317
:1016B00089819A810E944D183DC18F819885FC01D6
:1016C00081859285892B09F435C18F819885FC012C
:1016D000818592858470992721E0892B09F420E087
:1016E00089819A818A579F4FFC0120838F81988539
:1016F000FC01818592858170992721E0892B09F46D
:1017000020E089819A812170FC0133853E7F232B63
:10171000FC0123878F819885FC01818592858870E3
:10172000992721E0892B09F420E089819A81217091
:10173000220F220FFC0133853B7F232BFC012387E3
:101740008F819885FC01818592858072992721E09F
:10175000892B09F420E089819A8121702295207FCC
:10176000FC0133853F7E232BFC0123878F819885E5
:10177000FC01818592858071992721E0892B09F4EC
:1017800020E089819A812170220F220F220FFC0113
:101790003385377F232BFC01238789819A81FC01C4
:1017A00083858870882309F462C089819A818F5764
:1017B0009F4FFC01808191819E838D838F819885CD
:1017C000FC018385282F2F708D819E812F70FC0155
:1017D0003181307F232BFC0121838F819885FC018F
:1017E0008385282F2F708D819E812295207FFC017B
:1017F00031813F70232BFC0121838F819885FC016F
:101800008485282F2F708D819E812F70FC0130815F
:10181000307F232BFC0120838F819885FC018485F8
:10182000282F2F708D819E812295207FFC01308191
:101830003F70232BFC01208389819A818F579F4F12
:10184000FC01808191819C012E5F3F4F89819A81AB
:101850008F579F4FFC013183208389819A81FC013E
:10186000818122E0280F89819A81FC012183809166
:10187000B5118F5F8093B5112091B51189819A813F
:10188000FC0124872091B1113091B21189819A8194
:10189000FC01368725878F819885FC01258136815B
:1018A00089819A81FC01308B27878F819885FC0183
:1018B0008085282F2F7089819A812F70FC013189B2
:1018C000307F232BFC01218B8F819885FC01878140
:1018D000282F2F7089819A812295207FFC013189E0
:1018E0003F70232BFC01218B8F819885FC0187851C
:1018F000482F50E08F819885FC01258536858981A8
:101900009A818F579F4FFC0180819181B9010E947C
:10191000CB4A89819A81FC0121818F819885FC01C4
:101920008785280F89819A81FC01218389819A8189
:101930000E945F198F81988529813A81FC01338348
:1019400022838F81988521E0FC01248389819A81FB
:1019500089579F4F28EB3CE0FC0131832083289678
:101960000FB6F894DEBF0FBECDBFDF91CF910895C3
:10197000CF93DF9300D000D0CDB7DEB79C838B83AD
:1019800080913E0390913F039A8389832BC0898184
:101990009A81FC01228133818B819C812817390730
:1019A000D1F48B819C818D579F4FFC0120818981CF
:1019B0009A81FC01228B8B819C818A579F4FFC016D
:1019C000208189819A81FC01238B89819A8122E07F
:1019D000FC0124830BC089819A81FC018081918163
:1019E0009A83898389819A81892B89F68B819C814D
:1019F0000E94C40E00000F900F900F900F90DF9187
:101A0000CF910895CF93DF9300D000D0CDB7DEB74C
:101A10009C838B8320913E0330913F038B819C817B
:101A20002817390761F480913E0390913F03FC0130
:101A30008081918190933F0380933E0325C08091E4
:101A40003E0390913F039A83898307C089819A81DD
:101A5000FC01808191819A83898389819A81FC012B
:101A6000208131818B819C812817390779F7898101
:101A70009A81FC0180819181FC01208131818981E1
:101A80009A81FC01318320838091D7119091D811E4
:101A900001979093D8118093D7118B819C81FC0181
:101AA00080899189892B49F08B819C81FC01208957
:101AB00031898B819C81F901099500000F900F906D
:101AC0000F900F90DF91CF910895CF93DF9300D0C7
:101AD000CDB7DEB780913E0390913F039A8389830F
:101AE00021C089819A81FC018481882F90E0813016
:101AF000910581F08230910541F0892B09F00BC0EE
:101B000089819A810E948A0911C089819A810E94E3
:101B1000020D0CC0000089819A81FC0180819181B5
:101B20009A83898389819A81892BD9F60F900F90A6
:101B3000DF91CF910895CF93DF931F92CDB7DEB79A
:101B4000198210C08981282F30E049E8429FC001E6
:101B5000439F900D1124805C9C4FFC011082898171
:101B60008F5F89838981843168F300000F90DF9152
:101B7000CF910895CF93DF931F92CDB7DEB719822F
:101B800061C08981282F30E049E8429FC001439F0E
:101B9000900D1124805C9C4FFC018081882309F00A
:101BA0004EC08981282F30E049E8429FC001439F01
:101BB000900D1124805C9C4F49E850E060E070E09B
:101BC0000E94D44A8981282F30E049E8429FC00111
:101BD000439F900D11248F5B9C4FFC0110828981E3
:101BE000482F50E08981282F30E069E8629FC001CA
:101BF000639F900D112402969C01205C3C4F69E884
:101C0000649FC001659F900D11248F539C4FFC0170
:101C1000318320838091D7119091D81101969093B0
:101C2000D8118093D7118981282F30E049E8429F4D
:101C3000C001439F900D1124805C9C4F09C0898195
:101C40008F5F89838981843108F49BCF80E090E0A5
:101C50000F90DF91CF910895CF93DF9300D0CDB750
:101C6000DEB78A83198285C08981282F30E049E850
:101C7000429FC001439F900D1124805C9C4FFC014A
:101C80008081882309F072C08981282F30E049E8DB
:101C9000429FC001439F900D1124805C9C4F49E8F6
:101CA00050E060E070E00E94D44A8A81882379F095
:101CB0008981282F30E049E8429FC001439F900D61
:101CC00011248F5B9C4F28E0FC0120830EC089818A
:101CD000282F30E049E8429FC001439F900D112416
:101CE0008F5B9C4F23E0FC0120838981482F50E0CB
:101CF0008981282F30E069E8629FC001639F900DC1
:101D0000112402969C01205C3C4F8981682F70E071
:101D1000E9E8E69FC001E79F900D11248F5B9C4F7F
:101D2000FC018081882F90E0280F391F69E8649FAB
:101D3000C001659F900D11248F539C4FFC0131838E
:101D400020838091D7119091D81101969093D8114A
:101D50008093D7118981282F30E049E8429FC00144
:101D6000439F900D1124805C9C4F09C089818F5F37
:101D700089838981843108F477CF80E090E00F90E7
:101D80000F90DF91CF910895CF93DF9300D0CDB71F
:101D9000DEB79A83898389819A81FC0110828091C0
:101DA000D7119091D81101979093D8118093D711A2
:101DB00000000F900F90DF91CF910895CF93DF93A4
:101DC00000D0CDB7DEB79A83898389819A81892B28
:101DD00029F480E493E09A83898316C089819A81EB
:101DE00087579F4F9A8389830FC089819A81FC010D
:101DF0008081882319F089819A810DC089819A8117
:101E000087579F4F9A83898389819A81845F9D40F8
:101E100060F380E090E00F900F90DF91CF910895F4
:101E2000CF93DF9300D0CDB7DEB79A8389838981C2
:101E30009A818D579F4FFC0110828091B5118F5F61
:101E40008093B5112091B51189819A81FC01248775
:101E50002091B1113091B21189819A81FC013687AC
:101E6000258700000F900F90DF91CF910895CF93B9
:101E7000DF931F92CDB7DEB719820FC08981882FFB
:101E800090E0880F991F8C50924F2FEF3FEFFC018D
:101E90003183208389818F5F89838981833070F3C7
:101EA00000000F90DF91CF910895CF93DF9300D082
:101EB000CDB7DEB79A83898389819A81BC018FEF80
:101EC0009FEF0E94A20F0F900F90DF91CF91089586
:101ED000CF93DF9300D0CDB7DEB79A838983898112
:101EE0009A816FEF7FEF0E94A20F0F900F90DF910A
:101EF000CF910895CF93DF9300D01F92CDB7DEB777
:101F00009B838A83198214C08981882F90E0880F6F
:101F1000991F8C50924FFC01208131818A819B81D5
:101F20002817390711F481E007C089818F5F898301
:101F30008981833048F380E00F900F900F90DF91FC
:101F4000CF910895CF93DF9300D000D01F92CDB7EB
:101F5000DEB79B838A837D836C83198220C089814D
:101F6000882F90E0880F991F8C50924FFC012081A0
:101F700031818A819B812817390771F48981882FE3
:101F800090E0880F991F8C50924F2C813D81FC016D
:101F90003183208381E007C089818F5F89838981B4
:101FA0008330E8F280E00F900F900F900F900F9029
:101FB000DF91CF910895CF93DF9300D0CDB7DEB7F7
:101FC0009A83898389819A81FC01418189819A81DF
:101FD0008F579F4FFC01808191819C0189819A815B
:101FE0000296B901681B790BCB01742F781B872FE0
:101FF0000F900F90DF91CF910895CF93DF931F92B1
:10200000CDB7DEB7198211C08981282F30E0C90110
:10201000880F991F880F991F820F931F8250924F2C
:10202000FC01108289818F5F89838981823360F30B
:1020300084E690E0A0E0B0E08093FB0E9093FC0E6D
:10204000A093FD0EB093FE0E1092FF0E8CEF91E167
:102050009093010F8093000F6DE173E180E00E9487
:102060008F0800000F90DF91CF910895CF93DF93F9
:1020700000D000D0CDB7DEB79C838B838B819C8151
:10208000FC0180819181FC0180818C3041F48B8145
:102090009C81FC018281883008F064C011C18B8171
:1020A0009C81FC0180819181FC0180818C3C91F0BC
:1020B0008B819C81FC0180819181FC0180818C3825
:1020C00049F08B819C81FC0180819181FC018081A0
:1020D0008C3441F48B819C81FC018281833008F037
:1020E00041C0EEC08B819C81FC0180819181019671
:1020F000FC0180818838D1F48B819C81FC01808136
:102100009181FC018081813651F08B819C81FC01A1
:1021100080819181FC018081813409F0C6C08B816E
:102120009C81FC0182818031E8F4BFC08B819C815D
:10213000FC01808191810196FC018081803809F049
:10214000B6C08B819C81FC0180819181FC018081E2
:10215000882309F0AEC08B819C81FC0182818B3089
:1021600008F4A7C08B819C81FC018081918101963C
:10217000FC018081883851F08B819C81FC01808139
:1021800091810196FC0180818038D9F40E94BA0DBA
:102190009A83898389819A81892B09F48CC08B81E8
:1021A0009C81FC01808191810196FC0180818838AD
:1021B00011F420E201C025E289819A81FC0120838B
:1021C00046C08B819C81FC0180819181FC018081D2
:1021D0008C3081F481E00E942C0E9A83898389815E
:1021E0009A81892B09F469C089819A8126E2FC01D0
:1021F00020832DC080E00E942C0E9A8389838981E0
:102200009A81892B09F45BC08B819C81FC018081C0
:102210009181FC0180818C3831F489819A8128E296
:10222000FC01208314C08B819C81FC018081918101
:10223000FC0180818C3C31F489819A8127E2FC0188
:10224000208305C089819A8129E2FC0120838B814A
:102250009C81FC01228189819A81FC0121838B81EF
:102260009C81FC01238189819A818D579F4FFC01BC
:1022700020838B819C81FC01248189819A818C57E8
:102280009F4FFC0120838B819C81FC018281482F20
:1022900050E08B819C81FC012081318189819A8170
:1022A0000296B9010E94CB4A0BC0000009C0000091
:1022B00007C0000005C0000003C0000001C000000E
:1022C0000F900F900F900F90DF91CF910895CF93C3
:1022D000DF9300D000D000D0CDB7DEB79E838D83D2
:1022E0000E94BA0D9A83898389819A81892B09F486
:1022F0006BC08D819E81FC01818120E1280F8D8141
:102300009E81FC0121838D819E818F579F4FFC010F
:10231000808191819C01205F3F4F8D819E818F57ED
:102320009F4FFC013183208389819A810E94100F85
:1023300089819A81FC01818123E0280F89819A811A
:10234000FC01218389819A8189579F4FFC01118269
:1023500010828D819E81FC01838581FB222720F9DB
:1023600089819A812170220FFC0133853D7F232BC7
:10237000FC0123878D819E81FC012585368589811D
:102380009A81FC01308B278789819A818F579F4FD3
:10239000FC01808191819C838B838B819C81FC01DA
:1023A00010822091F40E8B819C81FC0122838D810F
:1023B0009E81FC0124858B819C81FC012183898184
:1023C0009A810E945F1901C0000026960FB6F8940A
:1023D000DEBF0FBECDBFDF91CF910895CF93DF93C6
:1023E0001F92CDB7DEB7898389818093F40E0000F8
:1023F0000F90DF91CF910895CF93DF9300D000D05D
:10240000CDB7DEB79C838B8319821A8230C08A8154
:10241000282F30E0C901880F991F880F991F820F5C
:10242000931F8250924FFC0180818823E9F08A81BA
:10243000282F30E0C901880F991F880F991F820F3C
:10244000931F8250924FFC0180814FEF480FC901CA
:10245000880F991F880F991F820F931F8250924FE8
:10246000FC01408381E089838A818F5F8A838A812E
:10247000823368F28981882321F08B819C810E94BC
:102480005F2100000F900F900F900F90DF91CF9180
:102490000895CF93DF93CDB7DEB729970FB6F894A1
:1024A000DEBF0FBECDBF998788871A8219821B8233
:1024B00090C08B81282F30E0C901880F991F880FA9
:1024C000991F820F931F8650924F9D838C838C811E
:1024D0009D81FC018481882309F46EC088859985DB
:1024E000FC01238534858C819D81FC018081918153
:1024F0002817390709F060C08C819D81FC01228179
:1025000088859985FC018285F22FF81B8F2F8E8399
:102510008E81883058F58C819D81FC018381882FC4
:1025200090E02E81222F30E002C0959587952A9564
:10253000E2F781709927892B11F081E075C08C81B9
:102540009D81FC018381482F8E81282F30E081E01E
:1025500090E002C0880F991F2A95E2F7842B282F5C
:102560008C819D81FC01238380E05EC08E818195FA
:102570008F8388859985FC0122858C819D81FC0152
:1025800022838C819D81FC018381882F90E02F81A3
:10259000222F30E002C0880F991F2A95E2F7816050
:1025A000282F8C819D81FC0123838C819D8125E1D5
:1025B000FC01248380E038C08C819D81FC018481F2
:1025C000882321F48C819D819A8389838B818F5FFD
:1025D0008B838B81823308F46CCF89819A81892B1C
:1025E00011F481E021C088859985FC01238534851B
:1025F00089819A81FC013183208388859985FC013A
:10260000228589819A81FC01228389819A8121E036
:10261000FC01238389819A8125E1FC01248385EFD4
:102620009EE00E945F2180E029960FB6F894DEBFFD
:102630000FBECDBFDF91CF910895CF93DF9300D030
:10264000CDB7DEB79A83898389819A81FC0182851F
:10265000882311F480E011C089819A81FC01808572
:102660009185FC018081882F90E0892B29F4898154
:102670009A810E94851A01C080E00F900F90DF912F
:10268000CF910895CF93DF93CDB7DEB728970FB6DC
:10269000F894DEBF0FBECDBF98878F838F8198855A
:1026A00002969B838A838F81988524E2FC01208394
:1026B0008A819B81FC0181858270882309F03BC15E
:1026C0008A819B81FC0181858870882341F08A8101
:1026D0009B81FC0181858170882309F02EC18A814C
:1026E0009B81FC01838194810196D1F42091B111E9
:1026F0003091B2118A819B81FC01858596852817CE
:10270000390741F08A819B81FC0185859685019678
:1027100009F015C18F81988522E2FC0120830FC149
:102720008A819B81FC0185859685019641F48A8189
:102730009B81FC0181858170882309F002C1209171
:10274000B1113091B2118A819B81FC0183859485FE
:102750002817390709F4F7C08A819B810E94491222
:10276000882309F0F2C08A819B81FC0181858870F1
:10277000882309F4A9C08F8198858F579F4FFC014A
:10278000808191819D838C838A819B81FC018585D9
:1027900096850E947A0F8E8319828A819B81FC0123
:1027A00085819681019609F061C08E81882379F137
:1027B0008C819D81FC0181818F70882F90E021E0C8
:1027C000181619060CF020E029838C819D81FC01EC
:1027D00081818F702FE0280F2F708C819D812F7049
:1027E000FC013181307F232BFC0121838C819D8171
:1027F000FC018081282F22952F708C819D812F7064
:10280000FC013081307F232BFC0120833BC08C8175
:102810009D81FC0180818F70882F90E021E0181647
:1028200019060CF020E029838C819D81FC018081B8
:102830008F702FE0280F2F708C819D812F70FC01ED
:102840003081307F232BFC0120838C819D81FC0112
:102850008181282F22952F708C819D812F70FC0102
:102860003181307F232BFC0121830CC08E81882392
:1028700049F081E089838A819B81FC012185246064
:10288000FC0121878981882321F08F8198850E940E
:10289000F6198E81882309F459C08F8198858F5746
:1028A0009F4FFC01808191819C012E5F3F4F8F8162
:1028B00098858F579F4FFC01318320838F819885A6
:1028C00022E2FC01208342C08A819B81FC01858138
:1028D00096810196B9F42091B1113091B2118A819B
:1028E0009B81FC01858596852817390759F08A81D7
:1028F0009B81FC0181858470882321F48F819885D8
:102900000E94F6192091B1113091B2118A819B81F8
:10291000FC01858596852817390739F08A819B81C6
:10292000FC0185859685019689F48F81988522E240
:10293000FC0120830BC0000009C0000007C000009C
:1029400005C0000003C0000001C0000028960FB6BB
:10295000F894DEBF0FBECDBFDF91CF910895CF9326
:10296000DF93CDB7DEB761970FB6F894DEBF0FBE29
:10297000CDBF998B888B8889998902969A838983A0
:1029800089819A81FC01878582958F70882F90E0DC
:102990000396880F991F8F549E4EFC018081918170
:1029A000892B11F480E0D9C089819A81FC0183854B
:1029B00094859C838B8389819A81FC01858596858A
:1029C0009E838D8389819A81FC0187858F708F8397
:1029D00089819A81FC01878582958F708887888993
:1029E00099898F579F4FFC01808191819C878B87AC
:1029F000888999890E94DB0F8D87888999898D57ED
:102A00009F4FFC0180818E87888999898C579F4FC1
:102A1000FC0180818F8789819A81FC018185982FB3
:102A2000917081E0992309F480E0882F90E09A87E3
:102A3000898729853A8589819A81FC018185882F3A
:102A400090E082709927822B932B9A87898729851A
:102A50003A8589819A81FC0181858470882319F0E7
:102A600080E290E002C080E090E0822B932B9A8776
:102A7000898729853A8589819A81FC0181858870B9
:102A8000882319F080E490E002C080E090E0822B7F
:102A9000932B9A87898729853A8589819A81FC01B8
:102AA00081858071882319F080E890E002C080E081
:102AB00090E0822B932B9A87898729853A85898193
:102AC0009A81FC0185859685019619F484E090E051
:102AD00002C080E090E0822B932B9A87898729851A
:102AE0003A8589819A81FC014385548589819A813F
:102AF000FC01878190854817590719F488E090E018
:102B000002C080E090E0822B932B9A8789872985E9
:102B10003A8589819A81FC0183819481019619F417
:102B200080E190E002C080E090E0822B932B9A87B6
:102B3000898789819A81FC01878582958F70882F8A
:102B400090E00396880F991F8F549E4EFC012081C0
:102B50003181CE010396F901099561960FB6F8947B
:102B6000DEBF0FBECDBFDF91CF910895CF93DF932E
:102B7000CDB7DEB761970FB6F894DEBF0FBECDBFFD
:102B8000998B888B8889998902969A838983888909
:102B9000998924E2FC0120838091B7119091B811AA
:102BA000892B11F480E044C088899989FC018781D0
:102BB00090859C838B8388899989FC018781908586
:102BC0009E838D831F821886888999898F579F4F8E
:102BD000FC01808191819C878B87888999890E94DB
:102BE000DB0F8D87888999898D579F4FFC018081E4
:102BF0008E87888999898C579F4FFC0180818F87A8
:102C000080E890E09A87898789819A81FC0187858D
:102C100082958F70882F90E00396880F991F8F54AC
:102C20009E4EFC0120813181CE010396F901099568
:102C300061960FB6F894DEBF0FBECDBFDF91CF9186
:102C40000895CF93DF93CDB7DEB72F970FB6F894E3
:102C5000DEBF0FBECDBF9F878E878E859F8524E206
:102C6000FC0120838091B7119091B811892B11F448
:102C700080E02AC01A8219821C821B821D821E8259
:102C80008E859F8502969A8789878E859F850E946B
:102C9000DB0F8B878E859F858D579F4FFC01808131
:102CA0008C878E859F858C579F4FFC0180818D87F7
:102CB00080E091E098878F832091B7113091B8110F
:102CC000CE010196F90109952F960FB6F894DEBF53
:102CD0000FBECDBFDF91CF910895CF93DF93CDB7D6
:102CE000DEB761970FB6F894DEBF0FBECDBF998BEC
:102CF000888B8889998902969A838983888999899A
:102D000024E2FC0120838091BD119091BE11892B9A
:102D100011F480E02EC01C821B821E821D821F8245
:102D20001886888999898F579F4FFC0180819181EE
:102D30009C878B87888999890E94DB0F8D8788897A
:102D400099898D579F4FFC0180818E878889998949
:102D50008C579F4FFC0180818F8780E092E09A879B
:102D600089872091BD113091BE11CE010396F901E2
:102D7000099561960FB6F894DEBF0FBECDBFDF9107
:102D8000CF910895CF93DF93CDB7DEB761970FB69C
:102D9000F894DEBF0FBECDBF998B888B8889998947
:102DA00002969A8389838889998924E2FC01208389
:102DB0008091B9119091BA11892B11F480E02EC045
:102DC0001C821B821E821D821F8218868889998917
:102DD0008F579F4FFC01808191819C878B878889C9
:102DE00099890E94DB0F8D87888999898D579F4F1C
:102DF000FC0180818E87888999898C579F4FFC01BF
:102E000080818F8780E094E09A8789872091B9112B
:102E10003091BA11CE010396F901099561960FB66A
:102E2000F894DEBF0FBECDBFDF91CF910895CF9351
:102E3000DF93CDB7DEB761970FB6F894DEBF0FBE54
:102E4000CDBF998B888B8889998902969A838983CB
:102E50008889998924E2FC0120838091BF11909197
:102E6000C011892B11F480E02EC01C821B821E82AF
:102E70001D821F821886888999898F579F4FFC0170
:102E8000808191819C878B87888999890E94DB0F3B
:102E90008D87888999898D579F4FFC0180818E8706
:102EA000888999898C579F4FFC0180818F8780E0AA
:102EB00090E49A8789872091BF113091C011CE018B
:102EC0000396F901099561960FB6F894DEBF0FBE1F
:102ED000CDBFDF91CF910895CF93DF9300D01F92A4
:102EE000CDB7DEB79B838A831092F40E8A819B81D3
:102EF0000E94AF1489838A819B81FC018385817044
:102F0000882309F419828A819B81FC01878190853D
:102F10000196A9F42091B1113091B2118A819B815F
:102F2000FC01878590892817390749F48A819B819C
:102F3000FC0183858870882311F481E089838A816C
:102F40009B81FC0185819681019609F4198280910B
:102F5000B1119091B211019609F4198289818823E7
:102F600021F08A819B810E9467118A819B8124E2E2
:102F7000FC01208300000F900F900F90DF91CF9104
:102F80000895CF93DF9300D0CDB7DEB71A821982B0
:102F90003FC089819A81FC018081882F90E0092EB1
:102FA000000CAA0BBB0B40E250E029E030E0841B90
:102FB000950B2817390760F180579F4FFC010C943F
:102FC000764989819A810E94421322C089819A811F
:102FD0000E946C171DC089819A810E94C40E18C07E
:102FE00089819A810E94B61513C089819A810E94B5
:102FF00021160EC089819A810E946D1609C08981AF
:103000009A810E94C21689819A810E941717000036
:1030100089819A810E94DE0E9A83898389819A81AF
:10302000892B09F0B6CF00000F900F90DF91CF9160
:103030000895CF93DF93CDB7DEB71092030F1092B0
:10304000020F82E390E0A0E0B0E080930A0F90933B
:103050000B0FA0930C0FB0930D0F10920E0F84ED79
:103060009AE19093100F80930F0F8AE090E0A0E018
:10307000B0E08093170F9093180FA093190FB0939F
:103080001A0F10921B0F8EE39BE190931D0F8093FC
:103090001C0F0000DF91CF910895CF93DF9300D0F4
:1030A00000D0CDB7DEB79C838B838B819C81029649
:1030B0009A8389838B819C8123E1FC0120838B810E
:1030C0009C818D579F4FFC0110828B819C818C5776
:1030D0009F4FFC011182108289819A8120E030E8A3
:1030E000FC01318320838091B6118F5F8093B611EC
:1030F0002091B61189819A81FC0122832091B3111C
:103100003091B41189819A81FC0134832383209109
:10311000B1113091B21189819A81FC0136832583E6
:1031200000000F900F900F900F90DF91CF910895B6
:10313000CF93DF9300D000D0CDB7DEB79C838B83D5
:103140008B819C8102969A8389838B819C8123E168
:10315000FC0120838B819C818D579F4FFC01108245
:103160008B819C818C579F4FFC0111821082898139
:103170009A812CE0FC0120838091B6118F5F8093AF
:10318000B6112091B61189819A81FC012183898130
:103190009A81FC012281287FFC01228389819A8106
:1031A000FC012281277EFC01228389819A81FC0116
:1031B00022812F7DFC01228389819A81FC01228159
:1031C0002F7BFC01228300000F900F900F900F9037
:1031D000DF91CF910895CF93DF9300D000D000D03E
:1031E000CDB7DEB79C838B837E836D838B819C817F
:1031F00002969A8389838B819C8123E1FC01208341
:103200008B819C818D579F4FFC0110828B819C810B
:103210008C579F4FFC01118210828D819E819923D2
:1032200034F489819A812CECFC01208317C08D81B4
:103230009E8188279072892B31F089819A812CE4B4
:10324000FC0120830BC08D819E8188279074892B7F
:1032500029F089819A812CE8FC0120838091B611A4
:103260008F5F8093B6112091B61189819A81FC01FC
:10327000218389819A81FC012281287FFC0122839C
:1032800089819A81FC012281277EFC012283898128
:103290009A81FC0122812F7DFC01228389819A8100
:1032A000FC0122812F7BFC012283000026960FB6B1
:1032B000F894DEBF0FBECDBFDF91CF910895CF93BD
:1032C000DF9300D000D0CDB7DEB79C838B838B819A
:1032D0009C8102969A8389838B819C818A579F4F18
:1032E000FC018081882F90E082709927892B31F032
:1032F0008B819C8122E1FC01208305C08B819C8114
:1033000022E1FC0120838B819C818D579F4FFC0122
:1033100010828B819C818A579F4FFC018081882F6E
:1033200090E081709927892B41F089819A812FEF54
:103330003FEFFC013483238309C02091B311309106
:10334000B41189819A81FC013483238389819A8114
:10335000FC012585368589819A81FC013683258388
:103360002091B1113091B21189819A81FC0130878D
:1033700027838091B6118F5F8093B6112091B6118B
:1033800089819A81FC01228389819A81FC0185814E
:1033900096810196A9F489819A8121E438E8FC019B
:1033A000318320830E94D9498770992701969C0117
:1033B0008B819C818C579F4FFC01318320830EC0F1
:1033C00089819A8121E438E8FC01318320838B8153
:1033D0009C818C579F4FFC011182108200000F903E
:1033E0000F900F900F90DF91CF910895CF93DF93BF
:1033F00000D000D0CDB7DEB79C838B830E94BA0D7E
:103400009A83898389819A81892B09F476C089817D
:103410009A818F579F4FFC01808191819C01205F91
:103420003F4F89819A818F579F4FFC0131832083C1
:1034300089819A8122E1FC0120838B819C81FC019E
:10344000218189819A81FC01218389819A818D570B
:103450009F4FFC0110820E94D949877099270196DD
:103460009C0189819A818C579F4FFC013183208375
:1034700089819A8189579F4FFC01118210828B812B
:103480009C81FC018181482F50E08B819C819C01B3
:103490002E5F3F4F89819A810296B9010E94CB4AE3
:1034A00089819A8121E438E8FC0133832283898170
:1034B0009A812FEF3FEFFC01308727838B819C811E
:1034C000FC012581368189819A81FC01368325831F
:1034D0002091B1113091B21189819A81FC0132871A
:1034E00021878091B6118F5F8093B6112091B6111C
:1034F00089819A81FC01248301C000000F900F9004
:103500000F900F90DF91CF910895CF93DF9300D06C
:1035100000D000D0CDB7DEB79E838D838D819E8194
:10352000FC01808591859C838B831A8219828D8111
:103530009E81FC018285833019F180E02CC0898155
:103540009A81FC0180818631D9F489819A81FC01BC
:1035500024858B819C81FC018181281789F48981D4
:103560009A8127E1FC0120838B819C81FC012281CF
:1035700089819A818A579F4FFC01208381E00BC08B
:1035800089819A810E94DE0E9A83898389819A813A
:10359000892BA9F680E026960FB6F894DEBF0FBE01
:1035A000CDBFDF91CF910895CF93DF9300D000D0AE
:1035B0001F92CDB7DEB79D838C831A8219821B823E
:1035C00027C089819A81FC018081863109F581E0DB
:1035D0008B8389819A818C579F4FFC0180819181D7
:1035E0009C012150310989819A818C579F4FFC01A0
:1035F0003183208389819A818C579F4FFC01808180
:103600009181892B29F489819A8160E10E94221B92
:1036100089819A810E94DE0E9A83898389819A81A9
:10362000892B79F68B81882321F08C819D810E94E2
:103630005F2100000F900F900F900F900F90DF917F
:10364000CF910895CF93DF9300D01F92CDB7DEB70F
:103650009A8389836B8389819A8127E1FC01208386
:1036600089819A818D579F4F2B81FC012083000017
:103670000F900F900F90DF91CF910895CF93DF932C
:1036800000D000D01F92CDB7DEB79D838C831A8205
:1036900019821B8227C089819A81FC018081813136
:1036A00009F581E08B8389819A818C579F4FFC01BA
:1036B000808191819C012150310989819A818C57A7
:1036C0009F4FFC013183208389819A818C579F4FC2
:1036D000FC0180819181892B29F489819A8123E1E0
:1036E000FC01208389819A810E94DE0E9A8389835E
:1036F00089819A81892B79F68B81882321F08C81AD
:103700009D810E945F2100000F900F900F900F90FD
:103710000F90DF91CF910895CF93DF931F92CDB794
:10372000DEB789838981882F90E08130910539F057
:103730008230910531F0892B31F480E005C080E2C0
:1037400003C081E201C081E00F90DF91CF91089525
:103750000F931F93CF93DF931F92CDB7DEB789836B
:103760000091020F1091030F89810E948C1B282F5A
:10377000C8018D579F4FFC0120838091020F9091CB
:10378000030F25E1FC0120831092030F1092020F1A
:103790008091D7119091D81101979093D81180936F
:1037A000D71100000F90DF91CF911F910F910895D5
:1037B000CF93DF9300D0CDB7DEB71A821982B3C0A2
:1037C00089819A81FC018081882F90E08431910564
:1037D00009F4A9C08531910534F48231910579F05D
:1037E000439731F19FC08631910509F49CC0863121
:1037F00091050CF443C0479709F47AC093C08981BE
:103800009A818C579F4FFC0180819181892B51F0C7
:1038100089819A8121E1FC01208381E19FE00E945E
:103820005F2181C089819A8123E1FC0120837BC0D3
:103830008091020F9091030F892B09F074C0898148
:103840009A819093030F8093020F89819A8124E1DA
:10385000FC01208389819A81FC01218189819A81DF
:103860000296622F0E94D91E8091D7119091D81193
:1038700001969093D8118093D71155C089819A8170
:103880008D579F4FFC018081882361F589819A8142
:10389000FC01258536858091B1119091B2112817D0
:1038A0003907D1F489819A81FC018385817088234D
:1038B00099F089819A8126E1FC01208389819A818E
:1038C0008C579F4F25E130E0FC013183208384E059
:1038D0009FE00E945F210BC089819A8127E1FC0152
:1038E000208321C089819A8127E1FC0120831BC0AC
:1038F00089819A8189579F4FFC0180819181892B11
:1039000029F489819A810E94C40E0DC089819A810F
:1039100089579F4FFC012081318189819A81F9016A
:10392000099501C0000089819A810E94DE0E9A8368
:10393000898389819A81892B09F042CF00000F90F9
:103940000F90DF91CF910895CF93DF9300D0CDB743
:10395000DEB79A83898389819A81892B09F47BC098
:1039600089819A818837910549F461E080E00E945D
:103970000C3D60E180E00E940C3D6DC089819A8120
:10398000803C910529F462E080E00E940C3D63C018
:1039900089819A818C34910529F464E080E00E9449
:1039A0000C3D59C089819A818038910529F468E0DD
:1039B00080E00E940C3D4FC089819A81843491053A
:1039C00029F460E280E00E940C3D45C089819A8123
:1039D000803B910529F460E480E00E940C3D3BC0EF
:1039E00089819A81883B910529F460E880E00E94F2
:1039F0000C3D31C089819A81883C910529F461E0B0
:103A000081E00E940C3D27C089819A81803991050F
:103A100029F468E081E00E940C3D1DC089819A81F3
:103A2000803A910529F460E181E00E940C3D13C0C9
:103A300089819A818032914029F460E281E00E947C
:103A40000C3D09C089819A818334914021F460E45E
:103A500081E00E940C3D00000F900F90DF91CF910C
:103A600008956150710981099109D9F70895CF939B
:103A7000DF93CDB7DEB783E491E00E94A41C89E315
:103A800091E0FC0120812160FC01208310929F0FB6
:103A900081E080931E0F88E00E94B61F8CE491E0C5
:103AA000FC0120812068FC0120830000DF91CF9180
:103AB0000895CF93DF93CDB7DEB789E391E0FC01A2
:103AC00020812160FC0120830000DF91CF910895C7
:103AD000CF93DF931F92CDB7DEB789838981882387
:103AE000B1F08CE691E0FC0120812F70FC01208375
:103AF0008CE691E0FC0120812E60FC0120838EE6A3
:103B000091E0FC0120812061FC01208317C08CE63C
:103B100091E0FC0120812F702063FC0120838CE662
:103B200091E0FC012081217F2860FC0120838EE64A
:103B300091E0FC0120812F7EFC01208300000F908A
:103B4000DF91CF910895CF93DF93CDB7DEB729975B
:103B50000FB6F894DEBF0FBECDBF898728E0CE0137
:103B60000196FC01322F11923A95E9F78985882355
:103B700049F180E090E00E94631E80E090E00E94A6
:103B80003F1ECE0101960E94DB1F87E591E0FC01FC
:103B900020812260FC01208387E591E0FC012081E7
:103BA0002061FC01208387E591E0FC0120812F7DCD
:103BB000FC0120838EE691E0FC0120812061FC0164
:103BC00020830BC087E591E0FC0110828EE691E036
:103BD000FC0120812F7EFC012083000029960FB676
:103BE000F894DEBF0FBECDBFDF91CF9108950F9344
:103BF0001F93CF93DF93CDB7DEB78FE691E0FC0143
:103C00002081207F2360FC0120838FE691E0FC016E
:103C100020812F702068FC0120830DE611E00E94B6
:103C20001A1FF80180830000DF91CF911F910F913F
:103C30000895CF93DF931F92CDB7DEB78983898133
:103C400080939F0F0E949F1F00000F90DF91CF91E4
:103C50000895CF93DF931F92CDB7DEB7898388E4B1
:103C600091E029812F712F71FC013081307E232B4F
:103C7000FC01208300000F90DF91CF910895CF9336
:103C8000DF9300D000D0CDB7DEB79C838B83CE010D
:103C900003969A83898382E691E029813A81F9012A
:103CA0002081FC01208383E691E029813A81F9019A
:103CB0002181FC01208300000F900F900F900F9046
:103CC000DF91CF910895CF93DF9300D000D0CDB78F
:103CD000DEB79C838B83CE0103969A83898380E62B
:103CE00091E029813A81F9012081FC01208381E65C
:103CF00091E029813A81F9012181FC0120838DE63F
:103D000091E029813A81F901408129813A812F5F2F
:103D10003F4FF9012081240FFC01208300000F9008
:103D20000F900F900F90DF91CF910895CF93DF9375
:103D30001F92CDB7DEB7898385E491E029812F708A
:103D40002F70FC013081307F232BFC012083000089
:103D50000F90DF91CF910895CF93DF93CDB7DEB76A
:103D600080911E0F823069F088E00E94B61F89E3BF
:103D700091E0FC0120812260FC01208382E080939D
:103D80001E0F0000DF91CF910895CF93DF93CDB741
:103D9000DEB789E391E0FC0120812D7FFC012083C7
:103DA0000E949F1F81E080931E0F0000DF91CF9142
:103DB0000895CF93DF9300D000D0CDB7DEB79B83BB
:103DC0008A836C8389E10E94B61F8FE491E02FEF14
:103DD000FC01208380E891E02C812E5FFC01208390
:103DE000198214C08981882F90E08F579E4FAC01B3
:103DF0008981882F90E02A813B81820F931FFC01EB
:103E00008081FA01808389818F5F898399818C8188
:103E1000981740F383E080931E0F82E491E022E044
:103E2000FC01208300000F900F900F900F90DF9106
:103E3000CF910895CF93DF9300D01F92CDB7DEB717
:103E40001A82198286E00E94B61F1B8222C062E09D
:103E500070E080E090E00E94311D86E491E0FC017A
:103E600080818295869587708370882F90E02B8162
:103E7000222F30E002C0880F991F2A95E2F79C019B
:103E800089819A81822B932B9A8389838B818E5F80
:103E90008B838B818031D8F20E949F1F89819A8108
:103EA0000F900F900F90DF91CF910895CF93DF93F4
:103EB00000D000D0CDB7DEB79A8389837C836B8333
:103EC0008B819C8140E060E00E94003089819A8172
:103ED0000E940C3189819A810E94423100000F902A
:103EE0000F900F900F90DF91CF910895CF93DF93B4
:103EF0001F92CDB7DEB786E00E94B61F8FE491E037
:103F0000FC0120812061FC01208387E491E0FC0119
:103F1000108200008FE491E0FC0180818295817025
:103F20008823C1F387E491E0FC0180818A5589836D
:103F30000E949F1F89810F90DF91CF910895CF93A9
:103F4000DF93CDB7DEB788E00E94B61F8FE491E023
:103F50002FEFFC01208380919F0F882319F086E1C9
:103F60000E94B61F0000DF91CF910895CF93DF9399
:103F70001F92CDB7DEB7898382E491E023E0FC0194
:103F8000208381E491E0FC0180818F718830A1F76A
:103F900082E491E02981FC01208381E491E0FC012D
:103FA00080818F71982F8981981791F700000F9069
:103FB000DF91CF910895CF93DF9300D000D0CDB79C
:103FC000DEB79C838B838B819C819A83898324E6D3
:103FD00031E089819A81AC014F5F5F4F5A834983F9
:103FE000FC018081F901808325E631E089819A8195
:103FF000AC014F5F5F4F5A834983FC018081F90117
:10400000808326E631E089819A81AC014F5F5F4F62
:104010005A834983FC018081F901808327E631E0DE
:1040200089819A81AC014F5F5F4F5A834983FC01BC
:104030008081F901808328E631E089819A81AC0191
:104040004F5F5F4F5A834983FC018081F901808370
:1040500029E631E089819A81AC014F5F5F4F5A8335
:104060004983FC018081F90180832AE631E089815E
:104070009A81AC014F5F5F4F5A834983FC01808175
:10408000F90180838BE691E029813A81F901208151
:10409000FC01208300000F900F900F900F90DF9194
:1040A000CF910895CF93DF93CDB7DEB728970FB6A2
:1040B000F894DEBF0FBECDBF80911E0F823009F491
:1040C0009EC08FE491E0FC01808183FB882780F90A
:1040D000882309F459C08BE791E0FC0180818B8330
:1040E000198211C08981882F90E02981222F30E028
:1040F00020583E4FF9012081815E904FFC012083C2
:1041000089818F5F89838981282F30E08B81882F77
:1041100090E00196281739072CF38FE19FE09D83EB
:104120008C838B8182508E838B81882F90E0815E7F
:10413000904FFC0180818F8387E491E0FC018081B6
:104140008A558887CE0104960E943610000081E4CB
:1041500091E0FC0180818F718631C9F78FE491E095
:10416000FC0120812860FC0120838CE491E0FC01AB
:1041700020812F77FC0120838CE491E0FC012081D9
:104180002068FC0120833CC08FE491E0FC01808129
:1041900086FB882780F9882399F181E491E0FC016E
:1041A00080818F71893119F582E491E0FC01808171
:1041B0008295869587708A838A81882311F41A8272
:1041C0000EC08A81833019F481E08A8308C08A8115
:1041D000853019F482E08A8302C083E08A830E94DA
:1041E0009F1F81E080931E0F8A810E94A81B8FE48D
:1041F00091E0FC0120812064FC01208301C00000CB
:1042000028960FB6F894DEBF0FBECDBFDF91CF91D9
:104210000895CF93DF93CDB7DEB70E9447210E9468
:10422000F82F0E94371D0E942E080000DF91CF91C9
:104230000895CF93DF93CDB7DEB70E9452200E943E
:104240002C090E9419220000DF91CF910895CF938D
:10425000DF931F92CDB7DEB78FE590E0FC01808140
:104260008983F89489810F90DF91CF910895CF933E
:10427000DF931F92CDB7DEB789838FE590E0298168
:10428000FC01208300000F90DF91CF910895CF9320
:10429000DF93CDB7DEB71092D91181EB93E20E9484
:1042A00085430E94374380E197E20E94CD421092FD
:1042B000A10F1092A00F0000DF91CF910895CF932E
:1042C000DF9300D0CDB7DEB79A83898389819A8145
:1042D0000E94EE21982F81E08927882321F089818F
:1042E0009A810E94DC2200000F900F90DF91CF9105
:1042F0000895CF93DF9300D000D000D0CDB7DEB7C4
:104300009E838D831A8219828091A00F9091A10FB4
:104310009C838B8352C02B813C818D819E81281789
:10432000390709F03FC089819A81892B59F08B8127
:104330009C81FC012081318189819A81FC0131833A
:10434000208309C08B819C81FC01808191819093A5
:10435000A10F8093A00F8B819C81FC0180819181B2
:10436000892B89F18B819C81FC01608171818B811A
:104370009C81FC0180819181FC01228133814481F7
:1043800055818D819E81FC0182819381A481B581BB
:10439000820F931FA41FB51FFB0182839383A48305
:1043A000B58311C08B819C819A8389838B819C8189
:1043B000FC01808191819C838B838B819C81892BE3
:1043C00009F0A9CF01C00000000026960FB6F894AE
:1043D000DEBF0FBECDBFDF91CF910895CF93DF93A6
:1043E00000D000D0CDB7DEB79C838B838091A00F27
:1043F0009091A10F9A83898310C029813A818B8182
:104400009C812817390711F481E00CC089819A81B9
:10441000FC01808191819A83898389819A81892B8A
:1044200061F780E00F900F900F900F90DF91CF9188
:104430000895EF92FF920F931F93CF93DF93CDB721
:10444000DEB728970FB6F894DEBF0FBECDBF8091C0
:10445000D911882309F4A2C00E9427218D8380915D
:10446000D9118E831092D9118D810E9437218E81AE
:10447000882F90E0A0E0B0E0880F991FAA1FBB1F13
:104480009C01AD01220F331F441F551F220F331F04
:10449000441F551F820F931FA41FB51F89839A8342
:1044A000AB83BC833DC08091A00F9091A10F9887F2
:1044B0008F838091A00F9091A10FFC018281938145
:1044C000A481B58129813A814B815C8179018A017E
:1044D000E81AF90A0A0B1B0BD801C70189839A83D2
:1044E000AB83BC838091A00F9091A10FFC018081D0
:1044F00091819093A10F8093A00F8F819885FC01EB
:104500008285813021F48F8198850E94DC228F8101
:104510009885FC01238534858F819885F90109955B
:104520008091A00F9091A10F892B99F08091A00FFD
:104530009091A10FFC0122813381448155818981B1
:104540009A81AB81BC8182179307A407B50708F055
:10455000AACF8091A00F9091A10F892B01F16091BA
:10456000A00F7091A10F8091A00F9091A10FFC015D
:10457000228133814481558189819A81AB81BC81BB
:1045800079018A01E81AF90A0A0B1B0BD801C70145
:10459000FB0182839383A483B58301C00000289626
:1045A0000FB6F894DEBF0FBECDBFDF91CF911F9144
:1045B0000F91FF90EF900895EF92FF920F931F934A
:1045C000CF93DF93CDB7DEB72A970FB6F894DEBF4F
:1045D0000FBECDBF9A8789878091A00F9091A10FC0
:1045E000892B09F497C01A82198289859A85FC0162
:1045F00086819781A085B1858B839C83AD83BE83A3
:104600008091A00F9091A10F98878F834DC08F81CB
:104610009885FC0122813381448155818B819C8165
:10462000AD81BE8182179307A407B507D8F48F81A7
:104630009885FC0122813381448155818B819C8145
:10464000AD81BE8179018A01E81AF90A0A0B1B0BB8
:10465000D801C7012F813885F90182839383A48310
:10466000B58327C08F819885FC0182819381A481C5
:10467000B5812B813C814D815E8179018A01E81AE7
:10468000F90A0A0B1B0BD801C7018B839C83AD83EE
:10469000BE838F8198859A8389838F819885FC0159
:1046A0008081918198878F838F819885892B09F0EC
:1046B000AECF29853A858B819C81AD81BE81F90180
:1046C00082839383A483B58389819A81892B91F016
:1046D00089819A81FC012081318189859A85FC013B
:1046E0003183208389819A8129853A85FC01318330
:1046F000208329C02091A00F3091A10F89859A8530
:10470000FC013183208389859A859093A10F809342
:10471000A00F19C089859A85FC01118210828985B4
:104720009A85FC0186819781A085B18529853A8586
:10473000F90182839383A483B58389859A859093B5
:10474000A10F8093A00F00002A960FB6F894DEBF49
:104750000FBECDBFDF91CF911F910F91FF90EF90D2
:104760000895CF93DF93CDB7DEB78091D9118F5FD6
:104770008093D91180E197E20E94CD420000DF9141
:10478000CF910895CF93DF931F92CDB7DEB78FE51A
:1047900090E0FC0180818983F89489810F90DF91FA
:1047A000CF910895CF93DF931F92CDB7DEB7898362
:1047B0008FE590E02981FC01208300000F90DF91BC
:1047C000CF910895CF93DF93CDB7DEB780E094E229
:1047D000A4EFB0E0BC01CD01DF91CF910895CF935C
:1047E000DF93CDB7DEB70E94E223DC01CB01BC0131
:1047F000CD01DF91CF910895CF93DF9300D0CDB756
:10480000DEB79A83898389819A81892B21F480E09C
:1048100090E0DC01A3C089819A818837910529F451
:104820000E94EF23DC01CB0199C089819A81803CF1
:10483000910529F40E94EF23DC01CB018FC089810F
:104840009A818C34910529F40E94EF23DC01CB017D
:1048500085C089819A818038910529F40E94EF23CF
:10486000DC01CB017BC089819A818434910529F4D4
:104870000E94EF23DC01CB0171C089819A81803BCA
:10488000910529F40E94EF23DC01CB0167C08981E7
:104890009A81803C910529F40E94EF23DC01CB0131
:1048A0005DC089819A81883B910529F40E94EF239C
:1048B000DC01CB0153C089819A818039910529F4AB
:1048C0000E94EF23DC01CB0149C089819A81803AA3
:1048D000910529F40E94EF23DC01CB013FC08981BF
:1048E0009A818032914029F40E94EF23DC01CB01B0
:1048F00035C089819A818334914029F40E94EF2345
:10490000DC01CB012BC089819A818533914029F448
:104910000E94EF23DC01CB0121C089819A8184337D
:10492000914029F40E94EF23DC01CB0117C089815B
:104930009A818333914029F40E94EF23DC01CB015B
:104940000DC089819A818233914029F40E94EF231E
:10495000DC01CB0103C080E090E0DC01BC01CD01B3
:104960000F900F90DF91CF910895CF93DF9300D0F8
:104970001F92CDB7DEB79A8389836B8389819A8131
:104980008038910559F481E890E021E830E0F901A0
:1049900030812B81232BFC0120832FC089819A81B8
:1049A0008039910559F481E990E021E930E0F9017D
:1049B00030812B81232BFC0120831FC089819A81A8
:1049C000803A910559F481EA90E021EA30E0F9015A
:1049D00030812B81232BFC0120830FC089819A8198
:1049E0008032914051F481E291E021E231E0F9011D
:1049F00030812B81232BFC01208300000F900F902E
:104A00000F90DF91CF910895CF93DF9300D0CDB772
:104A1000DEB79A83898389819A818038910551F420
:104A20008FE690E02FE630E0F90120812160FC0163
:104A300020832CC089819A818039910551F481E7C6
:104A400090E021E730E0F90120812160FC01208322
:104A50001DC089819A81803A910551F482E790E0E6
:104A600022E730E0F90120812160FC0120830EC0A3
:104A700089819A818032914049F483E790E023E76D
:104A800030E0F90120812160FC01208300000F90BB
:104A90000F90DF91CF910895CF93DF9300D0CDB7E2
:104AA000DEB79A83898389819A818038910551F490
:104AB0008FE690E02FE630E0F90120812260FC01D2
:104AC00020832CC089819A818039910551F481E736
:104AD00090E021E730E0F90120812260FC01208391
:104AE0001DC089819A81803A910551F482E790E056
:104AF00022E730E0F90120812260FC0120830EC012
:104B000089819A818032914049F483E790E023E7DC
:104B100030E0F90120812260FC01208300000F9029
:104B20000F90DF91CF910895CF93DF9300D0CDB751
:104B3000DEB79A83898389819A818038910551F4FF
:104B40008FE690E02FE630E0F90120812D7FFC0117
:104B500020832CC089819A818039910551F481E7A5
:104B600090E021E730E0F90120812D7FFC012083D6
:104B70001DC089819A81803A910551F482E790E0C5
:104B800022E730E0F90120812D7FFC0120830EC057
:104B900089819A818032914049F483E790E023E74C
:104BA00030E0F90120812D7FFC01208300000F906F
:104BB0000F90DF91CF910895CF93DF93CDB7DEB7FC
:104BC00027970FB6F894DEBF0FBECDBF9C838B83B3
:104BD0006D835F834E838B819C819A8389838D81D2
:104BE000882F90E0019629813A81820F931F2D81B1
:104BF000222F30E02F5F3F4F49815A81240F351F0C
:104C0000F90140812E813F81232F3327242BFC0182
:104C100020838D81882F90E029813A81820F931F14
:104C20002D81222F30E049815A81240F351FF9014F
:104C300030812E81232BFC012083000027960FB6A4
:104C4000F894DEBF0FBECDBFDF91CF910895CF9313
:104C5000DF9300D0CDB7DEB79A83898389819A81AB
:104C60008038910551F486E390E026E330E0F901C5
:104C700020812160FC0120832CC089819A818039A8
:104C8000910551F488E390E028E330E0F9012081B8
:104C90002160FC0120831DC089819A81803A9105A1
:104CA00051F489E390E029E330E0F90120812160AB
:104CB000FC0120830EC089819A818032914049F4A1
:104CC0008AE390E02AE330E0F90120812160FC01D1
:104CD000208300000F900F90DF91CF910895CF9324
:104CE000DF9300D0CDB7DEB79A83898389819A811B
:104CF0008038910551F486E390E026E330E0F90135
:104D000020812260FC0120832CC089819A81803916
:104D1000910551F488E390E028E330E0F901208127
:104D20002260FC0120831DC089819A81803A91050F
:104D300051F489E390E029E330E0F9012081226019
:104D4000FC0120830EC089819A818032914049F410
:104D50008AE390E02AE330E0F90120812260FC013F
:104D6000208300000F900F90DF91CF910895CF9393
:104D7000DF9300D0CDB7DEB79A83898389819A818A
:104D80008038910531F484E890E0FC0180819181C4
:104D900023C089819A818039910531F484E990E0BA
:104DA000FC018081918118C089819A81803A9105A6
:104DB00031F484EA90E0FC01808191810DC0898109
:104DC0009A818032914031F484E291E0FC0180814B
:104DD000918102C080E090E00F900F90DF91CF9121
:104DE0000895CF93DF9300D000D01F92CDB7DEB7E8
:104DF0009C838B836D838B819C819A8389838D8136
:104E0000882349F489819A81FC01208189819A81D2
:104E1000FC0120830FC08D81843061F489819A81E7
:104E2000019629813A812F5F3F4FF9012081286047
:104E3000FC01208300000F900F900F900F900F90B7
:104E4000DF91CF910895CF93DF93CDB7DEB780E8A0
:104E500090E00E94B726DF91CF910895CF93DF9322
:104E6000CDB7DEB780E890E00E94942580E890E01E
:104E70000E946F260000DF91CF910895CF93DF93BA
:104E8000CDB7DEB780E890E00E946F2680E890E022
:104E90000E944C250000DF91CF910895CF93DF93BE
:104EA000CDB7DEB780E890E00E94042580E890E06E
:104EB0000E9427260000DF91CF910895CF93DF93C2
:104EC000CDB7DEB780E890E00E94DB2E0000DF91D6
:104ED000CF910895CF93DF9300D0CDB7DEB79A83FB
:104EE000898389819A81AC0168E080E890E00E9422
:104EF000DC2500000F900F90DF91CF910895CF93A4
:104F0000DF93CDB7DEB70E94C223DF91CF91089522
:104F1000CF93DF931F92CDB7DEB7898389810E943B
:104F2000D22300000F90DF91CF910895CF93DF93AC
:104F30001F92CDB7DEB780E890E00E94C22E6FE2EC
:104F400078E280E890E00E94F42E60E080E890E053
:104F50000E94F12680E890E00E94042580E890E01D
:104F60000E94D12780E890E00E94942561E080E8CB
:104F700090E00E94B52480E890E00E94FC23DC01D0
:104F8000CB0120E432E44FE050E0BC01CD010E94AF
:104F90005449DA01C901898389810F90DF91CF914A
:104FA0000895CF93DF9300D0CDB7DEB79A8389837E
:104FB00089819A818038910579F089819A81803937
:104FC000910551F089819A81803A910529F0898172
:104FD0009A818032914039F469E378E280E890E088
:104FE0000E94352F36C089819A818138910579F0E8
:104FF00089819A818139910551F089819A81813A1B
:10500000910529F089819A818132914039F469E3CF
:1050100078E280E890E00E94762F1BC089819A8117
:105020008238910579F089819A818239910551F010
:1050300089819A81823A910529F089819A81823207
:10504000914039F469E378E280E890E00E94B72F5C
:1050500000C000000F900F90DF91CF910895CF9383
:10506000DF93CDB7DEB70E943E430000DF91CF91C2
:105070000895CF93DF93CDB7DEB70E94764300004B
:10508000DF91CF910895CF93DF931F92CDB7DEB715
:105090008FE590E0FC0180818983F89489810F90ED
:1050A000DF91CF910895CF93DF931F92CDB7DEB7F5
:1050B00089838FE590E02981FC01208300000F9017
:1050C000DF91CF910895EF92FF920F931F93CF93AB
:1050D000DF93CDB7DEB72C970FB6F894DEBF0FBEC7
:1050E000CDBF6B837C838D839E832F8338874987D5
:1050F0005A871C870B878F819885A985BA858093ED
:10510000A20F9093A30FA093A40FB093A50F8B852C
:105110009C859A8389838B819C81AD81BE81882700
:105120009F5FAF4FBF4F8093A60F9093A70FA093A1
:10513000A80FB093A90F8B819C81AD81BE81882778
:105140000AEA1FE020E031E040E050E0BC01CD0180
:105150000E9456292AEA3FE040E051E060E070E01A
:10516000CB010E949D4D2091A20F3091A30F409141
:10517000A40F5091A50F8B819C81AD81BE81280F1A
:10518000391F4A1F5B1F8091A60F9091A70FA09116
:10519000A80FB091A90F82179307A407B507A0F431
:1051A0008091A60F9091A70FA091A80FB091A90F81
:1051B0009C018B819C817901E81AF90AC7019093BF
:1051C000AB108093AA100CC08091A20F9091A30FF6
:1051D000A091A40FB091A50F9093AB108093AA104B
:1051E0002091A20F3091A30F4091A40F5091A50FD1
:1051F0008091AA109091AB10CC01A0E0B0E07901B1
:105200008A01E81AF90A0A0B1B0BD801C70180931F
:10521000A20F9093A30FA093A40FB093A50F40915A
:10522000AA105091AB1029813A818B819C81AD816C
:10523000BE81BC01CD010E949D4D8B819C81AD81C1
:10524000BE81BC01CD010E94AA4E8091A60F909113
:10525000A70FA091A80FB091A90F8B839C83AD835A
:10526000BE838091AA109091AB1029813A81820F60
:10527000931F9A8389838091A20F9091A30FA0918D
:10528000A40FB091A50F892B8A2B8B2B09F043CF4C
:1052900000002C960FB6F894DEBF0FBECDBFDF9195
:1052A000CF911F910F91FF90EF9008950F931F934F
:1052B000CF93DF93CDB7DEB762970FB6F894DEBF1A
:1052C0000FBECDBF69877A878B879C872D873E87E6
:1052D0004F87588B1A8B098B0E9443288B831A8225
:1052E000198229C029893A8989819A81B901680F6F
:1052F000791F89859A85AB85BC859C01AD012F5F9F
:105300003F4F4F4F5F4F29873A874B875C878C838E
:105310009D83AE83BF838C819D81AE81BF81ABBFF6
:10532000FC01879188878885FB01808389819A8128
:1053300001969A83898389819A819C0140E050E09B
:105340008D859E85AF85B889281739074A075B0781
:1053500048F28B810E945328000062960FB6F894A1
:10536000DEBF0FBECDBFDF91CF911F910F9108958A
:10537000CF93DF931F92CDB7DEB78FE590E0FC01AE
:1053800080818983F89489810F90DF91CF9108956E
:10539000CF93DF931F92CDB7DEB789838FE590E07F
:1053A0002981FC01208300000F90DF91CF910895A7
:1053B000CF93DF9300D0CDB7DEB79A8389838981FD
:1053C0009A81892B09F47BC089819A81883791055C
:1053D00049F461E080E00E940C3D60E180E00E94C1
:1053E0000C3D6DC089819A81803C910529F462E071
:1053F00080E00E940C3D63C089819A818C349105C4
:1054000029F464E080E00E940C3D59C089819A81B2
:105410008038910529F468E080E00E940C3D4FC07F
:1054200089819A818434910529F460E280E00E94A8
:105430000C3D45C089819A81803B910529F460E447
:1054400080E00E940C3D3BC089819A81883B910598
:1054500029F460E880E00E940C3D31C089819A8186
:10546000883C910529F461E081E00E940C3D27C051
:1054700089819A818039910529F468E081E00E9450
:105480000C3D1DC089819A81803A910529F460E123
:1054900081E00E940C3D13C089819A818032914045
:1054A00029F460E281E00E940C3D09C089819A8163
:1054B0008334914021F460E481E00E940C3D0000BF
:1054C0000F900F90DF91CF910895CF93DF9300D08D
:1054D000CDB7DEB79A83898389819A81892B09F4B4
:1054E0007BC089819A818837910549F461E080E029
:1054F0000E94413D60E180E00E94413D6DC0898194
:105500009A81803C910529F462E080E00E94413D4F
:1055100063C089819A818C34910529F464E080E02C
:105520000E94413D59C089819A818038910529F4B2
:1055300068E080E00E94413D4FC089819A818434B7
:10554000910529F460E280E00E94413D45C08981D7
:105550009A81803B910529F460E480E00E94413DFE
:105560003BC089819A81883B910529F460E880E0FD
:105570000E94413D31C089819A81883C910529F47E
:1055800061E081E00E94413D27C089819A81803994
:10559000910529F468E081E00E94413D1DC08981A8
:1055A0009A81803A910529F460E181E00E94413DB1
:1055B00013C089819A818032914029F460E281E0B0
:1055C0000E94413D09C089819A818334914021F430
:1055D00060E481E00E94413D00000F900F90DF9158
:1055E000CF9108951F920F9200905F000F921124A7
:1055F00000905B000F922F933F934F935F936F93B5
:105600007F938F939F93AF93BF93EF93FF93CF932A
:10561000DF93CDB7DEB78091AC109091AD10892BA0
:1056200031F08091AC109091AD10FC010995000013
:10563000DF91CF91FF91EF91BF91AF919F918F91AA
:105640007F916F915F914F913F912F910F900092B9
:105650005B000F9000925F000F901F9018951F92B3
:105660000F9200905F000F92112400905B000F9248
:105670002F933F934F935F936F937F938F939F935A
:10568000AF93BF93EF93FF93CF93DF93CDB7DEB785
:105690008091AE109091AF10892B31F08091AE10B7
:1056A0009091AF10FC0109950000DF91CF91FF911F
:1056B000EF91BF91AF919F918F917F916F915F918A
:1056C0004F913F912F910F9000925B000F900092AD
:1056D0005F000F901F9018951F920F9200905F002F
:1056E0000F92112400905B000F922F933F934F93E2
:1056F0005F936F937F938F939F93AF93BF93EF933A
:10570000FF93CF93DF93CDB7DEB78091B010909128
:10571000B110892B31F08091B0109091B110FC0143
:1057200009950000DF91CF91FF91EF91BF91AF916B
:105730009F918F917F916F915F914F913F912F91A9
:105740000F9000925B000F9000925F000F901F90EF
:1057500018951F920F9200905F000F9211240090F5
:105760005B000F922F933F934F935F936F937F93C1
:105770008F939F93AF93BF93EF93FF93CF93DF9359
:10578000CDB7DEB78091B2109091B310892B31F074
:105790008091B2109091B310FC0109950000DF9147
:1057A000CF91FF91EF91BF91AF919F918F917F9199
:1057B0006F915F914F913F912F910F9000925B00FD
:1057C0000F9000925F000F901F9018951F920F92FC
:1057D00000905F000F92112400905B000F922F93B6
:1057E0003F934F935F936F937F938F939F93AF9369
:1057F000BF93EF93FF93CF93DF93CDB7DEB7809145
:10580000B4109091B510892B31F08091B410909123
:10581000B510FC0109950000DF91CF91FF91EF9148
:10582000BF91AF919F918F917F916F915F914F91B8
:105830003F912F910F9000925B000F9000925F00BC
:105840000F901F9018951F920F9200905F000F927B
:10585000112400905B000F922F933F934F935F931F
:105860006F937F938F939F93AF93BF93EF93FF9328
:10587000CF93DF93CDB7DEB78091B6109091B7107C
:10588000892B31F08091B6109091B710FC010995E9
:105890000000DF91CF91FF91EF91BF91AF919F9168
:1058A0008F917F916F915F914F913F912F910F90C9
:1058B00000925B000F9000925F000F901F90189570
:1058C0001F920F9200905F000F92112400905B00D6
:1058D0000F922F933F934F935F936F937F938F9389
:1058E0009F93AF93BF93EF93FF93CF93DF93CDB786
:1058F000DEB78091B8109091B910892B31F080916A
:10590000B8109091B910FC0109950000DF91CF917A
:10591000FF91EF91BF91AF919F918F917F916F9187
:105920005F914F913F912F910F9000925B000F90EC
:1059300000925F000F901F9018951F920F92009099
:105940005F000F92112400905B000F922F933F9302
:105950004F935F936F937F938F939F93AF93BF9377
:10596000EF93FF93CF93DF93CDB7DEB78091BA105B
:105970009091BB10892B31F08091BA109091BB109F
:10598000FC0109950000DF91CF91FF91EF91BF914C
:10599000AF919F918F917F916F915F914F913F91C7
:1059A0002F910F9000925B000F9000925F000F907C
:1059B0001F9018951F920F9200905F000F92112474
:1059C00000905B000F922F933F934F935F936F93E1
:1059D0007F938F939F93AF93BF93EF93FF93CF9357
:1059E000DF93CDB7DEB78091BC109091BD10892BAD
:1059F00031F08091BC109091BD10FC010995000020
:105A0000DF91CF91FF91EF91BF91AF919F918F91D6
:105A10007F916F915F914F913F912F910F900092E5
:105A20005B000F9000925F000F901F9018951F92DF
:105A30000F9200905F000F92112400905B000F9274
:105A40002F933F934F935F936F937F938F939F9386
:105A5000AF93BF93EF93FF93CF93DF93CDB7DEB7B1
:105A60008091BE109091BF10892B31F08091BE10B3
:105A70009091BF10FC0109950000DF91CF91FF913B
:105A8000EF91BF91AF919F918F917F916F915F91B6
:105A90004F913F912F910F9000925B000F900092D9
:105AA0005F000F901F9018951F920F9200905F005B
:105AB0000F92112400905B000F922F933F934F930E
:105AC0005F936F937F938F939F93AF93BF93EF9366
:105AD000FF93CF93DF93CDB7DEB78091C010909145
