S02400004C4C444E5F6D313238726661315F6B6974726661315F3078303030332E737265632A
S18300000C947B010C949A010C949A010C949A010C949A010C949A010C949A010C949A010C949A010C949A010C949A010C949A010C94003C0C949A010C949A010C949A010C949A010C94682B0C94A52B0C94E22B0C942B2B0C949A010C949A010C949A010C949A010C94FC3F0C949A010C949A010C949A010C949A010C949A010C949A01A0
S18300800C945C2C0C94992C0C94D62C0C941F2C0C949A010C949A010C949A010C949A010C949A010C949A010C94502D0C948D2D0C94CA2D0C94132D0C949A010C94442E0C94812E0C94BE2E0C94072E0C949A010C949A010C949A010C949A010C949A010C949A010C949A010C949A010C949A010C949A010C949A010C949A010C949A0196
S18301000C949A010C9411330C944E330C948B330C94D4320C94C8330C949A010C949A011A1841181F184118241829182E1833183C1838186E616E00696E660000407A10F35A00A0724E18090010A5D4E80000E87648170000E40B54020000CA9A3B000000E1F505000080969800000040420F000000A08601000000102700000000E803D2
S1830180000000006400000000000A00000000000100000000002C76D888DC674F0823DFC1DFAE59E1B1B796E5E3E453C63AE651997696E8E6C28426EB898C9B62ED407C6FFCEFBC9C9F40F2BAA56FA5F490055A2AF75C936B6CF9676DC11BFCE0E40D47FEF520E6B500D0ED902E0300943577050080841E080000204E0A000000C80C3316
S18302003333330F986E12831141EF8D2114893BE65516CFFEE6DB18D1844B381BF77C1D901DA4BBE424203284725E228100C9F124ECA1E53D27330019000C000600030002000100FF00A001CF006700330019000C00070008004003A001CF0067003300190010001000330019000C000600030002000100FF00A001CF0067003300190038
S18302800C00070008004003A001CF0067003300190010001000330019000C000600030002000100FF00A001CF006700330019000C00070008004003A001CF0067003300190010001000330019000C000600030002000100FF00A001CF006700330019000C00070008004003A001CF006700330019001000100011241FBECFEFD1E4DEBFE9
S1830300CDBF13E0A0E0B2E0E6E7FEE900E00BBF02C007900D92AC31B107D9F722E1ACE1B3E001C01D92A430B207E1F70E94F3070C948D4D0C940000CF93DF93CDB7DEB780E094E2A4EFB0E0BC01CD01DF91CF910895CF93DF93CDB7DEB70E949C01DC01CB01BC01CD01DF91CF910895CF93DF9300D0CDB7DEB79A83898389819A81FC01CC
S18303808081282F226089819A81FC01208300000F900F90DF91CF910895CF93DF93CDB7DEB72B970FB6F894DEBF0FBECDBF998788877B876A878A859B85FC0184818D838A859B85FC0185818E838A859B85FC0186818F838A859B85FC0180819181A281B38189839A83AB83BC83888599859E012F5F3F4FB9010E945837882311F081E0C4
S183040001C080E02B960FB6F894DEBF0FBECDBFDF91CF910895CF93DF9300D01F92CDB7DEB79A8389836B8389819A816B810E9466390F900F900F90DF91CF910895CF93DF9300D000D0CDB7DEB79A8389837C836B8389819A810E948539282F8B819C81FC01208300000F900F900F900F90DF91CF910895CF93DF9300D000D0CDB7DEB703
S18304809A8389837C836B8389819A819093F8118093F7118BE092E09093F6118093F5118FE192E09093F4118093F3112B813C8189819A81B9010E94CD0168E37EE387E59EE30E941F4B00000F900F900F900F90DF91CF910895CF93DF93CDB7DEB72C970FB6F894DEBF0FBECDBF9E838D8378876F835A8749873C872B878B859C85FC0182
S18305008081898389859A85FC0180818A838F819885FC0180818B838D819E81FC0180818C8389819A81AB81BC81BC01CD012C960FB6F894DEBF0FBECDBFDF91CF910895CF93DF93CDB7DEB721EE30E042EE50E063EE70E084EE90E00E946B02DC01CB01BC01CD01DF91CF910895CF93DF93CDB7DEB78CED90E02CED30E0F9012081206473
S1830580FC0120838CED90E02CED30E0F9012081277FFC0120830000DF91CF910895CF93DF93CDB7DEB78091320390913303892B41F089E293E00E94480980E090E00E94EF350000DF91CF910895CF93DF93CDB7DEB70E94CF0281E00E94CA340000DF91CF910895CF93DF93CDB7DEB781E0809347030E94A002DC01CB0180934C039093C9
S18306004D03A0934E03B0934F030000DF91CF910895CF93DF93CDB7DEB783E692E0892F8F9383E692E08F930E94A64B0F900F9085E192E00E94480980E090E00E94DC350000DF91CF910895CF93DF93CDB7DEB780913E03882331F089E292E00E94480910923E0380E090E00E94DC350000DF91CF910895CF93DF93CDB7DEB789E692E0F9
S1830680892F8F9389E692E08F930E94A64B0F900F908DE392E00E94480980E090E00E94DC350000DF91CF910895EF92FF920F931F93CF93DF9300D000D0CDB7DEB79C838B838B819C81FC01808591859A83898389819A8128E0FC01ADEAB1E101900D922A95E1F789819A81FC01848180933D0389819A81FC018681882F90E00396880FE5
S1830700991F092E000CAA0BBB0BBC01CD010E948048DC01CB0120E030E040E451E4BC01CD010E946A47DC01CB0120E030E040E252E4BC01CD010E946A47DC01CB0120E034E244E757E4BC01CD010E94D647DC01CB012DEB37E346E857E3BC01CD010E94D647DC01CB018093B5119093B611A093B711B093B8118091B5119091B611A091CC
S1830780B711B091B8112B2F2F932A2F2F93292F2F938F9383E792E0892F8F9383E792E08F930E94A64B0F900F900F900F900F900F908091B0118770282F30E080915102882F90E02817390709F0AEC08091B211882309F0A9C080915102843029F489E093E00E94DC3511C080915102863029F484E293E00E94DC3508C0809151028823FE
S183080021F48AE393E00E94DC3580915102882309F049C08091B011829586958770882F90E09C01220F331F80910B02882F90E0820F931F092E000CAA0BBB0BBC01CD010E9480487B018C018091B5119091B611A091B711B091B8119C01AD01C801B7010E940C49DC01CB01BC01CD010E944848DC01CB019093BE118093BD118091BD11EF
S18308809091BE11292F2F938F938AE792E0892F8F938AE792E08F930E94A64B0F900F900F900F902BC08091B011829586958770882F90E0092E000CAA0BBB0BBC01CD010E9480487B018C018091B5119091B611A091B711B091B8119C01AD01C801B7010E940C49DC01CB01BC01CD010E944848DC01CB019093BE118093BD1181E00E94C4
S183090055348091BD119091BE1186599109092E000CAA0BBB0B21E0AC01BD0181E00E9409350E94B5020DC08091B0118770873041F480E00E94A11D10923E0384E08093510281E00F900F900F900F90DF91CF911F910F91FF90EF900895CF93DF9300D000D000D0CDB7DEB79E838D838D819E8199230CF40796959587959595879595957D
S183098087959A8389838D819E8187709078992324F40197886F9F6F01969C0188E090E0821B930B9C838B832091C1113091C21189819A81820F931F0196FC018081882F90E0292F2F938F9386E892E0892F8F9386E892E08F930E94A64B0F900F900F900F902091C1113091C21189819A81820F931F0196FC018081882F90E00B8002C0D3
S1830A00959587950A94E2F781709927892B11F081E001C080E026960FB6F894DEBF0FBECDBFDF91CF910895EF92FF920F931F93CF93DF9300D000D000D0CDB7DEB79E838D838D819E81FC01808591859093C2118093C1118091C1119091C211FC01908180913D03981709F0CCC080915102882309F0ABC080910B02882F90E001960E94EE
S1830A80AD0480933E0390913E0381E08927882309F4B7C01A8219821C821B8214C08B819C8101960E94AD04982F81E08927882329F089819A8101969A8389838B819C8101969C838B8380910B02282F30E08B819C818217930784F48091B411882F90E0039799230CF40196959587959C018B819C81821793079CF289819A81892B29F48E
S1830B008DE392E00E9448093BC00E94B5028AE393E00E94DC3581E00E94553489819A81092E000CAA0BBB0BBC01CD010E9480487B018C018091B5119091B611A091B711B091B8119C01AD01C801B7010E940C49DC01CB0120E030E040E252E4BC01CD010E946947DC01CB01BC01CD010E944F48DC01CB0121E0AC01BD0181E00E94093512
S1830B808091B5119091B611A091B711B091B8112B2F2F932A2F2F93292F2F938F938A818F9389818F9386E992E0892F8F9386E992E08F930E94A64B8DB79EB708960FB6F894DEBF0FBECDBF1CC083E090E00E94AD0480933E0380915102843091F480913E03882371F082EB92E0892F8F9382EB92E08F930E94A64B0F900F9086E080933F
S1830C00510281E026960FB6F894DEBF0FBECDBFDF91CF911F910F91FF90EF900895CF93DF9300D000D0CDB7DEB79C838B838EEB92E0892F8F938EEB92E08F930E94A64B0F900F908B819C81FC0180859185FC0180818F3009F054C08B819C81FC01808591859A83898389819A81FC018481833009F046C089819A81FC0182810E94621EFC
S1830C8089819A81FC018181882F90E00E947A0889819A81FC01818180933D0389819A81FC01838180930B0289819A81FC0185818F778093270381E0809340031092510281E00E94A11D80912703282F30E080910B02882F90E0432F4F932F93292F2F938F938CEC92E0892F8F938CEC92E08F930E94A64B0F900F900F900F900F900F9096
S1830D0081E00F900F900F900F90DF91CF910895CF93DF93CDB7DEB710922F0310922E0383E08093300383E08093310380E090E890933303809332038DE092E0909337038093360383E0809338030000DF91CF910895CF93DF93CDB7DEB710922F0310922E0383E08093300383E08093310380E090E8909333038093320380E192E09093C9
S1830D8037038093360385E0809338030000DF91CF910895CF93DF93CDB7DEB781E00E94A11D10922F0310922E0383E08093300383E08093310380E090E290933303809332038CE092E0909337038093360381E0809338030000DF91CF910895CF93DF93CDB7DEB783E090E00E9463088FE00E94621E81E00E94521E0E94880680E00E9488
S1830E00A11D0E94301E8FE780930A0265E573E080E00E94910864E175E084E00E9491086FE076E083E00E94910881E00E94DC1D0000DF91CF910895CF93DF9300D000D0CDB7DEB780912803882F90E084309105E9F0853091052CF4009761F0029781F0BAC086309105B1F186309105ACF00797B9F1B1C00E94EE0681E080932803ABC0F5
S1830E800E94CF0281E080932803A5C00E94880681E0809328039FC080913E03882389F08091B211882369F49091400381E08927882339F080915102882319F00E94A90603C081E00E94CA3410923E0381E08093280381C00E94CA0681E0809328037BC090913E0381E08927882309F470C081E0809328031A8219821C821B8213C08B8137
S1830F009C810E94AD04982F81E08927882329F089819A8101969A8389838B819C8101969C838B8380910B02882F90E09C01215031098B819C818217930784F48091B411882F90E0039799230CF40196959587959C018B819C81821793078CF28A818F9389818F938EEE92E0892F8F938EEE92E08F930E94A64B0F900F900F900F9089813D
S1830F809A81892B19F40E94CF0224C00E94B50285EE92E00E94DC3581E00E9455344091BF115091C01129813A81429FC001439F900D529F900D1124092E000CAA0BBB0B21E0AC01BD0181E00E94093503C081E080932803000000000F900F900F900F90DF91CF9108950F931F93CF93DF93CDB7DEB727970FB6F894DEBF0FBECDBF0E9403
S18310001F3D0E9454400E9442210E948232789427E0E5E0F3E0CE010196DC0101900D922A95E1F7CE010196BC0180EC90E00E943A0280EC90E00E94B6010E94A901DC01CB018C019D0140E052EC61E070E080EC90E00E94013A0E9452210E941C07FBCFCF93DF931F92CDB7DEB71092C7111092C8111092C4111092C3111092EA1110928D
S1831080E91119820EC08981882F90E00396880F991F8D539E4EFC011182108289818F5F89838981803178F30E9452180E94FF0F0E949D0D0E943C090E94390F00000F90DF91CF910895CF93DF9300D0CDB7DEB79A83898389819A819093C4118093C31189819A810E949C1E00000F900F90DF91CF910895CF93DF9300D0CDB7DEB79A8383
S1831100898389819A819093C6118093C51189819A810E94781E00000F900F90DF91CF910895CF93DF9300D01F92CDB7DEB789837B836A838981882F90E00396880F991F8D539E4E2A813B81FC013183208300000F900F900F90DF91CF910895CF93DF93CDB7DEB78091E9119091EA1121E0892B09F420E0822FDF91CF910895CF93DF9348
S1831180CDB7DEB78091E9119091EA1101969093EA118093E9110000DF91CF910895CF93DF93CDB7DEB78091E9119091EA1101979093EA118093E9110000DF91CF910895CF93DF93CDB7DEB70E94E51E0000DF91CF910895CF93DF93CDB7DEB70E94FE1E0000DF91CF910895CF93DF93CDB7DEB72C970FB6F894DEBF0FBECDBF8C8789E0AE
S1831200ECE0F3E0DE01139601900D928A95E1F789E189831A8215C09C858981981758F48A81882F90E09E012D5F3F4F820F931FFC0180810AC08981875E89838A818F5F8A838A81893040F38FEF2C960FB6F894DEBF0FBECDBFDF91CF910895CF93DF93CDB7DEB70E94FA170E94111C0E94670D0000DF91CF910895CF93DF93CDB7DEB74E
S183128010925103109250030000DF91CF910895CF93DF9300D0CDB7DEB79A83898389819A81FC01148289819A81FC01128A89819A81FC01138212828091E9119091EA1101969093EA118093E9118091500390915103892B61F489819A81FC011182108289819A8190935103809350030FC0209150033091510389819A81FC013183208376
S183130089819A81909351038093500300000F900F90DF91CF910895CF93DF93CDB7DEB728970FB6F894DEBF0FBECDBF98878F838F819885FC01818592858034910598F40E94BC0D9A83898389819A81892B61F58F81988522E0FC0124838F81988522E0FC01228BFEC28F819885FC018185928580749927892B21F081E00E942E0E03C08A
S183138080E00E942E0E9A83898389819A81892B59F48F81988522E0FC0124838F81988522E0FC01228BDDC28F819885FC018185928580749927892B09F4C9C089819A810E94D11889819A818A579F4FFC0110828F819885FC018185928580789927892B89F18091AB119091AC111816190614F58F819885FC018785482F50E08F81988571
S1831400FC012585368589819A818F579F4FFC0180819181B9010E94044B89819A81FC0121818F819885FC018785280F89819A81FC01218389819A81FC012581287FFC01258334C08F819885FC018185928588279170892B49F089819A81FC012581287F2460FC01258322C08F819885FC018185928588279270892B49F089819A81FC01EE
S18314802581287F2660FC01258310C08F819885FC018185928588279470892B39F089819A81FC0125812760FC01258389819A81FC012581277FFC01258389819A81FC0125812F7EFC01258389819A81FC0125812F712064FC0125838F819885FC018185928588279870892B31F089819A8121E0FC01278313C08F819885FC01818592855D
S183150088279071892B31F089819A8122E0FC01278304C089819A81FC0117822091270389819A81FC0120878091BB119091BC11282F89819A81FC0121878EEF9AEC9C838B8389819A812EEFFC012683F5C18F819885FC0181859285992394F08F819885FC018185928588279072892B49F48F819885FC018185928588279074892B99F18F
S18315808F819885FC012185328589819A81B9010E94241989819A818A579F4FFC0110828F819885FC018785482F50E08F819885FC012585368589819A818F579F4FFC0180819181B9010E94044B89819A81FC0121818F819885FC018785280F89819A81FC012183A9C18F819885FC018185928580729927892B09F462C089819A818A57CC
S18316009F4FFC01108289819A81FC012185207F2860FC01218789819A81FC0121852F702066FC01218789819A81FC012285207F2160FC01228789819A81FC0122852061FC01228789819A81FC0122852064FC01228789819A81FC0122852F77FC01228789819A81FC01138689819A81FC0114868F819885FC018785482F50E08F819885BB
S1831680FC012585368589819A818F579F4FFC0180819181B9010E94044B89819A81FC0121818F819885FC018785280F89819A81FC01218389819A810E9486183DC18F819885FC0181859285892B09F435C18F819885FC01818592858470992721E0892B09F420E089819A818A579F4FFC0120838F819885FC01818592858170992721E04E
S1831700892B09F420E089819A812170FC0133853E7F232BFC0123878F819885FC01818592858870992721E0892B09F420E089819A812170220F220FFC0133853B7F232BFC0123878F819885FC01818592858072992721E0892B09F420E089819A8121702295207FFC0133853F7E232BFC0123878F819885FC01818592858071992721E053
S1831780892B09F420E089819A812170220F220F220FFC013385377F232BFC01238789819A81FC0183858870882309F462C089819A818F579F4FFC01808191819E838D838F819885FC018385282F2F708D819E812F70FC013181307F232BFC0121838F819885FC018385282F2F708D819E812295207FFC0131813F70232BFC0121838F811C
S18318009885FC018485282F2F708D819E812F70FC013081307F232BFC0120838F819885FC018485282F2F708D819E812295207FFC0130813F70232BFC01208389819A818F579F4FFC01808191819C012E5F3F4F89819A818F579F4FFC013183208389819A81FC01818122E0280F89819A81FC0121838091C7118F5F8093C7112091C711C1
S183188089819A81FC0124872091C3113091C41189819A81FC01368725878F819885FC012581368189819A81FC01308B27878F819885FC018085282F2F7089819A812F70FC013189307F232BFC01218B8F819885FC018781282F2F7089819A812295207FFC0131893F70232BFC01218B8F819885FC018785482F50E08F819885FC01258568
S1831900368589819A818F579F4FFC0180819181B9010E94044B89819A81FC0121818F819885FC018785280F89819A81FC01218389819A810E9498198F81988529813A81FC01338322838F81988521E0FC01248389819A8189579F4F2AEB3CE0FC013183208328960FB6F894DEBF0FBECDBFDF91CF910895CF93DF9300D000D0CDB7DEB752
S18319809C838B8380915003909151039A8389832BC089819A81FC01228133818B819C8128173907D1F48B819C818D579F4FFC01208189819A81FC01228B8B819C818A579F4FFC01208189819A81FC01238B89819A8122E0FC0124830BC089819A81FC01808191819A83898389819A81892B89F68B819C810E94C60E00000F900F900F904D
S1831A000F90DF91CF910895CF93DF9300D000D0CDB7DEB79C838B8320915003309151038B819C812817390761F48091500390915103FC0180819181909351038093500325C080915003909151039A83898307C089819A81FC01808191819A83898389819A81FC01208131818B819C812817390779F789819A81FC0180819181FC01208154
S1831A80318189819A81FC01318320838091E9119091EA1101979093EA118093E9118B819C81FC0180899189892B49F08B819C81FC01208931898B819C81F901099500000F900F900F900F90DF91CF910895CF93DF9300D0CDB7DEB780915003909151039A83898321C089819A81FC018481882F90E08130910581F08230910541F0892B91
S1831B0009F00BC089819A810E948C0911C089819A810E94040D0CC0000089819A81FC01808191819A83898389819A81892BD9F60F900F90DF91CF910895CF93DF931F92CDB7DEB7198210C08981282F30E049E8429FC001439F900D11248E5A9C4FFC01108289818F5F89838981843168F300000F90DF91CF910895CF93DF931F92CDB785
S1831B80DEB7198261C08981282F30E049E8429FC001439F900D11248E5A9C4FFC018081882309F04EC08981282F30E049E8429FC001439F900D11248E5A9C4F49E850E060E070E00E940D4B8981282F30E049E8429FC001439F900D11248D5A9C4FFC0110828981482F50E08981282F30E069E8629FC001639F900D112402969C012E5A40
S1831C003C4F69E8649FC001659F900D11248D529C4FFC01318320838091E9119091EA1101969093EA118093E9118981282F30E049E8429FC001439F900D11248E5A9C4F09C089818F5F89838981843108F49BCF80E090E00F90DF91CF910895CF93DF9300D0CDB7DEB78A83198285C08981282F30E049E8429FC001439F900D11248E5AC0
S1831C809C4FFC018081882309F072C08981282F30E049E8429FC001439F900D11248E5A9C4F49E850E060E070E00E940D4B8A81882379F08981282F30E049E8429FC001439F900D11248D5A9C4F28E0FC0120830EC08981282F30E049E8429FC001439F900D11248D5A9C4F23E0FC0120838981482F50E08981282F30E069E8629FC0016A
S1831D00639F900D112402969C012E5A3C4F8981682F70E0E9E8E69FC001E79F900D11248D5A9C4FFC018081882F90E0280F391F69E8649FC001659F900D11248D529C4FFC01318320838091E9119091EA1101969093EA118093E9118981282F30E049E8429FC001439F900D11248E5A9C4F09C089818F5F89838981843108F477CF80E072
S1831D8090E00F900F90DF91CF910895CF93DF9300D0CDB7DEB79A83898389819A81FC0110828091E9119091EA1101979093EA118093E91100000F900F90DF91CF910895CF93DF9300D0CDB7DEB79A83898389819A81892B29F482E593E09A83898316C089819A8187579F4F9A8389830FC089819A81FC018081882319F089819A810DC02E
S1831E0089819A8187579F4F9A83898389819A8186509E4060F380E090E00F900F90DF91CF910895CF93DF9300D0CDB7DEB79A83898389819A818D579F4FFC0110828091C7118F5F8093C7112091C71189819A81FC0124872091C3113091C41189819A81FC013687258700000F900F90DF91CF910895CF93DF931F92CDB7DEB719820FC0C0
S1831E808981882F90E0880F991F8A5F914F2FEF3FEFFC013183208389818F5F89838981833070F300000F90DF91CF910895CF93DF9300D0CDB7DEB79A83898389819A81BC018FEF9FEF0E94A40F0F900F90DF91CF910895CF93DF9300D0CDB7DEB79A83898389819A816FEF7FEF0E94A40F0F900F90DF91CF910895CF93DF9300D01F92C5
S1831F00CDB7DEB79B838A83198214C08981882F90E0880F991F8A5F914FFC01208131818A819B812817390711F481E007C089818F5F89838981833048F380E00F900F900F90DF91CF910895CF93DF9300D000D01F92CDB7DEB79B838A837D836C83198220C08981882F90E0880F991F8A5F914FFC01208131818A819B812817390771F421
S1831F808981882F90E0880F991F8A5F914F2C813D81FC013183208381E007C089818F5F898389818330E8F280E00F900F900F900F900F90DF91CF910895CF93DF9300D0CDB7DEB79A83898389819A81FC01418189819A818F579F4FFC01808191819C0189819A810296B901681B790BCB01742F781B872F0F900F90DF91CF910895CF9377
S1832000DF931F92CDB7DEB7198211C08981282F30E0C901880F991F880F991F820F931F805F914FFC01108289818F5F89838981823360F384E690E0A0E0B0E080930D0F90930E0FA0930F0FB093100F1092110F85E392E19093130F8093120F66E573E180E00E94910800000F90DF91CF910895CF93DF9300D000D000D0CDB7DEB79E834E
S18320808D838AE090E00E94BA4B1C821B8222C08D819E81FC01208131818B819C81820F931FFC018081882F90E0292F2F938F9385E193E0892F8F9385E193E08F930E94A64B0F900F900F900F908B819C8101969C838B838D819E81FC018281282F30E08B819C81821793079CF28D819E81FC0180819181FC0180818C3041F48D819E8163
S1832100FC018281883008F064C011C18D819E81FC0180819181FC0180818C3C91F08D819E81FC0180819181FC0180818C3849F08D819E81FC0180819181FC0180818C3441F48D819E81FC018281833008F041C0EEC08D819E81FC01808191810196FC0180818838D1F48D819E81FC0180819181FC018081813651F08D819E81FC0180818D
S18321809181FC018081813409F0C6C08D819E81FC0182818031E8F4BFC08D819E81FC01808191810196FC018081803809F0B6C08D819E81FC0180819181FC018081882309F0AEC08D819E81FC0182818B3008F4A7C08D819E81FC01808191810196FC018081883851F08D819E81FC01808191810196FC0180818038D9F40E94BC0D9A831B
S1832200898389819A81892B09F48CC08D819E81FC01808191810196FC018081883811F420E201C025E289819A81FC01208346C08D819E81FC0180819181FC0180818C3081F481E00E942E0E9A83898389819A81892B09F469C089819A8126E2FC0120832DC080E00E942E0E9A83898389819A81892B09F45BC08D819E81FC0180819181DE
S1832280FC0180818C3831F489819A8128E2FC01208314C08D819E81FC0180819181FC0180818C3C31F489819A8127E2FC01208305C089819A8129E2FC0120838D819E81FC01228189819A81FC0121838D819E81FC01238189819A818D579F4FFC0120838D819E81FC01248189819A818C579F4FFC0120838D819E81FC018281482F50E094
S18323008D819E81FC012081318189819A810296B9010E94044B0BC0000009C0000007C0000005C0000003C0000001C0000026960FB6F894DEBF0FBECDBFDF91CF910895CF93DF9300D000D000D0CDB7DEB79E838D830E94BC0D9A83898389819A81892B09F46BC08D819E81FC01818120E1280F8D819E81FC0121838D819E818F579F4F0A
S1832380FC01808191819C01205F3F4F8D819E818F579F4FFC013183208389819A810E94120F89819A81FC01818123E0280F89819A81FC01218389819A8189579F4FFC01118210828D819E81FC01838581FB222720F989819A812170220FFC0133853D7F232BFC0123878D819E81FC012585368589819A81FC01308B278789819A818F5727
S18324009F4FFC01808191819C838B838B819C81FC0110822091060F8B819C81FC0122838D819E81FC0124858B819C81FC01218389819A810E94981901C0000026960FB6F894DEBF0FBECDBFDF91CF910895CF93DF931F92CDB7DEB7898389818093060F00000F90DF91CF910895CF93DF9300D000D0CDB7DEB79C838B8319821A8230C0D5
S18324808A81282F30E0C901880F991F880F991F820F931F805F914FFC0180818823E9F08A81282F30E0C901880F991F880F991F820F931F805F914FFC0180814FEF480FC901880F991F880F991F820F931F805F914FFC01408381E089838A818F5F8A838A81823368F28981882321F08B819C810E94982100000F900F900F900F90DF911E
S1832500CF910895CF93DF93CDB7DEB729970FB6F894DEBF0FBECDBF998788871A8219821B8290C08B81282F30E0C901880F991F880F991F820F931F845F914F9D838C838C819D81FC018481882309F46EC088859985FC01238534858C819D81FC01808191812817390709F060C08C819D81FC01228188859985FC018285F22FF81B8F2FB8
S18325808E838E81883058F58C819D81FC018381882F90E02E81222F30E002C0959587952A95E2F781709927892B11F081E075C08C819D81FC018381482F8E81282F30E081E090E002C0880F991F2A95E2F7842B282F8C819D81FC01238380E05EC08E8181958F8388859985FC0122858C819D81FC0122838C819D81FC018381882F90E0A8
S18326002F81222F30E002C0880F991F2A95E2F78160282F8C819D81FC0123838C819D8125E1FC01248380E038C08C819D81FC018481882321F48C819D819A8389838B818F5F8B838B81823308F46CCF89819A81892B11F481E021C088859985FC012385348589819A81FC013183208388859985FC01228589819A81FC01228389819A814B
S183268021E0FC01238389819A8125E1FC01248387E09FE00E94982180E029960FB6F894DEBF0FBECDBFDF91CF910895CF93DF9300D0CDB7DEB79A83898389819A81FC018285882311F480E011C089819A81FC0180859185FC018081882F90E0892B29F489819A810E94BE1A01C080E00F900F90DF91CF910895CF93DF93CDB7DEB7289715
S18327000FB6F894DEBF0FBECDBF98878F838F81988502969B838A838F81988524E2FC0120838A819B81FC0181858270882309F03BC18A819B81FC0181858870882341F08A819B81FC0181858170882309F02EC18A819B81FC01838194810196D1F42091C3113091C4118A819B81FC01858596852817390741F08A819B81FC0185859685BC
S1832780019609F015C18F81988522E2FC0120830FC18A819B81FC0185859685019641F48A819B81FC0181858170882309F002C12091C3113091C4118A819B81FC01838594852817390709F4F7C08A819B810E948212882309F0F2C08A819B81FC0181858870882309F4A9C08F8198858F579F4FFC01808191819D838C838A819B81FC015A
S1832800858596850E947C0F8E8319828A819B81FC0185819681019609F061C08E81882379F18C819D81FC0181818F70882F90E021E0181619060CF020E029838C819D81FC0181818F702FE0280F2F708C819D812F70FC013181307F232BFC0121838C819D81FC018081282F22952F708C819D812F70FC013081307F232BFC0120833BC0EF
S18328808C819D81FC0180818F70882F90E021E0181619060CF020E029838C819D81FC0180818F702FE0280F2F708C819D812F70FC013081307F232BFC0120838C819D81FC018181282F22952F708C819D812F70FC013181307F232BFC0121830CC08E81882349F081E089838A819B81FC0121852460FC0121878981882321F08F8198856D
S18329000E942F1A8E81882309F459C08F8198858F579F4FFC01808191819C012E5F3F4F8F8198858F579F4FFC01318320838F81988522E2FC01208342C08A819B81FC01858196810196B9F42091C3113091C4118A819B81FC01858596852817390759F08A819B81FC0181858470882321F48F8198850E942F1A2091C3113091C4118A81DA
S18329809B81FC01858596852817390739F08A819B81FC0185859685019689F48F81988522E2FC0120830BC0000009C0000007C0000005C0000003C0000001C0000028960FB6F894DEBF0FBECDBFDF91CF910895CF93DF93CDB7DEB761970FB6F894DEBF0FBECDBF998B888B8889998902969A83898389819A81FC01878582958F70882F57
S1832A0090E00396880F991F8D539E4EFC0180819181892B11F480E0D9C089819A81FC01838594859C838B8389819A81FC01858596859E838D8389819A81FC0187858F708F8389819A81FC01878582958F708887888999898F579F4FFC01808191819C878B87888999890E94DD0F8D87888999898D579F4FFC0180818E87888999898C57A3
S1832A809F4FFC0180818F8789819A81FC018185982F917081E0992309F480E0882F90E09A87898729853A8589819A81FC018185882F90E082709927822B932B9A87898729853A8589819A81FC0181858470882319F080E290E002C080E090E0822B932B9A87898729853A8589819A81FC0181858870882319F080E490E002C080E090E020
S1832B00822B932B9A87898729853A8589819A81FC0181858071882319F080E890E002C080E090E0822B932B9A87898729853A8589819A81FC0185859685019619F484E090E002C080E090E0822B932B9A87898729853A8589819A81FC014385548589819A81FC01878190854817590719F488E090E002C080E090E0822B932B9A878987DA
S1832B8029853A8589819A81FC0183819481019619F480E190E002C080E090E0822B932B9A87898789819A81FC01878582958F70882F90E00396880F991F8D539E4EFC0120813181CE010396F901099561960FB6F894DEBF0FBECDBFDF91CF910895CF93DF93CDB7DEB761970FB6F894DEBF0FBECDBF998B888B8889998902969A83898315
S1832C008889998924E2FC0120838091C9119091CA11892B11F480E044C088899989FC01878190859C838B8388899989FC01878190859E838D831F821886888999898F579F4FFC01808191819C878B87888999890E94DD0F8D87888999898D579F4FFC0180818E87888999898C579F4FFC0180818F8780E890E09A87898789819A81FC01C0
S1832C80878582958F70882F90E00396880F991F8D539E4EFC0120813181CE010396F901099561960FB6F894DEBF0FBECDBFDF91CF910895CF93DF93CDB7DEB72F970FB6F894DEBF0FBECDBF9F878E878E859F8524E2FC0120838091C9119091CA11892B11F480E02AC01A8219821C821B821D821E828E859F8502969A8789878E859F85F4
S1832D000E94DD0F8B878E859F858D579F4FFC0180818C878E859F858C579F4FFC0180818D8780E091E098878F832091C9113091CA11CE010196F90109952F960FB6F894DEBF0FBECDBFDF91CF910895CF93DF93CDB7DEB761970FB6F894DEBF0FBECDBF998B888B8889998902969A8389838889998924E2FC0120838091CF119091D011B8
S1832D80892B11F480E02EC01C821B821E821D821F821886888999898F579F4FFC01808191819C878B87888999890E94DD0F8D87888999898D579F4FFC0180818E87888999898C579F4FFC0180818F8780E092E09A8789872091CF113091D011CE010396F901099561960FB6F894DEBF0FBECDBFDF91CF910895CF93DF93CDB7DEB76197F8
S1832E000FB6F894DEBF0FBECDBF998B888B8889998902969A8389838889998924E2FC0120838091CB119091CC11892B11F480E02EC01C821B821E821D821F821886888999898F579F4FFC01808191819C878B87888999890E94DD0F8D87888999898D579F4FFC0180818E87888999898C579F4FFC0180818F8780E094E09A878987209151
S1832E80CB113091CC11CE010396F901099561960FB6F894DEBF0FBECDBFDF91CF910895CF93DF93CDB7DEB761970FB6F894DEBF0FBECDBF998B888B8889998902969A8389838889998924E2FC0120838091D1119091D211892B11F480E02EC01C821B821E821D821F821886888999898F579F4FFC01808191819C878B87888999890E94A1
S1832F00DD0F8D87888999898D579F4FFC0180818E87888999898C579F4FFC0180818F8780E090E49A8789872091D1113091D211CE010396F901099561960FB6F894DEBF0FBECDBFDF91CF910895CF93DF9300D01F92CDB7DEB79B838A831092060F8A819B810E94E81489838A819B81FC0183858170882309F419828A819B81FC01878189
S1832F8090850196A9F42091C3113091C4118A819B81FC01878590892817390749F48A819B81FC0183858870882311F481E089838A819B81FC0185819681019609F419828091C3119091C411019609F419828981882321F08A819B810E94A0118A819B8124E2FC01208300000F900F900F90DF91CF910895CF93DF9300D0CDB7DEB71A82F9
S183300019823FC089819A81FC018081882F90E0092E000CAA0BBB0B40E250E029E030E0841B950B2817390760F180579F4FFC010C94AF4989819A810E947B1322C089819A810E94A5171DC089819A810E94C60E18C089819A810E94EF1513C089819A810E945A160EC089819A810E94A61609C089819A810E94FB1689819A810E945017D7
S1833080000089819A810E94E00E9A83898389819A81892B09F0B6CF00000F900F90DF91CF910895CF93DF93CDB7DEB71092150F1092140F82E390E0A0E0B0E080931C0F90931D0FA0931E0FB0931F0F1092200F8DE09BE19093220F8093210F8AE090E0A0E0B0E08093290F90932A0FA0932B0FB0932C0F10922D0F87E79BE190932F0F3B
S183310080932E0F0000DF91CF910895CF93DF9300D000D0CDB7DEB79C838B838B819C8102969A8389838B819C8123E1FC0120838B819C818D579F4FFC0110828B819C818C579F4FFC011182108289819A8120E030E8FC01318320838091C8118F5F8093C8112091C81189819A81FC0122832091C5113091C61189819A81FC013483238333
S18331802091C3113091C41189819A81FC013683258300000F900F900F900F90DF91CF910895CF93DF9300D000D0CDB7DEB79C838B838B819C8102969A8389838B819C8123E1FC0120838B819C818D579F4FFC0110828B819C818C579F4FFC011182108289819A812CE0FC0120838091C8118F5F8093C8112091C81189819A81FC01218348
S183320089819A81FC012281287FFC01228389819A81FC012281277EFC01228389819A81FC0122812F7DFC01228389819A81FC0122812F7BFC01228300000F900F900F900F90DF91CF910895CF93DF9300D000D000D0CDB7DEB79C838B837E836D838B819C8102969A8389838B819C8123E1FC0120838B819C818D579F4FFC0110828B815B
S18332809C818C579F4FFC01118210828D819E81992334F489819A812CECFC01208317C08D819E8188279072892B31F089819A812CE4FC0120830BC08D819E8188279074892B29F089819A812CE8FC0120838091C8118F5F8093C8112091C81189819A81FC01218389819A81FC012281287FFC01228389819A81FC012281277EFC012283EE
S183330089819A81FC0122812F7DFC01228389819A81FC0122812F7BFC012283000026960FB6F894DEBF0FBECDBFDF91CF910895CF93DF9300D000D0CDB7DEB79C838B838B819C8102969A8389838B819C818A579F4FFC018081882F90E082709927892B31F08B819C8122E1FC01208305C08B819C8122E1FC0120838B819C818D579F4F15
S1833380FC0110828B819C818A579F4FFC018081882F90E081709927892B41F089819A812FEF3FEFFC013483238309C02091C5113091C61189819A81FC013483238389819A81FC012585368589819A81FC01368325832091C3113091C41189819A81FC01308727838091C8118F5F8093C8112091C81189819A81FC01228389819A81FC0176
S1833400858196810196A9F489819A8121E438E8FC01318320830E94124A8770992701969C018B819C818C579F4FFC01318320830EC089819A8121E438E8FC01318320838B819C818C579F4FFC011182108200000F900F900F900F90DF91CF910895CF93DF9300D000D0CDB7DEB79C838B830E94BC0D9A83898389819A81892B09F476C057
S183348089819A818F579F4FFC01808191819C01205F3F4F89819A818F579F4FFC013183208389819A8122E1FC0120838B819C81FC01218189819A81FC01218389819A818D579F4FFC0110820E94124A8770992701969C0189819A818C579F4FFC013183208389819A8189579F4FFC01118210828B819C81FC018181482F50E08B819C81AC
S18335009C012E5F3F4F89819A810296B9010E94044B89819A8121E438E8FC013383228389819A812FEF3FEFFC01308727838B819C81FC012581368189819A81FC01368325832091C3113091C41189819A81FC01328721878091C8118F5F8093C8112091C81189819A81FC01248301C000000F900F900F900F90DF91CF910895CF93DF937D
S183358000D000D000D0CDB7DEB79E838D838D819E81FC01808591859C838B831A8219828D819E81FC018285833019F180E02CC089819A81FC0180818631D9F489819A81FC0124858B819C81FC018181281789F489819A8127E1FC0120838B819C81FC01228189819A818A579F4FFC01208381E00BC089819A810E94E00E9A838983898196
S18336009A81892BA9F680E026960FB6F894DEBF0FBECDBFDF91CF910895CF93DF9300D000D01F92CDB7DEB79D838C831A8219821B8227C089819A81FC018081863109F581E08B8389819A818C579F4FFC01808191819C012150310989819A818C579F4FFC013183208389819A818C579F4FFC0180819181892B29F489819A8160E10E9422
S18336805B1B89819A810E94E00E9A83898389819A81892B79F68B81882321F08C819D810E94982100000F900F900F900F900F90DF91CF910895CF93DF9300D01F92CDB7DEB79A8389836B8389819A8127E1FC01208389819A818D579F4F2B81FC01208300000F900F900F90DF91CF910895CF93DF9300D000D01F92CDB7DEB79D838C8308
S18337001A8219821B8227C089819A81FC018081813109F581E08B8389819A818C579F4FFC01808191819C012150310989819A818C579F4FFC013183208389819A818C579F4FFC0180819181892B29F489819A8123E1FC01208389819A810E94E00E9A83898389819A81892B79F68B81882321F08C819D810E94982100000F900F900F90BF
S18337800F900F90DF91CF910895CF93DF931F92CDB7DEB789838981882F90E08130910539F08230910531F0892B31F480E005C080E203C081E201C081E00F90DF91CF9108950F931F93CF93DF931F92CDB7DEB789830091140F1091150F89810E94C51B282FC8018D579F4FFC0120838091140F9091150F25E1FC0120831092150F109296
S1833800140F8091E9119091EA1101979093EA118093E91100000F90DF91CF911F910F910895CF93DF9300D0CDB7DEB71A821982B3C089819A81FC018081882F90E08431910509F4A9C08531910534F48231910579F0439731F19FC08631910509F49CC0863191050CF443C0479709F47AC093C089819A818C579F4FFC0180819181892BE0
S183388051F089819A8121E1FC01208383E29FE00E94982181C089819A8123E1FC0120837BC08091140F9091150F892B09F074C089819A819093150F8093140F89819A8124E1FC01208389819A81FC01218189819A810296622F0E94121F8091E9119091EA1101969093EA118093E91155C089819A818D579F4FFC018081882361F589818F
S18339009A81FC01258536858091C3119091C41128173907D1F489819A81FC0183858170882399F089819A8126E1FC01208389819A818C579F4F25E130E0FC013183208386E19FE00E9498210BC089819A8127E1FC01208321C089819A8127E1FC0120831BC089819A8189579F4FFC0180819181892B29F489819A810E94C60E0DC0898184
S18339809A8189579F4FFC012081318189819A81F901099501C0000089819A810E94E00E9A83898389819A81892B09F042CF00000F900F90DF91CF910895CF93DF9300D0CDB7DEB79A83898389819A81892B09F47BC089819A818837910549F461E080E00E94453D60E180E00E94453D6DC089819A81803C910529F462E080E00E94453DE1
S1833A0063C089819A818C34910529F464E080E00E94453D59C089819A818038910529F468E080E00E94453D4FC089819A818434910529F460E280E00E94453D45C089819A81803B910529F460E480E00E94453D3BC089819A81883B910529F460E880E00E94453D31C089819A81883C910529F461E081E00E94453D27C089819A8180390B
S1833A80910529F468E081E00E94453D1DC089819A81803A910529F460E181E00E94453D13C089819A818032914029F460E281E00E94453D09C089819A818334914021F460E481E00E94453D00000F900F90DF91CF9108956150710981099109D9F70895CF93DF93CDB7DEB783E491E00E94DD1C89E391E0FC0120812160FC012083109255
S1833B00B10F81E08093300F88E00E94EF1F8CE491E0FC0120812068FC0120830000DF91CF910895CF93DF93CDB7DEB789E391E0FC0120812160FC0120830000DF91CF910895CF93DF931F92CDB7DEB7898389818823B1F08CE691E0FC0120812F70FC0120838CE691E0FC0120812E60FC0120838EE691E0FC0120812061FC01208317C0C2
S1833B808CE691E0FC0120812F702063FC0120838CE691E0FC012081217F2860FC0120838EE691E0FC0120812F7EFC01208300000F90DF91CF910895CF93DF93CDB7DEB729970FB6F894DEBF0FBECDBF898728E0CE010196FC01322F11923A95E9F78985882349F180E090E00E949C1E80E090E00E94781ECE0101960E94142087E591E0F7
S1833C00FC0120812260FC01208387E591E0FC0120812061FC01208387E591E0FC0120812F7DFC0120838EE691E0FC0120812061FC0120830BC087E591E0FC0110828EE691E0FC0120812F7EFC012083000029960FB6F894DEBF0FBECDBFDF91CF9108950F931F93CF93DF93CDB7DEB78FE691E0FC012081207F2360FC0120838FE691E092
S1833C80FC0120812F702068FC0120830DE611E00E94531FF80180830000DF91CF911F910F910895CF93DF931F92CDB7DEB7898389818093B10F0E94D81F00000F90DF91CF910895CF93DF931F92CDB7DEB7898388E491E029812F712F71FC013081307E232BFC01208300000F90DF91CF910895CF93DF9300D000D0CDB7DEB79C838B83FD
S1833D00CE0103969A83898382E691E029813A81F9012081FC01208383E691E029813A81F9012181FC01208300000F900F900F900F90DF91CF910895CF93DF9300D000D0CDB7DEB79C838B83CE0103969A83898380E691E029813A81F9012081FC01208381E691E029813A81F9012181FC0120838DE691E029813A81F901408129813A812D
S1833D802F5F3F4FF9012081240FFC01208300000F900F900F900F90DF91CF910895CF93DF931F92CDB7DEB7898385E491E029812F702F70FC013081307F232BFC01208300000F90DF91CF910895CF93DF93CDB7DEB78091300F823069F088E00E94EF1F89E391E0FC0120812260FC01208382E08093300F0000DF91CF910895CF93DF9397
S1833E00CDB7DEB789E391E0FC0120812D7FFC0120830E94D81F81E08093300F0000DF91CF910895CF93DF9300D000D0CDB7DEB79B838A836C8389E10E94EF1F8FE491E02FEFFC01208380E891E02C812E5FFC012083198214C08981882F90E08F579E4FAC018981882F90E02A813B81820F931FFC018081FA01808389818F5F898399817A
S1833E808C81981740F383E08093300F82E491E022E0FC01208300000F900F900F900F90DF91CF910895CF93DF9300D01F92CDB7DEB71A82198286E00E94EF1F1B8222C062E070E080E090E00E946A1D86E491E0FC0180818295869587708370882F90E02B81222F30E002C0880F991F2A95E2F79C0189819A81822B932B9A8389838B81BF
S1833F008E5F8B838B818031D8F20E94D81F89819A810F900F900F90DF91CF910895CF93DF9300D000D0CDB7DEB79A8389837C836B838B819C8140E060E00E94393089819A810E94453189819A810E947B3100000F900F900F900F90DF91CF910895CF93DF931F92CDB7DEB786E00E94EF1F8FE491E0FC0120812061FC01208387E491E0B0
S1833F80FC01108200008FE491E0FC018081829581708823C1F387E491E0FC0180818A5589830E94D81F89810F90DF91CF910895CF93DF93CDB7DEB788E00E94EF1F8FE491E02FEFFC0120838091B10F882319F086E10E94EF1F0000DF91CF910895CF93DF931F92CDB7DEB7898382E491E023E0FC01208381E491E0FC0180818F71883011
S1834000A1F782E491E02981FC01208381E491E0FC0180818F71982F8981981791F700000F90DF91CF910895CF93DF9300D000D0CDB7DEB79C838B838B819C819A83898324E631E089819A81AC014F5F5F4F5A834983FC018081F901808325E631E089819A81AC014F5F5F4F5A834983FC018081F901808326E631E089819A81AC014F5F17
S18340805F4F5A834983FC018081F901808327E631E089819A81AC014F5F5F4F5A834983FC018081F901808328E631E089819A81AC014F5F5F4F5A834983FC018081F901808329E631E089819A81AC014F5F5F4F5A834983FC018081F90180832AE631E089819A81AC014F5F5F4F5A834983FC018081F90180838BE691E029813A81F90163
S18341002081FC01208300000F900F900F900F90DF91CF910895CF93DF93CDB7DEB728970FB6F894DEBF0FBECDBF8091300F823009F49EC08FE491E0FC01808183FB882780F9882309F459C08BE791E0FC0180818B83198211C08981882F90E02981222F30E020583E4FF90120818F5C904FFC01208389818F5F89838981282F30E08B8156
S1834180882F90E00196281739072CF381E39FE09D838C838B8182508E838B81882F90E08F5C904FFC0180818F8387E491E0FC0180818A558887CE0104960E943810000081E491E0FC0180818F718631C9F78FE491E0FC0120812860FC0120838CE491E0FC0120812F77FC0120838CE491E0FC0120812068FC0120833CC08FE491E0FC01F8
S1834200808186FB882780F9882399F181E491E0FC0180818F71893119F582E491E0FC0180818295869587708A838A81882311F41A820EC08A81833019F481E08A8308C08A81853019F482E08A8302C083E08A830E94D81F81E08093300F8A810E94E11B8FE491E0FC0120812064FC01208301C0000028960FB6F894DEBF0FBECDBFDF914F
S1834280CF910895CF93DF93CDB7DEB70E9480210E9431300E94701D0E9430080000DF91CF910895CF93DF93CDB7DEB70E948B200E942E090E9452220000DF91CF910895CF93DF931F92CDB7DEB78FE590E0FC0180818983F89489810F90DF91CF910895CF93DF931F92CDB7DEB789838FE590E02981FC01208300000F90DF91CF9108956C
S1834300CF93DF93CDB7DEB71092EB118AEE93E20E94BE430E94704380E197E20E9406431092B30F1092B20F0000DF91CF910895CF93DF9300D0CDB7DEB79A83898389819A810E942722982F81E08927882321F089819A810E94152300000F900F90DF91CF910895CF93DF9300D000D000D0CDB7DEB79E838D831A8219828091B20F9091E4
S1834380B30F9C838B8352C02B813C818D819E812817390709F03FC089819A81892B59F08B819C81FC012081318189819A81FC013183208309C08B819C81FC01808191819093B30F8093B20F8B819C81FC0180819181892B89F18B819C81FC01608171818B819C81FC0180819181FC0122813381448155818D819E81FC0182819381A481EE
S1834400B581820F931FA41FB51FFB0182839383A483B58311C08B819C819A8389838B819C81FC01808191819C838B838B819C81892B09F0A9CF01C00000000026960FB6F894DEBF0FBECDBFDF91CF910895CF93DF9300D000D0CDB7DEB79C838B838091B20F9091B30F9A83898310C029813A818B819C812817390711F481E00CC08981F9
S18344809A81FC01808191819A83898389819A81892B61F780E00F900F900F900F90DF91CF910895EF92FF920F931F93CF93DF93CDB7DEB728970FB6F894DEBF0FBECDBF8091EB11882309F4A2C00E9460218D838091EB118E831092EB118D810E9470218E81882F90E0A0E0B0E0880F991FAA1FBB1F9C01AD01220F331F441F551F220F3C
S1834500331F441F551F820F931FA41FB51F89839A83AB83BC833DC08091B20F9091B30F98878F838091B20F9091B30FFC0182819381A481B58129813A814B815C8179018A01E81AF90A0A0B1B0BD801C70189839A83AB83BC838091B20F9091B30FFC01808191819093B30F8093B20F8F819885FC018285813021F48F8198850E94152391
S18345808F819885FC01238534858F819885F90109958091B20F9091B30F892B99F08091B20F9091B30FFC01228133814481558189819A81AB81BC8182179307A407B50708F0AACF8091B20F9091B30F892B01F16091B20F7091B30F8091B20F9091B30FFC01228133814481558189819A81AB81BC8179018A01E81AF90A0A0B1B0BD80118
S1834600C701FB0182839383A483B58301C0000028960FB6F894DEBF0FBECDBFDF91CF911F910F91FF90EF900895EF92FF920F931F93CF93DF93CDB7DEB72A970FB6F894DEBF0FBECDBF9A8789878091B20F9091B30F892B09F497C01A82198289859A85FC0186819781A085B1858B839C83AD83BE838091B20F9091B30F98878F834DC0B2
S18346808F819885FC0122813381448155818B819C81AD81BE8182179307A407B507D8F48F819885FC0122813381448155818B819C81AD81BE8179018A01E81AF90A0A0B1B0BD801C7012F813885F90182839383A483B58327C08F819885FC0182819381A481B5812B813C814D815E8179018A01E81AF90A0A0B1B0BD801C7018B839C8379
S1834700AD83BE838F8198859A8389838F819885FC018081918198878F838F819885892B09F0AECF29853A858B819C81AD81BE81F90182839383A483B58389819A81892B91F089819A81FC012081318189859A85FC013183208389819A8129853A85FC013183208329C02091B20F3091B30F89859A85FC013183208389859A859093B30F8B
S18347808093B20F19C089859A85FC011182108289859A85FC0186819781A085B18529853A85F90182839383A483B58389859A859093B30F8093B20F00002A960FB6F894DEBF0FBECDBFDF91CF911F910F91FF90EF900895CF93DF93CDB7DEB78091EB118F5F8093EB1180E197E20E9406430000DF91CF910895CF93DF931F92CDB7DEB7B5
S18348008FE590E0FC0180818983F89489810F90DF91CF910895CF93DF931F92CDB7DEB789838FE590E02981FC01208300000F90DF91CF910895CF93DF93CDB7DEB780E094E2A4EFB0E0BC01CD01DF91CF910895CF93DF93CDB7DEB70E941B24DC01CB01BC01CD01DF91CF910895CF93DF9300D0CDB7DEB79A83898389819A81892B21F49F
S183488080E090E0DC01A3C089819A818837910529F40E942824DC01CB0199C089819A81803C910529F40E942824DC01CB018FC089819A818C34910529F40E942824DC01CB0185C089819A818038910529F40E942824DC01CB017BC089819A818434910529F40E942824DC01CB0171C089819A81803B910529F40E942824DC01CB0167C024
S183490089819A81803C910529F40E942824DC01CB015DC089819A81883B910529F40E942824DC01CB0153C089819A818039910529F40E942824DC01CB0149C089819A81803A910529F40E942824DC01CB013FC089819A818032914029F40E942824DC01CB0135C089819A818334914029F40E942824DC01CB012BC089819A818533914002
S183498029F40E942824DC01CB0121C089819A818433914029F40E942824DC01CB0117C089819A818333914029F40E942824DC01CB010DC089819A818233914029F40E942824DC01CB0103C080E090E0DC01BC01CD010F900F90DF91CF910895CF93DF9300D01F92CDB7DEB79A8389836B8389819A818038910559F481E890E021E830E07D
S1834A00F90130812B81232BFC0120832FC089819A818039910559F481E990E021E930E0F90130812B81232BFC0120831FC089819A81803A910559F481EA90E021EA30E0F90130812B81232BFC0120830FC089819A818032914051F481E291E021E231E0F90130812B81232BFC01208300000F900F900F90DF91CF910895CF93DF9300D051
S1834A80CDB7DEB79A83898389819A818038910551F48FE690E02FE630E0F90120812160FC0120832CC089819A818039910551F481E790E021E730E0F90120812160FC0120831DC089819A81803A910551F482E790E022E730E0F90120812160FC0120830EC089819A818032914049F483E790E023E730E0F90120812160FC0120830000F9
S1834B000F900F90DF91CF910895CF93DF9300D0CDB7DEB79A83898389819A818038910551F48FE690E02FE630E0F90120812260FC0120832CC089819A818039910551F481E790E021E730E0F90120812260FC0120831DC089819A81803A910551F482E790E022E730E0F90120812260FC0120830EC089819A818032914049F483E790E0FC
S1834B8023E730E0F90120812260FC01208300000F900F90DF91CF910895CF93DF9300D0CDB7DEB79A83898389819A818038910551F48FE690E02FE630E0F90120812D7FFC0120832CC089819A818039910551F481E790E021E730E0F90120812D7FFC0120831DC089819A81803A910551F482E790E022E730E0F90120812D7FFC012083B4
S1834C000EC089819A818032914049F483E790E023E730E0F90120812D7FFC01208300000F900F90DF91CF910895CF93DF93CDB7DEB727970FB6F894DEBF0FBECDBF9C838B836D835F834E838B819C819A8389838D81882F90E0019629813A81820F931F2D81222F30E02F5F3F4F49815A81240F351FF90140812E813F81232F3327242BF3
S1834C80FC0120838D81882F90E029813A81820F931F2D81222F30E049815A81240F351FF90130812E81232BFC012083000027960FB6F894DEBF0FBECDBFDF91CF910895CF93DF9300D0CDB7DEB79A83898389819A818038910551F486E390E026E330E0F90120812160FC0120832CC089819A818039910551F488E390E028E330E0F9015E
S1834D0020812160FC0120831DC089819A81803A910551F489E390E029E330E0F90120812160FC0120830EC089819A818032914049F48AE390E02AE330E0F90120812160FC01208300000F900F90DF91CF910895CF93DF9300D0CDB7DEB79A83898389819A818038910551F486E390E026E330E0F90120812260FC0120832CC089819A81B0
S1834D808039910551F488E390E028E330E0F90120812260FC0120831DC089819A81803A910551F489E390E029E330E0F90120812260FC0120830EC089819A818032914049F48AE390E02AE330E0F90120812260FC01208300000F900F90DF91CF910895CF93DF9300D0CDB7DEB79A83898389819A818038910531F484E890E0FC018081AF
S1834E00918123C089819A818039910531F484E990E0FC018081918118C089819A81803A910531F484EA90E0FC01808191810DC089819A818032914031F484E291E0FC018081918102C080E090E00F900F90DF91CF910895CF93DF9300D000D01F92CDB7DEB79C838B836D838B819C819A8389838D81882349F489819A81FC012081898125
S1834E809A81FC0120830FC08D81843061F489819A81019629813A812F5F3F4FF90120812860FC01208300000F900F900F900F900F90DF91CF910895CF93DF93CDB7DEB780E890E00E94F026DF91CF910895CF93DF93CDB7DEB780E890E00E94CD2580E890E00E94A8260000DF91CF910895CF93DF93CDB7DEB780E890E00E94A82680E8F0
S1834F0090E00E9485250000DF91CF910895CF93DF93CDB7DEB780E890E00E943D2580E890E00E9460260000DF91CF910895CF93DF93CDB7DEB780E890E00E94142F0000DF91CF910895CF93DF9300D0CDB7DEB79A83898389819A81AC0168E080E890E00E94152600000F900F90DF91CF910895CF93DF93CDB7DEB70E94FB23DF91CF91DA
S1834F800895CF93DF931F92CDB7DEB7898389810E940B2400000F90DF91CF910895CF93DF931F92CDB7DEB780E890E00E94FB2E68E678E280E890E00E942D2F60E080E890E00E942A2780E890E00E943D2580E890E00E940A2880E890E00E94CD2561E080E890E00E94EE2480E890E00E943524DC01CB0120E432E44FE050E0BC01CD0174
S18350000E948D49DA01C901898389810F90DF91CF910895CF93DF9300D0CDB7DEB79A83898389819A818038910579F089819A818039910551F089819A81803A910529F089819A818032914039F462E778E280E890E00E946E2F36C089819A818138910579F089819A818139910551F089819A81813A910529F089819A818132914039F46B
S183508062E778E280E890E00E94AF2F1BC089819A818238910579F089819A818239910551F089819A81823A910529F089819A818232914039F462E778E280E890E00E94F02F00C000000F900F90DF91CF910895CF93DF93CDB7DEB70E9477430000DF91CF910895CF93DF93CDB7DEB70E94AF430000DF91CF910895CF93DF931F92CDB786
S1835100DEB78FE590E0FC0180818983F89489810F90DF91CF910895CF93DF931F92CDB7DEB789838FE590E02981FC01208300000F90DF91CF910895EF92FF920F931F93CF93DF93CDB7DEB72C970FB6F894DEBF0FBECDBF6B837C838D839E832F83388749875A871C870B878F819885A985BA858093B40F9093B50FA093B60FB093B70FF8
S18351808B859C859A8389838B819C81AD81BE8188279F5FAF4FBF4F8093B80F9093B90FA093BA0FB093BB0F8B819C81AD81BE8188270CEB1FE020E031E040E050E0BC01CD010E948F292CEB3FE040E051E060E070E0CB010E94DC4D2091B40F3091B50F4091B60F5091B70F8B819C81AD81BE81280F391F4A1F5B1F8091B80F9091B90F06
S1835200A091BA0FB091BB0F82179307A407B507A0F48091B80F9091B90FA091BA0FB091BB0F9C018B819C817901E81AF90AC7019093BD108093BC100CC08091B40F9091B50FA091B60FB091B70F9093BD108093BC102091B40F3091B50F4091B60F5091B70F8091BC109091BD10CC01A0E0B0E079018A01E81AF90A0A0B1B0BD801C70140
S18352808093B40F9093B50FA093B60FB093B70F4091BC105091BD1029813A818B819C81AD81BE81BC01CD010E94DC4D8B819C81AD81BE81BC01CD010E94E94E8091B80F9091B90FA091BA0FB091BB0F8B839C83AD83BE838091BC109091BD1029813A81820F931F9A8389838091B40F9091B50FA091B60FB091B70F892B8A2B8B2B09F088
S183530043CF00002C960FB6F894DEBF0FBECDBFDF91CF911F910F91FF90EF9008950F931F93CF93DF93CDB7DEB762970FB6F894DEBF0FBECDBF69877A878B879C872D873E874F87588B1A8B098B0E947C288B831A82198229C029893A8989819A81B901680F791F89859A85AB85BC859C01AD012F5F3F4F4F4F5F4F29873A874B875C87E3
S18353808C839D83AE83BF838C819D81AE81BF81ABBFFC01879188878885FB01808389819A8101969A83898389819A819C0140E050E08D859E85AF85B889281739074A075B0748F28B810E948C28000062960FB6F894DEBF0FBECDBFDF91CF911F910F910895CF93DF931F92CDB7DEB78FE590E0FC0180818983F89489810F90DF91CF91D7
S18354000895CF93DF931F92CDB7DEB789838FE590E02981FC01208300000F90DF91CF910895CF93DF9300D0CDB7DEB79A83898389819A81892B09F47BC089819A818837910549F461E080E00E94453D60E180E00E94453D6DC089819A81803C910529F462E080E00E94453D63C089819A818C34910529F464E080E00E94453D59C0898142
S18354809A818038910529F468E080E00E94453D4FC089819A818434910529F460E280E00E94453D45C089819A81803B910529F460E480E00E94453D3BC089819A81883B910529F460E880E00E94453D31C089819A81883C910529F461E081E00E94453D27C089819A818039910529F468E081E00E94453D1DC089819A81803A910529F428
S183550060E181E00E94453D13C089819A818032914029F460E281E00E94453D09C089819A818334914021F460E481E00E94453D00000F900F90DF91CF910895CF93DF9300D0CDB7DEB79A83898389819A81892B09F47BC089819A818837910549F461E080E00E947A3D60E180E00E947A3D6DC089819A81803C910529F462E080E00E945C
S18355807A3D63C089819A818C34910529F464E080E00E947A3D59C089819A818038910529F468E080E00E947A3D4FC089819A818434910529F460E280E00E947A3D45C089819A81803B910529F460E480E00E947A3D3BC089819A81883B910529F460E880E00E947A3D31C089819A81883C910529F461E081E00E947A3D27C089819A8134
S18356008039910529F468E081E00E947A3D1DC089819A81803A910529F460E181E00E947A3D13C089819A818032914029F460E281E00E947A3D09C089819A818334914021F460E481E00E947A3D00000F900F90DF91CF9108951F920F9200905F000F92112400905B000F922F933F934F935F936F937F938F939F93AF93BF93EF93FF936B
S1835680CF93DF93CDB7DEB78091BE109091BF10892B31F08091BE109091BF10FC0109950000DF91CF91FF91EF91BF91AF919F918F917F916F915F914F913F912F910F9000925B000F9000925F000F901F9018951F920F9200905F000F92112400905B000F922F933F934F935F936F937F938F939F93AF93BF93EF93FF93CF93DF93CDB7F1
S1835700DEB78091C0109091C110892B31F08091C0109091C110FC0109950000DF91CF91FF91EF91BF91AF919F918F917F916F915F914F913F912F910F9000925B000F9000925F000F901F9018951F920F9200905F000F92112400905B000F922F933F934F935F936F937F938F939F93AF93BF93EF93FF93CF93DF93CDB7DEB78091C21048
S18357809091C310892B31F08091C2109091C310FC0109950000DF91CF91FF91EF91BF91AF919F918F917F916F915F914F913F912F910F9000925B000F9000925F000F901F9018951F920F9200905F000F92112400905B000F922F933F934F935F936F937F938F939F93AF93BF93EF93FF93CF93DF93CDB7DEB78091C4109091C510892B8C
S183580031F08091C4109091C510FC0109950000DF91CF91FF91EF91BF91AF919F918F917F916F915F914F913F912F910F9000925B000F9000925F000F901F9018951F920F9200905F000F92112400905B000F922F933F934F935F936F937F938F939F93AF93BF93EF93FF93CF93DF93CDB7DEB78091C6109091C710892B31F08091C610A3
S18358809091C710FC0109950000DF91CF91FF91EF91BF91AF919F918F917F916F915F914F913F912F910F9000925B000F9000925F000F901F9018951F920F9200905F000F92112400905B000F922F933F934F935F936F937F938F939F93AF93BF93EF93FF93CF93DF93CDB7DEB78091C8109091C910892B31F08091C8109091C910FC012A
S183590009950000DF91CF91FF91EF91BF91AF919F918F917F916F915F914F913F912F910F9000925B000F9000925F000F901F9018951F920F9200905F000F92112400905B000F922F933F934F935F936F937F938F939F93AF93BF93EF93FF93CF93DF93CDB7DEB78091CA109091CB10892B31F08091CA109091CB10FC0109950000DF9188
S1835980CF91FF91EF91BF91AF919F918F917F916F915F914F913F912F910F9000925B000F9000925F000F901F9018951F920F9200905F000F92112400905B000F922F933F934F935F936F937F938F939F93AF93BF93EF93FF93CF93DF93CDB7DEB78091CC109091CD10892B31F08091CC109091CD10FC0109950000DF91CF91FF91EF919E
S1835A00BF91AF919F918F917F916F915F914F913F912F910F9000925B000F9000925F000F901F9018951F920F9200905F000F92112400905B000F922F933F934F935F936F937F938F939F93AF93BF93EF93FF93CF93DF93CDB7DEB78091CE109091CF10892B31F08091CE109091CF10FC0109950000DF91CF91FF91EF91BF91AF919F91C5
S1835A808F917F916F915F914F913F912F910F9000925B000F9000925F000F901F9018951F920F9200905F000F92112400905B000F922F933F934F935F936F937F938F939F93AF93BF93EF93FF93CF93DF93CDB7DEB78091D0109091D110892B31F08091D0109091D110FC0109950000DF91CF91FF91EF91BF91AF919F918F917F916F91CD
S1835B005F914F913F912F910F9000925B000F9000925F000F901F9018951F920F9200905F000F92112400905B000F922F933F934F935F936F937F938F939F93AF93BF93EF93FF93CF93DF93CDB7DEB78091D2109091D310892B31F08091D2109091D310FC0109950000DF91CF91FF91EF91BF91AF919F918F917F916F915F914F913F91D4
S1835B802F910F9000925B000F9000925F000F901F9018951F920F9200905F000F92112400905B000F922F933F934F935F936F937F938F939F93AF93BF93EF93FF93CF93DF93CDB7DEB78091D4109091D510892B31F08091D4109091D510FC0109950000DF91CF91FF91EF91BF91AF919F918F917F916F915F914F913F912F910F900092FB
S1835C005B000F9000925F000F901F9018951F920F9200905F000F92112400905B000F922F933F934F935F936F937F938F939F93AF93BF93EF93FF93CF93DF93CDB7DEB78091D6109091D710892B31F08091D6109091D710FC0109950000DF91CF91FF91EF91BF91AF919F918F917F916F915F914F913F912F910F9000925B000F900092D7
S1835C805F000F901F9018951F920F9200905F000F92112400905B000F922F933F934F935F936F937F938F939F93AF93BF93EF93FF93CF93DF93CDB7DEB78091D8109091D910892B31F08091D8109091D910FC0109950000DF91CF91FF91EF91BF91AF919F918F917F916F915F914F913F912F910F9000925B000F9000925F000F901F902E
S1835D0018951F920F9200905F000F92112400905B000F922F933F934F935F936F937F938F939F93AF93BF93EF93FF93CF93DF93CDB7DEB78091DA109091DB10892B31F08091DA109091DB10FC0109950000DF91CF91FF91EF91BF91AF919F918F917F916F915F914F913F912F910F9000925B000F9000925F000F901F9018951F920F9253
S1835D8000905F000F92112400905B000F922F933F934F935F936F937F938F939F93AF93BF93EF93FF93CF93DF93CDB7DEB78091DC109091DD10892B31F08091DC109091DD10FC0109950000DF91CF91FF91EF91BF91AF919F918F917F916F915F914F913F912F910F9000925B000F9000925F000F901F901895CF93DF9300D01F92CDB743
S1835E00DEB79B838A830E94F12989838A819B810E94112A89810E94012A00000F900F900F90DF91CF910895CF93DF9300D01F92CDB7DEB79B838A830E94F12989838A819B810E949E2A89810E94012A00000F900F900F90DF91CF910895CF93DF9300D000D0CDB7DEB79A8389837C836B8389819A818038910539F48B819C819093BF1000
S1835E808093BE1023C089819A818039910539F48B819C819093C7108093C61017C089819A81803A910539F48B819C819093CF108093CE100BC089819A818032914031F48B819C819093D7108093D61000000F900F900F900F90DF91CF910895CF93DF9300D000D0CDB7DEB79A8389837C836B8389819A818038910539F48B819C8190935C
S1835F00C1108093C01023C089819A818039910539F48B819C819093C9108093C81017C089819A81803A910539F48B819C819093D1108093D0100BC089819A818032914031F48B819C819093D9108093D81000000F900F900F900F90DF91CF910895CF93DF9300D000D0CDB7DEB79A8389837C836B8389819A818038910539F48B819C811F
S1835F809093C3108093C21023C089819A818039910539F48B819C819093CB108093CA1017C089819A81803A910539F48B819C819093D3108093D2100BC089819A818032914031F48B819C819093DB108093DA1000000F900F900F900F90DF91CF910895CF93DF9300D000D0CDB7DEB79A8389837C836B8389819A818038910539F48B8189
S18360009C819093C5108093C41023C089819A818039910539F48B819C819093CD108093CC1017C089819A81803A910539F48B819C819093D5108093D4100BC089819A818032914031F48B819C819093DD108093DC1000000F900F900F900F90DF91CF910895CF93DF93CDB7DEB70000DF91CF910895CF93DF93CDB7DEB765970FB6F89496
S1836080DEBF0FBECDBF9B8B8A8B6C8B4D8B8A899B89892B21F11092DE1082E0809354028A899B8920E1FC01A0EEB0E101900D922A95E1F7198210C08FE391E02981222F30E04A895B89240F351FF9012081FC01208389818F5F89838981803168F38D89882F90E0009719F00197D1F059C080915402813009F056C019820EC08FE391E07B
S18361002981222F30E020523F4EF9012081FC01208389818F5F89838981803178F342C0809154028130E1F19091DE1081E08927882311F11092DF108CE391E02091DF10FC012083CE0102960E94453119820EC08981882F90E02FE331E0F901208180519F4EFC01208389818F5F89838981803178F381E08093DE1019820EC08FE391E035
S18361802981222F30E020513F4EF9012081FC01208389818F5F89838981803178F303C080E02DC000008D89809354028C89882F90E0029718F58C89882F90E0880F991F82959295907F9827807F9827282F20728D89882F90E0880F991F880F991F880F991F8870822B8093DF1000008CE391E02091DF10FC01208381E001C080E0659610
S18362000FB6F894DEBF0FBECDBFDF91CF910895CF93DF9300D01F92CDB7DEB780915402882329F480EE90E19B838A8304C080EF90E19B838A83198210C02FE331E08A819B81AC014F5F5F4F5B834A83FC018081F901808389818F5F89838981803168F38CE391E02091DF10FC01208300000F900F900F90DF91CF910895CF93DF93CDB7B0
S1836280DEB70000DF91CF910895CF93DF9300D01F92CDB7DEB79B838A83198210C02EE331E08A819B81AC014F5F5F4F5B834A83FC018081F901808389818F5F89838981803168F38CE391E02091DF102068FC01208300008DE391E0FC018081882F90E081709927892BB1F300000F900F900F90DF91CF910895CF93DF9300D01F92CDB7A8
S1836300DEB79B838A83198210C08A819B819C012F5F3F4F3B832A832EE331E0F9012081FC01208389818F5F89838981803168F300000F900F900F90DF91CF910895CF93DF931F92CDB7DEB7898383E590E023E530E0F9012081322F317F2981232BFC01208300000F90DF91CF910895CF93DF93CDB7DEB786EB90E026EB30E0F90120816E
S18363802062FC0120830000DF91CF910895CF93DF931F92CDB7DEB7898389818823A1F48CED90E02CED30E0F9012081422F2981222F30E022953295307F3227207F3227242BFC0120830CC08981813049F48CED90E02CED30E0F90120812F7EFC01208300000F90DF91CF910895CF93DF9300D0CDB7DEB79A83898389819A81892B09F4FA
S18364007BC089819A818837910549F461E080E00E94453D60E180E00E94453D6DC089819A81803C910529F462E080E00E94453D63C089819A818C34910529F464E080E00E94453D59C089819A818038910529F468E080E00E94453D4FC089819A818434910529F460E280E00E94453D45C089819A81803B910529F460E480E00E94453D58
S18364803BC089819A81883B910529F460E880E00E94453D31C089819A81883C910529F461E081E00E94453D27C089819A818039910529F468E081E00E94453D1DC089819A81803A910529F460E181E00E94453D13C089819A818032914029F460E281E00E94453D09C089819A818334914021F460E481E00E94453D00000F900F90DF9108
S1836500CF910895CF93DF93CDB7DEB786E00E949F3180EB90E00E94F53181E00E94C7310E94B6310E9405340000DF91CF910895CF93DF9300D000D0CDB7DEB769837A838B839C8383E590E023E530E0F90120812160FC012083889500000F900F900F900F90DF91CF910895CF93DF931F92CDB7DEB78FE590E0FC0180818983F89489816F
S18365800F90DF91CF910895CF93DF931F92CDB7DEB789838FE590E02981FC01208300000F90DF91CF9108951F920F9200905F000F92112400905B000F922F933F934F935F936F937F938F939F93AF93BF93EF93FF93CF93DF93CDB7DEB78091001190910111892B31F08091001190910111FC0109950000DF91CF91FF91EF91BF91AF9115
S18366009F918F917F916F915F914F913F912F910F9000925B000F9000925F000F901F9018951F920F9200905F000F92112400905B000F922F933F934F935F936F937F938F939F93AF93BF93EF93FF93CF93DF93CDB7DEB78091021190910311892B31F08091021190910311FC0109950000DF91CF91FF91EF91BF91AF919F918F917F9145
S18366806F915F914F913F912F910F9000925B000F9000925F000F901F9018951F920F9200905F000F92112400905B000F922F933F934F935F936F937F938F939F93AF93BF93EF93FF93CF93DF93CDB7DEB78091041190910511892B31F08091041190910511FC0109950000DF91CF91FF91EF91BF91AF919F918F917F916F915F914F914D
S18367003F912F910F9000925B000F9000925F000F901F9018951F920F9200905F000F92112400905B000F922F933F934F935F936F937F938F939F93AF93BF93EF93FF93CF93DF93CDB7DEB78091061190910711892B31F08091061190910711FC0109950000DF91CF91FF91EF91BF91AF919F918F917F916F915F914F913F912F910F9065
S183678000925B000F9000925F000F901F9018951F920F9200905F000F92112400905B000F922F933F934F935F936F937F938F939F93AF93BF93EF93FF93CF93DF93CDB7DEB78091081190910911892B31F08091081190910911FC0109950000DF91CF91FF91EF91BF91AF919F918F917F916F915F914F913F912F910F9000925B000F9080
S183680000925F000F901F901895CF93DF931F92CDB7DEB70E94B43289838CED90E02CED30E0F90120812062FC01208389810E94C43200000F90DF91CF910895CF93DF93CDB7DEB78CED90E0FC018081882319F081E090E002C080E090E08170DF91CF910895CF93DF93CDB7DEB78CED90E02CED30E0F90120812F7DFC0120830000DF91DA
S1836880CF910895CF93DF93CDB7DEB78DED90E0FC018081882319F081E090E002C080E090E08170DF91CF910895CF93DF931F92CDB7DEB789838981882F90E08230910529F18330910509F43EC0019709F05DC08FED90E0FC018081882F90E081709927892B09F04DC080EE90E020EE30E0F90120812160FC0120838FED90E02FED30E0D2
S1836900F90120812160FC0120833AC08FED90E0FC018081882F90E082709927892B91F580EE90E020EE30E0F90120812260FC0120838FED90E02FED30E0F90120812260FC0120831FC08FED90E0FC018081882F90E084709927892BB9F480EE90E020EE30E0F90120812460FC0120838FED90E02FED30E0F90120812460FC01208304C077
S1836980000003C0000001C0000000000F90DF91CF910895CF93DF931F92CDB7DEB789838981882F90E08230910519F18330910529F1019709F028C08FED90E0FC018081882F90E081709927892BE9F080EE90E020EE30E0F90120812160FC0120838FED90E02FED30E0F90120812E7FFC0120830AC08FED90E0FC01808106C08FED90E08D
S1836A00FC01808101C0000000000F90DF91CF910895CF93DF93CDB7DEB762970FB6F894DEBF0FBECDBF8D874E875F87688B798B2A8B8A89882F90E082309105D1F18330910509F469C0019709F099C08D85882351F08CED90E02CED30E0F90120812160FC01208309C08CED90E02CED30E0F90120812E7FFC0120838E859F85A889B989C9
S1836A8089839A83AB83BC8388EF90E02C81FC01208387EF90E02B81FC01208386EF90E02A81FC01208385EF90E02981FC01208366C08D85882351F08CED90E02CED30E0F90120812260FC01208309C08CED90E02CED30E0F90120812D7FFC0120838E859F85A889B9898D839E83AF83B88784EF90E02885FC01208383EF90E02F81FC0178
S1836B00208382EF90E02E81FC01208381EF90E02D81FC01208333C08D85882351F08CED90E02CED30E0F90120812460FC01208309C08CED90E02CED30E0F90120812B7FFC0120838E859F85A889B98989879A87AB87BC8780EF90E02C85FC0120838FEE90E02B85FC0120838EEE90E02A85FC0120838DEE90E02985FC012083000000005D
S1836B8062960FB6F894DEBF0FBECDBFDF91CF910895CF93DF9300D0CDB7DEB79A83898389819A81909301118093001100000F900F90DF91CF910895CF93DF9300D0CDB7DEB79A83898389819A81909303118093021100000F900F90DF91CF910895CF93DF9300D0CDB7DEB79A83898389819A81909305118093041100000F900F90DF91A9
S1836C00CF910895CF93DF9300D0CDB7DEB79A83898389819A81909307118093061100000F900F90DF91CF910895CF93DF9300D0CDB7DEB79A83898389819A81909309118093081100000F900F90DF91CF910895CF93DF9300D0CDB7DEB79A83898389819A81FC018181282F206189819A81FC01218300000F900F90DF91CF910895CF9324
S1836C80DF9300D000D01F92CDB7DEB79A8389836B834C832D8389819A81FC018281282F297F8B81882F90E083709927880F991F822B282F89819A81FC01228389819A81FC018181282F2B7F8B81882F90E084709927880F991F880F991F822B282F89819A81FC01218389819A81FC018281982F9F7C8C81892B282F89819A81FC012283A0
S1836D0089819A81FC018281282F277F8D81882F90E0880F991F880F991F880F991F822B282F89819A81FC01228300000F900F900F900F900F90DF91CF910895CF93DF9300D0CDB7DEB79A83898389819A81FC018181282F286089819A81FC01218300000F900F90DF91CF910895CF93DF9300D01F92CDB7DEB79A8389836B8389819A8174
S1836D80FC018281982F9F738B81892B282F89819A81FC01228300000F900F900F90DF91CF910895CF93DF9300D0CDB7DEB79A83898389819A81FC018081882F90E08072992721E0892B09F420E0822F0F900F90DF91CF910895CF93DF9300D0CDB7DEB79A83898389819A81FC018081882F90E08078992721E0892B09F420E0822F0F90B4
S1836E000F90DF91CF910895CF93DF9300D0CDB7DEB78A838A8189838981882F90E09C012770332781E090E002C0880F991F2A95E2F700000F900F90DF91CF910895CF93DF93CDB7DEB780E094E2A4EFB0E0BC01CD01DF91CF910895CF93DF93CDB7DEB70E941F37DC01CB01BC01CD01DF91CF910895CF93DF9300D0CDB7DEB79A838983F3
S1836E8089819A81803C910521F462E080E00E94453D89819A81883C910521F461E081E00E94453D00000F900F90DF91CF9108950F931F93CF93DF9300D000D01F92CDB7DEB79B838A837D836C838A819B810E9439378A819B8160E00E94B5368C819D81FC0126818C819D81FC0145818C819D81FC0134818A819B81632F0E943F360E9452
S1836F002C379B01AC018C819D81FC0180819181A281B381EA81FB8189019A01AC01BD01CF010E949A3A89838A819B810E949E368A819B810E94283689810F900F900F900F900F90DF91CF911F910F9108950F931F93CF93DF93CDB7DEB765970FB6F894DEBF0FBECDBF9B8B8A8B7D8B6C8B8A899B89FC01158214828A899B890E943937F8
S1836F808A899B8960EC0E94B5368A899B89803C910509F088C082E2898389810E940437482F89818C838C818B878B858695869586958C878C85282F30E0C901880F991F820F931F80969F838E83488783E090E09A87898789859A8581709927892B89F189859A8582709927892B71F08E819F8102962E813F812E5F3F4FF90130812885A0
S1837000232BFC0120830FC08E819F8102962E813F812E5F3F4FF9012081322F288520952323FC0120838E819F8101962E813F812F5F3F4FF90130812885232BFC01208332C08E819F8101962E813F812F5F3F4FF9012081322F288520952323FC01208389859A8584709927892B71F08E819F8102962E813F812E5F3F4FF90130812885FD
S1837080232BFC0120830FC08E819F8102962E813F812E5F3F4FF9012081322F288520952323FC0120838A899B89883C910509F088C08DE1898389810E940437482F89818D838D81888B8889869586958695898B8989282F30E0C901880F991F820F931F80969B838A834D8783E090E09F878E878E859F8581709927892B89F18E859F859A
S183710082709927892B71F08A819B8102962A813B812E5F3F4FF90130812D85232BFC0120830FC08A819B8102962A813B812E5F3F4FF9012081322F2D8520952323FC0120838A819B8101962A813B812F5F3F4FF90130812D85232BFC01208332C08A819B8101962A813B812F5F3F4FF9012081322F2D8520952323FC0120838E859F8520
S183718084709927892B71F08A819B8102962A813B812E5F3F4FF90130812D85232BFC0120830FC08A819B8102962A813B812E5F3F4FF9012081322F2D8520952323FC0120838C899D89FC018481813031F08C899D89FC018481833059F48A899B89FC018281282F22608A899B89FC0122830AC08A899B89FC018281282F2D7F8A899B896D
S1837200FC0122838C899D89FC018481823031F08C899D89FC018481833059F48A899B89FC018281282F21608A899B89FC0122830AC08A899B89FC018281282F2E7F8A899B89FC0122838C899D89FC018581882359F08A899B89FC018281282F24608A899B89FC0122830AC08A899B89FC018281282F2B7F8A899B89FC0122830E942C3758
S18372809B01AC018C899D89FC0180819181A281B381EA89FB8989019A01AC01BD01CF010E94733B8A899B890E949E368A899B890E942836000065960FB6F894DEBF0FBECDBFDF91CF911F910F910895CF93DF9300D01F92CDB7DEB79A8389836B83000089819A810E94D236982F81E089278823B9F789819A812B81FC01268380E00F9018
S18373000F900F90DF91CF910895CF93DF9300D0CDB7DEB79A838983000089819A810E94EB36982F81E089278823B9F789819A81FC0186810F900F90DF91CF910895CF93DF9300D000D0CDB7DEB769837A838B839C8389819A81AB81BC81803825E29207A105B105E1F1813825E29207A105B10590F4803629E09207A105B10561F1803CD7
S183738022E19207A105B10541F1803B9440A105B105F9F02EC0811526E99207A105B10511F1813026E99207A105B10530F481159B44A105B105A9F01CC0811521EE9207A105B10591F08115924CA140B10579F010C080E00FC081E00DC082E00BC083E009C084E007C085E005C086E003C087E001C08FEF0F900F900F900F90DF91CF915D
S183740008950F931F93CF93DF93CDB7DEB769970FB6F894DEBF0FBECDBF998B888B4A8B5B8B6C8B7D8B0E8B1F8B288F398F1A8219828A899B89AC89BD89BC01CD010E949F398B838E899F89A88DB98D80349244AF40B105C1F48B81882F90E0880F991F8A599D4F9D838C838C819D81FC0125913491CF013F832E839D838C838E819F81D2
S18374809A83898341C08E899F89A88DB98D81159241AA47B105C1F48B81882F90E0880F991F8A589D4F9987888788859985FC0125913491CF013B872A87998788878A859B859A83898320C08E899F89A88DB98D81159442A44FB105B9F48B81882F90E0880F991F8A579D4F9D878C878C859D85FC0125913491CF013F872E879D878C87E4
S18375008E859F859A8389838B818F3F39F08889998929813A81FC0135832483000069960FB6F894DEBF0FBECDBFDF91CF911F910F9108950F931F93CF93DF93CDB7DEB766970FB6F894DEBF0FBECDBF9E878D874F87588B698B7A8B0B8B1C8B2D8B3E8B8B899C89AD89BE89689412F8B695A795979587951694D1F78D839E83AF83B887E0
S18375808B899C89AD89BE89072E73E1B695A795979587957A95D1F7702D89839A83AB83BC838D859E85FC018081882F90E082709927892BC1F08D819E81AF81B885B695A795979587958D839E83AF83B88789819A81AB81BC81B695A7959795879589839A83AB83BC832F85388949895A898D819E81AF81B88582179307A407B50768F04A
S18376002F85388949895A8989819A81AB81BC81281739074A075B0710F480E059C08D859E85FC018081882F90E082709927892B51F18F859889A989BA89880F991FAA1FBB1F8F87988BA98BBA8B8B899C89AD89BE89689412F8B695A795979587951694D1F72F85388949895A89BC01CD010E948D49DA01C9010197A109B10989879A8753
S1837680AB87BC871DC08B899C89AD89BE89689413F8B695A795979587951694D1F72F85388949895A89BC01CD010E948D49DA01C9010197A109B10989879A87AB87BC8729853A858D859E85FC013583248381E066960FB6F894DEBF0FBECDBFDF91CF911F910F9108950F931F93CF93DF93CDB7DEB72E970FB6F894DEBF0FBECDBF9E83F5
S18377008D834F83588769877A870B871C872D873E878B859C85AD85BE859C01AD0156954795379527958F819885A985BA8582179307A407B507E0F48F819885A985BA859C01AD01220F331F441F551F8B859C85AD85BE85BC01CD010E948D49DA01C9010197A109B10989839A83AB83BC8304C019821A821B821C8229813A818D819E8176
