:100000000C947A010C9499010C9499010C94990127
:100010000C9499010C9499010C9499010C949901F8
:100020000C9499010C9499010C9499010C949901E8
:100030000C9493370C9499010C9499010C949901A8
:100040000C9499010C94FB260C9438270C9475277A
:100050000C94BE260C9499010C9499010C9499016E
:100060000C9499010C948F3B0C9499010C94990178
:100070000C9499010C9499010C9499010C94990198
:100080000C94EF270C942C280C9469280C94B2271C
:100090000C9499010C9499010C9499010C94990178
:1000A0000C9499010C9499010C94E3280C94202948
:1000B0000C945D290C94A6280C9499010C94D729D2
:1000C0000C94142A0C94512A0C949A290C9499019A
:1000D0000C9499010C9499010C9499010C94990138
:1000E0000C9499010C9499010C9499010C94990128
:1000F0000C9499010C9499010C9499010C94990118
:100100000C9499010C94A42E0C94E12E0C941E2FA7
:100110000C94672E0C945B2F0C9499010C9499010C
:10012000761399137B139913801385138A138F13F6
:1001300094136E616E00696E660000407A10F35A87
:1001400000A0724E18090010A5D4E80000E8764817
:10015000170000E40B54020000CA9A3B000000E1C3
:10016000F505000080969800000040420F00000056
:10017000A08601000000102700000000E803000036
:1001800000006400000000000A0000000000010000
:10019000000000002C76D888DC674F0823DFC1DF21
:1001A000AE59E1B1B796E5E3E453C63AE651997624
:1001B00096E8E6C28426EB898C9B62ED407C6FFC5E
:1001C000EFBC9C9F40F2BAA56FA5F490055A2AF7A0
:1001D0005C936B6CF9676DC11BFCE0E40D47FEF5A9
:1001E00020E6B500D0ED902E030094357705008011
:1001F000841E080000204E0A000000C80C33333370
:10020000330F986E12831141EF8D2114893BE6550F
:1002100016CFFEE6DB18D1844B381BF77C1D901DF2
:10022000A4BBE424203284725E228100C9F124EC54
:10023000A1E53D27330019000C0006000300020071
:100240000100FF00A001CF006700330019000C007F
:10025000070008004003A001CF0067003300190029
:1002600010001000330019000C000600030002000B
:100270000100FF00A001CF006700330019000C004F
:10028000070008004003A001CF00670033001900F9
:1002900010001000330019000C00060003000200DB
:1002A0000100FF00A001CF006700330019000C001F
:1002B000070008004003A001CF00670033001900C9
:1002C00010001000330019000C00060003000200AB
:1002D0000100FF00A001CF006700330019000C00EF
:1002E000070008004003A001CF0067003300190099
:1002F0001000100011241FBECFEFD1E4DEBFCDBF30
:1003000012E0A0E0B2E0E2E7FDE900E00BBF02C0CE
:1003100007900D92A435B107D9F721E1A4E5B2E029
:1003200001C01D92AF34B207E1F70E9423040C9480
:100330000B4D0C940000CF93DF93CDB7DEB780E078
:1003400094E2A4EFB0E0BC01CD01DF91CF9108951C
:10035000CF93DF93CDB7DEB70E949B01DC01CB01C9
:10036000BC01CD01DF91CF910895CF93DF9300D0F1
:10037000CDB7DEB79A83898389819A81FC01808118
:10038000282F226089819A81FC01208300000F9030
:100390000F90DF91CF910895CF93DF93CDB7DEB764
:1003A0002B970FB6F894DEBF0FBECDBF9987888715
:1003B0007B876A878A859B85FC0184818D838A85FA
:1003C0009B85FC0185818E838A859B85FC018681C6
:1003D0008F838A859B85FC0180819181A281B38175
:1003E00089839A83AB83BC83888599859E012F5F1F
:1003F0003F4FB9010E94EB32882311F081E001C028
:1004000080E02B960FB6F894DEBF0FBECDBFDF9114
:10041000CF910895CF93DF9300D01F92CDB7DEB771
:100420009A8389836B8389819A816B810E94F934D5
:100430000F900F900F90DF91CF910895CF93DF939E
:1004400000D000D0CDB7DEB79A8389837C836B83DD
:1004500089819A810E941835282F8B819C81FC010B
:10046000208300000F900F900F900F90DF91CF919D
:100470000895CF93DF9300D000D0CDB7DEB79A8335
:1004800089837C836B8389819A81909343118093C4
:1004900042118AE092E090934111809340118EE1E5
:1004A00092E090933F1180933E112B813C81898192
:1004B0009A81B9010E94CC016BEC79E38AEE99E351
:1004C0000E94A34A00000F900F900F900F90DF91B1
:1004D000CF910895CF93DF93CDB7DEB78CED90E049
:1004E0002CED30E0F90120812064FC0120838CEDAB
:1004F00090E02CED30E0F9012081277FFC01208382
:100500000000DF91CF910895CF93DF93CDB7DEB791
:1005100080916D0290916E02892BC1F084E692E089
:100520000E94780580916D0290916E02292F2F9381
:100530008F938BE192E0892F8F938BE192E08F93E1
:100540000E942A4B0F900F900F900F900000DF91A8
:10055000CF910895CF93DF93CDB7DEB782E080933C
:1005600063020000DF91CF910895CF93DF9300D015
:1005700000D0CDB7DEB79C838B830E946A028B814B
:100580009C81FC018085918590937A028093790209
:100590008091790290917A02FC01848180937802A3
:1005A0008091790290917A02FC0183818770843076
:1005B00031F49091850281E08927882379F4809134
:1005C000790290917A02FC0183818770863009F06C
:1005D00045C080918502882309F440C0809179024A
:1005E00090917A02FC018381829586958770482FCD
:1005F00050E08091790290917A02FC018681282F47
:1006000030E0429FC001439F900D529F900D1124F6
:10061000880F991F9A8389838AEA92E00E946F313A
:1006200081E00E94E82F89819A81092E000CAA0B93
:10063000BB0B21E0AC01BD0181E00E949C308091A8
:10064000790290917A02FC0183818770843011F4E1
:1006500085E001C086E0809363020BC0809179023F
:1006600090917A02FC0183818770843011F410929A
:10067000850281E00F900F900F900F90DF91CF9146
:100680000895CF93DF93CDB7DEB728970FB6F894D0
:10069000DEBF0FBECDBF98878F838F819885FC0109
:1006A000808591859A83898389819A81FC019081D3
:1006B00080917802981749F51C821B8287E090E0B0
:1006C0009E838D8329813A818B819C81820F931F28
:1006D0000196FC018081882F90E00D8002C09595E5
:1006E00087950A94E2F781709927892B71F088E247
:1006F00092E0892F8F9388E292E08F930E942A4B99
:100700000F900F9081E08093850281E028960FB6CC
:10071000F894DEBF0FBECDBFDF91CF910895CF9388
:10072000DF93CDB7DEB78DE08093810281E090E06A
:10073000909383028093820280910A028F778F7751
:10074000909184029078892B809384028091840216
:1007500080688093840210926A021092690283E09A
:1007600080936B0283E080936C0280E090E890932A
:100770006E0280936D0281E892E090937202809302
:10078000710284E0809373020000DF91CF9108959D
:10079000CF93DF93CDB7DEB781E090E00E94930462
:1007A0008FE00E94CA1981E00E94BA1980E00E947D
:1007B00019190E94A81981E080930A0265EB72E082
:1007C00080E00E94C10461E473E084E00E94C104FF
:1007D00081E00E9454190000DF91CF910895CF93DA
:1007E000DF93CDB7DEB780916302882F90E082302F
:1007F000910561F08530910579F0892B09F01FC0D2
:100800000E94C80381E08093630219C00E948402A1
:1008100081E08093630213C08091790290917A0203
:10082000FC018581882319F40E948F0304C0109273
:100830006E0210926D0281E080936302000000005E
:10084000DF91CF9108950F931F93CF93DF93CDB78F
:10085000DEB727970FB6F894DEBF0FBECDBF0E945C
:10086000B2380E94E73B0E94D51C0E94152E789456
:1008700027E0E3E3F2E0CE010196DC0101900D9266
:100880002A95E1F7CE010196BC0180EC90E00E9430
:10089000390280EC90E00E94B5010E94A801DC01C1
:1008A000CB018C019D0140E052EC61E070E080ECF6
:1008B00090E00E9494350E94E51C0E94EF03FBCF5C
:1008C000CF93DF931F92CDB7DEB710921211109223
:1008D000131110920F1110920E11109235111092E7
:1008E000341119820EC08981882F90E00396880FF9
:1008F000991F825F9E4EFC011182108289818F5F59
:1009000089838981803178F30E94AA130E94FF0BAA
:100910000E949D090E946C050E94390B00000F90F7
:10092000DF91CF910895CF93DF9300D0CDB7DEB79D
:100930009A83898389819A8190930F1180930E11F4
:1009400089819A810E94041A00000F900F90DF9114
:10095000CF910895CF93DF9300D0CDB7DEB79A83C0
:10096000898389819A8190931111809310118981D3
:100970009A810E94E01900000F900F90DF91CF91B3
:100980000895CF93DF9300D01F92CDB7DEB7898350
:100990007B836A838981882F90E00396880F991F53
:1009A000825F9E4E2A813B81FC01318320830000BF
:1009B0000F900F900F90DF91CF910895CF93DF9319
:1009C000CDB7DEB7809134119091351121E0892B9C
:1009D00009F420E0822FDF91CF910895CF93DF9328
:1009E000CDB7DEB780913411909135110196909377
:1009F0003511809334110000DF91CF910895CF938A
:100A0000DF93CDB7DEB78091341190913511019706
:100A100090933511809334110000DF91CF910895A8
:100A2000CF93DF93CDB7DEB70E943E1A0000DF916F
:100A3000CF910895CF93DF93CDB7DEB70E946C1AA4
:100A40000000DF91CF910895CF93DF93CDB7DEB74C
:100A50002C970FB6F894DEBF0FBECDBF8C8789E010
:100A6000EAE3F2E0DE01139601900D928A95E1F738
:100A700089E189831A8215C09C858981981758F469
:100A80008A81882F90E09E012D5F3F4F820F931F38
:100A9000FC0180810AC08981875E89838A818F5F9A
:100AA0008A838A81893040F38FEF2C960FB6F894B1
:100AB000DEBF0FBECDBFDF91CF910895CF93DF93FF
:100AC000CDB7DEB70E9456130E9469170E946709CE
:100AD0000000DF91CF910895CF93DF93CDB7DEB7BC
:100AE00010928F0210928E020000DF91CF91089534
:100AF000CF93DF9300D0CDB7DEB79A838983898106
:100B00009A81FC01148289819A81FC01128A89816F
:100B10009A81FC01138212828091341190913511D7
:100B20000196909335118093341180918E029091AB
:100B30008F02892B61F489819A81FC0111821082D4
:100B400089819A8190938F0280938E020FC02091A9
:100B50008E0230918F0289819A81FC01318320833A
:100B600089819A8190938F0280938E0200000F906A
:100B70000F90DF91CF910895CF93DF93CDB7DEB77C
:100B800028970FB6F894DEBF0FBECDBF98878F832E
:100B90008F819885FC01818592858034910598F438
:100BA0000E94BC099A83898389819A81892B61F586
:100BB0008F81988522E0FC0124838F81988522E033
:100BC000FC01228BCEC28F819885FC0181859285A4
:100BD00080749927892B21F081E00E942E0A03C09E
:100BE00080E00E942E0A9A83898389819A81892BC9
:100BF00059F48F81988522E0FC0124838F819885A8
:100C000022E0FC01228BADC28F819885FC01818599
:100C1000928580749927892B09F499C089819A81DA
:100C20008A579F4FFC0110828F819885FC01818536
:100C3000928580789927892B41F089819A81FC01DE
:100C40002581287FFC01258334C08F819885FC0194
:100C50008185928588279170892B49F089819A81B5
:100C6000FC012581287F2460FC01258322C08F811F
:100C70009885FC018185928588279270892B49F09F
:100C800089819A81FC012581287F2660FC012583CA
:100C900010C08F819885FC0181859285882794708A
:100CA000892B39F089819A81FC0125812760FC011B
:100CB000258389819A81FC012581277FFC01258379
:100CC00089819A81FC0125812F7EFC012583898100
:100CD0009A81FC0125812F712068FC0125838F8179
:100CE0009885FC018185928588279870892B31F041
:100CF00089819A8121E0FC01278313C08F81988527
:100D0000FC018185928588279071892B31F089813A
:100D10009A8122E0FC01278304C089819A81FC0129
:100D2000178280910D112EE3280F89819A81FC0191
:100D300020878EEF9AEC9C838B8389819A812EEF9A
:100D4000FC01268389819A810E942914F5C18F8133
:100D50009885FC0181859285992394F08F819885EF
:100D6000FC018185928588279072892B49F48F81B7
:100D70009885FC018185928588279074892B99F14B
:100D80008F819885FC012185328589819A81B901FD
:100D90000E947C1489819A818A579F4FFC0110829E
:100DA0008F819885FC018785482F50E08F81988539
:100DB000FC012585368589819A818F579F4FFC01DB
:100DC00080819181B9010E94884A89819A81FC01C0
:100DD00021818F819885FC018785280F89819A81DF
:100DE000FC012183A9C18F819885FC0181859285B1
:100DF00080729927892B09F462C089819A818A5768
:100E00009F4FFC01108289819A81FC012185207FFE
:100E10002860FC01218789819A81FC0121852F703E
:100E20002066FC01218789819A81FC012285207F2F
:100E30002160FC01228789819A81FC012285206141
:100E4000FC01228789819A81FC0122852064FC01B2
:100E5000228789819A81FC0122852F77FC012287D4
:100E600089819A81FC01138689819A81FC0114860B
:100E70008F819885FC018785482F50E08F81988568
:100E8000FC012585368589819A818F579F4FFC010A
:100E900080819181B9010E94884A89819A81FC01EF
:100EA00021818F819885FC018785280F89819A810E
:100EB000FC01218389819A810E94DE133DC18F81CB
:100EC0009885FC0181859285892B09F435C18F8134
:100ED0009885FC01818592858470992721E0892B72
:100EE00009F420E089819A818A579F4FFC01208371
:100EF0008F819885FC01818592858170992721E0F9
:100F0000892B09F420E089819A812170FC013385C5
:100F10003E7F232BFC0123878F819885FC018185EF
:100F200092858870992721E0892B09F420E0898136
:100F30009A812170220F220FFC0133853B7F232BE6
:100F4000FC0123878F819885FC01818592858072C1
:100F5000992721E0892B09F420E089819A81217069
:100F60002295207FFC0133853F7E232BFC012387C4
:100F70008F819885FC01818592858071992721E078
:100F8000892B09F420E089819A812170220F220F98
:100F9000220FFC013385377F232BFC0123878981B6
:100FA0009A81FC0183858870882309F462C0898155
:100FB0009A818F579F4FFC01808191819E838D8301
:100FC0008F819885FC018385282F2F708D819E81CC
:100FD0002F70FC013181307F232BFC0121838F8115
:100FE0009885FC018385282F2F708D819E81229505
:100FF000207FFC0131813F70232BFC0121838F81F5
:101000009885FC018485282F2F708D819E812F70FB
:10101000FC013081307F232BFC0120838F81988558
:10102000FC018485282F2F708D819E812295207F41
:10103000FC0130813F70232BFC01208389819A8140
:101040008F579F4FFC01808191819C012E5F3F4F04
:1010500089819A818F579F4FFC0131832083898139
:101060009A81FC01818122E0280F89819A81FC010B
:101070002183809112118F5F8093121120911211A0
:1010800089819A81FC01248720910E1130910F11E2
:1010900089819A81FC01368725878F819885FC019B
:1010A0002581368189819A81FC01308B27878F8148
:1010B0009885FC018085282F2F7089819A812F7057
:1010C000FC013189307F232BFC01218B8F81988596
:1010D000FC018781282F2F7089819A812295207F9A
:1010E000FC0131893F70232BFC01218B8F81988576
:1010F000FC018785482F50E08F819885FC0125856C
:10110000368589819A818F579F4FFC01808191811B
:10111000B9010E94884A89819A81FC0121818F81CD
:101120009885FC018785280F89819A81FC0121839C
:1011300089819A810E94F0148F81988529813A8152
:10114000FC01338322838F81988521E0FC01248375
:1011500089819A8189579F4F2AEB38E0FC013183BE
:10116000208328960FB6F894DEBF0FBECDBFDF9167
:10117000CF910895CF93DF9300D000D0CDB7DEB7E5
:101180009C838B8380918E0290918F029A838983B6
:101190002BC089819A81FC01228133818B819C81C2
:1011A00028173907D1F48B819C818D579F4FFC0103
:1011B000208189819A81FC01228B8B819C818A57B5
:1011C0009F4FFC01208189819A81FC01238B8981B9
:1011D0009A8122E0FC0124830BC089819A81FC0161
:1011E000808191819A83898389819A81892B89F66B
:1011F0008B819C810E94C60A00000F900F900F9077
:101200000F90DF91CF910895CF93DF9300D000D05E
:10121000CDB7DEB79C838B8320918E0230918F02F5
:101220008B819C812817390761F480918E029091FF
:101230008F02FC018081918190938F0280938E02B6
:1012400025C080918E0290918F029A83898307C076
:1012500089819A81FC01808191819A838983898126
:101260009A81FC01208131818B819C81281739076B
:1012700079F789819A81FC0180819181FC0120812B
:10128000318189819A81FC013183208380913411DD
:1012900090913511019790933511809334118B8182
:1012A0009C81FC0180899189892B49F08B819C81EB
:1012B000FC01208931898B819C81F901099500000D
:1012C0000F900F900F900F90DF91CF910895CF93D3
:1012D000DF9300D0CDB7DEB780918E0290918F0260
:1012E0009A83898321C089819A81FC018481882F16
:1012F00090E08130910581F08230910541F0892B99
:1013000009F00BC089819A810E94BC0511C08981B6
:101310009A810E9404090CC0000089819A81FC0115
:10132000808191819A83898389819A81892BD9F6D9
:101330000F900F90DF91CF910895CF93DF931F927D
:10134000CDB7DEB7198210C08981282F30E049E877
:10135000429FC001439F900D11248C569D4FFC016C
:10136000108289818F5F89838981843168F30000CD
:101370000F90DF91CF910895CF93DF931F92CDB758
:10138000DEB7198261C08981282F30E049E8429F89
:10139000C001439F900D11248C569D4FFC0180810C
:1013A000882309F04EC08981282F30E049E8429F08
:1013B000C001439F900D11248C569D4F49E850E089
:1013C00060E070E00E94914A8981282F30E049E86E
:1013D000429FC001439F900D11248B569D4FFC01ED
:1013E00010828981482F50E08981282F30E069E8F8
:1013F000629FC001639F900D112402969C012C56A0
:101400003D4F69E8649FC001659F900D11248B5E7C
:101410009C4FFC01318320838091341190913511D0
:10142000019690933511809334118981282F30E0F3
:1014300049E8429FC001439F900D11248C569D4F57
:1014400009C089818F5F89838981843108F49BCFAA
:1014500080E090E00F90DF91CF910895CF93DF93DC
:1014600000D0CDB7DEB78A83198285C08981282F45
:1014700030E049E8429FC001439F900D11248C56F3
:101480009D4FFC018081882309F072C08981282F3B
:1014900030E049E8429FC001439F900D11248C56D3
:1014A0009D4F49E850E060E070E00E94914A8A81D7
:1014B000882379F08981282F30E049E8429FC001D4
:1014C000439F900D11248B569D4F27E0FC012083F4
:1014D0000EC08981282F30E049E8429FC001439F18
:1014E000900D11248B569D4F23E0FC0120838981B0
:1014F000482F50E08981282F30E069E8629FC001C1
:10150000639F900D112402969C012C563D4F8981BA
:10151000682F70E0E9E8E69FC001E79F900D112475
:101520008B569D4FFC018081882F90E0280F391F3A
:1015300069E8649FC001659F900D11248B5E9C4FEC
:10154000FC013183208380913411909135110196F3
:1015500090933511809334118981282F30E049E828
:10156000429FC001439F900D11248C569D4F09C08E
:1015700089818F5F89838981843108F477CF80E006
:1015800090E00F900F90DF91CF910895CF93DF936C
:1015900000D0CDB7DEB79A83898389819A81FC0117
:1015A00010828091341190913511019790933511EB
:1015B0008093341100000F900F90DF91CF91089528
:1015C000CF93DF9300D0CDB7DEB79A83898389812B
:1015D0009A81892B29F484E992E09A83898316C041
:1015E00089819A8187579F4F9A8389830FC0898108
:1015F0009A81FC018081882319F089819A810DC02C
:1016000089819A8187579F4F9A83898389819A819B
:1016100088549D4060F380E090E00F900F90DF9140
:10162000CF910895CF93DF9300D0CDB7DEB79A83E3
:10163000898389819A818D579F4FFC011082809107
:1016400012118F5F809312112091121189819A815A
:10165000FC01248720910E1130910F1189819A810C
:10166000FC013687258700000F900F90DF91CF9106
:101670000895CF93DF931F92CDB7DEB719820FC0C5
:101680008981882F90E0880F991F845B924F2FEFFC
:101690003FEFFC013183208389818F5F89838981BA
:1016A000833070F300000F90DF91CF910895CF93B6
:1016B000DF9300D0CDB7DEB79A83898389819A8181
:1016C000BC018FEF9FEF0E94A40B0F900F90DF9152
:1016D000CF910895CF93DF9300D0CDB7DEB79A8333
:1016E000898389819A816FEF7FEF0E94A40B0F900D
:1016F0000F90DF91CF910895CF93DF9300D01F9289
:10170000CDB7DEB79B838A83198214C08981882F65
:1017100090E0880F991F845B924FFC0120813181FA
:101720008A819B812817390711F481E007C08981DC
:101730008F5F89838981833048F380E00F900F9019
:101740000F90DF91CF910895CF93DF9300D000D019
:101750001F92CDB7DEB79B838A837D836C8319820A
:1017600020C08981882F90E0880F991F845B924F59
:10177000FC01208131818A819B812817390771F40E
:101780008981882F90E0880F991F845B924F2C816C
:101790003D81FC013183208381E007C089818F5F17
:1017A000898389818330E8F280E00F900F900F9059
:1017B0000F900F90DF91CF910895CF93DF9300D0DA
:1017C000CDB7DEB79A83898389819A81FC014181F3
:1017D00089819A818F579F4FFC01808191819C0163
:1017E00089819A810296B901681B790BCB01742F0C
:1017F000781B872F0F900F90DF91CF910895CF9393
:10180000DF931F92CDB7DEB7198211C08981282FCF
:1018100030E0C901880F991F880F991F820F931F0D
:101820008E59924FFC01108289818F5F8983898153
:10183000823360F384E690E0A0E0B0E080935F0E36
:101840009093600EA093610EB093620E1092630E9F
:1018500086EE9DE09093650E8093640E67E07FE0D6
:1018600080E00E94C10400000F90DF91CF910895A5
:10187000CF93DF9300D000D0CDB7DEB79C838B83AE
:101880008B819C81FC0180819181FC0180818C3065
:1018900041F48B819C81FC018281873008F05BC020
:1018A000F9C08B819C81FC0180819181FC01808148
:1018B0008C3C49F08B819C81FC0180819181FC01F1
:1018C00080818C3841F48B819C81FC018281833042
:1018D00008F041C0DFC08B819C81FC018081918137
:1018E0000196FC0180818838D1F48B819C81FC01B8
:1018F00080819181FC018081813651F08B819C81B6
:10190000FC0180819181FC018081813409F0B7C0A4
:101910008B819C81FC0182818031E8F4B0C08B8195
:101920009C81FC01808191810196FC01808180383D
:1019300009F0A7C08B819C81FC0180819181FC0111
:101940008081882309F09FC08B819C81FC0182816A
:101950008B3008F498C08B819C81FC01808191813F
:101960000196FC018081883851F08B819C81FC01BB
:10197000808191810196FC0180818038D9F40E9498
:10198000BC099A83898389819A81892B09F47DC056
:101990008B819C81FC01808191810196FC01808179
:1019A000883811F420E201C025E289819A81FC0186
:1019B000208337C08B819C81FC0180819181FC0157
:1019C00080818C3081F481E00E942E0A9A83898381
:1019D00089819A81892B09F45AC089819A8126E2EA
:1019E000FC0120831EC080E00E942E0A9A83898316
:1019F00089819A81892B09F44CC08B819C81FC01DF
:101A000080819181FC0180818C3831F489819A81B7
:101A100028E2FC01208305C089819A8127E2FC012C
:101A200020838B819C81FC01228189819A81FC0128
:101A300021838B819C81FC01238189819A818D572F
:101A40009F4FFC0120838B819C81FC012481898133
:101A50009A818C579F4FFC0120838B819C81FC01D4
:101A60008281482F50E08B819C81FC012081318153
:101A700089819A810296B9010E94884A0BC00000B0
:101A800009C0000007C0000005C0000003C000003E
:101A900001C000000F900F900F900F90DF91CF9139
:101AA0000895CF93DF9300D000D000D0CDB7DEB73C
:101AB0009E838D830E94BC099A83898389819A8140
:101AC000892B09F46BC08D819E81FC01818120E10D
:101AD000280F8D819E81FC0121838D819E818F57EE
:101AE0009F4FFC01808191819C01205F3F4F8D8140
:101AF0009E818F579F4FFC013183208389819A817A
:101B00000E94120B89819A81FC01818123E0280FB8
:101B100089819A81FC01218389819A8189579F4F0C
:101B2000FC01118210828D819E81FC01838581FBE5
:101B3000222720F989819A812170220FFC013385A7
:101B40003D7F232BFC0123878D819E81FC01258510
:101B5000368589819A81FC01308B278789819A811A
:101B60008F579F4FFC01808191819C838B838B8158
:101B70009C81FC0110822091580E8B819C81FC017C
:101B800022838D819E81FC0124858B819C81FC01B7
:101B9000218389819A810E94F01401C00000269659
:101BA0000FB6F894DEBF0FBECDBFDF91CF91089581
:101BB000CF93DF931F92CDB7DEB78983898180935E
:101BC000580E00000F90DF91CF910895CF93DF93CF
:101BD00000D000D0CDB7DEB79C838B8319821A82E8
:101BE00030C08A81282F30E0C901880F991F880FE3
:101BF000991F820F931F8E59924FFC018081882379
:101C0000E9F08A81282F30E0C901880F991F880FD9
:101C1000991F820F931F8E59924FFC0180814FEFC5
:101C2000480FC901880F991F880F991F820F931FB2
:101C30008E59924FFC01408381E089838A818F5FB6
:101C40008A838A81823368F28981882321F08B819B
:101C50009C810E942B1D00000F900F900F900F9001
:101C6000DF91CF910895CF93DF93CDB7DEB729975A
:101C70000FB6F894DEBF0FBECDBF998788871A8252
:101C800019821B8290C08B81282F30E0C901880FF8
:101C9000991F880F991F820F931F825A924F9D831D
:101CA0008C838C819D81FC018481882309F46EC022
:101CB00088859985FC01238534858C819D81FC0173
:101CC000808191812817390709F060C08C819D813E
:101CD000FC01228188859985FC018285F22FF81B01
:101CE0008F2F8E838E81883058F58C819D81FC01E9
:101CF0008381882F90E02E81222F30E002C09595BD
:101D000087952A95E2F781709927892B11F081E058
:101D100075C08C819D81FC018381482F8E81282F85
:101D200030E081E090E002C0880F991F2A95E2F729
:101D3000842B282F8C819D81FC01238380E05EC051
:101D40008E8181958F8388859985FC0122858C8180
:101D50009D81FC0122838C819D81FC018381882FE0
:101D600090E02F81222F30E002C0880F991F2A9522
:101D7000E2F78160282F8C819D81FC0123838C8177
:101D80009D8125E1FC01248380E038C08C819D8108
:101D9000FC018481882321F48C819D819A8389832D
:101DA0008B818F5F8B838B81823308F46CCF898129
:101DB0009A81892B11F481E021C088859985FC01E5
:101DC0002385348589819A81FC013183208388852C
:101DD0009985FC01228589819A81FC012283898170
:101DE0009A8121E0FC01238389819A8125E1FC010C
:101DF000248389E59EE00E942B1D80E029960FB682
:101E0000F894DEBF0FBECDBFDF91CF910895CF9381
:101E1000DF9300D0CDB7DEB79A83898389819A8119
:101E2000FC018285882311F480E011C089819A81A8
:101E3000FC0180859185FC018081882F90E0892BB1
:101E400029F489819A810E94161601C080E00F90C2
:101E50000F90DF91CF910895CF93DF93CDB7DEB789
:101E600028970FB6F894DEBF0FBECDBF98878F833B
:101E70008F81988502969B838A838F81988524E23F
:101E8000FC0120838A819B81FC01818582708823EB
:101E900009F03BC18A819B81FC0181858870882380
:101EA00041F08A819B81FC0181858170882309F042
:101EB0002EC18A819B81FC01838194810196D1F49A
:101EC00020910E1130910F118A819B81FC01858533
:101ED00096852817390741F08A819B81FC01858509
:101EE0009685019609F015C18F81988522E2FC0143
:101EF00020830FC18A819B81FC018585968501968F
:101F000041F48A819B81FC0181858170882309F0DD
:101F100002C120910E1130910F118A819B81FC0129
:101F2000838594852817390709F4F7C08A819B8136
:101F30000E94330E882309F0F2C08A819B81FC0144
:101F400081858870882309F4A9C08F8198858F576F
:101F50009F4FFC01808191819D838C838A819B812D
:101F6000FC01858596850E947C0B8E8319828A816F
:101F70009B81FC0185819681019609F061C08E816B
:101F8000882379F18C819D81FC0181818F70882F5C
:101F900090E021E0181619060CF020E029838C81CE
:101FA0009D81FC0181818F702FE0280F2F708C8123
:101FB0009D812F70FC013181307F232BFC01218317
:101FC0008C819D81FC018081282F22952F708C812E
:101FD0009D812F70FC013081307F232BFC012083F9
:101FE0003BC08C819D81FC0180818F70882F90E0A7
:101FF00021E0181619060CF020E029838C819D81C0
:10200000FC0180818F702FE0280F2F708C819D81C3
:102010002F70FC013081307F232BFC0120838C81C9
:102020009D81FC018181282F22952F708C819D81BB
:102030002F70FC013181307F232BFC0121830CC0E8
:102040008E81882349F081E089838A819B81FC010C
:1020500021852460FC0121878981882321F08F81DB
:1020600098850E9487158E81882309F459C08F8135
:1020700098858F579F4FFC01808191819C012E5F35
:102080003F4F8F8198858F579F4FFC01318320836D
:102090008F81988522E2FC01208342C08A819B8146
:1020A000FC01858196810196B9F420910E11309141
:1020B0000F118A819B81FC01858596852817390738
:1020C00059F08A819B81FC0181858470882321F4E9
:1020D0008F8198850E94871520910E1130910F11E4
:1020E0008A819B81FC01858596852817390739F0FF
:1020F0008A819B81FC0185859685019689F48F8173
:10210000988522E2FC0120830BC0000009C000007A
:1021100007C0000005C0000003C0000001C00000AF
:1021200028960FB6F894DEBF0FBECDBFDF91CF91DA
:102130000895CF93DF93CDB7DEB761970FB6F894CC
:10214000DEBF0FBECDBF998B888B88899989029697
:102150009A83898389819A81FC01878582958F7012
:10216000882F90E00396880F991F825F9E4EFC0196
:1021700080819181892B11F480E0D9C089819A8175
:10218000FC01838594859C838B8389819A81FC01E2
:10219000858596859E838D8389819A81FC018785BB
:1021A0008F708F8389819A81FC01878582958F70DA
:1021B0008887888999898F579F4FFC0180819181F9
:1021C0009C878B87888999890E94DD0B8D878889F8
:1021D00099898D579F4FFC0180818E8788899989C5
:1021E0008C579F4FFC0180818F8789819A81FC01E8
:1021F0008185982F917081E0992309F480E0882FE0
:1022000090E09A87898729853A8589819A81FC019E
:102210008185882F90E082709927822B932B9A8753
:10222000898729853A8589819A81FC018185847015
:10223000882319F080E290E002C080E090E0822BD9
:10224000932B9A87898729853A8589819A81FC0110
:1022500081858870882319F080E490E002C080E0D6
:1022600090E0822B932B9A87898729853A858981EB
:102270009A81FC0181858071882319F080E890E0C3
:1022800002C080E090E0822B932B9A878987298572
:102290003A8589819A81FC0185859685019619F494
:1022A00084E090E002C080E090E0822B932B9A873C
:1022B000898729853A8589819A81FC0143855485DE
:1022C00089819A81FC01878190854817590719F403
:1022D00088E090E002C080E090E0822B932B9A8708
:1022E000898729853A8589819A81FC018381948136
:1022F000019619F480E190E002C080E090E0822B2A
:10230000932B9A87898789819A81FC018785829599
:102310008F70882F90E00396880F991F825F9E4EE2
:10232000FC0120813181CE010396F9010995619666
:102330000FB6F894DEBF0FBECDBFDF91CF910895E9
:10234000CF93DF93CDB7DEB761970FB6F894DEBFBA
:102350000FBECDBF998B888B8889998902969A8305
:1023600089838889998924E2FC0120838091141152
:1023700090911511892B11F480E044C088899989C6
:10238000FC01878190859C838B8388899989FC01D6
:10239000878190859E838D831F821886888999897D
:1023A0008F579F4FFC01808191819C878B87888903
:1023B00099890E94DD0B8D87888999898D579F4F58
:1023C000FC0180818E87888999898C579F4FFC01F9
:1023D00080818F8780E890E09A87898789819A81B8
:1023E000FC01878582958F70882F90E00396880F77
:1023F000991F825F9E4EFC0120813181CE010396A0
:10240000F901099561960FB6F894DEBF0FBECDBFF6
:10241000DF91CF910895CF93DF93CDB7DEB72F979C
:102420000FB6F894DEBF0FBECDBF9F878E878E8517
:102430009F8524E2FC012083809114119091151155
:10244000892B11F480E02AC01A8219821C821B8217
:102450001D821E828E859F8502969A8789878E852A
:102460009F850E94DD0B8B878E859F858D579F4FA3
:10247000FC0180818C878E859F858C579F4FFC0146
:1024800080818D8780E091E098878F83209114115F
:1024900030911511CE010196F90109952F960FB6CD
:1024A000F894DEBF0FBECDBFDF91CF910895CF93DB
:1024B000DF93CDB7DEB761970FB6F894DEBF0FBEDE
:1024C000CDBF998B888B8889998902969A83898355
:1024D0008889998924E2FC01208380911A119091C6
:1024E0001B11892B11F480E02EC01C821B821E82DE
:1024F0001D821F821886888999898F579F4FFC01FA
:10250000808191819C878B87888999890E94DD0BC6
:102510008D87888999898D579F4FFC0180818E878F
:10252000888999898C579F4FFC0180818F8780E033
:1025300092E09A87898720911A1130911B11CE0160
:102540000396F901099561960FB6F894DEBF0FBEA8
:10255000CDBFDF91CF910895CF93DF93CDB7DEB795
:1025600061970FB6F894DEBF0FBECDBF998B888BF5
:102570008889998902969A8389838889998924E22E
:10258000FC01208380911C1190911D11892B11F465
:1025900080E02EC01C821B821E821D821F82188634
:1025A000888999898F579F4FFC01808191819C87F1
:1025B0008B87888999890E94DD0B8D878889998905
:1025C0008D579F4FFC0180818E87888999898C5710
:1025D0009F4FFC0180818F8780E090E49A878987F4
:1025E00020911C1130911D11CE010396F90109951E
:1025F00061960FB6F894DEBF0FBECDBFDF91CF91CD
:102600000895CF93DF9300D01F92CDB7DEB79B83A1
:102610008A831092580E8A819B810E949910898327
:102620008A819B81FC0183858170882309F419824A
:102630008A819B81FC01878190850196A9F4209174
:102640000E1130910F118A819B81FC018785908941
:102650002817390749F48A819B81FC01838588709A
:10266000882311F481E089838A819B81FC01858123
:102670009681019609F4198280910E1190910F11A3
:10268000019609F419828981882321F08A819B812E
:102690000E94510D8A819B8124E2FC01208300006D
:1026A0000F900F900F90DF91CF910895CF93DF930C
:1026B00000D0CDB7DEB71A8219823BC089819A81DA
:1026C000FC018081882F90E0092E000CAA0BBB0B27
:1026D00040E250E028E030E0841B950B28173907D2
:1026E00040F180579F4FFC010C94334989819A81B6
:1026F0000E942C0F1EC089819A810E94011319C06B
:1027000089819A810E94C60A14C089819A810E9497
:10271000A0110FC089819A810E940B120AC0898181
:102720009A810E94571205C089819A810E94AC1239
:10273000000089819A810E94E00A9A8389838981B5
:102740009A81892B09F0BACF00000F900F90DF918A
:10275000CF910895CF93DF93CDB7DEB710926F0E70
:1027600010926E0E82E390E0A0E0B0E08093760ECF
:102770009093770EA093780EB093790E10927A0E04
:1027800085E696E190937C0E80937B0E8AE090E044
:10279000A0E0B0E08093830E9093840EA093850E0A
:1027A000B093860E1092870E8FEC96E19093890E6F
:1027B0008093880E0000DF91CF910895CF93DF932F
:1027C00000D000D0CDB7DEB79C838B838B819C81FA
:1027D00002969A8389838B819C8123E1FC0120836B
:1027E0008B819C818D579F4FFC0110828B819C8136
:1027F0008C579F4FFC011182108289819A8120E0C1
:1028000030E8FC0131832083809113118F5F809326
:1028100013112091131189819A81FC012283209147
:1028200010113091111189819A81FC013483238325
:1028300020910E1130910F1189819A81FC0136830C
:10284000258300000F900F900F900F90DF91CF9194
:102850000895CF93DF9300D000D0CDB7DEB79C832F
:102860008B838B819C8102969A8389838B819C8147
:1028700023E1FC0120838B819C818D579F4FFC01BC
:1028800010828B819C818C579F4FFC01118210829A
:1028900089819A812CE0FC012083809113118F5F44
:1028A000809313112091131189819A81FC01218356
:1028B00089819A81FC012281287FFC012283898100
:1028C0009A81FC012281277EFC01228389819A81E1
:1028D000FC0122812F7DFC01228389819A81FC01E8
:1028E00022812F7BFC01228300000F900F900F901C
:1028F0000F90DF91CF910895CF93DF9300D000D058
:1029000000D0CDB7DEB79C838B837E836D838B81B4
:102910009C8102969A8389838B819C8123E1FC01AF
:1029200020838B819C818D579F4FFC0110828B816E
:102930009C818C579F4FFC01118210828D819E815A
:10294000992334F489819A812CECFC01208317C0EF
:102950008D819E8188279072892B31F089819A819F
:102960002CE4FC0120830BC08D819E81882790740C
:10297000892B29F089819A812CE8FC0120838091A0
:1029800013118F5F809313112091131189819A8104
:10299000FC01218389819A81FC012281287FFC012D
:1029A000228389819A81FC012281277EFC01228376
:1029B00089819A81FC0122812F7DFC0122838981FA
:1029C0009A81FC0122812F7BFC0122830000269644
:1029D0000FB6F894DEBF0FBECDBFDF91CF91089543
:1029E000CF93DF9300D000D0CDB7DEB79C838B832D
:1029F0008B819C8102969A8389838B819C818A57E3
:102A00009F4FFC018081882F90E082709927892B4D
:102A100031F08B819C8122E1FC01208305C08B81F8
:102A20009C8122E1FC0120838B819C818D579F4FEB
:102A3000FC0110828B819C818A579F4FFC01808111
:102A4000882F90E081709927892B41F089819A81A4
:102A50002FEF3FEFFC013483238309C02091101135
:102A60003091111189819A81FC01348323838981FA
:102A70009A81FC012585368589819A81FC013683FE
:102A8000258320910E1130910F1189819A81FC01CB
:102A900030872783809113118F5F809313112091CA
:102AA000131189819A81FC01228389819A81FC0119
:102AB000858196810196A9F489819A8121E438E87B
:102AC000FC01318320830E949649877099270196E3
:102AD0009C018B819C818C579F4FFC01318320830B
:102AE0000EC089819A8121E438E8FC01318320837A
:102AF0008B819C818C579F4FFC01118210820000BA
:102B00000F900F900F900F90DF91CF910895CF937A
:102B1000DF9300D000D0CDB7DEB79C838B830E94BB
:102B2000BC099A83898389819A81892B09F476C0AB
:102B300089819A818F579F4FFC01808191819C01EF
:102B4000205F3F4F89819A818F579F4FFC013183CE
:102B5000208389819A8122E1FC0120838B819C81E1
:102B6000FC01218189819A81FC01218389819A81DB
:102B70008D579F4FFC0110820E94964987709927BC
:102B800001969C0189819A818C579F4FFC0131836A
:102B9000208389819A8189579F4FFC01118210827D
:102BA0008B819C81FC018181482F50E08B819C812D
:102BB0009C012E5F3F4F89819A810296B9010E9444
:102BC000884A89819A8121E438E8FC013383228391
:102BD00089819A812FEF3FEFFC01308727838B811A
:102BE0009C81FC012581368189819A81FC01368393
:102BF000258320910E1130910F1189819A81FC015A
:102C000032872187809113118F5F80931311209158
:102C1000131189819A81FC01248301C000000F9067
:102C20000F900F900F90DF91CF910895CF93DF9386
:102C300000D000D000D0CDB7DEB79E838D838D81CC
:102C40009E81FC01808591859C838B831A821982E9
:102C50008D819E81FC018285833019F180E02CC03A
:102C600089819A81FC0180818631D9F489819A8198
:102C7000FC0124858B819C81FC018181281789F4CA
:102C800089819A8127E1FC0120838B819C81FC0151
:102C9000228189819A818A579F4FFC01208381E09C
:102CA0000BC089819A810E94E00A9A838983898175
:102CB0009A81892BA9F680E026960FB6F894DEBF9C
:102CC0000FBECDBFDF91CF910895CF93DF9300D09A
:102CD00000D01F92CDB7DEB79D838C831A821982F4
:102CE0001B8227C089819A81FC018081863109F588
:102CF00081E08B8389819A818C579F4FFC01808171
:102D000091819C012150310989819A818C579F4F73
:102D1000FC013183208389819A818C579F4FFC016C
:102D200080819181892B29F489819A8160E10E94B7
:102D3000B31689819A810E94E00A9A8389838981E6
:102D40009A81892B79F68B81882321F08C819D8152
:102D50000E942B1D00000F900F900F900F900F906E
:102D6000DF91CF910895CF93DF9300D01F92CDB71D
:102D7000DEB79A8389836B8389819A8127E1FC017D
:102D8000208389819A818D579F4F2B81FC0120835D
:102D900000000F900F900F90DF91CF910895CF9387
:102DA000DF9300D000D01F92CDB7DEB79D838C8318
:102DB0001A8219821B8227C089819A81FC01808135
:102DC000813109F581E08B8389819A818C579F4FEE
:102DD000FC01808191819C012150310989819A8176
:102DE0008C579F4FFC013183208389819A818C57B6
:102DF0009F4FFC0180819181892B29F489819A81DF
:102E000023E1FC01208389819A810E94E00A9A8350
:102E1000898389819A81892B79F68B81882321F096
:102E20008C819D810E942B1D00000F900F900F90B0
:102E30000F900F90DF91CF910895CF93DF931F9262
:102E4000CDB7DEB789838981882F90E081309105E5
:102E500039F08230910531F0892B31F480E005C0E2
:102E600080E203C081E201C081E00F90DF91CF9149
:102E700008950F931F93CF93DF931F92CDB7DEB7C3
:102E8000898300916E0E10916F0E89810E941D172B
:102E9000282FC8018D579F4FFC01208380916E0E13
:102EA00090916F0E25E1FC01208310926F0E10921D
:102EB0006E0E8091341190913511019790933511D8
:102EC0008093341100000F90DF91CF911F910F91EB
:102ED0000895CF93DF9300D0CDB7DEB71A82198261
:102EE000B3C089819A81FC018081882F90E0843170
:102EF000910509F4A9C08531910534F48231910519
:102F000079F0439731F19FC08631910509F49CC057
:102F1000863191050CF443C0479709F47AC093C0F9
:102F200089819A818C579F4FFC0180819181892BE7
:102F300051F089819A8121E1FC0120838DE79EE097
:102F40000E942B1D81C089819A8123E1FC0120838D
:102F50007BC080916E0E90916F0E892B09F074C02A
:102F600089819A8190936F0E80936E0E89819A81E8
:102F700024E1FC01208389819A81FC0121818981DE
:102F80009A810296622F0E94801A8091341190914A
:102F900035110196909335118093341155C0898174
:102FA0009A818D579F4FFC018081882361F589812B
:102FB0009A81FC012585368580910E1190910F1123
:102FC00028173907D1F489819A81FC0183858170A2
:102FD000882399F089819A8126E1FC0120838981E7
:102FE0009A818C579F4F25E130E0FC01318320838B
:102FF00080E79EE00E942B1D0BC089819A8127E10A
:10300000FC01208321C089819A8127E1FC01208372
:103010001BC089819A8189579F4FFC0180819181D2
:10302000892B29F489819A810E94C60A0DC0898161
:103030009A8189579F4FFC012081318189819A8132
:10304000F901099501C0000089819A810E94E00A76
:103050009A83898389819A81892B09F042CF000064
:103060000F900F90DF91CF910895CF93DF9300D011
:10307000CDB7DEB79A83898389819A81892B09F438
:103080007BC089819A818837910549F461E080E0AD
:103090000E94D83860E180E00E94D8386DC08981F4
:1030A0009A81803C910529F462E080E00E94D83842
:1030B00063C089819A818C34910529F464E080E0B1
:1030C0000E94D83859C089819A818038910529F4A5
:1030D00068E080E00E94D8384FC089819A818434AA
:1030E000910529F460E280E00E94D83845C08981CA
:1030F0009A81803B910529F460E480E00E94D838F1
:103100003BC089819A81883B910529F460E880E081
:103110000E94D83831C089819A81883C910529F470
:1031200061E081E00E94D83827C089819A81803986
:10313000910529F468E081E00E94D8381DC089819A
:103140009A81803A910529F460E181E00E94D838A3
:1031500013C089819A818032914029F460E281E034
:103160000E94D83809C089819A818334914021F422
:1031700060E481E00E94D83800000F900F90DF914A
:10318000CF9108956150710981099109D9F7089586
:103190000F931F93CF93DF93CDB7DEB783E491E016
:1031A0000E94351889E391E0FC0120812160FC0137
:1031B000208310920B0F81E080938A0E88E00E949A
:1031C0005D1B8CE491E0FC0120812068FC012083E0
:1031D0000DE611E00E94C11AF80180838DE491E0B0
:1031E000FC0120812C7F2260FC0120838AE491E095
:1031F000FC012081207F2360FC0120838DE491E08D
:10320000FC0120812860FC0120838DE491E0FC0119
:1032100020812460FC01208384E491E0FC01208172
:103220002068FC0120830000DF91CF911F910F9156
:103230000895CF93DF931F92CDB7DEB7898389813D
:103240008823B1F08CE691E0FC0120812F70FC0115
:1032500020838CE691E0FC0120812E60FC0120831C
:103260008EE691E0FC0120812061FC01208317C0E3
:103270008CE691E0FC0120812F702063FC0120830B
:103280008CE691E0FC012081217F2860FC012083F5
:103290008EE691E0FC0120812F7EFC01208300005E
:1032A0000F90DF91CF910895CF93DF93CDB7DEB725
:1032B00029970FB6F894DEBF0FBECDBF898728E0EF
:1032C000CE010196FC01322F11923A95E9F78985DA
:1032D000882349F180E090E00E94041A80E090E0A9
:1032E0000E94E019CE0101960E949B1B87E591E0A8
:1032F000FC0120812260FC01208387E591E0FC0134
:1033000020812061FC01208387E591E0FC01208180
:103310002F7DFC0120838EE691E0FC01208120615D
:10332000FC0120830BC087E591E0FC0110828EE652
:1033300091E0FC0120812F7EFC0120830000299672
:103340000FB6F894DEBF0FBECDBFDF91CF910895C9
:103350000F931F93CF93DF93CDB7DEB70DE611E048
:103360000E94C11AF80180830000DF91CF911F9164
:103370000F910895CF93DF931F92CDB7DEB7898366
:10338000898180930B0F0E94461B00000F90DF91F4
:10339000CF910895CF93DF931F92CDB7DEB7898386
:1033A00088E491E029812F712F71FC013081307EFA
:1033B000232BFC01208300000F90DF91CF91089513
:1033C000CF93DF9300D000D0CDB7DEB79C838B8343
:1033D000CE0103969A83898382E691E029813A811E
:1033E000F9012081FC01208383E691E029813A8163
:1033F000F9012181FC01208300000F900F900F90B4
:103400000F90DF91CF910895CF93DF9300D000D03C
:10341000CDB7DEB79C838B83CE0103969A838983D5
:1034200080E691E029813A81F9012081FC01208325
:1034300081E691E029813A81F9012181FC01208313
:1034400000000F900F900F900F90DF91CF91089593
:10345000CF93DF931F92CDB7DEB7898385E491E0E8
:1034600029812F702F70FC013081307F232BFC01CC
:10347000208300000F90DF91CF910895CF93DF93C9
:10348000CDB7DEB780918A0E823069F088E00E9465
:103490005D1B89E391E0FC0120812260FC01208317
:1034A00082E080938A0E8DE491E0FC0120812B7FE5
:1034B000FC0120838DE491E0FC012081277FFC0149
:1034C000208384E491E0FC0120812F77FC0120839C
:1034D0000000DF91CF910895CF93DF93CDB7DEB792
:1034E00089E391E0FC0120812D7FFC0120830E9473
:1034F000461B81E080938A0E0000DF91CF910895F2
:10350000CF93DF9300D000D0CDB7DEB79B838A8303
:103510006C8389E10E945D1B8FE491E02FEFFC0139
:10352000208380E891E02C812E5FFC0120831982AA
:1035300014C08981882F90E08F579E4FAC018981FC
:10354000882F90E02A813B81820F931FFC018081AC
:10355000FA01808389818F5F898399818C81981793
:1035600040F383E080938A0E82E491E022E0FC0144
:10357000208300000F900F900F900F90DF91CF915C
:103580000895CF93DF9300D01F92CDB7DEB71A8294
:10359000198286E00E945D1B1B8222C062E070E0FF
:1035A00080E090E00E94C21886E491E0FC018081F6
:1035B0008295869587708370882F90E02B81222FCB
:1035C00030E002C0880F991F2A95E2F79C0189819B
:1035D0009A81822B932B9A8389838B818E5F8B8335
:1035E0008B818031D8F20E94461B89819A810F908D
:1035F0000F900F90DF91CF910895CF93DF9300D07C
:1036000000D0CDB7DEB79A8389837C836B838B81AF
:103610009C8140E060E00E94CC2B89819A810E94CD
:10362000D82C89819A810E940E2D00000F900F9056
:103630000F900F90DF91CF910895CF93DF931F925A
:10364000CDB7DEB786E00E945D1B8FE491E0FC0100
:1036500020812061FC01208387E491E0FC0110823D
:1036600000008FE491E0FC018081829581708823C5
:10367000C1F387E491E0FC0180818A5589830E942F
:10368000461B89810F90DF91CF910895CF93DF93EF
:10369000CDB7DEB788E00E945D1B8FE491E02FEF8D
:1036A000FC01208380910B0F882319F086E10E9492
:1036B0005D1B0000DF91CF910895CF93DF931F92A0
:1036C000CDB7DEB7898380918A0E8230A9F48DE46C
:1036D00091E0FC0120812860FC0120838DE491E0D1
:1036E000FC0120812460FC01208384E491E0FC0142
:1036F00020812068FC01208382E491E023E0FC012A
:10370000208381E491E0FC0180818F718830A1F7F2
:1037100082E491E02981FC01208381E491E0FC01B5
:1037200080818F71982F8981981791F700000F90F1
:10373000DF91CF910895CF93DF9300D000D0CDB724
:10374000DEB79C838B838B819C819A83898324E65B
:1037500031E089819A81AC014F5F5F4F5A83498381
:10376000FC018081F901808325E631E089819A811D
:10377000AC014F5F5F4F5A834983FC018081F9019F
:10378000808326E631E089819A81AC014F5F5F4FEB
:103790005A834983FC018081F901808327E631E067
:1037A00089819A81AC014F5F5F4F5A834983FC0145
:1037B0008081F901808328E631E089819A81AC011A
:1037C0004F5F5F4F5A834983FC018081F9018083F9
:1037D00029E631E089819A81AC014F5F5F4F5A83BE
:1037E0004983FC018081F90180832AE631E08981E7
:1037F0009A81AC014F5F5F4F5A834983FC018081FE
:10380000F90180838BE691E029813A81F9012081D9
:10381000FC01208300000F900F900F900F90DF911C
:10382000CF910895CF93DF93CDB7DEB728970FB62A
:10383000F894DEBF0FBECDBF80918A0E823009F4AE
:10384000AAC08FE491E0FC01808183FB882780F986
:10385000882309F459C08BE791E0FC0180818B83B8
:10386000198211C08981882F90E02981222F30E0B0
:1038700020583E4FF90120818557914FFC0120834C
:1038800089818F5F89838981282F30E08B81882F00
:1038900090E00196281739072CF38BE89EE09D8372
:1038A0008C838B8182508E838B81882F90E085570B
:1038B000914FFC0180818F8387E491E0FC0180813E
:1038C0008A558887CE0104960E94380C000081E456
:1038D00091E0FC0180818F718631C9F78FE491E01E
:1038E000FC0120812860FC0120838CE491E0FC0134
:1038F00020812F77FC0120838CE491E0FC01208162
:103900002068FC01208348C08FE491E0FC018081A5
:1039100086FB882780F9882309F43EC081E491E082
:10392000FC0180818F71893171F582E491E0FC01A5
:1039300080818295869587708A838A81882369F43D
:103940001A8283E492E0892F8F9383E492E08F932D
:103950000E942A4B0F900F900EC08A81833019F479
:1039600081E08A8308C08A81853019F482E08A83E5
:1039700002C083E08A830E94461B81E080938A0E06
:103980008A810E9439178FE491E0FC012081206434
:10399000FC01208301C0000028960FB6F894DEBF1A
:1039A0000FBECDBFDF91CF910895CF93DF93CDB7F9
:1039B000DEB70E94131D0E94C42B0E94C8180E94EB
:1039C00060040000DF91CF910895CF93DF93CDB7CE
:1039D000DEB70E94121C0E945E050E94E51D0000D9
:1039E000DF91CF910895CF93DF931F92CDB7DEB7CC
:1039F0008FE590E0FC0180818983F89489810F90A4
:103A0000DF91CF910895CF93DF931F92CDB7DEB7AB
:103A100089838FE590E02981FC01208300000F90CD
:103A2000DF91CF910895CF93DF93CDB7DEB710929A
:103A300036118DE79FE10E9452450E94044580E1C6
:103A400097E20E949A441092150F1092140F0000F2
:103A5000DF91CF910895CF93DF9300D0CDB7DEB73C
:103A60009A83898389819A810E94BA1D982F81E067
:103A70008927882321F089819A810E94A81E00004D
:103A80000F900F90DF91CF910895CF93DF9300D0E7
:103A900000D000D0CDB7DEB79E838D831A82198205
:103AA0008091140F9091150F9C838B8352C02B81B2
:103AB0003C818D819E812817390709F03FC089819B
:103AC0009A81892B59F08B819C81FC012081318165
:103AD00089819A81FC013183208309C08B819C817B
:103AE000FC01808191819093150F8093140F8B813D
:103AF0009C81FC0180819181892B89F18B819C8142
:103B0000FC01608171818B819C81FC0180819181AC
:103B1000FC0122813381448155818D819E81FC018C
:103B200082819381A481B581820F931FA41FB51F49
:103B3000FB0182839383A483B58311C08B819C8115
:103B40009A8389838B819C81FC01808191819C83F4
:103B50008B838B819C81892B09F0A9CF01C0000048
:103B6000000026960FB6F894DEBF0FBECDBFDF91E2
:103B7000CF910895CF93DF9300D000D0CDB7DEB7BB
:103B80009C838B838091140F9091150F9A83898366
:103B900010C029813A818B819C812817390711F443
:103BA00081E00CC089819A81FC01808191819A8396
:103BB000898389819A81892B61F780E00F900F902A
:103BC0000F900F90DF91CF910895EF92FF920F9396
:103BD0001F93CF93DF93CDB7DEB728970FB6F89436
:103BE000DEBF0FBECDBF80913611882309F4A2C07D
:103BF0000E94F31C8D83809136118E8310923611B2
:103C00008D810E94031D8E81882F90E0A0E0B0E09E
:103C1000880F991FAA1FBB1F9C01AD01220F331FE4
:103C2000441F551F220F331F441F551F820F931F20
:103C3000A41FB51F89839A83AB83BC833DC0809149
:103C4000140F9091150F98878F838091140F909186
:103C5000150FFC0182819381A481B58129813A816C
:103C60004B815C8179018A01E81AF90A0A0B1B0B66
:103C7000D801C70189839A83AB83BC838091140FD9
:103C80009091150FFC01808191819093150F809385
:103C9000140F8F819885FC018285813021F48F81FA
:103CA00098850E94A81E8F819885FC012385348504
:103CB0008F819885F90109958091140F9091150FC6
:103CC000892B99F08091140F9091150FFC0122819E
:103CD00033814481558189819A81AB81BC8182176E
:103CE0009307A407B50708F0AACF8091140F90910D
:103CF000150F892B01F16091140F7091150F8091B0
:103D0000140F9091150FFC0122813381448155815C
:103D100089819A81AB81BC8179018A01E81AF90A0B
:103D20000A0B1B0BD801C701FB0182839383A48379
:103D3000B58301C0000028960FB6F894DEBF0FBE11
:103D4000CDBFDF91CF911F910F91FF90EF9008951C
:103D5000EF92FF920F931F93CF93DF93CDB7DEB710
:103D60002A970FB6F894DEBF0FBECDBF9A8789871A
:103D70008091140F9091150F892B09F497C01A8226
:103D8000198289859A85FC0186819781A085B185F4
:103D90008B839C83AD83BE838091140F9091150F0C
:103DA00098878F834DC08F819885FC012281338154
:103DB000448155818B819C81AD81BE81821793079F
:103DC000A407B507D8F48F819885FC01228133813F
:103DD000448155818B819C81AD81BE8179018A01AD
:103DE000E81AF90A0A0B1B0BD801C7012F81388585
:103DF000F90182839383A483B58327C08F8198853B
:103E0000FC0182819381A481B5812B813C814D810C
:103E10005E8179018A01E81AF90A0A0B1B0BD801A5
:103E2000C7018B839C83AD83BE838F8198859A83E2
:103E300089838F819885FC018081918198878F8308
:103E40008F819885892B09F0AECF29853A858B81A2
:103E50009C81AD81BE81F90182839383A483B58364
:103E600089819A81892B91F089819A81FC01208135
:103E7000318189859A85FC013183208389819A81EA
:103E800029853A85FC013183208329C02091140FB4
:103E90003091150F89859A85FC01318320838985AE
:103EA0009A859093150F8093140F19C089859A8570
:103EB000FC011182108289859A85FC018681978197
:103EC000A085B18529853A85F90182839383A483EE
:103ED000B58389859A859093150F8093140F000000
:103EE0002A960FB6F894DEBF0FBECDBFDF91CF91FB
:103EF0001F910F91FF90EF900895CF93DF93CDB76F
:103F0000DEB7809136118F5F8093361180E197E2A2
:103F10000E949A440000DF91CF910895CF93DF93E0
:103F20001F92CDB7DEB78FE590E0FC0180818983D9
:103F3000F89489810F90DF91CF910895CF93DF930B
:103F40001F92CDB7DEB789838FE590E02981FC0110
:103F5000208300000F90DF91CF910895CF93DF93DE
:103F6000CDB7DEB780E094E2A4EFB0E0BC01CD01B4
:103F7000DF91CF910895CF93DF93CDB7DEB70E9445
:103F8000AE1FDC01CB01BC01CD01DF91CF910895C3
:103F9000CF93DF9300D0CDB7DEB79A838983898131
:103FA0009A81892B21F480E090E0DC01A3C0898113
:103FB0009A818837910529F40E94BB1FDC01CB014F
:103FC00099C089819A81803C910529F40E94BB1F88
:103FD000DC01CB018FC089819A818C34910529F451
:103FE0000E94BB1FDC01CB0185C089819A8180388A
:103FF000910529F40E94BB1FDC01CB017BC08981A4
:104000009A818434910529F40E94BB1FDC01CB0105
:1040100071C089819A81803B910529F40E94BB1F60
:10402000DC01CB0167C089819A81803C910529F42C
:104030000E94BB1FDC01CB015DC089819A81883B56
:10404000910529F40E94BB1FDC01CB0153C089817B
:104050009A818039910529F40E94BB1FDC01CB01B4
:1040600049C089819A81803A910529F40E94BB1F39
:10407000DC01CB013FC089819A818032914029F4D3
:104080000E94BB1FDC01CB0135C089819A8183343A
:10409000914029F40E94BB1FDC01CB012BC0898118
:1040A0009A818533914029F40E94BB1FDC01CB012A
:1040B00021C089819A818433914029F40E94BB1FD9
:1040C000DC01CB0117C089819A818333914029F4A7
:1040D0000E94BB1FDC01CB010DC089819A81823314
:1040E000914029F40E94BB1FDC01CB0103C080E09A
:1040F00090E0DC01BC01CD010F900F90DF91CF91DA
:104100000895CF93DF9300D01F92CDB7DEB79A8387
:1041100089836B8389819A818038910559F481E87C
:1041200090E021E830E0F90130812B81232BFC0164
:1041300020832FC089819A818039910559F481E9C2
:1041400090E021E930E0F90130812B81232BFC0143
:1041500020831FC089819A81803A910559F481EAB0
:1041600090E021EA30E0F90130812B81232BFC0122
:1041700020830FC089819A818032914051F481E27D
:1041800091E021E231E0F90130812B81232BFC0108
:10419000208300000F900F900F90DF91CF91089532
:1041A000CF93DF9300D0CDB7DEB79A83898389811F
:1041B0009A818038910551F48FE690E02FE630E047
:1041C000F90120812160FC0120832CC089819A8122
:1041D0008039910551F481E790E021E730E0F90161
:1041E00020812160FC0120831DC089819A81803A51
:1041F000910551F482E790E022E730E0F901208157
:104200002160FC0120830EC089819A818032914017
:1042100049F483E790E023E730E0F9012081216051
:10422000FC01208300000F900F90DF91CF91089543
:10423000CF93DF9300D0CDB7DEB79A83898389818E
:104240009A818038910551F48FE690E02FE630E0B6
:10425000F90120812260FC0120832CC089819A8190
:104260008039910551F481E790E021E730E0F901D0
:1042700020812260FC0120831DC089819A81803ABF
:10428000910551F482E790E022E730E0F9012081C6
:104290002260FC0120830EC089819A818032914086
:1042A00049F483E790E023E730E0F90120812260C0
:1042B000FC01208300000F900F90DF91CF910895B3
:1042C000CF93DF9300D0CDB7DEB79A8389838981FE
:1042D0009A818038910551F48FE690E02FE630E026
:1042E000F90120812D7FFC0120832CC089819A81D6
:1042F0008039910551F481E790E021E730E0F90140
:1043000020812D7FFC0120831DC089819A81803A04
:10431000910551F482E790E022E730E0F901208135
:104320002D7FFC0120830EC089819A8180329140CB
:1043300049F483E790E023E730E0F90120812D7F05
:10434000FC01208300000F900F90DF91CF91089522
:10435000CF93DF93CDB7DEB727970FB6F894DEBFC4
:104360000FBECDBF9C838B836D835F834E838B8118
:104370009C819A8389838D81882F90E00196298181
:104380003A81820F931F2D81222F30E02F5F3F4F04
:1043900049815A81240F351FF90140812E813F81C7
:1043A000232F3327242BFC0120838D81882F90E03D
:1043B00029813A81820F931F2D81222F30E049817C
:1043C0005A81240F351FF90130812E81232BFC01E6
:1043D0002083000027960FB6F894DEBF0FBECDBF36
:1043E000DF91CF910895CF93DF9300D0CDB7DEB7A3
:1043F0009A83898389819A818038910551F486E373
:1044000090E026E330E0F90120812160FC01208367
:104410002CC089819A818039910551F488E390E01C
:1044200028E330E0F90120812160FC0120831DC0D8
:1044300089819A81803A910551F489E390E029E3DA
:1044400030E0F90120812160FC0120830EC08981C8
:104450009A818032914049F48AE390E02AE330E087
:10446000F90120812160FC01208300000F900F9052
:10447000DF91CF910895CF93DF9300D0CDB7DEB712
:104480009A83898389819A818038910551F486E3E2
:1044900090E026E330E0F90120812260FC012083D6
:1044A0002CC089819A818039910551F488E390E08C
:1044B00028E330E0F90120812260FC0120831DC047
:1044C00089819A81803A910551F489E390E029E34A
:1044D00030E0F90120812260FC0120830EC0898137
:1044E0009A818032914049F48AE390E02AE330E0F7
:1044F000F90120812260FC01208300000F900F90C1
:10450000DF91CF910895CF93DF9300D0CDB7DEB781
:104510009A83898389819A818038910531F484E86E
:1045200090E0FC018081918123C089819A8180394A
:10453000910531F484E990E0FC018081918118C0FB
:1045400089819A81803A910531F484EA90E0FC01F6
:10455000808191810DC089819A818032914031F4AE
:1045600084E291E0FC018081918102C080E090E0D2
:104570000F900F90DF91CF910895CF93DF9300D0EC
:1045800000D01F92CDB7DEB79C838B836D838B8168
:104590009C819A8389838D81882349F489819A81BA
:1045A000FC01208189819A81FC0120830FC08D81CB
:1045B000843061F489819A81019629813A812F5F43
:1045C0003F4FF90120812860FC01208300000F90FB
:1045D0000F900F900F900F90DF91CF910895CF9390
:1045E000DF93CDB7DEB780E890E00E948322DF91B1
:1045F000CF910895CF93DF93CDB7DEB780E890E0F9
:104600000E94602180E890E00E943B220000DF9140
:10461000CF910895CF93DF93CDB7DEB780E890E0D8
:104620000E943B2280E890E00E9418210000DF9168
:10463000CF910895CF93DF93CDB7DEB780E890E0B8
:104640000E94D02080E890E00E94F3210000DF91DA
:10465000CF910895CF93DF93CDB7DEB780E890E098
:104660000E94A72A0000DF91CF910895CF93DF9396
:1046700000D0CDB7DEB79A83898389819A81AC0156
:1046800068E080E890E00E94A82100000F900F9061
:10469000DF91CF910895CF93DF93CDB7DEB70E941E
:1046A0008E1FDF91CF910895CF93DF931F92CDB7E7
:1046B000DEB7898389810E949E1F00000F90DF91E1
:1046C000CF910895CF93DF931F92CDB7DEB780E8E7
:1046D00090E00E948E2A6BEF73E280E890E00E94E7
:1046E000C02A60E080E890E00E94BD2280E890E06F
:1046F0000E94D02080E890E00E949D2380E890E016
:104700000E94602161E080E890E00E94812080E8C2
:1047100090E00E94C81FDC01CB0120E432E44FE0AE
:1047200050E0BC01CD010E941149DA01C901898321
:1047300089810F90DF91CF910895CF93DF9300D0BF
:10474000CDB7DEB79A83898389819A8180389105B4
:1047500079F089819A818039910551F089819A8116
:10476000803A910529F089819A818032914039F40B
:1047700065E074E280E890E00E94012B36C08981F8
:104780009A818138910579F089819A8181399105E1
:1047900051F089819A81813A910529F089819A8124
:1047A0008132914039F465E074E280E890E00E9443
:1047B000422B1BC089819A818238910579F08981C9
:1047C0009A818239910551F089819A81823A9105C5
:1047D00029F089819A818232914039F465E074E24E
:1047E00080E890E00E94832B00C000000F900F90A3
:1047F000DF91CF910895CF93DF93CDB7DEB70E94BD
:104800000B450000DF91CF910895CF93DF93CDB793
:10481000DEB70E9443450000DF91CF910895CF930A
:10482000DF931F92CDB7DEB78FE590E0FC0180816A
:104830008983F89489810F90DF91CF910895CF9368
:10484000DF931F92CDB7DEB789838FE590E0298192
:10485000FC01208300000F90DF91CF910895EF922B
:10486000FF920F931F93CF93DF93CDB7DEB72C97B3
:104870000FB6F894DEBF0FBECDBF6B837C838D83F4
:104880009E832F83388749875A871C870B878F81A0
:104890009885A985BA858093160F9093170FA093DA
:1048A000180FB093190F8B859C859A8389838B8110
:1048B0009C81AD81BE8188279F5FAF4FBF4F8093A2
:1048C0001A0F90931B0FA0931C0FB0931D0F8B8199
:1048D0009C81AD81BE8188270EE11FE020E031E0A0
:1048E00040E050E0BC01CD010E9422252EE13FE0D6
:1048F00040E051E060E070E0CB010E945A4D209111
:10490000160F3091170F4091180F5091190F8B818E
:104910009C81AD81BE81280F391F4A1F5B1F80918A
:104920001A0F90911B0FA0911C0FB0911D0F8217B1
:104930009307A407B507A0F480911A0F90911B0F5D
:10494000A0911C0FB0911D0F9C018B819C8179015E
:10495000E81AF90AC70190931F1080931E100CC02B
:104960008091160F9091170FA091180FB091190F09
:1049700090931F1080931E102091160F3091170FE7
:104980004091180F5091190F80911E1090911F1097
:10499000CC01A0E0B0E079018A01E81AF90A0A0B1B
:1049A0001B0BD801C7018093160F9093170FA0938C
:1049B000180FB093190F40911E1050911F102981AC
:1049C0003A818B819C81AD81BE81BC01CD010E9469
:1049D0005A4D8B819C81AD81BE81BC01CD010E946D
:1049E000674E80911A0F90911B0FA0911C0FB091F0
:1049F0001D0F8B839C83AD83BE8380911E1090918D
:104A00001F1029813A81820F931F9A838983809195
:104A1000160F9091170FA091180FB091190F892BB5
:104A20008A2B8B2B09F043CF00002C960FB6F894FD
:104A3000DEBF0FBECDBFDF91CF911F910F91FF90D1
:104A4000EF9008950F931F93CF93DF93CDB7DEB709
:104A500062970FB6F894DEBF0FBECDBF69877A8725
:104A60008B879C872D873E874F87588B1A8B098BA6
:104A70000E940F248B831A82198229C029893A89BE
:104A800089819A81B901680F791F89859A85AB85DB
:104A9000BC859C01AD012F5F3F4F4F4F5F4F298772
:104AA0003A874B875C878C839D83AE83BF838C81E1
:104AB0009D81AE81BF81ABBFFC01879188878885CE
:104AC000FB01808389819A8101969A8389838981F8
:104AD0009A819C0140E050E08D859E85AF85B88924
:104AE000281739074A075B0748F28B810E941F2469
:104AF000000062960FB6F894DEBF0FBECDBFDF9107
:104B0000CF911F910F910895CF93DF931F92CDB74F
:104B1000DEB78FE590E0FC0180818983F89489817C
:104B20000F90DF91CF910895CF93DF931F92CDB770
:104B3000DEB789838FE590E02981FC0120830000A6
:104B40000F90DF91CF910895CF93DF9300D0CDB731
:104B5000DEB79A83898389819A81892B09F47BC086
:104B600089819A818837910549F461E080E00E944B
:104B7000D83860E180E00E94D8386DC089819A8180
:104B8000803C910529F462E080E00E94D83863C03F
:104B900089819A818C34910529F464E080E00E9437
:104BA000D83859C089819A818038910529F468E004
:104BB00080E00E94D8384FC089819A818434910561
:104BC00029F460E280E00E94D83845C089819A814A
:104BD000803B910529F460E480E00E94D8383BC016
:104BE00089819A81883B910529F460E880E00E94E0
:104BF000D83831C089819A81883C910529F461E0D7
:104C000081E00E94D83827C089819A818039910536
:104C100029F468E081E00E94D8381DC089819A811A
:104C2000803A910529F460E181E00E94D83813C0F0
:104C300089819A818032914029F460E281E00E946A
:104C4000D83809C089819A818334914021F460E485
:104C500081E00E94D83800000F900F90DF91CF9133
:104C60000895CF93DF9300D0CDB7DEB79A838983C1
:104C700089819A81892B09F47BC089819A8188373F
:104C8000910549F461E080E00E940D3960E180E027
:104C90000E940D396DC089819A81803C910529F46B
:104CA00062E080E00E940D3963C089819A818C3472
:104CB000910529F464E080E00E940D3959C0898192
:104CC0009A818038910529F468E080E00E940D39CE
:104CD0004FC089819A818434910529F460E280E093
:104CE0000E940D3945C089819A81803B910529F444
:104CF00060E480E00E940D393BC089819A81883B45
:104D0000910529F460E880E00E940D3931C0898165
:104D10009A81883C910529F461E081E00E940D3977
:104D200027C089819A818039910529F468E081E062
:104D30000E940D391DC089819A81803A910529F41C
:104D400060E181E00E940D3913C089819A8180322F
:104D5000914029F460E281E00E940D3909C0898107
:104D60009A818334914021F460E481E00E940D39FE
:104D700000000F900F90DF91CF9108951F920F9236
:104D800000905F000F92112400905B000F922F9310
:104D90003F934F935F936F937F938F939F93AF93C3
:104DA000BF93EF93FF93CF93DF93CDB7DEB780919F
:104DB000201090912110892B31F08091201090913A
:104DC0002110FC0109950000DF91CF91FF91EF9137
:104DD000BF91AF919F918F917F916F915F914F9113
:104DE0003F912F910F9000925B000F9000925F0017
:104DF0000F901F9018951F920F9200905F000F92D6
:104E0000112400905B000F922F933F934F935F9379
:104E10006F937F938F939F93AF93BF93EF93FF9382
:104E2000CF93DF93CDB7DEB78091221090912310FE
:104E3000892B31F08091221090912310FC0109956B
:104E40000000DF91CF91FF91EF91BF91AF919F91C2
:104E50008F917F916F915F914F913F912F910F9023
:104E600000925B000F9000925F000F901F901895CA
:104E70001F920F9200905F000F92112400905B0030
:104E80000F922F933F934F935F936F937F938F93E3
:104E90009F93AF93BF93EF93FF93CF93DF93CDB7E0
:104EA000DEB78091241090912510892B31F08091EC
:104EB000241090912510FC0109950000DF91CF91FD
:104EC000FF91EF91BF91AF919F918F917F916F91E2
:104ED0005F914F913F912F910F9000925B000F9047
:104EE00000925F000F901F9018951F920F920090F4
:104EF0005F000F92112400905B000F922F933F935D
:104F00004F935F936F937F938F939F93AF93BF93D1
:104F1000EF93FF93CF93DF93CDB7DEB78091261049
:104F200090912710892B31F08091261090912710B5
:104F3000FC0109950000DF91CF91FF91EF91BF91A6
:104F4000AF919F918F917F916F915F914F913F9121
:104F50002F910F9000925B000F9000925F000F90D6
:104F60001F9018951F920F9200905F000F921124CE
:104F700000905B000F922F933F934F935F936F933B
:104F80007F938F939F93AF93BF93EF93FF93CF93B1
:104F9000DF93CDB7DEB78091281090912910892B2F
:104FA00031F08091281090912910FC0109950000A2
:104FB000DF91CF91FF91EF91BF91AF919F918F9131
:104FC0007F916F915F914F913F912F910F90009240
:104FD0005B000F9000925F000F901F9018951F923A
:104FE0000F9200905F000F92112400905B000F92CF
:104FF0002F933F934F935F936F937F938F939F93E1
:10500000AF93BF93EF93FF93CF93DF93CDB7DEB70B
:1050100080912A1090912B10892B31F080912A10C9
:1050200090912B10FC0109950000DF91CF91FF9129
:10503000EF91BF91AF919F918F917F916F915F9110
:105040004F913F912F910F9000925B000F90009233
:105050005F000F901F9018951F920F9200905F00B5
:105060000F92112400905B000F922F933F934F9368
:105070005F936F937F938F939F93AF93BF93EF93C0
:10508000FF93CF93DF93CDB7DEB780912C10909133
:105090002D10892B31F080912C1090912D10FC0156
:1050A00009950000DF91CF91FF91EF91BF91AF91F2
:1050B0009F918F917F916F915F914F913F912F9130
:1050C0000F9000925B000F9000925F000F901F9076
:1050D00018951F920F9200905F000F92112400907C
:1050E0005B000F922F933F934F935F936F937F9348
:1050F0008F939F93AF93BF93EF93FF93CF93DF93E0
:10510000CDB7DEB780912E1090912F10892B31F002
:1051100080912E1090912F10FC0109950000DF91D5
:10512000CF91FF91EF91BF91AF919F918F917F911F
:105130006F915F914F913F912F910F9000925B0083
:105140000F9000925F000F901F9018951F920F9282
:1051500000905F000F92112400905B000F922F933C
:105160003F934F935F936F937F938F939F93AF93EF
:10517000BF93EF93FF93CF93DF93CDB7DEB78091CB
:10518000301090913110892B31F080913010909136
:105190003110FC0109950000DF91CF91FF91EF9153
:1051A000BF91AF919F918F917F916F915F914F913F
:1051B0003F912F910F9000925B000F9000925F0043
:1051C0000F901F9018951F920F9200905F000F9202
:1051D000112400905B000F922F933F934F935F93A6
:1051E0006F937F938F939F93AF93BF93EF93FF93AF
:1051F000CF93DF93CDB7DEB780913210909133100B
:10520000892B31F08091321090913310FC01099577
:105210000000DF91CF91FF91EF91BF91AF919F91EE
:105220008F917F916F915F914F913F912F910F904F
:1052300000925B000F9000925F000F901F901895F6
:105240001F920F9200905F000F92112400905B005C
:105250000F922F933F934F935F936F937F938F930F
:105260009F93AF93BF93EF93FF93CF93DF93CDB70C
:10527000DEB78091341090913510892B31F08091F8
:10528000341090913510FC0109950000DF91CF9109
:10529000FF91EF91BF91AF919F918F917F916F910E
:1052A0005F914F913F912F910F9000925B000F9073
:1052B00000925F000F901F9018951F920F92009020
:1052C0005F000F92112400905B000F922F933F9389
:1052D0004F935F936F937F938F939F93AF93BF93FE
:1052E000EF93FF93CF93DF93CDB7DEB78091361066
:1052F00090913710892B31F08091361090913710B2
:10530000FC0109950000DF91CF91FF91EF91BF91D2
:10531000AF919F918F917F916F915F914F913F914D
:105320002F910F9000925B000F9000925F000F9002
:105330001F9018951F920F9200905F000F921124FA
:1053400000905B000F922F933F934F935F936F9367
:105350007F938F939F93AF93BF93EF93FF93CF93DD
:10536000DF93CDB7DEB78091381090913910892B3B
:1053700031F08091381090913910FC0109950000AE
:10538000DF91CF91FF91EF91BF91AF919F918F915D
:105390007F916F915F914F913F912F910F9000926C
:1053A0005B000F9000925F000F901F9018951F9266
:1053B0000F9200905F000F92112400905B000F92FB
:1053C0002F933F934F935F936F937F938F939F930D
:1053D000AF93BF93EF93FF93CF93DF93CDB7DEB738
:1053E00080913A1090913B10892B31F080913A10C6
:1053F00090913B10FC0109950000DF91CF91FF9146
:10540000EF91BF91AF919F918F917F916F915F913C
:105410004F913F912F910F9000925B000F9000925F
:105420005F000F901F9018951F920F9200905F00E1
:105430000F92112400905B000F922F933F934F9394
:105440005F936F937F938F939F93AF93BF93EF93EC
:10545000FF93CF93DF93CDB7DEB780913C1090914F
:105460003D10892B31F080913C1090913D10FC0152
:1054700009950000DF91CF91FF91EF91BF91AF911E
:105480009F918F917F916F915F914F913F912F915C
:105490000F9000925B000F9000925F000F901F90A2
:1054A00018951F920F9200905F000F9211240090A8
:1054B0005B000F922F933F934F935F936F937F9374
:1054C0008F939F93AF93BF93EF93FF93CF93DF930C
:1054D000CDB7DEB780913E1090913F10892B31F00F
:1054E00080913E1090913F10FC0109950000DF91E2
:1054F000CF91FF91EF91BF91AF919F918F917F914C
:105500006F915F914F913F912F910F9000925B00AF
:105510000F9000925F000F901F901895CF93DF932C
:1055200000D01F92CDB7DEB79B838A830E9484256B
:1055300089838A819B810E94A42589810E94942568
:1055400000000F900F900F90DF91CF910895CF93AF
:10555000DF9300D01F92CDB7DEB79B838A830E9472
:10556000842589838A819B810E94312689810E94BA
:10557000942500000F900F900F90DF91CF91089528
:10558000CF93DF9300D000D0CDB7DEB79A83898365
:105590007C836B8389819A818038910539F48B8172
:1055A0009C81909321108093201023C089819A813F
:1055B0008039910539F48B819C81909329108093D7
:1055C000281017C089819A81803A910539F48B811E
:1055D0009C8190933110809330100BC089819A8107
:1055E0008032914031F48B819C819093391080936B
:1055F000381000000F900F900F900F90DF91CF9117
:105600000895CF93DF9300D000D0CDB7DEB79A8353
:1056100089837C836B8389819A818038910539F4F1
:105620008B819C81909323108093221023C08981C9
:105630009A818039910539F48B819C8190932B104C
:1056400080932A1017C089819A81803A910539F494
:105650008B819C8190933310809332100BC0898191
:105660009A818032914031F48B819C8190933B10E0
:1056700080933A1000000F900F900F900F90DF91E1
:10568000CF910895CF93DF9300D000D0CDB7DEB790
:105690009A8389837C836B8389819A818038910581
:1056A00039F48B819C81909325108093241023C022
:1056B00089819A818039910539F48B819C819093FD
:1056C0002D1080932C1017C089819A81803A910502
:1056D00039F48B819C8190933510809334100BC0EA
:1056E00089819A818032914031F48B819C819093A1
:1056F0003D1080933C1000000F900F900F900F9082
:10570000DF91CF910895CF93DF9300D000D0CDB734
:10571000DEB79A8389837C836B8389819A81803801
:10572000910539F48B819C819093271080932610EA
:1057300023C089819A818039910539F48B819C81BC
:1057400090932F1080932E1017C089819A81803AF0
:10575000910539F48B819C8190933710809336109A
:105760000BC089819A818032914031F48B819C8178
:1057700090933F1080933E1000000F900F900F9079
:105780000F90DF91CF910895CF93DF93CDB7DEB720
:105790000000DF91CF910895CF93DF93CDB7DEB7AF
:1057A00065970FB6F894DEBF0FBECDBF9B8B8A8B7B
:1057B0006C8B4D8B8A899B89892B21F1109240102B
:1057C00082E080930C028A899B8920E1FC01A2E49B
:1057D000B0E101900D922A95E1F7198210C08FE394
:1057E00091E02981222F30E04A895B89240F351FFF
:1057F000F9012081FC01208389818F5F8983898160
:10580000803168F38D89882F90E0009719F0019717
:10581000D1F059C080910C02813009F056C0198234
:105820000EC08FE391E02981222F30E02E5B3F4EA6
:10583000F9012081FC01208389818F5F898389811F
:10584000803178F342C080910C028130E1F1909177
:10585000401081E08927882311F1109241108CE3D8
:1058600091E020914110FC012083CE0102960E941C
:10587000D82C19820EC08981882F90E02FE331E067
:10588000F90120818E5A9F4EFC01208389818F5F10
:1058900089838981803178F381E080934010198277
:1058A0000EC08FE391E02981222F30E02E5A3F4E27
:1058B000F9012081FC01208389818F5F898389819F
:1058C000803178F303C080E02DC000008D89809383
:1058D0000C028C89882F90E0029718F58C89882F0C
:1058E00090E0880F991F82959295907F9827807FEE
:1058F0009827282F20728D89882F90E0880F991F74
:10590000880F991F880F991F8870822B80934110F0
:1059100000008CE391E020914110FC01208381E0A4
:1059200001C080E065960FB6F894DEBF0FBECDBF14
:10593000DF91CF910895CF93DF9300D01F92CDB721
:10594000DEB780910C02882329F482E490E19B83E6
:105950008A8304C082E590E19B838A83198210C008
:105960002FE331E08A819B81AC014F5F5F4F5B8306
:105970004A83FC018081F901808389818F5F89835B
:105980008981803168F38CE391E020914110FC0122
:10599000208300000F900F900F90DF91CF9108951A
:1059A000CF93DF93CDB7DEB70000DF91CF9108959D
:1059B000CF93DF9300D01F92CDB7DEB79B838A834E
:1059C000198210C02EE331E08A819B81AC014F5FC8
:1059D0005F4F5B834A83FC018081F9018083898169
:1059E0008F5F89838981803168F38CE391E0209116
:1059F00041102068FC01208300008DE391E0FC0150
:105A00008081882F90E081709927892BB1F3000065
:105A10000F900F900F90DF91CF910895CF93DF9368
:105A200000D01F92CDB7DEB79B838A83198210C046
:105A30008A819B819C012F5F3F4F3B832A832EE30A
:105A400031E0F9012081FC01208389818F5F898306
:105A50008981803168F300000F900F900F90DF91E3
:105A6000CF910895CF93DF931F92CDB7DEB789838F
:105A700083E590E023E530E0F9012081322F317F8A
:105A80002981232BFC01208300000F90DF91CF910F
:105A90000895CF93DF93CDB7DEB786EB90E026EB8A
:105AA00030E0F90120812062FC0120830000DF91B9
:105AB000CF910895CF93DF931F92CDB7DEB789833F
:105AC00089818823A1F48CED90E02CED30E0F90180
:105AD0002081422F2981222F30E022953295307F7C
