:100000000C9489010C94A8010C94A8010C94A801EB
:100010000C94A8010C94A8010C94A8010C94A801BC
:100020000C94A8010C94A8010C94A8010C94A801AC
:100030000C94D3420C94A8010C94A8010C94A80130
:100040000C94A8010C943B320C9478320C94B53289
:100050000C94FE310C94A8010C94A8010C94A801F6
:100060000C94A8010C94CF460C94A8010C94A80100
:100070000C94A8010C94A8010C94A8010C94A8015C
:100080000C942F330C946C330C94A9330C94F232EF
:100090000C94A8010C94A8010C94A8010C94A8013C
:1000A0000C94A8010C94A8010C9423340C94603493
:1000B0000C949D340C94E6330C94A8010C941735E1
:1000C0000C9454350C9491350C94DA340C94A801AA
:1000D0000C94A8010C94A8010C94A8010C94A801FC
:1000E0000C94A8010C94A8010C94A8010C94A801EC
:1000F0000C94A8010C94A8010C94A8010C94A801DC
:100100000C94A8010C94E4390C94213A0C945E3AB6
:100110000C94A7390C949B3A0C94A8010C94A80158
:10012000970E300B3B0B9A0BAD0BBA0BE40BCD0BC0
:10013000690C810CA00EA00EA00E560E9F1EC61EAE
:10014000A41EC61EA91EAE1EB31EB81EC11EBD1E15
:100150006E616E00696E660000407A10F35A00A06E
:10016000724E18090010A5D4E80000E87648170080
:1001700000E40B54020000CA9A3B000000E1F505C0
:10018000000080969800000040420F000000A0860A
:1001900001000000102700000000E803000000003C
:1001A0006400000000000A000000000001000000E0
:1001B00000002C76D888DC674F0823DFC1DFAE59FA
:1001C000E1B1B796E5E3E453C63AE651997696E88D
:1001D000E6C28426EB898C9B62ED407C6FFCEFBC11
:1001E0009C9F40F2BAA56FA5F490055A2AF75C933C
:1001F0006B6CF9676DC11BFCE0E40D47FEF520E672
:10020000B500D0ED902E0300943577050080841E54
:10021000080000204E0A000000C80C333333330FAF
:10022000986E12831141EF8D2114893BE65516CF4C
:10023000FEE6DB18D1844B381BF77C1D901DA4BB58
:10024000E424203284725E228100C9F124ECA1E50D
:100250003D27330019000C000600030002000100D6
:10026000FF00A001CF006700330019000C00070059
:1002700008004003A001CF00670033001900100000
:100280001000330019000C000600030002000100FA
:10029000FF00A001CF006700330019000C00070029
:1002A00008004003A001CF006700330019001000D0
:1002B0001000330019000C000600030002000100CA
:1002C000FF00A001CF006700330019000C000700F9
:1002D00008004003A001CF006700330019001000A0
:1002E0001000330019000C0006000300020001009A
:1002F000FF00A001CF006700330019000C000700C9
:1003000008004003A001CF0067003300190010006F
:10031000100011241FBECFEFD1E4DEBFCDBF12E02D
:10032000A0E0B2E0E2E1F8EB00E00BBF02C0079012
:100330000D92A03CB107D9F72AE3A0ECB2E001C0CE
:100340001D92AC35B207E1F70E94AF0E0C945B5AD8
:100350000C940000CF93DF93CDB7DEB780E094E23A
:10036000A4EFB0E0BC01CD01DF91CF910895CF9310
:10037000DF93CDB7DEB70E94AA01DC01CB01BC013F
:10038000CD01DF91CF910895CF93DF9300D0CDB70A
:10039000DEB79A83898389819A81FC018081282F25
:1003A000226089819A81FC01208300000F900F90C8
:1003B000DF91CF910895CF93DF93CDB7DEB72B9721
:1003C0000FB6F894DEBF0FBECDBF998788877B87B5
:1003D0006A878A859B85FC0184818D838A859B85BC
:1003E000FC0185818E838A859B85FC0186818F83B4
:1003F0008A859B85FC0180819181A281B38189835B
:100400009A83AB83BC83888599859E012F5F3F4F7C
:10041000B9010E942B3E882311F081E001C080E0E9
:100420002B960FB6F894DEBF0FBECDBFDF91CF91F4
:100430000895CF93DF9300D01F92CDB7DEB79A8394
:1004400089836B8389819A816B810E9439400F90E7
:100450000F900F90DF91CF910895CF93DF9300D04D
:1004600000D0CDB7DEB79A8389837C836B83898183
:100470009A810E945840282F8B819C81FC01208307
:1004800000000F900F900F900F90DF91CF91089583
:10049000CF93DF9300D000D0CDB7DEB79A838983A6
:1004A0007C836B8389819A819093503A80934F3AF1
:1004B00089E192E090934E3A80934D3A8DE292E03A
:1004C00090934C3A80934B3A2B813C8189819A815D
:1004D000B9010E94DB016BE075E48AE295E40E94B9
:1004E000145900000F900F900F900F90DF91CF9153
:1004F0000895CF93DF93CDB7DEB72C970FB6F8945E
:10050000DEBF0FBECDBF9E838D8378876F835A87F2
:1005100049873C872B878B859C85FC01808189835B
:1005200089859A85FC0180818A838F819885FC0169
:1005300080818B838D819E81FC0180818C83898168
:100540009A81AB81BC81BC01CD012C960FB6F89489
:10055000DEBF0FBECDBFDF91CF910895CF93DF9364
:10056000CDB7DEB728970FB6F894DEBF0FBECDBF6C
:100570006D837E838F8398878D819E81AF81B885BF
:1005800089839A83AB83BC8384EE90E02C81FC0149
:10059000208383EE90E02B81FC01208382EE90E0AB
:1005A0002A81FC01208381EE90E02981FC012083D7
:1005B000000028960FB6F894DEBF0FBECDBFDF91C6
:1005C000CF910895CF93DF93CDB7DEB721EE30E022
:1005D00042EE50E063EE70E084EE90E00E9479021B
:1005E000DC01CB01BC01CD01DF91CF910895CF9308
:1005F000DF93CDB7DEB78CED90E02CED30E0F90164
:1006000020812064FC0120838CED90E02CED30E013
:10061000F9012081277FFC0120830000DF91CF9129
:100620000895CF93DF93CDB7DEB78091D902909133
:10063000DA02892BC1F080ED92E00E9404108091D3
:10064000D9029091DA02292F2F938F9385E392E0BC
:10065000892F8F9385E392E08F930E949B590F908F
:100660000F900F900F900000DF91CF910895CF93DE
:10067000DF9300D0CDB7DEB79A83898382E0809381
:10068000CF0200000F900F90DF91CF910895CF938C
:10069000DF93CDB7DEB70E94F70282E08093CF02EE
:1006A0000000DF91CF910895CF93DF93CDB7DEB7F0
:1006B0008091D9029091DA028115904861F480917D
:1006C00011039091120301969093120380931103EA
:1006D00082E08093CF020000DF91CF910895CF9305
:1006E000DF93CDB7DEB783E08093CF0289E08093BC
:1006F0000A020000DF91CF910895CF93DF9300D0DD
:1007000000D01F92CDB7DEB78D838D8186958695FB
:100710008695882F90E09A8389838D81882F90E039
:100720008770992728E030E0A901481B590BCA01BE
:100730009C838B8389819A818D589E4EFC01808198
:10074000882F90E00B8002C0959587950A94E2F778
:1007500081709927892B11F080E02BC089819A81C3
:100760008D589E4EFC018081282F81E090E00B8007
:1007700002C0880F991F0A94E2F7822B282F8981E3
:100780009A818D589E4EFC01208389819A819C011B
:100790002F5F3F4F8091E7029091E8028217930705
:1007A0003CF489819A8101969093E8028093E70254
:1007B00081E00F900F900F900F900F90DF91CF91ED
:1007C0000895CF93DF9300D000D01F92CDB7DEB74E
:1007D0009D838C83198203C089818F5F898389817E
:1007E000282F30E04AE4429FC001439F900D11241E
:1007F0008855944DFC0180819181892B69F7809106
:10080000FE029091FF0201969093FF028093FE02F8
:100810008C819D81FC0184818F77282F30E080912D
:1008200010028F77882F90E08217930764F48C81F1
:100830009D81FC0184818F778F7790911002907851
:10084000892B809310028981282F30E08C819D8133
:10085000FC0184818F77582F4AE4429FC001439F57
:10086000900D11248655944DFC0150838981482FA9
:1008700050E08C819D81FC018381282F30E06AE467
:10088000649FC001659F900D11248855944DFC0113
:10089000318320838981282F30E04AE4429FC001C0
:1008A000439F900D11248955944D2981FC0120838B
:1008B0008091E5029091E602892B39F184E090E085
:1008C0000E949B569B838A838981282F30E04AE4CB
:1008D000429FC001439F900D11249C012955344D26
:1008E0008A819B81FC01318320832091E502309134
:1008F000E6028A819B81FC01338322838A819B816A
:100900009093E6028093E50221C084E090E00E948B
:100910009B569093E6028093E5028091E5029091C8
:10092000E6022981422F50E06AE4649F9001659FAE
:10093000300D11242955344DFC01318320838091E1
:10094000E5029091E602FC011382128200000F90F2
:100950000F900F900F900F90DF91CF910895CF934C
:10096000DF9300D0CDB7DEB78091E5029091E6022B
:10097000FC0180819181FC01808180930E02809135
:10098000E5029091E602FC0180819181FC01818168
:10099000928180930F028091E5029091E6029A8302
:1009A00089838091E5029091E602FC018281938126
:1009B0009093E6028093E50289819A81FC0111827D
:1009C000108289819A81FC011382128289819A8125
:1009D0000E94335700000F900F90DF91CF91089540
:1009E000CF93DF93CDB7DEB72A970FB6F894DEBF6B
:1009F0000FBECDBF9A87898789859A85FC0180853E
:100A00009185FC0180818D30B1F489859A85FC0146
:100A1000808591859C838B838B819C81FC01818166
:100A20000E947D030E94E202DC01CB018D839E8344
:100A3000AF83B88717C089859A85FC018085918529
:100A4000FC0180818E3061F489859A85FC01808566
:100A500091859A83898389819A810E94E10302C0EA
:100A600080E001C081E02A960FB6F894DEBF0FBE89
:100A7000CDBFDF91CF910895CF93DF9300D000D009
:100A800000D0CDB7DEB79E838D838D819E81992363
:100A90000CF40796959587959595879595958795E7
:100AA0009A8389838D819E8187709078992324F41D
:100AB0000197886F9F6F01969C0188E090E0821BF0
:100AC000930B9C838B8389819A818D589E4EFC0168
:100AD0008081882F90E00B8002C0959587950A94BD
:100AE000E2F781709927892B11F081E001C080E045
:100AF00026960FB6F894DEBF0FBECDBFDF91CF9123
:100B00000895CF93DF9300D000D000D0CDB7DEB7EB
:100B10009E838D838D819E8199230CF407969595F4
:100B2000879595958795959587959A8389838D81E6
:100B30009E8187709078992324F40197886F9F6F26
:100B400001969C0188E090E0821B930B9C838B8331
:100B500089819A818957944DFC018081882F90E08A
:100B60000B8002C0959587950A94E2F781709927CA
:100B7000892B11F081E001C080E026960FB6F89431
:100B8000DEBF0FBECDBFDF91CF9108958F929F92B0
:100B9000AF92BF92CF92DF92EF92FF92CF93DF930B
:100BA000CDB7DEB72E970FB6F894DEBF0FBECDBF20
:100BB0009E878D870E94E202DC01CB018F8398879C
:100BC000A987BA872F8138858091130390911403E8
:100BD000A0911503B0911603A901481B590BCA0136
:100BE00088979C878B878B859C85092E000CAA0B88
:100BF000BB0BBC01CD010E9454556B017C0180915F
:100C00007E2B90917F2BA091802BB091812B2DEB8F
:100C100037E346E857E3BC01CD010E94AA54DC014A
:100C2000CB019C01AD01C701B6010E94AA54DC01B1
:100C3000CB0120E030E040E850E4BC01CD010E944F
:100C40003D54DC01CB01BC01CD010E941C55DC01EF
:100C5000CB019A8389838091FE029091FF022981C2
:100C60003A8182179307B4F58091FE029091FF02BA
:100C7000019629813A81F901E81BF90BCF019A838A
:100C800089831C821B8214C08B819C8101960E94E7
:100C90008105982F81E08927882329F089819A810D
:100CA00001979A8389838B819C8101969C838B8396
:100CB0008091FE029091FF022B813C812817390719
:100CC0002CF489819A8118161906F4F28B819C8183
:100CD0009A8389838D859E85FC018485582F29817F
:100CE0003A814AE4429FC001439F900D11248555EB
:100CF000944DFC01508329813A814AE4429FC0010E
:100D0000439F900D11248555944DFC018081882FBF
:100D100090E0092E000CAA0BBB0BBC01CD010E9478
:100D200054554B015C0129813A814AE4429FC0013C
:100D3000439F900D11248455944DFC01C080D180B7
:100D4000E280F38029813A814AE4429FC001439FB7
:100D5000900D11248451944DFC0180819181CC012E
:100D6000A0E0B0E0BC01CD010E945255DC01CB01F6
:100D70009C01AD01C701B6010E94E055DC01CB0129
:100D80009C01AD01C501B4010E943E54DC01CB01C0
:100D90006C017D0129813A814AE4429FC001439F51
:100DA000900D11248451944DFC0180819181019614
:100DB000CC01A0E0B0E0BC01CD010E945255DC01A5
:100DC000CB019C01AD01C701B6010E94AA54DC0110
:100DD000CB0149815A816AE4649F9001659F300D7F
:100DE00011242455344DF90180839183A283B38368
:100DF00029813A814AE4429FC001439F900D11240A
:100E00008451944DFC01808191819C012F5F3F4F63
:100E100049815A816AE4649FC001659F900D112445
:100E20008451944DFC013183208389818F5F0E941E
:100E30007D031E821D8220C08D859E85FC0120853C
:100E400031858D819E81820F931FFC0140818981B4
:100E50009A8154E8589F9001599F300D11248D813B
:100E60009E81820F931F87549E4EFC0140838D818B
:100E70009E8101969E838D838D859E85FC01828552
:100E8000282F30E08D819E8182179307ACF20000FD
:100E90002E960FB6F894DEBF0FBECDBFDF91CF9177
:100EA000FF90EF90DF90CF90BF90AF909F908F908A
:100EB0000895CF93DF93CDB7DEB71092D60210928C
:100EC000D5021092D7021092D80280E090E490935D
:100ED000DA028093D90282E791E19093DE02809357
:100EE000DD028091E7029091E8028F5F8093DF023C
:100EF0000000DF91CF910895CF93DF9300D000D011
:100F000000D0CDB7DEB71092D6021092D502109263
:100F1000D7021092D80280E494E09093DA02809392
:100F2000D9021092DE021092DD021092DF021A82C4
:100F300019820BC089819A818D589E4EFC011082C6
:100F400089819A8101969A83898389819A81809780
:100F50008CF31C821B8255C02B813C814AE4429F4A
:100F6000C001439F900D11248855944DFC011182BE
:100F700010822B813C814AE4429FC001439F900D27
:100F800011248451944DFC01118210822B813C81EB
:100F900044E8429FC001439F900D11248C549E4E03
:100FA000FC01118210822B813C8144E8429FC001E8
:100FB000439F900D11248A549E4EFC011182108291
:100FC0001E821D8215C08B819C814AE4489F90013E
:100FD000499F300D11248D819E81820F931F805572
:100FE000944DFC0110828D819E8101969E838D839C
:100FF0008D819E81C2973CF38B819C8101969C835D
:101000008B838B819C81C2970CF4A6CF1092E8024F
:101010001092E70210920203109201031092832BA8
:101020001092822B1092B311000026960FB6F894FE
:10103000DEBF0FBECDBFDF91CF910895CF93DF9379
:1010400000D0CDB7DEB71A8219820BC089819A8190
:101050008D589E4EFC01108289819A8101969A8357
:10106000898389819A8180978CF31092E80210928B
:10107000E7021092D6021092D5021092D702109277
:10108000D80280E491E09093DA028093D902109222
:10109000DE021092DD021092DF0282E090E0909377
:1010A000852B8093842B80911102882309F07BC0CB
:1010B0008FE78093B3118091B311882F90E003964E
:1010C000880F991F092E000CAA0BBB0BBC01CD0188
:1010D0000E945455DC01CB0120E030E040E451E4B3
:1010E000BC01CD010E943E54DC01CB0120E030E088
:1010F00040E252E4BC01CD010E943E54DC01CB0130
:1011000020E034E244E757E4BC01CD010E94AA5438
:10111000DC01CB0180937E2B90937F2BA093802BBF
:10112000B093812B80917E2B90917F2BA091802B6F
:10113000B091812B20E030E040E850E4BC01CD01CB
:101140000E94E055DC01CB012DEB37E346E857E385
:10115000BC01CD010E94AA54DC01CB018093ED02B9
:101160009093EE02A093EF02B093F00287E493E035
:101170000E94AF3C0E94F70281E00E94283B8091D0
:10118000ED029091EE02A091EF02B091F002BC014D
:10119000CD010E942355DC01CB0121E0AC01BD0152
:1011A00081E00E94DC3B00000F900F90DF91CF9117
:1011B0000895CF93DF93CDB7DEB789E080930A021D
:1011C00080911102882321F082E08093CF0203C036
:1011D00083E08093CF020000DF91CF910895CF93F9
:1011E000DF9300D0CDB7DEB780917C2B90917D2B23
:1011F0008F5F8093210282E192E00E94041081E2DD
:10120000E2E7F1E1A6E8BBE201900D928A95E1F7F1
:10121000809111028431C0F51A8219822CC0898113
:101220009A8101960E943C05982F81E089278823A6
:10123000E9F029813A814AE4429FC001439F900D21
:1012400011248251944DFC01808191819C012F5F7A
:101250003F4F49815A816AE4649FC001659F900DA8
:1012600011248251944DFC013183208389819A811C
:1012700001969A8389838091FE029091FF022981D1
:101280003A81281739075CF200000F900F90DF9128
:10129000CF910895EF92FF920F931F93CF93DF9317
:1012A00000D000D000D0CDB7DEB7109200038091FF
:1012B000FE029091FF02880F991F01969093832B55
:1012C0008093822B8091FE029091FF0290937D2B60
:1012D00080937C2B8091822B9091832B029690930C
:1012E000852B8093842B8091100280788B6480936F
:1012F0001002809110028F77882F90E00396880F5C
:10130000991F092E000CAA0BBB0BBC01CD010E943A
:101310005455DC01CB0120E030E040E451E4BC0155
:10132000CD010E943E54DC01CB0120E030E040E2E0
:1013300052E4BC01CD010E943E54DC01CB0120E00F
:1013400034E244E757E4BC01CD010E94AA54DC0119
:10135000CB0180937E2B90937F2BA093802BB09317
:10136000812B809110028F778093B3111092D60257
:101370001092D5021092D7021092D80280EC90E021
:101380009093DA028093D9021092DE021092DD026D
:101390001092DF028091822B9091832B0496092E6C
:1013A000000CAA0BBB0BBC01CD010E9454557B0164
:1013B0008C0180917E2B90917F2BA091802BB091FE
:1013C000812B9C01AD01C801B7010E94E055DC01F1
:1013D000CB012DEB37E346E857E3BC01CD010E947A
:1013E000AA54DC01CB018093E9029093EA02A09316
:1013F000EB02B093EC028091FE029091FF02092E65
:10140000000CAA0BBB0BBC01CD010E945455DC01A2
:10141000CB012DEC3CEC4CE45EE3BC01CD010E9421
:101420003E54DC01CB0120E030E040E850E4BC0158
:10143000CD010E943E54DC01CB017C018D018091E5
:101440007E2B90917F2BA091802BB091812B9C01C2
:10145000AD01C801B7010E94E055DC01CB012DEBC5
:1014600037E346E857E3BC01CD010E94AA54DC01F2
:10147000CB018B839C83AD83BE8360E070E0CB01A6
:101480000E94AE0289ED98E00E94AF3C81E00E948C
:10149000283B8FEE98E00E94C23C8091110285317A
:1014A00019F082E00E94283B8091E9029091EA02C3
:1014B000A091EB02B091EC02BC01CD010E9423553A
:1014C000DC01CB0121E0AC01BD0181E00E94DC3BED
:1014D0006B817C818D819E810E942355DC01CB0133
:1014E00022E0AC01BD0181E00E94DC3B0E94F702DA
:1014F0000E94E202DC01CB0180931303909314035A
:10150000A0931503B09316031A82198211C0898122
:101510009A818D589E4EFC01108289819A818D5648
:101520009E4EFC01108289819A8101969A8389835B
:1015300089819A8180975CF31092100310920F03B7
:101540001092E8021092E70266EC75E081E00E94DA
:101550004D0F000026960FB6F894DEBF0FBECDBF2C
:10156000DF91CF911F910F91FF90EF900895CF934E
:10157000DF93CDB7DEB780E090E00E941F0F8FE0D1
:101580000E94162581E00E94062581E090E0A0E0FF
:10159000B0E08093F7029093F802A093F902B09321
:1015A000FA021092FB0287E393E09093FD0280938E
:1015B000FC028EEF9AEC0E94360F8EEF8093E402CD
:1015C0008EEF8093721181E00E94552460EF74E0E9
:1015D00083E00E944D0F81E00E9490240000DF9183
:1015E000CF910895CF92DF92EF92FF92CF93DF9346
:1015F000CDB7DEB760970FB6F894DEBF0FBECDBF94
:101600008091CF02882F90E08230910561F0833085
:10161000910579F0892B09F094C30E94B70A83E001
:101620008093CF028EC30E94110383E08093CF0288
:1016300088C380910A02882F90E0092E000CAA0B23
:10164000BB0B40E050E02DE030E0841B950B2817E9
:10165000390708F475C380579F4FFC010C948356DB
:101660000E947C0782E080930A0282E08093CF028E
:101670001092110265C380910103909102030C97AF
:1016800029F080911102873008F44BC020910103AA
:101690003091020380911102882F90E0432F4F93E5
:1016A0002F93292F2F938F938DE392E0892F8F9380
:1016B0008DE392E08F930E949B590F900F900F90B3
:1016C0000F900F900F90109202031092010381E08F
:1016D0000E949D3B82E00E949D3B1092DA02109294
:1016E000D9021A8219820BC089819A818D589E4E27
:1016F000FC01108289819A8101969A83898389816C
:101700009A8180978CF31092E8021092E70283E0AE
:101710008093CF0289E080930A0285E180931102D1
:101720000FC30E941E0881E08093CF0283E0809364
:101730000A0206C380E499E09093DA028093D9020A
:101740001092DE021092DD021092DF0284E080939C
:10175000CF0284E080930A02F3C20E94590781EF0E
:1017600092E00E946B2885E080930A0281E08093DA
:10177000CF02E6C280E492E09093DA028093D9022D
:101780001092DE021092DD021092DF0281E080935F
:10179000CF0287E080930A02D3C280E49AE090935C
:1017A000DA028093D9021092DE021092DD021092CA
:1017B000DF02109212031092110381E08093CF0296
:1017C00086E080930A02BCC28091E5029091E60215
:1017D000892BA9F10E94AF0480E090E89093DA028F
:1017E0008093D9028BE092E09093DE028093DD0239
:1017F00086E08093DF0281E08093CF0286E08093D1
:101800000A0284E593E00E94AF3C81E00E949D3B88
:101810000E94F70281E00E94283B21E04BE450E067
:1018200060E070E081E00E94DC3B809101039091D8
:1018300002030196909302038093010381C2809179
:1018400011039091120318161906E4F587E493E04A
:101850000E94AF3C81E00E949D3B0E94F70281E024
:101860000E94283BC090ED02D090EE02E090EF0283
:10187000F090F00220911103309112034BE4429F4B
:10188000C001439F900D1124092E000CAA0BBB0B25
:10189000BC01CD010E945455DC01CB019C01AD017E
:1018A000C701B6010E943D54DC01CB01BC01CD0152
:1018B0000E942355DC01CB0121E0AC01BD0181E098
:1018C0000E94DC3B83E08093CF0288E080930A0291
:1018D00037C280E492E19093DA028093D9021092A9
:1018E000DE021092DD021092DF0281E08093CF02CF
:1018F00082E080930A02809111028F5F809311022F
:101900001FC280911102882369F00E944A0981E078
:101910008093CF0210920A0280911102815080932D
:1019200011020DC281E08093CF0210920A0281E081
:101930000E949D3B1F9284E18F9385E492E0892F62
:101940008F9385E492E08F930E949B590F900F90A4
:101950000F900F901C821B821D821E821F82188690
:101960008091FE029091FF02092E000CAA0BBB0B86
:10197000BC01CD010E945455DC01CB0120E030E0D8
:1019800040EA51E4BC01CD010E94E055DC01CB01ED
:101990008D879E87AF87B88B1A861986F4C02985F4
:1019A0003A854AE4429FC001439F900D1124885517
:1019B000944DFC0180819181292F2F938F938FE586
:1019C00092E0892F8F938FE592E08F930E949B592D
:1019D0000F900F900F900F9029853A854AE4429F0F
:1019E000C001439F900D11248451944DFC018081CE
:1019F0009181CC01A0E0B0E0BC01CD010E94525524
:101A0000DC01CB0120E030E040EA51E4BC01CD0133
:101A10000E94AA54DC01CB019C01AD0160E070E0A2
:101A200080E89FE30E943D54DC01CB012B2F2F93D4
:101A30002A2F2F93292F2F938F938DE692E0892FB2
:101A40008F938DE692E08F930E949B590F900F9099
:101A50000F900F900F900F9029853A854AE4429F8E
:101A6000C001439F900D11248251944DFC0180814F
:101A70009181CC01A0E0B0E0BC01CD010E945255A3
:101A8000DC01CB0120E030E040EA51E4BC01CD01B3
:101A90000E94AA54DC01CB012B2F2F932A2F2F93C6
:101AA000292F2F938F938AE792E0892F8F938AE7CC
:101AB00092E08F930E949B590F900F900F900F9080
:101AC0000F900F9029853A854AE4429FC001439FB9
:101AD000900D11248455944DFC0180819181A28147
:101AE000B3812B2F2F932A2F2F93292F2F938F934F
:101AF00087E892E0892F8F9387E892E08F930E9486
:101B00009B590F900F900F900F900F900F90298579
:101B10003A854AE4429FC001439F900D11248451AD
:101B2000944DFC01208131818B819C81820F931F18
:101B30009C838B8329853A854AE4429FC001439F59
:101B4000900D11248251944DFC0180819181CC0132
:101B5000A0E0B0E0BC01CD010E945255DC01CB01F8
:101B60009C01AD016D817E818F8198850E943E54DC
:101B7000DC01CB018D839E83AF83B88789859A85ED
:101B800001969A87898729853A854AE4429FC00150
:101B9000439F900D11248855944DFC0180819181C3
:101BA000892B51F02091FE023091FF0289859A85A0
:101BB000821793070CF4F3CE8091FE029091FF02FE
:101BC000181619060CF0BBC08B819C8118161906DB
:101BD0000CF0B5C08B819C81092E000CAA0BBB0BAD
:101BE000BC01CD010E945455DC01CB012D853E8501
:101BF0004F855889BC01CD010E94AA54DC01CB015C
:101C00009C01AD0160E070E080E89FE30E943D54DC
:101C1000DC01CB018093070390930803A093090391
:101C2000B0930A032D853E854F8558896D817E814D
:101C30008F8198850E94AA54DC01CB0180930B030D
:101C400090930C03A0930D03B0930E0320910B030C
:101C500030910C0340910D0350910E0380910703C6
:101C600090910803A0910903B0910A03652F6F9327
:101C7000642F6F93632F6F932F932B2F2F932A2F04
:101C80002F93292F2F938F9389E992E0892F8F9398
:101C900089E992E08F930E949B598DB79EB70A966F
:101CA0000FB6F894DEBF0FBECDBF49C01C861B86A1
:101CB00011C08B859C858D589E4EFC0110828B85B2
:101CC0009C858D569E4EFC0110828B859C850196CD
:101CD0009C878B878B859C8580975CF31092100383
:101CE00010920F031092E8021092E7021092D602AF
:101CF0001092D5021092D7021092D80280E090E4A0
:101D00009093DA028093D90282E791E19093DE0208
:101D10008093DD0280917C2B90917D2B8F5F80934F
:101D2000DF0281E08093CF0210920A0209C0109274
:101D3000DA021092D90281E08093CF0201C0000044
:101D40000000000060960FB6F894DEBF0FBECDBF56
:101D5000DF91CF91FF90EF90DF90CF9008950F9398
:101D60001F93CF93DF93CDB7DEB727970FB6F894C5
:101D7000DEBF0FBECDBF0E94F2430E9427470E94E4
:101D800015280E945539789427E0E0EBF2E0CE0167
:101D90000196DC0101900D922A95E1F7CE010196A2
:101DA000BC0180EC90E00E94480280EC90E00E9430
:101DB000C4010E94B701DC01CB018C019D0140E010
:101DC00052EC61E070E080EC90E00E94D4400E9410
:101DD00025280E94F20AFBCFCF93DF931F92CDB745
:101DE000DEB710921F3A1092203A10921C3A1092CD
:101DF0001B3A1092423A1092413A19820EC08981E0
:101E0000882F90E00396880F991F855E954CFC0102
:101E10001182108289818F5F89838981803178F373
:101E20000E94D71E0E94BB160E9459140E94F80FF0
:101E30000E94F51500000F90DF91CF910895CF9388
:101E4000DF9300D0CDB7DEB79A83898389819A81E9
:101E500090931C3A80931B3A89819A810E94502565
:101E600000000F900F90DF91CF910895CF93DF93F3
:101E700000D0CDB7DEB79A83898389819A81909308
:101E80001E3A80931D3A89819A810E942C25000078
:101E90000F900F90DF91CF910895CF93DF9300D0F3
:101EA0001F92CDB7DEB789837B836A838981882FB0
:101EB00090E00396880F991F855E954C2A813B819F
:101EC000FC013183208300000F900F900F90DF9171
:101ED000CF910895CF93DF93CDB7DEB78091413A8C
:101EE0009091423A21E0892B09F420E0822FDF9182
:101EF000CF910895CF93DF93CDB7DEB78091413A6C
:101F00009091423A01969093423A8093413A000070
:101F1000DF91CF910895CF93DF93CDB7DEB7809156
:101F2000413A9091423A01979093423A8093413AD4
:101F30000000DF91CF910895CF93DF93CDB7DEB747
:101F40000E948A250000DF91CF910895CF93DF93FF
:101F5000CDB7DEB70E94B8250000DF91CF9108957C
:101F6000CF93DF93CDB7DEB72C970FB6F894DEBFD3
:101F70000FBECDBF8C8789E0E7EBF2E0DE01139660
:101F800001900D928A95E1F789E189831A8215C043
:101F90009C858981981758F48A81882F90E09E014A
:101FA0002D5F3F4F820F931FFC0180810AC0898102
:101FB000875E89838A818F5F8A838A81893040F333
:101FC0008FEF2C960FB6F894DEBF0FBECDBFDF911A
:101FD000CF910895CF93DF93CDB7DEB70E947F1ED8
:101FE0000E9496220E9423140000DF91CF91089551
:101FF000CF93DF93CDB7DEB710921803109217037B
:102000000000DF91CF910895CF93DF9300D0CDB73B
:10201000DEB79A83898389819A81FC011482898140
:102020009A81FC01128A89819A81FC0113821282B1
:102030008091413A9091423A01969093423A80932E
:10204000413A8091170390911803892B61F489819B
:102050009A81FC011182108289819A8190931803E0
:10206000809317030FC020911703309118038981C3
:102070009A81FC013183208389819A81909318038E
:102080008093170300000F900F90DF91CF91089578
:10209000CF93DF93CDB7DEB728970FB6F894DEBFA6
:1020A0000FBECDBF98878F838F819885FC01818576
:1020B00092858034910598F40E9478149A838983DC
:1020C00089819A81892B61F58F81988522E0FC01B5
:1020D00024838F81988522E0FC01228BFEC28F81B0
:1020E0009885FC018185928580749927892B21F040
:1020F00081E00E94EA1403C080E00E94EA149A83FF
:10210000898389819A81892B59F48F81988522E06E
:10211000FC0124838F81988522E0FC01228BDDC2A3
:102120008F819885FC018185928580749927892B00
:1021300009F4C9C089819A810E94561F89819A81B8
:102140008A579F4FFC0110828F819885FC01818501
:10215000928580789927892B89F180917C2B9091A9
:102160007D2B1816190614F58F819885FC0187853B
:10217000482F50E08F819885FC012585368589811F
:102180009A818F579F4FFC0180819181B9010E94F4
:10219000F95889819A81FC0121818F819885FC0100
:1021A0008785280F89819A81FC01218389819A8101
:1021B000FC012581287FFC01258334C08F8198850F
:1021C000FC018185928588279170892B49F089814E
:1021D0009A81FC012581287F2460FC01258322C08F
:1021E0008F819885FC018185928588279270892B43
:1021F00049F089819A81FC012581287F2660FC01B4
:10220000258310C08F819885FC0181859285882760
:102210009470892B39F089819A81FC01258127608E
:10222000FC01258389819A81FC012581277FFC019E
:10223000258389819A81FC0125812F7EFC012583DC
:1022400089819A81FC0125812F712064FC012583FD
:102250008F819885FC018185928588279870892BCC
:1022600031F089819A8121E0FC01278313C08F819D
:102270009885FC018185928588279071892B31F0A2
:1022800089819A8122E0FC01278304C089819A8197
:10229000FC0117822091B31189819A81FC0120876A
:1022A0008091842B9091852B282F89819A81FC0124
:1022B00021878EEF9AEC9C838B8389819A812EEF04
:1022C000FC012683F5C18F819885FC01818592856B
:1022D000992394F08F819885FC01818592858827C8
:1022E0009072892B49F48F819885FC0181859285B4
:1022F00088279074892B99F18F819885FC0121851D
:10230000328589819A81B9010E94A91F89819A81A8
:102310008A579F4FFC0110828F819885FC01878529
:10232000482F50E08F819885FC012585368589816D
:102330009A818F579F4FFC0180819181B9010E9442
:10234000F95889819A81FC0121818F819885FC014E
:102350008785280F89819A81FC012183A9C18F81FA
:102360009885FC018185928580729927892B09F4D3
:1023700062C089819A818A579F4FFC0110828981AE
:102380009A81FC012185207F2860FC0121878981B9
:102390009A81FC0121852F702066FC0121878981AB
:1023A0009A81FC012285207F2160FC01228789819E
:1023B0009A81FC0122852061FC01228789819A8112
:1023C000FC0122852064FC01228789819A81FC011D
:1023D00022852F77FC01228789819A81FC0113864F
:1023E00089819A81FC0114868F819885FC018785FB
:1023F000482F50E08F819885FC012585368589819D
:102400009A818F579F4FFC0180819181B9010E9471
:10241000F95889819A81FC0121818F819885FC017D
:102420008785280F89819A81FC01218389819A817E
:102430000E940B1F3DC18F819885FC01818592858B
:10244000892B09F435C18F819885FC01818592859E
:102450008470992721E0892B09F420E089819A81F1
:102460008A579F4FFC0120838F819885FC018185CD
:1024700092858170992721E0892B09F420E08981D8
:102480009A812170FC0133853E7F232BFC01238739
:102490008F819885FC01818592858870992721E03C
:1024A000892B09F420E089819A812170220F220F63
:1024B000FC0133853B7F232BFC0123878F8198858B
:1024C000FC01818592858072992721E0892B09F48E
:1024D00020E089819A8121702295207FFC0133853B
:1024E0003F7E232BFC0123878F819885FC0181850A
:1024F00092858071992721E0892B09F420E0898158
:102500009A812170220F220F220FFC013385377F21
:10251000232BFC01238789819A81FC0183858870A4
:10252000882309F462C089819A818F579F4FFC01EB
:10253000808191819E838D838F819885FC01838525
:10254000282F2F708D819E812F70FC013181307F6B
:10255000232BFC0121838F819885FC018385282F03
:102560002F708D819E812295207FFC0131813F70EB
:10257000232BFC0121838F819885FC018485282FE2
:102580002F708D819E812F70FC013081307F232B35
:10259000FC0120838F819885FC018485282F2F7072
:1025A0008D819E812295207FFC0130813F70232BFD
:1025B000FC01208389819A818F579F4FFC01808184
:1025C00091819C012E5F3F4F89819A818F579F4F48
:1025D000FC013183208389819A81FC01818122E081
:1025E000280F89819A81FC01218380911F3A8F5F96
:1025F00080931F3A20911F3A89819A81FC01248798
:1026000020911B3A30911C3A89819A81FC013687CE
:1026100025878F819885FC012581368189819A8162
:10262000FC01308B27878F819885FC018085282FBE
:102630002F7089819A812F70FC013189307F232B83
:10264000FC01218B8F819885FC018781282F2F70B9
:1026500089819A812295207FFC0131893F70232B4B
:10266000FC01218B8F819885FC018785482F50E0E4
:102670008F819885FC012585368589819A818F57C0
:102680009F4FFC0180819181B9010E94F958898195
:102690009A81FC0121818F819885FC018785280F13
:1026A00089819A81FC01218389819A810E941D2060
:1026B0008F81988529813A81FC01338322838F8120
:1026C000988521E0FC01248389819A8189579F4F55
:1026D00026E733E1FC013183208328960FB6F89476
:1026E000DEBF0FBECDBFDF91CF910895CF93DF93B3
:1026F00000D000D0CDB7DEB79C838B8380911703C9
:10270000909118039A8389832BC089819A81FC0157
:10271000228133818B819C8128173907D1F48B81E9
:102720009C818D579F4FFC01208189819A81FC01FA
:10273000228B8B819C818A579F4FFC01208189814C
:102740009A81FC01238B89819A8122E0FC012483F8
:102750000BC089819A81FC01808191819A83898350
:1027600089819A81892B89F68B819C810E948215AF
:1027700000000F900F900F900F90DF91CF91089570
:10278000CF93DF9300D000D0CDB7DEB79C838B838F
:1027900020911703309118038B819C8128173907EA
:1027A00061F48091170390911803FC01808191815D
:1027B000909318038093170325C08091170390917D
:1027C00018039A83898307C089819A81FC018081DB
:1027D00091819A83898389819A81FC012081318149
:1027E0008B819C812817390779F789819A81FC01AF
:1027F00080819181FC012081318189819A81FC0154
:10280000318320838091413A9091423A019790938D
:10281000423A8093413A8B819C81FC018089918965
:10282000892B49F08B819C81FC01208931898B8126
:102830009C81F901099500000F900F900F900F9067
:10284000DF91CF910895CF93DF9300D0CDB7DEB75E
:1028500080911703909118039A83898321C08981FD
:102860009A81FC018481882F90E08130910581F06C
:102870008230910541F0892B09F00BC089819A8142
:102880000E94481011C089819A810E94C0130CC017
:10289000000089819A81FC01808191819A838983DA
:1028A00089819A81892BD9F60F900F90DF91CF9172
:1028B0000895CF93DF931F92CDB7DEB7198210C072
:1028C0008981282F30E049E8429FC001439F900D45
:1028D0001124875E9C4FFC01108289818F5F898360
:1028E0008981843168F300000F90DF91CF910895C2
:1028F000CF93DF931F92CDB7DEB7198261C0898174
:10290000282F30E049E8429FC001439F900D1124D9
:10291000875E9C4FFC018081882309F04EC089812D
:10292000282F30E049E8429FC001439F900D1124B9
:10293000875E9C4F49E850E060E070E00E940259D9
:102940008981282F30E049E8429FC001439F900DC4
:102950001124865E9C4FFC0110828981482F50E033
:102960008981282F30E069E8629FC001639F900D44
:10297000112402969C01275E3C4F69E8649FC001C8
:10298000659F900D112486569C4FFC013183208356
:102990008091413A9091423A01969093423A8093C5
:1029A000413A8981282F30E049E8429FC001439F86
:1029B000900D1124875E9C4F09C089818F5F8983A8
:1029C0008981843108F49BCF80E090E00F90DF9103
:1029D000CF910895CF93DF9300D0CDB7DEB78A8330
:1029E000198285C08981282F30E049E8429FC001C3
:1029F000439F900D1124875E9C4FFC0180818823AA
:102A000009F072C08981282F30E049E8429FC00157
:102A1000439F900D1124875E9C4F49E850E060E091
:102A200070E00E9402598A81882379F08981282FD9
:102A300030E049E8429FC001439F900D1124865E1B
:102A40009C4F28E0FC0120830EC08981282F30E0B4
:102A500049E8429FC001439F900D1124865E9C4F20
:102A600023E0FC0120838981482F50E08981282FB1
:102A700030E069E8629FC001639F900D11240296C7
:102A80009C01275E3C4F8981682F70E0E9E8E69F52
:102A9000C001E79F900D1124865E9C4FFC01808150
:102AA000882F90E0280F391F69E8649FC001659F57
:102AB000900D112486569C4FFC0131832083809118
:102AC000413A9091423A01969093423A8093413A2A
:102AD0008981282F30E049E8429FC001439F900D33
:102AE0001124875E9C4F09C089818F5F898389810A
:102AF000843108F477CF80E090E00F900F90DF9161
:102B0000CF910895CF93DF9300D0CDB7DEB79A83EE
:102B1000898389819A81FC0110828091413A909148
:102B2000423A01979093423A8093413A00000F90C5
:102B30000F90DF91CF910895CF93DF9300D0CDB761
:102B4000DEB79A83898389819A81892B29F489E167
:102B500093E09A83898316C089819A8187579F4F12
:102B60009A8389830FC089819A81FC01808188239F
:102B700019F089819A810DC089819A8187579F4F69
:102B80009A83898389819A818D5C9D4060F380E07E
:102B900090E00F900F90DF91CF910895CF93DF9346
:102BA00000D0CDB7DEB79A83898389819A818D570A
:102BB0009F4FFC01108280911F3A8F5F80931F3AD4
:102BC00020911F3A89819A81FC01248720911B3A28
:102BD00030911C3A89819A81FC0136872587000053
:102BE0000F900F90DF91CF910895CF93DF931F92B5
:102BF000CDB7DEB719820FC08981882F90E0880F8A
:102C0000991F8353924F2FEF3FEFFC0131832083B5
:102C100089818F5F89838981833070F300000F90F1
:102C2000DF91CF910895CF93DF9300D0CDB7DEB77A
:102C30009A83898389819A81BC018FEF9FEF0E94DB
:102C400060160F900F90DF91CF910895CF93DF938F
:102C500000D0CDB7DEB79A83898389819A816FEFDF
:102C60007FEF0E9460160F900F90DF91CF91089533
:102C7000CF93DF9300D01F92CDB7DEB79B838A83BB
:102C8000198214C08981882F90E0880F991F83537F
:102C9000924FFC01208131818A819B81281739075D
:102CA00011F481E007C089818F5F89838981833036
:102CB00048F380E00F900F900F90DF91CF9108952F
:102CC000CF93DF9300D000D01F92CDB7DEB79B83A8
:102CD0008A837D836C83198220C08981882F90E04C
:102CE000880F991F8353924FFC01208131818A8183
:102CF0009B812817390771F48981882F90E0880F0C
:102D0000991F8353924F2C813D81FC013183208395
:102D100081E007C089818F5F898389818330E8F2F0
:102D200080E00F900F900F900F900F90DF91CF9158
:102D30000895CF93DF9300D0CDB7DEB79A83898310
:102D400089819A81FC01418189819A818F579F4FA6
:102D5000FC01808191819C0189819A810296B9014F
:102D6000681B790BCB01742F781B872F0F900F9066
:102D7000DF91CF910895CF93DF931F92CDB7DEB748
:102D8000198211C08981282F30E0C901880F991F4D
:102D9000880F991F820F931F8952924FFC01108256
:102DA00089818F5F89838981823360F384E690E033
:102DB000A0E0B0E08093D40E9093D50EA093D60EF1
:102DC000B093D70E1092D80E8AEB98E19093DA0E5A
:102DD0008093D90E6BED79E180E00E944D0F0000E9
:102DE0000F90DF91CF910895CF93DF9300D000D063
:102DF000CDB7DEB79C838B838B819C81FC01808166
:102E00009181FC0180818C3041F48B819C81FC019B
:102E10008281883008F064C011C18B819C81FC01E3
:102E200080819181FC0180818C3C91F08B819C811F
:102E3000FC0180819181FC0180818C3849F08B817B
:102E40009C81FC0180819181FC0180818C3441F462
:102E50008B819C81FC018281833008F041C0EEC0EF
:102E60008B819C81FC01808191810196FC01808194
:102E70008838D1F48B819C81FC0180819181FC0197
:102E80008081813651F08B819C81FC018081918110
:102E9000FC018081813409F0C6C08B819C81FC01DA
:102EA00082818031E8F4BFC08B819C81FC018081EC
:102EB00091810196FC018081803809F0B6C08B8138
:102EC0009C81FC0180819181FC018081882309F033
:102ED000AEC08B819C81FC0182818B3008F4A7C03D
:102EE0008B819C81FC01808191810196FC01808114
:102EF000883851F08B819C81FC0180819181019601
:102F0000FC0180818038D9F40E9478149A838983E7
:102F100089819A81892B09F48CC08B819C81FC0169
:102F2000808191810196FC018081883811F420E232
:102F300001C025E289819A81FC01208346C08B81F2
:102F40009C81FC0180819181FC0180818C3081F425
:102F500081E00E94EA149A83898389819A81892B6E
:102F600009F469C089819A8126E2FC0120832DC081
:102F700080E00E94EA149A83898389819A81892B4F
:102F800009F45BC08B819C81FC0180819181FC01F3
:102F900080818C3831F489819A8128E2FC01208378
:102FA00014C08B819C81FC0180819181FC01808116
:102FB0008C3C31F489819A8127E2FC01208305C091
:102FC00089819A8129E2FC0120838B819C81FC010B
:102FD000228189819A81FC0121838B819C81FC0162
:102FE000238189819A818D579F4FFC0120838B819A
:102FF0009C81FC01248189819A818C579F4FFC011F
:1030000020838B819C81FC018281482F50E08B8141
:103010009C81FC012081318189819A810296B901CC
:103020000E94F9580BC0000009C0000007C0000052
:1030300005C0000003C0000001C000000F900F9009
:103040000F900F90DF91CF910895CF93DF9300D031
:1030500000D000D0CDB7DEB79E838D830E94781458
:103060009A83898389819A81892B09F46BC08D8128
:103070009E81FC01818120E1280F8D819E81FC01D0
:1030800021838D819E818F579F4FFC01808191818B
:103090009C01205F3F4F8D819E818F579F4FFC0188
:1030A0003183208389819A810E94CE1589819A81FA
:1030B000FC01818123E0280F89819A81FC01218311
:1030C00089819A8189579F4FFC01118210828D81DD
:1030D0009E81FC01838581FB222720F989819A81C9
:1030E0002170220FFC0133853D7F232BFC012387B8
:1030F0008D819E81FC012585368589819A81FC011F
:10310000308B278789819A818F579F4FFC0180815F
:1031100091819C838B838B819C81FC011082209107
:10312000CD0E8B819C81FC0122838D819E81FC01CF
:1031300024858B819C81FC01218389819A810E9455
:103140001D2001C0000026960FB6F894DEBF0FBE0A
:10315000CDBFDF91CF910895CF93DF931F92CDB76D
:10316000DEB7898389818093CD0E00000F90DF91B7
:10317000CF910895CF93DF9300D000D0CDB7DEB7C5
:103180009C838B8319821A8230C08A81282F30E079
:10319000C901880F991F880F991F820F931F8952A9
:1031A000924FFC0180818823E9F08A81282F30E04A
:1031B000C901880F991F880F991F820F931F895289
:1031C000924FFC0180814FEF480FC901880F991F72
:1031D000880F991F820F931F8952924FFC014083E1
:1031E00081E089838A818F5F8A838A81823368F252
:1031F0008981882321F08B819C810E946B280000AB
:103200000F900F900F900F90DF91CF910895CF9373
:10321000DF93CDB7DEB729970FB6F894DEBF0FBEA8
:10322000CDBF998788871A8219821B8290C08B81B3
:10323000282F30E0C901880F991F880F991F820F2E
:10324000931F8D52924F9D838C838C819D81FC01B5
:103250008481882309F46EC088859985FC012385C3
:1032600034858C819D81FC018081918128173907EB
:1032700009F060C08C819D81FC012281888599853F
:10328000FC018285F22FF81B8F2F8E838E81883070
:1032900058F58C819D81FC018381882F90E02E81DF
:1032A000222F30E002C0959587952A95E2F781702C
:1032B0009927892B11F081E075C08C819D81FC01DB
:1032C0008381482F8E81282F30E081E090E002C07A
:1032D000880F991F2A95E2F7842B282F8C819D81D6
:1032E000FC01238380E05EC08E8181958F83888579
:1032F0009985FC0122858C819D81FC0122838C8132
:103300009D81FC018381882F90E02F81222F30E066
:1033100002C0880F991F2A95E2F78160282F8C81BF
:103320009D81FC0123838C819D8125E1FC01248307
:1033300080E038C08C819D81FC018481882321F448
:103340008C819D819A8389838B818F5F8B838B8115
:10335000823308F46CCF89819A81892B11F481E042
:1033600021C088859985FC012385348589819A81CE
:10337000FC013183208388859985FC012285898120
:103380009A81FC01228389819A8121E0FC012383B7
:1033900089819A8125E1FC0124838EEC9EE00E94C4
:1033A0006B2880E029960FB6F894DEBF0FBECDBF24
:1033B000DF91CF910895CF93DF9300D0CDB7DEB7E3
:1033C0009A83898389819A81FC018285882311F4FB
:1033D00080E011C089819A81FC0180859185FC0182
:1033E0008081882F90E0892B29F489819A810E941D
:1033F000432101C080E00F900F90DF91CF9108959D
:10340000CF93DF93CDB7DEB728970FB6F894DEBF22
:103410000FBECDBF98878F838F81988502969B833F
:103420008A838F81988524E2FC0120838A819B8195
:10343000FC0181858270882309F03BC18A819B81D0
:10344000FC0181858870882341F08A819B81FC0181
:1034500081858170882309F02EC18A819B81FC01BE
:10346000838194810196D1F420911B3A30911C3ACA
:103470008A819B81FC01858596852817390741F053
:103480008A819B81FC0185859685019609F015C18D
:103490008F81988522E2FC0120830FC18A819B8164
:1034A000FC0185859685019641F48A819B81FC010A
:1034B00081858170882309F002C120911B3A3091E7
:1034C0001C3A8A819B81FC018385948528173907E2
:1034D00009F4F7C08A819B810E940719882309F0AB
:1034E000F2C08A819B81FC0181858870882309F460
:1034F000A9C08F8198858F579F4FFC018081918152
:103500009D838C838A819B81FC01858596850E94A1
:1035100038168E8319828A819B81FC018581968170
:10352000019609F061C08E81882379F18C819D819B
:10353000FC0181818F70882F90E021E01816190618
:103540000CF020E029838C819D81FC0181818F70AA
:103550002FE0280F2F708C819D812F70FC0131810D
:10356000307F232BFC0121838C819D81FC01808194
:10357000282F22952F708C819D812F70FC01308126
:10358000307F232BFC0120833BC08C819D81FC017B
:1035900080818F70882F90E021E0181619060CF0BA
:1035A00020E029838C819D81FC0180818F702FE038
:1035B000280F2F708C819D812F70FC013081307F0E
:1035C000232BFC0120838C819D81FC018181282F8C
:1035D00022952F708C819D812F70FC013181307F6D
:1035E000232BFC0121830CC08E81882349F081E0CC
:1035F00089838A819B81FC0121852460FC012187CC
:103600008981882321F08F8198850E94B4208E8142
:10361000882309F459C08F8198858F579F4FFC01EB
:10362000808191819C012E5F3F4F8F8198858F57BC
:103630009F4FFC01318320838F81988522E2FC011A
:10364000208342C08A819B81FC01858196810196FD
:10365000B9F420911B3A30911C3A8A819B81FC017C
:10366000858596852817390759F08A819B81FC0149
:1036700081858470882321F48F8198850E94B420ED
:1036800020911B3A30911C3A8A819B81FC018585EF
:1036900096852817390739F08A819B81FC01858539
:1036A0009685019689F48F81988522E2FC0120831A
:1036B0000BC0000009C0000007C0000005C00000EA
:1036C00003C0000001C0000028960FB6F894DEBFCA
:1036D0000FBECDBFDF91CF910895CF93DF93CDB7CC
:1036E000DEB761970FB6F894DEBF0FBECDBF998BE2
:1036F000888B8889998902969A83898389819A819E
:10370000FC01878582958F70882F90E00396880F43
:10371000991F855E954CFC0180819181892B11F464
:1037200080E0D9C089819A81FC01838594859C833E
:103730008B8389819A81FC01858596859E838D8303
:1037400089819A81FC0187858F708F8389819A8115
:10375000FC01878582958F708887888999898F5722
:103760009F4FFC01808191819C878B8788899989F3
:103770000E9499168D87888999898D579F4FFC01E2
:1037800080818E87888999898C579F4FFC01808121
:103790008F8789819A81FC018185982F917081E0C2
:1037A000992309F480E0882F90E09A8789872985FA
:1037B0003A8589819A81FC018185882F90E0827009
:1037C0009927822B932B9A87898729853A85898126
:1037D0009A81FC0181858470882319F080E290E051
:1037E00002C080E090E0822B932B9A8789872985FD
:1037F0003A8589819A81FC0181858870882319F036
:1038000080E490E002C080E090E0822B932B9A87C6
:10381000898729853A8589819A81FC018185807112
:10382000882319F080E890E002C080E090E0822BCD
:10383000932B9A87898729853A8589819A81FC010A
:1038400085859685019619F484E090E002C080E0B9
:1038500090E0822B932B9A87898729853A858981E5
:103860009A81FC014385548589819A81FC01878175
:1038700090854817590719F488E090E002C080E06D
:1038800090E0822B932B9A87898729853A858981B5
:103890009A81FC0183819481019619F480E190E082
:1038A00002C080E090E0822B932B9A8789878981E0
:1038B0009A81FC01878582958F70882F90E003960E
:1038C000880F991F855E954CFC0120813181CE01C6
:1038D0000396F901099561960FB6F894DEBF0FBE05
:1038E000CDBFDF91CF910895CF93DF93CDB7DEB7F2
:1038F00061970FB6F894DEBF0FBECDBF998B888B52
:103900008889998902969A8389838889998924E28A
:10391000FC0120838091213A9091223A892B11F465
:1039200080E044C088899989FC01878190859C83C7
:103930008B8388899989FC01878190859E838D83FB
:103940001F821886888999898F579F4FFC01808133
:1039500091819C878B87888999890E9499168D8788
:10396000888999898D579F4FFC0180818E8788892E
:1039700099898C579F4FFC0180818F8780E890E068
:103980009A87898789819A81FC01878582958F70C2
:10399000882F90E00396880F991F855E954CFC0157
:1039A00020813181CE010396F901099561960FB608
:1039B000F894DEBF0FBECDBFDF91CF910895CF93B6
:1039C000DF93CDB7DEB72F970FB6F894DEBF0FBEEB
:1039D000CDBF9F878E878E859F8524E2FC01208343
:1039E0008091213A9091223A892B11F480E02AC0EB
:1039F0001A8219821C821B821D821E828E859F85DF
:103A000002969A8789878E859F850E9499168B8753
:103A10008E859F858D579F4FFC0180818C878E8579
:103A20009F858C579F4FFC0180818D8780E091E0BE
:103A300098878F832091213A3091223ACE010196C6
:103A4000F90109952F960FB6F894DEBF0FBECDBFD2
:103A5000DF91CF910895CF93DF93CDB7DEB7619714
:103A60000FB6F894DEBF0FBECDBF998B888B8889C7
:103A7000998902969A8389838889998924E2FC012D
:103A800020838091273A9091283A892B11F480E085
:103A90002EC01C821B821E821D821F82188688896E
:103AA00099898F579F4FFC01808191819C878B87DB
:103AB000888999890E9499168D87888999898D5757
:103AC0009F4FFC0180818E87888999898C579F4FF1
:103AD000FC0180818F8780E092E09A87898720911E
:103AE000273A3091283ACE010396F901099561965B
:103AF0000FB6F894DEBF0FBECDBFDF91CF91089512
:103B0000CF93DF93CDB7DEB761970FB6F894DEBFE2
:103B10000FBECDBF998B888B8889998902969A832D
:103B200089838889998924E2FC0120838091233A42
:103B30009091243A892B11F480E02EC01C821B82C4
:103B40001E821D821F821886888999898F579F4FF0
:103B5000FC01808191819C878B87888999890E944B
:103B600099168D87888999898D579F4FFC0180818F
:103B70008E87888999898C579F4FFC0180818F8718
:103B800080E094E09A8789872091233A3091243A03
:103B9000CE010396F901099561960FB6F894DEBF40
:103BA0000FBECDBFDF91CF910895CF93DF93CDB7F7
:103BB000DEB761970FB6F894DEBF0FBECDBF998B0D
:103BC000888B8889998902969A83898388899989BB
:103BD00024E2FC0120838091293A90912A3A892B92
:103BE00011F480E02EC01C821B821E821D821F8267
:103BF0001886888999898F579F4FFC018081918110
:103C00009C878B87888999890E9499168D878889D6
:103C100099898D579F4FFC0180818E87888999896A
:103C20008C579F4FFC0180818F8780E090E49A87BA
:103C300089872091293A30912A3ACE010396F901D9
:103C4000099561960FB6F894DEBF0FBECDBFDF9128
:103C5000CF910895CF93DF9300D01F92CDB7DEB7F9
:103C60009B838A831092CD0E8A819B810E946D1B5B
:103C700089838A819B81FC0183858170882309F473
:103C800019828A819B81FC01878190850196A9F424
:103C900020911B3A30911C3A8A819B81FC018785D7
:103CA00090892817390749F48A819B81FC01838513
:103CB0008870882311F481E089838A819B81FC01CB
:103CC00085819681019609F4198280911B3A909121
:103CD0001C3A019609F419828981882321F08A818E
:103CE0009B810E9425188A819B8124E2FC0120830C
:103CF00000000F900F900F90DF91CF910895CF9318
:103D0000DF9300D0CDB7DEB71A8219823FC0898118
:103D10009A81FC018081882F90E0092E000CAA0B6B
:103D2000BB0B40E250E029E030E0841B950B2817E4
:103D3000390760F182569F4FFC010C9483568981AC
:103D40009A810E94001A22C089819A810E942A1EAB
:103D50001DC089819A810E94821518C089819A812B
:103D60000E94741C13C089819A810E94DF1C0EC0BE
:103D700089819A810E942B1D09C089819A810E94A4
:103D8000801D89819A810E94D51D000089819A81B8
:103D90000E949C159A83898389819A81892B09F0D5
:103DA000B6CF00000F900F90DF91CF910895CF9381
:103DB000DF93CDB7DEB71092DC0E1092DB0E82E3FC
:103DC00090E0A0E0B0E08093E30E9093E40EA09327
:103DD000E50EB093E60E1092E70E82E991E2909321
:103DE000E90E8093E80E8AE090E0A0E0B0E08093D6
:103DF000F00E9093F10EA093F20EB093F30E10928A
:103E0000F40E8CEF91E29093F60E8093F50E000085
:103E1000DF91CF910895CF93DF9300D000D0CDB73D
:103E2000DEB79C838B838B819C8102969A838983E6
:103E30008B819C8123E1FC0120838B819C818D57A8
:103E40009F4FFC0110828B819C818C579F4FFC01FE
:103E50001182108289819A8120E030E8FC0131834F
:103E600020838091203A8F5F8093203A2091203ADE
:103E700089819A81FC01228320911D3A30911E3A5A
:103E800089819A81FC013483238320911B3A3091EC
:103E90001C3A89819A81FC013683258300000F90AA
:103EA0000F900F900F90DF91CF910895CF93DF93F4
:103EB00000D000D0CDB7DEB79C838B838B819C81F3
:103EC00002969A8389838B819C8123E1FC01208364
:103ED0008B819C818D579F4FFC0110828B819C812F
:103EE0008C579F4FFC011182108289819A812CE0AE
:103EF000FC0120838091203A8F5F8093203A2091AB
:103F0000203A89819A81FC01218389819A81FC016F
:103F10002281287FFC01228389819A81FC012281F0
:103F2000277EFC01228389819A81FC0122812F7DD9
:103F3000FC01228389819A81FC0122812F7BFC0173
:103F4000228300000F900F900F900F90DF91CF9180
:103F50000895CF93DF9300D000D000D0CDB7DEB767
:103F60009C838B837E836D838B819C8102969A8355
:103F700089838B819C8123E1FC0120838B819C813F
:103F80008D579F4FFC0110828B819C818C579F4FD6
:103F9000FC01118210828D819E81992334F48981E4
:103FA0009A812CECFC01208317C08D819E8188278B
:103FB0009072892B31F089819A812CE4FC01208355
:103FC0000BC08D819E8188279074892B29F089816F
:103FD0009A812CE8FC0120838091203A8F5F8093A6
:103FE000203A2091203A89819A81FC01218389819C
:103FF0009A81FC012281287FFC01228389819A8198
:10400000FC012281277EFC01228389819A81FC01A7
:1040100022812F7DFC01228389819A81FC012281EA
:104020002F7BFC012283000026960FB6F894DEBF9A
:104030000FBECDBFDF91CF910895CF93DF9300D016
:1040400000D0CDB7DEB79C838B838B819C81029699
:104050009A8389838B819C818A579F4FFC01808141
:10406000882F90E082709927892B31F08B819C8179
:1040700022E1FC01208305C08B819C8122E1FC01AF
:1040800020838B819C818D579F4FFC0110828B81F7
:104090009C818A579F4FFC018081882F90E081701E
:1040A0009927892B41F089819A812FEF3FEFFC01FD
:1040B0003483238309C020911D3A30911E3A8981AF
:1040C0009A81FC013483238389819A81FC012585AF
:1040D000368589819A81FC013683258320911B3A9C
:1040E00030911C3A89819A81FC0130872783809125
:1040F000203A8F5F8093203A2091203A89819A81DB
:10410000FC01228389819A81FC0185819681019637
:10411000A9F489819A8121E438E8FC013183208364
:104120000E9407588770992701969C018B819C817A
:104130008C579F4FFC01318320830EC089819A8167
:1041400021E438E8FC01318320838B819C818C57EA
:104150009F4FFC011182108200000F900F900F9072
:104160000F90DF91CF910895CF93DF9300D000D0CF
:10417000CDB7DEB79C838B830E9478149A838983A2
:1041800089819A81892B09F476C089819A818F5718
:104190009F4FFC01808191819C01205F3F4F89816D
:1041A0009A818F579F4FFC013183208389819A81A7
:1041B00022E1FC0120838B819C81FC01218189818A
:1041C0009A81FC01218389819A818D579F4FFC013F
:1041D00010820E9407588770992701969C01898157
:1041E0009A818C579F4FFC013183208389819A816A
:1041F00089579F4FFC01118210828B819C81FC01A9
:104200008181482F50E08B819C819C012E5F3F4F24
:1042100089819A810296B9010E94F95889819A810F
:1042200021E438E8FC013383228389819A812FEFCE
:104230003FEFFC01308727838B819C81FC01258126
:10424000368189819A81FC013683258320911B3A2E
:1042500030911C3A89819A81FC01328721878091B3
:10426000203A8F5F8093203A2091203A89819A8169
:10427000FC01248301C000000F900F900F900F905D
:10428000DF91CF910895CF93DF9300D000D000D07D
:10429000CDB7DEB79E838D838D819E81FC018085A5
:1042A00091859C838B831A8219828D819E81FC016A
:1042B0008285833019F180E02CC089819A81FC01CC
:1042C00080818631D9F489819A81FC0124858B8192
:1042D0009C81FC018181281789F489819A8127E1D9
:1042E000FC0120838B819C81FC01228189819A8140
:1042F0008A579F4FFC01208381E00BC089819A81FE
:104300000E949C159A83898389819A81892BA9F6B9
:1043100080E026960FB6F894DEBF0FBECDBFDF91CA
:10432000CF910895CF93DF9300D000D01F92CDB7E7
:10433000DEB79D838C831A8219821B8227C08981F4
:104340009A81FC018081863109F581E08B83898126
:104350009A818C579F4FFC01808191819C01215053
:10436000310989819A818C579F4FFC0131832083C9
:1043700089819A818C579F4FFC0180819181892B83
:1043800029F489819A8160E10E94E02189819A81E2
:104390000E949C159A83898389819A81892B79F659
:1043A0008B81882321F08C819D810E946B280000E5
:1043B0000F900F900F900F900F90DF91CF91089575
:1043C000CF93DF9300D01F92CDB7DEB79A83898356
:1043D0006B8389819A8127E1FC01208389819A81FD
:1043E0008D579F4F2B81FC01208300000F900F9071
:1043F0000F90DF91CF910895CF93DF9300D000D03D
:104400001F92CDB7DEB79D838C831A8219821B82DF
:1044100027C089819A81FC018081813109F581E081
:104420008B8389819A818C579F4FFC018081918178
:104430009C012150310989819A818C579F4FFC0141
:104440003183208389819A818C579F4FFC01808121
:104450009181892B29F489819A8123E1FC012083B0
:1044600089819A810E949C159A83898389819A8186
:10447000892B79F68B81882321F08C819D810E9484
:104480006B2800000F900F900F900F900F90DF910E
:10449000CF910895CF93DF931F92CDB7DEB7898375
:1044A0008981882F90E08130910539F08230910523
:1044B00031F0892B31F480E005C080E203C081E255
:1044C00001C081E00F90DF91CF9108950F931F936A
:1044D000CF93DF931F92CDB7DEB789830091DB0EB8
:1044E0001091DC0E89810E944A22282FC8018D5725
:1044F0009F4FFC0120838091DB0E9091DC0E25E123
:10450000FC0120831092DC0E1092DB0E8091413A68
:104510009091423A01979093423A8093413A000039
:104520000F90DF91CF911F910F910895CF93DF935B
:1045300000D0CDB7DEB71A821982B3C089819A81C3
:10454000FC018081882F90E08431910509F4A9C095
:104550008531910534F48231910579F0439731F139
:104560009FC08631910509F49CC0863191050CF4F9
:1045700043C0479709F47AC093C089819A818C57C8
:104580009F4FFC0180819181892B51F089819A8113
:1045900021E1FC0120838AEE9EE00E946B2881C00D
:1045A00089819A8123E1FC0120837BC08091DB0E0D
:1045B0009091DC0E892B09F074C089819A819093C7
:1045C000DC0E8093DB0E89819A8124E1FC0120833B
:1045D00089819A81FC01218189819A810296622FC9
:1045E0000E94CC258091413A9091423A0196909355
:1045F000423A8093413A55C089819A818D579F4FA5
:10460000FC018081882361F589819A81FC012585DF
:10461000368580911B3A90911C3A28173907D1F4BE
:1046200089819A81FC0183858170882399F0898131
:104630009A8126E1FC01208389819A818C579F4FC2
:1046400025E130E0FC01318320838DED9EE00E9466
:104650006B280BC089819A8127E1FC01208321C04E
:1046600089819A8127E1FC0120831BC089819A817D
:1046700089579F4FFC0180819181892B29F4898181
:104680009A810E9482150DC089819A8189579F4F16
:10469000FC012081318189819A81F901099501C04C
:1046A000000089819A810E949C159A83898389815F
:1046B0009A81892B09F042CF00000F900F90DF9173
:1046C000CF910895CF93DF9300D0CDB7DEB79A8313
:1046D000898389819A81892B09F47BC089819A8198
:1046E0008837910549F461E080E00E94184460E158
:1046F00080E00E9418446DC089819A81803C9105B8
:1047000029F462E080E00E94184463C089819A81A4
:104710008C34910529F464E080E00E94184459C06B
:1047200089819A818038910529F468E080E00E94AF
:1047300018444FC089819A818434910529F460E23C
:1047400080E00E94184445C089819A81803B910590
:1047500029F460E480E00E9418443BC089819A817A
:10476000883B910529F460E880E00E94184431C03C
:1047700089819A81883C910529F461E081E00E9459
:10478000184427C089819A818039910529F468E00D
:1047900081E00E9418441DC089819A81803A910568
:1047A00029F460E181E00E94184413C089819A8154
:1047B0008032914029F460E281E00E94184409C0EF
:1047C00089819A818334914021F460E481E00E94E0
:1047D000184400000F900F90DF91CF910895615021
:1047E000710981099109D9F708950F931F93CF9308
:1047F000DF93CDB7DEB783E491E00E94622389E3C3
:1048000091E0FC0120812160FC0120831092780F4F
:1048100081E08093F70E88E00E94A9268CE491E065
:10482000FC0120812068FC0120830DE611E00E943C
:104830000D26F80180838DE491E0FC0120812C7F1E
:104840002260FC0120838AE491E0FC012081207F2A
:104850002360FC0120838DE491E0FC01208128602D
:10486000FC0120838DE491E0FC0120812460FC01A7
:10487000208384E491E0FC0120812068FC012083F6
:104880000000DF91CF911F910F910895CF93DF9397
:10489000CDB7DEB789E391E0FC0120812160FC0106
:1048A00020830000DF91CF910895CF93DF931F9273
:1048B000CDB7DEB7898389818823B1F08CE691E09A
:1048C000FC0120812F70FC0120838CE691E0FC012B
:1048D00020812E60FC0120838EE691E0FC01208186
:1048E0002061FC01208317C08CE691E0FC0120814F
:1048F0002F702063FC0120838CE691E0FC01208175
:10490000217F2860FC0120838EE691E0FC0120815C
:104910002F7EFC01208300000F90DF91CF9108953E
:10492000CF93DF93CDB7DEB729970FB6F894DEBFEC
:104930000FBECDBF898728E0CE010196FC01322F42
:1049400011923A95E9F78985882349F180E090E052
:104950000E94502580E090E00E942C25CE01019617
:104960000E94E72687E591E0FC0120812260FC019E
:10497000208387E591E0FC0120812061FC012083F8
:1049800087E591E0FC0120812F7DFC0120838EE6EC
:1049900091E0FC0120812061FC0120830BC087E5B0
:1049A00091E0FC0110828EE691E0FC0120812F7ED7
:1049B000FC012083000029960FB6F894DEBF0FBEDD
:1049C000CDBFDF91CF9108950F931F93CF93DF93C6
:1049D000CDB7DEB78FE691E0FC012081207F236018
:1049E000FC0120838FE691E0FC0120812F7020687C
:1049F000FC0120830DE611E00E940D26F801808362
:104A00000000DF91CF911F910F910895CF93DF9315
:104A10001F92CDB7DEB7898389818093780F0E947A
:104A2000922600000F90DF91CF910895CF93DF93EE
:104A30001F92CDB7DEB7898388E491E029812F7179
:104A40002F71FC013081307E232BFC01208300007C
:104A50000F90DF91CF910895CF93DF9300D000D0D6
:104A6000CDB7DEB79C838B83CE0103969A8389836F
:104A700082E691E029813A81F9012081FC012083BD
:104A800083E691E029813A81F9012181FC012083AB
:104A900000000F900F900F900F90DF91CF9108952D
:104AA000CF93DF9300D000D0CDB7DEB79C838B834C
:104AB000CE0103969A83898380E691E029813A8129
:104AC000F9012081FC01208381E691E029813A816E
:104AD000F9012181FC01208300000F900F900F90BD
:104AE0000F90DF91CF910895CF93DF931F92CDB7B1
:104AF000DEB7898385E491E029812F702F70FC0156
:104B00003081307F232BFC01208300000F90DF9148
:104B1000CF910895CF93DF93CDB7DEB78091F70E95
:104B2000823069F088E00E94A92689E391E0FC01C7
:104B300020812260FC01208382E08093F70E8DE4C7
:104B400091E0FC0120812B7FFC0120838DE491E02A
:104B5000FC012081277FFC01208384E491E0FC019B
:104B600020812F77FC0120830000DF91CF910895F1
:104B7000CF93DF93CDB7DEB789E391E0FC012081CD
:104B80002D7FFC0120830E94922681E08093F70E06
:104B90000000DF91CF910895CF93DF9300D000D034
:104BA000CDB7DEB79B838A836C8389E10E94A926F7
:104BB0008FE491E02FEFFC01208380E891E02C81CD
:104BC0002E5FFC012083198214C08981882F90E018
:104BD0008F579E4FAC018981882F90E02A813B81BD
:104BE000820F931FFC018081FA01808389818F5F8E
:104BF000898399818C81981740F383E08093F70E25
:104C000082E491E022E0FC01208300000F900F90ED
:104C10000F900F90DF91CF910895CF93DF9300D045
:104C20001F92CDB7DEB71A82198286E00E94A926AC
:104C30001B8222C062E070E080E090E00E94EF23DF
:104C400086E491E0FC01808182958695877083706F
:104C5000882F90E02B81222F30E002C0880F991F0F
:104C60002A95E2F79C0189819A81822B932B9A8362
:104C700089838B818E5F8B838B818031D8F20E94F8
:104C8000922689819A810F900F900F90DF91CF919A
:104C90000895CF93DF9300D000D0CDB7DEB79A83CD
:104CA00089837C836B838B819C8140E060E00E94E0
:104CB0000C3789819A810E94183889819A810E94D3
:104CC0004E3800000F900F900F900F90DF91CF9112
:104CD0000895CF93DF931F92CDB7DEB786E00E9491
:104CE000A9268FE491E0FC0120812061FC01208352
:104CF00087E491E0FC01108200008FE491E0FC0168
:104D00008081829581708823C1F387E491E0FC0162
:104D100080818A5589830E94922689810F90DF9134
:104D2000CF910895CF93DF93CDB7DEB788E00E948F
:104D3000A9268FE491E02FEFFC0120838091780F6A
:104D4000882319F086E10E94A9260000DF91CF9107
:104D50000895CF93DF931F92CDB7DEB789838091FB
:104D6000F70E8230A9F48DE491E0FC0120812860E7
:104D7000FC0120838DE491E0FC0120812460FC0192
:104D8000208384E491E0FC0120812068FC012083E1
:104D900082E491E023E0FC01208381E491E0FC01C6
:104DA00080818F718830A1F782E491E02981FC0134
:104DB000208381E491E0FC0180818F71982F8981AB
:104DC000981791F700000F90DF91CF910895CF933E
:104DD000DF9300D000D0CDB7DEB79C838B838B816F
:104DE0009C819A83898324E631E089819A81AC0190
:104DF0004F5F5F4F5A834983FC018081F9018083B3
:104E000025E631E089819A81AC014F5F5F4F5A837B
:104E10004983FC018081F901808326E631E08981A4
:104E20009A81AC014F5F5F4F5A834983FC018081B7
:104E3000F901808327E631E089819A81AC014F5FD7
:104E40005F4F5A834983FC018081F901808328E602
:104E500031E089819A81AC014F5F5F4F5A8349836A
:104E6000FC018081F901808329E631E089819A8102
:104E7000AC014F5F5F4F5A834983FC018081F90188
:104E800080832AE631E089819A81AC014F5F5F4FD0
:104E90005A834983FC018081F90180838BE691E08C
:104EA00029813A81F9012081FC01208300000F90C3
:104EB0000F900F900F90DF91CF910895CF93DF93D4
:104EC000CDB7DEB728970FB6F894DEBF0FBECDBFC3
:104ED0008091F70E823009F49EC08FE491E0FC01CE
:104EE000808183FB882780F9882309F459C08BE7E8
:104EF00091E0FC0180818B83198211C08981882F08
:104F000090E02981222F30E020583E4FF901208186
:104F10008850914FFC01208389818F5F898389812B
:104F2000282F30E08B81882F90E0019628173907D1
:104F30002CF388EF9EE09D838C838B8182508E833F
:104F40008B81882F90E08850914FFC0180818F8366
:104F500087E491E0FC0180818A558887CE01049620
:104F60000E94F416000081E491E0FC0180818F71C1
:104F70008631C9F78FE491E0FC0120812860FC01B3
:104F800020838CE491E0FC0120812F77FC012083B9
:104F90008CE491E0FC0120812068FC0120833CC06E
:104FA0008FE491E0FC01808186FB882780F98823CB
:104FB00099F181E491E0FC0180818F71893119F5CB
:104FC00082E491E0FC0180818295869587708A83D6
:104FD0008A81882311F41A820EC08A81833019F4E1
:104FE00081E08A8308C08A81853019F482E08A834F
:104FF00002C083E08A830E94922681E08093F70EAC
:105000008A810E9466228FE491E0FC012081206465
:10501000FC01208301C0000028960FB6F894DEBF83
:105020000FBECDBFDF91CF910895CF93DF93CDB762
:10503000DEB70E9453280E9404370E94F5230E9485
:10504000EC0E0000DF91CF910895CF93DF93CDB7A1
:10505000DEB70E945E270E94EA0F0E942529000009
:10506000DF91CF910895CF93DF931F92CDB7DEB735
:105070008FE590E0FC0180818983F89489810F900D
:10508000DF91CF910895CF93DF931F92CDB7DEB715
:1050900089838FE590E02981FC01208300000F9037
:1050A000DF91CF910895CF93DF93CDB7DEB7109204
:1050B000433A8DEB9AE20E9492500E94445080E164
:1050C00097E20E94DA4F10927A0F1092790F000047
:1050D000DF91CF910895CF93DF9300D0CDB7DEB7A6
:1050E0009A83898389819A810E94FA28982F81E086
:1050F0008927882321F089819A810E94E82900006C
:105100000F900F90DF91CF910895CF93DF9300D050
:1051100000D000D0CDB7DEB79E838D831A8219826E
:105120008091790F90917A0F9C838B8352C02B8151
:105130003C818D819E812817390709F03FC0898104
:105140009A81892B59F08B819C81FC0120813181CE
:1051500089819A81FC013183208309C08B819C81E4
:10516000FC018081918190937A0F8093790F8B81DC
:105170009C81FC0180819181892B89F18B819C81AB
:10518000FC01608171818B819C81FC018081918116
:10519000FC0122813381448155818D819E81FC01F6
:1051A00082819381A481B581820F931FA41FB51FB3
:1051B000FB0182839383A483B58311C08B819C817F
:1051C0009A8389838B819C81FC01808191819C835E
:1051D0008B838B819C81892B09F0A9CF01C00000B2
:1051E000000026960FB6F894DEBF0FBECDBFDF914C
:1051F000CF910895CF93DF9300D000D0CDB7DEB725
:105200009C838B838091790F90917A0F9A83898305
:1052100010C029813A818B819C812817390711F4AC
:1052200081E00CC089819A81FC01808191819A83FF
:10523000898389819A81892B61F780E00F900F9093
:105240000F900F90DF91CF910895EF92FF920F93FF
:105250001F93CF93DF93CDB7DEB728970FB6F8949F
:10526000DEBF0FBECDBF8091433A882309F4A2C0B0
:105270000E9433288D838091433A8E831092433A63
:105280008D810E9443288E81882F90E0A0E0B0E0BD
:10529000880F991FAA1FBB1F9C01AD01220F331F4E
:1052A000441F551F220F331F441F551F820F931F8A
:1052B000A41FB51F89839A83AB83BC833DC08091B3
:1052C000790F90917A0F98878F838091790F9091C1
:1052D0007A0FFC0182819381A481B58129813A8171
:1052E0004B815C8179018A01E81AF90A0A0B1B0BD0
:1052F000D801C70189839A83AB83BC838091790FDE
:1053000090917A0FFC018081918190937A0F809324
:10531000790F8F819885FC018285813021F48F81FE
:1053200098850E94E8298F819885FC012385348522
:105330008F819885F90109958091790F90917A0F65
:10534000892B99F08091790F90917A0FFC0122813D
:1053500033814481558189819A81AB81BC818217D7
:105360009307A407B50708F0AACF8091790F909111
:105370007A0F892B01F16091790F70917A0F8091EA
:10538000790F90917A0FFC012281338144815581FC
:1053900089819A81AB81BC8179018A01E81AF90A75
:1053A0000A0B1B0BD801C701FB0182839383A483E3
:1053B000B58301C0000028960FB6F894DEBF0FBE7B
:1053C000CDBFDF91CF911F910F91FF90EF90089586
:1053D000EF92FF920F931F93CF93DF93CDB7DEB77A
:1053E0002A970FB6F894DEBF0FBECDBF9A87898784
:1053F0008091790F90917A0F892B09F497C01A82C6
:10540000198289859A85FC0186819781A085B1855D
:105410008B839C83AD83BE838091790F90917A0FAB
:1054200098878F834DC08F819885FC0122813381BD
:10543000448155818B819C81AD81BE818217930708
:10544000A407B507D8F48F819885FC0122813381A8
:10545000448155818B819C81AD81BE8179018A0116
:10546000E81AF90A0A0B1B0BD801C7012F813885EE
:10547000F90182839383A483B58327C08F819885A4
:10548000FC0182819381A481B5812B813C814D8176
:105490005E8179018A01E81AF90A0A0B1B0BD8010F
:1054A000C7018B839C83AD83BE838F8198859A834C
:1054B00089838F819885FC018081918198878F8372
:1054C0008F819885892B09F0AECF29853A858B810C
:1054D0009C81AD81BE81F90182839383A483B583CE
:1054E00089819A81892B91F089819A81FC0120819F
:1054F000318189859A85FC013183208389819A8154
:1055000029853A85FC013183208329C02091790FB8
:1055100030917A0F89859A85FC01318320838985B2
:105520009A8590937A0F8093790F19C089859A850F
:10553000FC011182108289859A85FC018681978100
:10554000A085B18529853A85F90182839383A48357
:10555000B58389859A8590937A0F8093790F00009F
:105560002A960FB6F894DEBF0FBECDBFDF91CF9164
:105570001F910F91FF90EF900895CF93DF93CDB7D8
:10558000DEB78091433A8F5F8093433A80E197E2A0
:105590000E94DA4F0000DF91CF910895CF93DF93FF
:1055A0001F92CDB7DEB78FE590E0FC018081898343
:1055B000F89489810F90DF91CF910895CF93DF9375
:1055C0001F92CDB7DEB789838FE590E02981FC017A
:1055D000208300000F90DF91CF910895CF93DF9348
:1055E000CDB7DEB780E094E2A4EFB0E0BC01CD011E
:1055F000DF91CF910895CF93DF93CDB7DEB70E94AF
:10560000EE2ADC01CB01BC01CD01DF91CF910895E1
:10561000CF93DF9300D0CDB7DEB79A83898389819A
:105620009A81892B21F480E090E0DC01A3C089817C
:105630009A818837910529F40E94FB2ADC01CB016D
:1056400099C089819A81803C910529F40E94FB2AA6
:10565000DC01CB018FC089819A818C34910529F4BA
:105660000E94FB2ADC01CB0185C089819A818038A8
:10567000910529F40E94FB2ADC01CB017BC08981C2
:105680009A818434910529F40E94FB2ADC01CB0124
:1056900071C089819A81803B910529F40E94FB2A7F
:1056A000DC01CB0167C089819A81803C910529F496
:1056B0000E94FB2ADC01CB015DC089819A81883B75
:1056C000910529F40E94FB2ADC01CB0153C089819A
:1056D0009A818039910529F40E94FB2ADC01CB01D3
:1056E00049C089819A81803A910529F40E94FB2A58
:1056F000DC01CB013FC089819A818032914029F43D
:105700000E94FB2ADC01CB0135C089819A81833458
:10571000914029F40E94FB2ADC01CB012BC0898136
:105720009A818533914029F40E94FB2ADC01CB0148
:1057300021C089819A818433914029F40E94FB2AF7
:10574000DC01CB0117C089819A818333914029F410
:105750000E94FB2ADC01CB010DC089819A81823332
:10576000914029F40E94FB2ADC01CB0103C080E0B8
:1057700090E0DC01BC01CD010F900F90DF91CF9143
:105780000895CF93DF9300D01F92CDB7DEB79A83F1
:1057900089836B8389819A818038910559F481E8E6
:1057A00090E021E830E0F90130812B81232BFC01CE
:1057B00020832FC089819A818039910559F481E92C
:1057C00090E021E930E0F90130812B81232BFC01AD
:1057D00020831FC089819A81803A910559F481EA1A
:1057E00090E021EA30E0F90130812B81232BFC018C
:1057F00020830FC089819A818032914051F481E2E7
:1058000091E021E231E0F90130812B81232BFC0171
:10581000208300000F900F900F90DF91CF9108959B
:10582000CF93DF9300D0CDB7DEB79A838983898188
:105830009A818038910551F48FE690E02FE630E0B0
:10584000F90120812160FC0120832CC089819A818B
:105850008039910551F481E790E021E730E0F901CA
:1058600020812160FC0120831DC089819A81803ABA
:10587000910551F482E790E022E730E0F9012081C0
:105880002160FC0120830EC089819A818032914081
:1058900049F483E790E023E730E0F90120812160BB
:1058A000FC01208300000F900F90DF91CF910895AD
:1058B000CF93DF9300D0CDB7DEB79A8389838981F8
:1058C0009A818038910551F48FE690E02FE630E020
:1058D000F90120812260FC0120832CC089819A81FA
:1058E0008039910551F481E790E021E730E0F9013A
:1058F00020812260FC0120831DC089819A81803A29
:10590000910551F482E790E022E730E0F90120812F
:105910002260FC0120830EC089819A8180329140EF
:1059200049F483E790E023E730E0F9012081226029
:10593000FC01208300000F900F90DF91CF9108951C
:10594000CF93DF9300D0CDB7DEB79A838983898167
:105950009A818038910551F48FE690E02FE630E08F
:10596000F90120812D7FFC0120832CC089819A813F
:105970008039910551F481E790E021E730E0F901A9
:1059800020812D7FFC0120831DC089819A81803A6E
:10599000910551F482E790E022E730E0F90120819F
:1059A0002D7FFC0120830EC089819A818032914035
:1059B00049F483E790E023E730E0F90120812D7F6F
:1059C000FC01208300000F900F90DF91CF9108958C
:1059D000CF93DF93CDB7DEB727970FB6F894DEBF2E
:1059E0000FBECDBF9C838B836D835F834E838B8182
:1059F0009C819A8389838D81882F90E001962981EB
:105A00003A81820F931F2D81222F30E02F5F3F4F6D
:105A100049815A81240F351FF90140812E813F8130
:105A2000232F3327242BFC0120838D81882F90E0A6
:105A300029813A81820F931F2D81222F30E04981E5
:105A40005A81240F351FF90130812E81232BFC014F
:105A50002083000027960FB6F894DEBF0FBECDBF9F
:105A6000DF91CF910895CF93DF9300D0CDB7DEB70C
:105A70009A83898389819A818038910551F486E3DC
:105A800090E026E330E0F90120812160FC012083D1
:105A90002CC089819A818039910551F488E390E086
:105AA00028E330E0F90120812160FC0120831DC042
:105AB00089819A81803A910551F489E390E029E344
:105AC00030E0F90120812160FC0120830EC0898132
:105AD0009A818032914049F48AE390E02AE330E0F1
