:100000000C9487010C94A6010C94A6010C94A601F3
:100010000C94A6010C94A6010C94A6010C94A601C4
:100020000C94A6010C94A6010C94A6010C94A601B4
:100030000C94E43C0C94A6010C94A6010C94A6012B
:100040000C94A6010C944C2C0C94892C0C94C62C6A
:100050000C940F2C0C94A6010C94A6010C94A601F0
:100060000C94A6010C94E0400C94A6010C94A601FB
:100070000C94A6010C94A6010C94A6010C94A60164
:100080000C94402D0C947D2D0C94BA2D0C94032DC2
:100090000C94A6010C94A6010C94A6010C94A60144
:1000A0000C94A6010C94A6010C94342E0C94712E81
:1000B0000C94AE2E0C94F72D0C94A6010C94282FC2
:1000C0000C94652F0C94A22F0C94EB2E0C94A6018B
:1000D0000C94A6010C94A6010C94A6010C94A60104
:1000E0000C94A6010C94A6010C94A6010C94A601F4
:1000F0000C94A6010C94A6010C94A6010C94A601E4
:100100000C94A6010C94F5330C9432340C946F3497
:100110000C94B8330C94AC340C94A6010C94A60146
:10012000F908D707E2072408370844086A0857087F
:100130009908B1080109BA08FE18251903192519EB
:1001400008190D191219171920191C196E616E0062
:10015000696E660000407A10F35A00A0724E1809CA
:100160000010A5D4E80000E87648170000E40B541E
:10017000020000CA9A3B000000E1F50500008096ED
:100180009800000040420F000000A086010000001F
:10019000102700000000E8030000000064000000D9
:1001A00000000A00000000000100000000002C76A2
:1001B000D888DC674F0823DFC1DFAE59E1B1B796BD
:1001C000E5E3E453C63AE651997696E8E6C284261A
:1001D000EB898C9B62ED407C6FFCEFBC9C9F40F2F6
:1001E000BAA56FA5F490055A2AF75C936B6CF96772
:1001F0006DC11BFCE0E40D47FEF520E6B500D0ED37
:10020000902E0300943577050080841E080000209E
:100210004E0A000000C80C333333330F986E12833C
:100220001141EF8D2114893BE65516CFFEE6DB1810
:10023000D1844B381BF77C1D901DA4BBE4242032D5
:1002400084725E228100C9F124ECA1E53D273300D0
:1002500019000C000600030002000100FF00A001CD
:10026000CF006700330019000C00070008004003AE
:10027000A001CF0067003300190010001000330008
:1002800019000C000600030002000100FF00A0019D
:10029000CF006700330019000C000700080040037E
:1002A000A001CF00670033001900100010003300D8
:1002B00019000C000600030002000100FF00A0016D
:1002C000CF006700330019000C000700080040034E
:1002D000A001CF00670033001900100010003300A8
:1002E00019000C000600030002000100FF00A0013D
:1002F000CF006700330019000C000700080040031E
:10030000A001CF0067003300190010001000112475
:100310001FBECFEFD1E4DEBFCDBF12E0A0E0B2E060
:10032000E2E3FCEA00E00BBF02C007900D92AE3B97
:10033000B107D9F723E2AEEBB2E001C01D92AD39AF
:10034000B207E1F70E9407090C946B540C9400006B
:10035000CF93DF93CDB7DEB780E094E2A4EFB0E0B7
:10036000BC01CD01DF91CF910895CF93DF93CDB73D
:10037000DEB70E94A801DC01CB01BC01CD01DF91F9
:10038000CF910895CF93DF9300D0CDB7DEB79A8396
:10039000898389819A81FC018081282F226089814B
:1003A0009A81FC01208300000F900F90DF91CF9184
:1003B0000895CF93DF93CDB7DEB72B970FB6F894A0
:1003C000DEBF0FBECDBF998788877B876A878A8506
:1003D0009B85FC0184818D838A859B85FC018581B9
:1003E0008E838A859B85FC0186818F838A859B8588
:1003F000FC0180819181A281B38189839A83AB833F
:10040000BC83888599859E012F5F3F4FB9010E946B
:100410003C38882311F081E001C080E02B960FB6B4
:10042000F894DEBF0FBECDBFDF91CF910895CF937B
:10043000DF9300D01F92CDB7DEB79A8389836B8399
:1004400089819A816B810E944A3A0F900F900F9098
:10045000DF91CF910895CF93DF9300D000D0CDB737
:10046000DEB79A8389837C836B8389819A810E941A
:10047000693A282F8B819C81FC01208300000F901A
:100480000F900F900F90DF91CF910895CF93DF934E
:1004900000D000D0CDB7DEB79A8389837C836B838D
:1004A00089819A81909391238093902387E192E0B0
:1004B00090938F2380938E238BE292E090938D23F1
:1004C00080938C232B813C8189819A81B9010E9480
:1004D000D9016CE17FE38BE39FE30E941E53000090
:1004E0000F900F900F900F90DF91CF910895CF93C1
:1004F000DF93CDB7DEB78CED90E02CED30E0F90165
:1005000020812064FC0120838CED90E02CED30E014
:10051000F9012081277FFC0120830000DF91CF912A
:100520000895CF93DF93CDB7DEB78091D30290913A
:10053000D402892BC1F08091D3029091D402292F4B
:100540002F938F9381E292E0892F8F9381E292E043
:100550008F930E94A5530F900F900F900F908AECED
:1005600092E00E945C0A0000DF91CF910895CF9342
:10057000DF9300D0CDB7DEB79A83898382E0809382
:10058000C90200000F900F90DF91CF910895CF9393
:10059000DF93CDB7DEB70E94770282E08093C90275
:1005A0000000DF91CF910895CF93DF93CDB7DEB7F1
:1005B0000E94770283E08093C9020000DF91CF910F
:1005C0000895CF93DF93CDB7DEB78091D30290919A
:1005D000D4028115904419F482E08093C90200008E
:1005E000DF91CF910895CF93DF93CDB7DEB783E04E
:1005F0008093C9028AE080930A020000DF91CF91C4
:100600000895CF93DF93CDB7DEB78091D302909159
:10061000D402892B59F082E392E0892F8F9382E3F1
:1006200092E08F930E94A5530F900F9083E00E9459
:10063000AE350000DF91CF910895CF93DF9300D0C6
:1006400000D01F92CDB7DEB78D838D8186958695BC
:100650008695882F90E09A8389838D81882F90E0FA
:100660008770992728E030E0A901481B590BCA017F
:100670009C838B8389819A81855A9E4EFC0180815F
:10068000882F90E00B8002C0959587950A94E2F739
:1006900081709927892BA9F08D81882F90E0292FCF
:1006A0002F938F9383E492E0892F8F9383E492E0DA
:1006B0008F930E94A5530F900F900F900F9080E0A2
:1006C00023C081E090E00B8002C0880F991F0A943C
:1006D000E2F7282F89819A81855A9E4EFC0120835A
:1006E00089819A819C012F5F3F4F8091E102909117
:1006F000E202821793073CF489819A8101969093D4
:10070000E2028093E10281E00F900F900F900F9032
:100710000F90DF91CF910895CF93DF9300D000D059
:100720001F92CDB7DEB79D838C83198203C0898168
:100730008F5F89838981882F90E0880F991F9C01A2
:10074000220F331F220F331F220F331F820F931FDD
:100750008F579E4EFC0180819181892B41F78091BA
:10076000F6029091F70201969093F7028093F602B9
:100770008C819D81FC0184818F77282F30E08091CE
:1007800010028F77882F90E08217930764F48C8192
:100790009D81FC0184818F778F77909110029078F2
:1007A000892B809310028981282F30E08C819D81D4
:1007B000FC0184818F77482FC901880F991F9C0104
:1007C000220F331F220F331F220F331F820F931F5D
:1007D0008D579E4EFC0140838981482F50E08C81CB
:1007E0009D81FC018381282F30E0CA01880F991F69
:1007F000AC01440F551F440F551F440F551F840F64
:10080000951F8F579E4EFC01318320838981882F4D
:1008100090E0880F991F9C01220F331F220F331F76
:10082000220F331F820F931F80589E4E2981FC0197
:1008300020838091DF029091E002892B61F184E0B6
:1008400090E00E94A5509B838A838981882F90E045
:10085000880F991F9C01220F331F220F331F220F75
:10086000331F820F931F9C0120583E4E8A819B812B
:10087000FC01318320832091DF023091E0028A81E4
:100880009B81FC01338322838A819B819093E002C8
:100890008093DF0226C084E090E00E94A5509093F0
:1008A000E0028093DF022091DF023091E002898133
:1008B000882F90E0880F991FAC01440F551F440FFB
:1008C000551F440F551F840F951F80589E4EF901E8
:1008D000918380838091DF029091E002FC0113827A
:1008E000128200000F900F900F900F900F90DF91E9
:1008F000CF910895CF93DF9300D0CDB7DEB780912D
:10090000DF029091E002FC0180819181FC018081F5
:1009100080930E028091DF029091E002FC018081C1
:100920009181FC018181928180930F028091DF028D
:100930009091E0029A8389838091DF029091E00296
:10094000FC01828193819093E0028093DF02898190
:100950009A81FC011182108289819A81FC011382A3
:10096000128289819A810E943D5100000F900F9060
:10097000DF91CF910895CF93DF9300D000D000D0C6
:10098000CDB7DEB79E838D838D819E81FC018085EE
:100990009185FC0180818D3021F58D819E81FC0146
:1009A000808591859C838B838B819C81FC018181D7
:1009B0000E941D038B819C81FC018181882F90E026
:1009C000292F2F938F9380E592E0892F8F9380E5D5
:1009D00092E08F930E94A5530F900F900F900F906D
:1009E0002DC08D819E81FC0180859185FC018081D7
:1009F0008E3011F58D819E81FC01808591859A83D1
:100A0000898389819A810E948C0389819A81FC0162
:100A10008381882F90E0292F2F938F938BE592E08D
:100A2000892F8F938BE592E08F930E94A5530F90AF
:100A30000F900F900F9002C080E001C081E02696D9
:100A40000FB6F894DEBF0FBECDBFDF91CF910895F2
:100A5000CF93DF9300D000D000D0CDB7DEB79E8318
:100A60008D838091F802882F90E002979C838B837E
:100A70008AE090E00E94B9531A82198222C08D81C7
:100A80009E81FC012085318589819A81820F931F87
:100A9000FC018081882F90E0292F2F938F9384E68B
:100AA00092E0892F8F9384E692E08F930E94A55362
:100AB0000F900F900F900F9089819A8101969A83E1
:100AC00089838D819E81FC018285282F30E0898178
:100AD0009A81821793079CF2000026960FB6F8942D
:100AE000DEBF0FBECDBFDF91CF910895CF93DF93CF
:100AF000CDB7DEB71092D0021092CF021092D10281
:100B00001092D20280E090E49093D4028093D302BA
:100B10008AE591E19093D8028093D7028091E10217
:100B20009091E2028F5F8093D9020000DF91CF9114
:100B30000895CF93DF9300D000D0CDB7DEB71092E9
:100B4000D0021092CF021092D1021092D20280E411
:100B500094E09093D4028093D3021092D802109222
:100B6000D7021092D9021A8219820BC089819A8108
:100B7000855A9E4EFC01108289819A8101969A8342
:100B8000898389819A8180978CF31C821B8217C08C
:100B90008B819C81880F991F9C01220F331F220F8C
:100BA000331F220F331F820F931F8F579E4EFC015E
:100BB000118210828B819C8101969C838B838B8117
:100BC0009C818F3F910524F382E090E09093F7029F
:100BD0008093F6021092E2021092E1021092FA0261
:100BE0001092F90210927B1100000F900F900F905D
:100BF0000F90DF91CF910895CF93DF9300D0CDB7C1
:100C0000DEB71A8219820BC089819A81855A9E4E5D
:100C1000FC01108289819A8101969A838983898156
:100C20009A8180978CF31092E2021092E102109266
:100C3000D0021092CF021092D1021092D20280E420
:100C400091E09093D4028093D3021092D802109234
:100C5000D7021092D90280911102882309F0A0C016
:100C60008FE780937B1180917B11882F90E0039612
:100C7000880F991F092E000CAA0BBB0BBC01CD01DC
:100C80000E945E4FDC01CB0120E030E040E451E403
:100C9000BC01CD010E944F4EDC01CB0120E030E0D1
:100CA00040E252E4BC01CD010E944F4EDC01CB0179
:100CB00020E034E244E757E4BC01CD010E94BB4E82
:100CC000DC01CB0180937C1190937D11A0937E1168
:100CD000B0937F1180917C1190917D11A0917E1134
:100CE000B0917F1120E030E040E850E4BC01CD013C
:100CF0000E94EA4FDC01CB012DEB37E346E857E3D6
:100D0000BC01CD010E94BB4EDC01CB018093E3020C
:100D10009093E402A093E502B093E60287EC92E0A0
:100D20000E94C0360E94770281E00E94393580918E
:100D3000E3029091E402A091E502B091E602BC01C9
:100D4000CD010E942D4FDC01CB0121E0AC01BD01A2
:100D500081E00E94ED3581E093E00E94D33682E08D
:100D60000E9439358091E3029091E402A091E5025E
:100D7000B091E60220E030E040E050E4BC01CD015B
:100D80000E94BB4EDC01CB01BC01CD010E942D4F66
:100D9000DC01CB0122E0AC01BD0181E00E94ED3518
:100DA00000000F900F90DF91CF910895EF92FF9286
:100DB0000F931F93CF93DF93CDB7DEB71092F80256
:100DC0008EEE93E9A3EABBE380937C1190937D11AF
:100DD000A0937E11B0937F118FE780937B111092C7
:100DE000D0021092CF021092D1021092D20280EC67
:100DF00090E09093D4028093D3021092D802109284
:100E0000D7021092D9028091F6029091F7020296D1
:100E1000092E000CAA0BBB0BBC01CD010E945E4F3A
:100E20007B018C0180917C1190917D11A0917E11AC
:100E3000B0917F119C01AD01C801B7010E94EA4F3A
:100E4000DC01CB012DEB37E346E857E3BC01CD01D4
:100E50000E94BB4EDC01CB018093E3029093E4023D
:100E6000A093E502B093E60284ED92E00E94C036C2
:100E70000E94770281E00E94393580917C11909127
:100E80007D11A0917E11B0917F112DEB37E346E8E3
:100E900057E3BC01CD010E94BB4EDC01CB01BC017C
:100EA000CD010E942D4FDC01CB0121E0AC01BD0141
:100EB00081E00E94ED3568E275E081E00E94A509BD
:100EC0000000DF91CF911F910F91FF90EF90089557
:100ED000CF93DF93CDB7DEB780E090E00E94770933
:100EE0008FE00E94461F81E00E94361F82E090E062
:100EF000A0E0B0E08093EF029093F002A093F102A3
:100F0000B093F2021092F30287EB92E09093F50215
:100F10008093F4028EEF9AEC0E948E098EEF8093FC
:100F2000DE028EEF80935A1181E00E94851E6BEBEA
:100F300074E083E00E94A50981E00E94C01E0000C9
:100F4000DF91CF910895CF93DF93CDB7DEB7809136
:100F5000C902882F90E08230910561F083309105BD
:100F600079F0892B09F04FC10E94680783E08093D4
:100F7000C90249C10E94910283E08093C90243C122
:100F800080910A02882F90E0092E000CAA0BBB0B5F
:100F900040E050E02BE030E0841B950B2817390728
:100FA00008F430C180579F4FFC010C948D500E9473
:100FB000990582E080930A0282E08093C902109230
:100FC000110220C18091F9029091FA020C9721F050
:100FD00080911102823078F12091F9023091FA0269
:100FE00080911102882F90E0432F4F932F93292F48
:100FF0002F938F938AE692E0892F8F938AE692E06F
:101000008F930E94A5530F900F900F900F900F9009
:101010000F901092FA021092F90282E00E94AE350F
:101020001092D4021092D30281E08093C90289E029
:1010300080930A02E7C00E94FC0581E08093C90208
:1010400083E080930A02DEC080E499E09093D402AA
:101050008093D3021092D8021092D7021092D90234
:1010600084E08093C90284E080930A02CBC00E948E
:10107000760589EE92E00E947C2285E080930A0248
:1010800081E08093C902BEC080E492E09093D402D4
:101090008093D3021092D8021092D7021092D902F4
:1010A00081E08093C90287E080930A02ABC080E4AC
:1010B0009AE09093D4028093D3021092D8021092B7
:1010C000D7021092D90281E08093C90286E0809312
:1010D0000A0298C08091DF029091E002892B29F1E9
:1010E0000E947A0480E090E89093D4028093D30227
:1010F0008BE092E09093D8028093D70286E08093B1
:10110000D90281E08093C90286E080930A0280912F
:10111000F9029091FA0201969093FA028093F902F3
:1011200089EE92E00E947C226DC088E080930A02E2
:1011300069C080E492E19093D4028093D30210922C
:10114000D8021092D7021092D90281E08093C9028E
:1011500082E080930A02809111028F5F80931102D6
:1011600051C00E94D60682E08093C9028BE0809332
:101170000A0248C08091F802282F30E08091F602E0
:101180009091F70228173907BCF082E792E0892F87
:101190008F9382E792E08F930E94A5530F900F9058
:1011A00081E00E94AE3582E00E94AE3581E08093FE
:1011B000C90210920A0226C08091F802882F90E09E
:1011C000292F2F938F9385E892E0892F8F9385E8BD
:1011D00092E08F930E94A5530F900F900F900F9065
:1011E00081E08093C9028091F8028F5F8093F802BA
:1011F00009C01092D4021092D30281E08093C902F8
:1012000001C0000000000000DF91CF9108950F930E
:101210001F93CF93DF93CDB7DEB727970FB6F89420
:10122000DEBF0FBECDBF0E94033E0E9438410E9428
:1012300026220E946633789427E0EFE9F2E0CE019F
:101240000196DC0101900D922A95E1F7CE010196FD
:10125000BC0180EC90E00E94460280EC90E00E948D
:10126000C2010E94B501DC01CB018C019D0140E06F
:1012700052EC61E070E080EC90E00E94E53A0E9460
:1012800036220E94A307FBCFCF93DF931F92CDB7E7
:10129000DEB7109260231092612310925D231092AA
:1012A0005C23109283231092822319820EC08981BD
:1012B000882F90E00396880F991F845A9C4DFC015B
:1012C0001182108289818F5F89838981803178F3CF
:1012D0000E9436190E94E1100E947F0E0E94500A5F
:1012E0000E941B1000000F90DF91CF910895CF93C3
:1012F000DF9300D0CDB7DEB79A83898389819A8145
:1013000090935D2380935C2389819A810E94801F42
:1013100000000F900F90DF91CF910895CF93DF934E
:1013200000D0CDB7DEB79A83898389819A81909363
:101330005F2380935E2389819A810E945C1F000055
:101340000F900F90DF91CF910895CF93DF9300D04E
:101350001F92CDB7DEB789837B836A838981882F0B
:1013600090E00396880F991F845A9C4D2A813B81F7
:10137000FC013183208300000F900F900F90DF91CC
:10138000CF910895CF93DF93CDB7DEB780918223BD
:101390009091832321E0892B09F420E0822FDF91B3
:1013A000CF910895CF93DF93CDB7DEB7809182239D
:1013B000909183230196909383238093822300004E
:1013C000DF91CF910895CF93DF93CDB7DEB78091B2
:1013D0008223909183230197909383238093822388
:1013E0000000DF91CF910895CF93DF93CDB7DEB7A3
:1013F0000E94C91F0000DF91CF910895CF93DF9322
:10140000CDB7DEB70E94E21F0000DF91CF910895B3
:10141000CF93DF93CDB7DEB72C970FB6F894DEBF2E
:101420000FBECDBF8C8789E0E6EAF2E0DE011396BD
:1014300001900D928A95E1F789E189831A8215C09E
:101440009C858981981758F48A81882F90E09E01A5
:101450002D5F3F4F820F931FFC0180810AC089815D
:10146000875E89838A818F5F8A838A81893040F38E
:101470008FEF2C960FB6F894DEBF0FBECDBFDF9175
:10148000CF910895CF93DF93CDB7DEB70E94DE18DA
:101490000E94F51C0E94490E0000DF91CF91089533
:1014A000CF93DF93CDB7DEB7109200031092FF0207
:1014B0000000DF91CF910895CF93DF9300D0CDB797
:1014C000DEB79A83898389819A81FC01148289819C
:1014D0009A81FC01128A89819A81FC01138212820D
:1014E000809182239091832301969093832380930C
:1014F00082238091FF0290910003892B61F48981FE
:101500009A81FC011182108289819A819093000353
:101510008093FF020FC02091FF0230910003898168
:101520009A81FC013183208389819A819093000301
:101530008093FF0200000F900F90DF91CF910895EC
:10154000CF93DF93CDB7DEB728970FB6F894DEBF01
:101550000FBECDBF98878F838F819885FC018185D1
:1015600092858034910598F40E949E0E9A83898317
:1015700089819A81892B61F58F81988522E0FC0110
:1015800024838F81988522E0FC01228BCCC28F813D
:101590009885FC018185928580749927892B21F09B
:1015A00081E00E94100F03C080E00E94100F9A8318
:1015B000898389819A81892B59F48F81988522E0CA
:1015C000FC0124838F81988522E0FC01228BABC231
:1015D0008F819885FC018185928580749927892B5C
:1015E00009F497C089819A818A579F4FFC01108224
:1015F0008F819885FC018185928580789927892B38
:1016000041F089819A81FC012581287FFC01258395
:1016100034C08F819885FC018185928588279170DF
:10162000892B49F089819A81FC012581287F2460DA
:10163000FC01258322C08F819885FC0181859285DC
:1016400088279270892B49F089819A81FC01258134
:10165000287F2660FC01258310C08F819885FC01BE
:101660008185928588279470892B39F089819A81A8
:10167000FC0125812760FC01258389819A81FC0179
:101680002581277FFC01258389819A81FC012581A1
:101690002F7EFC01258389819A81FC0125812F7190
:1016A0002064FC0125838F819885FC0181859285CA
:1016B00088279870892B31F089819A8121E0FC017B
:1016C000278313C08F819885FC01818592858827A7
:1016D0009071892B31F089819A8122E0FC01278366
:1016E00004C089819A81FC01178220917B11898134
:1016F0009A81FC0120878EEF9AEC9C838B838981F1
:101700009A812EEFFC01268389819A810E94B51966
:10171000F5C18F819885FC0181859285992394F08C
:101720008F819885FC018185928588279072892B0D
:1017300049F48F819885FC01818592858827907472
:10174000892B99F18F819885FC01218532858981CA
:101750009A81B9010E94081A89819A818A579F4FFC
:10176000FC0110828F819885FC018785482F50E00D
:101770008F819885FC012585368589819A818F57CF
:101780009F4FFC0180819181B9010E94035389819F
:101790009A81FC0121818F819885FC018785280F22
:1017A00089819A81FC012183A9C18F819885FC01DF
:1017B0008185928580729927892B09F462C089817D
:1017C0009A818A579F4FFC01108289819A81FC017E
:1017D0002185207F2860FC01218789819A81FC0175
:1017E00021852F702066FC01218789819A81FC0167
:1017F0002285207F2160FC01228789819A81FC015A
:1018000022852061FC01228789819A81FC01228541
:101810002064FC01228789819A81FC0122852F772F
:10182000FC01228789819A81FC01138689819A8132
:10183000FC0114868F819885FC018785482F50E034
:101840008F819885FC012585368589819A818F57FE
:101850009F4FFC0180819181B9010E9403538981CE
:101860009A81FC0121818F819885FC018785280F51
:1018700089819A81FC01218389819A810E946A1958
:101880003DC18F819885FC0181859285892B09F462
:1018900035C18F819885FC01818592858470992757
:1018A00021E0892B09F420E089819A818A579F4F92
:1018B000FC0120838F819885FC0181859285817050
:1018C000992721E0892B09F420E089819A812170F0
:1018D000FC0133853E7F232BFC0123878F81988574
:1018E000FC01818592858870992721E0892B09F474
:1018F00020E089819A812170220F220FFC0133851B
:101900003B7F232BFC0123878F819885FC018185F8
:1019100092858072992721E0892B09F420E0898142
:101920009A8121702295207FFC0133853F7E232BF5
:10193000FC0123878F819885FC01818592858071C8
:10194000992721E0892B09F420E089819A8121706F
:10195000220F220F220FFC013385377F232BFC013E
:10196000238789819A81FC0183858870882309F403
:1019700062C089819A818F579F4FFC01808191813C
:101980009E838D838F819885FC018385282F2F70FE
:101990008D819E812F70FC013181307F232BFC01D2
:1019A00021838F819885FC018385282F2F708D815D
:1019B0009E812295207FFC0131813F70232BFC0109
:1019C00021838F819885FC018485282F2F708D813C
:1019D0009E812F70FC013081307F232BFC012083FE
:1019E0008F819885FC018485282F2F708D819E81A1
:1019F0002295207FFC0130813F70232BFC01208346
:101A000089819A818F579F4FFC01808191819C0130
:101A10002E5F3F4F89819A818F579F4FFC01318301
:101A2000208389819A81FC01818122E0280F8981AC
:101A30009A81FC012183809160238F5F80936023D2
:101A40002091602389819A81FC01248720915C2365
:101A500030915D2389819A81FC01368725878F81AA
:101A60009885FC012581368189819A81FC01308B22
:101A700027878F819885FC018085282F2F70898189
:101A80009A812F70FC013189307F232BFC01218B3F
:101A90008F819885FC018781282F2F7089819A81F9
:101AA0002295207FFC0131893F70232BFC01218B83
:101AB0008F819885FC018785482F50E08F8198851C
:101AC000FC012585368589819A818F579F4FFC01BE
:101AD00080819181B9010E94035389819A81FC011F
:101AE00021818F819885FC018785280F89819A81C2
:101AF000FC01218389819A810E947C1A8F819885BB
:101B000029813A81FC01338322838F81988521E0EA
:101B1000FC01248389819A8189579F4F2CE93DE0FC
:101B2000FC013183208328960FB6F894DEBF0FBEE8
:101B3000CDBFDF91CF910895CF93DF9300D000D038
:101B4000CDB7DEB79C838B838091FF029091000319
:101B50009A8389832BC089819A81FC0122813381F8
:101B60008B819C8128173907D1F48B819C818D57FB
:101B70009F4FFC01208189819A81FC01228B8B81FE
:101B80009C818A579F4FFC01208189819A81FC01A9
:101B9000238B89819A8122E0FC0124830BC08981F7
:101BA0009A81FC01808191819A83898389819A81BC
:101BB000892B89F68B819C810E94A80F00000F90D1
:101BC0000F900F900F90DF91CF910895CF93DF93F7
:101BD00000D000D0CDB7DEB79C838B832091FF026D
:101BE000309100038B819C812817390761F4809123
:101BF000FF0290910003FC0180819181909300038A
:101C00008093FF0225C08091FF02909100039A8388
:101C1000898307C089819A81FC01808191819A839F
:101C2000898389819A81FC01208131818B819C810A
:101C30002817390779F789819A81FC018081918180
:101C4000FC012081318189819A81FC0131832083CB
:101C50008091822390918323019790938323809393
:101C600082238B819C81FC0180899189892B49F099
:101C70008B819C81FC01208931898B819C81F901B8
:101C8000099500000F900F900F900F90DF91CF916A
:101C90000895CF93DF9300D0CDB7DEB78091FF02D8
:101CA000909100039A83898321C089819A81FC01E4
:101CB0008481882F90E08130910581F082309105F8
:101CC00041F0892B09F00BC089819A810E94A00AFA
:101CD00011C089819A810E94E60D0CC000008981A3
:101CE0009A81FC01808191819A83898389819A817B
:101CF000892BD9F60F900F90DF91CF910895CF9354
:101D0000DF931F92CDB7DEB7198210C08981282FCB
:101D100030E049E8429FC001439F900D11248F5F3E
:101D20009C4FFC01108289818F5F89838981843176
:101D300068F300000F90DF91CF910895CF93DF9368
:101D40001F92CDB7DEB7198261C08981282F30E09C
:101D500049E8429FC001439F900D11248F5F9C4F23
:101D6000FC018081882309F04EC08981282F30E052
:101D700049E8429FC001439F900D11248F5F9C4F03
:101D800049E850E060E070E00E940C538981282F00
:101D900030E049E8429FC001439F900D11248E5FBF
:101DA0009C4FFC0110828981482F50E08981282FA7
:101DB00030E069E8629FC001639F900D1124029694
:101DC0009C012F5F3C4F69E8649FC001659F900DA7
:101DD00011248E579C4FFC013183208380918223F4
:101DE000909183230196909383238093822389810A
:101DF000282F30E049E8429FC001439F900D1124F5
:101E00008F5F9C4F09C089818F5F8983898184316D
:101E100008F49BCF80E090E00F90DF91CF91089580
:101E2000CF93DF9300D0CDB7DEB78A83198285C008
:101E30008981282F30E049E8429FC001439F900DDF
:101E400011248F5F9C4FFC018081882309F072C0B0
:101E50008981282F30E049E8429FC001439F900DBF
:101E600011248F5F9C4F49E850E060E070E00E94D1
:101E70000C538A81882379F08981282F30E049E842
:101E8000429FC001439F900D11248E5F9C4F27E01D
:101E9000FC0120830EC08981282F30E049E8429F51
:101EA000C001439F900D11248E5F9C4F23E0FC01E5
:101EB00020838981482F50E08981282F30E069E80C
:101EC000629FC001639F900D112402969C012F5FB9
:101ED0003C4F8981682F70E0E9E8E69FC001E79FE9
:101EE000900D11248E5F9C4FFC018081882F90E023
:101EF000280F391F69E8649FC001659F900D112468
:101F00008E579C4FFC0131832083809182239091D6
:101F10008323019690938323809382238981282FA2
:101F200030E049E8429FC001439F900D11248F5F2C
:101F30009C4F09C089818F5F89838981843108F42E
:101F400077CF80E090E00F900F90DF91CF910895D0
:101F5000CF93DF9300D0CDB7DEB79A838983898191
:101F60009A81FC01108280918223909183230197B2
:101F7000909383238093822300000F900F90DF9132
:101F8000CF910895CF93DF9300D0CDB7DEB79A837A
:101F9000898389819A81892B29F481E093E09A834E
:101FA000898316C089819A8187579F4F9A83898335
:101FB0000FC089819A81FC018081882319F0898171
:101FC0009A810DC089819A8187579F4F9A8389830F
:101FD00089819A81855B9D4060F380E090E00F905D
:101FE0000F90DF91CF910895CF93DF9300D0CDB7BD
:101FF000DEB79A83898389819A818D579F4FFC012F
:102000001082809160238F5F8093602320916023F2
:1020100089819A81FC01248720915C2330915D2382
:1020200089819A81FC013687258700000F900F90E7
:10203000DF91CF910895CF93DF931F92CDB7DEB795
:1020400019820FC08981882F90E0880F991F8B54C7
:10205000924F2FEF3FEFFC013183208389818F5F07
:1020600089838981833070F300000F90DF91CF91D5
:102070000895CF93DF9300D0CDB7DEB79A838983DD
:1020800089819A81BC018FEF9FEF0E9486100F908B
:102090000F90DF91CF910895CF93DF9300D0CDB70C
:1020A000DEB79A83898389819A816FEF7FEF0E94DF
:1020B00086100F900F90DF91CF910895CF93DF930B
:1020C00000D01F92CDB7DEB79B838A83198214C0DC
:1020D0008981882F90E0880F991F8B54924FFC01C3
:1020E000208131818A819B812817390711F481E091
:1020F00007C089818F5F89838981833048F380E0BD
:102100000F900F900F90DF91CF910895CF93DF93B1
:1021100000D000D01F92CDB7DEB79B838A837D832A
:102120006C83198220C08981882F90E0880F991FC5
:102130008B54924FFC01208131818A819B81281729
:10214000390771F48981882F90E0880F991F8B548B
:10215000924F2C813D81FC013183208381E007C0B7
:1021600089818F5F898389818330E8F280E00F90D5
:102170000F900F900F900F90DF91CF910895CF9314
:10218000DF9300D0CDB7DEB79A83898389819A81A6
:10219000FC01418189819A818F579F4FFC01808189
:1021A00091819C0189819A810296B901681B790B02
:1021B000CB01742F781B872F0F900F90DF91CF9159
:1021C0000895CF93DF931F92CDB7DEB7198211C068
:1021D0008981282F30E0C901880F991F880F991F26
:1021E000820F931F8154924FFC01108289818F5F6F
:1021F00089838981823360F384E690E0A0E0B0E0D7
:102200008093BC0E9093BD0EA093BE0EB093BF0EF4
:102210001092C00E89E193E19093C20E8093C10E9B
:102220006AE374E180E00E94A50900000F90DF914D
:10223000CF910895CF93DF9300D000D000D0CDB7D9
:10224000DEB79E838D838D819E81FC01808191818B
:10225000FC0180818C3041F48D819E81FC01828162
:10226000873008F064C047C18D819E81FC01808168
:102270009181FC0180818C3C91F08D819E81FC01DB
:1022800080819181FC0180818C3849F08D819E8113
:10229000FC0180819181FC0180818C3441F48D812D
:1022A0009E81FC018281833008F041C024C18D8170
:1022B0009E81FC01808191810196FC01808188389A
:1022C000D1F48D819E81FC0180819181FC0180810E
:1022D000813651F08D819E81FC0180819181FC01CC
:1022E0008081813409F0FCC08D819E81FC01828156
:1022F0008031E8F4F5C08D819E81FC01808191815F
:102300000196FC018081803809F0ECC08D819E81AE
:10231000FC0180819181FC018081882309F0E4C067
:102320008D819E81FC0182818B3008F4DDC08D811E
:102330009E81FC01808191810196FC018081883819
:1023400051F08D819E81FC01808191810196FC017B
:1023500080818038D9F40E949E0E9A838983898176
:102360009A81892B09F4C2C08D819E81FC018081F4
:1023700091810196FC018081883811F420E201C02E
:1023800025E289819A81FC0120837CC08D819E8118
:10239000FC0180819181FC0180818C3081F481E09D
:1023A0000E94100F9A83898389819A81892B09F46D
:1023B0009FC089819A8126E2FC01208363C080E06E
:1023C0000E94100F9A83898389819A81892B09F44D
:1023D00091C08D819E81FC0180819181FC01808171
:1023E0008C3831F489819A8128E2FC0120834AC02B
:1023F0008D819E81FC0180819181FC0180818C3CDA
:1024000031F489819A8127E2FC0120833BC01C8240
:102410001B8228C08D819E81FC01208131818B81AE
:102420009C81820F931FFC018081882F90E0292FCF
:102430002F938F938C818F938B818F938FEA92E070
:10244000892F8F938FEA92E08F930E94A5530F906C
:102450000F900F900F900F900F908B819C810196A1
:102460009C838B838D819E81FC018281282F30E0AB
:102470008B819C81821793076CF289819A8129E272
:10248000FC0120838D819E81FC01228189819A81BA
:10249000FC0121838D819E81FC01238189819A81A8
:1024A0008D579F4FFC0120838D819E81FC012481EB
:1024B00089819A818C579F4FFC0120838D819E8159
:1024C000FC018281482F50E08D819E81FC0120819A
:1024D000318189819A810296B9010E9403530BC010
:1024E000000009C0000007C0000005C0000003C0D4
:1024F000000001C0000026960FB6F894DEBF0FBEA4
:10250000CDBFDF91CF910895CF93DF9300D000D05E
:1025100000D0CDB7DEB79E838D830E949E0E9A8336
:10252000898389819A81892B09F46BC08D819E8171
:10253000FC01818120E1280F8D819E81FC01218396
:102540008D819E818F579F4FFC01808191819C01DD
:10255000205F3F4F8D819E818F579F4FFC013183BC
:10256000208389819A810E94F40F89819A81FC01DC
:10257000818123E0280F89819A81FC01218389814F
:102580009A8189579F4FFC01118210828D819E8113
:10259000FC01838581FB222720F989819A812170A2
:1025A000220FFC0133853D7F232BFC0123878D8186
:1025B0009E81FC012585368589819A81FC01308BBD
:1025C000278789819A818F579F4FFC018081918154
:1025D0009C838B838B819C81FC0110822091B50EA2
:1025E0008B819C81FC0122838D819E81FC0124854D
:1025F0008B819C81FC01218389819A810E947C1AB4
:1026000001C0000026960FB6F894DEBF0FBECDBF06
:10261000DF91CF910895CF93DF931F92CDB7DEB7AF
:10262000898389818093B50E00000F90DF91CF914F
:102630000895CF93DF9300D000D0CDB7DEB79C8351
:102640008B8319821A8230C08A81282F30E0C90119
:10265000880F991F880F991F820F931F8154924FE3
:10266000FC0180818823E9F08A81282F30E0C901AC
:10267000880F991F880F991F820F931F8154924FC3
:10268000FC0180814FEF480FC901880F991F880F07
:10269000991F820F931F8154924FFC01408381E068
:1026A00089838A818F5F8A838A81823368F28981F4
:1026B000882321F08B819C810E947C2200000F9056
:1026C0000F900F900F90DF91CF910895CF93DF93EC
:1026D000CDB7DEB729970FB6F894DEBF0FBECDBFDA
:1026E000998788871A8219821B8290C08B81282F34
:1026F00030E0C901880F991F880F991F820F931F1F
:102700008554924F9D838C838C819D81FC018481B3
:10271000882309F46EC088859985FC01238534855A
:102720008C819D81FC01808191812817390709F0F6
:1027300060C08C819D81FC01228188859985FC0186
:102740008285F22FF81B8F2F8E838E81883058F56B
:102750008C819D81FC018381882F90E02E81222F26
:1027600030E002C0959587952A95E2F78170992708
:10277000892B11F081E075C08C819D81FC018381E2
:10278000482F8E81282F30E081E090E002C0880F32
:10279000991F2A95E2F7842B282F8C819D81FC01BB
:1027A000238380E05EC08E8181958F8388859985A3
:1027B000FC0122858C819D81FC0122838C819D817D
:1027C000FC018381882F90E02F81222F30E002C00E
:1027D000880F991F2A95E2F78160282F8C819D81AF
:1027E000FC0123838C819D8125E1FC01248380E011
:1027F00038C08C819D81FC018481882321F48C81E7
:102800009D819A8389838B818F5F8B838B818233B8
:1028100008F46CCF89819A81892B11F481E021C061
:1028200088859985FC012385348589819A81FC01FD
:102830003183208388859985FC01228589819A814D
:10284000FC01228389819A8121E0FC012383898113
:102850009A8125E1FC01248386EB9EE00E947C2284
:1028600080E029960FB6F894DEBF0FBECDBFDF9192
:10287000CF910895CF93DF9300D0CDB7DEB79A8381
:10288000898389819A81FC018285882311F480E003
:1028900011C089819A81FC0180859185FC0180812C
:1028A000882F90E0892B29F489819A810E94A21BAC
:1028B00001C080E00F900F90DF91CF910895CF93EA
:1028C000DF93CDB7DEB728970FB6F894DEBF0FBE03
:1028D000CDBF98878F838F81988502969B838A834B
:1028E0008F81988524E2FC0120838A819B81FC01F1
:1028F00081858270882309F03BC18A819B81FC011C
:1029000081858870882341F08A819B81FC018185C3
:102910008170882309F02EC18A819B81FC0183810B
:1029200094810196D1F420915C2330915D238A81BA
:102930009B81FC01858596852817390741F08A819E
:102940009B81FC0185859685019609F015C18F81D3
:10295000988522E2FC0120830FC18A819B81FC01C2
:1029600085859685019641F48A819B81FC0181854C
:102970008170882309F002C120915C2330915D238E
:102980008A819B81FC01838594852817390709F486
:10299000F7C08A819B810E946613882309F0F2C0E8
:1029A0008A819B81FC0181858870882309F4A9C0F4
:1029B0008F8198858F579F4FFC01808191819D83E6
:1029C0008C838A819B81FC01858596850E945E109F
:1029D0008E8319828A819B81FC0185819681019673
:1029E00009F061C08E81882379F18C819D81FC0181
:1029F00081818F70882F90E021E0181619060CF065
:102A000020E029838C819D81FC0181818F702FE0E2
:102A1000280F2F708C819D812F70FC013181307FB8
:102A2000232BFC0121838C819D81FC018081282F37
:102A300022952F708C819D812F70FC013081307F19
:102A4000232BFC0120833BC08C819D81FC01808174
:102A50008F70882F90E021E0181619060CF020E006
:102A600029838C819D81FC0180818F702FE0280F4C
:102A70002F708C819D812F70FC013081307F232B42
:102A8000FC0120838C819D81FC018181282F22956E
:102A90002F708C819D812F70FC013181307F232B21
:102AA000FC0121830CC08E81882349F081E0898359
:102AB0008A819B81FC0121852460FC012187898119
:102AC000882321F08F8198850E94131B8E81882393
:102AD00009F459C08F8198858F579F4FFC018081E1
:102AE00091819C012E5F3F4F8F8198858F579F4F1B
:102AF000FC01318320838F81988522E2FC012083B1
:102B000042C08A819B81FC01858196810196B9F43E
:102B100020915C2330915D238A819B81FC01858516
:102B200096852817390759F08A819B81FC01818598
:102B30008470882321F48F8198850E94131B209133
:102B40005C2330915D238A819B81FC01858596857C
:102B50002817390739F08A819B81FC018585968584
:102B6000019689F48F81988522E2FC0120830BC0B5
:102B7000000009C0000007C0000005C0000003C03D
:102B8000000001C0000028960FB6F894DEBF0FBE0B
:102B9000CDBFDF91CF910895CF93DF93CDB7DEB74F
:102BA00061970FB6F894DEBF0FBECDBF998B888BAF
:102BB0008889998902969A83898389819A81FC01FF
:102BC000878582958F70882F90E00396880F991FD4
:102BD000845A9C4DFC0180819181892B11F480E005
:102BE000D9C089819A81FC01838594859C838B83DC
:102BF00089819A81FC01858596859E838D83898153
:102C00009A81FC0187858F708F8389819A81FC016D
:102C1000878582958F708887888999898F579F4F7C
:102C2000FC01808191819C878B87888999890E948A
:102C3000BF108D87888999898D579F4FFC018081AE
:102C40008E87888999898C579F4FFC0180818F8757
:102C500089819A81FC018185982F917081E0992367
:102C600009F480E0882F90E09A87898729853A8542
:102C700089819A81FC018185882F90E08270992753
:102C8000822B932B9A87898729853A8589819A8116
:102C9000FC0181858470882319F080E290E002C0F5
:102CA00080E090E0822B932B9A87898729853A854B
:102CB00089819A81FC0181858870882319F080E4DC
:102CC00090E002C080E090E0822B932B9A87898766
:102CD00029853A8589819A81FC01818580718823C3
:102CE00019F080E890E002C080E090E0822B932B06
:102CF0009A87898729853A8589819A81FC0185850A
:102D00009685019619F484E090E002C080E090E09E
:102D1000822B932B9A87898729853A8589819A8185
:102D2000FC014385548589819A81FC0187819085C6
:102D30004817590719F488E090E002C080E090E05D
:102D4000822B932B9A87898729853A8589819A8155
:102D5000FC0183819481019619F480E190E002C026
:102D600080E090E0822B932B9A87898789819A81D2
:102D7000FC01878582958F70882F90E00396880FDD
:102D8000991F845A9C4DFC0120813181CE0103960C
:102D9000F901099561960FB6F894DEBF0FBECDBF5D
:102DA000DF91CF910895CF93DF93CDB7DEB76197D1
:102DB0000FB6F894DEBF0FBECDBF998B888B888984
:102DC000998902969A8389838889998924E2FC01EA
:102DD00020838091622390916323892B11F480E0FA
:102DE00044C088899989FC01878190859C838B8365
:102DF00088899989FC01878190859E838D831F82B4
:102E00001886888999898F579F4FFC01808191810D
:102E10009C878B87888999890E94BF108D878889B4
:102E200099898D579F4FFC0180818E878889998968
:102E30008C579F4FFC0180818F8780E890E09A87B4
:102E4000898789819A81FC01878582958F70882F77
:102E500090E00396880F991F845A9C4DFC012081B5
:102E60003181CE010396F901099561960FB6F89468
:102E7000DEBF0FBECDBFDF91CF910895CF93DF931B
:102E8000CDB7DEB72F970FB6F894DEBF0FBECDBF1C
:102E90009F878E878E859F8524E2FC012083809109
:102EA000622390916323892B11F480E02AC01A8257
:102EB00019821C821B821D821E828E859F8502962E
:102EC0009A8789878E859F850E94BF108B878E8504
:102ED0009F858D579F4FFC0180818C878E859F85B4
:102EE0008C579F4FFC0180818D8780E091E098870F
:102EF0008F832091622330916323CE010196F901E3
:102F000009952F960FB6F894DEBF0FBECDBFDF91A7
:102F1000CF910895CF93DF93CDB7DEB761970FB60A
:102F2000F894DEBF0FBECDBF998B888B88899989B5
:102F300002969A8389838889998924E2FC012083F7
:102F40008091682390916923892B11F480E02EC031
:102F50001C821B821E821D821F8218868889998985
:102F60008F579F4FFC01808191819C878B87888937
:102F700099890E94BF108D87888999898D579F4FA5
:102F8000FC0180818E87888999898C579F4FFC012D
:102F900080818F8780E092E09A87898720916823DB
:102FA00030916923CE010396F901099561960FB618
:102FB000F894DEBF0FBECDBFDF91CF910895CF93C0
:102FC000DF93CDB7DEB761970FB6F894DEBF0FBEC3
:102FD000CDBF998B888B8889998902969A8389833A
:102FE0008889998924E2FC0120838091642390914F
:102FF0006523892B11F480E02EC01C821B821E8267
:103000001D821F821886888999898F579F4FFC01DE
:10301000808191819C878B87888999890E94BF10C4
:103020008D87888999898D579F4FFC0180818E8774
:10303000888999898C579F4FFC0180818F8780E018
:1030400094E09A8789872091642330916523CE018B
:103050000396F901099561960FB6F894DEBF0FBE8D
:10306000CDBFDF91CF910895CF93DF93CDB7DEB77A
:1030700061970FB6F894DEBF0FBECDBF998B888BDA
:103080008889998902969A8389838889998924E213
:10309000FC01208380916A2390916B23892B11F48A
:1030A00080E02EC01C821B821E821D821F82188619
:1030B000888999898F579F4FFC01808191819C87D6
:1030C0008B87888999890E94BF108D878889998903
:1030D0008D579F4FFC0180818E87888999898C57F5
:1030E0009F4FFC0180818F8780E090E49A878987D9
:1030F00020916A2330916B23CE010396F901099543
:1031000061960FB6F894DEBF0FBECDBFDF91CF91B1
:103110000895CF93DF9300D01F92CDB7DEB79B8386
:103120008A831092B50E8A819B810E94CC15898377
:103130008A819B81FC0183858170882309F419822F
:103140008A819B81FC01878190850196A9F4209159
:103150005C2330915D238A819B81FC018785908966
:103160002817390749F48A819B81FC01838588707F
:10317000882311F481E089838A819B81FC01858108
:103180009681019609F4198280915C2390915D23C8
:10319000019609F419828981882321F08A819B8113
:1031A0000E9484128A819B8124E2FC01208300001A
:1031B0000F900F900F90DF91CF910895CF93DF93F1
:1031C00000D0CDB7DEB71A8219823FC089819A81BB
:1031D000FC018081882F90E0092E000CAA0BBB0B0C
:1031E00040E250E029E030E0841B950B28173907B6
:1031F00060F184569F4FFC010C948D5089819A8117
:103200000E945F1422C089819A810E9489181DC082
:1032100089819A810E94A80F18C089819A810E9491
:10322000D31613C089819A810E943E170EC08981EE
:103230009A810E948A1709C089819A810E94DF17AA
:1032400089819A810E943418000089819A810E94A4
:10325000C20F9A83898389819A81892B09F0B6CF1D
:1032600000000F900F90DF91CF910895CF93DF93DF
:10327000CDB7DEB71092C40E1092C30E82E390E079
:10328000A0E0B0E08093CB0E9093CC0EA093CD0E37
:10329000B093CE0E1092CF0E81EF9BE19093D10EA2
:1032A0008093D00E8AE090E0A0E0B0E08093D80E4A
:1032B0009093D90EA093DA0EB093DB0E1092DC0E31
:1032C0008BE59CE19093DE0E8093DD0E0000DF9194
:1032D000CF910895CF93DF9300D000D0CDB7DEB764
:1032E0009C838B838B819C8102969A8389838B81BB
:1032F0009C8123E1FC0120838B819C818D579F4F12
:10330000FC0110828B819C818C579F4FFC011182A4
:10331000108289819A8120E030E8FC01318320838A
:10332000809161238F5F8093612320916123898144
:103330009A81FC01228320915E2330915F23898151
:103340009A81FC013483238320915C2330915D2397
:1033500089819A81FC013683258300000F900F90AC
:103360000F900F90DF91CF910895CF93DF9300D00E
:1033700000D0CDB7DEB79C838B838B819C81029676
:103380009A8389838B819C8123E1FC0120838B813B
:103390009C818D579F4FFC0110828B819C818C57A3
:1033A0009F4FFC011182108289819A812CE0FC01DF
:1033B0002083809161238F5F80936123209161231B
:1033C00089819A81FC01218389819A81FC01228172
:1033D000287FFC01228389819A81FC012281277E3A
:1033E000FC01228389819A81FC0122812F7DFC01CD
:1033F000228389819A81FC0122812F7BFC01228317
:1034000000000F900F900F900F90DF91CF910895D3
:10341000CF93DF9300D000D000D0CDB7DEB79C8330
:103420008B837E836D838B819C8102969A838983B3
:103430008B819C8123E1FC0120838B819C818D57B2
:103440009F4FFC0110828B819C818C579F4FFC0108
:10345000118210828D819E81992334F489819A8111
:103460002CECFC01208317C08D819E8188279072EF
:10347000892B31F089819A812CE4FC0120830BC0D7
:103480008D819E8188279074892B29F089819A816A
:103490002CE8FC012083809161238F5F809361235E
:1034A0002091612389819A81FC01218389819A81FC
:1034B000FC012281287FFC01228389819A81FC0101
:1034C0002281277EFC01228389819A81FC0122814D
:1034D0002F7DFC01228389819A81FC0122812F7B2F
:1034E000FC012283000026960FB6F894DEBF0FBEC3
:1034F000CDBFDF91CF910895CF93DF9300D000D05F
:10350000CDB7DEB79C838B838B819C8102969A8397
:1035100089838B819C818A579F4FFC018081882FF2
:1035200090E082709927892B31F08B819C8122E178
:10353000FC01208305C08B819C8122E1FC0120835A
:103540008B819C818D579F4FFC0110828B819C81C8
:103550008A579F4FFC018081882F90E081709927C6
:10356000892B41F089819A812FEF3FEFFC01348351
:10357000238309C020915E2330915F2389819A8142
:10358000FC013483238389819A81FC01258536855A
:1035900089819A81FC013683258320915C233091B7
:1035A0005D2389819A81FC01308727838091612383
:1035B0008F5F809361232091612389819A81FC012F
:1035C000228389819A81FC01858196810196A9F4E3
:1035D00089819A8121E438E8FC01318320830E94AB
:1035E00011528770992701969C018B819C818C5781
:1035F0009F4FFC01318320830EC089819A8121E491
:1036000038E8FC01318320838B819C818C579F4F4C
:10361000FC011182108200000F900F900F900F900C
:10362000DF91CF910895CF93DF9300D000D0CDB735
:10363000DEB79C838B830E949E0E9A838983898147
:103640009A81892B09F476C089819A818F579F4F7F
:10365000FC01808191819C01205F3F4F89819A818B
:103660008F579F4FFC013183208389819A8122E10A
:10367000FC0120838B819C81FC01218189819A81BD
:10368000FC01218389819A818D579F4FFC01108213
:103690000E9411528770992701969C0189819A8115
:1036A0008C579F4FFC013183208389819A818957F0
:1036B0009F4FFC01118210828B819C81FC018181D2
:1036C000482F50E08B819C819C012E5F3F4F898168
:1036D0009A810296B9010E94035389819A8121E45B
:1036E00038E8FC013383228389819A812FEF3FEFF1
:1036F000FC01308727838B819C81FC0125813681E9
:1037000089819A81FC013683258320915C23309145
:103710005D2389819A81FC01328721878091612311
:103720008F5F809361232091612389819A81FC01BD
:10373000248301C000000F900F900F900F90DF9135
:10374000CF910895CF93DF9300D000D000D0CDB7B4
:10375000DEB79E838D838D819E81FC01808591855E
:103760009C838B831A8219828D819E81FC018285C4
:10377000833019F180E02CC089819A81FC0180811D
:103780008631D9F489819A81FC0124858B819C81C1
:10379000FC018181281789F489819A8127E1FC0144
:1037A00020838B819C81FC01228189819A818A57A7
:1037B0009F4FFC01208381E00BC089819A810E9488
:1037C000C20F9A83898389819A81892BA9F680E027
:1037D00026960FB6F894DEBF0FBECDBFDF91CF9116
:1037E0000895CF93DF9300D000D01F92CDB7DEB7FE
:1037F0009D838C831A8219821B8227C089819A81BA
:10380000FC018081863109F581E08B8389819A8171
:103810008C579F4FFC01808191819C01215031097F
:1038200089819A818C579F4FFC0131832083898144
:103830009A818C579F4FFC0180819181892B29F4BB
:1038400089819A8160E10E943F1C89819A810E944E
:10385000C20F9A83898389819A81892B79F68B811A
:10386000882321F08C819D810E947C2200000F9092
:103870000F900F900F900F90DF91CF910895CF93FD
:10388000DF9300D01F92CDB7DEB79A8389836B8315
:1038900089819A8127E1FC01208389819A818D5752
:1038A0009F4F2B81FC01208300000F900F900F9001
:1038B000DF91CF910895CF93DF9300D000D01F9276
:1038C000CDB7DEB79D838C831A8219821B8227C0F5
:1038D00089819A81FC018081813109F581E08B83A6
:1038E00089819A818C579F4FFC01808191819C0135
:1038F0002150310989819A818C579F4FFC01318376
:10390000208389819A818C579F4FFC01808191810E
:10391000892B29F489819A8123E1FC012083898103
:103920009A810E94C20F9A83898389819A81892B07
:1039300079F68B81882321F08C819D810E947C22E5
:1039400000000F900F900F900F900F90DF91CF918C
:103950000895CF93DF931F92CDB7DEB78983898116
:10396000882F90E08130910539F08230910531F057
:10397000892B31F480E005C080E203C081E201C000
:1039800081E00F90DF91CF9108950F931F93CF9314
:10399000DF931F92CDB7DEB789830091C30E1091DC
:1039A000C40E89810E94A91C282FC8018D579F4FE2
:1039B000FC0120838091C30E9091C40E25E1FC018F
:1039C00020831092C40E1092C30E80918223909196
:1039D00083230197909383238093822300000F9089
:1039E000DF91CF911F910F910895CF93DF9300D076
:1039F000CDB7DEB71A821982B3C089819A81FC01E2
:103A00008081882F90E08431910509F4A9C0853127
:103A1000910534F48231910579F0439731F19FC0DB
:103A20008631910509F49CC0863191050CF443C0A0
:103A3000479709F47AC093C089819A818C579F4F28
:103A4000FC0180819181892B51F089819A8121E14A
:103A5000FC01208382ED9EE00E947C2281C089814E
:103A60009A8123E1FC0120837BC08091C30E909159
:103A7000C40E892B09F074C089819A819093C40E79
:103A80008093C30E89819A8124E1FC01208389817E
:103A90009A81FC01218189819A810296622F0E947C
:103AA000F61F809182239091832301969093832324
:103AB0008093822355C089819A818D579F4FFC0145
:103AC0008081882361F589819A81FC01258536856D
:103AD00080915C2390915D2328173907D1F4898167
:103AE0009A81FC0183858170882399F089819A816C
:103AF00026E1FC01208389819A818C579F4F25E123
:103B000030E0FC013183208385EC9EE00E947C2222
:103B10000BC089819A8127E1FC01208321C0898122
:103B20009A8127E1FC0120831BC089819A818957F2
:103B30009F4FFC0180819181892B29F489819A8191
:103B40000E94A80F0DC089819A8189579F4FFC015F
:103B50002081318189819A81F901099501C0000094
:103B600089819A810E94C20F9A83898389819A816F
:103B7000892B09F042CF00000F900F90DF91CF9179
:103B80000895CF93DF9300D0CDB7DEB79A838983B2
:103B900089819A81892B09F47BC089819A81883730
:103BA000910549F461E080E00E94293E60E180E0F7
:103BB0000E94293E6DC089819A81803C910529F43B
:103BC00062E080E00E94293E63C089819A818C3442
:103BD000910529F464E080E00E94293E59C0898162
:103BE0009A818038910529F468E080E00E94293E9E
:103BF0004FC089819A818434910529F460E280E084
:103C00000E94293E45C089819A81803B910529F413
:103C100060E480E00E94293E3BC089819A81883B14
:103C2000910529F460E880E00E94293E31C0898135
:103C30009A81883C910529F461E081E00E94293E47
:103C400027C089819A818039910529F468E081E053
:103C50000E94293E1DC089819A81803A910529F4EC
:103C600060E181E00E94293E13C089819A818032FF
:103C7000914029F460E281E00E94293E09C08981D7
:103C80009A818334914021F460E481E00E94293ECE
:103C900000000F900F90DF91CF910895615071094E
:103CA00081099109D9F70895CF93DF93CDB7DEB796
:103CB00083E491E00E94C11D89E391E0FC01208131
:103CC0002160FC0120831092600F81E08093DF0E61
:103CD00088E00E94D3208CE491E0FC0120812068E0
:103CE000FC0120830000DF91CF910895CF93DF93F3
:103CF000CDB7DEB789E391E0FC0120812160FC01B2
:103D000020830000DF91CF910895CF93DF931F921E
:103D1000CDB7DEB7898389818823B1F08CE691E045
:103D2000FC0120812F70FC0120838CE691E0FC01D6
:103D300020812E60FC0120838EE691E0FC01208131
:103D40002061FC01208317C08CE691E0FC012081FA
:103D50002F702063FC0120838CE691E0FC01208120
:103D6000217F2860FC0120838EE691E0FC01208108
:103D70002F7EFC01208300000F90DF91CF910895EA
:103D8000CF93DF93CDB7DEB729970FB6F894DEBF98
:103D90000FBECDBF898728E0CE010196FC01322FEE
:103DA00011923A95E9F78985882349F180E090E0FE
:103DB0000E94801F80E090E00E945C1FCE0101966F
:103DC0000E94F82087E591E0FC0120812260FC013F
:103DD000208387E591E0FC0120812061FC012083A4
:103DE00087E591E0FC0120812F7DFC0120838EE698
:103DF00091E0FC0120812061FC0120830BC087E55C
:103E000091E0FC0110828EE691E0FC0120812F7E82
:103E1000FC012083000029960FB6F894DEBF0FBE88
:103E2000CDBFDF91CF9108950F931F93CF93DF9371
:103E3000CDB7DEB78FE691E0FC012081207F2360C3
:103E4000FC0120838FE691E0FC0120812F70206827
:103E5000FC0120830DE611E00E943720F8018083E9
:103E60000000DF91CF911F910F910895CF93DF93C1
:103E70001F92CDB7DEB7898389818093600F0E943E
:103E8000BC2000000F90DF91CF910895CF93DF9376
:103E90001F92CDB7DEB7898388E491E029812F7125
:103EA0002F71FC013081307E232BFC012083000028
:103EB0000F90DF91CF910895CF93DF9300D000D082
:103EC000CDB7DEB79C838B83CE0103969A8389831B
:103ED00082E691E029813A81F9012081FC01208369
:103EE00083E691E029813A81F9012181FC01208357
:103EF00000000F900F900F900F90DF91CF910895D9
:103F0000CF93DF9300D000D0CDB7DEB79C838B83F7
:103F1000CE0103969A83898380E691E029813A81D4
:103F2000F9012081FC01208381E691E029813A8119
:103F3000F9012181FC0120838DE691E029813A81FC
:103F4000F901408129813A812F5F3F4FF90120819A
:103F5000240FFC01208300000F900F900F900F9012
:103F6000DF91CF910895CF93DF931F92CDB7DEB746
:103F7000898385E491E029812F702F70FC013081C5
:103F8000307F232BFC01208300000F90DF91CF9125
:103F90000895CF93DF93CDB7DEB78091DF0E8230E7
:103FA00069F088E00E94D32089E391E0FC01208140
:103FB0002260FC01208382E08093DF0E0000DF910D
:103FC000CF910895CF93DF93CDB7DEB789E391E02A
:103FD000FC0120812D7FFC0120830E94BC2081E018
:103FE0008093DF0E0000DF91CF910895CF93DF9390
:103FF00000D000D0CDB7DEB79B838A836C8389E184
:104000000E94D3208FE491E02FEFFC01208380E811
:1040100091E02C812E5FFC012083198214C08981DC
:10402000882F90E08F579E4FAC018981882F90E0B8
:104030002A813B81820F931FFC018081FA018083DA
:1040400089818F5F898399818C81981740F383E000
:104050008093DF0E82E491E022E0FC0120830000E7
:104060000F900F900F900F90DF91CF910895CF9305
:10407000DF9300D01F92CDB7DEB71A82198286E097
:104080000E94D3201B8222C062E070E080E090E0BA
:104090000E944E1E86E491E0FC0180818295869507
:1040A00087708370882F90E02B81222F30E002C030
:1040B000880F991F2A95E2F79C0189819A81822BAA
:1040C000932B9A8389838B818E5F8B838B81803145
:1040D000D8F20E94BC2089819A810F900F900F9096
:1040E000DF91CF910895CF93DF9300D000D0CDB76B
:1040F000DEB79A8389837C836B838B819C8140E0CC
:1041000060E00E941D3189819A810E942932898153
:104110009A810E945F3200000F900F900F900F90D5
:10412000DF91CF910895CF93DF931F92CDB7DEB784
:1041300086E00E94D3208FE491E0FC012081206181
:10414000FC01208387E491E0FC01108200008FE4F1
:1041500091E0FC018081829581708823C1F387E41E
:1041600091E0FC0180818A5589830E94BC2089816D
:104170000F90DF91CF910895CF93DF93CDB7DEB746
:1041800088E00E94D3208FE491E02FEFFC01208390
:104190008091600F882319F086E10E94D3200000EF
:1041A000DF91CF910895CF93DF931F92CDB7DEB704
:1041B000898382E491E023E0FC01208381E491E0A3
:1041C000FC0180818F718830A1F782E491E0298120
:1041D000FC01208381E491E0FC0180818F71982FA4
:1041E0008981981791F700000F90DF91CF91089582
:1041F000CF93DF9300D000D0CDB7DEB79C838B8305
:104200008B819C819A83898324E631E089819A811C
:10421000AC014F5F5F4F5A834983FC018081F901F4
:10422000808325E631E089819A81AC014F5F5F4F41
:104230005A834983FC018081F901808326E631E0BD
:1042400089819A81AC014F5F5F4F5A834983FC019A
:104250008081F901808327E631E089819A81AC0170
:104260004F5F5F4F5A834983FC018081F90180834E
:1042700028E631E089819A81AC014F5F5F4F5A8314
:104280004983FC018081F901808329E631E089813D
:104290009A81AC014F5F5F4F5A834983FC01808153
:1042A000F90180832AE631E089819A81AC014F5F70
:1042B0005F4F5A834983FC018081F90180838BE63B
:1042C00091E029813A81F9012081FC0120830000DD
:1042D0000F900F900F900F90DF91CF910895CF9393
:1042E000DF93CDB7DEB728970FB6F894DEBF0FBEC9
:1042F000CDBF8091DF0E823009F49EC08FE491E043
:10430000FC01808183FB882780F9882309F459C048
:104310008BE791E0FC0180818B83198211C0898138
:10432000882F90E02981222F30E020583E4FF9015C
:1043300020818052914FFC01208389818F5F898386
:104340008981282F30E08B81882F90E001962817F3
:1043500039072CF380EE9EE09D838C838B81825005
:104360008E838B81882F90E08052914FFC01808159
:104370008F8387E491E0FC0180818A558887CE0194
:1043800004960E941A11000081E491E0FC018081F2
:104390008F718631C9F78FE491E0FC01208128609C
:1043A000FC0120838CE491E0FC0120812F77FC014B
:1043B00020838CE491E0FC0120812068FC012083B3
:1043C0003CC08FE491E0FC01808186FB882780F966
:1043D000882399F181E491E0FC0180818F7189311A
:1043E00019F582E491E0FC018081829586958770C1
:1043F0008A838A81882311F41A820EC08A818330CD
:1044000019F481E08A8308C08A81853019F482E03A
:104410008A8302C083E08A830E94BC2081E080936B
:10442000DF0E8A810E94C51C8FE491E0FC0120818F
:104430002064FC01208301C0000028960FB6F89488
:10444000DEBF0FBECDBFDF91CF910895CF93DF9335
:10445000CDB7DEB70E9464220E9415310E94541E1F
:104460000E9444090000DF91CF910895CF93DF931C
:10447000CDB7DEB70E946F210E94420A0E94362308
:104480000000DF91CF910895CF93DF931F92CDB7B6
:10449000DEB78FE590E0FC0180818983F894898103
:1044A0000F90DF91CF910895CF93DF931F92CDB7F7
:1044B000DEB789838FE590E02981FC01208300002D
:1044C0000F90DF91CF910895CF93DF93CDB7DEB7F3
:1044D000109284238EEC94E20E94A34A0E94554AD3
:1044E00080E197E20E94EB491092620F1092610FF7
:1044F0000000DF91CF910895CF93DF9300D0CDB727
:10450000DEB79A83898389819A810E940B23982F31
:1045100081E08927882321F089819A810E94F923EB
:1045200000000F900F90DF91CF910895CF93DF930C
:1045300000D000D000D0CDB7DEB79E838D831A8225
:1045400019828091610F9091620F9C838B8352C07E
:104550002B813C818D819E812817390709F03FC04E
:1045600089819A81892B59F08B819C81FC01208162
:10457000318189819A81FC013183208309C08B813B
:104580009C81FC01808191819093620F8093610FE7
:104590008B819C81FC0180819181892B89F18B81A8
:1045A0009C81FC01608171818B819C81FC018081F7
:1045B0009181FC0122813381448155818D819E81CD
:1045C000FC0182819381A481B581820F931FA41F76
:1045D000B51FFB0182839383A483B58311C08B81B4
:1045E0009C819A8389838B819C81FC01808191814C
:1045F0009C838B838B819C81892B09F0A9CF01C07F
:104600000000000026960FB6F894DEBF0FBECDBFA7
:10461000DF91CF910895CF93DF9300D000D0CDB735
:10462000DEB79C838B838091610F9091620F9A8398
:10463000898310C029813A818B819C812817390791
:1046400011F481E00CC089819A81FC018081918103
:104650009A83898389819A81892B61F780E00F9001
:104660000F900F900F90DF91CF910895EF92FF92EE
:104670000F931F93CF93DF93CDB7DEB728970FB675
:10468000F894DEBF0FBECDBF80918423882309F448
:10469000A2C00E9444228D83809184238E83109235
:1046A00084238D810E9454228E81882F90E0A0E087
:1046B000B0E0880F991FAA1FBB1F9C01AD01220FFC
:1046C000331F441F551F220F331F441F551F820FD6
:1046D000931FA41FB51F89839A83AB83BC833DC0FE
:1046E0008091610F9091620F98878F838091610F05
:1046F0009091620FFC0182819381A481B58129810F
:104700003A814B815C8179018A01E81AF90A0A0B26
:104710001B0BD801C70189839A83AB83BC8380912B
:10472000610F9091620FFC01808191819093620FE3
:104730008093610F8F819885FC018285813021F4FF
:104740008F8198850E94F9238F819885FC012385AC
:1047500034858F819885F90109958091610F909139
:10476000620F892B99F08091610F9091620FFC018B
:10477000228133814481558189819A81AB81BC81B9
:1047800082179307A407B50708F0AACF8091610F9D
:104790009091620F892B01F16091610F7091620F0E
:1047A0008091610F9091620FFC01228133814481DD
:1047B000558189819A81AB81BC8179018A01E81A8E
:1047C000F90A0A0B1B0BD801C701FB0182839383F3
:1047D000A483B58301C0000028960FB6F894DEBF0D
:1047E0000FBECDBFDF91CF911F910F91FF90EF9042
:1047F0000895EF92FF920F931F93CF93DF93CDB75E
:10480000DEB72A970FB6F894DEBF0FBECDBF9A87EA
:1048100089878091610F9091620F892B09F497C06D
:104820001A82198289859A85FC0186819781A085E3
:10483000B1858B839C83AD83BE838091610F909102
:10484000620F98878F834DC08F819885FC012281EC
:104850003381448155818B819C81AD81BE818217DA
:104860009307A407B507D8F48F819885FC012281AE
:104870003381448155818B819C81AD81BE817901D9
:104880008A01E81AF90A0A0B1B0BD801C7012F810C
:104890003885F90182839383A483B58327C08F81F0
:1048A0009885FC0182819381A481B5812B813C8113
:1048B0004D815E8179018A01E81AF90A0A0B1B0B06
:1048C000D801C7018B839C83AD83BE838F8198857C
:1048D0009A8389838F819885FC0180819181988753
:1048E0008F838F819885892B09F0AECF29853A85F2
:1048F0008B819C81AD81BE81F90182839383A483E6
:10490000B58389819A81892B91F089819A81FC01F3
:104910002081318189859A85FC01318320838981B9
:104920009A8129853A85FC013183208329C0209111
:10493000610F3091620F89859A85FC013183208354
:1049400089859A859093620F8093610F19C089853C
:104950009A85FC011182108289859A85FC018681E5
:104960009781A085B18529853A85F9018283938352
:10497000A483B58389859A859093620F8093610F94
:1049800000002A960FB6F894DEBF0FBECDBFDF91B0
:10499000CF911F910F91FF90EF900895CF93DF93E8
:1049A000CDB7DEB7809184238F5F8093842380E12D
:1049B00097E20E94EB490000DF91CF910895CF93D9
:1049C000DF931F92CDB7DEB78FE590E0FC018081C9
:1049D0008983F89489810F90DF91CF910895CF93C7
:1049E000DF931F92CDB7DEB789838FE590E02981F1
:1049F000FC01208300000F90DF91CF910895CF93A9
:104A0000DF93CDB7DEB780E094E2A4EFB0E0BC0165
:104A1000CD01DF91CF910895CF93DF93CDB7DEB76E
:104A20000E94FF24DC01CB01BC01CD01DF91CF91BD
:104A30000895CF93DF9300D0CDB7DEB79A838983F3
:104A400089819A81892B21F480E090E0DC01A3C068
:104A500089819A818837910529F40E940C25DC010F
:104A6000CB0199C089819A81803C910529F40E94EB
:104A70000C25DC01CB018FC089819A818C34910592
:104A800029F40E940C25DC01CB0185C089819A8123
:104A90008038910529F40E940C25DC01CB017BC0F4
:104AA00089819A818434910529F40E940C25DC01C6
:104AB000CB0171C089819A81803B910529F40E94C4
:104AC0000C25DC01CB0167C089819A81803C91056E
:104AD00029F40E940C25DC01CB015DC089819A81FB
:104AE000883B910529F40E940C25DC01CB0153C0C1
:104AF00089819A818039910529F40E940C25DC0175
:104B0000CB0149C089819A81803A910529F40E949C
:104B10000C25DC01CB013FC089819A818032914014
:104B200029F40E940C25DC01CB0135C089819A81D2
:104B30008334914029F40E940C25DC01CB012BC069
:104B400089819A818533914029F40E940C25DC01EA
:104B5000CB0121C089819A818433914029F40E943C
:104B60000C25DC01CB0117C089819A8183339140E8
:104B700029F40E940C25DC01CB010DC089819A81AA
:104B80008233914029F40E940C25DC01CB0103C043
:104B900080E090E0DC01BC01CD010F900F90DF912F
:104BA000CF910895CF93DF9300D01F92CDB7DEB79A
:104BB0009A8389836B8389819A818038910559F41E
:104BC00081E890E021E830E0F90130812B81232B4E
:104BD000FC0120832FC089819A818039910559F485
:104BE00081E990E021E930E0F90130812B81232B2C
:104BF000FC0120831FC089819A81803A910559F474
:104C000081EA90E021EA30E0F90130812B81232B09
:104C1000FC0120830FC089819A818032914051F438
:104C200081E291E021E231E0F90130812B81232BF7
:104C3000FC01208300000F900F900F90DF91CF9127
:104C40000895CF93DF9300D0CDB7DEB79A838983E1
:104C500089819A818038910551F48FE690E02FE6A2
:104C600030E0F90120812160FC0120832CC0898182
:104C70009A818039910551F481E790E021E730E095
:104C8000F90120812160FC0120831DC089819A8166
:104C9000803A910551F482E790E022E730E0F90193
:104CA00020812160FC0120830EC089819A8180329D
:104CB000914049F483E790E023E730E0F901208157
:104CC0002160FC01208300000F900F90DF91CF91B5
:104CD0000895CF93DF9300D0CDB7DEB79A83898351
:104CE00089819A818038910551F48FE690E02FE612
:104CF00030E0F90120812260FC0120832CC08981F1
:104D00009A818039910551F481E790E021E730E004
:104D1000F90120812260FC0120831DC089819A81D4
:104D2000803A910551F482E790E022E730E0F90102
:104D300020812260FC0120830EC089819A8180320B
:104D4000914049F483E790E023E730E0F9012081C6
:104D50002260FC01208300000F900F90DF91CF9123
:104D60000895CF93DF9300D0CDB7DEB79A838983C0
:104D700089819A818038910551F48FE690E02FE681
:104D800030E0F90120812D7FFC0120832CC0898136
:104D90009A818039910551F481E790E021E730E074
:104DA000F90120812D7FFC0120831DC089819A811A
:104DB000803A910551F482E790E022E730E0F90172
:104DC00020812D7FFC0120830EC089819A81803251
:104DD000914049F483E790E023E730E0F901208136
:104DE0002D7FFC01208300000F900F90DF91CF9169
:104DF0000895CF93DF93CDB7DEB727970FB6F8941A
:104E0000DEBF0FBECDBF9C838B836D835F834E83DC
:104E10008B819C819A8389838D81882F90E0019674
:104E200029813A81820F931F2D81222F30E02F5F3D
:104E30003F4F49815A81240F351FF90140812E814E
:104E40003F81232F3327242BFC0120838D81882F42
:104E500090E029813A81820F931F2D81222F30E02B
:104E600049815A81240F351FF90130812E81232B6E
:104E7000FC012083000027960FB6F894DEBF0FBE1A
:104E8000CDBFDF91CF910895CF93DF9300D0CDB701
:104E9000DEB79A83898389819A818038910551F49C
:104EA00086E390E026E330E0F90120812160FC01F7
:104EB00020832CC089819A818039910551F488E33F
:104EC00090E028E330E0F90120812160FC0120839B
:104ED0001DC089819A81803A910551F489E390E05F
:104EE00029E330E0F90120812160FC0120830EC01C
:104EF00089819A818032914049F48AE390E02AE3E3
:104F000030E0F90120812160FC01208300000F9036
:104F10000F90DF91CF910895CF93DF9300D0CDB75D
:104F2000DEB79A83898389819A818038910551F40B
:104F300086E390E026E330E0F90120812260FC0165
:104F400020832CC089819A818039910551F488E3AE
:104F500090E028E330E0F90120812260FC01208309
:104F60001DC089819A81803A910551F489E390E0CE
:104F700029E330E0F90120812260FC0120830EC08A
:104F800089819A818032914049F48AE390E02AE352
:104F900030E0F90120812260FC01208300000F90A5
:104FA0000F90DF91CF910895CF93DF9300D0CDB7CD
:104FB000DEB79A83898389819A818038910531F49B
:104FC00084E890E0FC018081918123C089819A81ED
:104FD0008039910531F484E990E0FC018081918170
:104FE00018C089819A81803A910531F484EA90E071
:104FF000FC01808191810DC089819A81803291402C
:1050000031F484E291E0FC018081918102C080E072
:1050100090E00F900F90DF91CF910895CF93DF93A1
:1050200000D000D01F92CDB7DEB79C838B836D83F9
:105030008B819C819A8389838D81882349F489811E
:105040009A81FC01208189819A81FC0120830FC013
:105050008D81843061F489819A81019629813A8118
:105060002F5F3F4FF90120812860FC012083000061
:105070000F900F900F900F900F90DF91CF910895A8
:10508000CF93DF93CDB7DEB780E890E00E94D427BE
:10509000DF91CF910895CF93DF93CDB7DEB780E84E
:1050A00090E00E94B12680E890E00E948C270000EA
:1050B000DF91CF910895CF93DF93CDB7DEB780E82E
:1050C00090E00E948C2780E890E00E946926000012
:1050D000DF91CF910895CF93DF93CDB7DEB780E80E
:1050E00090E00E94212680E890E00E944427000082
:1050F000DF91CF910895CF93DF93CDB7DEB780E8EE
:1051000090E00E94F82F0000DF91CF910895CF9397
:10511000DF9300D0CDB7DEB79A83898389819A81E6
:10512000AC0168E080E890E00E94F92600000F9052
:105130000F90DF91CF910895CF93DF93CDB7DEB776
:105140000E94DF24DF91CF910895CF93DF931F92C8
:10515000CDB7DEB7898389810E94EF2400000F90CC
:10516000DF91CF910895CF93DF931F92CDB7DEB734
:1051700080E890E00E94DF2F6CE479E280E890E024
:105180000E94113060E080E890E00E940E2880E8E4
:1051900090E00E94212680E890E00E94EE2880E8BE
:1051A00090E00E94B12661E080E890E00E94D22564
:1051B00080E890E00E941925DC01CB0120E432E474
:1051C0004FE050E0BC01CD010E946B50DA01C901F3
:1051D000898389810F90DF91CF910895CF93DF93D9
:1051E00000D0CDB7DEB79A83898389819A818038D0
:1051F000910579F089819A818039910551F08981F1
:105200009A81803A910529F089819A818032914072
:1052100039F466E579E280E890E00E94523036C0C9
:1052200089819A818138910579F089819A818139C2
:10523000910551F089819A81813A910529F08981FE
:105240009A818132914039F466E579E280E890E014
:105250000E9493301BC089819A818238910579F030
:1052600089819A818239910551F089819A81823AA6
:10527000910529F089819A818232914039F466E55D
:1052800079E280E890E00E94D43000C000000F90E6
:105290000F90DF91CF910895CF93DF93CDB7DEB715
:1052A0000E945C4A0000DF91CF910895CF93DF9375
:1052B000CDB7DEB70E94944A0000DF91CF910895E8
:1052C000CF93DF931F92CDB7DEB78FE590E0FC015F
:1052D00080818983F89489810F90DF91CF9108951F
:1052E000CF93DF931F92CDB7DEB789838FE590E030
:1052F0002981FC01208300000F90DF91CF91089558
:10530000EF92FF920F931F93CF93DF93CDB7DEB74A
:105310002C970FB6F894DEBF0FBECDBF6B837C8396
:105320008D839E832F83388749875A871C870B87F5
:105330008F819885A985BA858093630F9093640FB8
:10534000A093650FB093660F8B859C859A838983A4
:105350008B819C81AD81BE8188279F5FAF4FBF4FFE
:105360008093670F9093680FA093690FB0936A0FB3
:105370008B819C81AD81BE8188270BE61FE020E0F8
:1053800031E040E050E0BC01CD010E94732A2BE6E1
:105390003FE040E051E060E070E0CB010E94BA5491
:1053A0002091630F3091640F4091650F5091660F0B
:1053B0008B819C81AD81BE81280F391F4A1F5B1FE5
:1053C0008091670F9091680FA091690FB0916A0F5B
:1053D00082179307A407B507A0F48091670F9091F7
:1053E000680FA091690FB0916A0F9C018B819C811D
:1053F0007901E81AF90AC70190936C1080936B1039
:105400000CC08091630F9091640FA091650FB091D3
:10541000660F90936C1080936B102091630F309106
:10542000640F4091650F5091660F80916B109091C1
:105430006C10CC01A0E0B0E079018A01E81AF90A09
:105440000A0B1B0BD801C7018093630F9093640F65
:10545000A093650FB093660F40916B1050916C1044
:1054600029813A818B819C81AD81BE81BC01CD01B6
:105470000E94BA548B819C81AD81BE81BC01CD015B
:105480000E94C7558091670F9091680FA091690F96
:10549000B0916A0F8B839C83AD83BE8380916B1028
:1054A00090916C1029813A81820F931F9A8389838E
:1054B0008091630F9091640FA091650FB091660F7A
:1054C000892B8A2B8B2B09F043CF00002C960FB62B
:1054D000F894DEBF0FBECDBFDF91CF911F910F912A
:1054E000FF90EF9008950F931F93CF93DF93CDB765
:1054F000DEB762970FB6F894DEBF0FBECDBF6987E7
:105500007A878B879C872D873E874F87588B1A8B8E
:10551000098B0E9460298B831A82198229C02989EC
:105520003A8989819A81B901680F791F89859A859D
:10553000AB85BC859C01AD012F5F3F4F4F4F5F4F47
:1055400029873A874B875C878C839D83AE83BF8393
:105550008C819D81AE81BF81ABBFFC018791888723
:105560008885FB01808389819A8101969A8389834A
:1055700089819A819C0140E050E08D859E85AF85B0
:10558000B889281739074A075B0748F28B810E94C0
:105590007029000062960FB6F894DEBF0FBECDBF33
:1055A000DF91CF911F910F910895CF93DF931F92B9
:1055B000CDB7DEB78FE590E0FC0180818983F89458
:1055C00089810F90DF91CF910895CF93DF931F9240
:1055D000CDB7DEB789838FE590E02981FC01208378
:1055E00000000F90DF91CF910895CF93DF9300D00B
:1055F000CDB7DEB79A83898389819A81892B09F493
:105600007BC089819A818837910549F461E080E007
:105610000E94293E60E180E00E94293E6DC08981A0
:105620009A81803C910529F462E080E00E94293E45
:1056300063C089819A818C34910529F464E080E00B
:105640000E94293E59C089819A818038910529F4A8
:1056500068E080E00E94293E4FC089819A818434AD
:10566000910529F460E280E00E94293E45C08981CD
:105670009A81803B910529F460E480E00E94293EF4
:105680003BC089819A81883B910529F460E880E0DC
:105690000E94293E31C089819A81883C910529F474
:1056A00061E081E00E94293E27C089819A8180398A
:1056B000910529F468E081E00E94293E1DC089819E
:1056C0009A81803A910529F460E181E00E94293EA7
:1056D00013C089819A818032914029F460E281E08F
:1056E0000E94293E09C089819A818334914021F426
:1056F00060E481E00E94293E00000F900F90DF914E
:10570000CF910895CF93DF9300D0CDB7DEB79A83C2
:10571000898389819A81892B09F47BC089819A8147
:105720008837910549F461E080E00E945E3E60E1C7
:1057300080E00E945E3E6DC089819A81803C910527
:1057400029F462E080E00E945E3E63C089819A8114
:105750008C34910529F464E080E00E945E3E59C0DB
:1057600089819A818038910529F468E080E00E945F
:105770005E3E4FC089819A818434910529F460E2AC
:1057800080E00E945E3E45C089819A81803B910500
:1057900029F460E480E00E945E3E3BC089819A81EA
:1057A000883B910529F460E880E00E945E3E31C0AC
:1057B00089819A81883C910529F461E081E00E9409
:1057C0005E3E27C089819A818039910529F468E07D
:1057D00081E00E945E3E1DC089819A81803A9105D8
:1057E00029F460E181E00E945E3E13C089819A81C4
:1057F0008032914029F460E281E00E945E3E09C05F
:1058000089819A818334914021F460E481E00E948F
:105810005E3E00000F900F90DF91CF9108951F9290
:105820000F9200905F000F92112400905B000F9286
:105830002F933F934F935F936F937F938F939F9398
:10584000AF93BF93EF93FF93CF93DF93CDB7DEB7C3
:1058500080916D1090916E10892B31F080916D10B8
:1058600090916E10FC0109950000DF91CF91FF919E
:10587000EF91BF91AF919F918F917F916F915F91C8
:105880004F913F912F910F9000925B000F900092EB
:105890005F000F901F9018951F920F9200905F006D
:1058A0000F92112400905B000F922F933F934F9320
:1058B0005F936F937F938F939F93AF93BF93EF9378
:1058C000FF93CF93DF93CDB7DEB780916F109091A8
:1058D0007010892B31F080916F1090917010FC0145
:1058E00009950000DF91CF91FF91EF91BF91AF91AA
:1058F0009F918F917F916F915F914F913F912F91E8
:105900000F9000925B000F9000925F000F901F902D
:1059100018951F920F9200905F000F921124009033
:105920005B000F922F933F934F935F936F937F93FF
:105930008F939F93AF93BF93EF93FF93CF93DF9397
:10594000CDB7DEB78091711090917210892B31F034
:105950008091711090917210FC0109950000DF9107
:10596000CF91FF91EF91BF91AF919F918F917F91D7
:105970006F915F914F913F912F910F9000925B003B
:105980000F9000925F000F901F9018951F920F923A
:1059900000905F000F92112400905B000F922F93F4
:1059A0003F934F935F936F937F938F939F93AF93A7
:1059B000BF93EF93FF93CF93DF93CDB7DEB7809183
:1059C000731090917410892B31F080917310909125
:1059D0007410FC0109950000DF91CF91FF91EF91C8
:1059E000BF91AF919F918F917F916F915F914F91F7
:1059F0003F912F910F9000925B000F9000925F00FB
:105A00000F901F9018951F920F9200905F000F92B9
:105A1000112400905B000F922F933F934F935F935D
:105A20006F937F938F939F93AF93BF93EF93FF9366
:105A3000CF93DF93CDB7DEB780917510909176103C
:105A4000892B31F08091751090917610FC010995A9
:105A50000000DF91CF91FF91EF91BF91AF919F91A6
:105A60008F917F916F915F914F913F912F910F9007
:105A700000925B000F9000925F000F901F901895AE
:105A80001F920F9200905F000F92112400905B0014
:105A90000F922F933F934F935F936F937F938F93C7
:105AA0009F93AF93BF93EF93FF93CF93DF93CDB7C4
:105AB000DEB78091771090917810892B31F080912A
:105AC000771090917810FC0109950000DF91CF913B
:105AD000FF91EF91BF91AF919F918F917F916F91C6
