:100000000C9488010C94A7010C94A7010C94A701EF
:100010000C94A7010C94A7010C94A7010C94A701C0
:100020000C94A7010C94A7010C94A7010C94A701B0
:100030000C94F43E0C94A7010C94A7010C94A70116
:100040000C94A7010C945C2E0C94992E0C94D62E33
:100050000C941F2E0C94A7010C94A7010C94A701DB
:100060000C94A7010C94F0420C94A7010C94A701E6
:100070000C94A7010C94A7010C94A7010C94A70160
:100080000C94502F0C948D2F0C94CA2F0C94132F7A
:100090000C94A7010C94A7010C94A7010C94A70140
:1000A0000C94A7010C94A7010C9444300C9481305B
:1000B0000C94BE300C9407300C94A7010C9438318A
:1000C0000C9475310C94B2310C94FB300C94A70154
:1000D0000C94A7010C94A7010C94A7010C94A70100
:1000E0000C94A7010C94A7010C94A7010C94A701F0
:1000F0000C94A7010C94A7010C94A7010C94A701E0
:100100000C94A7010C9405360C9442360C947F365F
:100110000C94C8350C94BC360C94A7010C94A70120
:10012000F00A2E0939097E0991099E09C409B1090D
:10013000F3090B0AF80A1E0A350AC01AE71AC51A8B
:10014000E71ACA1ACF1AD41AD91AE21ADE1A6E613D
:100150006E00696E660000407A10F35A00A0724E7D
:1001600018090010A5D4E80000E87648170000E45C
:100170000B54020000CA9A3B000000E1F5050000A4
:1001800080969800000040420F000000A086010009
:100190000000102700000000E803000000006400D9
:1001A000000000000A000000000001000000000044
:1001B0002C76D888DC674F0823DFC1DFAE59E1B168
:1001C000B796E5E3E453C63AE651997696E8E6C277
:1001D0008426EB898C9B62ED407C6FFCEFBC9C9F7E
:1001E00040F2BAA56FA5F490055A2AF75C936B6CA0
:1001F000F9676DC11BFCE0E40D47FEF520E6B50094
:10020000D0ED902E0300943577050080841E080001
:1002100000204E0A000000C80C333333330F986EB1
:1002200012831141EF8D2114893BE65516CFFEE66E
:10023000DB18D1844B381BF77C1D901DA4BBE42434
:10024000203284725E228100C9F124ECA1E53D27B1
:10025000330019000C000600030002000100FF003B
:10026000A001CF006700330019000C000700080050
:100270004003A001CF0067003300190010001000F8
:10028000330019000C000600030002000100FF000B
:10029000A001CF006700330019000C000700080020
:1002A0004003A001CF0067003300190010001000C8
:1002B000330019000C000600030002000100FF00DB
:1002C000A001CF006700330019000C0007000800F0
:1002D0004003A001CF006700330019001000100098
:1002E000330019000C000600030002000100FF00AB
:1002F000A001CF006700330019000C0007000800C0
:100300004003A001CF006700330019001000100067
:1003100011241FBECFEFD1E4DEBFCDBF12E0A0E0BD
:10032000B2E0E6E4F0EB00E00BBF02C007900D92F4
:10033000A83CB107D9F72AE3A8ECB2E001C01D92AE
:10034000AF30B207E1F70E94020B0C9475560C9483
:100350000000CF93DF93CDB7DEB780E094E2A4EF47
:10036000B0E0BC01CD01DF91CF910895CF93DF9331
:10037000CDB7DEB70E94A901DC01CB01BC01CD01E4
:10038000DF91CF910895CF93DF9300D0CDB7DEB743
:100390009A83898389819A81FC018081282F226038
:1003A00089819A81FC01208300000F900F90DF91DA
:1003B000CF910895CF93DF93CDB7DEB72B970FB6CC
:1003C000F894DEBF0FBECDBF998788877B876A8789
:1003D0008A859B85FC0184818D838A859B85FC01B0
:1003E00085818E838A859B85FC0186818F838A85A2
:1003F0009B85FC0180819181A281B38189839A834D
:10040000AB83BC83888599859E012F5F3F4FB901DF
:100410000E944C3A882311F081E001C080E02B96C5
:100420000FB6F894DEBF0FBECDBFDF91CF91089518
:10043000CF93DF9300D01F92CDB7DEB79A83898325
:100440006B8389819A816B810E945A3C0F900F9037
:100450000F90DF91CF910895CF93DF9300D000D01C
:10046000CDB7DEB79A8389837C836B8389819A8138
:100470000E94793C282F8B819C81FC012083000005
:100480000F900F900F900F90DF91CF910895CF9321
:10049000DF9300D000D0CDB7DEB79A8389837C8309
:1004A0006B8389819A819093033A8093023A88E121
:1004B00092E09093013A8093003A8CE292E090931C
:1004C000FF398093FE392B813C8189819A81B90162
:1004D0000E94DA016CE271E48BE491E40E942E55F3
:1004E00000000F900F900F900F90DF91CF91089523
:1004F000CF93DF93CDB7DEB78CED90E02CED30E0FD
:10050000F90120812064FC0120838CED90E02CED2A
:1005100030E0F9012081277FFC0120830000DF917A
:10052000CF910895CF93DF93CDB7DEB78091DD02F1
:100530009091DE02892BC1F08091DD029091DE0264
:10054000292F2F938F9381E292E0892F8F9381E25D
:1005500092E08F930E94B5550F900F900F900F90DF
:1005600084ED92E00E94570C0000DF91CF91089536
:10057000CF93DF9300D0CDB7DEB79A83898382E330
:1005800092E0892F8F9382E392E08F930E94B5557A
:100590000F900F9082E08093D30200000F900F9095
:1005A000DF91CF910895CF93DF93CDB7DEB70E944F
:1005B000780282E08093D3020000DF91CF9108950A
:1005C000CF93DF93CDB7DEB7809106038823F1F098
:1005D0008091562B9091572BA091582BB091592B6D
:1005E0002DEB37E346E857E3BC01CD010E94CB5029
:1005F000DC01CB01BC01CD010E943D51DC01CB01EE
:1006000021E0AC01BD0181E00E94FD370E9478022B
:1006100083E08093D3020000DF91CF910895CF93C0
:10062000DF93CDB7DEB78091DD029091DE028115B8
:10063000904419F482E08093D3020000DF91CF91BF
:100640000895CF93DF93CDB7DEB783E08093D302D5
:1006500089E080930A020000DF91CF910895CF9343
:10066000DF9300D000D01F92CDB7DEB78D838D8190
:10067000869586958695882F90E09A8389838D81CB
:10068000882F90E08770992728E030E0A901481B67
:10069000590BCA019C838B8389819A8183599E4E11
:1006A000FC018081882F90E00B8002C09595879592
:1006B0000A94E2F781709927892BA9F08D81882F00
:1006C00090E0292F2F938F9381E492E0892F8F93CD
:1006D00081E492E08F930E94B5550F900F900F9098
:1006E0000F9080E023C081E090E00B8002C0880F73
:1006F000991F0A94E2F7282F89819A8183599E4E87
:10070000FC01208389819A819C012F5F3F4F80915A
:10071000EB029091EC02821793073CF489819A8155
:1007200001969093EC028093EB0281E00F900F9082
:100730000F900F900F90DF91CF910895CF93DF939B
:1007400000D000D01F92CDB7DEB79D838C83198275
:1007500003C089818F5F89838981282F30E04AE433
:10076000429FC001439F900D1124855A944DFC0176
:1007700080819181892B69F7809104039091050311
:10078000019690930503809304038C819D81FC0165
:1007900084818F77282F30E0809110028F77882F07
:1007A00090E08217930764F48C819D81FC01848121
:1007B0008F778F77909110029078892B8093100219
:1007C0008981282F30E08C819D81FC0184818F7785
:1007D000582F4AE4429FC001439F900D1124835A31
:1007E000944DFC0150838981482F50E08C819D817C
:1007F000FC018381282F30E06AE4649FC001659F7B
:10080000900D1124855A944DFC01318320838981F8
:10081000282F30E04AE4429FC001439F900D1124ED
:10082000865A944D2981FC0120838091E9029091A0
:10083000EA02892B39F184E090E00E94B5529B8353
:100840008A838981282F30E04AE4429FC001439F78
:10085000900D11249C01265A344D8A819B81FC0104
:10086000318320832091E9023091EA028A819B81C1
:10087000FC01338322838A819B819093EA028093D7
:10088000E90221C084E090E00E94B5529093EA0210
:100890008093E9028091E9029091EA022981422F36
:1008A00050E06AE4649F9001659F300D1124265A40
:1008B000344DFC01318320838091E9029091EA025A
:1008C000FC011382128200000F900F900F900F9086
:1008D0000F90DF91CF910895CF93DF9300D0CDB7E4
:1008E000DEB78091E9029091EA02FC01808191815A
:1008F000FC01808180930E028091E9029091EA02CE
:10090000FC0180819181FC018181928180930F02A1
:100910008091E9029091EA029A8389838091E902A9
:100920009091EA02FC01828193819093EA02809384
:10093000E90289819A81FC011182108289819A8160
:10094000FC011382128289819A810E944D5300001A
:100950000F900F90DF91CF910895CF93DF9300D048
:1009600000D000D0CDB7DEB79E838D838D819E8170
:10097000FC0180859185FC0180818D3021F58D8180
:100980009E81FC01808591859C838B838B819C81DA
:10099000FC0181810E942F038B819C81FC0181815C
:1009A000882F90E0292F2F938F938EE492E0892F48
:1009B0008F938EE492E08F930E94B5550F900F9025
:1009C0000F900F902DC08D819E81FC0180859185B7
:1009D000FC0180818E3011F58D819E81FC01808526
:1009E00091859A83898389819A810E949E03898156
:1009F0009A81FC018381882F90E0292F2F938F9378
:100A000089E592E0892F8F9389E592E08F930E9488
:100A1000B5550F900F900F900F9002C080E001C06D
:100A200081E026960FB6F894DEBF0FBECDBFDF91F2
:100A3000CF9108958F929F92AF92BF92CF92DF9203
:100A4000EF92FF92CF93DF9300D000D000D0CDB7CC
:100A5000DEB79E838D8390910C0381E089278823E4
:100A600009F436C180910603882F90E002979C8399
:100A70008B8381E080930C038D819E81FC018485B2
:100A8000582F2B813C814AE4429FC001439F900D27
:100A90001124825A944DFC0150832B813C814AE4FD
:100AA000429FC001439F900D1124825A944DFC0136
:100AB0008081882F90E0092E000CAA0BBB0BBC0193
:100AC000CD010E946E514B015C012B813C814AE4B7
:100AD000429FC001439F900D1124815A944DFC0107
:100AE000C080D180E280F3802B813C814AE4429F28
:100AF000C001439F900D11248156944DFC018081CB
:100B00009181CC01A0E0B0E0BC01CD010E946C510C
:100B1000DC01CB019C01AD01C701B6010E94FA5175
:100B2000DC01CB019C01AD01C501B4010E945F5005
:100B3000DC01CB016C017D012B813C814AE4429FA9
:100B4000C001439F900D11248156944DFC0180817A
:100B500091810196CC01A0E0B0E0BC01CD010E94E2
:100B60006C51DC01CB019C01AD01C701B6010E94B3
:100B7000CB50DC01CB014B815C816AE4649F900126
:100B8000659F300D1124215A344DF90180839183E2
:100B9000A283B3832B813C814AE4429FC001439FDF
:100BA000900D11248156944DFC01808191819C010E
:100BB0002F5F3F4F4B815C816AE4649FC001659F5A
:100BC000900D11248156944DFC01318320832B819B
:100BD0003C814AE4429FC001439F900D1124855AF5
:100BE000944DFC01808191810E942F038C818F9311
:100BF0008B818F9382E692E0892F8F9382E692E039
:100C00008F930E94B5550F900F900F900F908D818C
:100C10009E81FC0142852B813C8154E8529FC0019A
:100C2000539F900D11248E569E4EFC0140831A82D4
:100C3000198242C08D819E81FC0120853185898188
:100C40009A81820F931FFC0140818B819C8154E823
:100C5000589F9001599F300D112489819A81820FEC
:100C6000931F8D569E4EFC0140838B819C8144E8EE
:100C7000489F9001499F300D112489819A81820FEC
:100C8000931F8D569E4EFC018081882F90E0292F66
:100C90002F938F9381E792E0892F8F9381E792E0E2
:100CA0008F930E94B5550F900F900F900F908981F0
:100CB0009A8101969A8389838D819E81FC01828528
:100CC000282F30E089819A81821793070CF4B2CFE4
:100CD000000026960FB6F894DEBF0FBECDBFDF91A1
:100CE000CF91FF90EF90DF90CF90BF90AF909F900B
:100CF0008F900895CF93DF93CDB7DEB71092DA02CD
:100D00001092D9021092DB021092DC0280E090E493
:100D10009093DE028093DD028CE691E19093E202F3
:100D20008093E1028091EB029091EC028F5F8093BF
:100D3000E3020000DF91CF910895CF93DF9300D0BD
:100D400000D000D0CDB7DEB71092DA021092D902EF
:100D50001092DB021092DC0280E494E09093DE02B9
:100D60008093DD021092E2021092E1021092E302FF
:100D70001A8219820BC089819A8183599E4EFC0187
:100D8000108289819A8101969A83898389819A81C7
:100D900080978CF31C821B8255C02B813C814AE4D6
:100DA000429FC001439F900D1124855A944DFC0130
:100DB000118210822B813C814AE4429FC001439FF3
:100DC000900D11248156944DFC01118210822B81CB
:100DD0003C8144E8429FC001439F900D11248257FB
:100DE0009E4EFC01118210822B813C8144E8429F7F
:100DF000C001439F900D112480579E4EFC0111822B
:100E000010821E821D8215C08B819C814AE4489FFE
:100E10009001499F300D11248D819E81820F931F77
:100E20008D59944DFC0110828D819E8101969E8387
:100E30008D838D819E81C2973CF38B819C8101962D
:100E40009C838B838B819C81C2970CF4A6CF82E01C
:100E500090E090930503809304031092EC021092AB
:100E6000EB02109208031092070310928D110000FC
:100E700026960FB6F894DEBF0FBECDBFDF91CF919F
:100E80000895CF93DF9300D0CDB7DEB71A821982D1
:100E90000BC089819A8183599E4EFC011082898101
:100EA0009A8101969A83898389819A8180978CF3AC
:100EB0001092EC021092EB021092DA021092D90218
:100EC0001092DB021092DC0280E491E09093DE024B
:100ED0008093DD021092E2021092E1021092E3028E
:100EE00080911102882309F07BC08FE780938D11D8
:100EF00080918D11882F90E00396880F991F092EFD
:100F0000000CAA0BBB0BBC01CD010E946E51DC0191
:100F1000CB0120E030E040E451E4BC01CD010E946F
:100F20005F50DC01CB0120E030E040E252E4BC0144
:100F3000CD010E945F50DC01CB0120E034E244E7A8
:100F400057E4BC01CD010E94CB50DC01CB01809362
:100F5000562B9093572BA093582BB093592B8091DD
:100F6000562B9091572BA091582BB091592B20E0E4
:100F700030E040E850E4BC01CD010E94FA51DC01B0
:100F8000CB012DEB37E346E857E3BC01CD010E94CE
:100F9000CB50DC01CB018093F1029093F202A0933D
:100FA000F302B093F40283ED92E00E94D0380E94E5
:100FB000780281E00E9449378091F1029091F2021B
:100FC000A091F302B091F402BC01CD010E943D5109
:100FD000DC01CB0121E0AC01BD0181E00E94FD37C5
:100FE00000000F900F90DF91CF910895EF92FF9244
:100FF0000F931F93CF93DF93CDB7DEB71092060305
:10100000809110028F77882F90E00396880F991FA8
:10101000092E000CAA0BBB0BBC01CD010E946E5126
:10102000DC01CB0120E030E040E451E4BC01CD0123
:101030000E945F50DC01CB0120E030E040E252E44E
:10104000BC01CD010E945F50DC01CB0120E034E205
:1010500044E757E4BC01CD010E94CB50DC01CB0139
:101060008093562B9093572BA093582BB093592BCA
:10107000809110028F7780938D111092DA02109276
:10108000D9021092DB021092DC0280EC90E0909387
:10109000DE028093DD021092E2021092E1021092D1
:1010A000E30280910403909105030296092E000C3F
:1010B000AA0BBB0BBC01CD010E946E517B018C01C0
:1010C0008091562B9091572BA091582BB091592B72
:1010D0009C01AD01C801B7010E94FA51DC01CB01AE
:1010E0002DEB37E346E857E3BC01CD010E94CB501E
:1010F000DC01CB018093ED029093EE02A093EF020E
:10110000B093F00280EE92E00E94D0380E94780204
:1011100081E00E9449378091562B9091572BA091E6
:10112000582BB091592B9C01AD01BC01CD010E94FF
:101130005F50DC01CB012DEB37E346E857E3BC0100
:10114000CD010E94CB50DC01CB01BC01CD010E943E
:101150003D51DC01CB0121E0AC01BD0181E00E94E9
:10116000FD376AE175E081E00E94A00B0000DF918D
:10117000CF911F910F91FF90EF900895CF93DF9340
:10118000CDB7DEB780E090E00E94720B8FE00E9446
:10119000372181E00E94272182E090E0A0E0B0E0CA
:1011A0008093FD029093FE02A093FF02B093000390
:1011B0001092010388EB92E0909303038093020363
:1011C0008EEF9AEC0E94890B8EEF8093E8028EEFEF
:1011D00080936C1181E00E9476206DEA74E083E0D8
:1011E0000E94A00B81E00E94B1200000DF91CF910E
:1011F0000895CF93DF9300D0CDB7DEB78091D302AF
:10120000882F90E08230910561F08330910579F06C
:10121000892B09F0F1C10E94BE0883E08093D302BC
:10122000EBC10E94920283E08093D302E5C18091DA
:101230000A02882F90E0092E000CAA0BBB0B40E09D
:1012400050E02CE030E0841B950B2817390708F498
:10125000D2C180579F4FFC010C949D520E949D0665
:1012600082E080930A0282E08093D30210921102FE
:10127000C2C180910703909108030C9721F08091DF
:101280001102823090F12091070330910803809180
:101290001102882F90E0432F4F932F93292F2F93E4
:1012A0008F9386E792E0892F8F9386E792E08F9362
:1012B0000E94B5550F900F900F900F900F900F90C8
:1012C000109208031092070382E00E94BE3710922A
:1012D000DE021092DD0281E08093D30289E08093E8
:1012E0000A0285E08093110286C10E94410781E0D5
:1012F0008093D30283E080930A027DC180E499E069
:101300009093DE028093DD021092E2021092E102DD
:101310001092E30284E08093D30284E080930A0277
:101320006AC10E947A0687EF92E00E948C2485E0D1
:1013300080930A0281E08093D3025DC180E492E051
:101340009093DE028093DD021092E2021092E1029D
:101350001092E30281E08093D30287E080930A0237
:101360004AC180E49AE09093DE028093DD021092FD
:10137000E2021092E1021092E30281E08093D30234
:1013800086E080930A0237C18091E9029091EA02D7
:10139000892B29F10E946C0480E090E89093DE0292
:1013A0008093DD028BE092E09093E2028093E10271
:1013B00086E08093E30281E08093D30286E080930D
:1013C0000A02809107039091080301969093080305
:1013D0008093070387EF92E00E948C240CC188E081
:1013E00080930A0208C180E492E19093DE02809328
:1013F000DD021092E2021092E1021092E30281E01B
:101400008093D30282E080930A02809111028F5F61
:1014100080931102F0C080911102882309F4EAC080
:101420000E94F60782E08093D3028BE080930A0249
:1014300080911102815080931102DCC08EE792E00E
:10144000892F8F938EE792E08F930E94B5550F906E
:101450000F900E947A0687EF92E00E948C248CE025
:1014600080930A0281E08093D30280910603282FA3
:1014700030E08091040390910503281739070CF49C
:1014800048C09091090381E08927882359F181E2BE
:1014900093E00E94D03881E00E94BE370E9478021B
:1014A00081E00E9449378091F1029091F202A0916F
:1014B000F302B091F40220E030E040EA50E4BC01D5
:1014C000CD010E94FA51DC01CB01BC01CD010E948B
:1014D0003D51DC01CB0121E0AC01BD0181E00E9466
:1014E000FD3711C08AE892E0892F8F938AE892E055
:1014F0008F930E94B5550F900F9081E00E94BE37E8
:1015000082E00E94BE3781E08093D30210920A02EB
:1015100072C080E090E49093DE028093DD0210922E
:10152000DE021092DD021092EC021092EB021A829F
:1015300019820BC089819A8183599E4EFC011082C9
:1015400089819A8101969A83898389819A8180977A
:101550008CF380910603823020F190910C0381E09E
:1015600089278823F1F080910603882F90E0029765
:101570004AE4489F9001499F300D11242F55344D66
:10158000F901208131812F5F3F4F6AE4689FA001FC
:10159000699F500D1124CA018F55944DFC01318370
:1015A000208310920C0380910603882F90E0292F4E
:1015B0002F938F938DE992E0892F8F938DE992E09D
:1015C0008F930E94B5550F900F900F900F9081E070
:1015D0008093D302809106038F5F809306030BC034
:1015E0001092DE021092DD0281E08093D30203C0EC
:1015F000000001C00000000000000F900F90DF917C
:10160000CF9108950F931F93CF93DF93CDB7DEB79C
:1016100027970FB6F894DEBF0FBECDBF0E941340D0
:101620000E9448430E9436240E947635789427E031
:10163000E7EBF2E0CE010196DC0101900D922A95D4
:10164000E1F7CE010196BC0180EC90E00E944702D8
:1016500080EC90E00E94C3010E94B601DC01CB0146
:101660008C019D0140E052EC61E070E080EC90E084
:101670000E94F53C0E9446240E94F908FBCFCF93BC
:10168000DF931F92CDB7DEB71092D2391092D339C3
:101690001092CF391092CE391092F5391092F43958
:1016A00019820EC08981882F90E00396880F991FB8
:1016B0008253964CFC011182108289818F5F89834D
:1016C0008981803178F30E94F81A0E94DC120E940E
:1016D0007A100E944B0C0E94161200000F90DF91AE
:1016E000CF910895CF93DF9300D0CDB7DEB79A8323
:1016F000898389819A819093CF398093CE3989816A
:101700009A810E94712100000F900F90DF91CF917C
:101710000895CF93DF9300D0CDB7DEB79A83898346
:1017200089819A819093D1398093D03989819A8126
:101730000E944D2100000F900F90DF91CF910895EE
:10174000CF93DF9300D01F92CDB7DEB789837B8321
:101750006A838981882F90E00396880F991F8253AE
:10176000964C2A813B81FC013183208300000F903D
:101770000F900F90DF91CF910895CF93DF93CDB766
:10178000DEB78091F4399091F53921E0892B09F485
:1017900020E0822FDF91CF910895CF93DF93CDB7D3
:1017A000DEB78091F4399091F53901969093F5392F
:1017B0008093F4390000DF91CF910895CF93DF93A8
:1017C000CDB7DEB78091F4399091F53901979093B8
:1017D000F5398093F4390000DF91CF910895CF93CC
:1017E000DF93CDB7DEB70E94AB210000DF91CF9130
:1017F0000895CF93DF93CDB7DEB70E94D9210000C3
:10180000DF91CF910895CF93DF93CDB7DEB72C97BB
:101810000FB6F894DEBF0FBECDBF8C8789E0EEEB2C
:10182000F2E0DE01139601900D928A95E1F789E1CD
:1018300089831A8215C09C858981981758F48A81FA
:10184000882F90E09E012D5F3F4F820F931FFC0178
:1018500080810AC08981875E89838A818F5F8A83BC
:101860008A81893040F38FEF2C960FB6F894DEBF53
:101870000FBECDBFDF91CF910895CF93DF93CDB74A
:10188000DEB70E94A01A0E94B71E0E9444100000FA
:10189000DF91CF910895CF93DF93CDB7DEB710924C
:1018A0001203109211030000DF91CF910895CF939E
:1018B000DF9300D0CDB7DEB79A83898389819A817F
:1018C000FC01148289819A81FC01128A89819A81A2
:1018D000FC01138212828091F4399091F5390196BE
:1018E0009093F5398093F43980911103909112030C
:1018F000892B61F489819A81FC011182108289818E
:101900009A8190931203809311030FC020911103C9
:101910003091120389819A81FC013183208389816E
:101920009A81909312038093110300000F900F90FF
:10193000DF91CF910895CF93DF93CDB7DEB728978E
:101940000FB6F894DEBF0FBECDBF98878F838F810F
:101950009885FC01818592858034910598F40E94D8
:1019600099109A83898389819A81892B61F58F8166
:10197000988522E0FC0124838F81988522E0FC0178
:10198000228BCCC28F819885FC01818592858074E1
:101990009927892B21F081E00E940B1103C080E080
:1019A0000E940B119A83898389819A81892B59F42A
:1019B0008F81988522E0FC0124838F81988522E025
:1019C000FC01228BABC28F819885FC0181859285B9
:1019D00080749927892B09F497C089819A818A5745
:1019E0009F4FFC0110828F819885FC018185928533
:1019F00080789927892B41F089819A81FC01258182
:101A0000287FFC01258334C08F819885FC01818566
:101A1000928588279170892B49F089819A81FC01F0
:101A20002581287F2460FC01258322C08F81988531
:101A3000FC018185928588279270892B49F08981E4
:101A40009A81FC012581287F2660FC01258310C036
:101A50008F819885FC018185928588279470892BD8
:101A600039F089819A81FC0125812760FC01258359
:101A700089819A81FC012581277FFC012583898149
:101A80009A81FC0125812F7EFC01258389819A8121
:101A9000FC0125812F712064FC0125838F819885AD
:101AA000FC018185928588279870892B31F0898186
:101AB0009A8121E0FC01278313C08F819885FC0166
:101AC0008185928588279071892B31F089819A814F
:101AD00022E0FC01278304C089819A81FC011782DE
:101AE00020918D1189819A81FC0120878EEF9AECDB
:101AF0009C838B8389819A812EEFFC0126838981C7
:101B00009A810E94771BF5C18F819885FC018185A0
:101B10009285992394F08F819885FC018185928527
:101B200088279072892B49F48F819885FC018185E3
:101B3000928588279074892B99F18F819885FC0173
:101B40002185328589819A81B9010E94CA1B8981C8
:101B50009A818A579F4FFC0110828F819885FC01E2
:101B60008785482F50E08F819885FC012585368533
:101B700089819A818F579F4FFC0180819181B901A2
:101B80000E94135589819A81FC0121818F8198855A
:101B9000FC018785280F89819A81FC012183A9C1D5
:101BA0008F819885FC018185928580729927892B88
:101BB00009F462C089819A818A579F4FFC01108283
:101BC00089819A81FC012185207F2860FC01218781
:101BD00089819A81FC0121852F702066FC01218773
:101BE00089819A81FC012285207F2160FC01228766
:101BF00089819A81FC0122852061FC0122878981EB
:101C00009A81FC0122852064FC01228789819A81C6
:101C1000FC0122852F77FC01228789819A81FC01B2
:101C2000138689819A81FC0114868F819885FC0135
:101C30008785482F50E08F819885FC012585368562
:101C400089819A818F579F4FFC0180819181B901D1
:101C50000E94135589819A81FC0121818F81988589
:101C6000FC018785280F89819A81FC012183898164
:101C70009A810E942C1B3DC18F819885FC01818532
:101C80009285892B09F435C18F819885FC01818566
:101C900092858470992721E0892B09F420E08981BD
:101CA0009A818A579F4FFC0120838F819885FC0180
:101CB000818592858170992721E0892B09F420E0A4
:101CC00089819A812170FC0133853E7F232BFC01A1
:101CD00023878F819885FC0181859285887099275B
:101CE00021E0892B09F420E089819A812170220F5B
:101CF000220FFC0133853B7F232BFC0123878F813F
:101D00009885FC01818592858072992721E0892B35
:101D100009F420E089819A8121702295207FFC01BD
:101D200033853F7E232BFC0123878F819885FC011F
:101D3000818592858071992721E0892B09F420E023
:101D400089819A812170220F220F220FFC01338595
:101D5000377F232BFC01238789819A81FC018385AE
:101D60008870882309F462C089819A818F579F4FB8
:101D7000FC01808191819E838D838F819885FC01F8
:101D80008385282F2F708D819E812F70FC013181DA
:101D9000307F232BFC0121838F819885FC01838573
:101DA000282F2F708D819E812295207FFC0131810B
:101DB0003F70232BFC0121838F819885FC01848552
:101DC000282F2F708D819E812F70FC013081307FF4
:101DD000232BFC0120838F819885FC018485282F8B
:101DE0002F708D819E812295207FFC0130813F7074
:101DF000232BFC01208389819A818F579F4FFC01FF
:101E0000808191819C012E5F3F4F89819A818F57FC
:101E10009F4FFC013183208389819A81FC0181815C
:101E200022E0280F89819A81FC0121838091D23997
:101E30008F5F8093D2392091D23989819A81FC01B8
:101E400024872091CE393091CF3989819A81FC0144
:101E5000368725878F819885FC0125813681898188
:101E60009A81FC01308B27878F819885FC018085C2
:101E7000282F2F7089819A812F70FC013189307F42
:101E8000232BFC01218B8F819885FC018781282FD2
:101E90002F7089819A812295207FFC0131893F70C2
:101EA000232BFC01218B8F819885FC018785482F8E
:101EB00050E08F819885FC012585368589819A813E
:101EC0008F579F4FFC0180819181B9010E9413556A
:101ED00089819A81FC0121818F819885FC01878508
:101EE000280F89819A81FC01218389819A810E942E
:101EF0003E1C8F81988529813A81FC01338322839E
:101F00008F81988521E0FC01248389819A818957FA
:101F10009F4F27E93FE0FC013183208328960FB6CD
:101F2000F894DEBF0FBECDBFDF91CF910895CF9360
:101F3000DF9300D000D0CDB7DEB79C838B83809138
:101F40001103909112039A8389832BC089819A810E
:101F5000FC01228133818B819C8128173907D1F4C0
:101F60008B819C818D579F4FFC01208189819A81B3
:101F7000FC01228B8B819C818A579F4FFC01208121
:101F800089819A81FC01238B89819A8122E0FC015D
:101F900024830BC089819A81FC01808191819A837D
:101FA000898389819A81892B89F68B819C810E9402
:101FB000A31100000F900F900F900F90DF91CF9121
:101FC0000895CF93DF9300D000D0CDB7DEB79C83C8
:101FD0008B8320911103309112038B819C812817F0
:101FE000390761F48091110390911203FC01808103
:101FF0009181909312038093110325C08091110366
:10200000909112039A83898307C089819A81FC0188
:10201000808191819A83898389819A81FC012081C1
:1020200031818B819C812817390779F789819A81C1
:10203000FC0180819181FC012081318189819A811B
:10204000FC01318320838091F4399091F539019717
:102050009093F5398093F4398B819C81FC018089C0
:102060009189892B49F08B819C81FC0120893189E0
:102070008B819C81F901099500000F900F900F90C2
:102080000F90DF91CF910895CF93DF9300D0CDB71C
:10209000DEB780911103909112039A83898321C046
:1020A00089819A81FC018481882F90E0813091059B
:1020B00081F08230910541F0892B09F00BC08981B4
:1020C0009A810E949B0C11C089819A810E94E10F24
:1020D0000CC0000089819A81FC01808191819A83E2
:1020E000898389819A81892BD9F60F900F90DF918E
:1020F000CF910895CF93DF931F92CDB7DEB71982AA
:1021000010C08981282F30E049E8429FC001439FD9
:10211000900D11248D5E9C4FFC01108289818F5F90
:1021200089838981843168F300000F90DF91CF911A
:102130000895CF93DF931F92CDB7DEB7198261C0A8
:102140008981282F30E049E8429FC001439F900DCC
:1021500011248D5E9C4FFC018081882309F04EC0C4
:102160008981282F30E049E8429FC001439F900DAC
:1021700011248D5E9C4F49E850E060E070E00E94C1
:102180001C558981282F30E049E8429FC001439FB8
:10219000900D11248C5E9C4FFC0110828981482F88
:1021A00050E08981282F30E069E8629FC001639F79
:1021B000900D112402969C012D5E3C4F69E8649FAE
:1021C000C001659F900D11248C569C4FFC013183FA
:1021D00020838091F4399091F53901969093F539E7
:1021E0008093F4398981282F30E049E8429FC0016B
:1021F000439F900D11248D5E9C4F09C089818F5F94
:1022000089838981843108F49BCF80E090E00F902E
:10221000DF91CF910895CF93DF9300D0CDB7DEB794
:102220008A83198285C08981282F30E049E8429F3E
:10223000C001439F900D11248D5E9C4FFC01808155
:10224000882309F072C08981282F30E049E8429F35
:10225000C001439F900D11248D5E9C4F49E850E0D2
:1022600060E070E00E941C558A81882379F08981A2
:10227000282F30E049E8429FC001439F900D112470
:102280008C5E9C4F27E0FC0120830EC08981282FA3
:1022900030E049E8429FC001439F900D11248C5EBD
:1022A0009C4F23E0FC0120838981482F50E08981E5
:1022B000282F30E069E8629FC001639F900D1124D0
:1022C00002969C012D5E3C4F8981682F70E0E9E801
:1022D000E69FC001E79F900D11248C5E9C4FFC018E
:1022E0008081882F90E0280F391F69E8649FC00122
:1022F000659F900D11248C569C4FFC0131832083E7
:102300008091F4399091F53901969093F539809345
:10231000F4398981282F30E049E8429FC001439F6A
:10232000900D11248D5E9C4F09C089818F5F898338
:102330008981843108F477CF80E090E00F900F908E
:10234000DF91CF910895CF93DF9300D0CDB7DEB763
:102350009A83898389819A81FC0110828091F43962
:102360009091F53901979093F5398093F4390000F5
:102370000F900F90DF91CF910895CF93DF9300D00E
:10238000CDB7DEB79A83898389819A81892B29F415
:1023900083E193E09A83898316C089819A81875764
:1023A0009F4F9A8389830FC089819A81FC01808124
:1023B000882319F089819A810DC089819A81875774
:1023C0009F4F9A83898389819A81875C9D4060F3BE
:1023D00080E090E00F900F90DF91CF910895CF9320
:1023E000DF9300D0CDB7DEB79A83898389819A8144
:1023F0008D579F4FFC0110828091D2398F5F80935F
:10240000D2392091D23989819A81FC012487209187
:10241000CE393091CF3989819A81FC013687258761
:1024200000000F900F90DF91CF910895CF93DF932D
:102430001F92CDB7DEB719820FC08981882F90E037
:10244000880F991F8953924F2FEF3FEFFC01318383
:10245000208389818F5F89838981833070F30000B5
:102460000F90DF91CF910895CF93DF9300D0CDB738
:10247000DEB79A83898389819A81BC018FEF9FEFB0
:102480000E9481120F900F90DF91CF910895CF930A
:10249000DF9300D0CDB7DEB79A83898389819A8193
:1024A0006FEF7FEF0E9481120F900F90DF91CF911D
:1024B0000895CF93DF9300D01F92CDB7DEB79B83F3
:1024C0008A83198214C08981882F90E0880F991F10
:1024D0008953924FFC01208131818A819B81281789
:1024E000390711F481E007C089818F5F8983898171
:1024F000833048F380E00F900F900F90DF91CF91E1
:102500000895CF93DF9300D000D01F92CDB7DEB7F0
:102510009B838A837D836C83198220C08981882F65
:1025200090E0880F991F8953924FFC0120813181DF
:102530008A819B812817390771F48981882F90E05F
:10254000880F991F8953924F2C813D81FC01318363
:10255000208381E007C089818F5F898389818330EF
:10256000E8F280E00F900F900F900F900F90DF91A6
:10257000CF910895CF93DF9300D0CDB7DEB79A8384
:10258000898389819A81FC01418189819A818F5750
:102590009F4FFC01808191819C0189819A810296E3
:1025A000B901681B790BCB01742F781B872F0F9013
:1025B0000F90DF91CF910895CF93DF931F92CDB706
:1025C000DEB7198211C08981282F30E0C901880F38
:1025D000991F880F991F820F931F8F52924FFC01F2
:1025E000108289818F5F89838981823360F384E6D9
:1025F00090E0A0E0B0E08093CE0E9093CF0EA09339
:10260000D00EB093D10E1092D20E8BED94E1909338
:10261000D40E8093D30E6CEF75E180E00E94A00B86
:1026200000000F90DF91CF910895CF93DF9300D0FA
:1026300000D0CDB7DEB79C838B838B819C81FC015E
:1026400080819181FC0180818C3041F48B819C815F
:10265000FC018281873008F064C011C18B819C81AC
:10266000FC0180819181FC0180818C3C91F08B8107
:102670009C81FC0180819181FC0180818C3849F032
:102680008B819C81FC0180819181FC0180818C3453
:1026900041F48B819C81FC018281833008F041C030
:1026A000EEC08B819C81FC01808191810196FC01AF
:1026B00080818838D1F48B819C81FC01808191815B
:1026C000FC018081813651F08B819C81FC018081ED
:1026D0009181FC018081813409F0C6C08B819C818D
:1026E000FC0182818031E8F4BFC08B819C81FC01B8
:1026F000808191810196FC018081803809F0B6C00B
:102700008B819C81FC0180819181FC0180818823E7
:1027100009F0AEC08B819C81FC0182818B3008F472
:10272000A7C08B819C81FC01808191810196FC0175
:102730008081883851F08B819C81FC01808191815E
:102740000196FC0180818038D9F40E9499109A8307
:10275000898389819A81892B09F48CC08B819C8122
:10276000FC01808191810196FC018081883811F4FF
:1027700020E201C025E289819A81FC01208346C0C4
:102780008B819C81FC0180819181FC0180818C3056
:1027900081F481E00E940B119A83898389819A8157
:1027A000892B09F469C089819A8126E2FC01208382
:1027B0002DC080E00E940B119A83898389819A81C0
:1027C000892B09F45BC08B819C81FC018081918104
:1027D000FC0180818C3831F489819A8128E2FC01E6
:1027E000208314C08B819C81FC0180819181FC013C
:1027F00080818C3C31F489819A8127E2FC0120831D
:1028000005C089819A8129E2FC0120838B819C810A
:10281000FC01228189819A81FC0121838B819C8129
:10282000FC01238189819A818D579F4FFC01208370
:102830008B819C81FC01248189819A818C579F4FD7
:10284000FC0120838B819C81FC018281482F50E018
:102850008B819C81FC012081318189819A81029642
:10286000B9010E9413550BC0000009C0000007C049
:10287000000005C0000003C0000001C000000F9070
:102880000F900F900F90DF91CF910895CF93DF932A
:1028900000D000D000D0CDB7DEB79E838D830E94DC
:1028A00099109A83898389819A81892B09F46BC055
:1028B0008D819E81FC01818120E1280F8D819E8187
:1028C000FC0121838D819E818F579F4FFC01808168
:1028D00091819C01205F3F4F8D819E818F579F4F3B
:1028E000FC013183208389819A810E94EF118981C3
:1028F0009A81FC01818123E0280F89819A81FC0162
:10290000218389819A8189579F4FFC01118210820E
:102910008D819E81FC01838581FB222720F989819D
:102920009A812170220FFC0133853D7F232BFC010E
:1029300023878D819E81FC012585368589819A8139
:10294000FC01308B278789819A818F579F4FFC012B
:10295000808191819C838B838B819C81FC0110827F
:102960002091C70E8B819C81FC0122838D819E81E9
:10297000FC0124858B819C81FC01218389819A81C2
:102980000E943E1C01C0000026960FB6F894DEBFE0
:102990000FBECDBFDF91CF910895CF93DF931F92EC
:1029A000CDB7DEB7898389818093C70E00000F9071
:1029B000DF91CF910895CF93DF9300D000D0CDB7B2
:1029C000DEB79C838B8319821A8230C08A81282FBC
:1029D00030E0C901880F991F880F991F820F931F3C
:1029E0008F52924FFC0180818823E9F08A81282F41
:1029F00030E0C901880F991F880F991F820F931F1C
:102A00008F52924FFC0180814FEF480FC901880F10
:102A1000991F880F991F820F931F8F52924FFC01AD
:102A2000408381E089838A818F5F8A838A818233B0
:102A300068F28981882321F08B819C810E948C24FB
:102A400000000F900F900F900F90DF91CF9108959D
:102A5000CF93DF93CDB7DEB729970FB6F894DEBFDB
:102A60000FBECDBF998788871A8219821B8290C0BA
:102A70008B81282F30E0C901880F991F880F991F7B
:102A8000820F931F8353924F9D838C838C819D81F2
:102A9000FC018481882309F46EC088859985FC0136
:102AA000238534858C819D81FC018081918128174B
:102AB000390709F060C08C819D81FC0122818885E5
:102AC0009985FC018285F22FF81B8F2F8E838E81D2
:102AD000883058F58C819D81FC018381882F90E09E
:102AE0002E81222F30E002C0959587952A95E2F736
:102AF00081709927892B11F081E075C08C819D81AF
:102B0000FC018381482F8E81282F30E081E090E006
:102B100002C0880F991F2A95E2F7842B282F8C81F9
:102B20009D81FC01238380E05EC08E8181958F832F
:102B300088859985FC0122858C819D81FC012283F9
:102B40008C819D81FC018381882F90E02F81222F31
:102B500030E002C0880F991F2A95E2F78160282F84
:102B60008C819D81FC0123838C819D8125E1FC0169
:102B7000248380E038C08C819D81FC01848188237E
:102B800021F48C819D819A8389838B818F5F8B83D4
:102B90008B81823308F46CCF89819A81892B11F45F
:102BA00081E021C088859985FC0123853485898150
:102BB0009A81FC013183208388859985FC012285D7
:102BC00089819A81FC01228389819A8121E0FC011B
:102BD000238389819A8125E1FC01248388EC9EE08E
:102BE0000E948C2480E029960FB6F894DEBF0FBEB9
:102BF000CDBFDF91CF910895CF93DF9300D0CDB7B4
:102C0000DEB79A83898389819A81FC018285882332
:102C100011F480E011C089819A81FC018085918541
:102C2000FC018081882F90E0892B29F489819A8189
:102C30000E94641D01C080E00F900F90DF91CF9142
:102C40000895CF93DF93CDB7DEB728970FB6F894EA
:102C5000DEBF0FBECDBF98878F838F819885029688
:102C60009B838A838F81988524E2FC0120838A815B
:102C70009B81FC0181858270882309F03BC18A8198
:102C80009B81FC0181858870882341F08A819B812A
:102C9000FC0181858170882309F02EC18A819B8186
:102CA000FC01838194810196D1F42091CE39309139
:102CB000CF398A819B81FC01858596852817390744
:102CC00041F08A819B81FC0185859685019609F0FA
:102CD00015C18F81988522E2FC0120830FC18A8172
:102CE0009B81FC0185859685019641F48A819B81B3
:102CF000FC0181858170882309F002C12091CE39C1
:102D00003091CF398A819B81FC0183859485281776
:102D1000390709F4F7C08A819B810E94281588230E
:102D200009F0F2C08A819B81FC018185887088232B
:102D300009F4A9C08F8198858F579F4FFC0180812E
:102D400091819D838C838A819B81FC0185859685F9
:102D50000E9459128E8319828A819B81FC01858190
:102D60009681019609F061C08E81882379F18C816A
:102D70009D81FC0181818F70882F90E021E01816E1
:102D800019060CF020E029838C819D81FC01818152
:102D90008F702FE0280F2F708C819D812F70FC0188
:102DA0003181307F232BFC0121838C819D81FC01AB
:102DB0008081282F22952F708C819D812F70FC019E
:102DC0003081307F232BFC0120833BC08C819D818F
:102DD000FC0180818F70882F90E021E01816190681
:102DE0000CF020E029838C819D81FC0180818F7013
:102DF0002FE0280F2F708C819D812F70FC01308176
:102E0000307F232BFC0120838C819D81FC018181FB
:102E1000282F22952F708C819D812F70FC0131818C
:102E2000307F232BFC0121830CC08E81882349F045
:102E300081E089838A819B81FC0121852460FC01DA
:102E400021878981882321F08F8198850E94D51C54
:102E50008E81882309F459C08F8198858F579F4FA1
:102E6000FC01808191819C012E5F3F4F8F8198856D
:102E70008F579F4FFC01318320838F81988522E2F9
:102E8000FC01208342C08A819B81FC01858196815F
:102E90000196B9F42091CE393091CF398A819B8146
:102EA000FC01858596852817390759F08A819B8111
:102EB000FC0181858470882321F48F8198850E948C
:102EC000D51C2091CE393091CF398A819B81FC016C
:102ED000858596852817390739F08A819B81FC0101
:102EE00085859685019689F48F81988522E2FC017B
:102EF00020830BC0000009C0000007C0000005C00F
:102F0000000003C0000001C0000028960FB6F8942E
:102F1000DEBF0FBECDBFDF91CF910895CF93DF937A
:102F2000CDB7DEB761970FB6F894DEBF0FBECDBF49
:102F3000998B888B8889998902969A83898389815C
:102F40009A81FC01878582958F70882F90E0039687
:102F5000880F991F8253964CFC0180819181892BA7
:102F600011F480E0D9C089819A81FC018385948520
:102F70009C838B8389819A81FC01858596859E83BC
:102F80008D8389819A81FC0187858F708F838981E8
:102F90009A81FC01878582958F70888788899989B5
:102FA0008F579F4FFC01808191819C878B878889F7
:102FB00099890E94BA128D87888999898D579F4F68
:102FC000FC0180818E87888999898C579F4FFC01ED
:102FD00080818F8789819A81FC018185982F9170EA
:102FE00081E0992309F480E0882F90E09A8789870F
:102FF00029853A8589819A81FC018185882F90E015
:1030000082709927822B932B9A87898729853A8505
:1030100089819A81FC0181858470882319F080E27E
:1030200090E002C080E090E0822B932B9A87898702
:1030300029853A8589819A81FC0181858870882358
:1030400019F080E490E002C080E090E0822B932BA6
:103050009A87898729853A8589819A81FC018185AA
:103060008071882319F080E890E002C080E090E051
:10307000822B932B9A87898729853A8589819A8122
:10308000FC0185859685019619F484E090E002C0E4
:1030900080E090E0822B932B9A87898729853A8557
:1030A00089819A81FC014385548589819A81FC013B
:1030B000878190854817590719F488E090E002C08D
:1030C00080E090E0822B932B9A87898729853A8527
:1030D00089819A81FC0183819481019619F480E1B0
:1030E00090E002C080E090E0822B932B9A87898742
:1030F00089819A81FC01878582958F70882F90E065
:103100000396880F991F8253964CFC0120813181D0
:10311000CE010396F901099561960FB6F894DEBFCA
:103120000FBECDBFDF91CF910895CF93DF93CDB781
:10313000DEB761970FB6F894DEBF0FBECDBF998B97
:10314000888B8889998902969A8389838889998945
:1031500024E2FC0120838091D4399091D539892BC8
:1031600011F480E044C088899989FC0187819085A9
:103170009C838B8388899989FC01878190859E83B4
:103180008D831F821886888999898F579F4FFC01EC
:10319000808191819C878B87888999890E94BA1246
:1031A0008D87888999898D579F4FFC0180818E87F3
:1031B000888999898C579F4FFC0180818F8780E88F
:1031C00090E09A87898789819A81FC018785829519
:1031D0008F70882F90E00396880F991F8253964C2A
:1031E000FC0120813181CE010396F9010995619698
:1031F0000FB6F894DEBF0FBECDBFDF91CF9108951B
:10320000CF93DF93CDB7DEB72F970FB6F894DEBF1D
:103210000FBECDBF9F878E878E859F8524E2FC01E0
:1032200020838091D4399091D539892B11F480E095
:103230002AC01A8219821C821B821D821E828E85E0
:103240009F8502969A8789878E859F850E94BA12EC
:103250008B878E859F858D579F4FFC0180818C8742
:103260008E859F858C579F4FFC0180818D8780E0E4
:1032700091E098878F832091D4393091D539CE0150
:103280000196F90109952F960FB6F894DEBF0FBE8F
:10329000CDBFDF91CF910895CF93DF93CDB7DEB748
:1032A00061970FB6F894DEBF0FBECDBF998B888BA8
:1032B0008889998902969A8389838889998924E2E1
:1032C000FC0120838091DA399091DB39892B11F44C
:1032D00080E02EC01C821B821E821D821F821886E7
:1032E000888999898F579F4FFC01808191819C87A4
:1032F0008B87888999890E94BA128D8788899989D4
:103300008D579F4FFC0180818E87888999898C57C2
:103310009F4FFC0180818F8780E092E09A878987A8
:103320002091DA393091DB39CE010396F901099504
:1033300061960FB6F894DEBF0FBECDBFDF91CF917F
:103340000895CF93DF93CDB7DEB761970FB6F894AA
:10335000DEBF0FBECDBF998B888B88899989029675
:103360009A8389838889998924E2FC01208380914A
:10337000D6399091D739892B11F480E02EC01C8268
:103380001B821E821D821F821886888999898F5709
:103390009F4FFC01808191819C878B8788899989C7
:1033A0000E94BA128D87888999898D579F4FFC0199
:1033B00080818E87888999898C579F4FFC018081F5
:1033C0008F8780E094E09A8789872091D639309161
:1033D000D739CE010396F901099561960FB6F89495
:1033E000DEBF0FBECDBFDF91CF910895CF93DF93A6
:1033F000CDB7DEB761970FB6F894DEBF0FBECDBF75
:10340000998B888B8889998902969A838983888980
:10341000998924E2FC0120838091DC399091DD3987
:10342000892B11F480E02EC01C821B821E821D821B
:103430001F821886888999898F579F4FFC01808148
:1034400091819C878B87888999890E94BA128D8780
:10345000888999898D579F4FFC0180818E87888943
:1034600099898C579F4FFC0180818F8780E090E481
:103470009A8789872091DC393091DD39CE01039616
:10348000F901099561960FB6F894DEBF0FBECDBF66
:10349000DF91CF910895CF93DF9300D01F92CDB7E6
:1034A000DEB79B838A831092C70E8A819B810E941C
:1034B0008E1789838A819B81FC0183858170882393
:1034C00009F419828A819B81FC018781908501968C
:1034D000A9F42091CE393091CF398A819B81FC01AA
:1034E000878590892817390749F48A819B81FC01D7
:1034F00083858870882311F481E089838A819B8188
:10350000FC0185819681019609F419828091CE395A
:103510009091CF39019609F419828981882321F08D
:103520008A819B810E9446148A819B8124E2FC014E
:10353000208300000F900F900F90DF91CF9108959E
:10354000CF93DF9300D0CDB7DEB71A8219823FC088
:1035500089819A81FC018081882F90E0092E000CDE
:10356000AA0BBB0B40E250E029E030E0841B950B36
:103570002817390760F183569F4FFC010C949D5228
:1035800089819A810E94211622C089819A810E9494
:103590004B1A1DC089819A810E94A31118C089818C
:1035A0009A810E94951813C089819A810E940019FE
:1035B0000EC089819A810E944C1909C089819A8123
:1035C0000E94A11989819A810E94F61900008981BF
:1035D0009A810E94BD119A83898389819A81892B5E
:1035E00009F0B6CF00000F900F90DF91CF910895B2
:1035F000CF93DF93CDB7DEB71092D60E1092D50ED3
:1036000082E390E0A0E0B0E08093DD0E9093DE0EC8
:10361000A093DF0EB093E00E1092E10E83EB9DE1DC
:103620009093E30E8093E20E8AE090E0A0E0B0E099
:103630008093EA0E9093EB0EA093EC0EB093ED0EF8
:103640001092EE0E8DE19EE19093F00E8093EF0EBE
:103650000000DF91CF910895CF93DF9300D000D089
:10366000CDB7DEB79C838B838B819C8102969A8336
:1036700089838B819C8123E1FC0120838B819C8148
:103680008D579F4FFC0110828B819C818C579F4FDF
:10369000FC011182108289819A8120E030E8FC01CE
:1036A000318320838091D3398F5F8093D3392091E8
:1036B000D33989819A81FC0122832091D0393091BC
:1036C000D13989819A81FC01348323832091CE39B9
:1036D0003091CF3989819A81FC013683258300009E
:1036E0000F900F900F900F90DF91CF910895CF938F
:1036F000DF9300D000D0CDB7DEB79C838B838B8166
:103700009C8102969A8389838B819C8123E1FC01B1
:1037100020838B819C818D579F4FFC0110828B8170
:103720009C818C579F4FFC011182108289819A8164
:103730002CE0FC0120838091D3398F5F8093D339B3
:103740002091D33989819A81FC01218389819A81D1
:10375000FC012281287FFC01228389819A81FC015E
:103760002281277EFC01228389819A81FC012281AA
:103770002F7DFC01228389819A81FC0122812F7B8C
:10378000FC01228300000F900F900F900F90DF91AB
:10379000CF910895CF93DF9300D000D000D0CDB764
:1037A000DEB79C838B837E836D838B819C810296A5
:1037B0009A8389838B819C8123E1FC0120838B8107
:1037C0009C818D579F4FFC0110828B819C818C576F
:1037D0009F4FFC01118210828D819E81992334F4C8
:1037E00089819A812CECFC01208317C08D819E81F8
:1037F00088279072892B31F089819A812CE4FC0111
:1038000020830BC08D819E8188279074892B29F09D
:1038100089819A812CE8FC0120838091D3398F5FC4
:103820008093D3392091D33989819A81FC012183F6
:1038300089819A81FC012281287FFC012283898170
:103840009A81FC012281277EFC01228389819A8151
:10385000FC0122812F7DFC01228389819A81FC0158
:1038600022812F7BFC012283000026960FB6F8945C
:10387000DEBF0FBECDBFDF91CF910895CF93DF9311
:1038800000D000D0CDB7DEB79C838B838B819C8129
:1038900002969A8389838B819C818A579F4FFC0172
:1038A0008081882F90E082709927892B31F08B815D
:1038B0009C8122E1FC01208305C08B819C8122E157
:1038C000FC0120838B819C818D579F4FFC011082CE
:1038D0008B819C818A579F4FFC018081882F90E0CB
:1038E00081709927892B41F089819A812FEF3FEFD1
:1038F000FC013483238309C02091D0393091D13920
:1039000089819A81FC013483238389819A81FC0116
:103910002585368589819A81FC013683258320910E
:10392000CE393091CF3989819A81FC013087278344
:103930008091D3398F5F8093D3392091D339898196
:103940009A81FC01228389819A81FC01858196817B
:103950000196A9F489819A8121E438E8FC01318338
:1039600020830E9421548770992701969C018B81A6
:103970009C818C579F4FFC01318320830EC089812D
:103980009A8121E438E8FC01318320838B819C817A
:103990008C579F4FFC011182108200000F900F90F6
:1039A0000F900F90DF91CF910895CF93DF9300D0C8
:1039B00000D0CDB7DEB79C838B830E9499109A8389
:1039C000898389819A81892B09F476C089819A81BA
:1039D0008F579F4FFC01808191819C01205F3F4F59
:1039E00089819A818F579F4FFC0131832083898180
:1039F0009A8122E1FC0120838B819C81FC01218141
:103A000089819A81FC01218389819A818D579F4FF9
:103A1000FC0110820E9421548770992701969C0115
:103A200089819A818C579F4FFC0131832083898142
:103A30009A8189579F4FFC01118210828B819C8152
:103A4000FC018181482F50E08B819C819C012E5F7D
:103A50003F4F89819A810296B9010E94135589814D
:103A60009A8121E438E8FC013383228389819A8199
:103A70002FEF3FEFFC01308727838B819C81FC0176
:103A80002581368189819A81FC01368325832091A5
:103A9000CE393091CF3989819A81FC0132872187D3
:103AA0008091D3398F5F8093D3392091D339898125
:103AB0009A81FC01248301C000000F900F900F90A9
:103AC0000F90DF91CF910895CF93DF9300D000D076
:103AD00000D0CDB7DEB79E838D838D819E81FC01A2
:103AE000808591859C838B831A8219828D819E812A
:103AF000FC018285833019F180E02CC089819A8194
:103B0000FC0180818631D9F489819A81FC01248568
:103B10008B819C81FC018181281789F489819A819C
:103B200027E1FC0120838B819C81FC01228189811A
:103B30009A818A579F4FFC01208381E00BC08981C5
:103B40009A810E94BD119A83898389819A81892BE8
:103B5000A9F680E026960FB6F894DEBF0FBECDBF63
:103B6000DF91CF910895CF93DF9300D000D01F92C3
:103B7000CDB7DEB79D838C831A8219821B8227C042
:103B800089819A81FC018081863109F581E08B83EE
:103B900089819A818C579F4FFC01808191819C0182
:103BA0002150310989819A818C579F4FFC013183C3
:103BB000208389819A818C579F4FFC01808191815C
:103BC000892B29F489819A8160E10E94011E8981F3
:103BD0009A810E94BD119A83898389819A81892B58
:103BE00079F68B81882321F08C819D810E948C2421
:103BF00000000F900F900F900F900F90DF91CF91DA
:103C00000895CF93DF9300D01F92CDB7DEB79A838C
:103C100089836B8389819A8127E1FC0120838981D3
:103C20009A818D579F4F2B81FC01208300000F90BC
:103C30000F900F90DF91CF910895CF93DF9300D035
:103C400000D01F92CDB7DEB79D838C831A82198274
:103C50001B8227C089819A81FC018081813109F50D
:103C600081E08B8389819A818C579F4FFC018081F1
:103C700091819C012150310989819A818C579F4FF4
:103C8000FC013183208389819A818C579F4FFC01ED
:103C900080819181892B29F489819A8123E1FC011A
:103CA000208389819A810E94BD119A8389838981A9
:103CB0009A81892B79F68B81882321F08C819D81D3
:103CC0000E948C2400000F900F900F900F900F9087
:103CD000DF91CF910895CF93DF931F92CDB7DEB7D9
:103CE00089838981882F90E08130910539F0823075
:103CF000910531F0892B31F480E005C080E203C0EA
:103D000081E201C081E00F90DF91CF9108950F9380
:103D10001F93CF93DF931F92CDB7DEB789830091B6
:103D2000D50E1091D60E89810E946B1E282FC801D6
:103D30008D579F4FFC0120838091D50E9091D60E18
:103D400025E1FC0120831092D60E1092D50E8091B1
:103D5000F4399091F53901979093F5398093F439BE
:103D600000000F90DF91CF911F910F910895CF9395
:103D7000DF9300D0CDB7DEB71A821982B3C0898134
:103D80009A81FC018081882F90E08431910509F4AB
:103D9000A9C08531910534F48231910579F04397BA
:103DA00031F19FC08631910509F49CC0863191059F
:103DB0000CF443C0479709F47AC093C089819A8173
:103DC0008C579F4FFC0180819181892B51F0898113
:103DD0009A8121E1FC01208384EE9EE00E948C24E4
:103DE00081C089819A8123E1FC0120837BC080917D
:103DF000D50E9091D60E892B09F074C089819A81D5
:103E00009093D60E8093D50E89819A8124E1FC018E
:103E1000208389819A81FC01218189819A8102967E
:103E2000622F0E94ED218091F4399091F53901962D
:103E30009093F5398093F43955C089819A818D57D3
:103E40009F4FFC018081882361F589819A81FC0163
:103E5000258536858091CE399091CF39281739073D
:103E6000D1F489819A81FC0183858170882399F03E
:103E700089819A8126E1FC01208389819A818C576E
:103E80009F4F25E130E0FC013183208387ED9EE0E8
:103E90000E948C240BC089819A8127E1FC01208338
:103EA00021C089819A8127E1FC0120831BC089817F
:103EB0009A8189579F4FFC0180819181892B29F438
:103EC00089819A810E94A3110DC089819A818957A5
:103ED0009F4FFC012081318189819A81F9010995E7
:103EE00001C0000089819A810E94BD119A83898353
:103EF00089819A81892B09F042CF00000F900F90A1
:103F0000DF91CF910895CF93DF9300D0CDB7DEB787
:103F10009A83898389819A81892B09F47BC089815D
:103F20009A818837910549F461E080E00E94394028
:103F300060E180E00E9439406DC089819A81803CB7
:103F4000910529F462E080E00E94394063C08981D4
:103F50009A818C34910529F464E080E00E94394014
:103F600059C089819A818038910529F468E080E000
:103F70000E9439404FC089819A818434910529F487
:103F800060E280E00E94394045C089819A81803B8F
:103F9000910529F460E480E00E9439403BC08981AA
:103FA0009A81883B910529F460E880E00E943940BD
:103FB00031C089819A81883C910529F461E081E0D2
:103FC0000E94394027C089819A818039910529F45E
:103FD00068E081E00E9439401DC089819A81803A61
:103FE000910529F460E181E00E94394013C0898184
:103FF0009A818032914029F460E281E00E94394048
:1040000009C089819A818334914021F460E481E080
:104010000E94394000000F900F90DF91CF910895DA
:104020006150710981099109D9F708950F931F9380
:10403000CF93DF93CDB7DEB783E491E00E94831F77
:1040400089E391E0FC0120812160FC012083109232
:10405000720F81E08093F10E88E00E94CA228CE406
:1040600091E0FC0120812068FC0120830DE611E035
:104070000E942E22F80180838DE491E0FC012081D2
:104080002C7F2260FC0120838AE491E0FC012081E6
:10409000207F2360FC0120838DE491E0FC012081DE
:1040A0002860FC0120838DE491E0FC0120812460E4
:1040B000FC01208384E491E0FC0120812068FC0164
:1040C00020830000DF91CF911F910F910895CF932E
:1040D000DF93CDB7DEB789E391E0FC012081216059
:1040E000FC0120830000DF91CF910895CF93DF93EF
:1040F0001F92CDB7DEB7898389818823B1F08CE622
:1041000091E0FC0120812F70FC0120838CE691E07E
:10411000FC0120812E60FC0120838EE691E0FC01F1
:1041200020812061FC01208317C08CE691E0FC0116
:1041300020812F702063FC0120838CE691E0FC013C
:104140002081217F2860FC0120838EE691E0FC0124
:1041500020812F7EFC01208300000F90DF91CF9102
:104160000895CF93DF93CDB7DEB729970FB6F894B4
:10417000DEBF0FBECDBF898728E0CE010196FC01CE
:10418000322F11923A95E9F78985882349F180E029
:1041900090E00E94712180E090E00E944D21CE01CC
:1041A00001960E94082387E591E0FC0120812260AE
:1041B000FC01208387E591E0FC0120812061FC0166
:1041C000208387E591E0FC0120812F7DFC01208385
:1041D0008EE691E0FC0120812061FC0120830BC070
:1041E00087E591E0FC0110828EE691E0FC012081E0
:1041F0002F7EFC012083000029960FB6F894DEBFC5
:104200000FBECDBFDF91CF9108950F931F93CF9332
:10421000DF93CDB7DEB78FE691E0FC012081207FF0
:104220002360FC0120838FE691E0FC0120812F7048
:104230002068FC0120830DE611E00E942E22F80187
:1042400080830000DF91CF911F910F910895CF934C
:10425000DF931F92CDB7DEB7898389818093720F78
:104260000E94B32200000F90DF91CF910895CF9369
:10427000DF931F92CDB7DEB7898388E491E029816F
:104280002F712F71FC013081307E232BFC012083A4
:1042900000000F90DF91CF910895CF93DF9300D06E
:1042A00000D0CDB7DEB79C838B83CE0103969A8373
:1042B000898382E691E029813A81F9012081FC011C
:1042C000208383E691E029813A81F9012181FC0173
:1042D000208300000F900F900F900F90DF91CF91EF
:1042E0000895CF93DF9300D000D0CDB7DEB79C8385
:1042F0008B83CE0103969A83898380E691E029819E
:104300003A81F9012081FC01208381E691E0298135
:104310003A81F9012181FC01208300000F900F9068
:104320000F900F90DF91CF910895CF93DF931F925D
:10433000CDB7DEB7898385E491E029812F702F7096
:10434000FC013081307F232BFC01208300000F9083
:10435000DF91CF910895CF93DF93CDB7DEB78091F2
:10436000F10E823069F088E00E94CA2289E391E070
:10437000FC0120812260FC01208382E08093F10E09
:104380008DE491E0FC0120812B7FFC0120838DE4F2
:1043900091E0FC012081277FFC01208384E491E0EF
:1043A000FC0120812F77FC0120830000DF91CF9159
:1043B0000895CF93DF93CDB7DEB789E391E0FC0199
:1043C00020812D7FFC0120830E94B32281E0809315
:1043D000F10E0000DF91CF910895CF93DF9300D0CD
:1043E00000D0CDB7DEB79B838A836C8389E10E94BE
:1043F000CA228FE491E02FEFFC01208380E891E056
:104400002C812E5FFC012083198214C08981882FA2
:1044100090E08F579E4FAC018981882F90E02A81D0
:104420003B81820F931FFC018081FA018083898187
:104430008F5F898399818C81981740F383E0809303
:10444000F10E82E491E022E0FC01208300000F9055
:104450000F900F900F90DF91CF910895CF93DF933E
:1044600000D01F92CDB7DEB71A82198286E00E9473
:10447000CA221B8222C062E070E080E090E00E94CD
:10448000102086E491E0FC018081829586958770FA
:104490008370882F90E02B81222F30E002C0880F9C
:1044A000991F2A95E2F79C0189819A81822B932B8F
:1044B0009A8389838B818E5F8B838B818031D8F245
:1044C0000E94B32289819A810F900F900F90DF9103
:1044D000CF910895CF93DF9300D000D0CDB7DEB752
:1044E0009A8389837C836B838B819C8140E060E02D
:1044F0000E942D3389819A810E94393489819A8161
:104500000E946F3400000F900F900F900F90DF917A
:10451000CF910895CF93DF931F92CDB7DEB786E09A
:104520000E94CA228FE491E0FC0120812061FC01FD
:10453000208387E491E0FC01108200008FE491E089
:10454000FC018081829581708823C1F387E491E02A
:10455000FC0180818A5589830E94B32289810F9052
:10456000DF91CF910895CF93DF93CDB7DEB788E089
:104570000E94CA228FE491E02FEFFC0120838091FA
:10458000720F882319F086E10E94CA220000DF9191
:10459000CF910895CF93DF931F92CDB7DEB7898374
:1045A0008091F10E8230A9F48DE491E0FC0120812C
:1045B0002860FC0120838DE491E0FC0120812460CF
:1045C000FC01208384E491E0FC0120812068FC014F
:1045D000208382E491E023E0FC01208381E491E0E8
:1045E000FC0180818F718830A1F782E491E02981FC
:1045F000FC01208381E491E0FC0180818F71982F80
:104600008981981791F700000F90DF91CF9108955D
:10461000CF93DF9300D000D0CDB7DEB79C838B83E0
:104620008B819C819A83898324E631E089819A81F8
:10463000AC014F5F5F4F5A834983FC018081F901D0
:10464000808325E631E089819A81AC014F5F5F4F1D
:104650005A834983FC018081F901808326E631E099
:1046600089819A81AC014F5F5F4F5A834983FC0176
:104670008081F901808327E631E089819A81AC014C
:104680004F5F5F4F5A834983FC018081F90180832A
:1046900028E631E089819A81AC014F5F5F4F5A83F0
:1046A0004983FC018081F901808329E631E0898119
:1046B0009A81AC014F5F5F4F5A834983FC0180812F
:1046C000F90180832AE631E089819A81AC014F5F4C
:1046D0005F4F5A834983FC018081F90180838BE617
:1046E00091E029813A81F9012081FC0120830000B9
:1046F0000F900F900F900F90DF91CF910895CF936F
:10470000DF93CDB7DEB728970FB6F894DEBF0FBEA4
:10471000CDBF8091F10E823009F49EC08FE491E00C
:10472000FC01808183FB882780F9882309F459C024
:104730008BE791E0FC0180818B83198211C0898114
:10474000882F90E02981222F30E020583E4FF90138
:1047500020818E50914FFC01208389818F5F898356
:104760008981282F30E08B81882F90E001962817CF
:1047700039072CF382EF9EE09D838C838B818250DE
:104780008E838B81882F90E08E50914FFC01808129
:104790008F8387E491E0FC0180818A558887CE0170
:1047A00004960E941513000081E491E0FC018081D1
:1047B0008F718631C9F78FE491E0FC012081286078
:1047C000FC0120838CE491E0FC0120812F77FC0127
:1047D00020838CE491E0FC0120812068FC0120838F
:1047E0003CC08FE491E0FC01808186FB882780F942
:1047F000882399F181E491E0FC0180818F718931F6
:1048000019F582E491E0FC0180818295869587709C
:104810008A838A81882311F41A820EC08A818330A8
:1048200019F481E08A8308C08A81853019F482E016
:104830008A8302C083E08A830E94B32281E080934E
:10484000F10E8A810E94871E8FE491E0FC01208195
:104850002064FC01208301C0000028960FB6F89464
:10486000DEBF0FBECDBFDF91CF910895CF93DF9311
:10487000CDB7DEB70E9474240E9425330E94162013
:104880000E943F0B0000DF91CF910895CF93DF93FB
:10489000CDB7DEB70E947F230E943D0C0E944625C3
:1048A0000000DF91CF910895CF93DF931F92CDB792
:1048B000DEB78FE590E0FC0180818983F8948981DF
:1048C0000F90DF91CF910895CF93DF931F92CDB7D3
:1048D000DEB789838FE590E02981FC012083000009
:1048E0000F90DF91CF910895CF93DF93CDB7DEB7CF
:1048F0001092F6398EED96E20E94B34C0E94654C00
:1049000080E197E20E94FB4B1092740F1092730F9C
:104910000000DF91CF910895CF93DF9300D0CDB702
:10492000DEB79A83898389819A810E941B25982FFB
:1049300081E08927882321F089819A810E940926B4
:1049400000000F900F90DF91CF910895CF93DF93E8
:1049500000D000D000D0CDB7DEB79E838D831A8201
:1049600019828091730F9091740F9C838B8352C036
:104970002B813C818D819E812817390709F03FC02A
:1049800089819A81892B59F08B819C81FC0120813E
:10499000318189819A81FC013183208309C08B8117
:1049A0009C81FC01808191819093740F8093730F9F
:1049B0008B819C81FC0180819181892B89F18B8184
:1049C0009C81FC01608171818B819C81FC018081D3
:1049D0009181FC0122813381448155818D819E81A9
:1049E000FC0182819381A481B581820F931FA41F52
:1049F000B51FFB0182839383A483B58311C08B8190
:104A00009C819A8389838B819C81FC018081918127
:104A10009C838B838B819C81892B09F0A9CF01C05A
:104A20000000000026960FB6F894DEBF0FBECDBF83
:104A3000DF91CF910895CF93DF9300D000D0CDB711
:104A4000DEB79C838B838091730F9091740F9A8350
:104A5000898310C029813A818B819C81281739076D
:104A600011F481E00CC089819A81FC0180819181DF
:104A70009A83898389819A81892B61F780E00F90DD
:104A80000F900F900F90DF91CF910895EF92FF92CA
:104A90000F931F93CF93DF93CDB7DEB728970FB651
:104AA000F894DEBF0FBECDBF8091F639882309F49C
:104AB000A2C00E9454248D838091F6398E83109277
:104AC000F6398D810E9464248E81882F90E0A0E0C9
:104AD000B0E0880F991FAA1FBB1F9C01AD01220FD8
:104AE000331F441F551F220F331F441F551F820FB2
:104AF000931FA41FB51F89839A83AB83BC833DC0DA
:104B00008091730F9091740F98878F838091730FAA
:104B10009091740FFC0182819381A481B5812981D8
:104B20003A814B815C8179018A01E81AF90A0A0B02
:104B30001B0BD801C70189839A83AB83BC83809107
:104B4000730F9091740FFC01808191819093740F89
:104B50008093730F8F819885FC018285813021F4C9
:104B60008F8198850E9409268F819885FC01238575
:104B700034858F819885F90109958091730F909103
:104B8000740F892B99F08091730F9091740FFC0131
:104B9000228133814481558189819A81AB81BC8195
:104BA00082179307A407B50708F0AACF8091730F67
:104BB0009091740F892B01F16091730F7091740FB4
:104BC0008091730F9091740FFC0122813381448195
:104BD000558189819A81AB81BC8179018A01E81A6A
:104BE000F90A0A0B1B0BD801C701FB0182839383CF
:104BF000A483B58301C0000028960FB6F894DEBFE9
:104C00000FBECDBFDF91CF911F910F91FF90EF901D
:104C10000895EF92FF920F931F93CF93DF93CDB739
:104C2000DEB72A970FB6F894DEBF0FBECDBF9A87C6
:104C300089878091730F9091740F892B09F497C025
:104C40001A82198289859A85FC0186819781A085BF
:104C5000B1858B839C83AD83BE838091730F9091CC
:104C6000740F98878F834DC08F819885FC012281B6
:104C70003381448155818B819C81AD81BE818217B6
:104C80009307A407B507D8F48F819885FC0122818A
:104C90003381448155818B819C81AD81BE817901B5
:104CA0008A01E81AF90A0A0B1B0BD801C7012F81E8
:104CB0003885F90182839383A483B58327C08F81CC
:104CC0009885FC0182819381A481B5812B813C81EF
:104CD0004D815E8179018A01E81AF90A0A0B1B0BE2
:104CE000D801C7018B839C83AD83BE838F81988558
:104CF0009A8389838F819885FC018081918198872F
:104D00008F838F819885892B09F0AECF29853A85CD
:104D10008B819C81AD81BE81F90182839383A483C1
:104D2000B58389819A81892B91F089819A81FC01CF
:104D30002081318189859A85FC0131832083898195
:104D40009A8129853A85FC013183208329C02091ED
:104D5000730F3091740F89859A85FC01318320830C
:104D600089859A859093740F8093730F19C08985F4
:104D70009A85FC011182108289859A85FC018681C1
:104D80009781A085B18529853A85F901828393832E
:104D9000A483B58389859A859093740F8093730F4C
:104DA00000002A960FB6F894DEBF0FBECDBFDF918C
:104DB000CF911F910F91FF90EF900895CF93DF93C4
:104DC000CDB7DEB78091F6398F5F8093F63980E1F9
:104DD00097E20E94FB4B0000DF91CF910895CF93A3
:104DE000DF931F92CDB7DEB78FE590E0FC018081A5
:104DF0008983F89489810F90DF91CF910895CF93A3
:104E0000DF931F92CDB7DEB789838FE590E02981CC
:104E1000FC01208300000F90DF91CF910895CF9384
:104E2000DF93CDB7DEB780E094E2A4EFB0E0BC0141
:104E3000CD01DF91CF910895CF93DF93CDB7DEB74A
:104E40000E940F27DC01CB01BC01CD01DF91CF9186
:104E50000895CF93DF9300D0CDB7DEB79A838983CF
:104E600089819A81892B21F480E090E0DC01A3C044
:104E700089819A818837910529F40E941C27DC01D9
:104E8000CB0199C089819A81803C910529F40E94C7
:104E90001C27DC01CB018FC089819A818C3491055C
:104EA00029F40E941C27DC01CB0185C089819A81ED
:104EB0008038910529F40E941C27DC01CB017BC0BE
:104EC00089819A818434910529F40E941C27DC0190
:104ED000CB0171C089819A81803B910529F40E94A0
:104EE0001C27DC01CB0167C089819A81803C910538
:104EF00029F40E941C27DC01CB015DC089819A81C5
:104F0000883B910529F40E941C27DC01CB0153C08A
:104F100089819A818039910529F40E941C27DC013E
:104F2000CB0149C089819A81803A910529F40E9478
:104F30001C27DC01CB013FC089819A8180329140DE
:104F400029F40E941C27DC01CB0135C089819A819C
:104F50008334914029F40E941C27DC01CB012BC033
:104F600089819A818533914029F40E941C27DC01B4
:104F7000CB0121C089819A818433914029F40E9418
:104F80001C27DC01CB0117C089819A8183339140B2
:104F900029F40E941C27DC01CB010DC089819A8174
:104FA0008233914029F40E941C27DC01CB0103C00D
:104FB00080E090E0DC01BC01CD010F900F90DF910B
:104FC000CF910895CF93DF9300D01F92CDB7DEB776
:104FD0009A8389836B8389819A818038910559F4FA
:104FE00081E890E021E830E0F90130812B81232B2A
:104FF000FC0120832FC089819A818039910559F461
:1050000081E990E021E930E0F90130812B81232B07
:10501000FC0120831FC089819A81803A910559F44F
:1050200081EA90E021EA30E0F90130812B81232BE5
:10503000FC0120830FC089819A818032914051F414
:1050400081E291E021E231E0F90130812B81232BD3
:10505000FC01208300000F900F900F90DF91CF9103
:105060000895CF93DF9300D0CDB7DEB79A838983BD
:1050700089819A818038910551F48FE690E02FE67E
:1050800030E0F90120812160FC0120832CC089815E
:105090009A818039910551F481E790E021E730E071
:1050A000F90120812160FC0120831DC089819A8142
:1050B000803A910551F482E790E022E730E0F9016F
:1050C00020812160FC0120830EC089819A81803279
:1050D000914049F483E790E023E730E0F901208133
:1050E0002160FC01208300000F900F90DF91CF9191
:1050F0000895CF93DF9300D0CDB7DEB79A8389832D
:1051000089819A818038910551F48FE690E02FE6ED
:1051100030E0F90120812260FC0120832CC08981CC
:105120009A818039910551F481E790E021E730E0E0
:10513000F90120812260FC0120831DC089819A81B0
:10514000803A910551F482E790E022E730E0F901DE
:1051500020812260FC0120830EC089819A818032E7
:10516000914049F483E790E023E730E0F9012081A2
:105170002260FC01208300000F900F90DF91CF91FF
:105180000895CF93DF9300D0CDB7DEB79A8389839C
:1051900089819A818038910551F48FE690E02FE65D
:1051A00030E0F90120812D7FFC0120832CC0898112
:1051B0009A818039910551F481E790E021E730E050
:1051C000F90120812D7FFC0120831DC089819A81F6
:1051D000803A910551F482E790E022E730E0F9014E
:1051E00020812D7FFC0120830EC089819A8180322D
:1051F000914049F483E790E023E730E0F901208112
:105200002D7FFC01208300000F900F90DF91CF9144
:105210000895CF93DF93CDB7DEB727970FB6F894F5
:10522000DEBF0FBECDBF9C838B836D835F834E83B8
:105230008B819C819A8389838D81882F90E0019650
:1052400029813A81820F931F2D81222F30E02F5F19
:105250003F4F49815A81240F351FF90140812E812A
:105260003F81232F3327242BFC0120838D81882F1E
:1052700090E029813A81820F931F2D81222F30E007
:1052800049815A81240F351FF90130812E81232B4A
:10529000FC012083000027960FB6F894DEBF0FBEF6
:1052A000CDBFDF91CF910895CF93DF9300D0CDB7DD
:1052B000DEB79A83898389819A818038910551F478
:1052C00086E390E026E330E0F90120812160FC01D3
:1052D00020832CC089819A818039910551F488E31B
:1052E00090E028E330E0F90120812160FC01208377
:1052F0001DC089819A81803A910551F489E390E03B
:1053000029E330E0F90120812160FC0120830EC0F7
:1053100089819A818032914049F48AE390E02AE3BE
:1053200030E0F90120812160FC01208300000F9012
:105330000F90DF91CF910895CF93DF9300D0CDB739
:10534000DEB79A83898389819A818038910551F4E7
:1053500086E390E026E330E0F90120812260FC0141
:1053600020832CC089819A818039910551F488E38A
:1053700090E028E330E0F90120812260FC012083E5
:105380001DC089819A81803A910551F489E390E0AA
:1053900029E330E0F90120812260FC0120830EC066
:1053A00089819A818032914049F48AE390E02AE32E
:1053B00030E0F90120812260FC01208300000F9081
:1053C0000F90DF91CF910895CF93DF9300D0CDB7A9
:1053D000DEB79A83898389819A818038910531F477
:1053E00084E890E0FC018081918123C089819A81C9
:1053F0008039910531F484E990E0FC01808191814C
:1054000018C089819A81803A910531F484EA90E04C
:10541000FC01808191810DC089819A818032914007
:1054200031F484E291E0FC018081918102C080E04E
:1054300090E00F900F90DF91CF910895CF93DF937D
:1054400000D000D01F92CDB7DEB79C838B836D83D5
:105450008B819C819A8389838D81882349F48981FA
:105460009A81FC01208189819A81FC0120830FC0EF
:105470008D81843061F489819A81019629813A81F4
:105480002F5F3F4FF90120812860FC01208300003D
:105490000F900F900F900F900F90DF91CF91089584
:1054A000CF93DF93CDB7DEB780E890E00E94E42988
:1054B000DF91CF910895CF93DF93CDB7DEB780E82A
:1054C00090E00E94C12880E890E00E949C290000A2
:1054D000DF91CF910895CF93DF93CDB7DEB780E80A
:1054E00090E00E949C2980E890E00E9479280000CA
:1054F000DF91CF910895CF93DF93CDB7DEB780E8EA
:1055000090E00E94312880E890E00E945429000039
:10551000DF91CF910895CF93DF93CDB7DEB780E8C9
:1055200090E00E9408320000DF91CF910895CF9360
:10553000DF9300D0CDB7DEB79A83898389819A81C2
:10554000AC0168E080E890E00E94092900000F901B
:105550000F90DF91CF910895CF93DF93CDB7DEB752
:105560000E94EF26DF91CF910895CF93DF931F9292
:10557000CDB7DEB7898389810E94FF2600000F9096
:10558000DF91CF910895CF93DF931F92CDB7DEB710
:1055900080E890E00E94EF316CE57BE280E890E0EB
:1055A0000E94213260E080E890E00E941E2A80E89C
:1055B00090E00E94312880E890E00E94FE2A80E876
:1055C00090E00E94C12861E080E890E00E94E2271C
:1055D00080E890E00E942927DC01CB0120E432E43E
:1055E0004FE050E0BC01CD010E947B52DA01C901BD
:1055F000898389810F90DF91CF910895CF93DF93B5
:1056000000D0CDB7DEB79A83898389819A818038AB
:10561000910579F089819A818039910551F08981CC
:105620009A81803A910529F089819A81803291404E
:1056300039F466E67BE280E890E00E94623236C090
:1056400089819A818138910579F089819A8181399E
:10565000910551F089819A81813A910529F08981DA
:105660009A818132914039F466E67BE280E890E0ED
:105670000E94A3321BC089819A818238910579F0FA
:1056800089819A818239910551F089819A81823A82
:10569000910529F089819A818232914039F466E638
:1056A0007BE280E890E00E94E43200C000000F90AE
:1056B0000F90DF91CF910895CF93DF93CDB7DEB7F1
:1056C0000E946C4C0000DF91CF910895CF93DF933F
:1056D000CDB7DEB70E94A44C0000DF91CF910895B2
:1056E000CF93DF931F92CDB7DEB78FE590E0FC013B
:1056F00080818983F89489810F90DF91CF910895FB
:10570000CF93DF931F92CDB7DEB789838FE590E00B
:105710002981FC01208300000F90DF91CF91089533
:10572000EF92FF920F931F93CF93DF93CDB7DEB726
:105730002C970FB6F894DEBF0FBECDBF6B837C8372
:105740008D839E832F83388749875A871C870B87D1
:105750008F819885A985BA858093750F9093760F70
:10576000A093770FB093780F8B859C859A8389835C
:105770008B819C81AD81BE8188279F5FAF4FBF4FDA
:105780008093790F90937A0FA0937B0FB0937C0F47
:105790008B819C81AD81BE8188270DE71FE020E0D1
:1057A00031E040E050E0BC01CD010E94832C2DE7A8
:1057B0003FE040E051E060E070E0CB010E94C45661
:1057C0002091750F3091760F4091770F5091780F9F
:1057D0008B819C81AD81BE81280F391F4A1F5B1FC1
:1057E0008091790F90917A0FA0917B0FB0917C0FEF
:1057F00082179307A407B507A0F48091790F9091C1
:105800007A0FA0917B0FB0917C0F9C018B819C81C2
:105810007901E81AF90AC70190937E1080937D10F0
:105820000CC08091750F9091760FA091770FB09179
:10583000780F90937E1080937D102091750F30919A
:10584000760F4091770F5091780F80917D10909155
:105850007E10CC01A0E0B0E079018A01E81AF90AD3
:105860000A0B1B0BD801C7018093750F9093760F1D
:10587000A093770FB093780F40917D1050917E10D8
:1058800029813A818B819C81AD81BE81BC01CD0192
:105890000E94C4568B819C81AD81BE81BC01CD012B
:1058A0000E94D1578091790F90917A0FA0917B0F30
:1058B000B0917C0F8B839C83AD83BE8380917D10E0
:1058C00090917E1029813A81820F931F9A83898358
:1058D0008091750F9091760FA091770FB091780F0E
:1058E000892B8A2B8B2B09F043CF00002C960FB607
:1058F000F894DEBF0FBECDBFDF91CF911F910F9106
:10590000FF90EF9008950F931F93CF93DF93CDB740
:10591000DEB762970FB6F894DEBF0FBECDBF6987C2
:105920007A878B879C872D873E874F87588B1A8B6A
:10593000098B0E94702B8B831A82198229C02989B6
:105940003A8989819A81B901680F791F89859A8579
:10595000AB85BC859C01AD012F5F3F4F4F4F5F4F23
:1059600029873A874B875C878C839D83AE83BF836F
:105970008C819D81AE81BF81ABBFFC0187918887FF
:105980008885FB01808389819A8101969A83898326
:1059900089819A819C0140E050E08D859E85AF858C
:1059A000B889281739074A075B0748F28B810E949C
:1059B000802B000062960FB6F894DEBF0FBECDBFFD
:1059C000DF91CF911F910F910895CF93DF931F9295
:1059D000CDB7DEB78FE590E0FC0180818983F89434
:1059E00089810F90DF91CF910895CF93DF931F921C
:1059F000CDB7DEB789838FE590E02981FC01208354
:105A000000000F90DF91CF910895CF93DF9300D0E6
:105A1000CDB7DEB79A83898389819A81892B09F46E
:105A20007BC089819A818837910549F461E080E0E3
:105A30000E94394060E180E00E9439406DC0898158
:105A40009A81803C910529F462E080E00E9439400F
:105A500063C089819A818C34910529F464E080E0E7
:105A60000E94394059C089819A818038910529F472
:105A700068E080E00E9439404FC089819A81843477
:105A8000910529F460E280E00E94394045C0898197
:105A90009A81803B910529F460E480E00E943940BE
:105AA0003BC089819A81883B910529F460E880E0B8
:105AB0000E94394031C089819A81883C910529F43E
:105AC00061E081E00E94394027C089819A81803954
:105AD000910529F468E081E00E9439401DC0898168
