:100000000C9487010C94A6010C94A6010C94A601F3
:100010000C94A6010C94A6010C94A6010C94A601C4
:100020000C94A6010C94A6010C94A6010C94A601B4
:100030000C94963D0C94A6010C94A6010C94A60178
:100040000C94A6010C94FE2C0C943B2D0C94782D52
:100050000C94C12C0C94A6010C94A6010C94A6013E
:100060000C94A6010C9492410C94A6010C94A60148
:100070000C94A6010C94A6010C94A6010C94A60164
:100080000C94F22D0C942F2E0C946C2E0C94B52DF8
:100090000C94A6010C94A6010C94A6010C94A60144
:1000A0000C94A6010C94A6010C94E62E0C94232F1C
:1000B0000C94602F0C94A92E0C94A6010C94DA2FAA
:1000C0000C9417300C9454300C949D2F0C94A60172
:1000D0000C94A6010C94A6010C94A6010C94A60104
:1000E0000C94A6010C94A6010C94A6010C94A601F4
:1000F0000C94A6010C94A6010C94A6010C94A601E4
:100100000C94A6010C94A7340C94E4340C9421357F
:100110000C946A340C945E350C94A6010C94A601E0
:1001200096094A0855089708AA08B708DD08CA08BA
:100130000C0924099E092D09621989196719891961
:100140006C19711976197B19841980196E616E000A
:10015000696E660000407A10F35A00A0724E1809CA
:100160000010A5D4E80000E87648170000E40B541E
:10017000020000CA9A3B000000E1F50500008096ED
:100180009800000040420F000000A086010000001F
:10019000102700000000E8030000000064000000D9
:1001A00000000A00000000000100000000002C76A2
:1001B000D888DC674F0823DFC1DFAE59E1B1B796BD
:1001C000E5E3E453C63AE651997696E8E6C284261A
:1001D000EB898C9B62ED407C6FFCEFBC9C9F40F2F6
:1001E000BAA56FA5F490055A2AF75C936B6CF96772
:1001F0006DC11BFCE0E40D47FEF520E6B500D0ED37
:10020000902E0300943577050080841E080000209E
:100210004E0A000000C80C333333330F986E12833C
:100220001141EF8D2114893BE65516CFFEE6DB1810
:10023000D1844B381BF77C1D901DA4BBE4242032D5
:1002400084725E228100C9F124ECA1E53D273300D0
:1002500019000C000600030002000100FF00A001CD
:10026000CF006700330019000C00070008004003AE
:10027000A001CF0067003300190010001000330008
:1002800019000C000600030002000100FF00A0019D
:10029000CF006700330019000C000700080040037E
:1002A000A001CF00670033001900100010003300D8
:1002B00019000C000600030002000100FF00A0016D
:1002C000CF006700330019000C000700080040034E
:1002D000A001CF00670033001900100010003300A8
:1002E00019000C000600030002000100FF00A0013D
:1002F000CF006700330019000C000700080040031E
:10030000A001CF0067003300190010001000112475
:100310001FBECFEFD1E4DEBFCDBF12E0A0E0B2E060
:10032000EAE8FDEA00E00BBF02C007900D92AC3A8C
:10033000B107D9F728E3ACEAB2E001C01D92A43FAF
:10034000B207E1F70E94A4090C9417550C94000021
:10035000CF93DF93CDB7DEB780E094E2A4EFB0E0B7
:10036000BC01CD01DF91CF910895CF93DF93CDB73D
:10037000DEB70E94A801DC01CB01BC01CD01DF91F9
:10038000CF910895CF93DF9300D0CDB7DEB79A8396
:10039000898389819A81FC018081282F226089814B
:1003A0009A81FC01208300000F900F90DF91CF9184
:1003B0000895CF93DF93CDB7DEB72B970FB6F894A0
:1003C000DEBF0FBECDBF998788877B876A878A8506
:1003D0009B85FC0184818D838A859B85FC018581B9
:1003E0008E838A859B85FC0186818F838A859B8588
:1003F000FC0180819181A281B38189839A83AB833F
:10040000BC83888599859E012F5F3F4FB9010E946B
:10041000EE38882311F081E001C080E02B960FB602
:10042000F894DEBF0FBECDBFDF91CF910895CF937B
:10043000DF9300D01F92CDB7DEB79A8389836B8399
:1004400089819A816B810E94FC3A0F900F900F90E6
:10045000DF91CF910895CF93DF9300D000D0CDB737
:10046000DEB79A8389837C836B8389819A810E941A
:100470001B3B282F8B819C81FC01208300000F9067
:100480000F900F900F90DF91CF910895CF93DF934E
:1004900000D000D0CDB7DEB79A8389837C836B838D
:1004A00089819A819093E8388093E73887E192E0D8
:1004B0009093E6388093E5388BE292E09093E438AD
:1004C0008093E3382B813C8189819A81B9010E9414
:1004D000D9016EEC7FE38DEE9FE30E94D0530000C4
:1004E0000F900F900F900F90DF91CF910895CF93C1
:1004F000DF93CDB7DEB78CED90E02CED30E0F90165
:1005000020812064FC0120838CED90E02CED30E014
:10051000F9012081277FFC0120830000DF91CF912A
:100520000895CF93DF93CDB7DEB78091C10290914C
:10053000C202892BC1F08091C1029091C202292F81
:100540002F938F9381E292E0892F8F9381E292E043
:100550008F930E9457540F900F900F900F9088EB3D
:1005600092E00E94F90A0000DF91CF910895CF93A5
:10057000DF9300D0CDB7DEB79A83898382E0809382
:10058000B70200000F900F90DF91CF910895CF93A5
:10059000DF93CDB7DEB70E94770282E08093B70287
:1005A0000000DF91CF910895CF93DF93CDB7DEB7F1
:1005B0008091E6028823F1F08091032B9091042B27
:1005C000A091052BB091062B2DEB37E346E857E3BE
:1005D000BC01CD010E946D4FDC01CB01BC01CD01FE
:1005E0000E94DF4FDC01CB0121E0AC01BD0181E0C5
:1005F0000E949F360E94770283E08093B70200003A
:10060000DF91CF910895CF93DF93CDB7DEB780917F
:10061000C1029091C2028115904419F482E0809346
:10062000B7020000DF91CF910895CF93DF93CDB74C
:10063000DEB783E08093B7028AE080930A0200006D
:10064000DF91CF910895CF93DF9300D000D01F9218
:10065000CDB7DEB78D838D81869586958695882F5B
:1006600090E09A8389838D81882F90E08770992705
:1006700028E030E0A901481B590BCA019C838B83F9
:1006800089819A81845B9E4EFC018081882F90E055
:100690000B8002C0959587950A94E2F7817099279F
:1006A000892BA9F08D81882F90E0292F2F938F938C
:1006B00082E392E0892F8F9382E392E08F930E94EE
:1006C00057540F900F900F900F9080E023C081E05F
:1006D00090E00B8002C0880F991F0A94E2F7282F40
:1006E00089819A81845B9E4EFC01208389819A8155
:1006F0009C012F5F3F4F8091CF029091D0028217D3
:1007000093073CF489819A8101969093D00280935B
:10071000CF0281E00F900F900F900F900F90DF911C
:10072000CF910895CF93DF9300D000D01F92CDB723
:10073000DEB79D838C83198203C089818F5F898393
:100740008981282F30E046E4429FC001439F900DED
:100750001124885F944DFC0180819181892B69F778
:100760008091E4029091E50201969093E5028093D6
:10077000E4028C819D81FC0184818F77282F30E0F9
:10078000809110028F77882F90E08217930764F48E
:100790008C819D81FC0184818F778F7790911002ED
:1007A0009078892B809310028981282F30E08C81EA
:1007B0009D81FC0184818F77582F46E4429FC001C0
:1007C000439F900D1124865F944DFC0150838981D5
:1007D000482F50E08C819D81FC018381282F30E0DF
:1007E00066E4649FC001659F900D1124885F944D5D
:1007F000FC01318320838981282F30E046E4429F29
:10080000C001439F900D1124895F944D2981FC0103
:1008100020838091CD029091CE02892B39F184E022
:1008200090E00E9457519B838A838981282F30E072
:1008300046E4429FC001439F900D11249C01295F13
:10084000344D8A819B81FC01318320832091CD022C
:100850003091CE028A819B81FC01338322838A817D
:100860009B819093CE028093CD0221C084E090E0E2
:100870000E9457519093CE028093CD028091CD0279
:100880009091CE022981422F50E066E4649F90014E
:10089000659F300D1124295F344DFC013183208385
:1008A0008091CD029091CE02FC0113821282000051
:1008B0000F900F900F900F900F90DF91CF910895B0
:1008C000CF93DF9300D0CDB7DEB78091CD0290916A
:1008D000CE02FC0180819181FC01808180930E0217
:1008E0008091CD029091CE02FC0180819181FC012A
:1008F0008181928180930F028091CD029091CE02EE
:100900009A8389838091CD029091CE02FC018281ED
:1009100093819093CE028093CD0289819A81FC01CC
:100920001182108289819A81FC011382128289814D
:100930009A810E94EF5100000F900F90DF91CF91AC
:100940000895CF93DF9300D000D000D0CDB7DEB7AD
:100950009E838D838D819E81FC0180859185FC0124
:1009600080818D3021F58D819E81FC01808591856E
:100970009C838B838B819C81FC0181810E9423035A
:100980008B819C81FC018181882F90E0292F2F93FE
:100990008F938FE392E0892F8F938FE392E08F9371
:1009A0000E9457540F900F900F900F902DC08D8183
:1009B0009E81FC0180859185FC0180818E3011F53E
:1009C0008D819E81FC01808591859A8389838981AF
:1009D0009A810E94920389819A81FC018381882FE8
:1009E00090E0292F2F938F938AE492E0892F8F93A1
:1009F0008AE492E08F930E9457540F900F900F90CB
:100A00000F9002C080E001C081E026960FB6F894F6
:100A1000DEBF0FBECDBFDF91CF910895CF93DF939F
:100A200000D000D000D0CDB7DEB79E838D838091FB
:100A3000E602882F90E002979C838B838D819E81B4
:100A4000FC018485582F2B813C8146E4429FC001E4
:100A5000439F900D1124855F944DFC0150832B81A1
:100A60003C8146E4429FC001439F900D1124885B66
:100A7000944DFC01808191819C012F5F3F4F4B8100
:100A80005C8166E4649FC001659F900D1124885BC2
:100A9000944DFC01318320838C818F938B818F93C4
:100AA00083E592E0892F8F9383E592E08F930E94F4
:100AB00057540F900F900F900F901A82198222C0F6
:100AC0008D819E81FC012085318589819A81820FEB
:100AD000931FFC018081882F90E0292F2F938F9303
:100AE00082E692E0892F8F9382E692E08F930E94B4
:100AF00057540F900F900F900F9089819A81019613
:100B00009A8389838D819E81FC018285282F30E024
:100B100089819A81821793079CF2000026960FB66E
:100B2000F894DEBF0FBECDBFDF91CF910895CF9374
:100B3000DF93CDB7DEB71092BE021092BD021092C5
:100B4000BF021092C00280E090E49093C2028093B2
:100B5000C1028BE491E19093C6028093C50280911B
:100B6000CF029091D0028F5F8093C7020000DF9187
:100B7000CF910895CF93DF9300D000D000D0CDB7B0
:100B8000DEB71092BE021092BD021092BF02109208
:100B9000C00280E494E09093C2028093C10210925C
:100BA000C6021092C5021092C7021A8219820BC0A7
:100BB00089819A81845B9E4EFC01108289819A8191
:100BC00001969A83898389819A8180978CF31C820C
:100BD0001B8255C02B813C8146E4429FC001439F4C
:100BE000900D1124885F944DFC01118210822B819D
:100BF0003C8146E4429FC001439F900D1124885BD5
:100C0000944DFC01118210822B813C8143E8429F6C
:100C1000C001439F900D112483599E4EFC01118207
:100C200010822B813C8143E8429FC001439F900D7D
:100C3000112481599E4EFC01118210821E821D8258
:100C400015C08B819C8146E4489F9001499F300DDF
:100C500011248D819E81820F931F845F944DFC012E
:100C600010828D819E8101969E838D838D819E81D0
:100C7000C2973CF38B819C8101969C838B838B81F3
:100C80009C81C2970CF4A6CF82E090E09093E5029D
:100C90008093E4021092D0021092CF021092E802E8
:100CA0001092E70210926C11000026960FB6F8948D
:100CB000DEBF0FBECDBFDF91CF910895CF93DF93FD
:100CC00000D0CDB7DEB71A8219820BC089819A8114
:100CD000845B9E4EFC01108289819A8101969A83E1
:100CE000898389819A8180978CF31092D002109227
:100CF000CF021092BE021092BD021092BF0210925B
:100D0000C00280E491E09093C2028093C1021092ED
:100D1000C6021092C5021092C70280911102882368
:100D200009F07BC08FE780936C1180916C11882F44
:100D300090E00396880F991F092E000CAA0BBB0B9D
:100D4000BC01CD010E941050DC01CB0120E030E05D
:100D500040E451E4BC01CD010E94014FDC01CB0114
:100D600020E030E040E252E4BC01CD010E94014F9E
:100D7000DC01CB0120E034E244E757E4BC01CD01C3
:100D80000E946D4FDC01CB018093032B9093042BC9
:100D9000A093052BB093062B8091032B9091042BED
:100DA000A091052BB091062B20E030E040E850E404
:100DB000BC01CD010E949C50DC01CB012DEB37E33F
:100DC00046E857E3BC01CD010E946D4FDC01CB0129
:100DD0008093D1029093D202A093D302B093D40215
:100DE00087EC92E00E9472370E94770281E00E94B5
:100DF000EB358091D1029091D202A091D302B091B3
:100E0000D402BC01CD010E94DF4FDC01CB0121E007
:100E1000AC01BD0181E00E949F3600000F900F9051
:100E2000DF91CF910895EF92FF920F931F93CF938D
:100E3000DF93CDB7DEB71092E602809110028F7774
:100E4000882F90E00396880F991F092E000CAA0B9B
:100E5000BB0BBC01CD010E941050DC01CB0120E096
:100E600030E040E451E4BC01CD010E94014FDC01BF
:100E7000CB0120E030E040E252E4BC01CD010E9411
:100E8000014FDC01CB0120E034E244E757E4BC0130
:100E9000CD010E946D4FDC01CB018093032B909319
:100EA000042BA093052BB093062B809110028F7713
:100EB00080936C111092BE021092BD021092BF027C
:100EC0001092C00280EC90E09093C2028093C10225
:100ED0001092C6021092C5021092C7028091E402DD
:100EE0009091E5020296092E000CAA0BBB0BBC01E7
:100EF000CD010E9410507B018C018091032B9091B9
:100F0000042BA091052BB091062B9C01AD01C801CB
:100F1000B7010E949C50DC01CB012DEB37E346E882
:100F200057E3BC01CD010E946D4FDC01CB018093E2
:100F3000D1029093D202A093D302B093D40284ED55
:100F400092E00E9472370E94770281E00E94EB35A6
:100F50008091032B9091042BA091052BB091062B2F
:100F60009C01AD01BC01CD010E94014FDC01CB0110
:100F70002DEB37E346E857E3BC01CD010E946D4FEE
:100F8000DC01CB01BC01CD010E94DF4FDC01CB01B4
:100F900021E0AC01BD0181E00E949F366EE075E06A
:100FA00081E00E94420A0000DF91CF911F910F91D2
:100FB000FF90EF900895CF93DF93CDB7DEB780E039
:100FC00090E00E94140A8FE00E94D91F81E00E94E5
:100FD000C91F82E090E0A0E0B0E08093DD02909332
:100FE000DE02A093DF02B093E0021092E10287EBF1
:100FF00092E09093E3028093E2028EEF9AEC0E94DB
:101000002B0A8EEF8093CC028EEF80934B1181E000
:101010000E94181F61EA74E083E00E94420A81E0A6
:101020000E94531F0000DF91CF910895CF93DF936B
:10103000CDB7DEB78091B702882F90E0823091055E
:1010400061F08330910579F0892B09F079C10E9414
:10105000DB0783E08093B70273C10E94910283E0B3
:101060008093B7026DC180910A02882F90E0092E0B
:10107000000CAA0BBB0B40E050E02BE030E0841BDF
:10108000950B2817390708F45AC180579F4FFC0168
:101090000C943F510E94BA0582E080930A0282E0DC
:1010A0008093B702109211024AC18091E702909199
:1010B000E8020C9721F080911102823078F12091A2
:1010C000E7023091E80280911102882F90E0432FCF
:1010D0004F932F93292F2F938F9387E692E0892F99
:1010E0008F9387E692E08F930E9457540F900F9052
:1010F0000F900F900F900F901092E8021092E7025D
:1011000082E00E9460361092C2021092C10281E019
:101110008093B70289E080930A0211C10E945E06A3
:1011200081E08093B70283E080930A0208C180E4E3
:1011300099E09093C2028093C1021092C60210926D
:10114000C5021092C70284E08093B70284E08093C6
:101150000A02F5C00E94970587ED92E00E942E23B7
:1011600085E080930A0281E08093B702E8C080E4C2
:1011700092E09093C2028093C1021092C602109234
:10118000C5021092C70281E08093B70287E0809386
:101190000A02D5C080E49AE09093C2028093C10213
:1011A0001092C6021092C5021092C70281E080938D
:1011B000B70286E080930A02C2C08091CD0290916E
:1011C000CE02892B29F10E94600480E090E8909380
:1011D000C2028093C1028BE092E09093C60280939A
:1011E000C50286E08093C70281E08093B70286E063
:1011F00080930A028091E7029091E8020196909311
:10120000E8028093E70287ED92E00E942E2397C0C8
:1012100088E080930A0293C080E492E19093C20236
:101220008093C1021092C6021092C5021092C702AA
:1012300081E08093B70282E080930A0280911102DC
:101240008F5F809311027BC00E94130782E080931E
:10125000B7028BE080930A0272C08091E602282FC9
:1012600030E08091E4029091E50228173907BCF044
:101270008FE692E0892F8F938FE692E08F930E9402
:1012800057540F900F9081E00E94603682E00E94D8
:10129000603681E08093B70210920A0250C08091BC
:1012A000E602823020F19091EB0281E089278823C9
:1012B000F1F08091E602882F90E0029746E4489F83
:1012C0009001499F300D1124265B344DF901208196
:1012D00031812F5F3F4F66E4689FA001699F500DE9
:1012E0001124CA01865B944DFC0131832083109246
:1012F000EB028091E602882F90E0292F2F938F93A5
:1013000082E892E0892F8F9382E892E08F930E9487
:1013100057540F900F900F900F9081E08093B70279
:101320008091E6028F5F8093E60209C01092C202AC
:101330001092C10281E08093B70201C0000000005A
:101340000000DF91CF9108950F931F93CF93DF9308
:10135000CDB7DEB727970FB6F894DEBF0FBECDBF6F
:101360000E94B53E0E94EA410E94D8220E94183491
:10137000789427E0ECE9F2E0CE010196DC010190DF
:101380000D922A95E1F7CE010196BC0180EC90E028
:101390000E94460280EC90E00E94C2010E94B501CA
:1013A000DC01CB018C019D0140E052EC61E070E07A
:1013B00080EC90E00E94973B0E94E8220E94160871
:1013C000FBCFCF93DF931F92CDB7DEB71092B73824
:1013D0001092B8381092B4381092B3381092DA38AC
:1013E0001092D93819820EC08981882F90E0039617
:1013F000880F991F8D54974CFC01118210828981AE
:101400008F5F89838981803178F30E949A190E94C5
:101410007E110E941C0F0E94ED0A0E94B81000006D
:101420000F90DF91CF910895CF93DF9300D0CDB788
:10143000DEB79A83898389819A819093B4388093A7
:10144000B33889819A810E94132000000F900F9079
:10145000DF91CF910895CF93DF9300D0CDB7DEB762
:101460009A83898389819A819093B6388093B5381D
:1014700089819A810E94EF1F00000F900F90DF91E9
:10148000CF910895CF93DF9300D01F92CDB7DEB7F1
:1014900089837B836A838981882F90E00396880FF4
:1014A000991F8D54974C2A813B81FC013183208305
:1014B00000000F900F900F90DF91CF910895CF9380
:1014C000DF93CDB7DEB78091D9389091DA3821E03B
:1014D000892B09F420E0822FDF91CF910895CF93DB
:1014E000DF93CDB7DEB78091D9389091DA38019685
:1014F0009093DA388093D9380000DF91CF91089526
:10150000CF93DF93CDB7DEB78091D9389091DA3899
:1015100001979093DA388093D9380000DF91CF910A
:101520000895CF93DF93CDB7DEB70E944D20000022
:10153000DF91CF910895CF93DF93CDB7DEB70E94AF
:101540007B200000DF91CF910895CF93DF93CDB73B
:10155000DEB72C970FB6F894DEBF0FBECDBF8C87D9
:1015600089E0E3EAF2E0DE01139601900D928A959C
:10157000E1F789E189831A8215C09C8589819817D2
:1015800058F48A81882F90E09E012D5F3F4F820F93
:10159000931FFC0180810AC08981875E89838A81CB
:1015A0008F5F8A838A81893040F38FEF2C960FB644
:1015B000F894DEBF0FBECDBFDF91CF910895CF93DA
:1015C000DF93CDB7DEB70E9442190E94591D0E94D9
:1015D000E60E0000DF91CF910895CF93DF93CDB752
:1015E000DEB71092F1021092F0020000DF91CF916D
:1015F0000895CF93DF9300D0CDB7DEB79A83898368
:1016000089819A81FC01148289819A81FC01128A64
:1016100089819A81FC01138212828091D93890913C
:10162000DA3801969093DA388093D9388091F002B5
:101630009091F102892B61F489819A81FC011182D8
:10164000108289819A819093F1028093F0020FC0F9
:101650002091F0023091F10289819A81FC0131835D
:10166000208389819A819093F1028093F002000097
:101670000F900F90DF91CF910895CF93DF93CDB767
:10168000DEB728970FB6F894DEBF0FBECDBF9887A0
:101690008F838F819885FC018185928580349105A7
:1016A00098F40E943B0F9A83898389819A81892BC0
:1016B00061F58F81988522E0FC0124838F819885D4
:1016C00022E0FC01228BCCC28F819885FC018185B0
:1016D000928580749927892B21F081E00E94AD0FBB
:1016E00003C080E00E94AD0F9A83898389819A812B
:1016F000892B59F48F81988522E0FC0124838F8106
:10170000988522E0FC01228BABC28F819885FC0179
:101710008185928580749927892B09F497C08981E6
:101720009A818A579F4FFC0110828F819885FC0116
:101730008185928580789927892B41F089819A81CA
:10174000FC012581287FFC01258334C08F81988589
:10175000FC018185928588279170892B49F08981C8
:101760009A81FC012581287F2460FC01258322C009
:101770008F819885FC018185928588279270892BBD
:1017800049F089819A81FC012581287F2660FC012E
:10179000258310C08F819885FC01818592858827DB
:1017A0009470892B39F089819A81FC012581276009
:1017B000FC01258389819A81FC012581277FFC0119
:1017C000258389819A81FC0125812F7EFC01258357
:1017D00089819A81FC0125812F712064FC01258378
:1017E0008F819885FC018185928588279870892B47
:1017F00031F089819A8121E0FC01278313C08F8118
:101800009885FC018185928588279071892B31F01C
:1018100089819A8122E0FC01278304C089819A8111
:10182000FC01178220916C1189819A81FC0120872B
:101830008EEF9AEC9C838B8389819A812EEFFC0139
:10184000268389819A810E94191AF5C18F81988512
:10185000FC0181859285992394F08F819885FC0104
:101860008185928588279072892B49F48F8198858C
:10187000FC018185928588279074892B99F18F814D
:101880009885FC012185328589819A81B9010E9460
:101890006C1A89819A818A579F4FFC0110828F812F
:1018A0009885FC018785482F50E08F819885FC0141
:1018B0002585368589819A818F579F4FFC018081CC
:1018C0009181B9010E94B55389819A81FC012181DE
:1018D0008F819885FC018785280F89819A81FC0179
:1018E0002183A9C18F819885FC01818592858072B1
:1018F0009927892B09F462C089819A818A579F4F61
:10190000FC01108289819A81FC012185207F286059
:10191000FC01218789819A81FC0121852F70206635
:10192000FC01218789819A81FC012285207F216029
:10193000FC01228789819A81FC0122852061FC01BA
:10194000228789819A81FC0122852064FC012287FB
:1019500089819A81FC0122852F77FC012287898168
:101960009A81FC01138689819A81FC0114868F81FA
:101970009885FC018785482F50E08F819885FC0170
:101980002585368589819A818F579F4FFC018081FB
:101990009181B9010E94B55389819A81FC0121810D
:1019A0008F819885FC018785280F89819A81FC01A8
:1019B000218389819A810E94CE193DC18F819885AA
:1019C000FC0181859285892B09F435C18F81988529
:1019D000FC01818592858470992721E0892B09F487
:1019E00020E089819A818A579F4FFC0120838F8153
:1019F0009885FC01818592858170992721E0892B4A
:101A000009F420E089819A812170FC0133853E7FB1
:101A1000232BFC0123878F819885FC01818592858A
:101A20008870992721E0892B09F420E089819A8127
:101A30002170220F220FFC0133853B7F232BFC01F9
:101A400023878F819885FC018185928580729927F3
:101A500021E0892B09F420E089819A812170229567
:101A6000207FFC0133853F7E232BFC0123878F8160
:101A70009885FC01818592858071992721E0892BC9
:101A800009F420E089819A812170220F220F220F10
:101A9000FC013385377F232BFC01238789819A81C1
:101AA000FC0183858870882309F462C089819A814A
:101AB0008F579F4FFC01808191819E838D838F8101
:101AC0009885FC018385282F2F708D819E812F7032
:101AD000FC013181307F232BFC0121838F8198858C
:101AE000FC018385282F2F708D819E812295207F78
:101AF000FC0131813F70232BFC0121838F8198856C
:101B0000FC018485282F2F708D819E812F70FC0110
:101B10003081307F232BFC0120838F819885FC014D
:101B20008485282F2F708D819E812295207FFC0136
:101B300030813F70232BFC01208389819A818F574C
:101B40009F4FFC01808191819C012E5F3F4F8981D5
:101B50009A818F579F4FFC013183208389819A811D
:101B6000FC01818122E0280F89819A81FC01218377
:101B70008091B7388F5F8093B7382091B7388981CB
:101B80009A81FC0124872091B3383091B43889813F
:101B90009A81FC01368725878F819885FC012581F4
:101BA000368189819A81FC01308B27878F819885C6
:101BB000FC018085282F2F7089819A812F70FC016C
:101BC0003189307F232BFC01218B8F819885FC018B
:101BD0008781282F2F7089819A812295207FFC018F
:101BE00031893F70232BFC01218B8F819885FC016B
:101BF0008785482F50E08F819885FC0125853685A3
:101C000089819A818F579F4FFC0180819181B90111
:101C10000E94B55389819A81FC0121818F81988529
:101C2000FC018785280F89819A81FC0121838981A4
:101C30009A810E94E01A8F81988529813A81FC015E
:101C4000338322838F81988521E0FC01248389815D
:101C50009A8189579F4F29E33EE0FC01318320831D
:101C600028960FB6F894DEBF0FBECDBFDF91CF919F
:101C70000895CF93DF9300D000D0CDB7DEB79C831B
:101C80008B838091F0029091F1029A8389832BC01B
:101C900089819A81FC01228133818B819C81281763
:101CA0003907D1F48B819C818D579F4FFC01208196
:101CB00089819A81FC01228B8B819C818A579F4F5D
:101CC000FC01208189819A81FC01238B89819A8181
:101CD00022E0FC0124830BC089819A81FC01808170
:101CE00091819A83898389819A81892B89F68B8155
:101CF0009C810E94451000000F900F900F900F9054
:101D0000DF91CF910895CF93DF9300D000D0CDB76E
:101D1000DEB79C838B832091F0023091F1028B819E
:101D20009C812817390761F48091F0029091F102AB
:101D3000FC01808191819093F1028093F00225C093
:101D40008091F0029091F1029A83898307C0898182
:101D50009A81FC01808191819A83898389819A810A
:101D6000FC01208131818B819C812817390779F70B
:101D700089819A81FC0180819181FC0120813181DE
:101D800089819A81FC01318320838091D938909197
:101D9000DA3801979093DA388093D9388B819C8117
:101DA000FC0180899189892B49F08B819C81FC0100
:101DB000208931898B819C81F901099500000F9060
:101DC0000F900F900F90DF91CF910895CF93DF93F5
:101DD00000D0CDB7DEB78091F0029091F1029A83E6
:101DE000898321C089819A81FC018481882F90E0B8
:101DF0008130910581F08230910541F0892B09F005
:101E00000BC089819A810E943D0B11C089819A8102
:101E10000E94830E0CC0000089819A81FC018081A0
:101E200091819A83898389819A81892BD9F60F9030
:101E30000F90DF91CF910895CF93DF931F92CDB78D
:101E4000DEB7198210C08981282F30E049E8429F0F
:101E5000C001439F900D11248E509D4FFC011082B4
:101E600089818F5F89838981843168F300000F90B5
:101E7000DF91CF910895CF93DF931F92CDB7DEB757
:101E8000198261C08981282F30E049E8429FC00152
:101E9000439F900D11248E509D4FFC01808188231B
:101EA00009F04EC08981282F30E049E8429FC001E7
:101EB000439F900D11248E509D4F49E850E060E003
:101EC00070E00E94BE538981282F30E049E8429F8C
:101ED000C001439F900D11248D509D4FFC01108235
:101EE0008981482F50E08981282F30E069E8629F7E
:101EF000C001639F900D112402969C012E503D4F0E
:101F000069E8649FC001659F900D11248D589C4F16
:101F1000FC01318320838091D9389091DA38019681
:101F20009093DA388093D9388981282F30E049E8B6
:101F3000429FC001439F900D11248E509D4F09C0B8
:101F400089818F5F89838981843108F49BCF80E008
:101F500090E00F90DF91CF910895CF93DF9300D061
:101F6000CDB7DEB78A83198285C08981282F30E0FA
:101F700049E8429FC001439F900D11248E509D4F10
:101F8000FC018081882309F072C08981282F30E00C
:101F900049E8429FC001439F900D11248E509D4FF0
:101FA00049E850E060E070E00E94BE538A818823D7
:101FB00079F08981282F30E049E8429FC001439F92
:101FC000900D11248D509D4F27E0FC0120830EC001
:101FD0008981282F30E049E8429FC001439F900D3E
:101FE00011248D509D4F23E0FC0120838981482FCF
:101FF00050E08981282F30E069E8629FC001639F2B
:10200000900D112402969C012E503D4F8981682F1E
:1020100070E0E9E8E69FC001E79F900D11248D5024
:102020009D4FFC018081882F90E0280F391F69E8BF
:10203000649FC001659F900D11248D589C4FFC0139
:10204000318320838091D9389091DA38019690932A
:10205000DA388093D9388981282F30E049E8429FC7
:10206000C001439F900D11248E509D4F09C089815E
:102070008F5F89838981843108F477CF80E090E095
:102080000F900F90DF91CF910895CF93DF9300D001
:10209000CDB7DEB79A83898389819A81FC0110824A
:1020A0008091D9389091DA3801979093DA388093FB
:1020B000D93800000F900F90DF91CF910895CF9302
:1020C000DF9300D0CDB7DEB79A83898389819A8167
:1020D000892B29F482EF92E09A83898316C0898143
:1020E0009A8187579F4F9A8389830FC089819A81EC
:1020F000FC018081882319F089819A810DC0898132
:102100009A8187579F4F9A83898389819A81865ABA
:102110009D4060F380E090E00F900F90DF91CF91B1
:102120000895CF93DF9300D0CDB7DEB79A8389832C
:1021300089819A818D579F4FFC0110828091B73819
:102140008F5F8093B7382091B73889819A81FC01DD
:1021500024872091B3383091B43889819A81FC0169
:102160003687258700000F900F90DF91CF9108955B
:10217000CF93DF931F92CDB7DEB719820FC089814D
:10218000882F90E0880F991F8A55924F2FEF3FEFCD
:10219000FC013183208389818F5F8983898183302A
:1021A00070F300000F90DF91CF910895CF93DF93EC
:1021B00000D0CDB7DEB79A83898389819A81BC012B
:1021C0008FEF9FEF0E9423110F900F90DF91CF911F
:1021D0000895CF93DF9300D0CDB7DEB79A8389837C
:1021E00089819A816FEF7FEF0E9423110F900F90EA
:1021F000DF91CF910895CF93DF9300D01F92CDB799
:10220000DEB79B838A83198214C08981882F90E06E
:10221000880F991F8A55924FFC01208131818A8154
:102220009B812817390711F481E007C089818F5FEE
:1022300089838981833048F380E00F900F900F905D
:10224000DF91CF910895CF93DF9300D000D01F92FC
:10225000CDB7DEB79B838A837D836C83198220C0D0
:102260008981882F90E0880F991F8A55924FFC0131
:10227000208131818A819B812817390771F48981F6
:10228000882F90E0880F991F8A55924F2C813D81AD
:10229000FC013183208381E007C089818F5F8983BE
:1022A00089818330E8F280E00F900F900F900F90BB
:1022B0000F90DF91CF910895CF93DF9300D0CDB7EA
:1022C000DEB79A83898389819A81FC014181898162
:1022D0009A818F579F4FFC01808191819C01898158
:1022E0009A810296B901681B790BCB01742F781B78
:1022F000872F0F900F90DF91CF910895CF93DF93A9
:102300001F92CDB7DEB7198211C08981282F30E026
:10231000C901880F991F880F991F820F931F80553D
:10232000924FFC01108289818F5F8983898182337A
:1023300060F384E690E0A0E0B0E08093AD0E90936F
:10234000AE0EA093AF0EB093B00E1092B10E8DE70B
:1023500093E19093B30E8093B20E6EE974E180E046
:102360000E94420A00000F90DF91CF910895CF9311
:10237000DF9300D000D0CDB7DEB79C838B838B81F9
:102380009C81FC0180819181FC0180818C3041F431
:102390008B819C81FC018281873008F064C011C16F
:1023A0008B819C81FC0180819181FC0180818C3C2E
:1023B00091F08B819C81FC0180819181FC01808165
:1023C0008C3849F08B819C81FC0180819181FC01DA
:1023D00080818C3441F48B819C81FC01828183302B
:1023E00008F041C0EEC08B819C81FC01808191810D
:1023F0000196FC0180818838D1F48B819C81FC019D
:1024000080819181FC018081813651F08B819C819A
:10241000FC0180819181FC018081813409F0C6C07A
:102420008B819C81FC0182818031E8F4BFC08B816B
:102430009C81FC01808191810196FC018081803822
:1024400009F0B6C08B819C81FC0180819181FC01E7
:102450008081882309F0AEC08B819C81FC01828140
:102460008B3008F4A7C08B819C81FC018081918115
:102470000196FC018081883851F08B819C81FC01A0
:10248000808191810196FC0180818038D9F40E947D
:102490003B0F9A83898389819A81892B09F48CC0A7
:1024A0008B819C81FC01808191810196FC0180815E
:1024B000883811F420E201C025E289819A81FC016B
:1024C000208346C08B819C81FC0180819181FC012D
:1024D00080818C3081F481E00E94AD0F9A838983E2
:1024E00089819A81892B09F469C089819A8126E2C0
:1024F000FC0120832DC080E00E94AD0F9A83898368
:1025000089819A81892B09F45BC08B819C81FC01B4
:1025100080819181FC0180818C3831F489819A819C
:1025200028E2FC01208314C08B819C81FC01808106
:102530009181FC0180818C3C31F489819A8127E270
:10254000FC01208305C089819A8129E2FC01208356
:102550008B819C81FC01228189819A81FC012183EC
:102560008B819C81FC01238189819A818D579F4FAA
:10257000FC0120838B819C81FC01248189819A81CB
:102580008C579F4FFC0120838B819C81FC018281B1
:10259000482F50E08B819C81FC0120813181898111
:1025A0009A810296B9010E94B5530BC0000009C080
:1025B000000007C0000005C0000003C0000001C00B
:1025C00000000F900F900F900F90DF91CF91089522
:1025D000CF93DF9300D000D000D0CDB7DEB79E837D
:1025E0008D830E943B0F9A83898389819A81892BED
:1025F00009F46BC08D819E81FC01818120E1280F4F
:102600008D819E81FC0121838D819E818F579F4FFB
:10261000FC01808191819C01205F3F4F8D819E81D3
:102620008F579F4FFC013183208389819A810E94BB
:10263000911089819A81FC01818123E0280F898191
:102640009A81FC01218389819A8189579F4FFC01DE
:10265000118210828D819E81FC01838581FB22275E
:1026600020F989819A812170220FFC0133853D7FF9
:10267000232BFC0123878D819E81FC0125853685D6
:1026800089819A81FC01308B278789819A818F57B4
:102690009F4FFC01808191819C838B838B819C81E6
:1026A000FC0110822091A60E8B819C81FC0122836B
:1026B0008D819E81FC0124858B819C81FC0121837D
:1026C00089819A810E94E01A01C0000026960FB607
:1026D000F894DEBF0FBECDBFDF91CF910895CF93A9
:1026E000DF931F92CDB7DEB7898389818093A60ED1
:1026F00000000F90DF91CF910895CF93DF9300D02A
:1027000000D0CDB7DEB79C838B8319821A8230C08C
:102710008A81282F30E0C901880F991F880F991FDF
:10272000820F931F8055924FFC0180818823E9F02E
:102730008A81282F30E0C901880F991F880F991FBF
:10274000820F931F8055924FFC0180814FEF480FFD
:10275000C901880F991F880F991F820F931F8055F9
:10276000924FFC01408381E089838A818F5F8A8355
:102770008A81823368F28981882321F08B819C8150
:102780000E942E2300000F900F900F900F90DF916A
:10279000CF910895CF93DF93CDB7DEB729970FB6CA
:1027A000F894DEBF0FBECDBF998788871A82198241
:1027B0001B8290C08B81282F30E0C901880F991FA0
:1027C000880F991F820F931F8455924F9D838C838E
:1027D0008C819D81FC018481882309F46EC08885E9
:1027E0009985FC01238534858C819D81FC01808144
:1027F00091812817390709F060C08C819D81FC0107
:10280000228188859985FC018285F22FF81B8F2F04
:102810008E838E81883058F58C819D81FC01838167
:10282000882F90E02E81222F30E002C09595879569
:102830002A95E2F781709927892B11F081E075C004
:102840008C819D81FC018381482F8E81282F30E06F
:1028500081E090E002C0880F991F2A95E2F7842B4F
:10286000282F8C819D81FC01238380E05EC08E81B6
:1028700081958F8388859985FC0122858C819D8136
:10288000FC0122838C819D81FC018381882F90E053
:102890002F81222F30E002C0880F991F2A95E2F77E
:1028A0008160282F8C819D81FC0123838C819D81F7
:1028B00025E1FC01248380E038C08C819D81FC01EE
:1028C0008481882321F48C819D819A8389838B81E3
:1028D0008F5F8B838B81823308F46CCF89819A81DF
:1028E000892B11F481E021C088859985FC0123851D
:1028F000348589819A81FC0131832083888599857B
:10290000FC01228589819A81FC01228389819A8137
:1029100021E0FC01238389819A8125E1FC01248344
:1029200087EA9EE00E942E2380E029960FB6F89455
:10293000DEBF0FBECDBFDF91CF910895CF93DF9360
:1029400000D0CDB7DEB79A83898389819A81FC0153
:102950008285882311F480E011C089819A81FC016D
:1029600080859185FC018081882F90E0892B29F456
:1029700089819A810E94061C01C080E00F900F900F
:10298000DF91CF910895CF93DF93CDB7DEB728972E
:102990000FB6F894DEBF0FBECDBF98878F838F81AF
:1029A000988502969B838A838F81988524E2FC0117
:1029B00020838A819B81FC0181858270882309F0B4
:1029C0003BC18A819B81FC0181858870882341F00D
:1029D0008A819B81FC0181858170882309F02EC149
:1029E0008A819B81FC01838194810196D1F420919D
:1029F000B3383091B4388A819B81FC0185859685F6
:102A00002817390741F08A819B81FC0185859685CD
:102A1000019609F015C18F81988522E2FC0120837F
:102A20000FC18A819B81FC0185859685019641F4C1
:102A30008A819B81FC0181858170882309F002C114
:102A40002091B3383091B4388A819B81FC01838511
:102A500094852817390709F4F7C08A819B810E9461
:102A6000CA13882309F0F2C08A819B81FC01818509
:102A70008870882309F4A9C08F8198858F579F4F4C
:102A8000FC01808191819D838C838A819B81FC01E3
:102A9000858596850E94FB108E8319828A819B8191
:102AA000FC0185819681019609F061C08E818823A1
:102AB00079F18C819D81FC0181818F70882F90E05C
:102AC00021E0181619060CF020E029838C819D81E5
:102AD000FC0181818F702FE0280F2F708C819D81E8
:102AE0002F70FC013181307F232BFC0121838C81ED
:102AF0009D81FC018081282F22952F708C819D81E2
:102B00002F70FC013081307F232BFC0120833BC0E0
:102B10008C819D81FC0180818F70882F90E021E065
:102B2000181619060CF020E029838C819D81FC0188
:102B300080818F702FE0280F2F708C819D812F70E6
:102B4000FC013081307F232BFC0120838C819D810F
:102B5000FC018181282F22952F708C819D812F70FF
:102B6000FC013181307F232BFC0121830CC08E813D
:102B7000882349F081E089838A819B81FC0121853A
:102B80002460FC0121878981882321F08F81988529
:102B90000E94771B8E81882309F459C08F81988504
:102BA0008F579F4FFC01808191819C012E5F3F4F89
:102BB0008F8198858F579F4FFC01318320838F81B0
:102BC000988522E2FC01208342C08A819B81FC011E
:102BD000858196810196B9F42091B3383091B4384B
:102BE0008A819B81FC01858596852817390759F0D4
:102BF0008A819B81FC0181858470882321F48F81E7
:102C000098850E94771B2091B3383091B4388A811F
:102C10009B81FC01858596852817390739F08A81C3
:102C20009B81FC0185859685019689F48F81988525
:102C300022E2FC0120830BC0000009C0000007C095
:102C4000000005C0000003C0000001C0000028967D
:102C50000FB6F894DEBF0FBECDBFDF91CF910895C0
:102C6000CF93DF93CDB7DEB761970FB6F894DEBF91
:102C70000FBECDBF998B888B8889998902969A83DC
:102C8000898389819A81FC01878582958F70882F3D
:102C900090E00396880F991F8D54974CFC0180811A
:102CA0009181892B11F480E0D9C089819A81FC013E
:102CB000838594859C838B8389819A81FC0185859A
:102CC00096859E838D8389819A81FC0187858F708B
:102CD0008F8389819A81FC01878582958F7088878F
:102CE000888999898F579F4FFC01808191819C87AA
:102CF0008B87888999890E945C118D878889998939
:102D00008D579F4FFC0180818E87888999898C57C8
:102D10009F4FFC0180818F8789819A81FC01818589
:102D2000982F917081E0992309F480E0882F90E03A
:102D30009A87898729853A8589819A81FC018185CD
:102D4000882F90E082709927822B932B9A8789870E
:102D500029853A8589819A81FC018185847088233F
:102D600019F080E290E002C080E090E0822B932B8B
:102D70009A87898729853A8589819A81FC0181858D
:102D80008870882319F080E490E002C080E090E031
:102D9000822B932B9A87898729853A8589819A8105
:102DA000FC0181858071882319F080E890E002C0E1
:102DB00080E090E0822B932B9A87898729853A853A
:102DC00089819A81FC0185859685019619F484E0B4
:102DD00090E002C080E090E0822B932B9A87898755
:102DE00029853A8589819A81FC01438554858981A9
:102DF0009A81FC01878190854817590719F488E06A
:102E000090E002C080E090E0822B932B9A87898724
:102E100029853A8589819A81FC0183819481019673
:102E200019F480E190E002C080E090E0822B932BC7
:102E30009A87898789819A81FC01878582958F701D
:102E4000882F90E00396880F991F8D54974CFC01B2
:102E500020813181CE010396F901099561960FB663
:102E6000F894DEBF0FBECDBFDF91CF910895CF9311
:102E7000DF93CDB7DEB761970FB6F894DEBF0FBE14
:102E8000CDBF998B888B8889998902969A8389838B
:102E90008889998924E2FC0120838091B938909136
:102EA000BA38892B11F480E044C088899989FC01E3
:102EB000878190859C838B8388899989FC01878190
:102EC00090859E838D831F821886888999898F5764
:102ED0009F4FFC01808191819C878B87888999898C
:102EE0000E945C118D87888999898D579F4FFC01BD
:102EF00080818E87888999898C579F4FFC018081BA
:102F00008F8780E890E09A87898789819A81FC0180
:102F1000878582958F70882F90E00396880F991F80
:102F20008D54974CFC0120813181CE010396F9012B
:102F3000099561960FB6F894DEBF0FBECDBFDF9145
:102F4000CF910895CF93DF93CDB7DEB72F970FB60C
:102F5000F894DEBF0FBECDBF9F878E878E859F857D
:102F600024E2FC0120838091B9389091BA38892BF2
:102F700011F480E02AC01A8219821C821B821D82F1
:102F80001E828E859F8502969A8789878E859F856A
:102F90000E945C118B878E859F858D579F4FFC010A
:102FA00080818C878E859F858C579F4FFC01808107
:102FB0008D8780E091E098878F832091B938309198
:102FC000BA38CE010196F90109952F960FB6F894FB
:102FD000DEBF0FBECDBFDF91CF910895CF93DF93BA
:102FE000CDB7DEB761970FB6F894DEBF0FBECDBF89
:102FF000998B888B8889998902969A838983888995
:10300000998924E2FC0120838091BF389091C038D7
:10301000892B11F480E02EC01C821B821E821D822F
:103020001F821886888999898F579F4FFC0180815C
:1030300091819C878B87888999890E945C118D87F3
:10304000888999898D579F4FFC0180818E87888957
:1030500099898C579F4FFC0180818F8780E092E097
:103060009A8789872091BF383091C038CE01039666
:10307000F901099561960FB6F894DEBF0FBECDBF7A
:10308000DF91CF910895CF93DF93CDB7DEB76197EE
:103090000FB6F894DEBF0FBECDBF998B888B8889A1
:1030A000998902969A8389838889998924E2FC0107
:1030B00020838091BB389091BC38892B11F480E03B
:1030C0002EC01C821B821E821D821F821886888948
:1030D00099898F579F4FFC01808191819C878B87B5
:1030E000888999890E945C118D87888999898D5773
:1030F0009F4FFC0180818E87888999898C579F4FCB
:10310000FC0180818F8780E094E09A8789872091F5
:10311000BB383091BC38CE010396F9010995619610
:103120000FB6F894DEBF0FBECDBFDF91CF910895EB
:10313000CF93DF93CDB7DEB761970FB6F894DEBFBC
:103140000FBECDBF998B888B8889998902969A8307
:1031500089838889998924E2FC0120838091C13880
:103160009091C238892B11F480E02EC01C821B8202
:103170001E821D821F821886888999898F579F4FCA
:10318000FC01808191819C878B87888999890E9425
:103190005C118D87888999898D579F4FFC018081AB
:1031A0008E87888999898C579F4FFC0180818F87F2
:1031B00080E090E49A8789872091C1383091C238A5
:1031C000CE010396F901099561960FB6F894DEBF1A
:1031D0000FBECDBFDF91CF910895CF93DF9300D085
:1031E0001F92CDB7DEB79B838A831092A60E8A8189
:1031F0009B810E94301689838A819B81FC01838593
:103200008170882309F419828A819B81FC0187815E
:1032100090850196A9F42091B3383091B4388A8111
:103220009B81FC01878590892817390749F48A8199
:103230009B81FC0183858870882311F481E0898358
:103240008A819B81FC0185819681019609F419820E
:103250008091B3389091B438019609F4198289812C
:10326000882321F08A819B810E94E8128A819B81B8
:1032700024E2FC01208300000F900F900F90DF915B
:10328000CF910895CF93DF9300D0CDB7DEB71A82E8
:1032900019823FC089819A81FC018081882F90E04A
:1032A000092E000CAA0BBB0B40E250E029E030E0F5
:1032B000841B950B2817390760F184569F4FFC013A
:1032C0000C943F5189819A810E94C31422C0898144
:1032D0009A810E94ED181DC089819A810E94451033
:1032E00018C089819A810E94371713C089819A81F9
:1032F0000E94A2170EC089819A810E94EE1709C010
:1033000089819A810E94431889819A810E94981824
:10331000000089819A810E945F109A838983898144
:103320009A81892B09F0B6CF00000F900F90DF91A2
:10333000CF910895CF93DF93CDB7DEB71092B50E3E
:103340001092B40E82E390E0A0E0B0E08093BC0E57
:103350009093BD0EA093BE0EB093BF0E1092C00E00
:1033600085E59CE19093C20E8093C10E8AE090E0C7
:10337000A0E0B0E08093C90E9093CA0EA093CB0E4C
:10338000B093CC0E1092CD0E8FEB9CE19093CF0EAC
:103390008093CE0E0000DF91CF910895CF93DF93FD
:1033A00000D000D0CDB7DEB79C838B838B819C810E
:1033B00002969A8389838B819C8123E1FC0120837F
:1033C0008B819C818D579F4FFC0110828B819C814A
:1033D0008C579F4FFC011182108289819A8120E0D5
:1033E00030E8FC01318320838091B8388F5F80936F
:1033F000B8382091B83889819A81FC0122832091C4
:10340000B5383091B63889819A81FC0134832383A1
:103410002091B3383091B43889819A81FC01368388
:10342000258300000F900F900F900F90DF91CF91A8
:103430000895CF93DF9300D000D0CDB7DEB79C8343
:103440008B838B819C8102969A8389838B819C815B
:1034500023E1FC0120838B819C818D579F4FFC01D0
:1034600010828B819C818C579F4FFC0111821082AE
:1034700089819A812CE0FC0120838091B8388F5F8C
:103480008093B8382091B83889819A81FC012183D2
:1034900089819A81FC012281287FFC012283898114
:1034A0009A81FC012281277EFC01228389819A81F5
:1034B000FC0122812F7DFC01228389819A81FC01FC
:1034C00022812F7BFC01228300000F900F900F9030
:1034D0000F90DF91CF910895CF93DF9300D000D06C
:1034E00000D0CDB7DEB79C838B837E836D838B81C9
:1034F0009C8102969A8389838B819C8123E1FC01C4
:1035000020838B819C818D579F4FFC0110828B8182
:103510009C818C579F4FFC01118210828D819E816E
:10352000992334F489819A812CECFC01208317C003
:103530008D819E8188279072892B31F089819A81B3
:103540002CE4FC0120830BC08D819E818827907420
:10355000892B29F089819A812CE8FC0120838091B4
:10356000B8388F5F8093B8382091B83889819A81B4
:10357000FC01218389819A81FC012281287FFC0141
:10358000228389819A81FC012281277EFC0122838A
:1035900089819A81FC0122812F7DFC01228389810E
:1035A0009A81FC0122812F7BFC0122830000269658
:1035B0000FB6F894DEBF0FBECDBFDF91CF91089557
:1035C000CF93DF9300D000D0CDB7DEB79C838B8341
:1035D0008B819C8102969A8389838B819C818A57F7
:1035E0009F4FFC018081882F90E082709927892B62
:1035F00031F08B819C8122E1FC01208305C08B810D
:103600009C8122E1FC0120838B819C818D579F4FFF
:10361000FC0110828B819C818A579F4FFC01808125
:10362000882F90E081709927892B41F089819A81B8
:103630002FEF3FEFFC013483238309C02091B5387D
:103640003091B63889819A81FC0134832383898142
:103650009A81FC012585368589819A81FC01368312
:1036600025832091B3383091B43889819A81FC0147
:10367000308727838091B8388F5F8093B838209146
:10368000B83889819A81FC01228389819A81FC0161
:10369000858196810196A9F489819A8121E438E88F
:1036A000FC01318320830E94C352877099270196C1
:1036B0009C018B819C818C579F4FFC01318320831F
:1036C0000EC089819A8121E438E8FC01318320838E
:1036D0008B819C818C579F4FFC01118210820000CE
:1036E0000F900F900F900F90DF91CF910895CF938F
:1036F000DF9300D000D0CDB7DEB79C838B830E94D0
:103700003B0F9A83898389819A81892B09F476C03A
:1037100089819A818F579F4FFC01808191819C0103
:10372000205F3F4F89819A818F579F4FFC013183E2
:10373000208389819A8122E1FC0120838B819C81F5
:10374000FC01218189819A81FC01218389819A81EF
:103750008D579F4FFC0110820E94C352877099279A
:1037600001969C0189819A818C579F4FFC0131837E
:10377000208389819A8189579F4FFC011182108291
:103780008B819C81FC018181482F50E08B819C8141
:103790009C012E5F3F4F89819A810296B9010E9458
:1037A000B55389819A8121E438E8FC01338322836F
:1037B00089819A812FEF3FEFFC01308727838B812E
:1037C0009C81FC012581368189819A81FC013683A7
:1037D00025832091B3383091B43889819A81FC01D6
:1037E000328721878091B8388F5F8093B8382091D5
:1037F000B83889819A81FC01248301C000000F90B0
:103800000F900F900F90DF91CF910895CF93DF939A
:1038100000D000D000D0CDB7DEB79E838D838D81E0
:103820009E81FC01808591859C838B831A821982FD
:103830008D819E81FC018285833019F180E02CC04E
:1038400089819A81FC0180818631D9F489819A81AC
:10385000FC0124858B819C81FC018181281789F4DE
:1038600089819A8127E1FC0120838B819C81FC0165
:10387000228189819A818A579F4FFC01208381E0B0
:103880000BC089819A810E945F109A838983898104
:103890009A81892BA9F680E026960FB6F894DEBFB0
:1038A0000FBECDBFDF91CF910895CF93DF9300D0AE
:1038B00000D01F92CDB7DEB79D838C831A82198208
:1038C0001B8227C089819A81FC018081863109F59C
:1038D00081E08B8389819A818C579F4FFC01808185
:1038E00091819C012150310989819A818C579F4F88
:1038F000FC013183208389819A818C579F4FFC0181
:1039000080819181892B29F489819A8160E10E94CB
:10391000A31C89819A810E945F109A83898389817F
:103920009A81892B79F68B81882321F08C819D8166
:103930000E942E2300000F900F900F900F900F9079
:10394000DF91CF910895CF93DF9300D01F92CDB731
:10395000DEB79A8389836B8389819A8127E1FC0191
:10396000208389819A818D579F4F2B81FC01208371
:1039700000000F900F900F90DF91CF910895CF939B
:10398000DF9300D000D01F92CDB7DEB79D838C832C
:103990001A8219821B8227C089819A81FC01808149
:1039A000813109F581E08B8389819A818C579F4F02
:1039B000FC01808191819C012150310989819A818A
:1039C0008C579F4FFC013183208389819A818C57CA
:1039D0009F4FFC0180819181892B29F489819A81F3
:1039E00023E1FC01208389819A810E945F109A83E0
:1039F000898389819A81892B79F68B81882321F0AB
:103A00008C819D810E942E2300000F900F900F90BB
:103A10000F900F90DF91CF910895CF93DF931F9276
:103A2000CDB7DEB789838981882F90E081309105F9
:103A300039F08230910531F0892B31F480E005C0F6
:103A400080E203C081E201C081E00F90DF91CF915D
:103A500008950F931F93CF93DF931F92CDB7DEB7D7
:103A600089830091B40E1091B50E89810E940D1DBD
:103A7000282FC8018D579F4FFC0120838091B40EE1
:103A80009091B50E25E1FC0120831092B50E1092A5
:103A9000B40E8091D9389091DA3801979093DA3842
:103AA0008093D93800000F90DF91CF911F910F9133
:103AB0000895CF93DF9300D0CDB7DEB71A82198275
:103AC000B3C089819A81FC018081882F90E0843184
:103AD000910509F4A9C08531910534F4823191052D
:103AE00079F0439731F19FC08631910509F49CC06C
:103AF000863191050CF443C0479709F47AC093C00E
:103B000089819A818C579F4FFC0180819181892BFB
:103B100051F089819A8121E1FC01208383EC9EE0B0
:103B20000E942E2381C089819A8123E1FC01208398
:103B30007BC08091B40E9091B50E892B09F074C0B2
:103B400089819A819093B50E8093B40E89819A8170
:103B500024E1FC01208389819A81FC0121818981F2
:103B60009A810296622F0E948F208091D93890917D
:103B7000DA3801969093DA388093D93855C0898124
:103B80009A818D579F4FFC018081882361F589813F
:103B90009A81FC01258536858091B3389091B4389F
:103BA00028173907D1F489819A81FC0183858170B6
:103BB000882399F089819A8126E1FC0120838981FB
:103BC0009A818C579F4F25E130E0FC01318320839F
:103BD00086EB9EE00E942E230BC089819A8127E10B
:103BE000FC01208321C089819A8127E1FC01208387
:103BF0001BC089819A8189579F4FFC0180819181E7
:103C0000892B29F489819A810E9445100DC08981F0
:103C10009A8189579F4FFC012081318189819A8146
:103C2000F901099501C0000089819A810E945F1005
:103C30009A83898389819A81892B09F042CF000078
:103C40000F900F90DF91CF910895CF93DF9300D025
:103C5000CDB7DEB79A83898389819A81892B09F44C
:103C60007BC089819A818837910549F461E080E0C1
:103C70000E94DB3E60E180E00E94DB3E6DC08981F6
:103C80009A81803C910529F462E080E00E94DB3E4D
:103C900063C089819A818C34910529F464E080E0C5
:103CA0000E94DB3E59C089819A818038910529F4B0
:103CB00068E080E00E94DB3E4FC089819A818434B5
:103CC000910529F460E280E00E94DB3E45C08981D5
:103CD0009A81803B910529F460E480E00E94DB3EFC
:103CE0003BC089819A81883B910529F460E880E096
:103CF0000E94DB3E31C089819A81883C910529F47C
:103D000061E081E00E94DB3E27C089819A81803991
:103D1000910529F468E081E00E94DB3E1DC08981A5
:103D20009A81803A910529F460E181E00E94DB3EAE
:103D300013C089819A818032914029F460E281E048
:103D40000E94DB3E09C089819A818334914021F42D
:103D500060E481E00E94DB3E00000F900F90DF9155
:103D6000CF9108956150710981099109D9F708959A
:103D70000F931F93CF93DF93CDB7DEB783E491E02A
:103D80000E94251E89E391E0FC0120812160FC0155
:103D900020831092510F81E08093D00E88E00E9422
:103DA0006C218CE491E0FC0120812068FC012083DF
:103DB0000DE611E00E94D020F80180838DE491E0AF
:103DC000FC0120812C7F2260FC0120838AE491E0A9
:103DD000FC012081207F2360FC0120838DE491E0A1
:103DE000FC0120812860FC0120838DE491E0FC012E
:103DF00020812460FC01208384E491E0FC01208187
:103E00002068FC0120830000DF91CF911F910F916A
:103E10000895CF93DF93CDB7DEB789E391E0FC013E
:103E200020812160FC0120830000DF91CF91089563
:103E3000CF93DF931F92CDB7DEB789838981882323
:103E4000B1F08CE691E0FC0120812F70FC01208311
:103E50008CE691E0FC0120812E60FC0120838EE63F
:103E600091E0FC0120812061FC01208317C08CE6D9
:103E700091E0FC0120812F702063FC0120838CE6FF
:103E800091E0FC012081217F2860FC0120838EE6E7
:103E900091E0FC0120812F7EFC01208300000F9027
:103EA000DF91CF910895CF93DF93CDB7DEB72997F8
:103EB0000FB6F894DEBF0FBECDBF898728E0CE01D4
:103EC0000196FC01322F11923A95E9F789858823F2
:103ED00049F180E090E00E94132080E090E00E9491
:103EE000EF1FCE0101960E94AA2187E591E0FC0117
:103EF00020812260FC01208387E591E0FC01208184
:103F00002061FC01208387E591E0FC0120812F7D69
:103F1000FC0120838EE691E0FC0120812061FC0100
:103F200020830BC087E591E0FC0110828EE691E0D2
:103F3000FC0120812F7EFC012083000029960FB612
:103F4000F894DEBF0FBECDBFDF91CF9108950F93E0
:103F50001F93CF93DF93CDB7DEB78FE691E0FC01DF
:103F60002081207F2360FC0120838FE691E0FC010B
:103F700020812F702068FC0120830DE611E00E9453
:103F8000D020F80180830000DF91CF911F910F9125
:103F90000895CF93DF931F92CDB7DEB789838981D0
:103FA0008093510F0E94552100000F90DF91CF9117
:103FB0000895CF93DF931F92CDB7DEB7898388E44E
:103FC00091E029812F712F71FC013081307E232BEC
:103FD000FC01208300000F90DF91CF910895CF93D3
:103FE000DF9300D000D0CDB7DEB79C838B83CE01AA
:103FF00003969A83898382E691E029813A81F901C7
:104000002081FC01208383E691E029813A81F90136
:104010002181FC01208300000F900F900F900F90E2
:10402000DF91CF910895CF93DF9300D000D0CDB72B
:10403000DEB79C838B83CE0103969A83898380E6C7
:1040400091E029813A81F9012081FC01208381E6F8
:1040500091E029813A81F9012181FC01208300004E
:104060000F900F900F900F90DF91CF910895CF9305
:10407000DF931F92CDB7DEB7898385E491E0298174
:104080002F702F70FC013081307F232BFC012083A7
:1040900000000F90DF91CF910895CF93DF93CDB7BC
:1040A000DEB78091D00E823069F088E00E946C21EA
:1040B00089E391E0FC0120812260FC01208382E001
:1040C0008093D00E8DE491E0FC0120812B7FFC01D8
:1040D00020838DE491E0FC012081277FFC01208377
:1040E00084E491E0FC0120812F77FC012083000013
:1040F000DF91CF910895CF93DF93CDB7DEB789E3FA
:1041000091E0FC0120812D7FFC0120830E9455213C
:1041100081E08093D00E0000DF91CF910895CF937E
:10412000DF9300D000D0CDB7DEB79B838A836C834A
:1041300089E10E946C218FE491E02FEFFC01208344
:1041400080E891E02C812E5FFC012083198214C04D
:104150008981882F90E08F579E4FAC018981882FED
:1041600090E02A813B81820F931FFC018081FA013C
:10417000808389818F5F898399818C81981740F32F
:1041800083E08093D00E82E491E022E0FC01208362
:1041900000000F900F900F900F90DF91CF91089536
:1041A000CF93DF9300D01F92CDB7DEB71A8219826A
:1041B00086E00E946C211B8222C062E070E080E0F9
:1041C00090E00E94B21E86E491E0FC01808182951D
:1041D000869587708370882F90E02B81222F30E0A6
:1041E00002C0880F991F2A95E2F79C0189819A8164
:1041F000822B932B9A8389838B818E5F8B838B8118
:104200008031D8F20E94552189819A810F900F90B8
:104210000F90DF91CF910895CF93DF9300D000D01E
:10422000CDB7DEB79A8389837C836B838B819C8136
:1042300040E060E00E94CF3189819A810E94DB32A8
:1042400089819A810E94113300000F900F900F9086
:104250000F90DF91CF910895CF93DF931F92CDB749
:10426000DEB786E00E946C218FE491E0FC012081A2
:104270002061FC01208387E491E0FC0110820000B2
:104280008FE491E0FC018081829581708823C1F3E5
:1042900087E491E0FC0180818A5589830E94552141
:1042A00089810F90DF91CF910895CF93DF93CDB7A0
:1042B000DEB788E00E946C218FE491E02FEFFC01D3
:1042C00020838091510F882319F086E10E946C2190
:1042D0000000DF91CF910895CF93DF931F92CDB768
:1042E000DEB789838091D00E8230A9F48DE491E00D
:1042F000FC0120812860FC0120838DE491E0FC0119
:1043000020812460FC01208384E491E0FC01208171
:104310002068FC01208382E491E023E0FC012083FB
:1043200081E491E0FC0180818F718830A1F782E403
:1043300091E02981FC01208381E491E0FC018081EE
:104340008F71982F8981981791F700000F90DF9156
:10435000CF910895CF93DF9300D000D0CDB7DEB7D3
:104360009C838B838B819C819A83898324E631E0B3
:1043700089819A81AC014F5F5F4F5A834983FC0169
:104380008081F901808325E631E089819A81AC0141
:104390004F5F5F4F5A834983FC018081F90180831D
:1043A00026E631E089819A81AC014F5F5F4F5A83E5
:1043B0004983FC018081F901808327E631E089810E
:1043C0009A81AC014F5F5F4F5A834983FC01808122
:1043D000F901808328E631E089819A81AC014F5F41
:1043E0005F4F5A834983FC018081F901808329E66C
:1043F00031E089819A81AC014F5F5F4F5A834983D5
:10440000FC018081F90180832AE631E089819A816B
:10441000AC014F5F5F4F5A834983FC018081F901F2
:1044200080838BE691E029813A81F9012081FC01AA
:10443000208300000F900F900F900F90DF91CF918D
:104440000895CF93DF93CDB7DEB728970FB6F894D2
:10445000DEBF0FBECDBF8091D00E823009F49EC06A
:104460008FE491E0FC01808183FB882780F9882319
:1044700009F459C08BE791E0FC0180818B8319829C
:1044800011C08981882F90E02981222F30E02058A7
:104490003E4FF90120818F52914FFC012083898189
:1044A0008F5F89838981282F30E08B81882F90E06E
:1044B0000196281739072CF381ED9EE09D838C83AC
:1044C0008B8182508E838B81882F90E08F52914F09
:1044D000FC0180818F8387E491E0FC0180818A5513
:1044E0008887CE0104960E94B711000081E491E014
:1044F000FC0180818F718631C9F78FE491E0FC0166
:1045000020812860FC0120838CE491E0FC01208163
:104510002F77FC0120838CE491E0FC01208120684E
:10452000FC0120833CC08FE491E0FC01808186FB8C
:10453000882780F9882399F181E491E0FC0180814A
:104540008F71893119F582E491E0FC0180818295B7
:10455000869587708A838A81882311F41A820EC017
:104560008A81833019F481E08A8308C08A8185308A
:1045700019F482E08A8302C083E08A830E94552175
:1045800081E08093D00E8A810E94291D8FE491E002
:10459000FC0120812064FC01208301C000002896DA
:1045A0000FB6F894DEBF0FBECDBFDF91CF91089557
:1045B000CF93DF93CDB7DEB70E9416230E94C73199
:1045C0000E94B81E0E94E1090000DF91CF9108957A
:1045D000CF93DF93CDB7DEB70E9421220E94DF0A7E
:1045E0000E94E8230000DF91CF910895CF93DF93DD
:1045F0001F92CDB7DEB78FE590E0FC018081898303
:10460000F89489810F90DF91CF910895CF93DF9334
:104610001F92CDB7DEB789838FE590E02981FC0139
:10462000208300000F90DF91CF910895CF93DF9307
:10463000CDB7DEB71092DB3880E895E20E94554B8B
:104640000E94074B80E197E20E949D4A1092530F0F
:104650001092520F0000DF91CF910895CF93DF9316
:1046600000D0CDB7DEB79A83898389819A810E9471
:10467000BD23982F81E08927882321F089819A81A1
:104680000E94AB2400000F900F90DF91CF9108950E
:10469000CF93DF9300D000D000D0CDB7DEB79E839C
:1046A0008D831A8219828091520F9091530F9C83AF
:1046B0008B8352C02B813C818D819E8128173907C5
:1046C00009F03FC089819A81892B59F08B819C81A7
:1046D000FC012081318189819A81FC013183208311
:1046E00009C08B819C81FC01808191819093530F43
:1046F0008093520F8B819C81FC0180819181892B59
:1047000089F18B819C81FC01608171818B819C810D
:10471000FC0180819181FC0122813381448155819A
:104720008D819E81FC0182819381A481B581820F5C
:10473000931FA41FB51FFB0182839383A483B583BA
:1047400011C08B819C819A8389838B819C81FC0120
:10475000808191819C838B838B819C81892B09F043
:10476000A9CF01C00000000026960FB6F894DEBF66
:104770000FBECDBFDF91CF910895CF93DF9300D0CF
:1047800000D0CDB7DEB79C838B838091520F909180
:10479000530F9A83898310C029813A818B819C8130
:1047A0002817390711F481E00CC089819A81FC0136
:1047B000808191819A83898389819A81892B61F78C
:1047C00080E00F900F900F900F90DF91CF910895A0
:1047D000EF92FF920F931F93CF93DF93CDB7DEB786
:1047E00028970FB6F894DEBF0FBECDBF8091DB389F
:1047F000882309F4A2C00E94F6228D838091DB38C1
:104800008E831092DB388D810E9406238E81882F43
:1048100090E0A0E0B0E0880F991FAA1FBB1F9C0189
:10482000AD01220F331F441F551F220F331F441F9A
:10483000551F820F931FA41FB51F89839A83AB83D3
:10484000BC833DC08091520F9091530F98878F8306
:104850008091520F9091530FFC0182819381A4812A
:10486000B58129813A814B815C8179018A01E81AFD
:10487000F90A0A0B1B0BD801C70189839A83AB8302
:10488000BC838091520F9091530FFC0180819181E4
:104890009093530F8093520F8F819885FC018285EE
:1048A000813021F48F8198850E94AB248F81988577
:1048B000FC01238534858F819885F90109958091C4
:1048C000520F9091530F892B99F08091520F909134
:1048D000530FFC01228133814481558189819A8162
:1048E000AB81BC8182179307A407B50708F0AACF54
:1048F0008091520F9091530F892B01F16091520FCB
:104900007091530F8091520F9091530FFC012281AF
:1049100033814481558189819A81AB81BC81790140
:104920008A01E81AF90A0A0B1B0BD801C701FB011F
:1049300082839383A483B58301C0000028960FB6B9
:10494000F894DEBF0FBECDBFDF91CF911F910F91C5
:10495000FF90EF900895EF92FF920F931F93CF93E4
:10496000DF93CDB7DEB72A970FB6F894DEBF0FBE40
:10497000CDBF9A8789878091520F9091530F892BD1
:1049800009F497C01A82198289859A85FC0186816B
:104990009781A085B1858B839C83AD83BE838091F5
:1049A000520F9091530F98878F834DC08F819885B8
:1049B000FC0122813381448155818B819C81AD81B1
:1049C000BE8182179307A407B507D8F48F81988515
:1049D000FC0122813381448155818B819C81AD8191
:1049E000BE8179018A01E81AF90A0A0B1B0BD8016A
:1049F000C7012F813885F90182839383A483B5830E
:104A000027C08F819885FC0182819381A481B58123
:104A10002B813C814D815E8179018A01E81AF90A76
:104A20000A0B1B0BD801C7018B839C83AD83BE830C
:104A30008F8198859A8389838F819885FC018081F5
:104A4000918198878F838F819885892B09F0AECFCC
:104A500029853A858B819C81AD81BE81F901828354
:104A60009383A483B58389819A81892B91F089816D
:104A70009A81FC012081318189859A85FC013183ED
:104A8000208389819A8129853A85FC01318320839D
:104A900029C02091520F3091530F89859A85FC01CE
:104AA0003183208389859A859093530F8093520F89
:104AB00019C089859A85FC011182108289859A85A1
:104AC000FC0186819781A085B18529853A85F90108
:104AD00082839383A483B58389859A859093530FAA
:104AE0008093520F00002A960FB6F894DEBF0FBED7
:104AF000CDBFDF91CF911F910F91FF90EF9008955F
:104B0000CF93DF93CDB7DEB78091DB388F5F809393
:104B1000DB3880E197E20E949D4A0000DF91CF914F
:104B20000895CF93DF931F92CDB7DEB78FE590E066
:104B3000FC0180818983F89489810F90DF91CF9166
:104B40000895CF93DF931F92CDB7DEB789838FE5AA
:104B500090E02981FC01208300000F90DF91CF912C
:104B60000895CF93DF93CDB7DEB780E094E2A4EF52
:104B7000B0E0BC01CD01DF91CF910895CF93DF93D9
:104B8000CDB7DEB70E94B125DC01CB01BC01CD0160
:104B9000DF91CF910895CF93DF9300D0CDB7DEB7EB
:104BA0009A83898389819A81892B21F480E090E01E
:104BB000DC01A3C089819A818837910529F40E947C
:104BC000BE25DC01CB0199C089819A81803C910589
:104BD00029F40E94BE25DC01CB018FC089819A8116
:104BE0008C34910529F40E94BE25DC01CB0185C0DF
:104BF00089819A818038910529F40E94BE25DC01C3
:104C0000CB017BC089819A818434910529F40E946B
:104C1000BE25DC01CB0171C089819A81803B910561
:104C200029F40E94BE25DC01CB0167C089819A81ED
:104C3000803C910529F40E94BE25DC01CB015DC0BA
:104C400089819A81883B910529F40E94BE25DC0167
:104C5000CB0153C089819A818039910529F40E9442
:104C6000BE25DC01CB0149C089819A81803A91053A
:104C700029F40E94BE25DC01CB013FC089819A81C5
:104C80008032914029F40E94BE25DC01CB0135C061
:104C900089819A818334914029F40E94BE25DC01E8
:104CA000CB012BC089819A818533914029F40E94E0
:104CB000BE25DC01CB0121C089819A8184339140DA
:104CC00029F40E94BE25DC01CB0117C089819A819D
:104CD0008333914029F40E94BE25DC01CB010DC035
:104CE00089819A818233914029F40E94BE25DC019A
:104CF000CB0103C080E090E0DC01BC01CD010F904E
:104D00000F90DF91CF910895CF93DF9300D01F9242
:104D1000CDB7DEB79A8389836B8389819A81803886
:104D2000910559F481E890E021E830E0F901308103
:104D30002B81232BFC0120832FC089819A8180390C
:104D4000910559F481E990E021E930E0F9013081E1
:104D50002B81232BFC0120831FC089819A81803AFB
:104D6000910559F481EA90E021EA30E0F9013081BF
:104D70002B81232BFC0120830FC089819A818032F3
:104D8000914051F481E291E021E231E0F90130817A
:104D90002B81232BFC01208300000F900F900F909C
:104DA000DF91CF910895CF93DF9300D0CDB7DEB7D9
:104DB0009A83898389819A818038910551F48FE69D
:104DC00090E02FE630E0F90120812160FC01208392
:104DD0002CC089819A818039910551F481E790E056
:104DE00021E730E0F90120812160FC0120831DC012
:104DF00089819A81803A910551F482E790E022E717
:104E000030E0F90120812160FC0120830EC08981FE
:104E10009A818032914049F483E790E023E730E0C3
:104E2000F90120812160FC01208300000F900F9088
:104E3000DF91CF910895CF93DF9300D0CDB7DEB748
:104E40009A83898389819A818038910551F48FE60C
:104E500090E02FE630E0F90120812260FC01208300
:104E60002CC089819A818039910551F481E790E0C5
:104E700021E730E0F90120812260FC0120831DC080
:104E800089819A81803A910551F482E790E022E786
:104E900030E0F90120812260FC0120830EC089816D
:104EA0009A818032914049F483E790E023E730E033
:104EB000F90120812260FC01208300000F900F90F7
:104EC000DF91CF910895CF93DF9300D0CDB7DEB7B8
:104ED0009A83898389819A818038910551F48FE67C
:104EE00090E02FE630E0F90120812D7FFC01208346
:104EF0002CC089819A818039910551F481E790E035
:104F000021E730E0F90120812D7FFC0120831DC0C5
:104F100089819A81803A910551F482E790E022E7F5
:104F200030E0F90120812D7FFC0120830EC08981B2
:104F30009A818032914049F483E790E023E730E0A2
:104F4000F90120812D7FFC01208300000F900F903C
:104F5000DF91CF910895CF93DF93CDB7DEB7279739
:104F60000FB6F894DEBF0FBECDBF9C838B836D83DD
:104F70005F834E838B819C819A8389838D81882F67
:104F800090E0019629813A81820F931F2D81222F73
:104F900030E02F5F3F4F49815A81240F351FF901BF
:104FA00040812E813F81232F3327242BFC01208336
:104FB0008D81882F90E029813A81820F931F2D8166
:104FC000222F30E049815A81240F351FF9013081A9
:104FD0002E81232BFC012083000027960FB6F89426
:104FE000DEBF0FBECDBFDF91CF910895CF93DF938A
:104FF00000D0CDB7DEB79A83898389819A818038C2
:10500000910551F486E390E026E330E0F901208138
:105010002160FC0120832CC089819A81803991050F
:1050200051F488E390E028E330E0F9012081216029
:10503000FC0120831DC089819A81803A910551F439
:1050400089E390E029E330E0F90120812160FC014F
:1050500020830EC089819A818032914049F48AE38D
:1050600090E02AE330E0F90120812160FC012083F7
:1050700000000F900F90DF91CF910895CF93DF93B1
:1050800000D0CDB7DEB79A83898389819A81803831
:10509000910551F486E390E026E330E0F9012081A8
:1050A0002260FC0120832CC089819A81803991057E
:1050B00051F488E390E028E330E0F9012081226098
:1050C000FC0120831DC089819A81803A910551F4A9
:1050D00089E390E029E330E0F90120812260FC01BE
:1050E00020830EC089819A818032914049F48AE3FD
:1050F00090E02AE330E0F90120812260FC01208366
:1051000000000F900F90DF91CF910895CF93DF9320
:1051100000D0CDB7DEB79A83898389819A818038A0
:10512000910531F484E890E0FC018081918123C0F5
:1051300089819A818039910531F484E990E0FC01FC
:105140008081918118C089819A81803A910531F4DA
:1051500084EA90E0FC01808191810DC089819A816F
:105160008032914031F484E291E0FC0180819181B0
:1051700002C080E090E00F900F90DF91CF910895F2
:10518000CF93DF9300D000D01F92CDB7DEB79C83C2
:105190008B836D838B819C819A8389838D81882306
:1051A00049F489819A81FC01208189819A81FC01DD
:1051B00020830FC08D81843061F489819A810196AA
:1051C00029813A812F5F3F4FF90120812860FC013E
:1051D000208300000F900F900F900F900F90DF91A1
:1051E000CF910895CF93DF93CDB7DEB780E890E0FD
:1051F0000E948628DF91CF910895CF93DF93CDB79A
:10520000DEB780E890E00E94632780E890E00E948B
:105210003E280000DF91CF910895CF93DF93CDB763
:10522000DEB780E890E00E943E2880E890E00E948F
:105230001B270000DF91CF910895CF93DF93CDB767
:10524000DEB780E890E00E94D32680E890E00E94DC
:10525000F6270000DF91CF910895CF93DF93CDB76C
:10526000DEB780E890E00E94AA300000DF91CF9185
:105270000895CF93DF9300D0CDB7DEB79A838983AB
:1052800089819A81AC0168E080E890E00E94AB27B8
:1052900000000F900F90DF91CF910895CF93DF938F
:1052A000CDB7DEB70E949125DF91CF910895CF93BE
:1052B000DF931F92CDB7DEB7898389810E94A12534
:1052C00000000F90DF91CF910895CF93DF931F924D
:1052D000CDB7DEB780E890E00E9491306EEF79E2C2
:1052E00080E890E00E94C33060E080E890E00E9497
:1052F000C02880E890E00E94D32680E890E00E94D9
:10530000A02980E890E00E94632761E080E890E0B7
:105310000E94842680E890E00E94CB25DC01CB012E
:1053200020E432E44FE050E0BC01CD010E941D5169
:10533000DA01C901898389810F90DF91CF910895A6
:10534000CF93DF9300D0CDB7DEB79A83898389816D
:105350009A818038910579F089819A818039910507
:1053600051F089819A81803A910529F089819A8149
:105370008032914039F468E07AE280E890E00E945F
:10538000043136C089819A818138910579F089810B
:105390009A818139910551F089819A81813A9105EB
:1053A00029F089819A818132914039F468E07AE26A
:1053B00080E890E00E9445311BC089819A81823843
:1053C000910579F089819A818239910551F089811D
:1053D0009A81823A910529F089819A81823291409D
:1053E00039F468E07AE280E890E00E94863100C0FB
:1053F00000000F900F90DF91CF910895CF93DF932E
:10540000CDB7DEB70E940E4B0000DF91CF9108951B
:10541000CF93DF93CDB7DEB70E94464B0000DF91FC
:10542000CF910895CF93DF931F92CDB7DEB78FE56D
:1054300090E0FC0180818983F89489810F90DF914D
:10544000CF910895CF93DF931F92CDB7DEB78983B5
:105450008FE590E02981FC01208300000F90DF910F
:10546000CF910895EF92FF920F931F93CF93DF9305
:10547000CDB7DEB72C970FB6F894DEBF0FBECDBF09
:105480006B837C838D839E832F83388749875A87DC
:105490001C870B878F819885A985BA858093540FC7
:1054A0009093550FA093560FB093570F8B859C8503
:1054B0009A8389838B819C81AD81BE8188279F5F80
:1054C000AF4FBF4F8093580F9093590FA0935A0F2F
:1054D000B0935B0F8B819C81AD81BE8188270CE5E9
:1054E0001FE020E031E040E050E0BC01CD010E942F
:1054F000252B2CE53FE040E051E060E070E0CB017F
:105500000E9466552091540F3091550F4091560FCF
:105510005091570F8B819C81AD81BE81280F391F1F
:105520004A1F5B1F8091580F9091590FA0915A0FFD
:10553000B0915B0F82179307A407B507A0F4809181
:10554000580F9091590FA0915A0FB0915B0F9C0189
:105550008B819C817901E81AF90AC70190935D104B
:1055600080935C100CC08091540F9091550FA091C6
:10557000560FB091570F90935D1080935C1020915F
:10558000540F3091550F4091560F5091570F809105
:105590005C1090915D10CC01A0E0B0E079018A012F
:1055A000E81AF90A0A0B1B0BD801C7018093540FA4
:1055B0009093550FA093560FB093570F40915C10E6
:1055C00050915D1029813A818B819C81AD81BE8192
:1055D000BC01CD010E9466558B819C81AD81BE814D
:1055E000BC01CD010E9473568091580F9091590FC4
:1055F000A0915A0FB0915B0F8B839C83AD83BE83C8
:1056000080915C1090915D1029813A81820F931FE7
:105610009A8389838091540F9091550FA091560FD2
:10562000B091570F892B8A2B8B2B09F043CF0000A9
:105630002C960FB6F894DEBF0FBECDBFDF91CF9191
:105640001F910F91FF90EF9008950F931F93CF93A9
:10565000DF93CDB7DEB762970FB6F894DEBF0FBE0B
:10566000CDBF69877A878B879C872D873E874F8739
:10567000588B1A8B098B0E94122A8B831A821982EB
:1056800029C029893A8989819A81B901680F791FCE
:1056900089859A85AB85BC859C01AD012F5F3F4F05
:1056A0004F4F5F4F29873A874B875C878C839D8359
:1056B000AE83BF838C819D81AE81BF81ABBFFC0176
:1056C000879188878885FB01808389819A810196EB
:1056D0009A83898389819A819C0140E050E08D857D
:1056E0009E85AF85B889281739074A075B0748F2B6
:1056F0008B810E94222A000062960FB6F894DEBFCA
:105700000FBECDBFDF91CF911F910F910895CF9321
:10571000DF931F92CDB7DEB78FE590E0FC0180816B
:105720008983F89489810F90DF91CF910895CF9369
:10573000DF931F92CDB7DEB789838FE590E0298193
:10574000FC01208300000F90DF91CF910895CF934B
:10575000DF9300D0CDB7DEB79A83898389819A81A0
:10576000892B09F47BC089819A818837910549F496
:1057700061E080E00E94DB3E60E180E00E94DB3E71
:105780006DC089819A81803C910529F462E080E0B6
:105790000E94DB3E63C089819A818C34910529F493
:1057A00064E080E00E94DB3E59C089819A818038A4
:1057B000910529F468E080E00E94DB3E4FC08981BA
:1057C0009A818434910529F460E280E00E94DB3EF6
:1057D00045C089819A81803B910529F460E480E08D
:1057E0000E94DB3E3BC089819A81883B910529F468
:1057F00060E880E00E94DB3E31C089819A81883C6C
:10580000910529F461E081E00E94DB3E27C0898197
:105810009A818039910529F468E081E00E94DB3E9D
:105820001DC089819A81803A910529F460E181E067
:105830000E94DB3E13C089819A818032914029F415
:1058400060E281E00E94DB3E09C089819A81833455
:10585000914021F460E481E00E94DB3E00000F9063
:105860000F90DF91CF910895CF93DF9300D0CDB704
:10587000DEB79A83898389819A81892B09F47BC059
:1058800089819A818837910549F461E080E00E941E
:10589000103F60E180E00E94103F6DC089819A81D5
:1058A000803C910529F462E080E00E94103F63C0D3
:1058B00089819A818C34910529F464E080E00E940A
:1058C000103F59C089819A818038910529F468E098
:1058D00080E00E94103F4FC089819A8184349105F5
:1058E00029F460E280E00E94103F45C089819A81DE
:1058F000803B910529F460E480E00E94103F3BC0AA
:1059000089819A81883B910529F460E880E00E94B2
:10591000103F31C089819A81883C910529F461E06A
:1059200081E00E94103F27C089819A8180399105CA
:1059300029F468E081E00E94103F1DC089819A81AE
:10594000803A910529F460E181E00E94103F13C084
:1059500089819A818032914029F460E281E00E943D
:10596000103F09C089819A818334914021F460E419
:1059700081E00E94103F00000F900F90DF91CF91C7
:1059800008951F920F9200905F000F9211240090D3
:105990005B000F922F933F934F935F936F937F938F
:1059A0008F939F93AF93BF93EF93FF93CF93DF9327
:1059B000CDB7DEB780915E1090915F10892B31F0EA
:1059C00080915E1090915F10FC0109950000DF91BD
:1059D000CF91FF91EF91BF91AF919F918F917F9167
:1059E0006F915F914F913F912F910F9000925B00CB
:1059F0000F9000925F000F901F9018951F920F92CA
:105A000000905F000F92112400905B000F922F9383
:105A10003F934F935F936F937F938F939F93AF9336
:105A2000BF93EF93FF93CF93DF93CDB7DEB7809112
:105A3000601090916110892B31F0809160109091ED
:105A40006110FC0109950000DF91CF91FF91EF916A
:105A5000BF91AF919F918F917F916F915F914F9186
:105A60003F912F910F9000925B000F9000925F008A
:105A70000F901F9018951F920F9200905F000F9249
:105A8000112400905B000F922F933F934F935F93ED
:105A90006F937F938F939F93AF93BF93EF93FF93F6
:105AA000CF93DF93CDB7DEB78091621090916310F2
:105AB000892B31F08091621090916310FC0109955F
:105AC0000000DF91CF91FF91EF91BF91AF919F9136
:105AD0008F917F916F915F914F913F912F910F9097
