:100000000C947A010C9499010C9499010C94990127
:100010000C9499010C9499010C9499010C949901F8
:100020000C9499010C9499010C9499010C949901E8
:100030000C941B380C9499010C9499010C9499011F
:100040000C9499010C9483270C94C0270C94FD27E1
:100050000C9446270C9499010C9499010C949901E5
:100060000C9499010C94173C0C9499010C949901EF
:100070000C9499010C9499010C9499010C94990198
:100080000C9477280C94B4280C94F1280C943A28FA
:100090000C9499010C9499010C9499010C94990178
:1000A0000C9499010C9499010C946B290C94A82937
:1000B0000C94E5290C942E290C9499010C945F2A38
:1000C0000C949C2A0C94D92A0C94222A0C94990101
:1000D0000C9499010C9499010C9499010C94990138
:1000E0000C9499010C9499010C9499010C94990128
:1000F0000C9499010C9499010C9499010C94990118
:100100000C9499010C942C2F0C94692F0C94A62F0D
:100110000C94EF2E0C94E32F0C9499010C949901FC
:10012000FB131E1400141E1405140A140F141414C7
:1001300019146E616E00696E660000407A10F35A01
:1001400000A0724E18090010A5D4E80000E8764817
:10015000170000E40B54020000CA9A3B000000E1C3
:10016000F505000080969800000040420F00000056
:10017000A08601000000102700000000E803000036
:1001800000006400000000000A0000000000010000
:10019000000000002C76D888DC674F0823DFC1DF21
:1001A000AE59E1B1B796E5E3E453C63AE651997624
:1001B00096E8E6C28426EB898C9B62ED407C6FFC5E
:1001C000EFBC9C9F40F2BAA56FA5F490055A2AF7A0
:1001D0005C936B6CF9676DC11BFCE0E40D47FEF5A9
:1001E00020E6B500D0ED902E030094357705008011
:1001F000841E080000204E0A000000C80C33333370
:10020000330F986E12831141EF8D2114893BE6550F
:1002100016CFFEE6DB18D1844B381BF77C1D901DF2
:10022000A4BBE424203284725E228100C9F124EC54
:10023000A1E53D27330019000C0006000300020071
:100240000100FF00A001CF006700330019000C007F
:10025000070008004003A001CF0067003300190029
:1002600010001000330019000C000600030002000B
:100270000100FF00A001CF006700330019000C004F
:10028000070008004003A001CF00670033001900F9
:1002900010001000330019000C00060003000200DB
:1002A0000100FF00A001CF006700330019000C001F
:1002B000070008004003A001CF00670033001900C9
:1002C00010001000330019000C00060003000200AB
:1002D0000100FF00A001CF006700330019000C00EF
:1002E000070008004003A001CF0067003300190099
:1002F0001000100011241FBECFEFD1E4DEBFCDBF30
:1003000012E0A0E0B2E0E2E8FEE900E00BBF02C0CC
:1003100007900D92A835B107D9F721E1A8E5B2E021
:1003200001C01D92A335B207E1F70E94A8040C9406
:10033000934D0C940000CF93DF93CDB7DEB780E0F0
:1003400094E2A4EFB0E0BC01CD01DF91CF9108951C
:10035000CF93DF93CDB7DEB70E949B01DC01CB01C9
:10036000BC01CD01DF91CF910895CF93DF9300D0F1
:10037000CDB7DEB79A83898389819A81FC01808118
:10038000282F226089819A81FC01208300000F9030
:100390000F90DF91CF910895CF93DF93CDB7DEB764
:1003A0002B970FB6F894DEBF0FBECDBF9987888715
:1003B0007B876A878A859B85FC0184818D838A85FA
:1003C0009B85FC0185818E838A859B85FC018681C6
:1003D0008F838A859B85FC0180819181A281B38175
:1003E00089839A83AB83BC83888599859E012F5F1F
:1003F0003F4FB9010E947333882311F081E001C09F
:1004000080E02B960FB6F894DEBF0FBECDBFDF9114
:10041000CF910895CF93DF9300D01F92CDB7DEB771
:100420009A8389836B8389819A816B810E9481354C
:100430000F900F900F90DF91CF910895CF93DF939E
:1004400000D000D0CDB7DEB79A8389837C836B83DD
:1004500089819A810E94A035282F8B819C81FC0183
:10046000208300000F900F900F900F90DF91CF919D
:100470000895CF93DF9300D000D0CDB7DEB79A8335
:1004800089837C836B8389819A81909347118093C0
:1004900046118AE092E090934511809344118EE1D9
:1004A00092E090934311809342112B813C8189818A
:1004B0009A81B9010E94CC0163E57AE382E79AE36D
:1004C0000E942B4B00000F900F900F900F90DF9128
:1004D000CF910895CF93DF93CDB7DEB78CED90E049
:1004E0002CED30E0F90120812064FC0120838CEDAB
:1004F00090E02CED30E0F9012081277FFC01208382
:100500000000DF91CF910895CF93DF93CDB7DEB791
:100510008091710290917202892BC1F088E692E07D
:100520000E94FD058091710290917202292F2F93F4
:100530008F938BE192E0892F8F938BE192E08F93E1
:100540000E94B24B0F900F900F900F900000DF9120
:10055000CF910895CF93DF93CDB7DEB782E080933C
:1005600067020000DF91CF910895CF93DF93CDB75D
:10057000DEB70E949E190000DF91CF910895CF93BE
:10058000DF9300D000D0CDB7DEB79C838B830E9471
:100590006A028B819C81FC018085918590937E020B
:1005A00080937D0280917D0290917E02FC01848186
:1005B00080937C0280917D0290917E02FC01838178
:1005C0008770843031F49091890281E089278823F3
:1005D00079F480917D0290917E02FC018381877085
:1005E000863009F045C080918902882309F440C013
:1005F00080917D0290917E02FC0183818295869597
:100600008770482F50E080917D0290917E02FC011E
:100610008681282F30E0429FC001439F900D529F5A
:10062000900D1124880F991F9A8389838AEA92E09A
:100630000E94F73181E00E94703089819A81092EF1
:10064000000CAA0BBB0B21E0AC01BD0181E00E94B4
:10065000243180917D0290917E02FC01838187701C
:10066000843011F484E001C085E0809367021FC0EC
:1006700080917D0290917E02FC018381877087309A
:10068000B1F41092890280918902882F90E0292F7D
:100690002F938F938CE292E0892F8F938CE292E0DC
:1006A0008F930E94B24B0F900F900F900F9081E0AC
:1006B0000F900F900F900F90DF91CF910895CF93EF
:1006C000DF93CDB7DEB728970FB6F894DEBF0FBE25
:1006D000CDBF98878F838F819885FC018085918518
:1006E0009A83898389819A81FC01908180917C021F
:1006F000981759F580E090E19C838B8387E090E028
:100700009E838D8329813A818B819C81820F931FE7
:100710000196FC018081882F90E00D8002C09595A4
:1007200087950A94E2F781709927892B71F085E308
:1007300092E0892F8F9385E392E08F930E94B24BD2
:100740000F900F9081E08093890281E028960FB688
:10075000F894DEBF0FBECDBFDF91CF910895CF9348
:10076000DF93CDB7DEB78DE08093850281E090E81E
:10077000909387028093860280910A028F778F7709
:10078000909188029078892B8093880280918802CA
:1007900080688093880210926E0210926D0283E04E
:1007A00080936F0283E08093700280E090E89093E2
:1007B00072028093710285E892E0909376028093B2
:1007C000750284E0809377020000DF91CF91089555
:1007D000CF93DF93CDB7DEB78EE080937F0281E0C9
:1007E00090E8909383028093820281E0809380025C
:1007F00080910A028F778F77909184029078892B6D
:100800008093840280918402806880938402109295
:10081000810210926E0210926D0283E080936F024B
:1008200083E08093700280E090E89093720280935E
:1008300071028FE792E0909376028093750286E0D2
:10084000809377020000DF91CF910895CF93DF93DB
:10085000CDB7DEB781E090E80E9418058FE00E94D6
:100860005E1A81E00E944E1A80E492E0892F8F93F5
:1008700080E492E08F930E94B24B0F900F9080E043
:100880000E94AD190E943C1A81E080930A026FEB2E
:1008900072E080E00E9446056FE573E084E00E940C
:1008A000460581E00E94E8190000DF91CF9108958C
:1008B000CF93DF93CDB7DEB780916702882F90E0AA
:1008C0008230910591F0833091051CF4892B39F029
:1008D0003BC08430910579F0059701F135C00E9445
:1008E000260481E0809367022FC00E94840281E089
:1008F0008093670229C080917D0290917E02FC0165
:100900008581882319F40E94AF0304C010927202FB
:100910001092710281E08093670216C08091890273
:10092000882359F080917D0290917E02FC0185819F
:10093000882319F40E94E80303C081E00E94E53097
:1009400081E08093670200000000DF91CF9108955D
:100950000F931F93CF93DF93CDB7DEB727970FB6D3
:10096000F894DEBF0FBECDBF0E943A390E946F3CA3
:100970000E945D1D0E949D2E789427E0E7E4F2E03E
:10098000CE010196DC0101900D922A95E1F7CE018E
:100990000196BC0180EC90E00E94390280EC90E06E
:1009A0000E94B5010E94A801DC01CB018C019D01D0
:1009B00040E052EC61E070E080EC90E00E941C3678
:1009C0000E946D1D0E945804FBCFCF93DF931F92AE
:1009D000CDB7DEB7109216111092171110921311A5
:1009E00010921211109239111092381119820EC002
:1009F0008981882F90E00396880F991F8E5E9E4E06
:100A0000FC011182108289818F5F89838981803105
:100A100078F30E942F140E94840C0E94220A0E94E4
:100A2000F1050E94BE0B00000F90DF91CF91089559
:100A3000CF93DF9300D0CDB7DEB79A8389838981C6
:100A40009A81909313118093121189819A810E9447
:100A5000981A00000F900F90DF91CF910895CF93D7
:100A6000DF9300D0CDB7DEB79A83898389819A81DD
:100A7000909315118093141189819A810E94741AA0
:100A800000000F900F90DF91CF910895CF93DF93E7
:100A900000D01F92CDB7DEB789837B836A838981BB
:100AA000882F90E00396880F991F8E5E9E4E2A81B4
:100AB0003B81FC013183208300000F900F900F9049
:100AC000DF91CF910895CF93DF93CDB7DEB78091BB
:100AD00038119091391121E0892B09F420E0822FFF
:100AE000DF91CF910895CF93DF93CDB7DEB780919B
:100AF00038119091391101969093391180933811E2
:100B00000000DF91CF910895CF93DF93CDB7DEB78B
:100B100080913811909139110197909339118093F8
:100B200038110000DF91CF910895CF93DF93CDB7B7
:100B3000DEB70E94D21A0000DF91CF910895CF93C3
:100B4000DF93CDB7DEB70E94001B0000DF91CF918D
:100B50000895CF93DF93CDB7DEB72C970FB6F894F7
:100B6000DEBF0FBECDBF8C8789E0EEE4F2E0DE0190
:100B7000139601900D928A95E1F789E189831A8293
:100B800015C09C858981981758F48A81882F90E038
:100B90009E012D5F3F4F820F931FFC0180810AC091
:100BA0008981875E89838A818F5F8A838A81893080
:100BB00040F38FEF2C960FB6F894DEBF0FBECDBF7B
:100BC000DF91CF910895CF93DF93CDB7DEB70E9429
:100BD000DB130E94EE170E94EC090000DF91CF9119
:100BE0000895CF93DF93CDB7DEB7109293021092A2
:100BF00092020000DF91CF910895CF93DF9300D050
:100C0000CDB7DEB79A83898389819A81FC011482EA
:100C100089819A81FC01128A89819A81FC0113825F
:100C20001282809138119091391101969093391167
:100C3000809338118091920290919302892B61F4F4
:100C400089819A81FC011182108289819A81909315
:100C50009302809392020FC02091920230919302EE
:100C600089819A81FC013183208389819A819093C3
:100C700093028093920200000F900F90DF91CF912A
:100C80000895CF93DF93CDB7DEB728970FB6F894CA
:100C9000DEBF0FBECDBF98878F838F819885FC0103
:100CA000818592858034910598F40E94410A9A8347
:100CB000898389819A81892B61F58F81988522E0CA
:100CC000FC0124838F81988522E0FC01228BCEC217
:100CD0008F819885FC018185928580749927892B65
:100CE00021F081E00E94B30A03C080E00E94B30AB1
:100CF0009A83898389819A81892B59F48F81988578
:100D000022E0FC0124838F81988522E0FC01228B64
:100D1000ADC28F819885FC01818592858074992769
:100D2000892B09F499C089819A818A579F4FFC01C8
:100D300010828F819885FC01818592858078992722
:100D4000892B41F089819A81FC012581287FFC0152
:100D5000258334C08F819885FC0181859285882701
:100D60009170892B49F089819A81FC012581287F26
:100D70002460FC01258322C08F819885FC01818538
:100D8000928588279270892B49F089819A81FC018C
:100D90002581287F2660FC01258310C08F819885DE
:100DA000FC018185928588279470892B39F089818F
:100DB0009A81FC0125812760FC01258389819A8124
:100DC000FC012581277FFC01258389819A81FC0113
:100DD00025812F7EFC01258389819A81FC01258153
:100DE0002F712068FC0125838F819885FC01818506
:100DF000928588279870892B31F089819A8121E02A
:100E0000FC01278313C08F819885FC018185928521
:100E100088279071892B31F089819A8122E0FC0129
:100E2000278304C089819A81FC0117828091111166
:100E30002EE3280F89819A81FC0120878EEF9AEC9E
:100E40009C838B8389819A812EEFFC012683898183
:100E50009A810E94AE14F5C18F819885FC0181852D
:100E60009285992394F08F819885FC0181859285E4
:100E700088279072892B49F48F819885FC018185A0
:100E8000928588279074892B99F18F819885FC0130
:100E90002185328589819A81B9010E940115898154
:100EA0009A818A579F4FFC0110828F819885FC019F
:100EB0008785482F50E08F819885FC0125853685F0
:100EC00089819A818F579F4FFC0180819181B9015F
:100ED0000E94104B89819A81FC0121818F81988524
:100EE000FC018785280F89819A81FC012183A9C192
:100EF0008F819885FC018185928580729927892B45
:100F000009F462C089819A818A579F4FFC0110823F
:100F100089819A81FC012185207F2860FC0121873D
:100F200089819A81FC0121852F702066FC0121872F
:100F300089819A81FC012285207F2160FC01228722
:100F400089819A81FC0122852061FC0122878981A7
:100F50009A81FC0122852064FC01228789819A8183
:100F6000FC0122852F77FC01228789819A81FC016F
:100F7000138689819A81FC0114868F819885FC01F2
:100F80008785482F50E08F819885FC01258536851F
:100F900089819A818F579F4FFC0180819181B9018E
:100FA0000E94104B89819A81FC0121818F81988553
:100FB000FC018785280F89819A81FC012183898121
:100FC0009A810E9463143DC18F819885FC018185BF
:100FD0009285892B09F435C18F819885FC01818523
:100FE00092858470992721E0892B09F420E089817A
:100FF0009A818A579F4FFC0120838F819885FC013D
:10100000818592858170992721E0892B09F420E060
:1010100089819A812170FC0133853E7F232BFC015D
:1010200023878F819885FC01818592858870992717
:1010300021E0892B09F420E089819A812170220F17
:10104000220FFC0133853B7F232BFC0123878F81FB
:101050009885FC01818592858072992721E0892BF2
:1010600009F420E089819A8121702295207FFC017A
:1010700033853F7E232BFC0123878F819885FC01DC
:10108000818592858071992721E0892B09F420E0E0
:1010900089819A812170220F220F220FFC01338552
:1010A000377F232BFC01238789819A81FC0183856B
:1010B0008870882309F462C089819A818F579F4F75
:1010C000FC01808191819E838D838F819885FC01B5
:1010D0008385282F2F708D819E812F70FC01318197
:1010E000307F232BFC0121838F819885FC01838530
:1010F000282F2F708D819E812295207FFC013181C8
:101100003F70232BFC0121838F819885FC0184850E
:10111000282F2F708D819E812F70FC013081307FB0
:10112000232BFC0120838F819885FC018485282F47
:101130002F708D819E812295207FFC0130813F7030
:10114000232BFC01208389819A818F579F4FFC01BB
:10115000808191819C012E5F3F4F89819A818F57B9
:101160009F4FFC013183208389819A81FC01818119
:1011700022E0280F89819A81FC0121838091161138
:101180008F5F809316112091161189819A81FC013D
:101190002487209112113091131189819A81FC01C9
:1011A000368725878F819885FC0125813681898145
:1011B0009A81FC01308B27878F819885FC0180857F
:1011C000282F2F7089819A812F70FC013189307FFF
:1011D000232BFC01218B8F819885FC018781282F8F
:1011E0002F7089819A812295207FFC0131893F707F
:1011F000232BFC01218B8F819885FC018785482F4B
:1012000050E08F819885FC012585368589819A81FA
:101210008F579F4FFC0180819181B9010E94104B33
:1012200089819A81FC0121818F819885FC018785C4
:10123000280F89819A81FC01218389819A810E94EA
:1012400075158F81988529813A81FC01338322832A
:101250008F81988521E0FC01248389819A818957B7
:101260009F4F2FE339E0FC013183208328960FB68E
:10127000F894DEBF0FBECDBFDF91CF910895CF931D
:10128000DF9300D000D0CDB7DEB79C838B838091F5
:101290009202909193029A8389832BC089819A81CB
:1012A000FC01228133818B819C8128173907D1F47D
:1012B0008B819C818D579F4FFC01208189819A8170
:1012C000FC01228B8B819C818A579F4FFC012081DE
:1012D00089819A81FC01238B89819A8122E0FC011A
:1012E00024830BC089819A81FC01808191819A833A
:1012F000898389819A81892B89F68B819C810E94BF
:101300004B0B00000F900F900F900F90DF91CF913B
:101310000895CF93DF9300D000D0CDB7DEB79C8384
:101320008B8320919202309193028B819C812817AC
:10133000390761F48091920290919302FC018081BF
:101340009181909393028093920225C080919202A2
:10135000909193029A83898307C089819A81FC01C5
:10136000808191819A83898389819A81FC0120817E
:1013700031818B819C812817390779F789819A817E
:10138000FC0180819181FC012081318189819A81D8
:10139000FC0131832083809138119091391101979C
:1013A00090933911809338118B819C81FC01808945
:1013B0009189892B49F08B819C81FC01208931899D
:1013C0008B819C81F901099500000F900F900F907F
:1013D0000F90DF91CF910895CF93DF9300D0CDB7D9
:1013E000DEB780919202909193029A83898321C003
:1013F00089819A81FC018481882F90E08130910558
:1014000081F08230910541F0892B09F00BC0898170
:101410009A810E94410611C089819A810E9489099E
:101420000CC0000089819A81FC01808191819A839E
:10143000898389819A81892BD9F60F900F90DF914A
:10144000CF910895CF93DF931F92CDB7DEB7198266
:1014500010C08981282F30E049E8429FC001439F96
:10146000900D112488569D4FFC01108289818F5F59
:1014700089838981843168F300000F90DF91CF91D7
:101480000895CF93DF931F92CDB7DEB7198261C065
:101490008981282F30E049E8429FC001439F900D89
:1014A000112488569D4FFC018081882309F04EC08D
:1014B0008981282F30E049E8429FC001439F900D69
:1014C000112488569D4F49E850E060E070E00E948A
:1014D000194B8981282F30E049E8429FC001439F82
:1014E000900D112487569D4FFC0110828981482F51
:1014F00050E08981282F30E069E8629FC001639F36
:10150000900D112402969C0128563D4F69E8649F76
:10151000C001659F900D1124875E9C4FFC013183B3
:10152000208380913811909139110196909339114F
:10153000809338118981282F30E049E8429FC0010B
:10154000439F900D112488569D4F09C089818F5F5C
:1015500089838981843108F49BCF80E090E00F90EB
:10156000DF91CF910895CF93DF9300D0CDB7DEB751
:101570008A83198285C08981282F30E049E8429FFB
:10158000C001439F900D112488569D4FFC0180811E
:10159000882309F072C08981282F30E049E8429FF2
:1015A000C001439F900D112488569D4F49E850E09B
:1015B00060E070E00E94194B8A81882379F089816C
:1015C000282F30E049E8429FC001439F900D11242D
:1015D00087569D4F27E0FC0120830EC08981282F6C
:1015E00030E049E8429FC001439F900D1124875687
:1015F0009D4F23E0FC0120838981482F50E08981A1
:10160000282F30E069E8629FC001639F900D11248C
:1016100002969C0128563D4F8981682F70E0E9E8C9
:10162000E69FC001E79F900D112487569D4FFC0156
:101630008081882F90E0280F391F69E8649FC001DE
:10164000659F900D1124875E9C4FFC0131832083A0
:1016500080913811909139110196909339118093AE
:1016600038118981282F30E049E8429FC001439F0B
:10167000900D112488569D4F09C089818F5F898301
:101680008981843108F477CF80E090E00F900F904B
:10169000DF91CF910895CF93DF9300D0CDB7DEB720
:1016A0009A83898389819A81FC0110828091381103
:1016B000909139110197909339118093381100005E
:1016C0000F900F90DF91CF910895CF93DF9300D0CB
:1016D000CDB7DEB79A83898389819A81892B29F4D2
:1016E00088E992E09A83898316C089819A81875715
:1016F0009F4F9A8389830FC089819A81FC018081E1
:10170000882319F089819A810DC089819A81875730
:101710009F4F9A83898389819A818C549D4060F37D
:1017200080E090E00F900F90DF91CF910895CF93DC
:10173000DF9300D0CDB7DEB79A83898389819A8100
:101740008D579F4FFC011082809116118F5F8093FF
:1017500016112091161189819A81FC01248720910C
:1017600012113091131189819A81FC0136872587E6
:1017700000000F900F90DF91CF910895CF93DF93EA
:101780001F92CDB7DEB719820FC08981882F90E0F4
:10179000880F991F805B924F2FEF3FEFFC01318341
:1017A000208389818F5F89838981833070F3000072
:1017B0000F90DF91CF910895CF93DF9300D0CDB7F5
:1017C000DEB79A83898389819A81BC018FEF9FEF6D
:1017D0000E94290C0F900F90DF91CF910895CF9325
:1017E000DF9300D0CDB7DEB79A83898389819A8150
:1017F0006FEF7FEF0E94290C0F900F90DF91CF9138
:101800000895CF93DF9300D01F92CDB7DEB79B83AF
:101810008A83198214C08981882F90E0880F991FCC
:10182000805B924FFC01208131818A819B81281746
:10183000390711F481E007C089818F5F898389812D
:10184000833048F380E00F900F900F90DF91CF919D
:101850000895CF93DF9300D000D01F92CDB7DEB7AD
:101860009B838A837D836C83198220C08981882F22
:1018700090E0880F991F805B924FFC01208131819D
:101880008A819B812817390771F48981882F90E01C
:10189000880F991F805B924F2C813D81FC01318321
:1018A000208381E007C089818F5F898389818330AC
:1018B000E8F280E00F900F900F900F900F90DF9163
:1018C000CF910895CF93DF9300D0CDB7DEB79A8341
:1018D000898389819A81FC01418189819A818F570D
:1018E0009F4FFC01808191819C0189819A810296A0
:1018F000B901681B790BCB01742F781B872F0F90D0
:101900000F90DF91CF910895CF93DF931F92CDB7C2
:10191000DEB7198211C08981282F30E0C901880FF4
:10192000991F880F991F820F931F8A59924FFC01AC
:10193000108289818F5F89838981823360F384E695
:1019400090E0A0E0B0E08093630E9093640EA093CB
:10195000650EB093660E1092670E8BE69EE0909334
:10196000690E8093680E6CE87FE080E00E94460577
:1019700000000F90DF91CF910895CF93DF9300D0B7
:1019800000D0CDB7DEB79C838B838B819C81FC011B
:1019900080819181FC0180818C3041F48B819C811C
:1019A000FC018281873008F05BC0F9C08B819C818B
:1019B000FC0180819181FC0180818C3C49F08B810C
:1019C0009C81FC0180819181FC0180818C3841F4F3
:1019D0008B819C81FC018281833008F041C0DFC093
:1019E0008B819C81FC01808191810196FC01808129
:1019F0008838D1F48B819C81FC0180819181FC012C
:101A00008081813651F08B819C81FC0180819181A4
:101A1000FC018081813409F0B7C08B819C81FC017D
:101A200082818031E8F4B0C08B819C81FC0180818F
:101A300091810196FC018081803809F0A7C08B81DB
:101A40009C81FC0180819181FC018081882309F0C7
:101A50009FC08B819C81FC0182818B3008F498C0EF
:101A60008B819C81FC01808191810196FC018081A8
:101A7000883851F08B819C81FC0180819181019695
:101A8000FC0180818038D9F40E94410A9A838983BD
:101A900089819A81892B09F47DC08B819C81FC010D
:101AA000808191810196FC018081883811F420E2C7
:101AB00001C025E289819A81FC01208337C08B8196
:101AC0009C81FC0180819181FC0180818C3081F4BA
:101AD00081E00E94B30A9A83898389819A81892B44
:101AE00009F45AC089819A8126E2FC0120831EC034
:101AF00080E00E94B30A9A83898389819A81892B25
:101B000009F44CC08B819C81FC0180819181FC0196
:101B100080818C3831F489819A8128E2FC0120830C
:101B200005C089819A8127E2FC0120838B819C81F9
:101B3000FC01228189819A81FC0121838B819C8116
:101B4000FC01238189819A818D579F4FFC0120835D
:101B50008B819C81FC01248189819A818C579F4FC4
:101B6000FC0120838B819C81FC018281482F50E005
:101B70008B819C81FC012081318189819A8102962F
:101B8000B9010E94104B0BC0000009C0000007C043
:101B9000000005C0000003C0000001C000000F905D
:101BA0000F900F900F90DF91CF910895CF93DF9317
:101BB00000D000D000D0CDB7DEB79E838D830E94C9
:101BC000410A9A83898389819A81892B09F46BC0A0
:101BD0008D819E81FC01818120E1280F8D819E8174
:101BE000FC0121838D819E818F579F4FFC01808155
:101BF00091819C01205F3F4F8D819E818F579F4F28
:101C0000FC013183208389819A810E94970B89810D
:101C10009A81FC01818123E0280F89819A81FC014E
:101C2000218389819A8189579F4FFC0111821082FB
:101C30008D819E81FC01838581FB222720F989818A
:101C40009A812170220FFC0133853D7F232BFC01FB
:101C500023878D819E81FC012585368589819A8126
:101C6000FC01308B278789819A818F579F4FFC0118
:101C7000808191819C838B838B819C81FC0110826C
:101C800020915C0E8B819C81FC0122838D819E8141
:101C9000FC0124858B819C81FC01218389819A81AF
:101CA0000E94751501C0000026960FB6F894DEBF9D
:101CB0000FBECDBFDF91CF910895CF93DF931F92D9
:101CC000CDB7DEB78983898180935C0E00000F90C9
:101CD000DF91CF910895CF93DF9300D000D0CDB79F
:101CE000DEB79C838B8319821A8230C08A81282FA9
:101CF00030E0C901880F991F880F991F820F931F29
:101D00008A59924FFC0180818823E9F08A81282F2B
:101D100030E0C901880F991F880F991F820F931F08
:101D20008A59924FFC0180814FEF480FC901880FFB
:101D3000991F880F991F820F931F8A59924FFC0198
:101D4000408381E089838A818F5F8A838A8182339D
:101D500068F28981882321F08B819C810E94B31DC8
:101D600000000F900F900F900F90DF91CF9108958A
:101D7000CF93DF93CDB7DEB729970FB6F894DEBFC8
:101D80000FBECDBF998788871A8219821B8290C0A7
:101D90008B81282F30E0C901880F991F880F991F68
:101DA000820F931F8E59924F9D838C838C819D81CE
:101DB000FC018481882309F46EC088859985FC0123
:101DC000238534858C819D81FC0180819181281738
:101DD000390709F060C08C819D81FC0122818885D2
:101DE0009985FC018285F22FF81B8F2F8E838E81BF
:101DF000883058F58C819D81FC018381882F90E08B
:101E00002E81222F30E002C0959587952A95E2F722
:101E100081709927892B11F081E075C08C819D819B
:101E2000FC018381482F8E81282F30E081E090E0F3
:101E300002C0880F991F2A95E2F7842B282F8C81E6
:101E40009D81FC01238380E05EC08E8181958F831C
:101E500088859985FC0122858C819D81FC012283E6
:101E60008C819D81FC018381882F90E02F81222F1E
:101E700030E002C0880F991F2A95E2F78160282F71
:101E80008C819D81FC0123838C819D8125E1FC0156
:101E9000248380E038C08C819D81FC01848188236B
:101EA00021F48C819D819A8389838B818F5F8B83C1
:101EB0008B81823308F46CCF89819A81892B11F44C
:101EC00081E021C088859985FC012385348589813D
:101ED0009A81FC013183208388859985FC012285C4
:101EE00089819A81FC01228389819A8121E0FC0108
:101EF000238389819A8125E1FC0124838DE59EE07D
:101F00000E94B31D80E029960FB6F894DEBF0FBE85
:101F1000CDBFDF91CF910895CF93DF9300D0CDB7A0
:101F2000DEB79A83898389819A81FC01828588231F
:101F300011F480E011C089819A81FC01808591852E
:101F4000FC018081882F90E0892B29F489819A8176
:101F50000E949B1601C080E00F900F90DF91CF91FF
:101F60000895CF93DF93CDB7DEB728970FB6F894D7
:101F7000DEBF0FBECDBF98878F838F819885029675
:101F80009B838A838F81988524E2FC0120838A8148
:101F90009B81FC0181858270882309F03BC18A8185
:101FA0009B81FC0181858870882341F08A819B8117
:101FB000FC0181858170882309F02EC18A819B8173
:101FC000FC01838194810196D1F42091121130910A
:101FD00013118A819B81FC01858596852817390715
:101FE00041F08A819B81FC0185859685019609F0E7
:101FF00015C18F81988522E2FC0120830FC18A815F
:102000009B81FC0185859685019641F48A819B819F
:10201000FC0181858170882309F002C12091121191
:10202000309113118A819B81FC0183859485281747
:10203000390709F4F7C08A819B810E94B80E882372
:1020400009F0F2C08A819B81FC0181858870882318
:1020500009F4A9C08F8198858F579F4FFC0180811B
:1020600091819D838C838A819B81FC0185859685E6
:102070000E94010C8E8319828A819B81FC018581DB
:102080009681019609F061C08E81882379F18C8157
:102090009D81FC0181818F70882F90E021E01816CE
:1020A00019060CF020E029838C819D81FC0181813F
:1020B0008F702FE0280F2F708C819D812F70FC0175
:1020C0003181307F232BFC0121838C819D81FC0198
:1020D0008081282F22952F708C819D812F70FC018B
:1020E0003081307F232BFC0120833BC08C819D817C
:1020F000FC0180818F70882F90E021E0181619066E
:102100000CF020E029838C819D81FC0180818F70FF
:102110002FE0280F2F708C819D812F70FC01308162
:10212000307F232BFC0120838C819D81FC018181E8
:10213000282F22952F708C819D812F70FC01318179
:10214000307F232BFC0121830CC08E81882349F032
:1021500081E089838A819B81FC0121852460FC01C7
:1021600021878981882321F08F8198850E940C1610
:102170008E81882309F459C08F8198858F579F4F8E
:10218000FC01808191819C012E5F3F4F8F8198855A
:102190008F579F4FFC01318320838F81988522E2E6
:1021A000FC01208342C08A819B81FC01858196814C
:1021B0000196B9F420911211309113118A819B81FB
:1021C000FC01858596852817390759F08A819B81FE
:1021D000FC0181858470882321F48F8198850E9479
:1021E0000C1620911211309113118A819B81FC01F0
:1021F000858596852817390739F08A819B81FC01EE
:1022000085859685019689F48F81988522E2FC0167
:1022100020830BC0000009C0000007C0000005C0FB
:10222000000003C0000001C0000028960FB6F8941B
:10223000DEBF0FBECDBFDF91CF910895CF93DF9367
:10224000CDB7DEB761970FB6F894DEBF0FBECDBF36
:10225000998B888B8889998902969A838983898149
:102260009A81FC01878582958F70882F90E0039674
:10227000880F991F8E5E9E4EFC0180819181892B73
:1022800011F480E0D9C089819A81FC01838594850D
:102290009C838B8389819A81FC01858596859E83A9
:1022A0008D8389819A81FC0187858F708F838981D5
:1022B0009A81FC01878582958F70888788899989A2
:1022C0008F579F4FFC01808191819C878B878889E4
:1022D00099890E94620C8D87888999898D579F4FB3
:1022E000FC0180818E87888999898C579F4FFC01DA
:1022F00080818F8789819A81FC018185982F9170D7
:1023000081E0992309F480E0882F90E09A878987FB
:1023100029853A8589819A81FC018185882F90E001
:1023200082709927822B932B9A87898729853A85F2
:1023300089819A81FC0181858470882319F080E26B
:1023400090E002C080E090E0822B932B9A878987EF
:1023500029853A8589819A81FC0181858870882345
:1023600019F080E490E002C080E090E0822B932B93
:102370009A87898729853A8589819A81FC01818597
:102380008071882319F080E890E002C080E090E03E
:10239000822B932B9A87898729853A8589819A810F
:1023A000FC0185859685019619F484E090E002C0D1
:1023B00080E090E0822B932B9A87898729853A8544
:1023C00089819A81FC014385548589819A81FC0128
:1023D000878190854817590719F488E090E002C07A
:1023E00080E090E0822B932B9A87898729853A8514
:1023F00089819A81FC0183819481019619F480E19D
:1024000090E002C080E090E0822B932B9A8789872E
:1024100089819A81FC01878582958F70882F90E051
:102420000396880F991F8E5E9E4EFC01208131819C
:10243000CE010396F901099561960FB6F894DEBFB7
:102440000FBECDBFDF91CF910895CF93DF93CDB76E
:10245000DEB761970FB6F894DEBF0FBECDBF998B84
:10246000888B8889998902969A8389838889998932
:1024700024E2FC0120838091181190911911892B7D
:1024800011F480E044C088899989FC018781908596
:102490009C838B8388899989FC01878190859E83A1
:1024A0008D831F821886888999898F579F4FFC01D9
:1024B000808191819C878B87888999890E94620C91
:1024C0008D87888999898D579F4FFC0180818E87E0
:1024D000888999898C579F4FFC0180818F8780E87C
:1024E00090E09A87898789819A81FC018785829506
:1024F0008F70882F90E00396880F991F8E5E9E4EF6
:10250000FC0120813181CE010396F9010995619684
:102510000FB6F894DEBF0FBECDBFDF91CF91089507
:10252000CF93DF93CDB7DEB72F970FB6F894DEBF0A
:102530000FBECDBF9F878E878E859F8524E2FC01CD
:1025400020838091181190911911892B11F480E04A
:102550002AC01A8219821C821B821D821E828E85CD
:102560009F8502969A8789878E859F850E94620C37
:102570008B878E859F858D579F4FFC0180818C872F
:102580008E859F858C579F4FFC0180818D8780E0D1
:1025900091E098878F832091181130911911CE0105
:1025A0000196F90109952F960FB6F894DEBF0FBE7C
:1025B000CDBFDF91CF910895CF93DF93CDB7DEB735
:1025C00061970FB6F894DEBF0FBECDBF998B888B95
:1025D0008889998902969A8389838889998924E2CE
:1025E000FC01208380911E1190911F11892B11F401
:1025F00080E02EC01C821B821E821D821F821886D4
:10260000888999898F579F4FFC01808191819C8790
:102610008B87888999890E94620C8D87888999891E
:102620008D579F4FFC0180818E87888999898C57AF
:102630009F4FFC0180818F8780E092E09A87898795
:1026400020911E1130911F11CE010396F9010995B9
:1026500061960FB6F894DEBF0FBECDBFDF91CF916C
:102660000895CF93DF93CDB7DEB761970FB6F89497
:10267000DEBF0FBECDBF998B888B88899989029662
:102680009A8389838889998924E2FC012083809137
:10269000201190912111892B11F480E02EC01C8211
:1026A0001B821E821D821F821886888999898F57F6
:1026B0009F4FFC01808191819C878B8788899989B4
:1026C0000E94620C8D87888999898D579F4FFC01E4
:1026D00080818E87888999898C579F4FFC018081E2
:1026E0008F8780E090E49A8789872091201130912C
:1026F0002111CE010396F901099561960FB6F89460
:10270000DEBF0FBECDBFDF91CF910895CF93DF9392
:1027100000D01F92CDB7DEB79B838A8310925C0EE8
:102720008A819B810E941E1189838A819B81FC0181
:1027300083858170882309F419828A819B81FC0139
:10274000878190850196A9F420911211309113117F
:102750008A819B81FC01878590892817390749F474
:102760008A819B81FC0183858870882311F481E034
:1027700089838A819B81FC0185819681019609F478
:1027800019828091121190911311019609F4198206
:102790008981882321F08A819B810E94D60D8A81BC
:1027A0009B8124E2FC01208300000F900F900F908A
:1027B000DF91CF910895CF93DF9300D0CDB7DEB7EF
:1027C0001A8219823BC089819A81FC018081882FFD
:1027D00090E0092E000CAA0BBB0B40E250E028E071
:1027E00030E0841B950B2817390740F180579F4F25
:1027F000FC010C94BB4989819A810E94B10F1EC0D3
:1028000089819A810E94861319C089819A810E94C8
:102810004B0B14C089819A810E9425120FC08981B7
:102820009A810E9490120AC089819A810E94DC12CA
:1028300005C089819A810E943113000089819A81A3
:102840000E94650B9A83898389819A81892B09F07B
:10285000BACF00000F900F90DF91CF910895CF93E2
:10286000DF93CDB7DEB71092730E1092720E82E333
:1028700090E0A0E0B0E080937A0E90937B0EA0935E
:102880007C0EB0937D0E10927E0E8AEE96E19093B0
:10289000800E80937F0E8AE090E0A0E0B0E080930D
:1028A000870E9093880EA093890EB0938A0E109293
:1028B0008B0E84E597E190938D0E80938C0E000033
:1028C000DF91CF910895CF93DF9300D000D0CDB7A3
:1028D000DEB79C838B838B819C8102969A8389834C
:1028E0008B819C8123E1FC0120838B819C818D570E
:1028F0009F4FFC0110828B819C818C579F4FFC0164
:102900001182108289819A8120E030E8FC013183B4
:102910002083809117118F5F8093171120911711D9
:1029200089819A81FC012283209114113091151123
:1029300089819A81FC013483238320911211309183
:10294000131189819A81FC013683258300000F9041
:102950000F900F900F90DF91CF910895CF93DF9359
:1029600000D000D0CDB7DEB79C838B838B819C8158
:1029700002969A8389838B819C8123E1FC012083C9
:102980008B819C818D579F4FFC0110828B819C8194
:102990008C579F4FFC011182108289819A812CE013
:1029A000FC012083809117118F5F80931711209174
:1029B000171189819A81FC01218389819A81FC0107
:1029C0002281287FFC01228389819A81FC01228156
:1029D000277EFC01228389819A81FC0122812F7D3F
:1029E000FC01228389819A81FC0122812F7BFC01D9
:1029F000228300000F900F900F900F90DF91CF91E6
:102A00000895CF93DF9300D000D000D0CDB7DEB7CC
:102A10009C838B837E836D838B819C8102969A83BA
:102A200089838B819C8123E1FC0120838B819C81A4
:102A30008D579F4FFC0110828B819C818C579F4F3B
:102A4000FC01118210828D819E81992334F4898149
:102A50009A812CECFC01208317C08D819E818827F0
:102A60009072892B31F089819A812CE4FC012083BA
:102A70000BC08D819E8188279074892B29F08981D4
:102A80009A812CE8FC012083809117118F5F80933D
:102A900017112091171189819A81FC012183898165
:102AA0009A81FC012281287FFC01228389819A81FD
:102AB000FC012281277EFC01228389819A81FC010D
:102AC00022812F7DFC01228389819A81FC01228150
:102AD0002F7BFC012283000026960FB6F894DEBF00
:102AE0000FBECDBFDF91CF910895CF93DF9300D07C
:102AF00000D0CDB7DEB79C838B838B819C810296FF
:102B00009A8389838B819C818A579F4FFC018081A6
:102B1000882F90E082709927892B31F08B819C81DE
:102B200022E1FC01208305C08B819C8122E1FC0114
:102B300020838B819C818D579F4FFC0110828B815C
:102B40009C818A579F4FFC018081882F90E0817083
:102B50009927892B41F089819A812FEF3FEFFC0162
:102B60003483238309C02091141130911511898178
:102B70009A81FC013483238389819A81FC01258514
:102B8000368589819A81FC01368325832091121133
:102B90003091131189819A81FC01308727838091BC
:102BA00017118F5F809317112091171189819A81D6
:102BB000FC01228389819A81FC018581968101969D
:102BC000A9F489819A8121E438E8FC0131832083CA
:102BD0000E941E4A8770992701969C018B819C81D7
:102BE0008C579F4FFC01318320830EC089819A81CD
:102BF00021E438E8FC01318320838B819C818C5750
:102C00009F4FFC011182108200000F900F900F90D7
:102C10000F90DF91CF910895CF93DF9300D000D034
:102C2000CDB7DEB79C838B830E94410A9A83898348
:102C300089819A81892B09F476C089819A818F577D
:102C40009F4FFC01808191819C01205F3F4F8981D2
:102C50009A818F579F4FFC013183208389819A810C
:102C600022E1FC0120838B819C81FC0121818981EF
:102C70009A81FC01218389819A818D579F4FFC01A4
:102C800010820E941E4A8770992701969C018981B3
:102C90009A818C579F4FFC013183208389819A81CF
:102CA00089579F4FFC01118210828B819C81FC010E
:102CB0008181482F50E08B819C819C012E5F3F4F8A
:102CC00089819A810296B9010E94104B89819A816B
:102CD00021E438E8FC013383228389819A812FEF34
:102CE0003FEFFC01308727838B819C81FC0125818C
:102CF000368189819A81FC013683258320911211C6
:102D00003091131189819A81FC013287218780914A
:102D100017118F5F809317112091171189819A8164
:102D2000FC01248301C000000F900F900F900F90C2
:102D3000DF91CF910895CF93DF9300D000D000D0E2
:102D4000CDB7DEB79E838D838D819E81FC0180850A
:102D500091859C838B831A8219828D819E81FC01CF
:102D60008285833019F180E02CC089819A81FC0131
:102D700080818631D9F489819A81FC0124858B81F7
:102D80009C81FC018181281789F489819A8127E13E
:102D9000FC0120838B819C81FC01228189819A81A5
:102DA0008A579F4FFC01208381E00BC089819A8163
:102DB0000E94650B9A83898389819A81892BA9F660
:102DC00080E026960FB6F894DEBF0FBECDBFDF9130
:102DD000CF910895CF93DF9300D000D01F92CDB74D
:102DE000DEB79D838C831A8219821B8227C089815A
:102DF0009A81FC018081863109F581E08B8389818C
:102E00009A818C579F4FFC01808191819C012150B8
:102E1000310989819A818C579F4FFC01318320832E
:102E200089819A818C579F4FFC0180819181892BE8
:102E300029F489819A8160E10E94381789819A81F9
:102E40000E94650B9A83898389819A81892B79F6FF
:102E50008B81882321F08C819D810E94B31D00000D
:102E60000F900F900F900F900F90DF91CF910895DA
:102E7000CF93DF9300D01F92CDB7DEB79A838983BB
:102E80006B8389819A8127E1FC01208389819A8162
:102E90008D579F4F2B81FC01208300000F900F90D6
:102EA0000F90DF91CF910895CF93DF9300D000D0A2
:102EB0001F92CDB7DEB79D838C831A8219821B8245
:102EC00027C089819A81FC018081813109F581E0E7
:102ED0008B8389819A818C579F4FFC0180819181DE
:102EE0009C012150310989819A818C579F4FFC01A7
:102EF0003183208389819A818C579F4FFC01808187
:102F00009181892B29F489819A8123E1FC01208315
:102F100089819A810E94650B9A83898389819A812C
:102F2000892B79F68B81882321F08C819D810E94E9
:102F3000B31D00000F900F900F900F900F90DF9136
:102F4000CF910895CF93DF931F92CDB7DEB78983DA
:102F50008981882F90E08130910539F08230910588
:102F600031F0892B31F480E005C080E203C081E2BA
:102F700001C081E00F90DF91CF9108950F931F93CF
:102F8000CF93DF931F92CDB7DEB789830091720E86
:102F90001091730E89810E94A217282FC8018D57A6
:102FA0009F4FFC0120838091720E9091730E25E15A
:102FB000FC0120831092730E1092720E80913811D2
:102FC0009091391101979093391180933811000035
:102FD0000F90DF91CF911F910F910895CF93DF93C1
:102FE00000D0CDB7DEB71A821982B3C089819A8129
:102FF000FC018081882F90E08431910509F4A9C0FB
:103000008531910534F48231910579F0439731F19E
:103010009FC08631910509F49CC0863191050CF45E
:1030200043C0479709F47AC093C089819A818C572D
:103030009F4FFC0180819181892B51F089819A8178
:1030400021E1FC01208381E89EE00E94B31D81C044
:1030500089819A8123E1FC0120837BC08091720EDB
:103060009091730E892B09F074C089819A81909395
:10307000730E8093720E89819A8124E1FC01208372
:1030800089819A81FC01218189819A810296622F2E
:103090000E94141B809138119091391101969093E0
:1030A00039118093381155C089819A818D579F4F6E
:1030B000FC018081882361F589819A81FC01258545
:1030C0003685809112119091131128173907D1F488
:1030D00089819A81FC0183858170882399F0898197
:1030E0009A8126E1FC01208389819A818C579F4F28
:1030F00025E130E0FC013183208384E79EE00E94DB
:10310000B31D0BC089819A8127E1FC01208321C076
:1031100089819A8127E1FC0120831BC089819A81E2
:1031200089579F4FFC0180819181892B29F48981E6
:103130009A810E944B0B0DC089819A8189579F4FBC
:10314000FC012081318189819A81F901099501C0B1
:10315000000089819A810E94650B9A838983898105
:103160009A81892B09F042CF00000F900F90DF91D8
:10317000CF910895CF93DF9300D0CDB7DEB79A8378
:10318000898389819A81892B09F47BC089819A81FD
:103190008837910549F461E080E00E94603960E180
:1031A00080E00E9460396DC089819A81803C9105E0
:1031B00029F462E080E00E94603963C089819A81CD
:1031C0008C34910529F464E080E00E94603959C094
:1031D00089819A818038910529F468E080E00E9415
:1031E00060394FC089819A818434910529F460E265
:1031F00080E00E94603945C089819A81803B9105B9
:1032000029F460E480E00E9460393BC089819A81A2
:10321000883B910529F460E880E00E94603931C064
:1032200089819A81883C910529F461E081E00E94BE
:10323000603927C089819A818039910529F468E035
:1032400081E00E9460391DC089819A81803A910590
:1032500029F460E181E00E94603913C089819A817C
:103260008032914029F460E281E00E94603909C017
:1032700089819A818334914021F460E481E00E9445
:10328000603900000F900F90DF91CF910895615049
:10329000710981099109D9F708950F931F93CF936D
:1032A000DF93CDB7DEB783E491E00E94BA1889E3DB
:1032B00091E0FC0120812160FC01208310920F0F1E
:1032C00081E080938E0E88E00E94F11B8CE491E0F7
:1032D000FC0120812068FC0120830DE611E00E94A2
:1032E000551BF80180838DE491E0FC0120812C7F47
:1032F0002260FC0120838AE491E0FC012081207F90
:103300002360FC0120838DE491E0FC012081286092
:10331000FC0120838DE491E0FC0120812460FC010C
:10332000208384E491E0FC0120812068FC0120835B
:103330000000DF91CF911F910F910895CF93DF93FC
:10334000CDB7DEB789E391E0FC0120812160FC016B
:1033500020830000DF91CF910895CF93DF931F92D8
:10336000CDB7DEB7898389818823B1F08CE691E0FF
:10337000FC0120812F70FC0120838CE691E0FC0190
:1033800020812E60FC0120838EE691E0FC012081EB
:103390002061FC01208317C08CE691E0FC012081B4
:1033A0002F702063FC0120838CE691E0FC012081DA
:1033B000217F2860FC0120838EE691E0FC012081C2
:1033C0002F7EFC01208300000F90DF91CF910895A4
:1033D000CF93DF93CDB7DEB729970FB6F894DEBF52
:1033E0000FBECDBF898728E0CE010196FC01322FA8
:1033F00011923A95E9F78985882349F180E090E0B8
:103400000E94981A80E090E00E94741ACE01019602
:103410000E942F1C87E591E0FC0120812260FC01C5
:10342000208387E591E0FC0120812061FC0120835D
:1034300087E591E0FC0120812F7DFC0120838EE651
:1034400091E0FC0120812061FC0120830BC087E515
:1034500091E0FC0110828EE691E0FC0120812F7E3C
:10346000FC012083000029960FB6F894DEBF0FBE42
:10347000CDBFDF91CF9108950F931F93CF93DF932B
:10348000CDB7DEB70DE611E00E94551BF801808331
:103490000000DF91CF911F910F910895CF93DF939B
:1034A0001F92CDB7DEB78983898180930F0F0E9469
:1034B000DA1B00000F90DF91CF910895CF93DF9337
:1034C0001F92CDB7DEB7898388E491E029812F71FF
:1034D0002F71FC013081307E232BFC012083000002
:1034E0000F90DF91CF910895CF93DF9300D000D05C
:1034F000CDB7DEB79C838B83CE0103969A838983F5
:1035000082E691E029813A81F9012081FC01208342
:1035100083E691E029813A81F9012181FC01208330
:1035200000000F900F900F900F90DF91CF910895B2
:10353000CF93DF9300D000D0CDB7DEB79C838B83D1
:10354000CE0103969A83898380E691E029813A81AE
:10355000F9012081FC01208381E691E029813A81F3
:10356000F9012181FC01208300000F900F900F9042
:103570000F90DF91CF910895CF93DF931F92CDB736
:10358000DEB7898385E491E029812F702F70FC01DB
:103590003081307F232BFC01208300000F90DF91CE
:1035A000CF910895CF93DF93CDB7DEB780918E0E84
:1035B000823069F088E00E94F11B89E391E0FC0110
:1035C00020812260FC01208382E080938E0E8DE4B6
:1035D00091E0FC0120812B7FFC0120838DE491E0B0
:1035E000FC012081277FFC01208384E491E0FC0121
:1035F00020812F77FC0120830000DF91CF91089577
:10360000CF93DF93CDB7DEB789E391E0FC01208152
:103610002D7FFC0120830E94DA1B81E080938E0EB7
:103620000000DF91CF910895CF93DF9300D000D0B9
:10363000CDB7DEB79B838A836C8389E10E94F11B3F
:103640008FE491E02FEFFC01208380E891E02C8152
:103650002E5FFC012083198214C08981882F90E09D
:103660008F579E4FAC018981882F90E02A813B8142
:10367000820F931FFC018081FA01808389818F5F13
:10368000898399818C81981740F383E080938E0E13
:1036900082E491E022E0FC01208300000F900F9073
:1036A0000F900F90DF91CF910895CF93DF9300D0CB
:1036B0001F92CDB7DEB71A82198286E00E94F11BF5
:1036C0001B8222C062E070E080E090E00E94471917
:1036D00086E491E0FC0180818295869587708370F5
:1036E000882F90E02B81222F30E002C0880F991F95
:1036F0002A95E2F79C0189819A81822B932B9A83E8
:1037000089838B818E5F8B838B818031D8F20E947D
:10371000DA1B89819A810F900F900F90DF91CF91E2
:103720000895CF93DF9300D000D0CDB7DEB79A8352
:1037300089837C836B838B819C8140E060E00E9465
:10374000542C89819A810E94602D89819A810E94DE
:10375000962D00000F900F900F900F90DF91CF915A
:103760000895CF93DF931F92CDB7DEB786E00E9416
:10377000F11B8FE491E0FC0120812061FC0120839A
:1037800087E491E0FC01108200008FE491E0FC01ED
:103790008081829581708823C1F387E491E0FC01E8
:1037A00080818A5589830E94DA1B89810F90DF917D
:1037B000CF910895CF93DF93CDB7DEB788E00E9415
:1037C000F11B8FE491E02FEFFC01208380910F0F1C
:1037D000882319F086E10E94F11B0000DF91CF9150
:1037E0000895CF93DF931F92CDB7DEB78983809181
:1037F0008E0E8230A9F48DE491E0FC0120812860D6
:10380000FC0120838DE491E0FC0120812460FC0117
:10381000208384E491E0FC0120812068FC01208366
:1038200082E491E023E0FC01208381E491E0FC014B
:1038300080818F718830A1F782E491E02981FC01B9
:10384000208381E491E0FC0180818F71982F898130
:10385000981791F700000F90DF91CF910895CF93C3
:10386000DF9300D000D0CDB7DEB79C838B838B81F4
:103870009C819A83898324E631E089819A81AC0115
:103880004F5F5F4F5A834983FC018081F901808338
:1038900025E631E089819A81AC014F5F5F4F5A8301
:1038A0004983FC018081F901808326E631E089812A
:1038B0009A81AC014F5F5F4F5A834983FC0180813D
:1038C000F901808327E631E089819A81AC014F5F5D
:1038D0005F4F5A834983FC018081F901808328E688
:1038E00031E089819A81AC014F5F5F4F5A834983F0
:1038F000FC018081F901808329E631E089819A8188
:10390000AC014F5F5F4F5A834983FC018081F9010D
:1039100080832AE631E089819A81AC014F5F5F4F55
:103920005A834983FC018081F90180838BE691E011
:1039300029813A81F9012081FC01208300000F9048
:103940000F900F900F90DF91CF910895CF93DF9359
:10395000CDB7DEB728970FB6F894DEBF0FBECDBF48
:1039600080918E0E823009F49EC08FE491E0FC01BC
:10397000808183FB882780F9882309F459C08BE76D
:1039800091E0FC0180818B83198211C08981882F8D
:1039900090E02981222F30E020583E4FF90120810C
:1039A0008157914FFC01208389818F5F89838981B1
:1039B000282F30E08B81882F90E001962817390757
:1039C0002CF38FE89EE09D838C838B8182508E83C5
:1039D0008B81882F90E08157914FFC0180818F83EC
:1039E00087E491E0FC0180818A558887CE010496A6
:1039F0000E94BD0C000081E491E0FC0180818F7188
:103A00008631C9F78FE491E0FC0120812860FC0138
:103A100020838CE491E0FC0120812F77FC0120833E
:103A20008CE491E0FC0120812068FC0120833CC0F3
:103A30008FE491E0FC01808186FB882780F9882350
:103A400099F181E491E0FC0180818F71893119F550
:103A500082E491E0FC0180818295869587708A835B
:103A60008A81882311F41A820EC08A81833019F466
:103A700081E08A8308C08A81853019F482E08A83D4
:103A800002C083E08A830E94DA1B81E080938E0E5D
:103A90008A810E94BE178FE491E0FC01208120649E
:103AA000FC01208301C0000028960FB6F894DEBF09
:103AB0000FBECDBFDF91CF910895CF93DF93CDB7E8
:103AC000DEB70E949B1D0E944C2C0E944D190E9443
:103AD000E5040000DF91CF910895CF93DF93CDB738
:103AE000DEB70E94A61C0E94E3050E946D1E000026
:103AF000DF91CF910895CF93DF931F92CDB7DEB7BB
:103B00008FE590E0FC0180818983F89489810F9092
:103B1000DF91CF910895CF93DF931F92CDB7DEB79A
:103B200089838FE590E02981FC01208300000F90BC
:103B3000DF91CF910895CF93DF93CDB7DEB7109289
:103B40003A1185E090E20E94DA450E948C4580E1BE
:103B500097E20E9422451092190F1092180F000050
:103B6000DF91CF910895CF93DF9300D0CDB7DEB72B
:103B70009A83898389819A810E94421E982F81E0CD
:103B80008927882321F089819A810E94301F0000B3
:103B90000F900F90DF91CF910895CF93DF9300D0D6
:103BA00000D000D0CDB7DEB79E838D831A821982F4
:103BB0008091180F9091190F9C838B8352C02B8199
:103BC0003C818D819E812817390709F03FC089818A
:103BD0009A81892B59F08B819C81FC012081318154
:103BE00089819A81FC013183208309C08B819C816A
:103BF000FC01808191819093190F8093180F8B8124
:103C00009C81FC0180819181892B89F18B819C8130
:103C1000FC01608171818B819C81FC01808191819B
:103C2000FC0122813381448155818D819E81FC017B
:103C300082819381A481B581820F931FA41FB51F38
:103C4000FB0182839383A483B58311C08B819C8104
:103C50009A8389838B819C81FC01808191819C83E3
:103C60008B838B819C81892B09F0A9CF01C0000037
:103C7000000026960FB6F894DEBF0FBECDBFDF91D1
:103C8000CF910895CF93DF9300D000D0CDB7DEB7AA
:103C90009C838B838091180F9091190F9A8389834D
:103CA00010C029813A818B819C812817390711F432
:103CB00081E00CC089819A81FC01808191819A8385
:103CC000898389819A81892B61F780E00F900F9019
:103CD0000F900F90DF91CF910895EF92FF920F9385
:103CE0001F93CF93DF93CDB7DEB728970FB6F89425
:103CF000DEBF0FBECDBF80913A11882309F4A2C068
:103D00000E947B1D8D8380913A118E8310923A110F
:103D10008D810E948B1D8E81882F90E0A0E0B0E005
:103D2000880F991FAA1FBB1F9C01AD01220F331FD3
:103D3000441F551F220F331F441F551F820F931F0F
:103D4000A41FB51F89839A83AB83BC833DC0809138
:103D5000180F9091190F98878F838091180F909169
:103D6000190FFC0182819381A481B58129813A8157
:103D70004B815C8179018A01E81AF90A0A0B1B0B55
:103D8000D801C70189839A83AB83BC838091180FC4
:103D90009091190FFC01808191819093190F80936C
:103DA000180F8F819885FC018285813021F48F81E5
:103DB00098850E94301F8F819885FC01238534856A
:103DC0008F819885F90109958091180F9091190FAD
:103DD000892B99F08091180F9091190FFC01228185
:103DE00033814481558189819A81AB81BC8182175D
:103DF0009307A407B50708F0AACF8091180F9091F8
:103E0000190F892B01F16091180F7091190F809192
:103E1000180F9091190FFC01228133814481558143
:103E200089819A81AB81BC8179018A01E81AF90AFA
:103E30000A0B1B0BD801C701FB0182839383A48368
:103E4000B58301C0000028960FB6F894DEBF0FBE00
:103E5000CDBFDF91CF911F910F91FF90EF9008950B
:103E6000EF92FF920F931F93CF93DF93CDB7DEB7FF
:103E70002A970FB6F894DEBF0FBECDBF9A87898709
:103E80008091180F9091190F892B09F497C01A820D
:103E9000198289859A85FC0186819781A085B185E3
:103EA0008B839C83AD83BE838091180F9091190FF3
:103EB00098878F834DC08F819885FC012281338143
:103EC000448155818B819C81AD81BE81821793078E
:103ED000A407B507D8F48F819885FC01228133812E
:103EE000448155818B819C81AD81BE8179018A019C
:103EF000E81AF90A0A0B1B0BD801C7012F81388574
:103F0000F90182839383A483B58327C08F81988529
:103F1000FC0182819381A481B5812B813C814D81FB
:103F20005E8179018A01E81AF90A0A0B1B0BD80194
:103F3000C7018B839C83AD83BE838F8198859A83D1
:103F400089838F819885FC018081918198878F83F7
:103F50008F819885892B09F0AECF29853A858B8191
:103F60009C81AD81BE81F90182839383A483B58353
:103F700089819A81892B91F089819A81FC01208124
:103F8000318189859A85FC013183208389819A81D9
:103F900029853A85FC013183208329C02091180F9F
:103FA0003091190F89859A85FC0131832083898599
:103FB0009A859093190F8093180F19C089859A8557
:103FC000FC011182108289859A85FC018681978186
:103FD000A085B18529853A85F90182839383A483DD
:103FE000B58389859A859093190F8093180F0000E7
:103FF0002A960FB6F894DEBF0FBECDBFDF91CF91EA
:104000001F910F91FF90EF900895CF93DF93CDB75D
:10401000DEB780913A118F5F80933A1180E197E289
:104020000E9422450000DF91CF910895CF93DF9346
:104030001F92CDB7DEB78FE590E0FC0180818983C8
:10404000F89489810F90DF91CF910895CF93DF93FA
:104050001F92CDB7DEB789838FE590E02981FC01FF
:10406000208300000F90DF91CF910895CF93DF93CD
:10407000CDB7DEB780E094E2A4EFB0E0BC01CD01A3
:10408000DF91CF910895CF93DF93CDB7DEB70E9434
:104090003620DC01CB01BC01CD01DF91CF91089529
:1040A000CF93DF9300D0CDB7DEB79A838983898120
:1040B0009A81892B21F480E090E0DC01A3C0898102
:1040C0009A818837910529F40E944320DC01CB01B5
:1040D00099C089819A81803C910529F40E944320EE
:1040E000DC01CB018FC089819A818C34910529F440
:1040F0000E944320DC01CB0185C089819A818038F0
:10410000910529F40E944320DC01CB017BC0898109
:104110009A818434910529F40E944320DC01CB016B
:1041200071C089819A81803B910529F40E944320C6
:10413000DC01CB0167C089819A81803C910529F41B
:104140000E944320DC01CB015DC089819A81883BBC
:10415000910529F40E944320DC01CB0153C08981E1
:104160009A818039910529F40E944320DC01CB011A
:1041700049C089819A81803A910529F40E9443209F
:10418000DC01CB013FC089819A818032914029F4C2
:104190000E944320DC01CB0135C089819A818334A0
:1041A000914029F40E944320DC01CB012BC089817E
:1041B0009A818533914029F40E944320DC01CB0190
:1041C00021C089819A818433914029F40E9443203F
:1041D000DC01CB0117C089819A818333914029F496
:1041E0000E944320DC01CB010DC089819A8182337A
:1041F000914029F40E944320DC01CB0103C080E000
:1042000090E0DC01BC01CD010F900F90DF91CF91C8
:104210000895CF93DF9300D01F92CDB7DEB79A8376
:1042200089836B8389819A818038910559F481E86B
:1042300090E021E830E0F90130812B81232BFC0153
:1042400020832FC089819A818039910559F481E9B1
:1042500090E021E930E0F90130812B81232BFC0132
:1042600020831FC089819A81803A910559F481EA9F
:1042700090E021EA30E0F90130812B81232BFC0111
:1042800020830FC089819A818032914051F481E26C
:1042900091E021E231E0F90130812B81232BFC01F7
:1042A000208300000F900F900F90DF91CF91089521
:1042B000CF93DF9300D0CDB7DEB79A83898389810E
:1042C0009A818038910551F48FE690E02FE630E036
:1042D000F90120812160FC0120832CC089819A8111
:1042E0008039910551F481E790E021E730E0F90150
:1042F00020812160FC0120831DC089819A81803A40
:10430000910551F482E790E022E730E0F901208145
:104310002160FC0120830EC089819A818032914006
:1043200049F483E790E023E730E0F9012081216040
:10433000FC01208300000F900F90DF91CF91089532
:10434000CF93DF9300D0CDB7DEB79A83898389817D
:104350009A818038910551F48FE690E02FE630E0A5
:10436000F90120812260FC0120832CC089819A817F
:104370008039910551F481E790E021E730E0F901BF
:1043800020812260FC0120831DC089819A81803AAE
:10439000910551F482E790E022E730E0F9012081B5
:1043A0002260FC0120830EC089819A818032914075
:1043B00049F483E790E023E730E0F90120812260AF
:1043C000FC01208300000F900F90DF91CF910895A2
:1043D000CF93DF9300D0CDB7DEB79A8389838981ED
:1043E0009A818038910551F48FE690E02FE630E015
:1043F000F90120812D7FFC0120832CC089819A81C5
:104400008039910551F481E790E021E730E0F9012E
:1044100020812D7FFC0120831DC089819A81803AF3
:10442000910551F482E790E022E730E0F901208124
:104430002D7FFC0120830EC089819A8180329140BA
:1044400049F483E790E023E730E0F90120812D7FF4
:10445000FC01208300000F900F90DF91CF91089511
:10446000CF93DF93CDB7DEB727970FB6F894DEBFB3
:104470000FBECDBF9C838B836D835F834E838B8107
:104480009C819A8389838D81882F90E00196298170
:104490003A81820F931F2D81222F30E02F5F3F4FF3
:1044A00049815A81240F351FF90140812E813F81B6
:1044B000232F3327242BFC0120838D81882F90E02C
:1044C00029813A81820F931F2D81222F30E049816B
:1044D0005A81240F351FF90130812E81232BFC01D5
:1044E0002083000027960FB6F894DEBF0FBECDBF25
:1044F000DF91CF910895CF93DF9300D0CDB7DEB792
:104500009A83898389819A818038910551F486E361
:1045100090E026E330E0F90120812160FC01208356
:104520002CC089819A818039910551F488E390E00B
:1045300028E330E0F90120812160FC0120831DC0C7
:1045400089819A81803A910551F489E390E029E3C9
:1045500030E0F90120812160FC0120830EC08981B7
:104560009A818032914049F48AE390E02AE330E076
:10457000F90120812160FC01208300000F900F9041
:10458000DF91CF910895CF93DF9300D0CDB7DEB701
:104590009A83898389819A818038910551F486E3D1
:1045A00090E026E330E0F90120812260FC012083C5
:1045B0002CC089819A818039910551F488E390E07B
:1045C00028E330E0F90120812260FC0120831DC036
:1045D00089819A81803A910551F489E390E029E339
:1045E00030E0F90120812260FC0120830EC0898126
:1045F0009A818032914049F48AE390E02AE330E0E6
:10460000F90120812260FC01208300000F900F90AF
:10461000DF91CF910895CF93DF9300D0CDB7DEB770
:104620009A83898389819A818038910531F484E85D
:1046300090E0FC018081918123C089819A81803939
:10464000910531F484E990E0FC018081918118C0EA
:1046500089819A81803A910531F484EA90E0FC01E5
:10466000808191810DC089819A818032914031F49D
:1046700084E291E0FC018081918102C080E090E0C1
:104680000F900F90DF91CF910895CF93DF9300D0DB
:1046900000D01F92CDB7DEB79C838B836D838B8157
:1046A0009C819A8389838D81882349F489819A81A9
:1046B000FC01208189819A81FC0120830FC08D81BA
:1046C000843061F489819A81019629813A812F5F32
:1046D0003F4FF90120812860FC01208300000F90EA
:1046E0000F900F900F900F90DF91CF910895CF937F
:1046F000DF93CDB7DEB780E890E00E940B23DF9117
:10470000CF910895CF93DF93CDB7DEB780E890E0E7
:104710000E94E82180E890E00E94C3220000DF911F
:10472000CF910895CF93DF93CDB7DEB780E890E0C7
:104730000E94C32280E890E00E94A0210000DF9147
:10474000CF910895CF93DF93CDB7DEB780E890E0A7
:104750000E94582180E890E00E947B220000DF91B7
:10476000CF910895CF93DF93CDB7DEB780E890E087
:104770000E942F2B0000DF91CF910895CF93DF93FC
:1047800000D0CDB7DEB79A83898389819A81AC0145
:1047900068E080E890E00E94302200000F900F90C7
:1047A000DF91CF910895CF93DF93CDB7DEB70E940D
:1047B0001620DF91CF910895CF93DF931F92CDB74D
:1047C000DEB7898389810E94262000000F90DF9147
:1047D000CF910895CF93DF931F92CDB7DEB780E8D6
:1047E00090E00E94162B63E874E280E890E00E945B
:1047F000482B60E080E890E00E94452380E890E04C
:104800000E94582180E890E00E94252480E890E0F2
:104810000E94E82161E080E890E00E94092180E8A0
:1048200090E00E945020DC01CB0120E432E44FE014
:1048300050E0BC01CD010E949949DA01C901898388
:1048400089810F90DF91CF910895CF93DF9300D0AE
:10485000CDB7DEB79A83898389819A8180389105A3
:1048600079F089819A818039910551F089819A8105
:10487000803A910529F089819A818032914039F4FA
:104880006DE874E280E890E00E94892B36C089814F
:104890009A818138910579F089819A8181399105D0
:1048A00051F089819A81813A910529F089819A8113
:1048B0008132914039F46DE874E280E890E00E9422
:1048C000CA2B1BC089819A818238910579F0898130
:1048D0009A818239910551F089819A81823A9105B4
:1048E00029F089819A818232914039F46DE874E22D
:1048F00080E890E00E940B2C00C000000F900F9009
:10490000DF91CF910895CF93DF93CDB7DEB70E94AB
:1049100093450000DF91CF910895CF93DF93CDB7FA
:10492000DEB70E94CB450000DF91CF910895CF9371
:10493000DF931F92CDB7DEB78FE590E0FC01808159
:104940008983F89489810F90DF91CF910895CF9357
:10495000DF931F92CDB7DEB789838FE590E0298181
:10496000FC01208300000F90DF91CF910895EF921A
:10497000FF920F931F93CF93DF93CDB7DEB72C97A2
:104980000FB6F894DEBF0FBECDBF6B837C838D83E3
:104990009E832F83388749875A871C870B878F818F
:1049A0009885A985BA8580931A0F90931B0FA093C1
:1049B0001C0FB0931D0F8B859C859A8389838B81F7
:1049C0009C81AD81BE8188279F5FAF4FBF4F809391
:1049D0001E0F90931F0FA093200FB093210F8B8178
:1049E0009C81AD81BE81882702E21FE020E031E09A
:1049F00040E050E0BC01CD010E94AA2522E23FE048
:104A000040E051E060E070E0CB010E94E24D209177
:104A10001A0F30911B0F40911C0F50911D0F8B816D
:104A20009C81AD81BE81280F391F4A1F5B1F809179
:104A30001E0F90911F0FA091200FB091210F821790
:104A40009307A407B507A0F480911E0F90911F0F44
:104A5000A091200FB091210F9C018B819C81790145
:104A6000E81AF90AC70190932310809322100CC012
:104A700080911A0F90911B0FA0911C0FB0911D0FE8
:104A8000909323108093221020911A0F30911B0FC6
:104A900040911C0F50911D0F809122109091231076
:104AA000CC01A0E0B0E079018A01E81AF90A0A0B0A
:104AB0001B0BD801C70180931A0F90931B0FA09373
:104AC0001C0FB0931D0F409122105091231029818B
:104AD0003A818B819C81AD81BE81BC01CD010E9458
:104AE000E24D8B819C81AD81BE81BC01CD010E94D4
:104AF000EF4E80911E0F90911F0FA091200FB0914B
:104B0000210F8B839C83AD83BE8380912210909173
:104B1000231029813A81820F931F9A838983809180
:104B20001A0F90911B0FA0911C0FB0911D0F892B94
:104B30008A2B8B2B09F043CF00002C960FB6F894EC
:104B4000DEBF0FBECDBFDF91CF911F910F91FF90C0
:104B5000EF9008950F931F93CF93DF93CDB7DEB7F8
:104B600062970FB6F894DEBF0FBECDBF69877A8714
:104B70008B879C872D873E874F87588B1A8B098B95
:104B80000E9497248B831A82198229C029893A8925
:104B900089819A81B901680F791F89859A85AB85CA
:104BA000BC859C01AD012F5F3F4F4F4F5F4F298761
:104BB0003A874B875C878C839D83AE83BF838C81D0
:104BC0009D81AE81BF81ABBFFC01879188878885BD
:104BD000FB01808389819A8101969A8389838981E7
:104BE0009A819C0140E050E08D859E85AF85B88913
:104BF000281739074A075B0748F28B810E94A724D0
:104C0000000062960FB6F894DEBF0FBECDBFDF91F5
:104C1000CF911F910F910895CF93DF931F92CDB73E
:104C2000DEB78FE590E0FC0180818983F89489816B
:104C30000F90DF91CF910895CF93DF931F92CDB75F
:104C4000DEB789838FE590E02981FC012083000095
:104C50000F90DF91CF910895CF93DF9300D0CDB720
:104C6000DEB79A83898389819A81892B09F47BC075
:104C700089819A818837910549F461E080E00E943A
:104C8000603960E180E00E9460396DC089819A815D
:104C9000803C910529F462E080E00E94603963C0A5
:104CA00089819A818C34910529F464E080E00E9426
:104CB000603959C089819A818038910529F468E06A
:104CC00080E00E9460394FC089819A8184349105C7
:104CD00029F460E280E00E94603945C089819A81B0
:104CE000803B910529F460E480E00E9460393BC07C
:104CF00089819A81883B910529F460E880E00E94CF
:104D0000603931C089819A81883C910529F461E03C
:104D100081E00E94603927C089819A81803991059C
:104D200029F468E081E00E9460391DC089819A8180
:104D3000803A910529F460E181E00E94603913C056
:104D400089819A818032914029F460E281E00E9459
:104D5000603909C089819A818334914021F460E4EB
:104D600081E00E94603900000F900F90DF91CF9199
:104D70000895CF93DF9300D0CDB7DEB79A838983B0
:104D800089819A81892B09F47BC089819A8188372E
:104D9000910549F461E080E00E94953960E180E08E
:104DA0000E9495396DC089819A81803C910529F4D2
:104DB00062E080E00E94953963C089819A818C34D9
:104DC000910529F464E080E00E94953959C08981F9
:104DD0009A818038910529F468E080E00E94953935
:104DE0004FC089819A818434910529F460E280E082
:104DF0000E94953945C089819A81803B910529F4AB
:104E000060E480E00E9495393BC089819A81883BAB
:104E1000910529F460E880E00E94953931C08981CC
:104E20009A81883C910529F461E081E00E949539DE
:104E300027C089819A818039910529F468E081E051
:104E40000E9495391DC089819A81803A910529F483
:104E500060E181E00E94953913C089819A81803296
:104E6000914029F460E281E00E94953909C089816E
:104E70009A818334914021F460E481E00E94953965
:104E800000000F900F90DF91CF9108951F920F9225
:104E900000905F000F92112400905B000F922F93FF
:104EA0003F934F935F936F937F938F939F93AF93B2
:104EB000BF93EF93FF93CF93DF93CDB7DEB780918E
:104EC000241090912510892B31F08091241090911D
:104ED0002510FC0109950000DF91CF91FF91EF9122
:104EE000BF91AF919F918F917F916F915F914F9102
:104EF0003F912F910F9000925B000F9000925F0006
:104F00000F901F9018951F920F9200905F000F92C4
:104F1000112400905B000F922F933F934F935F9368
:104F20006F937F938F939F93AF93BF93EF93FF9371
:104F3000CF93DF93CDB7DEB78091261090912710E5
:104F4000892B31F08091261090912710FC01099552
:104F50000000DF91CF91FF91EF91BF91AF919F91B1
:104F60008F917F916F915F914F913F912F910F9012
:104F700000925B000F9000925F000F901F901895B9
:104F80001F920F9200905F000F92112400905B001F
:104F90000F922F933F934F935F936F937F938F93D2
:104FA0009F93AF93BF93EF93FF93CF93DF93CDB7CF
:104FB000DEB78091281090912910892B31F08091D3
:104FC000281090912910FC0109950000DF91CF91E4
:104FD000FF91EF91BF91AF919F918F917F916F91D1
:104FE0005F914F913F912F910F9000925B000F9036
:104FF00000925F000F901F9018951F920F920090E3
:105000005F000F92112400905B000F922F933F934B
:105010004F935F936F937F938F939F93AF93BF93C0
:10502000EF93FF93CF93DF93CDB7DEB780912A1034
:1050300090912B10892B31F080912A1090912B1098
:10504000FC0109950000DF91CF91FF91EF91BF9195
:10505000AF919F918F917F916F915F914F913F9110
:105060002F910F9000925B000F9000925F000F90C5
:105070001F9018951F920F9200905F000F921124BD
:1050800000905B000F922F933F934F935F936F932A
:105090007F938F939F93AF93BF93EF93FF93CF93A0
:1050A000DF93CDB7DEB780912C1090912D10892B16
:1050B00031F080912C1090912D10FC010995000089
:1050C000DF91CF91FF91EF91BF91AF919F918F9120
:1050D0007F916F915F914F913F912F910F9000922F
:1050E0005B000F9000925F000F901F9018951F9229
:1050F0000F9200905F000F92112400905B000F92BE
:105100002F933F934F935F936F937F938F939F93CF
:10511000AF93BF93EF93FF93CF93DF93CDB7DEB7FA
:1051200080912E1090912F10892B31F080912E10AC
:1051300090912F10FC0109950000DF91CF91FF9114
:10514000EF91BF91AF919F918F917F916F915F91FF
:105150004F913F912F910F9000925B000F90009222
:105160005F000F901F9018951F920F9200905F00A4
:105170000F92112400905B000F922F933F934F9357
:105180005F936F937F938F939F93AF93BF93EF93AF
:10519000FF93CF93DF93CDB7DEB78091301090911E
:1051A0003110892B31F08091301090913110FC0139
:1051B00009950000DF91CF91FF91EF91BF91AF91E1
:1051C0009F918F917F916F915F914F913F912F911F
:1051D0000F9000925B000F9000925F000F901F9065
:1051E00018951F920F9200905F000F92112400906B
:1051F0005B000F922F933F934F935F936F937F9337
:105200008F939F93AF93BF93EF93FF93CF93DF93CE
:10521000CDB7DEB78091321090913310892B31F0E9
:105220008091321090913310FC0109950000DF91BC
:10523000CF91FF91EF91BF91AF919F918F917F910E
:105240006F915F914F913F912F910F9000925B0072
:105250000F9000925F000F901F9018951F920F9271
:1052600000905F000F92112400905B000F922F932B
:105270003F934F935F936F937F938F939F93AF93DE
:10528000BF93EF93FF93CF93DF93CDB7DEB78091BA
:10529000341090913510892B31F080913410909119
:1052A0003510FC0109950000DF91CF91FF91EF913E
:1052B000BF91AF919F918F917F916F915F914F912E
:1052C0003F912F910F9000925B000F9000925F0032
:1052D0000F901F9018951F920F9200905F000F92F1
:1052E000112400905B000F922F933F934F935F9395
:1052F0006F937F938F939F93AF93BF93EF93FF939E
:10530000CF93DF93CDB7DEB78091361090913710F1
:10531000892B31F08091361090913710FC0109955E
:105320000000DF91CF91FF91EF91BF91AF919F91DD
:105330008F917F916F915F914F913F912F910F903E
:1053400000925B000F9000925F000F901F901895E5
:105350001F920F9200905F000F92112400905B004B
:105360000F922F933F934F935F936F937F938F93FE
:105370009F93AF93BF93EF93FF93CF93DF93CDB7FB
:10538000DEB78091381090913910892B31F08091DF
:10539000381090913910FC0109950000DF91CF91F0
:1053A000FF91EF91BF91AF919F918F917F916F91FD
:1053B0005F914F913F912F910F9000925B000F9062
:1053C00000925F000F901F9018951F920F9200900F
:1053D0005F000F92112400905B000F922F933F9378
:1053E0004F935F936F937F938F939F93AF93BF93ED
:1053F000EF93FF93CF93DF93CDB7DEB780913A1051
:1054000090913B10892B31F080913A1090913B1094
:10541000FC0109950000DF91CF91FF91EF91BF91C1
:10542000AF919F918F917F916F915F914F913F913C
:105430002F910F9000925B000F9000925F000F90F1
:105440001F9018951F920F9200905F000F921124E9
:1054500000905B000F922F933F934F935F936F9356
:105460007F938F939F93AF93BF93EF93FF93CF93CC
:10547000DF93CDB7DEB780913C1090913D10892B22
:1054800031F080913C1090913D10FC010995000095
:10549000DF91CF91FF91EF91BF91AF919F918F914C
:1054A0007F916F915F914F913F912F910F9000925B
:1054B0005B000F9000925F000F901F9018951F9255
:1054C0000F9200905F000F92112400905B000F92EA
:1054D0002F933F934F935F936F937F938F939F93FC
:1054E000AF93BF93EF93FF93CF93DF93CDB7DEB727
:1054F00080913E1090913F10892B31F080913E10A9
:1055000090913F10FC0109950000DF91CF91FF9130
:10551000EF91BF91AF919F918F917F916F915F912B
:105520004F913F912F910F9000925B000F9000924E
:105530005F000F901F9018951F920F9200905F00D0
:105540000F92112400905B000F922F933F934F9383
:105550005F936F937F938F939F93AF93BF93EF93DB
:10556000FF93CF93DF93CDB7DEB78091401090913A
:105570004110892B31F08091401090914110FC0135
:1055800009950000DF91CF91FF91EF91BF91AF910D
:105590009F918F917F916F915F914F913F912F914B
:1055A0000F9000925B000F9000925F000F901F9091
:1055B00018951F920F9200905F000F921124009097
:1055C0005B000F922F933F934F935F936F937F9363
:1055D0008F939F93AF93BF93EF93FF93CF93DF93FB
:1055E000CDB7DEB78091421090914310892B31F0F6
:1055F0008091421090914310FC0109950000DF91C9
:10560000CF91FF91EF91BF91AF919F918F917F913A
:105610006F915F914F913F912F910F9000925B009E
:105620000F9000925F000F901F901895CF93DF931B
:1056300000D01F92CDB7DEB79B838A830E940C26D1
:1056400089838A819B810E942C2689810E941C2645
:1056500000000F900F900F90DF91CF910895CF939E
:10566000DF9300D01F92CDB7DEB79B838A830E9461
:105670000C2689838A819B810E94B92689810E9498
:105680001C2600000F900F900F90DF91CF9108958E
:10569000CF93DF9300D000D0CDB7DEB79A83898354
:1056A0007C836B8389819A818038910539F48B8161
:1056B0009C81909325108093241023C089819A8126
:1056C0008039910539F48B819C8190932D108093C2
:1056D0002C1017C089819A81803A910539F48B8109
:1056E0009C8190933510809334100BC089819A81EE
:1056F0008032914031F48B819C8190933D10809356
:105700003C1000000F900F900F900F90DF91CF9101
:105710000895CF93DF9300D000D0CDB7DEB79A8342
:1057200089837C836B8389819A818038910539F4E0
:105730008B819C81909327108093261023C08981B0
:105740009A818039910539F48B819C8190932F1037
:1057500080932E1017C089819A81803A910539F47F
:105760008B819C8190933710809336100BC0898178
:105770009A818032914031F48B819C8190933F10CB
:1057800080933E1000000F900F900F900F90DF91CC
:10579000CF910895CF93DF9300D000D0CDB7DEB77F
:1057A0009A8389837C836B8389819A818038910570
:1057B00039F48B819C81909329108093281023C009
:1057C00089819A818039910539F48B819C819093EC
:1057D00031108093301017C089819A81803A9105E9
:1057E00039F48B819C8190933910809338100BC0D1
:1057F00089819A818032914031F48B819C81909390
:1058000041108093401000000F900F900F900F9068
:10581000DF91CF910895CF93DF9300D000D0CDB723
:10582000DEB79A8389837C836B8389819A818038F0
:10583000910539F48B819C8190932B1080932A10D1
:1058400023C089819A818039910539F48B819C81AB
:10585000909333108093321017C089819A81803AD7
:10586000910539F48B819C8190933B1080933A1081
:105870000BC089819A818032914031F48B819C8167
:10588000909343108093421000000F900F900F9060
:105890000F90DF91CF910895CF93DF93CDB7DEB70F
:1058A0000000DF91CF910895CF93DF93CDB7DEB79E
:1058B00065970FB6F894DEBF0FBECDBF9B8B8A8B6A
:1058C0006C8B4D8B8A899B89892B21F11092441016
:1058D00082E080930C028A899B8920E1FC01A6E486
:1058E000B0E101900D922A95E1F7198210C08FE383
:1058F00091E02981222F30E04A895B89240F351FEE
:10590000F9012081FC01208389818F5F898389814E
:10591000803168F38D89882F90E0009719F0019706
:10592000D1F059C080910C02813009F056C0198223
:105930000EC08FE391E02981222F30E02A5B3F4E99
:10594000F9012081FC01208389818F5F898389810E
:10595000803178F342C080910C028130E1F1909166
:10596000441081E08927882311F1109245108CE3BF
:1059700091E020914510FC012083CE0102960E9407
:10598000602D19820EC08981882F90E02FE331E0CD
:10599000F90120818A5A9F4EFC01208389818F5F03
:1059A00089838981803178F381E080934410198262
:1059B0000EC08FE391E02981222F30E02A5A3F4E1A
:1059C000F9012081FC01208389818F5F898389818E
:1059D000803178F303C080E02DC000008D89809372
:1059E0000C028C89882F90E0029718F58C89882FFB
:1059F00090E0880F991F82959295907F9827807FDD
:105A00009827282F20728D89882F90E0880F991F62
:105A1000880F991F880F991F8870822B80934510DB
:105A200000008CE391E020914510FC01208381E08F
:105A300001C080E065960FB6F894DEBF0FBECDBF03
:105A4000DF91CF910895CF93DF9300D01F92CDB710
:105A5000DEB780910C02882329F486E490E19B83D1
:105A60008A8304C086E590E19B838A83198210C0F3
:105A70002FE331E08A819B81AC014F5F5F4F5B83F5
:105A80004A83FC018081F901808389818F5F89834A
:105A90008981803168F38CE391E020914510FC010D
:105AA000208300000F900F900F90DF91CF91089509
:105AB000CF93DF93CDB7DEB70000DF91CF9108958C
:105AC000CF93DF9300D01F92CDB7DEB79B838A833D
:105AD000198210C02EE331E08A819B81AC014F5FB7
