:100000000C947A010C9499010C9499010C94990127
:100010000C9499010C9499010C9499010C949901F8
:100020000C9499010C9499010C9499010C949901E8
:100030000C9423380C9499010C9499010C94990117
:100040000C9499010C948B270C94C8270C940528C8
:100050000C944E270C9499010C9499010C949901DD
:100060000C9499010C941F3C0C9499010C949901E7
:100070000C9499010C9499010C9499010C94990198
:100080000C947F280C94BC280C94F9280C944228DA
:100090000C9499010C9499010C9499010C94990178
:1000A0000C9499010C9499010C9473290C94B02927
:1000B0000C94ED290C9436290C9499010C94672A20
:1000C0000C94A42A0C94E12A0C942A2A0C949901E9
:1000D0000C9499010C9499010C9499010C94990138
:1000E0000C9499010C9499010C9499010C94990128
:1000F0000C9499010C9499010C9499010C94990118
:100100000C9499010C94342F0C94712F0C94AE2FF5
:100110000C94F72E0C94EB2F0C9499010C949901EC
:1001200041146414461464144B14501455145A1496
:100130005F146E616E00696E660000407A10F35ABB
:1001400000A0724E18090010A5D4E80000E8764817
:10015000170000E40B54020000CA9A3B000000E1C3
:10016000F505000080969800000040420F00000056
:10017000A08601000000102700000000E803000036
:1001800000006400000000000A0000000000010000
:10019000000000002C76D888DC674F0823DFC1DF21
:1001A000AE59E1B1B796E5E3E453C63AE651997624
:1001B00096E8E6C28426EB898C9B62ED407C6FFC5E
:1001C000EFBC9C9F40F2BAA56FA5F490055A2AF7A0
:1001D0005C936B6CF9676DC11BFCE0E40D47FEF5A9
:1001E00020E6B500D0ED902E030094357705008011
:1001F000841E080000204E0A000000C80C33333370
:10020000330F986E12831141EF8D2114893BE6550F
:1002100016CFFEE6DB18D1844B381BF77C1D901DF2
:10022000A4BBE424203284725E228100C9F124EC54
:10023000A1E53D27330019000C0006000300020071
:100240000100FF00A001CF006700330019000C007F
:10025000070008004003A001CF0067003300190029
:1002600010001000330019000C000600030002000B
:100270000100FF00A001CF006700330019000C004F
:10028000070008004003A001CF00670033001900F9
:1002900010001000330019000C00060003000200DB
:1002A0000100FF00A001CF006700330019000C001F
:1002B000070008004003A001CF00670033001900C9
:1002C00010001000330019000C00060003000200AB
:1002D0000100FF00A001CF006700330019000C00EF
:1002E000070008004003A001CF0067003300190099
:1002F0001000100011241FBECFEFD1E4DEBFCDBF30
:1003000012E0A0E0B2E0E0E9F2E900E00BBF02C0D9
:1003100007900D92A03BB107D9F721E1A0EBB2E025
:1003200001C01D92A33AB207E1F70E94EE040C94BB
:100330009A470C940000CF93DF93CDB7DEB780E0EF
:1003400094E2A4EFB0E0BC01CD01DF91CF9108951C
:10035000CF93DF93CDB7DEB70E949B01DC01CB01C9
:10036000BC01CD01DF91CF910895CF93DF9300D0F1
:10037000CDB7DEB79A83898389819A81FC01808118
:10038000282F226089819A81FC01208300000F9030
:100390000F90DF91CF910895CF93DF93CDB7DEB764
:1003A0002B970FB6F894DEBF0FBECDBF9987888715
:1003B0007B876A878A859B85FC0184818D838A85FA
:1003C0009B85FC0185818E838A859B85FC018681C6
:1003D0008F838A859B85FC0180819181A281B38175
:1003E00089839A83AB83BC83888599859E012F5F1F
:1003F0003F4FB9010E947B33882311F081E001C097
:1004000080E02B960FB6F894DEBF0FBECDBFDF9114
:10041000CF910895CF93DF9300D01F92CDB7DEB771
:100420009A8389836B8389819A816B810E94893544
:100430000F900F900F90DF91CF910895CF93DF939E
:1004400000D000D0CDB7DEB79A8389837C836B83DD
:1004500089819A810E94A835282F8B819C81FC017B
:10046000208300000F900F900F900F90DF91CF919D
:100470000895CF93DF9300D000D0CDB7DEB79A8335
:1004800089837C836B8389819A8190939711809370
:1004900096118AE092E090939511809394118EE1E9
:1004A00092E090939311809392112B813C818981EA
:1004B0009A81B9010E94CC016BE57AE38AE79AE35D
:1004C0000E94324500000F900F900F900F90DF9127
:1004D000CF910895CF93DF93CDB7DEB78CED90E049
:1004E0002CED30E0F90120812064FC0120838CEDAB
:1004F00090E02CED30E0F9012081277FFC01208382
:100500000000DF91CF910895CF93DF93CDB7DEB791
:100510008091CA029091CB02892BC1F08091CA02CE
:100520009091CB02292F2F938F9383E292E0892F12
:100530008F9383E292E08F930E94B9450F900F90C2
:100540000F900F9081EC92E00E9443060000DF9133
:10055000CF910895CF93DF93CDB7DEB782E080933C
:10056000C0020000DF91CF910895CF93DF9300D0B8
:1005700000D0CDB7DEB79C838B838B819C81FC013F
:10058000808591859093D7028093D6028091D60280
:100590009091D702FC0184818093D5028091D6028C
:1005A0009091D702FC0183818770843071F490911F
:1005B000D80281E08927882341F08091D60290916A
:1005C000D702FC018581882379F08091D602909131
:1005D000D702FC0183818770863009F049C0809181
:1005E000D802882309F444C08091D6029091D702A2
:1005F000FC018381829586958770482F50E0809119
:10060000D6029091D702FC018681282F30E0429FCC
:10061000C001439F900D529F900D1124880F991F88
:100620009A8389830E946A028AEA92E00E94FF31DB
:1006300081E00E94783089819A818A5F9109092E30
:10064000000CAA0BBB0B21E0AC01BD0181E00E94B4
:100650002C318091D6029091D702FC018381877062
:10066000843011F484E001C085E08093C0020DC0A5
:100670008091D6029091D702FC01838187708730E8
:1006800021F41092D8021092DA0281E00F900F90BC
:100690000F900F90DF91CF910895CF93DF93CDB757
:1006A000DEB728970FB6F894DEBF0FBECDBF988790
:1006B0008F838F819885FC01808591859C012150D5
:1006C00031098F819885FC01318720878F8198853A
:1006D000FC01808591859A83898384E392E0892F48
:1006E0008F9384E392E08F930E94B9450F900F900F
:1006F0001F9284E08F9383E492E0892F8F9383E4A9
:1007000092E08F930E94B9450F900F900F900F9039
:100710001C821B8284E090E09E838D8329813A8134
:100720008B819C81820F931F0196FC018081882F11
:1007300090E02E812F932D812F932C812F932B814D
:100740002F93292F2F938F938AE492E0892F8F93F1
:100750008AE492E08F930E94B9458DB79EB70896C0
:100760000FB6F894DEBF0FBECDBF29813A818B81D1
:100770009C81820F931F0196FC018081882F90E05D
:100780000D8002C0959587950A94E2F781709927AC
:10079000892B71F089E692E0892F8F9389E692E0A8
:1007A0008F930E94B9450F900F9081E08093D802FB
:1007B00081E028960FB6F894DEBF0FBECDBFDF9163
:1007C000CF910895CF93DF9300D000D0CDB7DEB79F
:1007D0009C838B8384E792E0892F8F9384E792E058
:1007E0008F930E94B9450F900F908B819C81FC01E3
:1007F00080859185FC0180818F3099F58B819C816A
:10080000FC01808591859A83898389819A81FC0185
:100810008481843031F589819A81FC0182810E9432
:10082000851A89819A81FC018181882F90E00E943C
:10083000750589819A81FC01838180930B028981EE
:100840009A81FC0185818F778093BB0289E892E0D1
:10085000892F8F9389E892E08F930E94B9450F907A
:100860000F9081E00F900F900F900F90DF91CF913C
:100870000895CF93DF93CDB7DEB71092C7021092E1
:10088000C60283E08093C80283E08093C90280E0BF
:1008900090E89093CB028093CA028CE092E0909310
:1008A000CF028093CE0283E08093D0020000DF91DC
:1008B000CF910895CF93DF93CDB7DEB71092C702E3
:1008C0001092C60283E08093C80283E08093C9023D
:1008D00080E090E89093CB028093CA028FE092E090
:1008E0009093CF028093CE0285E08093D0020000E7
:1008F000DF91CF910895CF93DF93CDB7DEB784E03A
:1009000090E00E945E058FE00E94851A81E00E94BF
:10091000751A80E00E94C41981E080930A0265EB99
:1009200072E080E00E948C056DE473E084E00E9438
:100930008C0562EE73E083E00E948C0581E00E94EA
:10094000FF190000DF91CF910895CF93DF93CDB7CA
:10095000DEB78091C002882F90E08230910591F03F
:10096000833091051CF4892B39F034C08430910513
:1009700079F0059799F02EC00E947B0481E0809366
:10098000C00228C00E94840281E08093C00222C07D
:100990000E94390481E08093C0021CC08091D8027B
:1009A000882389F08091D6029091D702FC0185813D
:1009B000882349F49091DA0281E08927882319F08D
:1009C0000E945A0403C081E00E94ED3081E08093D0
:1009D000C00200000000DF91CF9108950F931F9394
:1009E000CF93DF93CDB7DEB727970FB6F894DEBF6E
:1009F0000FBECDBF0E9442390E94773C0E94651D08
:100A00000E94A52E789427E0EFE9F2E0CE0101964E
:100A1000DC0101900D922A95E1F7CE010196BC010F
:100A200080EC90E00E94390280EC90E00E94B501D9
:100A30000E94A801DC01CB018C019D0140E052EC39
:100A400061E070E080EC90E00E9424360E94751D09
:100A50000E94A504FBCFCF93DF931F92CDB7DEB7E3
:100A60001092661110926711109263111092621128
:100A7000109289111092881119820EC08981882FD5
:100A800090E00396880F991F8E599E4EFC011182AB
:100A9000108289818F5F89838981803178F30E94F8
:100AA00075140E94CA0C0E94680A0E9437060E94B0
:100AB000040C00000F90DF91CF910895CF93DF9346
:100AC00000D0CDB7DEB79A83898389819A819093CC
:100AD00063118093621189819A810E94BF1A00007C
:100AE0000F900F90DF91CF910895CF93DF9300D0B7
:100AF000CDB7DEB79A83898389819A8190936511F6
:100B00008093641189819A810E949B1A00000F9042
:100B10000F90DF91CF910895CF93DF9300D01F9274
:100B2000CDB7DEB789837B836A838981882F90E084
:100B30000396880F991F8E599E4E2A813B81FC0196
:100B40003183208300000F900F900F90DF91CF91A1
:100B50000895CF93DF93CDB7DEB780918811909140
:100B6000891121E0892B09F420E0822FDF91CF91B8
:100B70000895CF93DF93CDB7DEB780918811909120
:100B80008911019690938911809388110000DF915B
:100B9000CF910895CF93DF93CDB7DEB780918811C1
:100BA0009091891101979093891180938811000089
:100BB000DF91CF910895CF93DF93CDB7DEB70E9439
:100BC000081B0000DF91CF910895CF93DF93CDB73D
:100BD000DEB70E94211B0000DF91CF910895CF93D3
:100BE000DF93CDB7DEB72C970FB6F894DEBF0FBEFC
:100BF000CDBF8C8789E0E6EAF2E0DE011396019032
:100C00000D928A95E1F789E189831A8215C09C8546
:100C10008981981758F48A81882F90E09E012D5F72
:100C20003F4F820F931FFC0180810AC08981875E3C
:100C300089838A818F5F8A838A81893040F38FEF2D
:100C40002C960FB6F894DEBF0FBECDBFDF91CF91CB
:100C50000895CF93DF93CDB7DEB70E9421140E9491
:100C600034180E94320A0000DF91CF910895CF938B
:100C7000DF93CDB7DEB71092E4021092E3020000DA
:100C8000DF91CF910895CF93DF9300D0CDB7DEB73A
:100C90009A83898389819A81FC01148289819A814E
:100CA000FC01128A89819A81FC011382128280914F
:100CB00088119091891101969093891180938811E0
:100CC0008091E3029091E402892B61F489819A81F9
:100CD000FC011182108289819A819093E4028093B1
:100CE000E3020FC02091E3023091E40289819A81EE
:100CF000FC013183208389819A819093E40280935F
:100D0000E30200000F900F90DF91CF910895CF93F1
:100D1000DF93CDB7DEB728970FB6F894DEBF0FBECE
:100D2000CDBF98878F838F819885FC0181859285BF
:100D30008034910598F40E94870A9A838983898177
:100D40009A81892B61F58F81988522E0FC012483AB
:100D50008F81988522E0FC01228BCEC28F819885FD
:100D6000FC018185928580749927892B21F081E08F
:100D70000E94F90A03C080E00E94F90A9A838983DD
:100D800089819A81892B59F48F81988522E0FC0111
:100D900024838F81988522E0FC01228BADC28F8154
:100DA0009885FC018185928580749927892B09F4A7
:100DB00099C089819A818A579F4FFC0110828F8147
:100DC0009885FC018185928580789927892B41F04F
:100DD00089819A81FC012581287FFC01258334C00B
:100DE0008F819885FC018185928588279170892B58
:100DF00049F089819A81FC012581287F2460FC01CA
:100E0000258322C08F819885FC0181859285882762
:100E10009270892B49F089819A81FC012581287F74
:100E20002660FC01258310C08F819885FC01818597
:100E3000928588279470892B39F089819A81FC01E9
:100E400025812760FC01258389819A81FC01258108
:100E5000277FFC01258389819A81FC0125812F7ED2
:100E6000FC01258389819A81FC0125812F712064F1
:100E7000FC0125838F819885FC01818592858827D7
:100E80009870892B31F089819A8121E0FC012783B8
:100E900013C08F819885FC01818592858827907188
:100EA000892B31F089819A8122E0FC01278304C0DB
:100EB00089819A81FC0117828091BB022EE3280F61
:100EC00089819A81FC0120878EEF9AEC9C838B8329
:100ED00089819A812EEFFC01268389819A810E9463
:100EE000F414F5C18F819885FC0181859285992341
:100EF00094F08F819885FC01818592858827907276
:100F0000892B49F48F819885FC01818592858827FA
:100F10009074892B99F18F819885FC012185328508
:100F200089819A81B9010E94471589819A818A57DE
:100F30009F4FFC0110828F819885FC018785482F87
:100F400050E08F819885FC012585368589819A81BD
:100F50008F579F4FFC0180819181B9010E941745F5
:100F600089819A81FC0121818F819885FC01878587
:100F7000280F89819A81FC012183A9C18F819885DD
:100F8000FC018185928580729927892B09F462C0C2
:100F900089819A818A579F4FFC01108289819A81A9
:100FA000FC012185207F2860FC01218789819A81AD
:100FB000FC0121852F702066FC01218789819A819F
:100FC000FC012285207F2160FC01228789819A8192
:100FD000FC0122852061FC01228789819A81FC0124
:100FE00022852064FC01228789819A81FC01228567
:100FF0002F77FC01228789819A81FC0113868981E0
:101000009A81FC0114868F819885FC018785482F81
:1010100050E08F819885FC012585368589819A81EC
:101020008F579F4FFC0180819181B9010E94174524
:1010300089819A81FC0121818F819885FC018785B6
:10104000280F89819A81FC01218389819A810E94DC
:10105000A9143DC18F819885FC0181859285892BDA
:1010600009F435C18F819885FC0181859285847052
:10107000992721E0892B09F420E089819A818A57F8
:101080009F4FFC0120838F819885FC01818592858B
:101090008170992721E0892B09F420E089819A81C8
:1010A0002170FC0133853E7F232BFC0123878F8138
:1010B0009885FC01818592858870992721E0892B8C
:1010C00009F420E089819A812170220F220FFC010E
:1010D00033853B7F232BFC0123878F819885FC017F
:1010E000818592858072992721E0892B09F420E07F
:1010F00089819A8121702295207FFC0133853F7E72
:10110000232BFC0123878F819885FC0181859285A3
:101110008071992721E0892B09F420E089819A8147
:101120002170220F220F220FFC013385377F232BE2
:10113000FC01238789819A81FC018385887088233B
:1011400009F462C089819A818F579F4FFC01808189
:1011500091819E838D838F819885FC018385282FC3
:101160002F708D819E812F70FC013181307F232B68
:10117000FC0121838F819885FC018385282F2F70A6
:101180008D819E812295207FFC0131813F70232B30
:10119000FC0121838F819885FC018485282F2F7085
:1011A0008D819E812F70FC013081307F232BFC01CB
:1011B00020838F819885FC018485282F2F708D8155
:1011C0009E812295207FFC0130813F70232BFC0102
:1011D000208389819A818F579F4FFC018081918163
:1011E0009C012E5F3F4F89819A818F579F4FFC0151
:1011F0003183208389819A81FC01818122E0280F3B
:1012000089819A81FC012183809166118F5F80938F
:1012100066112091661189819A81FC0124872091B1
:1012200062113091631189819A81FC01368725878B
:101230008F819885FC012581368189819A81FC0105
:10124000308B27878F819885FC018085282F2F7010
:1012500089819A812F70FC013189307F232BFC0119
:10126000218B8F819885FC018781282F2F708981A0
:101270009A812295207FFC0131893F70232BFC014C
:10128000218B8F819885FC018785482F50E08F81C5
:101290009885FC012585368589819A818F579F4FD6
:1012A000FC0180819181B9010E94174589819A8151
:1012B000FC0121818F819885FC018785280F898118
:1012C0009A81FC01218389819A810E94BB158F81BB
:1012D000988529813A81FC01338322838F81988507
:1012E00021E0FC01248389819A8189579F4F25E859
:1012F00039E0FC013183208328960FB6F894DEBFD5
:101300000FBECDBFDF91CF910895CF93DF9300D073
:1013100000D0CDB7DEB79C838B838091E3029091A0
:10132000E4029A8389832BC089819A81FC012281FE
:1013300033818B819C8128173907D1F48B819C8163
:101340008D579F4FFC01208189819A81FC01228B5E
:101350008B819C818A579F4FFC01208189819A81D2
:10136000FC01238B89819A8122E0FC0124830BC03C
:1013700089819A81FC01808191819A838983898105
:101380009A81892B89F68B819C810E94910B0000A8
:101390000F900F900F900F90DF91CF910895CF9302
:1013A000DF9300D000D0CDB7DEB79C838B83209134
:1013B000E3023091E4028B819C812817390761F4A4
:1013C0008091E3029091E402FC01808191819093ED
:1013D000E4028093E30225C08091E3029091E4024D
:1013E0009A83898307C089819A81FC0180819181D8
:1013F0009A83898389819A81FC01208131818B8143
:101400009C812817390779F789819A81FC018081AD
:101410009181FC012081318189819A81FC01318394
:10142000208380918811909189110197909389115F
:10143000809388118B819C81FC0180899189892B03
:1014400049F08B819C81FC01208931898B819C81B1
:10145000F901099500000F900F900F900F90DF9108
:10146000CF910895CF93DF9300D0CDB7DEB78091B1
:10147000E3029091E4029A83898321C089819A8151
:10148000FC018481882F90E08130910581F08230C9
:10149000910541F0892B09F00BC089819A810E9446
:1014A000870611C089819A810E94CF090CC0000073
:1014B00089819A81FC01808191819A8389838981C4
:1014C0009A81892BD9F60F900F90DF91CF910895D3
:1014D000CF93DF931F92CDB7DEB7198210C08981F9
:1014E000282F30E049E8429FC001439F900D11240E
:1014F00087519D4FFC01108289818F5F898389818B
:10150000843168F300000F90DF91CF910895CF935D
:10151000DF931F92CDB7DEB7198261C08981282F72
:1015200030E049E8429FC001439F900D112487514C
:101530009D4FFC018081882309F04EC08981282FAE
:1015400030E049E8429FC001439F900D112487512C
:101550009D4F49E850E060E070E00E94204589819D
:10156000282F30E049E8429FC001439F900D11248D
:1015700086519D4FFC0110828981482F50E089815E
:10158000282F30E069E8629FC001639F900D11240D
:1015900002969C0127513D4F69E8649FC001659FF9
:1015A000900D112486599C4FFC013183208380913A
:1015B00088119091891101969093891180938811D7
:1015C0008981282F30E049E8429FC001439F900D58
:1015D000112487519D4F09C089818F5F898389813B
:1015E000843108F49BCF80E090E00F90DF91CF91A1
:1015F0000895CF93DF9300D0CDB7DEB78A831982E9
:1016000085C08981282F30E049E8429FC001439F6F
:10161000900D112487519D4FFC018081882309F092
:1016200072C08981282F30E049E8429FC001439F62
:10163000900D112487519D4F49E850E060E070E023
:101640000E9420458A81882379F08981282F30E003
:1016500049E8429FC001439F900D112486519D4F40
:1016600027E0FC0120830EC08981282F30E049E863
:10167000429FC001439F900D112486519D4F23E04E
:10168000FC0120838981482F50E08981282F30E098
:1016900069E8629FC001639F900D112402969C012E
:1016A00027513D4F8981682F70E0E9E8E69FC0012E
:1016B000E79F900D112486519D4FFC018081882F5A
:1016C00090E0280F391F69E8649FC001659F900D65
:1016D000112486599C4FFC0131832083809188110D
:1016E0009091891101969093891180938811898135
:1016F000282F30E049E8429FC001439F900D1124FC
:1017000087519D4F09C089818F5F89838981843189
:1017100008F477CF80E090E00F900F90DF91CF91A9
:101720000895CF93DF9300D0CDB7DEB79A83898336
:1017300089819A81FC011082809188119091891190
:101740000197909389118093881100000F900F905A
:10175000DF91CF910895CF93DF9300D0CDB7DEB75F
:101760009A83898389819A81892B29F489EE92E071
:101770009A83898316C089819A8187579F4F9A835C
:1017800089830FC089819A81FC018081882319F0A7
:1017900089819A810DC089819A8187579F4F9A8349
:1017A000898389819A818D599D4060F380E090E022
:1017B0000F900F90DF91CF910895CF93DF9300D0DA
:1017C000CDB7DEB79A83898389819A818D579F4FE0
:1017D000FC011082809166118F5F809366112091C9
:1017E000661189819A81FC012487209162113091D0
:1017F000631189819A81FC013687258700000F904B
:101800000F90DF91CF910895CF93DF931F92CDB7C3
:10181000DEB719820FC08981882F90E0880F991F49
:101820008F55924F2FEF3FEFFC0131832083898149
:101830008F5F89838981833070F300000F90DF917F
:10184000CF910895CF93DF9300D0CDB7DEB79A83C1
:10185000898389819A81BC018FEF9FEF0E946F0C71
:101860000F900F90DF91CF910895CF93DF9300D029
:10187000CDB7DEB79A83898389819A816FEF7FEF35
:101880000E946F0C0F900F90DF91CF910895CF932E
:10189000DF9300D01F92CDB7DEB79B838A83198276
:1018A00014C08981882F90E0880F991F8F55924F1F
:1018B000FC01208131818A819B812817390711F42D
:1018C00081E007C089818F5F89838981833048F3F4
:1018D00080E00F900F900F90DF91CF910895CF93FC
:1018E000DF9300D000D01F92CDB7DEB79B838A83F1
:1018F0007D836C83198220C08981882F90E0880FB6
:10190000991F8F55924FFC01208131818A819B81E3
:101910002817390771F48981882F90E0880F991F63
:101920008F55924F2C813D81FC013183208381E0D2
:1019300007C089818F5F898389818330E8F280E0E5
:101940000F900F900F900F900F90DF91CF9108950F
:10195000CF93DF9300D0CDB7DEB79A838983898197
:101960009A81FC01418189819A818F579F4FFC01A7
:10197000808191819C0189819A810296B901681BBD
:10198000790BCB01742F781B872F0F900F90DF916D
:10199000CF910895CF93DF931F92CDB7DEB7198211
:1019A00011C08981282F30E0C901880F991F880F45
:1019B000991F820F931F8954924FFC0110828981D5
:1019C0008F5F89838981823360F384E690E0A0E0B1
:1019D000B0E08093B40E9093B50EA093B60EB09382
:1019E000B70E1092B80E81EB9EE09093BA0E8093E2
:1019F000B90E62ED7FE080E00E948C0500000F9040
:101A0000DF91CF910895CF93DF9300D000D0CDB771
:101A1000DEB79C838B838B819C81FC0180819181CB
:101A2000FC0180818C3041F48B819C81FC0182819E
:101A3000873008F05BC0F9C08B819C81FC018081FC
:101A40009181FC0180818C3C49F08B819C81FC015F
:101A500080819181FC0180818C3841F48B819C8153
:101A6000FC018281833008F041C0DFC08B819C8102
:101A7000FC01808191810196FC0180818838D1F43C
:101A80008B819C81FC0180819181FC018081813668
:101A900051F08B819C81FC0180819181FC018081CE
:101AA000813409F0B7C08B819C81FC018281803137
:101AB000E8F4B0C08B819C81FC018081918101960A
:101AC000FC018081803809F0A7C08B819C81FC01DA
:101AD00080819181FC018081882309F09FC08B81E6
:101AE0009C81FC0182818B3008F498C08B819C81A1
:101AF000FC01808191810196FC018081883851F040
:101B00008B819C81FC01808191810196FC01808107
:101B10008038D9F40E94870A9A83898389819A81BF
:101B2000892B09F47DC08B819C81FC01808191818E
:101B30000196FC018081883811F420E201C025E281
:101B400089819A81FC01208337C08B819C81FC01B3
:101B500080819181FC0180818C3081F481E00E9440
:101B6000F90A9A83898389819A81892B09F45AC059
:101B700089819A8126E2FC0120831EC080E00E94B8
:101B8000F90A9A83898389819A81892B09F44CC047
:101B90008B819C81FC0180819181FC0180818C384A
:101BA00031F489819A8128E2FC01208305C0898172
:101BB0009A8127E2FC0120838B819C81FC01228198
:101BC00089819A81FC0121838B819C81FC01238185
:101BD00089819A818D579F4FFC0120838B819C8145
:101BE000FC01248189819A818C579F4FFC012083BD
:101BF0008B819C81FC018281482F50E08B819C81EC
:101C0000FC012081318189819A810296B9010E946B
:101C100017450BC0000009C0000007C0000005C048
:101C2000000003C0000001C000000F900F900F9053
:101C30000F90DF91CF910895CF93DF9300D000D024
:101C400000D0CDB7DEB79E838D830E94870A9A832A
:101C5000898389819A81892B09F46BC08D819E814A
:101C6000FC01818120E1280F8D819E81FC0121836F
:101C70008D819E818F579F4FFC01808191819C01B6
:101C8000205F3F4F8D819E818F579F4FFC01318395
:101C9000208389819A810E94DD0B89819A81FC01D0
:101CA000818123E0280F89819A81FC012183898128
:101CB0009A8189579F4FFC01118210828D819E81EC
:101CC000FC01838581FB222720F989819A8121707B
:101CD000220FFC0133853D7F232BFC0123878D815F
:101CE0009E81FC012585368589819A81FC01308B96
:101CF000278789819A818F579F4FFC01808191812D
:101D00009C838B838B819C81FC0110822091AD0E82
:101D10008B819C81FC0122838D819E81FC01248525
:101D20008B819C81FC01218389819A810E94BB1552
:101D300001C0000026960FB6F894DEBF0FBECDBFDF
:101D4000DF91CF910895CF93DF931F92CDB7DEB788
:101D5000898389818093AD0E00000F90DF91CF9130
:101D60000895CF93DF9300D000D0CDB7DEB79C832A
:101D70008B8319821A8230C08A81282F30E0C901F2
:101D8000880F991F880F991F820F931F8954924FB4
:101D9000FC0180818823E9F08A81282F30E0C90185
:101DA000880F991F880F991F820F931F8954924F94
:101DB000FC0180814FEF480FC901880F991F880FE0
:101DC000991F820F931F8954924FFC01408381E039
:101DD00089838A818F5F8A838A81823368F28981CD
:101DE000882321F08B819C810E94BB1D00000F90F5
:101DF0000F900F900F90DF91CF910895CF93DF93C5
:101E0000CDB7DEB729970FB6F894DEBF0FBECDBFB2
:101E1000998788871A8219821B8290C08B81282F0C
:101E200030E0C901880F991F880F991F820F931FF7
:101E30008D54924F9D838C838C819D81FC01848184
:101E4000882309F46EC088859985FC012385348533
:101E50008C819D81FC01808191812817390709F0CF
:101E600060C08C819D81FC01228188859985FC015F
:101E70008285F22FF81B8F2F8E838E81883058F544
:101E80008C819D81FC018381882F90E02E81222FFF
:101E900030E002C0959587952A95E2F781709927E1
:101EA000892B11F081E075C08C819D81FC018381BB
:101EB000482F8E81282F30E081E090E002C0880F0B
:101EC000991F2A95E2F7842B282F8C819D81FC0194
:101ED000238380E05EC08E8181958F83888599857C
:101EE000FC0122858C819D81FC0122838C819D8156
:101EF000FC018381882F90E02F81222F30E002C0E7
:101F0000880F991F2A95E2F78160282F8C819D8187
:101F1000FC0123838C819D8125E1FC01248380E0E9
:101F200038C08C819D81FC018481882321F48C81BF
:101F30009D819A8389838B818F5F8B838B81823391
:101F400008F46CCF89819A81892B11F481E021C03A
:101F500088859985FC012385348589819A81FC01D6
:101F60003183208388859985FC01228589819A8126
:101F7000FC01228389819A8121E0FC0123838981EC
:101F80009A8125E1FC0124838EEA9EE00E94BB1D1C
:101F900080E029960FB6F894DEBF0FBECDBFDF916B
:101FA000CF910895CF93DF9300D0CDB7DEB79A835A
:101FB000898389819A81FC018285882311F480E0DC
:101FC00011C089819A81FC0180859185FC01808105
:101FD000882F90E0892B29F489819A810E94E1164B
:101FE00001C080E00F900F90DF91CF910895CF93C3
:101FF000DF93CDB7DEB728970FB6F894DEBF0FBEDC
:10200000CDBF98878F838F81988502969B838A8323
:102010008F81988524E2FC0120838A819B81FC01C9
:1020200081858270882309F03BC18A819B81FC01F4
:1020300081858870882341F08A819B81FC0181859C
:102040008170882309F02EC18A819B81FC018381E4
:1020500094810196D1F420916211309163118A81AB
:102060009B81FC01858596852817390741F08A8177
:102070009B81FC0185859685019609F015C18F81AC
:10208000988522E2FC0120830FC18A819B81FC019B
:1020900085859685019641F48A819B81FC01818525
:1020A0008170882309F002C120916211309163117F
:1020B0008A819B81FC01838594852817390709F45F
:1020C000F7C08A819B810E94FE0E882309F0F2C02E
:1020D0008A819B81FC0181858870882309F4A9C0CD
:1020E0008F8198858F579F4FFC01808191819D83BF
:1020F0008C838A819B81FC01858596850E94470C93
:102100008E8319828A819B81FC018581968101964B
:1021100009F061C08E81882379F18C819D81FC0159
:1021200081818F70882F90E021E0181619060CF03D
:1021300020E029838C819D81FC0181818F702FE0BB
:10214000280F2F708C819D812F70FC013181307F91
:10215000232BFC0121838C819D81FC018081282F10
:1021600022952F708C819D812F70FC013081307FF2
:10217000232BFC0120833BC08C819D81FC0180814D
:102180008F70882F90E021E0181619060CF020E0DF
:1021900029838C819D81FC0180818F702FE0280F25
:1021A0002F708C819D812F70FC013081307F232B1B
:1021B000FC0120838C819D81FC018181282F229547
:1021C0002F708C819D812F70FC013181307F232BFA
:1021D000FC0121830CC08E81882349F081E0898332
:1021E0008A819B81FC0121852460FC0121878981F2
:1021F000882321F08F8198850E9452168E81882332
:1022000009F459C08F8198858F579F4FFC018081B9
:1022100091819C012E5F3F4F8F8198858F579F4FF3
:10222000FC01318320838F81988522E2FC01208389
:1022300042C08A819B81FC01858196810196B9F417
:1022400020916211309163118A819B81FC01858507
:1022500096852817390759F08A819B81FC01818571
:102260008470882321F48F8198850E9452162091D2
:102270006211309163118A819B81FC01858596856D
:102280002817390739F08A819B81FC01858596855D
:10229000019689F48F81988522E2FC0120830BC08E
:1022A000000009C0000007C0000005C0000003C016
:1022B000000001C0000028960FB6F894DEBF0FBEE4
:1022C000CDBFDF91CF910895CF93DF93CDB7DEB728
:1022D00061970FB6F894DEBF0FBECDBF998B888B88
:1022E0008889998902969A83898389819A81FC01D8
:1022F000878582958F70882F90E00396880F991FAD
:102300008E599E4EFC0180819181892B11F480E0D1
:10231000D9C089819A81FC01838594859C838B83B4
:1023200089819A81FC01858596859E838D8389812B
:102330009A81FC0187858F708F8389819A81FC0146
:10234000878582958F708887888999898F579F4F55
:10235000FC01808191819C878B87888999890E9463
:10236000A80C8D87888999898D579F4FFC018081A2
:102370008E87888999898C579F4FFC0180818F8730
:1023800089819A81FC018185982F917081E0992340
:1023900009F480E0882F90E09A87898729853A851B
:1023A00089819A81FC018185882F90E0827099272C
:1023B000822B932B9A87898729853A8589819A81EF
:1023C000FC0181858470882319F080E290E002C0CE
:1023D00080E090E0822B932B9A87898729853A8524
:1023E00089819A81FC0181858870882319F080E4B5
:1023F00090E002C080E090E0822B932B9A8789873F
:1024000029853A8589819A81FC018185807188239B
:1024100019F080E890E002C080E090E0822B932BDE
:102420009A87898729853A8589819A81FC018585E2
:102430009685019619F484E090E002C080E090E077
:10244000822B932B9A87898729853A8589819A815E
:10245000FC014385548589819A81FC01878190859F
:102460004817590719F488E090E002C080E090E036
:10247000822B932B9A87898729853A8589819A812E
:10248000FC0183819481019619F480E190E002C0FF
:1024900080E090E0822B932B9A87898789819A81AB
:1024A000FC01878582958F70882F90E00396880FB6
:1024B000991F8E599E4EFC0120813181CE010396D9
:1024C000F901099561960FB6F894DEBF0FBECDBF36
:1024D000DF91CF910895CF93DF93CDB7DEB76197AA
:1024E0000FB6F894DEBF0FBECDBF998B888B88895D
:1024F000998902969A8389838889998924E2FC01C3
:1025000020838091681190916911892B11F480E0EA
:1025100044C088899989FC01878190859C838B833D
:1025200088899989FC01878190859E838D831F828C
:102530001886888999898F579F4FFC0180819181E6
:102540009C878B87888999890E94A80C8D878889A8
:1025500099898D579F4FFC0180818E878889998941
:102560008C579F4FFC0180818F8780E890E09A878D
:10257000898789819A81FC01878582958F70882F50
:1025800090E00396880F991F8E599E4EFC01208182
:102590003181CE010396F901099561960FB6F89441
:1025A000DEBF0FBECDBFDF91CF910895CF93DF93F4
:1025B000CDB7DEB72F970FB6F894DEBF0FBECDBFF5
:1025C0009F878E878E859F8524E2FC0120838091E2
:1025D000681190916911892B11F480E02AC01A8248
:1025E00019821C821B821D821E828E859F85029607
:1025F0009A8789878E859F850E94A80C8B878E85F8
:102600009F858D579F4FFC0180818C878E859F858C
:102610008C579F4FFC0180818D8780E091E09887E7
:102620008F832091681130916911CE010196F901D3
:1026300009952F960FB6F894DEBF0FBECDBFDF9180
:10264000CF910895CF93DF93CDB7DEB761970FB6E3
:10265000F894DEBF0FBECDBF998B888B888999898E
:1026600002969A8389838889998924E2FC012083D0
:1026700080916E1190916F11892B11F480E02EC022
:102680001C821B821E821D821F821886888999895E
:102690008F579F4FFC01808191819C878B87888910
:1026A00099890E94A80C8D87888999898D579F4F99
:1026B000FC0180818E87888999898C579F4FFC0106
:1026C00080818F8780E092E09A87898720916E11C0
:1026D00030916F11CE010396F901099561960FB6FD
:1026E000F894DEBF0FBECDBFDF91CF910895CF9399
:1026F000DF93CDB7DEB761970FB6F894DEBF0FBE9C
:10270000CDBF998B888B8889998902969A83898312
:102710008889998924E2FC0120838091701190912D
:102720007111892B11F480E02EC01C821B821E8245
:102730001D821F821886888999898F579F4FFC01B7
:10274000808191819C878B87888999890E94A80CB8
:102750008D87888999898D579F4FFC0180818E874D
:10276000888999898C579F4FFC0180818F8780E0F1
:1027700090E49A8789872091701130917111CE0170
:102780000396F901099561960FB6F894DEBF0FBE66
:10279000CDBFDF91CF910895CF93DF9300D01F92EB
:1027A000CDB7DEB79B838A831092AD0E8A819B8161
:1027B0000E94641189838A819B81FC0183858170D9
:1027C000882309F419828A819B81FC018781908585
:1027D0000196A9F420916211309163118A819B8145
:1027E000FC01878590892817390749F48A819B81E4
:1027F000FC0183858870882311F481E089838A81B4
:102800009B81FC0185819681019609F41982809152
:10281000621190916311019609F4198289818823CC
:1028200021F08A819B810E941C0E8A819B8124E277
:10283000FC01208300000F900F900F90DF91CF914B
:102840000895CF93DF9300D0CDB7DEB71A821982F7
:102850003BC089819A81FC018081882F90E0092EFC
:10286000000CAA0BBB0B40E250E028E030E0841BD8
:10287000950B2817390740F180579F4FFC010C94A6
:10288000C24389819A810E94F70F1EC089819A8173
:102890000E94CC1319C089819A810E94910B14C0A7
:1028A00089819A810E946B120FC089819A810E944E
:1028B000D6120AC089819A810E94221305C089819B
:1028C0009A810E947713000089819A810E94AB0B44
:1028D0009A83898389819A81892B09F0BACF000074
:1028E0000F900F90DF91CF910895CF93DF93CDB7E5
:1028F000DEB71092C40E1092C30E82E390E0A0E007
:10290000B0E08093CB0E9093CC0EA093CD0EB093FD
:10291000CE0E1092CF0E80E397E19093D10E80936C
:10292000D00E8AE090E0A0E0B0E08093D80E9093C3
:10293000D90EA093DA0EB093DB0E1092DC0E8AE96A
:1029400097E19093DE0E8093DD0E0000DF91CF9132
:102950000895CF93DF9300D000D0CDB7DEB79C832E
:102960008B838B819C8102969A8389838B819C8146
:1029700023E1FC0120838B819C818D579F4FFC01BB
:1029800010828B819C818C579F4FFC011182108299
:1029900089819A8120E030E8FC0131832083809195
:1029A00067118F5F809367112091671189819A81E8
:1029B000FC012283209164113091651189819A81F3
:1029C000FC0134832383209162113091631189814A
:1029D0009A81FC013683258300000F900F900F90A1
:1029E0000F90DF91CF910895CF93DF9300D000D067
:1029F000CDB7DEB79C838B838B819C8102969A83B3
:102A000089838B819C8123E1FC0120838B819C81C4
:102A10008D579F4FFC0110828B819C818C579F4F5B
:102A2000FC011182108289819A812CE0FC012083B3
:102A3000809167118F5F8093671120916711898161
:102A40009A81FC01218389819A81FC012281287F5E
:102A5000FC01228389819A81FC012281277EFC016D
:102A6000228389819A81FC0122812F7DFC012283AE
:102A700089819A81FC0122812F7BFC012283000045
:102A80000F900F900F900F90DF91CF910895CF93FB
:102A9000DF9300D000D000D0CDB7DEB79C838B830E
:102AA0007E836D838B819C8102969A8389838B813F
:102AB0009C8123E1FC0120838B819C818D579F4F5A
:102AC000FC0110828B819C818C579F4FFC011182ED
:102AD00010828D819E81992334F489819A812CEC16
:102AE000FC01208317C08D819E8188279072892BDD
:102AF00031F089819A812CE4FC0120830BC08D8107
:102B00009E8188279074892B29F089819A812CE8ED
:102B1000FC012083809167118F5F80936711209162
:102B2000671189819A81FC01218389819A81FC0145
:102B30002281287FFC01228389819A81FC012281E4
:102B4000277EFC01228389819A81FC0122812F7DCD
:102B5000FC01228389819A81FC0122812F7BFC0167
:102B60002283000026960FB6F894DEBF0FBECDBFBD
:102B7000DF91CF910895CF93DF9300D000D0CDB7F0
:102B8000DEB79C838B838B819C8102969A83898399
:102B90008B819C818A579F4FFC018081882F90E018
:102BA00082709927892B31F08B819C8122E1FC0175
:102BB000208305C08B819C8122E1FC0120838B81D5
:102BC0009C818D579F4FFC0110828B819C818A577D
:102BD0009F4FFC018081882F90E081709927892B7D
:102BE00041F089819A812FEF3FEFFC0134832383E9
:102BF00009C0209164113091651189819A81FC018D
:102C00003483238389819A81FC01258536858981D6
:102C10009A81FC01368325832091621130916311E2
:102C200089819A81FC0130872783809167118F5FAA
:102C3000809367112091671189819A81FC01228319
:102C400089819A81FC01858196810196A9F4898107
:102C50009A8121E438E8FC01318320830E942544D5
:102C60008770992701969C018B819C818C579F4F7F
:102C7000FC01318320830EC089819A8121E438E8E8
:102C8000FC01318320838B819C818C579F4FFC01F9
:102C90001182108200000F900F900F900F90DF9123
:102CA000CF910895CF93DF9300D000D0CDB7DEB79A
:102CB0009C838B830E94870A9A83898389819A8166
:102CC000892B09F476C089819A818F579F4FFC0127
:102CD000808191819C01205F3F4F89819A818F572C
:102CE0009F4FFC013183208389819A8122E1FC017D
:102CF00020838B819C81FC01218189819A81FC0147
:102D0000218389819A818D579F4FFC0110820E94F7
:102D100025448770992701969C0189819A818C5757
:102D20009F4FFC013183208389819A8189579F4F6E
:102D3000FC01118210828B819C81FC018181482FD2
:102D400050E08B819C819C012E5F3F4F89819A814D
:102D50000296B9010E94174589819A8121E438E8D9
:102D6000FC013383228389819A812FEF3FEFFC019D
:102D7000308727838B819C81FC0125813681898165
:102D80009A81FC0136832583209162113091631171
:102D900089819A81FC0132872187809167118F5F39
:102DA000809367112091671189819A81FC012483A6
:102DB00001C000000F900F900F900F90DF91CF9106
:102DC0000895CF93DF9300D000D000D0CDB7DEB709
:102DD0009E838D838D819E81FC01808591859C835E
:102DE0008B831A8219828D819E81FC0182858330BA
:102DF00019F180E02CC089819A81FC0180818631A3
:102E0000D9F489819A81FC0124858B819C81FC0104
:102E10008181281789F489819A8127E1FC01208327
:102E20008B819C81FC01228189819A818A579F4FE5
:102E3000FC01208381E00BC089819A810E94AB0B49
:102E40009A83898389819A81892BA9F680E02696C5
:102E50000FB6F894DEBF0FBECDBFDF91CF910895BE
:102E6000CF93DF9300D000D01F92CDB7DEB79D8304
:102E70008C831A8219821B8227C089819A81FC0166
:102E80008081863109F581E08B8389819A818C5715
:102E90009F4FFC01808191819C01215031098981E2
:102EA0009A818C579F4FFC013183208389819A81BD
:102EB0008C579F4FFC0180819181892B29F4898156
:102EC0009A8160E10E947E1789819A810E94AB0BF2
:102ED0009A83898389819A81892B79F68B818823CA
:102EE00021F08C819D810E94BB1D00000F900F90EE
:102EF0000F900F900F90DF91CF910895CF93DF93B4
:102F000000D01F92CDB7DEB79A8389836B83898106
:102F10009A8127E1FC01208389819A818D579F4FF7
:102F20002B81FC01208300000F900F900F90DF9108
:102F3000CF910895CF93DF9300D000D01F92CDB7EB
:102F4000DEB79D838C831A8219821B8227C08981F8
:102F50009A81FC018081813109F581E08B8389812F
:102F60009A818C579F4FFC01808191819C01215057
:102F7000310989819A818C579F4FFC0131832083CD
:102F800089819A818C579F4FFC0180819181892B87
:102F900029F489819A8123E1FC01208389819A8126
:102FA0000E94AB0B9A83898389819A81892B79F658
:102FB0008B81882321F08C819D810E94BB1D0000A4
:102FC0000F900F900F900F900F90DF91CF91089579
:102FD000CF93DF931F92CDB7DEB789838981882F86
:102FE00090E08130910539F08230910531F0892BE4
:102FF00031F480E005C080E203C081E201C081E0DD
:103000000F90DF91CF9108950F931F93CF93DF938C
:103010001F92CDB7DEB789830091C30E1091C40E05
:1030200089810E94E817282FC8018D579F4FFC0106
:1030300020838091C30E9091C40E25E1FC01208372
:103040001092C40E1092C30E809188119091891134
:103050000197909389118093881100000F90DF9160
:10306000CF911F910F910895CF93DF9300D0CDB7EB
:10307000DEB71A821982B3C089819A81FC018081EE
:10308000882F90E08431910509F4A9C0853191051C
:1030900034F48231910579F0439731F19FC0863144
:1030A000910509F49CC0863191050CF443C0479703
:1030B00009F47AC093C089819A818C579F4FFC0193
:1030C00080819181892B51F089819A8121E1FC01D4
:1030D000208382ED9EE00E94BB1D81C089819A8180
:1030E00023E1FC0120837BC08091C30E9091C40E2C
:1030F000892B09F074C089819A819093C40E8093C2
:10310000C30E89819A8124E1FC01208389819A81FF
:10311000FC01218189819A810296622F0E94351BD0
:1031200080918811909189110196909389118093D3
:10313000881155C089819A818D579F4FFC018081EC
:10314000882361F589819A81FC01258536858091E6
:1031500062119091631128173907D1F489819A81FE
:10316000FC0183858170882399F089819A8126E109
:10317000FC01208389819A818C579F4F25E130E0A3
:10318000FC013183208385EC9EE00E94BB1D0BC0B7
:1031900089819A8127E1FC01208321C089819A815C
:1031A00027E1FC0120831BC089819A8189579F4FA9
:1031B000FC0180819181892B29F489819A810E9467
:1031C000910B0DC089819A8189579F4FFC01208105
:1031D000318189819A81F901099501C000008981B5
:1031E0009A810E94AB0B9A83898389819A81892B6A
:1031F00009F042CF00000F900F90DF91CF9108951A
:10320000CF93DF9300D0CDB7DEB79A8389838981CE
:103210009A81892B09F47BC089819A81883791052D
:1032200049F461E080E00E94683960E180E00E943A
:1032300068396DC089819A81803C910529F462E0EA
:1032400080E00E94683963C089819A818C3491053D
:1032500029F464E080E00E94683959C089819A812C
:103260008038910529F468E080E00E9468394FC0F9
:1032700089819A818434910529F460E280E00E947A
:10328000683945C089819A81803B910529F460E4C1
:1032900080E00E9468393BC089819A81883B910512
:1032A00029F460E880E00E94683931C089819A8100
:1032B000883C910529F461E081E00E94683927C0CB
:1032C00089819A818039910529F468E081E00E9422
:1032D00068391DC089819A81803A910529F460E19D
:1032E00081E00E94683913C089819A8180329140BF
:1032F00029F460E281E00E94683909C089819A81DD
:103300008334914021F460E481E00E946839000038
:103310000F900F90DF91CF9108956150710981094D
:103320009109D9F70895CF93DF93CDB7DEB783E442
:1033300091E00E94001989E391E0FC012081216065
:10334000FC0120831092600F81E08093DF0E88E003
:103350000E94121C8CE491E0FC0120812068FC0199
:1033600020830000DF91CF910895CF93DF93CDB7F5
:10337000DEB789E391E0FC0120812160FC0120831C
:103380000000DF91CF910895CF93DF931F92CDB7C7
:10339000DEB7898389818823B1F08CE691E0FC0156
:1033A00020812F70FC0120838CE691E0FC012081BC
:1033B0002E60FC0120838EE691E0FC0120812061DB
:1033C000FC01208317C08CE691E0FC0120812F7066
:1033D0002063FC0120838CE691E0FC012081217FA9
:1033E0002860FC0120838EE691E0FC0120812F7E85
:1033F000FC01208300000F90DF91CF910895CF93BF
:10340000DF93CDB7DEB729970FB6F894DEBF0FBEB6
:10341000CDBF898728E0CE010196FC01322F1192A1
:103420003A95E9F78985882349F180E090E00E9488
:10343000BF1A80E090E00E949B1ACE0101960E9484
:10344000371C87E591E0FC0120812260FC0120838C
:1034500087E591E0FC0120812061FC01208387E564
:1034600091E0FC0120812F7DFC0120838EE691E01C
:10347000FC0120812061FC0120830BC087E591E0E5
:10348000FC0110828EE691E0FC0120812F7EFC0180
:103490002083000029960FB6F894DEBF0FBECDBF83
:1034A000DF91CF9108950F931F93CF93DF93CDB703
:1034B000DEB78FE691E0FC012081207F2360FC01D4
:1034C00020838FE691E0FC0120812F702068FC01B1
:1034D00020830DE611E00E94761BF8018083000036
:1034E000DF91CF911F910F910895CF93DF931F929A
:1034F000CDB7DEB7898389818093600F0E94FB1B63
:1035000000000F90DF91CF910895CF93DF931F922A
:10351000CDB7DEB7898388E491E029812F712F71BF
:10352000FC013081307E232BFC01208300000F90B2
:10353000DF91CF910895CF93DF9300D000D0CDB726
:10354000DEB79C838B83CE0103969A83898382E6C0
:1035500091E029813A81F9012081FC01208383E6F1
:1035600091E029813A81F9012181FC012083000049
:103570000F900F900F900F90DF91CF910895CF9300
:10358000DF9300D000D0CDB7DEB79C838B83CE0114
:1035900003969A83898380E691E029813A81F90133
:1035A0002081FC01208381E691E029813A81F901A3
:1035B0002181FC0120838DE691E029813A81F90186
:1035C000408129813A812F5F3F4FF9012081240FEB
:1035D000FC01208300000F900F900F900F90DF915F
:1035E000CF910895CF93DF931F92CDB7DEB7898334
:1035F00085E491E029812F702F70FC013081307FAC
:10360000232BFC01208300000F90DF91CF910895C0
:10361000CF93DF93CDB7DEB78091DF0E823069F0B4
:1036200088E00E94121C89E391E0FC012081226065
:10363000FC01208382E08093DF0E0000DF91CF91B8
:103640000895CF93DF93CDB7DEB789E391E0FC0116
:1036500020812D7FFC0120830E94FB1B81E0809351
:10366000DF0E0000DF91CF910895CF93DF9300D05C
:1036700000D0CDB7DEB79B838A836C8389E10E943B
:10368000121C8FE491E02FEFFC01208380E891E091
:103690002C812E5FFC012083198214C08981882F20
:1036A00090E08F579E4FAC018981882F90E02A814E
:1036B0003B81820F931FFC018081FA018083898105
:1036C0008F5F898399818C81981740F383E0809381
:1036D000DF0E82E491E022E0FC01208300000F90E5
:1036E0000F900F900F90DF91CF910895CF93DF93BC
:1036F00000D01F92CDB7DEB71A82198286E00E94F1
:10370000121C1B8222C062E070E080E090E00E9408
:103710008D1986E491E0FC01808182958695877001
:103720008370882F90E02B81222F30E002C0880F19
:10373000991F2A95E2F79C0189819A81822B932B0C
:103740009A8389838B818E5F8B838B818031D8F2C2
:103750000E94FB1B89819A810F900F900F90DF913F
:10376000CF910895CF93DF9300D000D0CDB7DEB7CF
:103770009A8389837C836B838B819C8140E060E0AA
:103780000E945C2C89819A810E94682D89819A818E
:103790000E949E2D00000F900F900F900F90DF91D0
:1037A000CF910895CF93DF931F92CDB7DEB786E018
:1037B0000E94121C8FE491E0FC0120812061FC0139
:1037C000208387E491E0FC01108200008FE491E007
:1037D000FC018081829581708823C1F387E491E0A8
:1037E000FC0180818A5589830E94FB1B89810F908F
:1037F000DF91CF910895CF93DF93CDB7DEB788E007
:103800000E94121C8FE491E02FEFFC012083809135
:10381000600F882319F086E10E94121C0000DF91DE
:10382000CF910895CF93DF931F92CDB7DEB78983F1
:1038300082E491E023E0FC01208381E491E0FC013B
:1038400080818F718830A1F782E491E02981FC01A9
:10385000208381E491E0FC0180818F71982F898120
:10386000981791F700000F90DF91CF910895CF93B3
:10387000DF9300D000D0CDB7DEB79C838B838B81E4
:103880009C819A83898324E631E089819A81AC0105
:103890004F5F5F4F5A834983FC018081F901808328
:1038A00025E631E089819A81AC014F5F5F4F5A83F1
:1038B0004983FC018081F901808326E631E089811A
:1038C0009A81AC014F5F5F4F5A834983FC0180812D
:1038D000F901808327E631E089819A81AC014F5F4D
:1038E0005F4F5A834983FC018081F901808328E678
:1038F00031E089819A81AC014F5F5F4F5A834983E0
:10390000FC018081F901808329E631E089819A8177
:10391000AC014F5F5F4F5A834983FC018081F901FD
:1039200080832AE631E089819A81AC014F5F5F4F45
:103930005A834983FC018081F90180838BE691E001
:1039400029813A81F9012081FC01208300000F9038
:103950000F900F900F90DF91CF910895CF93DF9349
:10396000CDB7DEB728970FB6F894DEBF0FBECDBF38
:103970008091DF0E823009F49EC08FE491E0FC015B
:10398000808183FB882780F9882309F459C08BE75D
:1039900091E0FC0180818B83198211C08981882F7D
:1039A00090E02981222F30E020583E4FF9012081FC
:1039B0008052914FFC01208389818F5F89838981A7
:1039C000282F30E08B81882F90E001962817390747
:1039D0002CF380EE9EE09D838C838B8182508E83BE
:1039E0008B81882F90E08052914FFC0180818F83E2
:1039F00087E491E0FC0180818A558887CE01049696
:103A00000E94030D000081E491E0FC0180818F7130
:103A10008631C9F78FE491E0FC0120812860FC0128
:103A200020838CE491E0FC0120812F77FC0120832E
:103A30008CE491E0FC0120812068FC0120833CC0E3
:103A40008FE491E0FC01808186FB882780F9882340
:103A500099F181E491E0FC0180818F71893119F540
:103A600082E491E0FC0180818295869587708A834B
:103A70008A81882311F41A820EC08A81833019F456
:103A800081E08A8308C08A81853019F482E08A83C4
:103A900002C083E08A830E94FB1B81E08093DF0EDB
:103AA0008A810E9404188FE491E0FC012081206447
:103AB000FC01208301C0000028960FB6F894DEBFF9
:103AC0000FBECDBFDF91CF910895CF93DF93CDB7D8
:103AD000DEB70E94A31D0E94542C0E9493190E94DD
:103AE0002B050000DF91CF910895CF93DF93CDB7E1
:103AF000DEB70E94AE1C0E9429060E94751E0000BF
:103B0000DF91CF910895CF93DF931F92CDB7DEB7AA
:103B10008FE590E0FC0180818983F89489810F9082
:103B2000DF91CF910895CF93DF931F92CDB7DEB78A
:103B300089838FE590E02981FC01208300000F90AC
:103B4000DF91CF910895CF93DF93CDB7DEB7109279
:103B50008A118DE090E20E94E13F0E94933F80E154
:103B600097E20E94293F10926A0F1092690F00009D
:103B7000DF91CF910895CF93DF9300D0CDB7DEB71B
:103B80009A83898389819A810E944A1E982F81E0B5
:103B90008927882321F089819A810E94381F00009B
:103BA0000F900F90DF91CF910895CF93DF9300D0C6
:103BB00000D000D0CDB7DEB79E838D831A821982E4
:103BC0008091690F90916A0F9C838B8352C02B81E7
:103BD0003C818D819E812817390709F03FC089817A
:103BE0009A81892B59F08B819C81FC012081318144
:103BF00089819A81FC013183208309C08B819C815A
:103C0000FC018081918190936A0F8093690F8B8171
:103C10009C81FC0180819181892B89F18B819C8120
:103C2000FC01608171818B819C81FC01808191818B
:103C3000FC0122813381448155818D819E81FC016B
:103C400082819381A481B581820F931FA41FB51F28
:103C5000FB0182839383A483B58311C08B819C81F4
:103C60009A8389838B819C81FC01808191819C83D3
:103C70008B838B819C81892B09F0A9CF01C0000027
:103C8000000026960FB6F894DEBF0FBECDBFDF91C1
:103C9000CF910895CF93DF9300D000D0CDB7DEB79A
:103CA0009C838B838091690F90916A0F9A8389839B
:103CB00010C029813A818B819C812817390711F422
:103CC00081E00CC089819A81FC01808191819A8375
:103CD000898389819A81892B61F780E00F900F9009
:103CE0000F900F90DF91CF910895EF92FF920F9375
:103CF0001F93CF93DF93CDB7DEB728970FB6F89415
:103D0000DEBF0FBECDBF80918A11882309F4A2C007
:103D10000E94831D8D8380918A118E8310928A1157
:103D20008D810E94931D8E81882F90E0A0E0B0E0ED
:103D3000880F991FAA1FBB1F9C01AD01220F331FC3
:103D4000441F551F220F331F441F551F820F931FFF
:103D5000A41FB51F89839A83AB83BC833DC0809128
:103D6000690F90916A0F98878F838091690F909166
:103D70006A0FFC0182819381A481B58129813A81F6
:103D80004B815C8179018A01E81AF90A0A0B1B0B45
:103D9000D801C70189839A83AB83BC838091690F63
:103DA00090916A0FFC018081918190936A0F8093BA
:103DB000690F8F819885FC018285813021F48F8184
:103DC00098850E94381F8F819885FC012385348552
:103DD0008F819885F90109958091690F90916A0FFB
:103DE000892B99F08091690F90916A0FFC012281D3
:103DF00033814481558189819A81AB81BC8182174D
:103E00009307A407B50708F0AACF8091690F909196
:103E10006A0F892B01F16091690F70916A0F80918F
:103E2000690F90916A0FFC01228133814481558191
:103E300089819A81AB81BC8179018A01E81AF90AEA
:103E40000A0B1B0BD801C701FB0182839383A48358
:103E5000B58301C0000028960FB6F894DEBF0FBEF0
:103E6000CDBFDF91CF911F910F91FF90EF900895FB
:103E7000EF92FF920F931F93CF93DF93CDB7DEB7EF
:103E80002A970FB6F894DEBF0FBECDBF9A878987F9
:103E90008091690F90916A0F892B09F497C01A825B
:103EA000198289859A85FC0186819781A085B185D3
:103EB0008B839C83AD83BE838091690F90916A0F41
:103EC00098878F834DC08F819885FC012281338133
:103ED000448155818B819C81AD81BE81821793077E
:103EE000A407B507D8F48F819885FC01228133811E
:103EF000448155818B819C81AD81BE8179018A018C
:103F0000E81AF90A0A0B1B0BD801C7012F81388563
:103F1000F90182839383A483B58327C08F81988519
:103F2000FC0182819381A481B5812B813C814D81EB
:103F30005E8179018A01E81AF90A0A0B1B0BD80184
:103F4000C7018B839C83AD83BE838F8198859A83C1
:103F500089838F819885FC018081918198878F83E7
:103F60008F819885892B09F0AECF29853A858B8181
:103F70009C81AD81BE81F90182839383A483B58343
:103F800089819A81892B91F089819A81FC01208114
:103F9000318189859A85FC013183208389819A81C9
:103FA00029853A85FC013183208329C02091690F3E
:103FB00030916A0F89859A85FC0131832083898538
:103FC0009A8590936A0F8093690F19C089859A85A5
:103FD000FC011182108289859A85FC018681978176
:103FE000A085B18529853A85F90182839383A483CD
:103FF000B58389859A8590936A0F8093690F000035
:104000002A960FB6F894DEBF0FBECDBFDF91CF91D9
:104010001F910F91FF90EF900895CF93DF93CDB74D
:10402000DEB780918A118F5F80938A1180E197E2D9
:104030000E94293F0000DF91CF910895CF93DF9335
:104040001F92CDB7DEB78FE590E0FC0180818983B8
:10405000F89489810F90DF91CF910895CF93DF93EA
:104060001F92CDB7DEB789838FE590E02981FC01EF
:10407000208300000F90DF91CF910895CF93DF93BD
:10408000CDB7DEB780E094E2A4EFB0E0BC01CD0193
:10409000DF91CF910895CF93DF93CDB7DEB70E9424
:1040A0003E20DC01CB01BC01CD01DF91CF91089511
:1040B000CF93DF9300D0CDB7DEB79A838983898110
:1040C0009A81892B21F480E090E0DC01A3C08981F2
:1040D0009A818837910529F40E944B20DC01CB019D
:1040E00099C089819A81803C910529F40E944B20D6
:1040F000DC01CB018FC089819A818C34910529F430
:104100000E944B20DC01CB0185C089819A818038D7
:10411000910529F40E944B20DC01CB017BC08981F1
:104120009A818434910529F40E944B20DC01CB0153
:1041300071C089819A81803B910529F40E944B20AE
:10414000DC01CB0167C089819A81803C910529F40B
:104150000E944B20DC01CB015DC089819A81883BA4
:10416000910529F40E944B20DC01CB0153C08981C9
:104170009A818039910529F40E944B20DC01CB0102
:1041800049C089819A81803A910529F40E944B2087
:10419000DC01CB013FC089819A818032914029F4B2
:1041A0000E944B20DC01CB0135C089819A81833488
:1041B000914029F40E944B20DC01CB012BC0898166
:1041C0009A818533914029F40E944B20DC01CB0178
:1041D00021C089819A818433914029F40E944B2027
:1041E000DC01CB0117C089819A818333914029F486
:1041F0000E944B20DC01CB010DC089819A81823362
:10420000914029F40E944B20DC01CB0103C080E0E7
:1042100090E0DC01BC01CD010F900F90DF91CF91B8
:104220000895CF93DF9300D01F92CDB7DEB79A8366
:1042300089836B8389819A818038910559F481E85B
:1042400090E021E830E0F90130812B81232BFC0143
:1042500020832FC089819A818039910559F481E9A1
:1042600090E021E930E0F90130812B81232BFC0122
:1042700020831FC089819A81803A910559F481EA8F
:1042800090E021EA30E0F90130812B81232BFC0101
:1042900020830FC089819A818032914051F481E25C
:1042A00091E021E231E0F90130812B81232BFC01E7
:1042B000208300000F900F900F90DF91CF91089511
:1042C000CF93DF9300D0CDB7DEB79A8389838981FE
:1042D0009A818038910551F48FE690E02FE630E026
:1042E000F90120812160FC0120832CC089819A8101
:1042F0008039910551F481E790E021E730E0F90140
:1043000020812160FC0120831DC089819A81803A2F
:10431000910551F482E790E022E730E0F901208135
:104320002160FC0120830EC089819A8180329140F6
:1043300049F483E790E023E730E0F9012081216030
:10434000FC01208300000F900F90DF91CF91089522
:10435000CF93DF9300D0CDB7DEB79A83898389816D
:104360009A818038910551F48FE690E02FE630E095
:10437000F90120812260FC0120832CC089819A816F
:104380008039910551F481E790E021E730E0F901AF
:1043900020812260FC0120831DC089819A81803A9E
:1043A000910551F482E790E022E730E0F9012081A5
:1043B0002260FC0120830EC089819A818032914065
:1043C00049F483E790E023E730E0F901208122609F
:1043D000FC01208300000F900F90DF91CF91089592
:1043E000CF93DF9300D0CDB7DEB79A8389838981DD
:1043F0009A818038910551F48FE690E02FE630E005
:10440000F90120812D7FFC0120832CC089819A81B4
:104410008039910551F481E790E021E730E0F9011E
:1044200020812D7FFC0120831DC089819A81803AE3
:10443000910551F482E790E022E730E0F901208114
:104440002D7FFC0120830EC089819A8180329140AA
:1044500049F483E790E023E730E0F90120812D7FE4
:10446000FC01208300000F900F90DF91CF91089501
:10447000CF93DF93CDB7DEB727970FB6F894DEBFA3
:104480000FBECDBF9C838B836D835F834E838B81F7
:104490009C819A8389838D81882F90E00196298160
:1044A0003A81820F931F2D81222F30E02F5F3F4FE3
:1044B00049815A81240F351FF90140812E813F81A6
:1044C000232F3327242BFC0120838D81882F90E01C
:1044D00029813A81820F931F2D81222F30E049815B
:1044E0005A81240F351FF90130812E81232BFC01C5
:1044F0002083000027960FB6F894DEBF0FBECDBF15
:10450000DF91CF910895CF93DF9300D0CDB7DEB781
:104510009A83898389819A818038910551F486E351
:1045200090E026E330E0F90120812160FC01208346
:104530002CC089819A818039910551F488E390E0FB
:1045400028E330E0F90120812160FC0120831DC0B7
:1045500089819A81803A910551F489E390E029E3B9
:1045600030E0F90120812160FC0120830EC08981A7
:104570009A818032914049F48AE390E02AE330E066
:10458000F90120812160FC01208300000F900F9031
:10459000DF91CF910895CF93DF9300D0CDB7DEB7F1
:1045A0009A83898389819A818038910551F486E3C1
:1045B00090E026E330E0F90120812260FC012083B5
:1045C0002CC089819A818039910551F488E390E06B
:1045D00028E330E0F90120812260FC0120831DC026
:1045E00089819A81803A910551F489E390E029E329
:1045F00030E0F90120812260FC0120830EC0898116
:104600009A818032914049F48AE390E02AE330E0D5
:10461000F90120812260FC01208300000F900F909F
:10462000DF91CF910895CF93DF9300D0CDB7DEB760
:104630009A83898389819A818038910531F484E84D
:1046400090E0FC018081918123C089819A81803929
:10465000910531F484E990E0FC018081918118C0DA
:1046600089819A81803A910531F484EA90E0FC01D5
:10467000808191810DC089819A818032914031F48D
:1046800084E291E0FC018081918102C080E090E0B1
:104690000F900F90DF91CF910895CF93DF9300D0CB
:1046A00000D01F92CDB7DEB79C838B836D838B8147
:1046B0009C819A8389838D81882349F489819A8199
:1046C000FC01208189819A81FC0120830FC08D81AA
:1046D000843061F489819A81019629813A812F5F22
:1046E0003F4FF90120812860FC01208300000F90DA
:1046F0000F900F900F900F90DF91CF910895CF936F
:10470000DF93CDB7DEB780E890E00E941323DF91FE
:10471000CF910895CF93DF93CDB7DEB780E890E0D7
:104720000E94F02180E890E00E94CB220000DF91FF
:10473000CF910895CF93DF93CDB7DEB780E890E0B7
:104740000E94CB2280E890E00E94A8210000DF9127
:10475000CF910895CF93DF93CDB7DEB780E890E097
:104760000E94602180E890E00E9483220000DF9197
:10477000CF910895CF93DF93CDB7DEB780E890E077
:104780000E94372B0000DF91CF910895CF93DF93E4
:1047900000D0CDB7DEB79A83898389819A81AC0135
:1047A00068E080E890E00E94382200000F900F90AF
:1047B000DF91CF910895CF93DF93CDB7DEB70E94FD
:1047C0001E20DF91CF910895CF93DF931F92CDB735
:1047D000DEB7898389810E942E2000000F90DF912F
:1047E000CF910895CF93DF931F92CDB7DEB780E8C6
:1047F00090E00E941E2B6BE874E280E890E00E943B
:10480000502B60E080E890E00E944D2380E890E02B
:104810000E94602180E890E00E942D2480E890E0D2
:104820000E94F02161E080E890E00E94112180E880
:1048300090E00E945820DC01CB0120E432E44FE0FC
:1048400050E0BC01CD010E94A043DA01C901898377
:1048500089810F90DF91CF910895CF93DF9300D09E
:10486000CDB7DEB79A83898389819A818038910593
:1048700079F089819A818039910551F089819A81F5
:10488000803A910529F089819A818032914039F4EA
:1048900065E974E280E890E00E94912B36C089813E
:1048A0009A818138910579F089819A8181399105C0
:1048B00051F089819A81813A910529F089819A8103
:1048C0008132914039F465E974E280E890E00E9419
:1048D000D22B1BC089819A818238910579F0898118
:1048E0009A818239910551F089819A81823A9105A4
:1048F00029F089819A818232914039F465E974E224
:1049000080E890E00E94132C00C000000F900F90F0
:10491000DF91CF910895CF93DF93CDB7DEB70E949B
:104920009A3F0000DF91CF910895CF93DF93CDB7E9
:10493000DEB70E94D23F0000DF91CF910895CF9360
:10494000DF931F92CDB7DEB78FE590E0FC01808149
:104950008983F89489810F90DF91CF910895CF9347
:10496000DF931F92CDB7DEB789838FE590E0298171
:10497000FC01208300000F90DF91CF910895EF920A
:10498000FF920F931F93CF93DF93CDB7DEB72C9792
:104990000FB6F894DEBF0FBECDBF6B837C838D83D3
:1049A0009E832F83388749875A871C870B878F817F
:1049B0009885A985BA8580936B0F90936C0FA0930F
:1049C0006D0FB0936E0F8B859C859A8389838B8145
:1049D0009C81AD81BE8188279F5FAF4FBF4F809381
:1049E0006F0F9093700FA093710FB093720F8B8124
:1049F0009C81AD81BE81882703E71FE020E031E084
:104A000040E050E0BC01CD010E94B22523E73FE029
:104A100040E051E060E070E0CB010E94E947209166
:104A20006B0F30916C0F40916D0F50916E0F8B8119
:104A30009C81AD81BE81280F391F4A1F5B1F809169
:104A40006F0F9091700FA091710FB091720F82173C
:104A50009307A407B507A0F480916F0F9091700F92
:104A6000A091710FB091720F9C018B819C81790193
:104A7000E81AF90AC70190937410809373100CC060
:104A800080916B0F90916C0FA0916D0FB0916E0F94
:104A9000909374108093731020916B0F30916C0F72
:104AA00040916D0F50916E0F809173109091741022
:104AB000CC01A0E0B0E079018A01E81AF90A0A0BFA
:104AC0001B0BD801C70180936B0F90936C0FA093C1
:104AD0006D0FB0936E0F4091731050917410298137
:104AE0003A818B819C81AD81BE81BC01CD010E9448
:104AF000E9478B819C81AD81BE81BC01CD010E94C3
:104B0000F64880916F0F9091700FA091710FB09146
:104B1000720F8B839C83AD83BE83809173109091C1
:104B2000741029813A81820F931F9A83898380911F
:104B30006B0F90916C0FA0916D0FB0916E0F892B40
:104B40008A2B8B2B09F043CF00002C960FB6F894DC
:104B5000DEBF0FBECDBFDF91CF911F910F91FF90B0
:104B6000EF9008950F931F93CF93DF93CDB7DEB7E8
:104B700062970FB6F894DEBF0FBECDBF69877A8704
:104B80008B879C872D873E874F87588B1A8B098B85
:104B90000E949F248B831A82198229C029893A890D
:104BA00089819A81B901680F791F89859A85AB85BA
:104BB000BC859C01AD012F5F3F4F4F4F5F4F298751
:104BC0003A874B875C878C839D83AE83BF838C81C0
:104BD0009D81AE81BF81ABBFFC01879188878885AD
:104BE000FB01808389819A8101969A8389838981D7
:104BF0009A819C0140E050E08D859E85AF85B88903
:104C0000281739074A075B0748F28B810E94AF24B7
:104C1000000062960FB6F894DEBF0FBECDBFDF91E5
:104C2000CF911F910F910895CF93DF931F92CDB72E
:104C3000DEB78FE590E0FC0180818983F89489815B
:104C40000F90DF91CF910895CF93DF931F92CDB74F
:104C5000DEB789838FE590E02981FC012083000085
:104C60000F90DF91CF910895CF93DF9300D0CDB710
:104C7000DEB79A83898389819A81892B09F47BC065
:104C800089819A818837910549F461E080E00E942A
:104C9000683960E180E00E9468396DC089819A813D
:104CA000803C910529F462E080E00E94683963C08D
:104CB00089819A818C34910529F464E080E00E9416
:104CC000683959C089819A818038910529F468E052
:104CD00080E00E9468394FC089819A8184349105AF
:104CE00029F460E280E00E94683945C089819A8198
:104CF000803B910529F460E480E00E9468393BC064
:104D000089819A81883B910529F460E880E00E94BE
:104D1000683931C089819A81883C910529F461E024
:104D200081E00E94683927C089819A818039910584
:104D300029F468E081E00E9468391DC089819A8168
:104D4000803A910529F460E181E00E94683913C03E
:104D500089819A818032914029F460E281E00E9449
:104D6000683909C089819A818334914021F460E4D3
:104D700081E00E94683900000F900F90DF91CF9181
:104D80000895CF93DF9300D0CDB7DEB79A838983A0
:104D900089819A81892B09F47BC089819A8188371E
:104DA000910549F461E080E00E949D3960E180E076
:104DB0000E949D396DC089819A81803C910529F4BA
:104DC00062E080E00E949D3963C089819A818C34C1
:104DD000910529F464E080E00E949D3959C08981E1
:104DE0009A818038910529F468E080E00E949D391D
:104DF0004FC089819A818434910529F460E280E072
:104E00000E949D3945C089819A81803B910529F492
:104E100060E480E00E949D393BC089819A81883B93
:104E2000910529F460E880E00E949D3931C08981B4
:104E30009A81883C910529F461E081E00E949D39C6
:104E400027C089819A818039910529F468E081E041
:104E50000E949D391DC089819A81803A910529F46B
:104E600060E181E00E949D3913C089819A8180327E
:104E7000914029F460E281E00E949D3909C0898156
:104E80009A818334914021F460E481E00E949D394D
:104E900000000F900F90DF91CF9108951F920F9215
:104EA00000905F000F92112400905B000F922F93EF
:104EB0003F934F935F936F937F938F939F93AF93A2
:104EC000BF93EF93FF93CF93DF93CDB7DEB780917E
:104ED000751090917610892B31F08091751090911A
:104EE0007610FC0109950000DF91CF91FF91EF91C1
:104EF000BF91AF919F918F917F916F915F914F91F2
:104F00003F912F910F9000925B000F9000925F00F5
:104F10000F901F9018951F920F9200905F000F92B4
:104F2000112400905B000F922F933F934F935F9358
:104F30006F937F938F939F93AF93BF93EF93FF9361
:104F4000CF93DF93CDB7DEB7809177109091781033
:104F5000892B31F08091771090917810FC010995A0
:104F60000000DF91CF91FF91EF91BF91AF919F91A1
:104F70008F917F916F915F914F913F912F910F9002
:104F800000925B000F9000925F000F901F901895A9
:104F90001F920F9200905F000F92112400905B000F
:104FA0000F922F933F934F935F936F937F938F93C2
:104FB0009F93AF93BF93EF93FF93CF93DF93CDB7BF
:104FC000DEB78091791090917A10892B31F0809121
:104FD000791090917A10FC0109950000DF91CF9132
:104FE000FF91EF91BF91AF919F918F917F916F91C1
:104FF0005F914F913F912F910F9000925B000F9026
:1050000000925F000F901F9018951F920F920090D2
:105010005F000F92112400905B000F922F933F933B
:105020004F935F936F937F938F939F93AF93BF93B0
:10503000EF93FF93CF93DF93CDB7DEB780917B10D3
:1050400090917C10892B31F080917B1090917C1095
:10505000FC0109950000DF91CF91FF91EF91BF9185
:10506000AF919F918F917F916F915F914F913F9100
:105070002F910F9000925B000F9000925F000F90B5
:105080001F9018951F920F9200905F000F921124AD
:1050900000905B000F922F933F934F935F936F931A
:1050A0007F938F939F93AF93BF93EF93FF93CF9390
:1050B000DF93CDB7DEB780917D1090917E10892B64
:1050C00031F080917D1090917E10FC0109950000D7
:1050D000DF91CF91FF91EF91BF91AF919F918F9110
:1050E0007F916F915F914F913F912F910F9000921F
:1050F0005B000F9000925F000F901F9018951F9219
:105100000F9200905F000F92112400905B000F92AD
:105110002F933F934F935F936F937F938F939F93BF
:10512000AF93BF93EF93FF93CF93DF93CDB7DEB7EA
:1051300080917F1090918010892B31F080917F10A9
:1051400090918010FC0109950000DF91CF91FF91B3
:10515000EF91BF91AF919F918F917F916F915F91EF
:105160004F913F912F910F9000925B000F90009212
:105170005F000F901F9018951F920F9200905F0094
:105180000F92112400905B000F922F933F934F9347
:105190005F936F937F938F939F93AF93BF93EF939F
:1051A000FF93CF93DF93CDB7DEB7809181109091BD
:1051B0008210892B31F08091811090918210FC0136
:1051C00009950000DF91CF91FF91EF91BF91AF91D1
:1051D0009F918F917F916F915F914F913F912F910F
:1051E0000F9000925B000F9000925F000F901F9055
:1051F00018951F920F9200905F000F92112400905B
:105200005B000F922F933F934F935F936F937F9326
:105210008F939F93AF93BF93EF93FF93CF93DF93BE
:10522000CDB7DEB78091831090918410892B31F037
:105230008091831090918410FC0109950000DF910A
:10524000CF91FF91EF91BF91AF919F918F917F91FE
:105250006F915F914F913F912F910F9000925B0062
:105260000F9000925F000F901F9018951F920F9261
:1052700000905F000F92112400905B000F922F931B
:105280003F934F935F936F937F938F939F93AF93CE
:10529000BF93EF93FF93CF93DF93CDB7DEB78091AA
:1052A000851090918610892B31F080918510909116
:1052B0008610FC0109950000DF91CF91FF91EF91DD
:1052C000BF91AF919F918F917F916F915F914F911E
:1052D0003F912F910F9000925B000F9000925F0022
:1052E0000F901F9018951F920F9200905F000F92E1
:1052F000112400905B000F922F933F934F935F9385
:105300006F937F938F939F93AF93BF93EF93FF938D
:10531000CF93DF93CDB7DEB780918710909188103F
:10532000892B31F08091871090918810FC010995AC
:105330000000DF91CF91FF91EF91BF91AF919F91CD
:105340008F917F916F915F914F913F912F910F902E
:1053500000925B000F9000925F000F901F901895D5
:105360001F920F9200905F000F92112400905B003B
:105370000F922F933F934F935F936F937F938F93EE
:105380009F93AF93BF93EF93FF93CF93DF93CDB7EB
:10539000DEB78091891090918A10892B31F080912D
:1053A000891090918A10FC0109950000DF91CF913E
:1053B000FF91EF91BF91AF919F918F917F916F91ED
:1053C0005F914F913F912F910F9000925B000F9052
:1053D00000925F000F901F9018951F920F920090FF
:1053E0005F000F92112400905B000F922F933F9368
:1053F0004F935F936F937F938F939F93AF93BF93DD
:10540000EF93FF93CF93DF93CDB7DEB780918B10EF
:1054100090918C10892B31F080918B1090918C1091
:10542000FC0109950000DF91CF91FF91EF91BF91B1
:10543000AF919F918F917F916F915F914F913F912C
:105440002F910F9000925B000F9000925F000F90E1
:105450001F9018951F920F9200905F000F921124D9
:1054600000905B000F922F933F934F935F936F9346
:105470007F938F939F93AF93BF93EF93FF93CF93BC
:10548000DF93CDB7DEB780918D1090918E10892B70
:1054900031F080918D1090918E10FC0109950000E3
:1054A000DF91CF91FF91EF91BF91AF919F918F913C
:1054B0007F916F915F914F913F912F910F9000924B
:1054C0005B000F9000925F000F901F9018951F9245
:1054D0000F9200905F000F92112400905B000F92DA
:1054E0002F933F934F935F936F937F938F939F93EC
:1054F000AF93BF93EF93FF93CF93DF93CDB7DEB717
:1055000080918F1090919010892B31F080918F10A5
:1055100090919010FC0109950000DF91CF91FF91CF
:10552000EF91BF91AF919F918F917F916F915F911B
:105530004F913F912F910F9000925B000F9000923E
:105540005F000F901F9018951F920F9200905F00C0
:105550000F92112400905B000F922F933F934F9373
:105560005F936F937F938F939F93AF93BF93EF93CB
:10557000FF93CF93DF93CDB7DEB7809191109091D9
:105580009210892B31F08091911090919210FC0132
:1055900009950000DF91CF91FF91EF91BF91AF91FD
:1055A0009F918F917F916F915F914F913F912F913B
:1055B0000F9000925B000F9000925F000F901F9081
:1055C00018951F920F9200905F000F921124009087
:1055D0005B000F922F933F934F935F936F937F9353
:1055E0008F939F93AF93BF93EF93FF93CF93DF93EB
:1055F000CDB7DEB78091931090919410892B31F044
:105600008091931090919410FC0109950000DF9116
:10561000CF91FF91EF91BF91AF919F918F917F912A
:105620006F915F914F913F912F910F9000925B008E
:105630000F9000925F000F901F901895CF93DF930B
:1056400000D01F92CDB7DEB79B838A830E941426B9
:1056500089838A819B810E94342689810E94242625
:1056600000000F900F900F90DF91CF910895CF938E
:10567000DF9300D01F92CDB7DEB79B838A830E9451
:10568000142689838A819B810E94C12689810E9478
:10569000242600000F900F900F90DF91CF91089576
:1056A000CF93DF9300D000D0CDB7DEB79A83898344
:1056B0007C836B8389819A818038910539F48B8151
:1056C0009C81909376108093751023C089819A8174
:1056D0008039910539F48B819C8190937E10809361
:1056E0007D1017C089819A81803A910539F48B81A8
:1056F0009C8190938610809385100BC089819A813C
:105700008032914031F48B819C8190938E108093F4
:105710008D1000000F900F900F900F90DF91CF91A0
:105720000895CF93DF9300D000D0CDB7DEB79A8332
:1057300089837C836B8389819A818038910539F4D0
:105740008B819C81909378108093771023C08981FE
:105750009A818039910539F48B819C8190938010D6
:1057600080937F1017C089819A81803A910539F41E
:105770008B819C8190938810809387100BC08981C6
:105780009A818032914031F48B819C81909390106A
:1057900080938F1000000F900F900F900F90DF916B
:1057A000CF910895CF93DF9300D000D0CDB7DEB76F
:1057B0009A8389837C836B8389819A818038910560
:1057C00039F48B819C8190937A108093791023C057
:1057D00089819A818039910539F48B819C819093DC
:1057E00082108093811017C089819A81803A910537
:1057F00039F48B819C8190938A10809389100BC01F
:1058000089819A818032914031F48B819C8190937F
:1058100092108093911000000F900F900F900F90B6
:10582000DF91CF910895CF93DF9300D000D0CDB713
:10583000DEB79A8389837C836B8389819A818038E0
:10584000910539F48B819C8190937C1080937B101F
:1058500023C089819A818039910539F48B819C819B
:10586000909384108093831017C089819A81803A25
:10587000910539F48B819C8190938C1080938B10CF
:105880000BC089819A818032914031F48B819C8157
:10589000909394108093931000000F900F900F90AE
:1058A0000F90DF91CF910895CF93DF93CDB7DEB7FF
:1058B0000000DF91CF910895CF93DF93CDB7DEB78E
:1058C00065970FB6F894DEBF0FBECDBF9B8B8A8B5A
:1058D0006C8B4D8B8A899B89892B21F110929510B5
:1058E00082E0809314028A899B8920E1FC01A7E968
:1058F000B0E101900D922A95E1F7198210C08FE373
:1059000091E02981222F30E04A895B89240F351FDD
:10591000F9012081FC01208389818F5F898389813E
:10592000803168F38D89882F90E0009719F00197F6
:10593000D1F059C080911402813009F056C019820B
:105940000EC08FE391E02981222F30E029563F4E8F
:10595000F9012081FC01208389818F5F89838981FE
:10596000803178F342C0809114028130E1F190914E
:10597000951081E08927882311F1109296108CE30D
:1059800091E020919610FC012083CE0102960E94A6
:10599000682D19820EC08981882F90E02FE331E0B5
:1059A000F901208189559F4EFC01208389818F5FF9
:1059B00089838981803178F381E080939510198201
:1059C0000EC08FE391E02981222F30E029553F4E10
:1059D000F9012081FC01208389818F5F898389817E
:1059E000803178F303C080E02DC000008D89809362
:1059F00014028C89882F90E0029718F58C89882FE3
:105A000090E0880F991F82959295907F9827807FCC
:105A10009827282F20728D89882F90E0880F991F52
:105A2000880F991F880F991F8870822B809396107A
:105A300000008CE391E020919610FC01208381E02E
:105A400001C080E065960FB6F894DEBF0FBECDBFF3
:105A5000DF91CF910895CF93DF9300D01F92CDB700
:105A6000DEB780911402882329F487E990E19B83B3
:105A70008A8304C087EA90E19B838A83198210C0DD
:105A80002FE331E08A819B81AC014F5F5F4F5B83E5
:105A90004A83FC018081F901808389818F5F89833A
:105AA0008981803168F38CE391E020919610FC01AC
:105AB000208300000F900F900F90DF91CF910895F9
:105AC000CF93DF93CDB7DEB70000DF91CF9108957C
:105AD000CF93DF9300D01F92CDB7DEB79B838A832D
