:100000000C947A010C9499010C9499010C94990127
:100010000C9499010C9499010C9499010C949901F8
:100020000C9499010C9499010C9499010C949901E8
:100030000C94D6370C9499010C9499010C94990165
:100040000C9499010C943E270C947B270C94B827B0
:100050000C9401270C9499010C9499010C9499012A
:100060000C9499010C94D23B0C9499010C94990135
:100070000C9499010C9499010C9499010C94990198
:100080000C9432280C946F280C94AC280C94F5270F
:100090000C9499010C9499010C9499010C94990178
:1000A0000C9499010C9499010C9426290C946329C1
:1000B0000C94A0290C94E9280C9499010C941A2A08
:1000C0000C94572A0C94942A0C94DD290C949901D1
:1000D0000C9499010C9499010C9499010C94990138
:1000E0000C9499010C9499010C9499010C94990128
:1000F0000C9499010C9499010C9499010C94990118
:100100000C9499010C94E72E0C94242F0C94612FDD
:100110000C94AA2E0C949E2F0C9499010C94990186
:10012000D913FC13DE13FC13E313E813ED13F213DE
:10013000F7136E616E00696E660000407A10F35A24
:1001400000A0724E18090010A5D4E80000E8764817
:10015000170000E40B54020000CA9A3B000000E1C3
:10016000F505000080969800000040420F00000056
:10017000A08601000000102700000000E803000036
:1001800000006400000000000A0000000000010000
:10019000000000002C76D888DC674F0823DFC1DF21
:1001A000AE59E1B1B796E5E3E453C63AE651997624
:1001B00096E8E6C28426EB898C9B62ED407C6FFC5E
:1001C000EFBC9C9F40F2BAA56FA5F490055A2AF7A0
:1001D0005C936B6CF9676DC11BFCE0E40D47FEF5A9
:1001E00020E6B500D0ED902E030094357705008011
:1001F000841E080000204E0A000000C80C33333370
:10020000330F986E12831141EF8D2114893BE6550F
:1002100016CFFEE6DB18D1844B381BF77C1D901DF2
:10022000A4BBE424203284725E228100C9F124EC54
:10023000A1E53D27330019000C0006000300020071
:100240000100FF00A001CF006700330019000C007F
:10025000070008004003A001CF0067003300190029
:1002600010001000330019000C000600030002000B
:100270000100FF00A001CF006700330019000C004F
:10028000070008004003A001CF00670033001900F9
:1002900010001000330019000C00060003000200DB
:1002A0000100FF00A001CF006700330019000C001F
:1002B000070008004003A001CF00670033001900C9
:1002C00010001000330019000C00060003000200AB
:1002D0000100FF00A001CF006700330019000C00EF
:1002E000070008004003A001CF0067003300190099
:1002F0001000100011241FBECFEFD1E4DEBFCDBF30
:1003000012E0A0E0B2E0E6EFF1E900E00BBF02C0CE
:1003100007900D92AA3EB107D9F721E1AAEEB2E00B
:1003200001C01D92A63EB207E1F70E941D040C9485
:100330004D470C940000CF93DF93CDB7DEB780E03C
:1003400094E2A4EFB0E0BC01CD01DF91CF9108951C
:10035000CF93DF93CDB7DEB70E949B01DC01CB01C9
:10036000BC01CD01DF91CF910895CF93DF9300D0F1
:10037000CDB7DEB79A83898389819A81FC01808118
:10038000282F226089819A81FC01208300000F9030
:100390000F90DF91CF910895CF93DF93CDB7DEB764
:1003A0002B970FB6F894DEBF0FBECDBF9987888715
:1003B0007B876A878A859B85FC0184818D838A85FA
:1003C0009B85FC0185818E838A859B85FC018681C6
:1003D0008F838A859B85FC0180819181A281B38175
:1003E00089839A83AB83BC83888599859E012F5F1F
:1003F0003F4FB9010E942E33882311F081E001C0E4
:1004000080E02B960FB6F894DEBF0FBECDBFDF9114
:10041000CF910895CF93DF9300D01F92CDB7DEB771
:100420009A8389836B8389819A816B810E943C3591
:100430000F900F900F90DF91CF910895CF93DF939E
:1004400000D000D0CDB7DEB79A8389837C836B83DD
:1004500089819A810E945B35282F8B819C81FC01C8
:10046000208300000F900F900F900F90DF91CF919D
:100470000895CF93DF9300D000D0CDB7DEB79A8335
:1004800089837C836B8389819A819093DA1180932D
:10049000D9118AE092E09093D8118093D7118EE120
:1004A00092E09093D6118093D5112B813C81898164
:1004B0009A81B9010E94CC016EE07AE38DE29AE361
:1004C0000E94E54400000F900F900F900F90DF9175
:1004D000CF910895CF93DF93CDB7DEB78CED90E049
:1004E0002CED30E0F90120812064FC0120838CEDAB
:1004F00090E02CED30E0F9012081277FFC01208382
:100500000000DF91CF910895CF93DF9300D0CDB756
:10051000DEB79A8389838CE192E0892F8F938CE1F7
:1005200092E08F930E946C450F900F901092F90209
:100530008AEF92E00E94881D00000F900F90DF91DB
:10054000CF910895CF93DF93CDB7DEB786E292E0E7
:10055000892F8F9386E292E08F930E946C450F90D3
:100560000F900000DF91CF910895CF93DF9300D0DB
:1005700000D0CDB7DEB79C838B838B819C81FC013F
:10058000808591859A83898389819A81FC018681FE
:10059000882F90E0292F2F938F9389E392E0892F62
:1005A0008F9389E392E08F930E946C450F900F9098
:1005B0000F900F9081E00F900F900F900F90DF91B0
:1005C000CF910895CF93DF9300D000D000D0CDB766
:1005D000DEB79E838D838D819E81FC018085918510
:1005E0009C838B831A82198228C08D819E81FC0195
:1005F0002085318589819A81820F931FFC0180813A
:10060000882F90E0292F2F938F938A818F93898150
:100610008F938DE492E0892F8F938DE492E08F93F6
:100620000E946C450F900F900F900F900F900F90BD
:1006300089819A8101969A8389838D819E81FC01AB
:100640008285282F30E089819A81821793076CF286
:100650008B819C81FC018081882F90E0292F2F9332
:100660008F938EE592E0892F8F938EE592E08F93A2
:100670000E946C450F900F900F900F908B819C8182
:10068000FC018181882F90E0292F2F938F938CE696
:1006900092E0892F8F938CE692E08F930E946C45B5
:1006A0000F900F900F900F908B819C81FC018281A5
:1006B0008F77882F90E0292F2F938F938FE792E0E9
:1006C000892F8F938FE792E08F930E946C450F9054
:1006D0000F900F900F908B819C81FC01828187FB92
:1006E000882780F9882F90E0292F2F938F9383E913
:1006F00092E0892F8F9383E992E08F930E946C455B
:100700000F900F900F900F9081E026960FB6F894FF
:10071000DEBF0FBECDBFDF91CF910895CF93DF93A2
:10072000CDB7DEB789EA92E0892F8F9389EA92E00C
:100730008F930E946C450F900F9080911B039091B6
:100740001C039C012F5F3F4F30931C0320931B031E
:10075000059714F40E946A020000DF91CF9108957A
:10076000CF93DF93CDB7DEB78091F902882F90E069
:10077000892B09F05DC080E090E00E94A1048FE029
:100780000E941D1A81E00E940D1A81E00E949719B3
:1007900080E00E945C198EE893E00E94B2310E94D2
:1007A0006A0281E00E942B3021E04CE251E060E0DF
:1007B00070E081E00E94DF3065EB72E080E00E9433
:1007C000CF0462EE72E083E00E94CF048DE080935C
:1007D0000A0284E280930B0280910C0280788F6081
:1007E00080930C0280910C02806880930C0210921E
:1007F0000D0310920C0383E080930E0383E080933B
:100800000F0380E090E890931103809310038AE037
:1008100092E0909315038093140383E08093160372
:1008200087E093E00E94860581E08093F90201C091
:1008300000000000DF91CF9108950F931F93CF9395
:10084000DF93CDB7DEB727970FB6F894DEBF0FBEA4
:10085000CDBF0E94F5380E942A3C0E94181D0E94BC
:10086000582E789427E0EDEAF2E0CE010196DC0103
:1008700001900D922A95E1F7CE010196BC0180EC22
:1008800090E00E94390280EC90E00E94B5010E9445
:10089000A801DC01CB018C019D0140E052EC61E03C
:1008A00070E080EC90E00E94D73588EE93E0A0E005
:1008B000B0E08093000390930103A0930203B093F0
:1008C00003031092040384E892E09093060380935C
:1008D00005030E94281D0E94B003FBCFCF93DF9336
:1008E0001F92CDB7DEB71092A9111092AA111092E3
:1008F000A6111092A5111092CC111092CB11198251
:100900000EC08981882F90E00396880F991F8B5520
:100910009E4EFC011182108289818F5F89838981BB
:10092000803178F30E940D140E940D0C0E94AB09D7
:100930000E947A050E94470B00000F90DF91CF9133
:100940000895CF93DF9300D0CDB7DEB79A83898324
:1009500089819A819093A6118093A51189819A81AA
:100960000E94571A00000F900F90DF91CF910895C9
:10097000CF93DF9300D0CDB7DEB79A838983898187
:100980009A819093A8118093A71189819A810E94DE
:10099000331A00000F900F90DF91CF910895CF93FD
:1009A000DF9300D01F92CDB7DEB789837B836A8344
:1009B0008981882F90E00396880F991F8B559E4E52
:1009C0002A813B81FC013183208300000F900F902E
:1009D0000F90DF91CF910895CF93DF93CDB7DEB71E
:1009E0008091CB119091CC1121E0892B09F420E06A
:1009F000822FDF91CF910895CF93DF93CDB7DEB7EC
:100A00008091CB119091CC1101969093CC11809351
:100A1000CB110000DF91CF910895CF93DF93CDB735
:100A2000DEB78091CB119091CC1101979093CC11AE
:100A30008093CB110000DF91CF910895CF93DF9386
:100A4000CDB7DEB70E94A01A0000DF91CF910895C4
:100A5000CF93DF93CDB7DEB70E94B91A0000DF91C4
:100A6000CF910895CF93DF93CDB7DEB72C970FB614
:100A7000F894DEBF0FBECDBF8C8789E0E4EBF2E0D7
:100A8000DE01139601900D928A95E1F789E1898341
:100A90001A8215C09C858981981758F48A81882FFD
:100AA00090E09E012D5F3F4F820F931FFC018081DC
:100AB0000AC08981875E89838A818F5F8A838A8160
:100AC000893040F38FEF2C960FB6F894DEBF0FBE3F
:100AD000CDBFDF91CF910895CF93DF93CDB7DEB730
:100AE0000E94B9130E94CC170E9475090000DF9183
:100AF000CF910895CF93DF93CDB7DEB71092260341
:100B0000109225030000DF91CF910895CF93DF93DA
:100B100000D0CDB7DEB79A83898389819A81FC01A1
:100B2000148289819A81FC01128A89819A81FC014F
:100B3000138212828091CB119091CC1101969093E7
:100B4000CC118093CB118091250390912603892BA2
:100B500061F489819A81FC011182108289819A81D4
:100B600090932603809325030FC020912503309195
:100B7000260389819A81FC013183208389819A81AE
:100B8000909326038093250300000F900F90DF9130
:100B9000CF910895CF93DF93CDB7DEB728970FB6E7
:100BA000F894DEBF0FBECDBF98878F838F81988565
:100BB000FC01818592858034910598F40E94CA09D0
:100BC0009A83898389819A81892B61F58F819885A0
:100BD00022E0FC0124838F81988522E0FC01228B96
:100BE000CEC28F819885FC0181859285807499277A
:100BF000892B21F081E00E943C0A03C080E00E9422
:100C00003C0A9A83898389819A81892B59F48F813F
:100C1000988522E0FC0124838F81988522E0FC01E5
:100C2000228BADC28F819885FC018185928580746D
:100C30009927892B09F499C089819A818A579F4FF6
:100C4000FC0110828F819885FC01818592858078D6
:100C50009927892B41F089819A81FC012581287F80
:100C6000FC01258334C08F819885FC0181859285A4
:100C700088279170892B49F089819A81FC0125810F
:100C8000287F2460FC01258322C08F819885FC0188
:100C90008185928588279270892B49F089819A8174
:100CA000FC012581287F2660FC01258310C08F81EF
:100CB0009885FC018185928588279470892B39F06D
:100CC00089819A81FC0125812760FC012583898126
:100CD0009A81FC012581277FFC01258389819A81E6
:100CE000FC0125812F7EFC01258389819A81FC01ED
:100CF00025812F712064FC0125838F819885FC015B
:100D00008185928588279870892B31F089819A8115
:100D100021E0FC01278313C08F819885FC01818528
:100D2000928588279071892B31F089819A8122E000
:100D3000FC01278304C089819A81FC01178280917C
:100D4000A4112EE3280F89819A81FC0120878EEF60
:100D50009AEC9C838B8389819A812EEFFC012683F8
:100D600089819A810E948C14F5C18F819885FC013C
:100D700081859285992394F08F819885FC018185E6
:100D8000928588279072892B49F48F819885FC0180
:100D90008185928588279074892B99F18F81988518
:100DA000FC012185328589819A81B9010E94DF1475
:100DB00089819A818A579F4FFC0110828F81988583
:100DC000FC018785482F50E08F819885FC0125859F
:100DD000368589819A818F579F4FFC01808191814F
:100DE000B9010E94CA4489819A81FC0121818F81C5
:100DF0009885FC018785280F89819A81FC012183D0
:100E0000A9C18F819885FC0181859285807299277F
:100E1000892B09F462C089819A818A579F4FFC010E
:100E2000108289819A81FC012185207F2860FC0144
:100E3000218789819A81FC0121852F702066FC0120
:100E4000218789819A81FC012285207F2160FC0114
:100E5000228789819A81FC0122852061FC012287F9
:100E600089819A81FC0122852064FC012287898185
:100E70009A81FC0122852F77FC01228789819A8142
:100E8000FC01138689819A81FC0114868F819885E3
:100E9000FC018785482F50E08F819885FC012585CE
:100EA000368589819A818F579F4FFC01808191817E
:100EB000B9010E94CA4489819A81FC0121818F81F4
:100EC0009885FC018785280F89819A81FC012183FF
:100ED00089819A810E9441143DC18F819885FC01CE
:100EE00081859285892B09F435C18F819885FC0114
:100EF000818592858470992721E0892B09F420E06F
:100F000089819A818A579F4FFC0120838F81988520
:100F1000FC01818592858170992721E0892B09F454
:100F200020E089819A812170FC0133853E7F232B4B
:100F3000FC0123878F819885FC01818592858870CB
:100F4000992721E0892B09F420E089819A81217079
:100F5000220F220FFC0133853B7F232BFC012387CB
:100F60008F819885FC01818592858072992721E087
:100F7000892B09F420E089819A8121702295207FB4
:100F8000FC0133853F7E232BFC0123878F819885CD
:100F9000FC01818592858071992721E0892B09F4D4
:100FA00020E089819A812170220F220F220FFC01FB
:100FB0003385377F232BFC01238789819A81FC01AC
:100FC00083858870882309F462C089819A818F574C
:100FD0009F4FFC01808191819E838D838F819885B5
:100FE000FC018385282F2F708D819E812F70FC013D
:100FF0003181307F232BFC0121838F819885FC0177
:101000008385282F2F708D819E812295207FFC0162
:1010100031813F70232BFC0121838F819885FC0156
:101020008485282F2F708D819E812F70FC01308147
:10103000307F232BFC0120838F819885FC018485E0
:10104000282F2F708D819E812295207FFC01308179
:101050003F70232BFC01208389819A818F579F4FFA
:10106000FC01808191819C012E5F3F4F89819A8193
:101070008F579F4FFC013183208389819A81FC0126
:10108000818122E0280F89819A81FC01218380914E
:10109000A9118F5F8093A9112091A91189819A814B
:1010A000FC0124872091A5113091A61189819A8194
:1010B000FC01368725878F819885FC012581368143
:1010C00089819A81FC01308B27878F819885FC016B
:1010D0008085282F2F7089819A812F70FC0131899A
:1010E000307F232BFC01218B8F819885FC01878128
:1010F000282F2F7089819A812295207FFC013189C8
:101100003F70232BFC01218B8F819885FC01878503
:10111000482F50E08F819885FC012585368589818F
:101120009A818F579F4FFC0180819181B9010E9464
:10113000CA4489819A81FC0121818F819885FC01B3
:101140008785280F89819A81FC01218389819A8171
:101150000E9453158F81988529813A81FC01338340
:1011600022838F81988521E0FC01248389819A81E3
:1011700089579F4F28EC38E0FC0131832083289663
:101180000FB6F894DEBF0FBECDBFDF91CF910895AB
:10119000CF93DF9300D000D0CDB7DEB79C838B8395
:1011A00080912503909126039A8389832BC089819E
:1011B0009A81FC01228133818B819C812817390718
:1011C000D1F48B819C818D579F4FFC0120818981B7
:1011D0009A81FC01228B8B819C818A579F4FFC0155
:1011E000208189819A81FC01238B89819A8122E067
:1011F000FC0124830BC089819A81FC01808191814B
:101200009A83898389819A81892B89F68B819C8134
:101210000E94D40A00000F900F900F900F90DF9162
:10122000CF910895CF93DF9300D000D0CDB7DEB734
:101230009C838B8320912503309126038B819C8195
:101240002817390761F48091250390912603FC014A
:1012500080819181909326038093250325C08091FE
:101260002503909126039A83898307C089819A81F7
:10127000FC01808191819A83898389819A81FC0113
:10128000208131818B819C812817390779F78981E9
:101290009A81FC0180819181FC01208131818981C9
:1012A0009A81FC01318320838091CB119091CC11E4
:1012B00001979093CC118093CB118B819C81FC0181
:1012C00080899189892B49F08B819C81FC0120893F
:1012D00031898B819C81F901099500000F900F9055
:1012E0000F900F90DF91CF910895CF93DF9300D0AF
:1012F000CDB7DEB780912503909126039A83898329
:1013000021C089819A81FC018481882F90E08130FD
:10131000910581F08230910541F0892B09F00BC0D5
:1013200089819A810E94CA0511C089819A810E948F
:1013300012090CC0000089819A81FC018081918191
:101340009A83898389819A81892BD9F60F900F908E
:10135000DF91CF910895CF93DF931F92CDB7DEB782
:10136000198210C08981282F30E049E8429FC001CE
:10137000439F900D1124855D9C4FFC011082898153
:101380008F5F89838981843168F300000F90DF913A
:10139000CF910895CF93DF931F92CDB7DEB7198217
:1013A00061C08981282F30E049E8429FC001439FF6
:1013B000900D1124855D9C4FFC018081882309F0EC
:1013C0004EC08981282F30E049E8429FC001439FE9
:1013D000900D1124855D9C4F49E850E060E070E07D
:1013E0000E94D3448981282F30E049E8429FC00100
:1013F000439F900D1124845D9C4FFC0110828981D4
:10140000482F50E08981282F30E069E8629FC001B1
:10141000639F900D112402969C01255D3C4F69E865
:10142000649FC001659F900D112484559C4FFC0161
:10143000318320838091CB119091CC1101969093B0
:10144000CC118093CB118981282F30E049E8429F4D
:10145000C001439F900D1124855D9C4F09C0898177
:101460008F5F89838981843108F49BCF80E090E08D
:101470000F90DF91CF910895CF93DF9300D0CDB738
:10148000DEB78A83198285C08981282F30E049E838
:10149000429FC001439F900D1124855D9C4FFC012C
:1014A0008081882309F072C08981282F30E049E8C3
:1014B000429FC001439F900D1124855D9C4F49E8D8
:1014C00050E060E070E00E94D3448A81882379F084
:1014D0008981282F30E049E8429FC001439F900D49
:1014E0001124845D9C4F27E0FC0120830EC089817C
:1014F000282F30E049E8429FC001439F900D1124FE
:10150000845D9C4F23E0FC0120838981482F50E0BB
:101510008981282F30E069E8629FC001639F900DA8
:10152000112402969C01255D3C4F8981682F70E053
:10153000E9E8E69FC001E79F900D1124845D9C4F70
:10154000FC018081882F90E0280F391F69E8649F93
:10155000C001659F900D112484559C4FFC0131837F
:1015600020838091CB119091CC1101969093CC1156
:101570008093CB118981282F30E049E8429FC00138
:10158000439F900D1124855D9C4F09C089818F5F19
:1015900089838981843108F477CF80E090E00F90CF
:1015A0000F90DF91CF910895CF93DF9300D0CDB707
:1015B000DEB79A83898389819A81FC0110828091A8
:1015C000CB119091CC1101979093CC118093CB11BA
:1015D00000000F900F90DF91CF910895CF93DF938C
:1015E00000D0CDB7DEB79A83898389819A81892B10
:1015F00029F48BE293E09A83898316C089819A81CA
:1016000087579F4F9A8389830FC089819A81FC01F4
:101610008081882319F089819A810DC089819A81FE
:1016200087579F4F9A83898389819A818F5D9D40D7
:1016300060F380E090E00F900F90DF91CF910895DC
:10164000CF93DF9300D0CDB7DEB79A8389838981AA
:101650009A818D579F4FFC0110828091A9118F5F55
:101660008093A9112091A91189819A81FC01248775
:101670002091A5113091A61189819A81FC013687AC
:10168000258700000F900F90DF91CF910895CF93A1
:10169000DF931F92CDB7DEB719820FC08981882FE3
:1016A00090E0880F991F8D51924F2FEF3FEFFC0173
:1016B0003183208389818F5F89838981833070F3AF
:1016C00000000F90DF91CF910895CF93DF9300D06A
:1016D000CDB7DEB79A83898389819A81BC018FEF68
:1016E0009FEF0E94B20B0F900F90DF91CF91089562
:1016F000CF93DF9300D0CDB7DEB79A8389838981FA
:101700009A816FEF7FEF0E94B20B0F900F90DF91E5
:10171000CF910895CF93DF9300D01F92CDB7DEB75E
:101720009B838A83198214C08981882F90E0880F57
:10173000991F8D51924FFC01208131818A819B81BB
:101740002817390711F481E007C089818F5F8983E9
:101750008981833048F380E00F900F900F90DF91E4
:10176000CF910895CF93DF9300D000D01F92CDB7D3
:10177000DEB79B838A837D836C83198220C0898135
:10178000882F90E0880F991F8D51924FFC01208186
:1017900031818A819B812817390771F48981882FCB
:1017A00090E0880F991F8D51924F2C813D81FC0153
:1017B0003183208381E007C089818F5F898389819C
:1017C0008330E8F280E00F900F900F900F900F9011
:1017D000DF91CF910895CF93DF9300D0CDB7DEB7DF
:1017E0009A83898389819A81FC01418189819A81C7
:1017F0008F579F4FFC01808191819C0189819A8143
:101800000296B901681B790BCB01742F781B872FC7
:101810000F900F90DF91CF910895CF93DF931F9298
:10182000CDB7DEB7198211C08981282F30E0C901F8
:10183000880F991F880F991F820F931F8750924F0F
:10184000FC01108289818F5F89838981823360F3F3
:1018500084E690E0A0E0B0E08093F60E9093F70E5F
:10186000A093F80EB093F90E1092FA0E89E49EE060
:101870009093FC0E8093FB0E6AE67FE080E00E946E
:10188000CF0400000F90DF91CF910895CF93DF93A5
:1018900000D000D000D0CDB7DEB79E838D831C82F0
:1018A0001B8228C08D819E81FC01208131818B812A
:1018B0009C81820F931FFC018081882F90E0292F4B
:1018C0002F938F938C818F938B818F938DEB92E0ED
:1018D000892F8F938DEB92E08F930E946C450F9030
:1018E0000F900F900F900F900F908B819C8101961D
:1018F0009C838B838D819E81FC018281282F30E027
:101900008B819C81821793076CF28EEC92E0892F79
:101910008F938EEC92E08F930E946C450F900F9006
:101920008D819E81FC0180819181FC0180818C30C0
:1019300041F48D819E81FC018281873008F05BC07B
:101940000AC18D819E81FC0180819181FC01808191
:101950008C3C49F08D819E81FC0180819181FC014C
:1019600080818C3841F48D819E81FC01828183309D
:1019700008F041C0F0C08D819E81FC018081918181
:101980000196FC0180818838D1F48D819E81FC0113
:1019900080819181FC018081813651F08D819E8111
:1019A000FC0180819181FC018081813409F0C8C0F3
:1019B0008D819E81FC0182818031E8F4C1C08D81DE
:1019C0009E81FC01808191810196FC01808180389B
:1019D00009F0B8C08D819E81FC0180819181FC015C
:1019E0008081882309F0B0C08D819E81FC018281B5
:1019F0008B3008F4A9C08D819E81FC01808191818A
:101A00000196FC018081883851F08D819E81FC0116
:101A1000808191810196FC0180818038D9F40E94F7
:101A2000CA099A83898389819A81892B09F48EC096
:101A30008D819E81FC01808191810196FC018081D4
:101A4000883811F420E201C025E289819A81FC01E5
:101A5000208337C08D819E81FC0180819181FC01B2
:101A600080818C3081F481E00E943C0A9A838983D2
:101A700089819A81892B09F46BC089819A8126E238
:101A8000FC0120831EC080E00E943C0A9A83898367
:101A900089819A81892B09F45DC08D819E81FC0129
:101AA00080819181FC0180818C3831F489819A8117
:101AB00028E2FC01208305C089819A8127E2FC018C
:101AC00020838D819E81FC01228189819A81FC0184
:101AD000218389819A818F579F4FFC018081918159
:101AE0009C012150310989819A818F579F4FFC01B8
:101AF000318320838D819E81FC01238189819A819C
:101B00008D579F4FFC0120838D819E81FC01248194
:101B100089819A818C579F4FFC0120838D819E8102
:101B2000FC018281482F50E08D819E81FC01208143
:101B3000318189819A810296B9010E94CA440BC001
:101B4000000009C0000007C0000005C0000003C07D
:101B5000000001C0000026960FB6F894DEBF0FBE4D
:101B6000CDBFDF91CF910895CF93DF9300D000D008
:101B700000D0CDB7DEB79E838D830E94CA099A83B9
:101B8000898389819A81892B09F46BC08D819E811B
:101B9000FC01818120E1280F8D819E81FC01218340
:101BA0008D819E818F579F4FFC01808191819C0187
:101BB000205F3F4F8D819E818F579F4FFC01318366
:101BC000208389819A810E94200B89819A81FC015E
:101BD000818123E0280F89819A81FC0121838981F9
:101BE0009A8189579F4FFC01118210828D819E81BD
:101BF000FC01838581FB222720F989819A8121704C
:101C0000220FFC0133853D7F232BFC0123878D812F
:101C10009E81FC012585368589819A81FC01308B66
:101C2000278789819A818F579F4FFC0180819181FD
:101C30009C838B838B819C81FC0110822091EF0E11
:101C40008B819C81FC0122838D819E81FC012485F6
:101C50008B819C81FC01218389819A810E9453158B
:101C600001C0000026960FB6F894DEBF0FBECDBFB0
:101C7000DF91CF910895CF93DF931F92CDB7DEB759
:101C8000898389818093EF0E00000F90DF91CF91BF
:101C90000895CF93DF9300D000D0CDB7DEB79C83FB
:101CA0008B8319821A8230C08A81282F30E0C901C3
:101CB000880F991F880F991F820F931F8750924F8B
:101CC000FC0180818823E9F08A81282F30E0C90156
:101CD000880F991F880F991F820F931F8750924F6B
:101CE000FC0180814FEF480FC901880F991F880FB1
:101CF000991F820F931F8750924FFC01408381E010
:101D000089838A818F5F8A838A81823368F289819D
:101D1000882321F08B819C810E946E1D00000F9012
:101D20000F900F900F90DF91CF910895CF93DF9395
:101D3000CDB7DEB729970FB6F894DEBF0FBECDBF83
:101D4000998788871A8219821B8290C08B81282FDD
:101D500030E0C901880F991F880F991F820F931FC8
:101D60008B50924F9D838C838C819D81FC0184815B
:101D7000882309F46EC088859985FC012385348504
:101D80008C819D81FC01808191812817390709F0A0
:101D900060C08C819D81FC01228188859985FC0130
:101DA0008285F22FF81B8F2F8E838E81883058F515
:101DB0008C819D81FC018381882F90E02E81222FD0
:101DC00030E002C0959587952A95E2F781709927B2
:101DD000892B11F081E075C08C819D81FC0183818C
:101DE000482F8E81282F30E081E090E002C0880FDC
:101DF000991F2A95E2F7842B282F8C819D81FC0165
:101E0000238380E05EC08E8181958F83888599854C
:101E1000FC0122858C819D81FC0122838C819D8126
:101E2000FC018381882F90E02F81222F30E002C0B7
:101E3000880F991F2A95E2F78160282F8C819D8158
:101E4000FC0123838C819D8125E1FC01248380E0BA
:101E500038C08C819D81FC018481882321F48C8190
:101E60009D819A8389838B818F5F8B838B81823362
:101E700008F46CCF89819A81892B11F481E021C00B
:101E800088859985FC012385348589819A81FC01A7
:101E90003183208388859985FC01228589819A81F7
:101EA000FC01228389819A8121E0FC0123838981BD
:101EB0009A8125E1FC01248380EF9EE00E946E1D43
:101EC00080E029960FB6F894DEBF0FBECDBFDF913C
:101ED000CF910895CF93DF9300D0CDB7DEB79A832B
:101EE000898389819A81FC018285882311F480E0AD
:101EF00011C089819A81FC0180859185FC018081D6
:101F0000882F90E0892B29F489819A810E94791683
:101F100001C080E00F900F90DF91CF910895CF9393
:101F2000DF93CDB7DEB728970FB6F894DEBF0FBEAC
:101F3000CDBF98878F838F81988502969B838A83F4
:101F40008F81988524E2FC0120838A819B81FC019A
:101F500081858270882309F03BC18A819B81FC01C5
:101F600081858870882341F08A819B81FC0181856D
:101F70008170882309F02EC18A819B81FC018381B5
:101F800094810196D1F42091A5113091A6118A81F6
:101F90009B81FC01858596852817390741F08A8148
:101FA0009B81FC0185859685019609F015C18F817D
:101FB000988522E2FC0120830FC18A819B81FC016C
:101FC00085859685019641F48A819B81FC018185F6
:101FD0008170882309F002C12091A5113091A611CA
:101FE0008A819B81FC01838594852817390709F430
:101FF000F7C08A819B810E94960E882309F0F2C067
:102000008A819B81FC0181858870882309F4A9C09D
:102010008F8198858F579F4FFC01808191819D838F
:102020008C838A819B81FC01858596850E948A0B21
:102030008E8319828A819B81FC018581968101961C
:1020400009F061C08E81882379F18C819D81FC012A
:1020500081818F70882F90E021E0181619060CF00E
:1020600020E029838C819D81FC0181818F702FE08C
:10207000280F2F708C819D812F70FC013181307F62
:10208000232BFC0121838C819D81FC018081282FE1
:1020900022952F708C819D812F70FC013081307FC3
:1020A000232BFC0120833BC08C819D81FC0180811E
:1020B0008F70882F90E021E0181619060CF020E0B0
:1020C00029838C819D81FC0180818F702FE0280FF6
:1020D0002F708C819D812F70FC013081307F232BEC
:1020E000FC0120838C819D81FC018181282F229518
:1020F0002F708C819D812F70FC013181307F232BCB
:10210000FC0121830CC08E81882349F081E0898302
:102110008A819B81FC0121852460FC0121878981C2
:10212000882321F08F8198850E94EA158E8188236B
:1021300009F459C08F8198858F579F4FFC0180818A
:1021400091819C012E5F3F4F8F8198858F579F4FC4
:10215000FC01318320838F81988522E2FC0120835A
:1021600042C08A819B81FC01858196810196B9F4E8
:102170002091A5113091A6118A819B81FC01858552
:1021800096852817390759F08A819B81FC01818542
:102190008470882321F48F8198850E94EA1520910C
:1021A000A5113091A6118A819B81FC0185859685B8
:1021B0002817390739F08A819B81FC01858596852E
:1021C000019689F48F81988522E2FC0120830BC05F
:1021D000000009C0000007C0000005C0000003C0E7
:1021E000000001C0000028960FB6F894DEBF0FBEB5
:1021F000CDBFDF91CF910895CF93DF93CDB7DEB7F9
:1022000061970FB6F894DEBF0FBECDBF998B888B58
:102210008889998902969A83898389819A81FC01A8
:10222000878582958F70882F90E00396880F991F7D
:102230008B559E4EFC0180819181892B11F480E0A9
:10224000D9C089819A81FC01838594859C838B8385
:1022500089819A81FC01858596859E838D838981FC
:102260009A81FC0187858F708F8389819A81FC0117
:10227000878582958F708887888999898F579F4F26
:10228000FC01808191819C878B87888999890E9434
:10229000EB0B8D87888999898D579F4FFC01808131
:1022A0008E87888999898C579F4FFC0180818F8701
:1022B00089819A81FC018185982F917081E0992311
:1022C00009F480E0882F90E09A87898729853A85EC
:1022D00089819A81FC018185882F90E082709927FD
:1022E000822B932B9A87898729853A8589819A81C0
:1022F000FC0181858470882319F080E290E002C09F
:1023000080E090E0822B932B9A87898729853A85F4
:1023100089819A81FC0181858870882319F080E485
:1023200090E002C080E090E0822B932B9A8789870F
:1023300029853A8589819A81FC018185807188236C
:1023400019F080E890E002C080E090E0822B932BAF
:102350009A87898729853A8589819A81FC018585B3
:102360009685019619F484E090E002C080E090E048
:10237000822B932B9A87898729853A8589819A812F
:10238000FC014385548589819A81FC018781908570
:102390004817590719F488E090E002C080E090E007
:1023A000822B932B9A87898729853A8589819A81FF
:1023B000FC0183819481019619F480E190E002C0D0
:1023C00080E090E0822B932B9A87898789819A817C
:1023D000FC01878582958F70882F90E00396880F87
:1023E000991F8B559E4EFC0120813181CE010396B1
:1023F000F901099561960FB6F894DEBF0FBECDBF07
:10240000DF91CF910895CF93DF93CDB7DEB761977A
:102410000FB6F894DEBF0FBECDBF998B888B88892D
:10242000998902969A8389838889998924E2FC0193
:1024300020838091AB119091AC11892B11F480E035
:1024400044C088899989FC01878190859C838B830E
:1024500088899989FC01878190859E838D831F825D
:102460001886888999898F579F4FFC0180819181B7
:102470009C878B87888999890E94EB0B8D87888937
:1024800099898D579F4FFC0180818E878889998912
:102490008C579F4FFC0180818F8780E890E09A875E
:1024A000898789819A81FC01878582958F70882F21
:1024B00090E00396880F991F8B559E4EFC0120815A
:1024C0003181CE010396F901099561960FB6F89412
:1024D000DEBF0FBECDBFDF91CF910895CF93DF93C5
:1024E000CDB7DEB72F970FB6F894DEBF0FBECDBFC6
:1024F0009F878E878E859F8524E2FC0120838091B3
:10250000AB119091AC11892B11F480E02AC01A8292
:1025100019821C821B821D821E828E859F850296D7
:102520009A8789878E859F850E94EB0B8B878E8586
:102530009F858D579F4FFC0180818C878E859F855D
:102540008C579F4FFC0180818D8780E091E09887B8
:102550008F832091AB113091AC11CE010196F9011E
:1025600009952F960FB6F894DEBF0FBECDBFDF9151
:10257000CF910895CF93DF93CDB7DEB761970FB6B4
:10258000F894DEBF0FBECDBF998B888B888999895F
:1025900002969A8389838889998924E2FC012083A1
:1025A0008091B1119091B211892B11F480E02EC06D
:1025B0001C821B821E821D821F821886888999892F
:1025C0008F579F4FFC01808191819C878B878889E1
:1025D00099890E94EB0B8D87888999898D579F4F28
:1025E000FC0180818E87888999898C579F4FFC01D7
:1025F00080818F8780E092E09A8789872091B1114E
:102600003091B211CE010396F901099561960FB68A
:10261000F894DEBF0FBECDBFDF91CF910895CF9369
:10262000DF93CDB7DEB761970FB6F894DEBF0FBE6C
:10263000CDBF998B888B8889998902969A838983E3
:102640008889998924E2FC0120838091B3119091BB
:10265000B411892B11F480E02EC01C821B821E82D3
:102660001D821F821886888999898F579F4FFC0188
:10267000808191819C878B87888999890E94EB0B47
:102680008D87888999898D579F4FFC0180818E871E
:10269000888999898C579F4FFC0180818F8780E0C2
:1026A00090E49A8789872091B3113091B411CE01BB
:1026B0000396F901099561960FB6F894DEBF0FBE37
:1026C000CDBFDF91CF910895CF93DF9300D01F92BC
:1026D000CDB7DEB79B838A831092EF0E8A819B81F0
:1026E0000E94FC1089838A819B81FC018385817013
:1026F000882309F419828A819B81FC018781908556
:102700000196A9F42091A5113091A6118A819B818F
:10271000FC01878590892817390749F48A819B81B4
:10272000FC0183858870882311F481E089838A8184
:102730009B81FC0185819681019609F41982809123
:10274000A5119091A611019609F419828981882317
:1027500021F08A819B810E94B40D8A819B8124E2B1
:10276000FC01208300000F900F900F90DF91CF911C
:102770000895CF93DF9300D0CDB7DEB71A821982C8
:102780003BC089819A81FC018081882F90E0092ECD
:10279000000CAA0BBB0B40E250E028E030E0841BA9
:1027A000950B2817390740F180579F4FFC010C9477
:1027B000754389819A810E948F0F1EC089819A81F9
:1027C0000E94641319C089819A810E94D40A14C09E
:1027D00089819A810E9403120FC089819A810E9487
:1027E0006E120AC089819A810E94BA1205C089813D
:1027F0009A810E940F13000089819A810E94EE0A3B
:102800009A83898389819A81892B09F0BACF000044
:102810000F900F90DF91CF910895CF93DF93CDB7B5
:10282000DEB71092060F1092050F82E390E0A0E051
:10283000B0E080930D0F90930E0FA0930F0FB09305
:10284000100F1092110F88EC96E19093130F809364
:10285000120F8AE090E0A0E0B0E080931A0F90930E
:102860001B0FA0931C0FB0931D0F10921E0F82E33D
:1028700097E19093200F80931F0F0000DF91CF917D
:102880000895CF93DF9300D000D0CDB7DEB79C83FF
:102890008B838B819C8102969A8389838B819C8117
:1028A00023E1FC0120838B819C818D579F4FFC018C
:1028B00010828B819C818C579F4FFC01118210826A
:1028C00089819A8120E030E8FC0131832083809166
:1028D000AA118F5F8093AA112091AA1189819A81F0
:1028E000FC0122832091A7113091A81189819A813E
:1028F000FC01348323832091A5113091A611898195
:102900009A81FC013683258300000F900F900F9071
:102910000F90DF91CF910895CF93DF9300D000D037
:10292000CDB7DEB79C838B838B819C8102969A8383
:1029300089838B819C8123E1FC0120838B819C8195
:102940008D579F4FFC0110828B819C818C579F4F2C
:10295000FC011182108289819A812CE0FC01208384
:102960008091AA118F5F8093AA112091AA11898169
:102970009A81FC01218389819A81FC012281287F2F
:10298000FC01228389819A81FC012281277EFC013E
:10299000228389819A81FC0122812F7DFC0122837F
:1029A00089819A81FC0122812F7BFC012283000016
:1029B0000F900F900F900F90DF91CF910895CF93CC
:1029C000DF9300D000D000D0CDB7DEB79C838B83DF
:1029D0007E836D838B819C8102969A8389838B8110
:1029E0009C8123E1FC0120838B819C818D579F4F2B
:1029F000FC0110828B819C818C579F4FFC011182BE
:102A000010828D819E81992334F489819A812CECE6
:102A1000FC01208317C08D819E8188279072892BAD
:102A200031F089819A812CE4FC0120830BC08D81D7
:102A30009E8188279074892B29F089819A812CE8BE
:102A4000FC0120838091AA118F5F8093AA112091AD
:102A5000AA1189819A81FC01218389819A81FC01D3
:102A60002281287FFC01228389819A81FC012281B5
:102A7000277EFC01228389819A81FC0122812F7D9E
:102A8000FC01228389819A81FC0122812F7BFC0138
:102A90002283000026960FB6F894DEBF0FBECDBF8E
:102AA000DF91CF910895CF93DF9300D000D0CDB7C1
:102AB000DEB79C838B838B819C8102969A8389836A
:102AC0008B819C818A579F4FFC018081882F90E0E9
:102AD00082709927892B31F08B819C8122E1FC0146
:102AE000208305C08B819C8122E1FC0120838B81A6
:102AF0009C818D579F4FFC0110828B819C818A574E
:102B00009F4FFC018081882F90E081709927892B4D
:102B100041F089819A812FEF3FEFFC0134832383B9
:102B200009C02091A7113091A81189819A81FC01D7
:102B30003483238389819A81FC01258536858981A7
:102B40009A81FC01368325832091A5113091A6112D
:102B500089819A81FC01308727838091AA118F5F38
:102B60008093AA112091AA1189819A81FC01228364
:102B700089819A81FC01858196810196A9F48981D8
:102B80009A8121E438E8FC01318320830E94D843F4
:102B90008770992701969C018B819C818C579F4F50
:102BA000FC01318320830EC089819A8121E438E8B9
:102BB000FC01318320838B819C818C579F4FFC01CA
:102BC0001182108200000F900F900F900F90DF91F4
:102BD000CF910895CF93DF9300D000D0CDB7DEB76B
:102BE0009C838B830E94CA099A83898389819A81F5
:102BF000892B09F476C089819A818F579F4FFC01F8
:102C0000808191819C01205F3F4F89819A818F57FC
:102C10009F4FFC013183208389819A8122E1FC014D
:102C200020838B819C81FC01218189819A81FC0117
:102C3000218389819A818D579F4FFC0110820E94C8
:102C4000D8438770992701969C0189819A818C5776
:102C50009F4FFC013183208389819A8189579F4F3F
:102C6000FC01118210828B819C81FC018181482FA3
:102C700050E08B819C819C012E5F3F4F89819A811E
:102C80000296B9010E94CA4489819A8121E438E8F8
:102C9000FC013383228389819A812FEF3FEFFC016E
:102CA000308727838B819C81FC0125813681898136
:102CB0009A81FC01368325832091A5113091A611BC
:102CC00089819A81FC01328721878091AA118F5FC7
:102CD0008093AA112091AA1189819A81FC012483F1
:102CE00001C000000F900F900F900F90DF91CF91D7
:102CF0000895CF93DF9300D000D000D0CDB7DEB7DA
:102D00009E838D838D819E81FC01808591859C832E
:102D10008B831A8219828D819E81FC01828583308A
:102D200019F180E02CC089819A81FC018081863173
:102D3000D9F489819A81FC0124858B819C81FC01D5
:102D40008181281789F489819A8127E1FC012083F8
:102D50008B819C81FC01228189819A818A579F4FB6
:102D6000FC01208381E00BC089819A810E94EE0AD8
:102D70009A83898389819A81892BA9F680E0269696
:102D80000FB6F894DEBF0FBECDBFDF91CF9108958F
:102D9000CF93DF9300D000D01F92CDB7DEB79D83D5
:102DA0008C831A8219821B8227C089819A81FC0137
:102DB0008081863109F581E08B8389819A818C57E6
:102DC0009F4FFC01808191819C01215031098981B3
:102DD0009A818C579F4FFC013183208389819A818E
:102DE0008C579F4FFC0180819181892B29F4898127
:102DF0009A8160E10E94161789819A810E94EE0AE9
:102E00009A83898389819A81892B79F68B8188239A
:102E100021F08C819D810E946E1D00000F900F900B
:102E20000F900F900F90DF91CF910895CF93DF9384
:102E300000D01F92CDB7DEB79A8389836B838981D7
:102E40009A8127E1FC01208389819A818D579F4FC8
:102E50002B81FC01208300000F900F900F90DF91D9
:102E6000CF910895CF93DF9300D000D01F92CDB7BC
:102E7000DEB79D838C831A8219821B8227C08981C9
:102E80009A81FC018081813109F581E08B83898100
:102E90009A818C579F4FFC01808191819C01215028
:102EA000310989819A818C579F4FFC01318320839E
:102EB00089819A818C579F4FFC0180819181892B58
:102EC00029F489819A8123E1FC01208389819A81F7
:102ED0000E94EE0A9A83898389819A81892B79F6E7
:102EE0008B81882321F08C819D810E946E1D0000C2
:102EF0000F900F900F900F900F90DF91CF9108954A
:102F0000CF93DF931F92CDB7DEB789838981882F56
:102F100090E08130910539F08230910531F0892BB4
:102F200031F480E005C080E203C081E201C081E0AD
:102F30000F90DF91CF9108950F931F93CF93DF935D
:102F40001F92CDB7DEB789830091050F1091060F50
:102F500089810E948017282FC8018D579F4FFC013F
:102F600020838091050F9091060F25E1FC012083BD
:102F70001092060F1092050F8091CB119091CC11F9
:102F800001979093CC118093CB1100000F90DF91AB
:102F9000CF911F910F910895CF93DF9300D0CDB7BC
:102FA000DEB71A821982B3C089819A81FC018081BF
:102FB000882F90E08431910509F4A9C085319105ED
:102FC00034F48231910579F0439731F19FC0863115
:102FD000910509F49CC0863191050CF443C04797D4
:102FE00009F47AC093C089819A818C579F4FFC0164
:102FF00080819181892B51F089819A8121E1FC01A5
:10300000208384E19FE00E946E1D81C089819A81A6
:1030100023E1FC0120837BC08091050F9091060F76
:10302000892B09F074C089819A819093060F80934F
:10303000050F89819A8124E1FC01208389819A818D
:10304000FC01218189819A810296622F0E94CD1A0A
:103050008091CB119091CC1101969093CC118093DB
:10306000CB1155C089819A818D579F4FFC0180817A
:10307000882361F589819A81FC01258536858091B7
:10308000A5119091A61128173907D1F489819A8149
:10309000FC0183858170882399F089819A8126E1DA
:1030A000FC01208389819A818C579F4F25E130E074
:1030B000FC013183208387E09FE00E946E1D0BC0DE
:1030C00089819A8127E1FC01208321C089819A812D
:1030D00027E1FC0120831BC089819A8189579F4F7A
:1030E000FC0180819181892B29F489819A810E9438
:1030F000D40A0DC089819A8189579F4FFC01208194
:10310000318189819A81F901099501C00000898185
:103110009A810E94EE0A9A83898389819A81892BF8
:1031200009F042CF00000F900F90DF91CF910895EA
:10313000CF93DF9300D0CDB7DEB79A83898389819F
:103140009A81892B09F47BC089819A8188379105FE
:1031500049F461E080E00E941B3960E180E00E9458
:103160001B396DC089819A81803C910529F462E008
:1031700080E00E941B3963C089819A818C3491055B
:1031800029F464E080E00E941B3959C089819A814A
:103190008038910529F468E080E00E941B394FC017
:1031A00089819A818434910529F460E280E00E944B
:1031B0001B3945C089819A81803B910529F460E4DF
:1031C00080E00E941B393BC089819A81883B910530
:1031D00029F460E880E00E941B3931C089819A811E
:1031E000883C910529F461E081E00E941B3927C0E9
:1031F00089819A818039910529F468E081E00E94F3
:103200001B391DC089819A81803A910529F460E1BA
:1032100081E00E941B3913C089819A8180329140DC
:1032200029F460E281E00E941B3909C089819A81FA
:103230008334914021F460E481E00E941B39000056
:103240000F900F90DF91CF9108956150710981091E
:103250009109D9F70895CF93DF93CDB7DEB783E413
:1032600091E00E94981889E391E0FC01208121609F
:10327000FC0120831092A20F81E08093210F88E04F
:103280000E94C51B8CE491E0FC0120812068FC01B8
:1032900020830000DF91CF910895CF93DF93CDB7C6
:1032A000DEB789E391E0FC0120812160FC012083ED
:1032B0000000DF91CF910895CF93DF931F92CDB798
:1032C000DEB7898389818823B1F08CE691E0FC0127
:1032D00020812F70FC0120838CE691E0FC0120818D
:1032E0002E60FC0120838EE691E0FC0120812061AC
:1032F000FC01208317C08CE691E0FC0120812F7037
:103300002063FC0120838CE691E0FC012081217F79
:103310002860FC0120838EE691E0FC0120812F7E55
:10332000FC01208300000F90DF91CF910895CF938F
:10333000DF93CDB7DEB729970FB6F894DEBF0FBE87
:10334000CDBF898728E0CE010196FC01322F119272
:103350003A95E9F78985882349F180E090E00E9459
:10336000571A80E090E00E94331ACE0101960E9425
:10337000EA1B87E591E0FC0120812260FC012083AB
:1033800087E591E0FC0120812061FC01208387E535
:1033900091E0FC0120812F7DFC0120838EE691E0ED
:1033A000FC0120812061FC0120830BC087E591E0B6
:1033B000FC0110828EE691E0FC0120812F7EFC0151
:1033C0002083000029960FB6F894DEBF0FBECDBF54
:1033D000DF91CF9108950F931F93CF93DF93CDB7D4
:1033E000DEB78FE691E0FC012081207F2360FC01A5
:1033F00020838FE691E0FC0120812F702068FC0182
:1034000020830DE611E00E94291BF8018083000053
:10341000DF91CF911F910F910895CF93DF931F926A
:10342000CDB7DEB7898389818093A20F0E94AE1B3E
:1034300000000F90DF91CF910895CF93DF931F92FB
:10344000CDB7DEB7898388E491E029812F712F7190
:10345000FC013081307E232BFC01208300000F9083
:10346000DF91CF910895CF93DF9300D000D0CDB7F7
:10347000DEB79C838B83CE0103969A83898382E691
:1034800091E029813A81F9012081FC01208383E6C2
:1034900091E029813A81F9012181FC01208300001A
:1034A0000F900F900F900F90DF91CF910895CF93D1
:1034B000DF9300D000D0CDB7DEB79C838B83CE01E5
:1034C00003969A83898380E691E029813A81F90104
:1034D0002081FC01208381E691E029813A81F90174
:1034E0002181FC0120838DE691E029813A81F90157
:1034F000408129813A812F5F3F4FF9012081240FBC
:10350000FC01208300000F900F900F900F90DF912F
:10351000CF910895CF93DF931F92CDB7DEB7898304
:1035200085E491E029812F702F70FC013081307F7C
:10353000232BFC01208300000F90DF91CF91089591
:10354000CF93DF93CDB7DEB78091210F823069F042
:1035500088E00E94C51B89E391E0FC012081226084
:10356000FC01208382E08093210F0000DF91CF9146
:103570000895CF93DF93CDB7DEB789E391E0FC01E7
:1035800020812D7FFC0120830E94AE1B81E080936F
:10359000210F0000DF91CF910895CF93DF9300D0EA
:1035A00000D0CDB7DEB79B838A836C8389E10E940C
:1035B000C51B8FE491E02FEFFC01208380E891E0B0
:1035C0002C812E5FFC01208319822FC08981882FD6
:1035D00090E02A813B81820F931FFC018081882F1C
:1035E00090E0292F2F938F9383EE92E0892F8F9372
:1035F00083EE92E08F930E946C450F900F900F9096
:103600000F908981882F90E08F579E4FAC01898160
:10361000882F90E02A813B81820F931FFC018081DB
:10362000FA01808389818F5F898399818C819817C2
:1036300068F283E08093210F82E491E022E0FC01B4
:10364000208300000F900F900F900F90DF91CF918B
:103650000895CF93DF9300D01F92CDB7DEB71A82C3
:10366000198286E00E94C51B1B8222C062E070E0C6
:1036700080E090E00E94251986E491E0FC018081C1
:103680008295869587708370882F90E02B81222FFA
:1036900030E002C0880F991F2A95E2F79C018981CA
:1036A0009A81822B932B9A8389838B818E5F8B8364
:1036B0008B818031D8F20E94AE1B89819A810F9054
:1036C0000F900F90DF91CF910895CF93DF9300D0AB
:1036D00000D0CDB7DEB79A8389837C836B838B81DF
:1036E0009C8140E060E00E940F2C89819A810E94B9
:1036F0001B2D89819A810E94512D00000F900F90FF
:103700000F900F90DF91CF910895CF93DF931F9289
:10371000CDB7DEB786E00E94C51B8FE491E0FC01C7
:1037200020812061FC01208387E491E0FC0110826C
:1037300000008FE491E0FC018081829581708823F4
:10374000C1F387E491E0FC0180818A5589830E945E
:10375000AE1B89810F90DF91CF910895CF93DF93B6
:10376000CDB7DEB788E00E94C51B8FE491E02FEF54
:10377000FC0120838091A20F882319F086E10E942A
:10378000C51B0000DF91CF910895CF93DF931F9267
:10379000CDB7DEB7898382E491E023E0FC0120838A
:1037A00081E491E0FC0180818F718830A1F782E48F
:1037B00091E02981FC01208381E491E0FC0180817A
:1037C0008F71982F8981981791F700000F90DF91E2
:1037D000CF910895CF93DF9300D000D0CDB7DEB75F
:1037E0009C838B838B819C819A83898324E631E03F
:1037F00089819A81AC014F5F5F4F5A834983FC01F5
:103800008081F901808325E631E089819A81AC01CC
:103810004F5F5F4F5A834983FC018081F9018083A8
:1038200026E631E089819A81AC014F5F5F4F5A8370
:103830004983FC018081F901808327E631E0898199
:103840009A81AC014F5F5F4F5A834983FC018081AD
:10385000F901808328E631E089819A81AC014F5FCC
:103860005F4F5A834983FC018081F901808329E6F7
:1038700031E089819A81AC014F5F5F4F5A83498360
:10388000FC018081F90180832AE631E089819A81F7
:10389000AC014F5F5F4F5A834983FC018081F9017E
:1038A00080838BE691E029813A81F9012081FC0136
:1038B000208300000F900F900F900F90DF91CF9119
:1038C0000895CF93DF93CDB7DEB728970FB6F8945E
:1038D000DEBF0FBECDBF8091210F823009F49EC0A4
:1038E0008FE491E0FC01808183FB882780F98823A5
:1038F00009F459C08BE791E0FC0180818B83198228
:1039000011C08981882F90E02981222F30E0205832
:103910003E4FF90120818E5D904FFC01208389810B
:103920008F5F89838981282F30E08B81882F90E0F9
:103930000196281739072CF382E29FE09D838C8340
:103940008B8182508E838B81882F90E08E5D904F8B
:10395000FC0180818F8387E491E0FC0180818A559E
:103960008887CE0104960E94460C000081E491E015
:10397000FC0180818F718631C9F78FE491E0FC01F1
:1039800020812860FC0120838CE491E0FC012081EF
:103990002F77FC0120838CE491E0FC0120812068DA
:1039A000FC0120833CC08FE491E0FC01808186FB18
:1039B000882780F9882399F181E491E0FC018081D6
:1039C0008F71893119F582E491E0FC018081829543
:1039D000869587708A838A81882311F41A820EC0A3
:1039E0008A81833019F481E08A8308C08A81853016
:1039F00019F482E08A8302C083E08A830E94AE1BAE
:103A000081E08093210F8A810E949C178FE491E0CE
:103A1000FC0120812064FC01208301C00000289665
:103A20000FB6F894DEBF0FBECDBFDF91CF910895E2
:103A3000CF93DF93CDB7DEB70E94561D0E94072CAF
:103A40000E942B190E946E040000DF91CF9108950F
:103A5000CF93DF93CDB7DEB70E94611C0E946C0547
:103A60000E94281E0000DF91CF910895CF93DF932D
:103A70001F92CDB7DEB78FE590E0FC01808189838E
:103A8000F89489810F90DF91CF910895CF93DF93C0
:103A90001F92CDB7DEB789838FE590E02981FC01C5
:103AA000208300000F90DF91CF910895CF93DF9393
:103AB000CDB7DEB71092CD1180EC9FE10E94943F0C
:103AC0000E94463F80E197E20E94DC3E1092AC0FDC
:103AD0001092AB0F0000DF91CF910895CF93DF9349
:103AE00000D0CDB7DEB79A83898389819A810E94FD
:103AF000FD1D982F81E08927882321F089819A81F3
:103B00000E94EB1E00000F900F90DF91CF9108955F
:103B1000CF93DF9300D000D000D0CDB7DEB79E8327
:103B20008D831A8219828091AB0F9091AC0F9C8388
:103B30008B8352C02B813C818D819E812817390750
:103B400009F03FC089819A81892B59F08B819C8132
:103B5000FC012081318189819A81FC01318320839C
:103B600009C08B819C81FC01808191819093AC0F75
:103B70008093AB0F8B819C81FC0180819181892B8B
:103B800089F18B819C81FC01608171818B819C8199
:103B9000FC0180819181FC01228133814481558126
:103BA0008D819E81FC0182819381A481B581820FE8
:103BB000931FA41FB51FFB0182839383A483B58346
:103BC00011C08B819C819A8389838B819C81FC01AC
:103BD000808191819C838B838B819C81892B09F0CF
:103BE000A9CF01C00000000026960FB6F894DEBFF2
:103BF0000FBECDBFDF91CF910895CF93DF9300D05B
:103C000000D0CDB7DEB79C838B838091AB0F9091B2
:103C1000AC0F9A83898310C029813A818B819C8162
:103C20002817390711F481E00CC089819A81FC01C1
:103C3000808191819A83898389819A81892B61F717
:103C400080E00F900F900F900F90DF91CF9108952B
:103C5000EF92FF920F931F93CF93DF93CDB7DEB711
:103C600028970FB6F894DEBF0FBECDBF8091CD115F
:103C7000882309F4A2C00E94361D8D838091CD1146
:103C80008E831092CD118D810E94461D8E81882FCA
:103C900090E0A0E0B0E0880F991FAA1FBB1F9C0115
:103CA000AD01220F331F441F551F220F331F441F26
:103CB000551F820F931FA41FB51F89839A83AB835F
:103CC000BC833DC08091AB0F9091AC0F98878F83E0
:103CD0008091AB0F9091AC0FFC0182819381A48104
:103CE000B58129813A814B815C8179018A01E81A89
:103CF000F90A0A0B1B0BD801C70189839A83AB838E
:103D0000BC838091AB0F9091AC0FFC0180819181BD
:103D10009093AC0F8093AB0F8F819885FC018285C7
:103D2000813021F48F8198850E94EB1E8F819885C8
:103D3000FC01238534858F819885F901099580914F
:103D4000AB0F9091AC0F892B99F08091AB0F9091B4
:103D5000AC0FFC01228133814481558189819A8194
:103D6000AB81BC8182179307A407B50708F0AACFDF
:103D70008091AB0F9091AC0F892B01F16091AB0F4B
:103D80007091AC0F8091AB0F9091AC0FFC01228130
:103D900033814481558189819A81AB81BC817901CC
:103DA0008A01E81AF90A0A0B1B0BD801C701FB01AB
:103DB00082839383A483B58301C0000028960FB645
:103DC000F894DEBF0FBECDBFDF91CF911F910F9151
:103DD000FF90EF900895EF92FF920F931F93CF9370
:103DE000DF93CDB7DEB72A970FB6F894DEBF0FBECC
:103DF000CDBF9A8789878091AB0F9091AC0F892BAB
:103E000009F497C01A82198289859A85FC018681F6
:103E10009781A085B1858B839C83AD83BE83809180
:103E2000AB0F9091AC0F98878F834DC08F81988591
:103E3000FC0122813381448155818B819C81AD813C
:103E4000BE8182179307A407B507D8F48F819885A0
:103E5000FC0122813381448155818B819C81AD811C
:103E6000BE8179018A01E81AF90A0A0B1B0BD801F5
:103E7000C7012F813885F90182839383A483B58399
:103E800027C08F819885FC0182819381A481B581AF
:103E90002B813C814D815E8179018A01E81AF90A02
:103EA0000A0B1B0BD801C7018B839C83AD83BE8398
:103EB0008F8198859A8389838F819885FC01808181
:103EC000918198878F838F819885892B09F0AECF58
:103ED00029853A858B819C81AD81BE81F9018283E0
:103EE0009383A483B58389819A81892B91F08981F9
:103EF0009A81FC012081318189859A85FC01318379
:103F0000208389819A8129853A85FC013183208328
:103F100029C02091AB0F3091AC0F89859A85FC01A7
:103F20003183208389859A859093AC0F8093AB0F62
:103F300019C089859A85FC011182108289859A852C
:103F4000FC0186819781A085B18529853A85F90193
:103F500082839383A483B58389859A859093AC0FDC
:103F60008093AB0F00002A960FB6F894DEBF0FBE09
:103F7000CDBFDF91CF911F910F91FF90EF900895EA
:103F8000CF93DF93CDB7DEB78091CD118F5F809354
:103F9000CD1180E197E20E94DC3E0000DF91CF91DD
:103FA0000895CF93DF931F92CDB7DEB78FE590E0F2
:103FB000FC0180818983F89489810F90DF91CF91F2
:103FC0000895CF93DF931F92CDB7DEB789838FE536
:103FD00090E02981FC01208300000F90DF91CF91B8
:103FE0000895CF93DF93CDB7DEB780E094E2A4EFDE
:103FF000B0E0BC01CD01DF91CF910895CF93DF9365
:10400000CDB7DEB70E94F11FDC01CB01BC01CD01B1
:10401000DF91CF910895CF93DF9300D0CDB7DEB776
:104020009A83898389819A81892B21F480E090E0A9
:10403000DC01A3C089819A818837910529F40E9407
:10404000FE1FDC01CB0199C089819A81803C9105DA
:1040500029F40E94FE1FDC01CB018FC089819A8167
:104060008C34910529F40E94FE1FDC01CB0185C030
:1040700089819A818038910529F40E94FE1FDC0114
:10408000CB017BC089819A818434910529F40E94F7
:10409000FE1FDC01CB0171C089819A81803B9105B3
:1040A00029F40E94FE1FDC01CB0167C089819A813F
:1040B000803C910529F40E94FE1FDC01CB015DC00C
:1040C00089819A81883B910529F40E94FE1FDC01B9
:1040D000CB0153C089819A818039910529F40E94CE
:1040E000FE1FDC01CB0149C089819A81803A91058C
:1040F00029F40E94FE1FDC01CB013FC089819A8117
:104100008032914029F40E94FE1FDC01CB0135C0B2
:1041100089819A818334914029F40E94FE1FDC0139
:10412000CB012BC089819A818533914029F40E946B
:10413000FE1FDC01CB0121C089819A81843391402B
:1041400029F40E94FE1FDC01CB0117C089819A81EE
:104150008333914029F40E94FE1FDC01CB010DC086
:1041600089819A818233914029F40E94FE1FDC01EB
:10417000CB0103C080E090E0DC01BC01CD010F90D9
:104180000F90DF91CF910895CF93DF9300D01F92CE
:10419000CDB7DEB79A8389836B8389819A81803812
:1041A000910559F481E890E021E830E0F90130818F
:1041B0002B81232BFC0120832FC089819A81803998
:1041C000910559F481E990E021E930E0F90130816D
:1041D0002B81232BFC0120831FC089819A81803A87
:1041E000910559F481EA90E021EA30E0F90130814B
:1041F0002B81232BFC0120830FC089819A8180327F
:10420000914051F481E291E021E231E0F901308105
:104210002B81232BFC01208300000F900F900F9027
:10422000DF91CF910895CF93DF9300D0CDB7DEB764
:104230009A83898389819A818038910551F48FE628
:1042400090E02FE630E0F90120812160FC0120831D
:104250002CC089819A818039910551F481E790E0E1
:1042600021E730E0F90120812160FC0120831DC09D
:1042700089819A81803A910551F482E790E022E7A2
:1042800030E0F90120812160FC0120830EC089818A
:104290009A818032914049F483E790E023E730E04F
:1042A000F90120812160FC01208300000F900F9014
:1042B000DF91CF910895CF93DF9300D0CDB7DEB7D4
:1042C0009A83898389819A818038910551F48FE698
:1042D00090E02FE630E0F90120812260FC0120838C
:1042E0002CC089819A818039910551F481E790E051
:1042F00021E730E0F90120812260FC0120831DC00C
:1043000089819A81803A910551F482E790E022E711
:1043100030E0F90120812260FC0120830EC08981F8
:104320009A818032914049F483E790E023E730E0BE
:10433000F90120812260FC01208300000F900F9082
:10434000DF91CF910895CF93DF9300D0CDB7DEB743
:104350009A83898389819A818038910551F48FE607
:1043600090E02FE630E0F90120812D7FFC012083D1
:104370002CC089819A818039910551F481E790E0C0
:1043800021E730E0F90120812D7FFC0120831DC051
:1043900089819A81803A910551F482E790E022E781
:1043A00030E0F90120812D7FFC0120830EC089813E
:1043B0009A818032914049F483E790E023E730E02E
:1043C000F90120812D7FFC01208300000F900F90C8
:1043D000DF91CF910895CF93DF93CDB7DEB72797C5
:1043E0000FB6F894DEBF0FBECDBF9C838B836D8369
:1043F0005F834E838B819C819A8389838D81882FF3
:1044000090E0019629813A81820F931F2D81222FFE
:1044100030E02F5F3F4F49815A81240F351FF9014A
:1044200040812E813F81232F3327242BFC012083C1
:104430008D81882F90E029813A81820F931F2D81F1
:10444000222F30E049815A81240F351FF901308134
:104450002E81232BFC012083000027960FB6F894B1
:10446000DEBF0FBECDBFDF91CF910895CF93DF9315
:1044700000D0CDB7DEB79A83898389819A8180384D
:10448000910551F486E390E026E330E0F9012081C4
:104490002160FC0120832CC089819A81803991059B
:1044A00051F488E390E028E330E0F90120812160B5
:1044B000FC0120831DC089819A81803A910551F4C5
:1044C00089E390E029E330E0F90120812160FC01DB
:1044D00020830EC089819A818032914049F48AE319
:1044E00090E02AE330E0F90120812160FC01208383
:1044F00000000F900F90DF91CF910895CF93DF933D
:1045000000D0CDB7DEB79A83898389819A818038BC
:10451000910551F486E390E026E330E0F901208133
:104520002260FC0120832CC089819A818039910509
:1045300051F488E390E028E330E0F9012081226023
:10454000FC0120831DC089819A81803A910551F434
:1045500089E390E029E330E0F90120812260FC0149
:1045600020830EC089819A818032914049F48AE388
:1045700090E02AE330E0F90120812260FC012083F1
:1045800000000F900F90DF91CF910895CF93DF93AC
:1045900000D0CDB7DEB79A83898389819A8180382C
:1045A000910531F484E890E0FC018081918123C081
:1045B00089819A818039910531F484E990E0FC0188
:1045C0008081918118C089819A81803A910531F466
:1045D00084EA90E0FC01808191810DC089819A81FB
:1045E0008032914031F484E291E0FC01808191813C
:1045F00002C080E090E00F900F90DF91CF9108957E
:10460000CF93DF9300D000D01F92CDB7DEB79C834D
:104610008B836D838B819C819A8389838D81882391
:1046200049F489819A81FC01208189819A81FC0168
:1046300020830FC08D81843061F489819A81019635
:1046400029813A812F5F3F4FF90120812860FC01C9
:10465000208300000F900F900F900F900F90DF912C
:10466000CF910895CF93DF93CDB7DEB780E890E088
:104670000E94C622DF91CF910895CF93DF93CDB7EB
:10468000DEB780E890E00E94A32180E890E00E94DD
:104690007E220000DF91CF910895CF93DF93CDB7B5
:1046A000DEB780E890E00E947E2280E890E00E94E1
:1046B0005B210000DF91CF910895CF93DF93CDB7B9
:1046C000DEB780E890E00E94132180E890E00E942D
:1046D00036220000DF91CF910895CF93DF93CDB7BD
:1046E000DEB780E890E00E94EA2A0000DF91CF91D7
:1046F0000895CF93DF9300D0CDB7DEB79A83898337
:1047000089819A81AC0168E080E890E00E94EB2109
:1047100000000F900F90DF91CF910895CF93DF931A
:10472000CDB7DEB70E94D11FDF91CF910895CF930F
:10473000DF931F92CDB7DEB7898389810E94E11F85
:1047400000000F90DF91CF910895CF93DF931F92D8
:10475000CDB7DEB780E890E00E94D12A6EE374E224
:1047600080E890E00E94032B60E080E890E00E94E7
:10477000002380E890E00E94132180E890E00E94EE
:10478000E02380E890E00E94A32161E080E890E0CF
:104790000E94C42080E890E00E940B20DC01CB0145
:1047A00020E432E44FE050E0BC01CD010E945343CD
:1047B000DA01C901898389810F90DF91CF91089532
:1047C000CF93DF9300D0CDB7DEB79A8389838981F9
:1047D0009A818038910579F089819A818039910593
:1047E00051F089819A81803A910529F089819A81D5
:1047F0008032914039F468E474E280E890E00E94ED
:10480000442B36C089819A818138910579F089815C
:104810009A818139910551F089819A81813A910576
:1048200029F089819A818132914039F468E474E2F7
:1048300080E890E00E94852B1BC089819A81823894
:10484000910579F089819A818239910551F08981A8
:104850009A81823A910529F089819A818232914028
:1048600039F468E474E280E890E00E94C62B00C04E
:1048700000000F900F90DF91CF910895CF93DF93B9
:10488000CDB7DEB70E944D3F0000DF91CF91089574
:10489000CF93DF93CDB7DEB70E94853F0000DF9155
:1048A000CF910895CF93DF931F92CDB7DEB78FE5F9
:1048B00090E0FC0180818983F89489810F90DF91D9
:1048C000CF910895CF93DF931F92CDB7DEB7898341
:1048D0008FE590E02981FC01208300000F90DF919B
:1048E000CF910895EF92FF920F931F93CF93DF9391
:1048F000CDB7DEB72C970FB6F894DEBF0FBECDBF95
:104900006B837C838D839E832F83388749875A8767
:104910001C870B878F819885A985BA858093AD0FF9
:104920009093AE0FA093AF0FB093B00F8B859C8583
:104930009A8389838B819C81AD81BE8188279F5F0B
:10494000AF4FBF4F8093B10F9093B20FA093B30FAF
:10495000B093B40F8B819C81AD81BE81882705EB1C
:104960001FE020E031E040E050E0BC01CD010E94BA
:10497000652525EB3FE040E051E060E070E0CB01D1
:104980000E949C472091AD0F3091AE0F4091AF0F28
:104990005091B00F8B819C81AD81BE81280F391F52
:1049A0004A1F5B1F8091B10F9091B20FA091B30F7E
:1049B000B091B40F82179307A407B507A0F48091B4
:1049C000B10F9091B20FA091B30FB091B40F9C01B1
:1049D0008B819C817901E81AF90AC7019093B6107E
:1049E0008093B5100CC08091AD0F9091AE0FA09147
:1049F000AF0FB091B00F9093B6108093B510209187
:104A0000AD0F3091AE0F4091AF0F5091B00F80912C
:104A1000B5109091B610CC01A0E0B0E079018A0108
:104A2000E81AF90A0A0B1B0BD801C7018093AD0FD6
:104A30009093AE0FA093AF0FB093B00F4091B5100D
:104A40005091B61029813A818B819C81AD81BE81C4
:104A5000BC01CD010E949C478B819C81AD81BE81B0
:104A6000BC01CD010E94A9488091B10F9091B20F75
:104A7000A091B30FB091B40F8B839C83AD83BE83A1
:104A80008091B5109091B61029813A81820F931FC1
:104A90009A8389838091AD0F9091AE0FA091AF0F53
:104AA000B091B00F892B8A2B8B2B09F043CF0000DC
:104AB0002C960FB6F894DEBF0FBECDBFDF91CF911D
:104AC0001F910F91FF90EF9008950F931F93CF9335
:104AD000DF93CDB7DEB762970FB6F894DEBF0FBE97
:104AE000CDBF69877A878B879C872D873E874F87C5
:104AF000588B1A8B098B0E9452248B831A8219823D
:104B000029C029893A8989819A81B901680F791F59
:104B100089859A85AB85BC859C01AD012F5F3F4F90
:104B20004F4F5F4F29873A874B875C878C839D83E4
:104B3000AE83BF838C819D81AE81BF81ABBFFC0101
:104B4000879188878885FB01808389819A81019676
:104B50009A83898389819A819C0140E050E08D8508
:104B60009E85AF85B889281739074A075B0748F241
:104B70008B810E946224000062960FB6F894DEBF1B
:104B80000FBECDBFDF91CF911F910F910895CF93AD
:104B9000DF931F92CDB7DEB78FE590E0FC018081F7
:104BA0008983F89489810F90DF91CF910895CF93F5
:104BB000DF931F92CDB7DEB789838FE590E029811F
:104BC000FC01208300000F90DF91CF910895CF93D7
:104BD000DF9300D0CDB7DEB79A83898389819A812C
:104BE000892B09F47BC089819A818837910549F422
:104BF00061E080E00E941B3960E180E00E941B3987
:104C00006DC089819A81803C910529F462E080E041
:104C10000E941B3963C089819A818C34910529F4E3
:104C200064E080E00E941B3959C089819A818038F4
:104C3000910529F468E080E00E941B394FC089810A
:104C40009A818434910529F460E280E00E941B3946
:104C500045C089819A81803B910529F460E480E018
:104C60000E941B393BC089819A81883B910529F4B8
:104C700060E880E00E941B3931C089819A81883CBC
:104C8000910529F461E081E00E941B3927C08981E8
:104C90009A818039910529F468E081E00E941B39EE
:104CA0001DC089819A81803A910529F460E181E0F3
:104CB0000E941B3913C089819A818032914029F466
:104CC00060E281E00E941B3909C089819A818334A6
:104CD000914021F460E481E00E941B3900000F90B4
:104CE0000F90DF91CF910895CF93DF9300D0CDB790
:104CF000DEB79A83898389819A81892B09F47BC0E5
:104D000089819A818837910549F461E080E00E94A9
:104D1000503960E180E00E9450396DC089819A81EC
:104D2000803C910529F462E080E00E94503963C024
:104D300089819A818C34910529F464E080E00E9495
:104D4000503959C089819A818038910529F468E0E9
:104D500080E00E9450394FC089819A818434910546
:104D600029F460E280E00E94503945C089819A812F
:104D7000803B910529F460E480E00E9450393BC0FB
:104D800089819A81883B910529F460E880E00E943E
:104D9000503931C089819A81883C910529F461E0BC
:104DA00081E00E94503927C089819A81803991051C
:104DB00029F468E081E00E9450391DC089819A8100
:104DC000803A910529F460E181E00E94503913C0D6
:104DD00089819A818032914029F460E281E00E94C9
:104DE000503909C089819A818334914021F460E46B
:104DF00081E00E94503900000F900F90DF91CF9119
:104E000008951F920F9200905F000F92112400905E
:104E10005B000F922F933F934F935F936F937F931A
:104E20008F939F93AF93BF93EF93FF93CF93DF93B2
:104E3000CDB7DEB78091B7109091B810892B31F0C3
:104E40008091B7109091B810FC0109950000DF9196
:104E5000CF91FF91EF91BF91AF919F918F917F91F2
:104E60006F915F914F913F912F910F9000925B0056
:104E70000F9000925F000F901F9018951F920F9255
:104E800000905F000F92112400905B000F922F930F
:104E90003F934F935F936F937F938F939F93AF93C2
:104EA000BF93EF93FF93CF93DF93CDB7DEB780919E
:104EB000B9109091BA10892B31F08091B91090916E
:104EC000BA10FC0109950000DF91CF91FF91EF919D
:104ED000BF91AF919F918F917F916F915F914F9112
:104EE0003F912F910F9000925B000F9000925F0016
:104EF0000F901F9018951F920F9200905F000F92D5
:104F0000112400905B000F922F933F934F935F9378
:104F10006F937F938F939F93AF93BF93EF93FF9381
:104F2000CF93DF93CDB7DEB78091BB109091BC10CB
:104F3000892B31F08091BB109091BC10FC01099538
:104F40000000DF91CF91FF91EF91BF91AF919F91C1
:104F50008F917F916F915F914F913F912F910F9022
:104F600000925B000F9000925F000F901F901895C9
:104F70001F920F9200905F000F92112400905B002F
:104F80000F922F933F934F935F936F937F938F93E2
:104F90009F93AF93BF93EF93FF93CF93DF93CDB7DF
:104FA000DEB78091BD109091BE10892B31F08091B9
:104FB000BD109091BE10FC0109950000DF91CF91CA
:104FC000FF91EF91BF91AF919F918F917F916F91E1
:104FD0005F914F913F912F910F9000925B000F9046
:104FE00000925F000F901F9018951F920F920090F3
:104FF0005F000F92112400905B000F922F933F935C
:105000004F935F936F937F938F939F93AF93BF93D0
:10501000EF93FF93CF93DF93CDB7DEB78091BF10AF
:105020009091C010892B31F08091BF109091C010E9
:10503000FC0109950000DF91CF91FF91EF91BF91A5
:10504000AF919F918F917F916F915F914F913F9120
:105050002F910F9000925B000F9000925F000F90D5
:105060001F9018951F920F9200905F000F921124CD
:1050700000905B000F922F933F934F935F936F933A
:105080007F938F939F93AF93BF93EF93FF93CF93B0
:10509000DF93CDB7DEB78091C1109091C210892BFC
:1050A00031F08091C1109091C210FC01099500006F
:1050B000DF91CF91FF91EF91BF91AF919F918F9130
:1050C0007F916F915F914F913F912F910F9000923F
:1050D0005B000F9000925F000F901F9018951F9239
:1050E0000F9200905F000F92112400905B000F92CE
:1050F0002F933F934F935F936F937F938F939F93E0
:10510000AF93BF93EF93FF93CF93DF93CDB7DEB70A
:105110008091C3109091C410892B31F08091C310FD
:105120009091C410FC0109950000DF91CF91FF918F
:10513000EF91BF91AF919F918F917F916F915F910F
:105140004F913F912F910F9000925B000F90009232
:105150005F000F901F9018951F920F9200905F00B4
:105160000F92112400905B000F922F933F934F9367
:105170005F936F937F938F939F93AF93BF93EF93BF
:10518000FF93CF93DF93CDB7DEB78091C510909199
:10519000C610892B31F08091C5109091C610FC018A
:1051A00009950000DF91CF91FF91EF91BF91AF91F1
:1051B0009F918F917F916F915F914F913F912F912F
:1051C0000F9000925B000F9000925F000F901F9075
:1051D00018951F920F9200905F000F92112400907B
:1051E0005B000F922F933F934F935F936F937F9347
:1051F0008F939F93AF93BF93EF93FF93CF93DF93DF
:10520000CDB7DEB78091C7109091C810892B31F0CF
:105210008091C7109091C810FC0109950000DF91A2
:10522000CF91FF91EF91BF91AF919F918F917F911E
:105230006F915F914F913F912F910F9000925B0082
:105240000F9000925F000F901F9018951F920F9281
:1052500000905F000F92112400905B000F922F933B
:105260003F934F935F936F937F938F939F93AF93EE
:10527000BF93EF93FF93CF93DF93CDB7DEB78091CA
:10528000C9109091CA10892B31F08091C91090916A
:10529000CA10FC0109950000DF91CF91FF91EF91B9
:1052A000BF91AF919F918F917F916F915F914F913E
:1052B0003F912F910F9000925B000F9000925F0042
:1052C0000F901F9018951F920F9200905F000F9201
:1052D000112400905B000F922F933F934F935F93A5
:1052E0006F937F938F939F93AF93BF93EF93FF93AE
:1052F000CF93DF93CDB7DEB78091CB109091CC10D8
:10530000892B31F08091CB109091CC10FC01099544
:105310000000DF91CF91FF91EF91BF91AF919F91ED
:105320008F917F916F915F914F913F912F910F904E
:1053300000925B000F9000925F000F901F901895F5
:105340001F920F9200905F000F92112400905B005B
:105350000F922F933F934F935F936F937F938F930E
:105360009F93AF93BF93EF93FF93CF93DF93CDB70B
:10537000DEB78091CD109091CE10892B31F08091C5
:10538000CD109091CE10FC0109950000DF91CF91D6
:10539000FF91EF91BF91AF919F918F917F916F910D
:1053A0005F914F913F912F910F9000925B000F9072
:1053B00000925F000F901F9018951F920F9200901F
:1053C0005F000F92112400905B000F922F933F9388
:1053D0004F935F936F937F938F939F93AF93BF93FD
:1053E000EF93FF93CF93DF93CDB7DEB78091CF10CC
:1053F0009091D010892B31F08091CF109091D010E6
:10540000FC0109950000DF91CF91FF91EF91BF91D1
:10541000AF919F918F917F916F915F914F913F914C
:105420002F910F9000925B000F9000925F000F9001
:105430001F9018951F920F9200905F000F921124F9
:1054400000905B000F922F933F934F935F936F9366
:105450007F938F939F93AF93BF93EF93FF93CF93DC
:10546000DF93CDB7DEB78091D1109091D210892B08
:1054700031F08091D1109091D210FC01099500007B
:10548000DF91CF91FF91EF91BF91AF919F918F915C
:105490007F916F915F914F913F912F910F9000926B
:1054A0005B000F9000925F000F901F9018951F9265
:1054B0000F9200905F000F92112400905B000F92FA
:1054C0002F933F934F935F936F937F938F939F930C
:1054D000AF93BF93EF93FF93CF93DF93CDB7DEB737
:1054E0008091D3109091D410892B31F08091D310FA
:1054F0009091D410FC0109950000DF91CF91FF91AC
:10550000EF91BF91AF919F918F917F916F915F913B
:105510004F913F912F910F9000925B000F9000925E
:105520005F000F901F9018951F920F9200905F00E0
:105530000F92112400905B000F922F933F934F9393
:105540005F936F937F938F939F93AF93BF93EF93EB
:10555000FF93CF93DF93CDB7DEB78091D5109091B5
:10556000D610892B31F08091D5109091D610FC0186
:1055700009950000DF91CF91FF91EF91BF91AF911D
:105580009F918F917F916F915F914F913F912F915B
:105590000F9000925B000F9000925F000F901F90A1
:1055A0001895CF93DF9300D01F92CDB7DEB79B83C2
:1055B0008A830E94C72589838A819B810E94E7256F
:1055C00089810E94D72500000F900F900F90DF91E6
:1055D000CF910895CF93DF9300D01F92CDB7DEB760
:1055E0009B838A830E94C72589838A819B810E942D
:1055F000742689810E94D72500000F900F900F908C
:10560000DF91CF910895CF93DF9300D000D0CDB735
:10561000DEB79A8389837C836B8389819A81803802
:10562000910539F48B819C819093B8108093B710C9
:1056300023C089819A818039910539F48B819C81BD
:105640009093C0108093BF1017C089819A81803ACF
:10565000910539F48B819C819093C8108093C71079
:105660000BC089819A818032914031F48B819C8179
:105670009093D0108093CF1000000F900F900F9058
:105680000F90DF91CF910895CF93DF9300D000D09A
:10569000CDB7DEB79A8389837C836B8389819A81B6
:1056A0008038910539F48B819C819093BA10809356
:1056B000B91023C089819A818039910539F48B8191
:1056C0009C819093C2108093C11017C089819A81E8
:1056D000803A910539F48B819C819093CA10809314
:1056E000C9100BC089819A818032914031F48B813D
:1056F0009C819093D2108093D11000000F900F9056
:105700000F900F90DF91CF910895CF93DF9300D04A
:1057100000D0CDB7DEB79A8389837C836B83898180
:105720009A818038910539F48B819C819093BC10CB
:105730008093BB1023C089819A818039910539F407
:105740008B819C819093C4108093C31017C0898172
:105750009A81803A910539F48B819C819093CC1089
:105760008093CB100BC089819A818032914031F4B3
:105770008B819C819093D4108093D31000000F9064
:105780000F900F900F90DF91CF910895CF93DF93FB
:1057900000D000D0CDB7DEB79A8389837C836B833A
:1057A00089819A818038910539F48B819C8190930D
:1057B000BE108093BD1023C089819A8180399105E4
:1057C00039F48B819C819093C6108093C51017C0CB
:1057D00089819A81803A910539F48B819C819093DB
:1057E000CE108093CD100BC089819A818032914078
:1057F00031F48B819C819093D6108093D51000005A
:105800000F900F900F900F90DF91CF910895CF934D
:10581000DF93CDB7DEB70000DF91CF910895CF932E
:10582000DF93CDB7DEB765970FB6F894DEBF0FBE36
:10583000CDBF9B8B8A8B6C8B4D8B8A899B89892BE7
:1058400021F11092D71082E080930D028A899B8902
:1058500020E1FC01A9EDB0E101900D922A95E1F75C
:10586000198210C08FE391E02981222F30E04A890C
:105870005B89240F351FF9012081FC012083898178
:105880008F5F89838981803168F38D89882F90E0CB
:10589000009719F00197D1F059C080910D02813025
:1058A00009F056C019820EC08FE391E02981222FA2
:1058B00030E027523F4EF9012081FC01208389818D
:1058C0008F5F89838981803178F342C080910D0296
:1058D0008130E1F19091D71081E08927882311F17F
:1058E0001092D8108CE391E02091D810FC01208315
:1058F000CE0102960E941B2D19820EC08981882F2D
:1059000090E02FE331E0F901208187519F4EFC01A7
:10591000208389818F5F89838981803178F381E059
:105920008093D71019820EC08FE391E02981222F36
:1059300030E027513F4EF9012081FC01208389810D
:105940008F5F89838981803178F303C080E02DC027
:1059500000008D8980930D028C89882F90E002973A
:1059600018F58C89882F90E0880F991F8295929561
:10597000907F9827807F9827282F20728D89882FE5
:1059800090E0880F991F880F991F880F991F8870C2
:10599000822B8093D81000008CE391E02091D810E6
:1059A000FC01208381E001C080E065960FB6F89489
:1059B000DEBF0FBECDBFDF91CF910895CF93DF93B0
:1059C00000D01F92CDB7DEB780910D02882329F455
:1059D00089ED90E19B838A8304C089EE90E19B83EB
:1059E0008A83198210C02FE331E08A819B81AC0148
:1059F0004F5F5F4F5B834A83FC018081F9018083A5
:105A000089818F5F89838981803168F38CE391E09C
:105A10002091D810FC01208300000F900F900F9070
:105A2000DF91CF910895CF93DF93CDB7DEB700001C
:105A3000DF91CF910895CF93DF9300D01F92CDB720
:105A4000DEB79B838A83198210C02EE331E08A81FE
:105A50009B81AC014F5F5F4F5B834A83FC01808178
:105A6000F901808389818F5F89838981803168F31F
:105A70008CE391E02091D8102068FC012083000085
:105A80008DE391E0FC018081882F90E0817099275F
:105A9000892BB1F300000F900F900F90DF91CF9101
:105AA0000895CF93DF9300D01F92CDB7DEB79B83CD
:105AB0008A83198210C08A819B819C012F5F3F4F8E
:105AC0003B832A832EE331E0F9012081FC0120830E
:105AD00089818F5F89838981803168F300000F900D
