:100000000C9471010C9490010C9490010C9490014B
:100010000C9490010C9490010C9490010C9490011C
:100020000C9490010C9490010C9490010C9490010C
:100030000C9490410C9490010C9490010C949001BC
:100040000C9490010C94F8300C9435310C9472316E
:100050000C94BB300C9490010C9490010C94900182
:100060000C9490010C948C450C9490010C9490018C
:100070000C9490010C9490010C9490010C949001BC
:100080000C94EC310C9429320C9466320C94AF3100
:100090000C9490010C9490010C9490010C9490019C
:1000A0000C9490010C9490010C94E0320C941D334C
:1000B0000C945A330C94A3320C9490010C94D433C6
:1000C0000C9411340C944E340C9497330C9490018E
:1000D0000C9490010C9490010C9490010C9490015C
:1000E0000C9490010C9490010C9490010C9490014C
:1000F0000C9490010C9490010C9490010C9490013C
:100100000C9490010C94A1380C94DE380C941B399B
:100110000C9464380C9458390C9490010C94900110
:100120006E616E00696E660000407A10F35A00A09E
:10013000724E18090010A5D4E80000E876481700B0
:1001400000E40B54020000CA9A3B000000E1F505F0
:10015000000080969800000040420F000000A0863A
:1001600001000000102700000000E803000000006C
:100170006400000000000A00000000000100000010
:1001800000002C76D888DC674F0823DFC1DFAE592A
:10019000E1B1B796E5E3E453C63AE651997696E8BD
:1001A000E6C28426EB898C9B62ED407C6FFCEFBC41
:1001B0009C9F40F2BAA56FA5F490055A2AF75C936C
:1001C0006B6CF9676DC11BFCE0E40D47FEF520E6A2
:1001D000B500D0ED902E0300943577050080841E85
:1001E000080000204E0A000000C80C333333330FE0
:1001F000986E12831141EF8D2114893BE65516CF7D
:10020000FEE6DB18D1844B381BF77C1D901DA4BB88
:10021000E424203284725E228100C9F124ECA1E53D
:100220003D27330019000C00060003000200010006
:10023000FF00A001CF006700330019000C00070089
:1002400008004003A001CF00670033001900100030
:100250001000330019000C0006000300020001002A
:10026000FF00A001CF006700330019000C00070059
:1002700008004003A001CF00670033001900100000
:100280001000330019000C000600030002000100FA
:10029000FF00A001CF006700330019000C00070029
:1002A00008004003A001CF006700330019001000D0
:1002B0001000330019000C000600030002000100CA
:1002C000FF00A001CF006700330019000C000700F9
:1002D00008004003A001CF006700330019001000A0
:1002E000100011241FBECFEFD1E4DEBFCDBF12E05E
:1002F000A0E0B2E0EEE0FAEB00E00BBF02C0079036
:100300000D92AC3AB107D9F72DE1ACEAB2E001C0E9
:100310001D92AF3EB207E1F70E945B050C94595B5A
:100320000C940000CF93DF93CDB7DEB780E094E26A
:10033000A4EFB0E0BC01CD01DF91CF910895CF9340
:10034000DF93CDB7DEB70E949201DC01CB01BC0187
:10035000CD01DF91CF910895CF93DF9300D0CDB73A
:10036000DEB79A83898389819A81FC018081282F55
:10037000226089819A81FC01208300000F900F90F8
:10038000DF91CF910895CF93DF93CDB7DEB72B9751
:100390000FB6F894DEBF0FBECDBF998788877B87E5
:1003A0006A878A859B85FC0184818D838A859B85EC
:1003B000FC0185818E838A859B85FC0186818F83E4
:1003C0008A859B85FC0180819181A281B38189838B
:1003D0009A83AB83BC83888599859E012F5F3F4FAD
:1003E000B9010E94E83C882311F081E001C080E05F
:1003F0002B960FB6F894DEBF0FBECDBFDF91CF9125
:100400000895CF93DF9300D01F92CDB7DEB79A83C4
:1004100089836B8389819A816B810E94F63E0F905C
:100420000F900F90DF91CF910895CF93DF9300D07D
:1004300000D0CDB7DEB79A8389837C836B838981B3
:100440009A810E94153F282F8B819C81FC0120837B
:1004500000000F900F900F900F90DF91CF910895B3
:10046000CF93DF9300D000D0CDB7DEB79A838983D6
:100470007C836B8389819A819093E31D8093E21D35
:1004800081E092E09093E11D8093E01D85E192E090
:100490009093DF1D8093DE1D2B813C8189819A81A1
:1004A000B9010E94C30168EC73E487EE93E40E94F3
:1004B000C25800000F900F900F900F90DF91CF91D6
:1004C0000895CF93DF93CDB7DEB78CED90E02CEDA0
:1004D00030E0F90120812064FC0120838CED90E064
:1004E0002CED30E0F9012081277FFC012083000002
:1004F000DF91CF910895CF93DF9300D0CDB7DEB7D2
:100500009A83898387E292E0892F8F9387E292E032
:100510008F930E9449590F900F9000000F900F90F9
:10052000DF91CF910895CF93DF93CDB7DEB72B97AF
:100530000FB6F894DEBF0FBECDBF9B878A8784E2DB
:10054000898381E08A8389818B838A818C838B81F3
:100550008695869586958D838D81282F30E0C901FB
:10056000880F991F820F931F80969F838E838C81A3
:100570008823D1F08E819F81FC0142818B81888705
:100580008885882F90E09C012770332781E090E0D8
:1005900002C0880F991F2A95E2F7242F282B8E81FD
:1005A0009F81FC0122831BC08E819F81FC0182817F
:1005B000482F8B8189878985882F90E09C0127703F
:1005C000332781E090E002C0880F991F2A95E2F757
:1005D00080958423282F8E819F81FC012283000037
:1005E0002B960FB6F894DEBF0FBECDBFDF91CF9133
:1005F0000895CF93DF93CDB7DEB72A970FB6F8945F
:10060000DEBF0FBECDBF9E838D8378876F835A87F1
:1006100049871A8219821C821B8232C02F81388539
:100620008B819C81820F931FFC018081482F50E0B9
:100630002D813E8189819A81820F931F252F2F93CF
:10064000242F2F9325E332E0232F2F9325E332E04D
:100650002F93292F2F938F930E945D590F900F9006
:100660000F900F900F900F909C0189819A81820FBB
:10067000931F9A8389838B819C8101969C838B83B2
:100680002B813C8189859A852817390738F22D817D
:100690003E8189819A81820F931FFC0110820000A4
:1006A0002A960FB6F894DEBF0FBECDBFDF91CF9173
:1006B0000895CF93DF93CDB7DEB70E94610283E048
:1006C0008093B7020000DF91CF910895CF93DF931D
:1006D000CDB7DEB78FE08093B7020000DF91CF91F6
:1006E0000895CF93DF93CDB7DEB728970FB6F89470
:1006F000DEBF0FBECDBF0E94DE089C838B830E94AD
:10070000A905882F90E09E838D830E94B205882FD3
:1007100090E02C812F932B812F93292F2F938F9350
:100720008E818F938D818F938AE392E0892F8F93AF
:100730008AE392E08F930E9449598DB79EB708963D
:100740000FB6F894DEBF0FBECDBF81E0898338C0FD
:100750001A8230C069818A810E944D0C98878F83EC
:100760008F819885892B19F18A81882F90E09C01CF
:100770002F5F3F4F8981813019F48FE492E002C0EE
:1007800081E592E0432F4F932F93292F2F938F933F
:1007900083E592E0892F8F9383E592E08F930E9407
:1007A00049590F900F900F900F900F900F908A81E2
:1007B0008F5F8A838A818E3068F289818F5F898317
:1007C0008981833028F281E08093B7020000289667
:1007D0000FB6F894DEBF0FBECDBFDF91CF91089565
:1007E000CF93DF93CDB7DEB72A970FB6F894DEBF6D
:1007F0000FBECDBF84E28A831B828A818C838B816A
:100800008D838C818695869586958E838E81282F03
:1008100030E0C901880F991F820F931F8096988737
:100820008F838D818823D1F08F819885FC0142814F
:100830008C8189878985882F90E09C0127703327D8
:1008400081E090E002C0880F991F2A95E2F7242FDB
:10085000282B8F819885FC0122831BC08F8198856E
:10086000FC018281482F8C818A878A85882F90E0BD
:100870009C012770332781E090E002C0880F991F08
:100880002A95E2F780958423282F8F819885FC0193
:10089000228388EB92E00E94282780910A0290919F
:1008A0000B029C012F5F3F4F30930B0220930A02F3
:1008B000292F2F938F9385E692E0892F8F9385E6DA
:1008C00092E08F930E9449590F900F900F900F90D4
:1008D0000E940D120E945D0B89ED92E00E943F1272
:1008E0008DE094E00E94561289834EE050E06DE066
:1008F00074E08BE893E00E94F9028981882F90E0F0
:100900002BE833E0232F2F932BE833E02F93292F6D
:100910002F938F9383E792E0892F8F9383E792E061
:100920008F930E9449590F900F900F900F900F9046
:100930000F9040E250E069ED72E08BE893E00E9496
:10094000F9028BE893E0892F8F938BE893E08F93E4
:1009500088E892E0892F8F9388E892E08F930E9435
:1009600049590F900F900F900F9085EC92E00E94E4
:100970009B1300002A960FB6F894DEBF0FBECDBFC2
:10098000DF91CF910895CF93DF93CDB7DEB72B974B
:100990000FB6F894DEBF0FBECDBF9B878A8785E276
:1009A0008B838B818C838C818D838D8186958695BD
:1009B00086958E838E81282F30E0C901880F991F7C
:1009C000820F931F809698878F838C818987898572
:1009D000882F90E09C012770332781E090E002C0CF
:1009E000880F991F2A95E2F7282F8F819885FC019F
:1009F00020838A859B850E94A5108A859B850E94FD
:100A0000830B8A859B85FC01878190859A838983E6
:100A100089819A81FC018081833069F48A859B8574
:100A2000FC018081918190932E0380932D0388E2B5
:100A300093E00E949B1381E02B960FB6F894DEBFE3
:100A40000FBECDBFDF91CF910895CF93DF93CDB788
:100A5000DEB784EC99E0A0E0B0E08093540490937A
:100A60005504A0935604B093570481E08093580432
:100A70008BE792E090935A04809359048EE494E0BB
:100A80000E9428270000DF91CF910895CF93DF9334
:100A9000CDB7DEB78091B702882F90E0892B09F09F
:100AA00006C00E94250581E08093B7020000000087
:100AB000DF91CF9108950F931F93CF93DF93CDB71D
:100AC000DEB727970FB6F894DEBF0FBECDBF0E94EA
:100AD000AF420E94E4450E94D22681E00E94882312
:100AE0000E941238789427E0EBE9F2E0CE010196FB
:100AF000DC0101900D922A95E1F7CE010196BC012F
:100B000080EC90E00E94300280EC90E00E94AC010A
:100B10000E949F01DC01CB018C019D0140E052EC61
:100B200061E070E080EC90E00E94913F0E94E2263C
:100B30000E944605FBCFCF93DF93CDB7DEB710926F
:100B40006B0410922C0810925B040000DF91CF918F
:100B50000895CF93DF93CDB7DEB780915B04DF912B
:100B6000CF910895CF93DF93CDB7DEB780916B041B
:100B7000DF91CF910895CF93DF9300D000D000D0C4
:100B8000CDB7DEB78D836E831C821B821A821982D9
:100B900021C08D81882F90E0098002C095958795AE
:100BA0000A94E2F781709927892B79F08E81882F3A
:100BB00090E0098002C0880F991F0A94E2F72B8108
:100BC0003C81822793279C838B8389819A8101961C
:100BD0009A83898389819A810897DCF286E090E084
:100BE0009A83898323C080E091E0098002C0880F46
:100BF000991F0A94E2F79C018B819C8182239323A5
:100C0000892B79F089EA91E0098002C0880F991F49
:100C10000A94E2F79C018B819C81822793279C8315
:100C20008B8389819A8101979A83898389819A81AB
:100C30009923CCF68B8126960FB6F894DEBF0FBEB3
:100C4000CDBFDF91CF910895CF93DF93CDB7DEB7BE
:100C500069970FB6F894DEBF0FBECDBF898F898D1F
:100C6000882311F480E0B6C01A82198268C0898D89
:100C7000882F90E09C01098002C0220F331F0A9444
:100C8000E2F789819A81880F991FAE014F5F5F4F0C
:100C9000840F951F0896FC013183208386E090E045
:100CA0009C838B8342C089819A81880F991F9E0102
:100CB0002F5F3F4F820F931F0896FC018081918127
:100CC00020E031E00B8002C0220F331F0A94E2F7CC
:100CD00082239323892B21F189819A81880F991F7F
:100CE0009E012F5F3F4F820F931F0896FC0180816A
:100CF000918129EA31E00B8002C0220F331F0A9450
:100D0000E2F72827392789819A81880F991FAE0138
:100D10004F5F5F4F840F951F0896FC01318320833E
:100D20008B819C8101979C838B838B819C819923F0
:100D30000CF0B9CF89819A8101969A838983898140
:100D40009A8108970CF493CF1E821D823BC01886AF
:100D50001F821A82198227C081E090E0098002C0B8
:100D6000880F991F0A94E2F79C018D819E8182234E
:100D70009323892B99F089819A81880F991F9E016D
:100D80002F5F3F4F820F931F0896FC018081918156
:100D90002F8138858227932798878F8389819A812D
:100DA00001969A83898389819A810897ACF28F8111
:100DB0009885019711F48D810DC08D819E810196DA
:100DC0009E838D838D819E818F3F910509F008F46C
:100DD000BECF80E069960FB6F894DEBF0FBECDBFE0
:100DE000DF91CF910895CF93DF93CDB7DEB72897EA
:100DF0000FB6F894DEBF0FBECDBF9E838D8378877C
:100E00006F838D819E819A8389834AC08D819E8163
:100E10004FE0489F9001499F300D112489819A81AC
:100E2000820F931F835D974FFC018081882F90E094
:100E30009C838B838F8198854FE0489F9001499FC9
:100E4000300D112489819A81820F931F835D974F02
:100E5000FC0140818D819E815FE0589F9001599FE8
:100E6000300D112489819A81820F931F835D974FE2
:100E7000FC0140834B818F8198855FE0589F9001F2
:100E8000599F300D112489819A81820F931F835DB0
:100E9000974FFC01408389819A8101969A838983C7
:100EA00089819A81409708F4B1CF1A8219825AC079
:100EB0008D819E819C010024369527950794369557
:100EC00027950794322F202D89819A81820F931FB5
:100ED000825F964FFC018081882F90E09C838B83FA
:100EE0008F8198859C010024369527950794369527
:100EF00027950794322F202D89819A81820F931F85
:100F0000825F964FFC0140818D819E819C0100246F
:100F1000369527950794369527950794322F202DDF
:100F200089819A81820F931F825F964FFC014083D3
:100F30004B818F8198859C010024369527950794D5
:100F4000369527950794322F202D89819A81820F1B
:100F5000931F825F964FFC01408389819A8101969D
:100F60009A83898389819A818034910508F4A0CF7E
:100F7000000028960FB6F894DEBF0FBECDBFDF91FC
:100F8000CF910895CF93DF93CDB7DEB727970FB6F4
:100F9000F894DEBF0FBECDBF8B837D836C835F83F0
:100FA0004E838C819D819A8389833CC08C819D81F5
:100FB0004FE0489F9001499F300D112489819A810B
:100FC000820F931F835D974FFC018081682F8B8177
:100FD0000E94BB05582F8E819F814FE0489F900152
:100FE000499F300D112489819A81820F931F835D5F
:100FF000974FFC018081482F45278E819F815FE0BC
:10100000589F9001599F300D112489819A81820F38
:10101000931F835D974FFC01408389819A810196DC
:101020009A83898389819A81409708F4BFCF1A8275
:10103000198247C08C819D819C010024369527959B
:101040000794369527950794322F202D89819A8110
:10105000820F931F825F964FFC018081682F8B81E6
:101060000E94BB05482F8E819F819C0100243695EC
:1010700027950794369527950794322F202D89813F
:101080009A81820F931F825F964FFC0180814827CF
:101090008E819F819C010024369527950794369573
:1010A00027950794322F202D89819A81820F931FD3
:1010B000825F964FFC01408389819A8101969A83D1
:1010C000898389819A818034910508F4B3CF000027
:1010D00027960FB6F894DEBF0FBECDBFDF91CF913C
:1010E00008951F93CF93DF9300D000D000D0CDB7E9
:1010F000DEB79C838B837E836D838B819C8101967D
:101100009A83898346C089819A814FE0489F9001E4
:10111000499F300D11248D819E81820F931F835D25
:10112000974FFC018081882379F189819A814FE072
:10113000489F9001499F300D11248D819E81820F1F
:10114000931F835D974FFC0110818B819C814FE041
:10115000489F9001499F300D11248D819E81820FFF
:10116000931F835D974FFC0180810E942406612FAD
:101170000E94BB05E82F29813A818B819C81A901BE
:10118000BC018E2F0E94C20789819A8101969A83A1
:10119000898380912C08282F30E089819A818217D9
:1011A000930708F4B0CF000026960FB6F894DEBF80
:1011B0000FBECDBFDF91CF911F910895DF92EF92C7
:1011C000FF920F931F93CF93DF93CDB7DEB727978F
:1011D0000FB6F894DEBF0FBECDBF80916B0488239D
:1011E00019F480E090E05BC280916B0480932C083E
:1011F0001A82A9C08A81882F90E0845A9B4FDC0113
:101200008C91882309F49CC019828EC08981482F53
:10121000880F550B8A81882F90E06FE0649F9001C2
:10122000659F300D1124820F931F835D974FFC0142
:101230008081882309F475C01B825CC08A81282FB5
:1012400030E08B81882F90E0002436952795079415
:10125000369527950794322F202D820F931F84599E
:101260009B4FDC017C918981482F880F550B8A8127
:10127000882F90E06FE0649F9001659F300D1124EE
:10128000820F931F835D974FFC018081672F0E941F
:10129000BB05E82F8981282F880F330B8B81882F7E
:1012A00090E04981642F440F770B4B81442F50E02D
:1012B0000024769567950794769567950794762F21
:1012C000602D460F571F425F564FDA014C914E2753
:1012D0000024369527950794369527950794322F45
:1012E000202D820F931F825F964FFC0140838B81DC
:1012F0008F5F8B838B81803408F4A0CF8981482F46
:10130000880F550B8A81882F90E06FE0649F9001D1
:10131000659F300D1124820F931F835D974FDC0171
:101320001C9289818F5F89838981282F880F330BD5
:1013300080912C08882F90E0281739070CF466CF8D
:101340008A818F5F8A838A818F3008F453CF1A8213
:101350001E8265C08E8189838981482F880F550B35
:101360008A81882F90E06FE0649F9001659F300D27
:101370001124820F931F835D974FFC018081882386
:1013800069F08A81282F30E08E81882F90E0B901A2
:101390000E9471088E818F5F8E833EC089818F5F2E
:1013A00089832FC08981482F880F550B8A81882F08
:1013B00090E06FE0649F9001659F300D1124820FD3
:1013C000931F835D974FDC018C918823B9F089814D
:1013D000282F880F330B8E81882F90E0B9010E944F
:1013E000F3068A81282F30E08E81882F90E0B901A2
:1013F0000E9471088E818F5F8E830EC089818F5FFE
:1014000089838981282F880F330B80912C08882F9E
:1014100090E02817390734F28A818F5F8A838A81A6
:101420008F3008F497CF1F8280912C0881508983D8
:101430002DC11D821A821DC08981482F880F550B2E
:101440008A81882F90E06FE0649F9001659F300D46
:101450001124820F931F835D974FFC0180818823A5
:1014600029F08D818F5F8D838A818C838A818F5F44
:101470008A838A818F3000F38D81882331F48091B3
:101480002C08815080932C08FEC08D81813009F09A
:1014900002C11B8248C08C81E82EF12C8B81082F61
:1014A00010E08981282F880F330B8B81882F90E0E3
:1014B0000024369527950794369527950794322F63
:1014C000202D820F931F825F964FDC01DC90898173
:1014D000482F880F550B8C81882F90E06FE0649F18
:1014E0009001659F300D1124820F931F835D974FEC
:1014F000FC0180810E9424066D2D0E94BB05282FCF
:10150000C70100249695879507949695879507942B
:10151000982F802D800F911F84599B4FDC012C93B5
:101520008B818F5F8B838B81803408F4B4CF8C8167
:10153000882F90E0845A9B4F22E0FC012083809109
:101540002C08815080932C088F818F5F8F831982A4
:101550008EC08981482F880F550B8C81882F90E091
:101560006FE0649F9001659F300D1124820F931FDF
:10157000835D974FDC018C91882309F475C01B8231
:101580005CC08C81282F30E08B81882F90E0002474
:10159000369527950794369527950794322F202D59
:1015A000820F931F84599B4FFC0170818981482FC2
:1015B000880F550B8C81882F90E06FE0649F90011D
:1015C000659F300D1124820F931F835D974FDC01BF
:1015D0008C91672F0E94BB05E82F8981282F880FE7
:1015E000330B8B81882F90E04981642F440F770B58
:1015F0004B81442F50E000247695679507947695AB
:1016000067950794762F602D460F571F425F564F00
:10161000DA014C914E27002436952795079436958C
:1016200027950794322F202D820F931F825F964FAC
:10163000FC0140838B818F5F8B838B81803408F426
:10164000A0CF8981482F880F550B8C81882F90E07F
:101650006FE0649F9001659F300D1124820F931FEE
:10166000835D974FDC011C9289818F5F898389811B
:10167000282F880F330B80912C08882F90E0281793
:1016800039070CF466CF8981815089838981882349
:101690000CF0CFCE01C000008F81882F90E02796FC
:1016A0000FB6F894DEBF0FBECDBFDF91CF911F9173
:1016B0000F91FF90EF90DF900895CF93DF93CDB718
:1016C000DEB710926B0410922C0810925B044FE06E
:1016D00050E060E070E08CE594E00E94B05841EE8C
:1016E00050E060E070E08DE298E00E94B05840EC7D
:1016F00053E060E070E08EE099E00E94B058000096
:10170000DF91CF910895CF93DF9300D000D0CDB774
:10171000DEB79C838B838B819C81FC0180819181CE
:10172000892B09F47BC08B819C81FC018081918194
:101730000F9708F073C08B819C81FC018781908595
:101740009A83898389819A81FC018081813061F546
:1017500080915B048F5F80935B048B819C81FC0193
:10176000808191810197845A9B4F21E0FC01208365
:1017700089819A819C012F5F3F4F8B819C81FC0165
:10178000808191810197002496958795079496957D
:1017900087950794982F802D84599B4F40E450E003
:1017A000B9010E94A7583BC089819A81FC018081C0
:1017B0008230A9F589819A81BC016F5F7F4F80914A
:1017C0006B04282F30E04FE0429FC001439F900DF3
:1017D0001124835D974F4FE050E00E94A758898104
:1017E0009A819C01205F3F4F80916B04882F90E08D
:1017F0000024969587950794969587950794982F3A
:10180000802D825F964F40E450E0B9010E94A758B6
:1018100080916B048F5F80936B0401C000000F9078
:101820000F900F900F90DF91CF910895CF93DF939A
:1018300000D01F92CDB7DEB789837B836A83809106
:101840005B048F5F80935B048981882F90E0019710
:10185000845A9B4F21E0FC0120838A819B819C015B
:101860002F5F3F4F8981882F90E001970024969544
:1018700087950794969587950794982F802D84597E
:101880009B4F40E450E0B9010E94A75800000F9020
:101890000F900F90DF91CF910895CF93DF9300D0F9
:1018A000CDB7DEB789836A8389818F30C8F4898197
:1018B000882F90E0845A9B4FFC0190818A81981771
:1018C00079F48981882F90E0002496958795079474
:1018D000969587950794982F802D84599B4F02C029
:1018E00080E090E00F900F90DF91CF9108952F92BC
:1018F0003F924F925F926F927F928F929F92AF92A0
:10190000BF92CF92DF92EF92FF920F931F93CF93EC
:10191000DF93CDB7DEB762970FB6F894DEBF0FBE88
:10192000CDBF988B8F877A8B698B8F8598899A83A7
:10193000898389899A899C838B838B819C81FC0113
:101940008181282F30E089819A81FC018181882F53
:1019500090E0A901481B590BCA019E838D838D819C
:101960009E8199231CF491958195910949971CF0CA
:101970008D819E819AC089819A81FC018489882306
:1019800009F47FC08B819C81FC018489882309F440
:1019900078C089819A81FC01A384FC01B484FC0194
:1019A000C584FC01D684FC01E784FC01F088FC01BD
:1019B0000189FC0112898B819C81FC012384FC013B
:1019C0003484FC014584FC015684FC016784FC01DD
:1019D0007088FC018188FC0192882A2D3B2D4C2DBA
:1019E0005D2D6E2D7F2D802F912FA22CB32CC42C1A
:1019F000D52CE62CF72C082D192D0E944155A22E2E
:101A0000B32EC42ED52EE62EF72E082F192FAF8217
:101A1000B886C986DA86EB86FC860D871E87AF807E
:101A2000B884C984DA84EB84FC840D851E852A2D54
:101A30003B2D4C2D5D2D6E2D7F2D802F912FA0E005
:101A40000E944A5521F01CF08FEF9FEF2EC0AF800F
:101A5000B884C984DA84EB84FC840D851E852A2D24
:101A60003B2D4C2D5D2D6E2D7F2D802F912FA0E0D5
:101A70000E944A551CF481E090E017C080E090E09D
:101A800014C089819A81FC018489882319F081E03E
:101A900090E00BC08B819C81FC018489882319F024
:101AA0008FEF9FEF02C080E090E062960FB6F8944F
:101AB000DEBF0FBECDBFDF91CF911F910F91FF9081
:101AC000EF90DF90CF90BF90AF909F908F907F90DE
:101AD0006F905F904F903F902F9008958F929F92BC
:101AE000AF92BF92CF92DF92EF92FF920F931F932C
:101AF000CF93DF93CDB7DEB71091240F0E94A905D5
:101B0000912F981B892F8093CF0C8091CF0C882325
:101B100014F41092CF0C80910C0290910D02A091C0
:101B20000E02B0910F029C01AD0160E070E080E810
:101B30009FE30E94FA52DC01CB017C018D01809170
:101B4000D00C9091D10CA091D20CB091D30C9C01EF
:101B5000AD01C801B7010E948354DC01CB016C01C7
:101B60007D018091CF0C082E000C990BAA0BBB0BAA
:101B7000BC01CD010E94B6534B015C0180910C0267
:101B800090910D02A0910E02B0910F029C01AD0147
:101B9000C501B4010E948354DC01CB019C01AD015D
:101BA000C701B6010E94FB52DC01CB018093D00C2F
:101BB0009093D10CA093D20CB093D30C80911002CF
:101BC00090911102A0911202B09113029C01AD01FB
:101BD00060E070E080E89FE30E94FA52DC01CB01F4
:101BE0007C018D018091D40C9091D50CA091D60CE4
:101BF000B091D70C9C01AD01C801B7010E9483547C
:101C0000DC01CB016C017D018091CF0C082E000C12
:101C1000990BAA0BBB0BBC01CD010E94B6534B0123
:101C20005C018091D00C9091D10CA091D20CB0911C
:101C3000D30C9C01AD01C501B4010E94FA52DC0134
:101C4000CB01BC01CD010E947E53DC01CB01992365
:101C50001CF4919581959109092E000CAA0BBB0BE0
:101C6000BC01CD010E94B6534B015C018091100272
:101C700090911102A0911202B09113029C01AD014A
:101C8000C501B4010E948354DC01CB019C01AD016C
:101C9000C701B6010E94FB52DC01CB018093D40C3A
:101CA0009093D50CA093D60CB093D70C80911402CE
:101CB00090911502A0911602B09117022091D00CBC
:101CC0003091D10C4091D20C5091D30CBC01CD017C
:101CD0000E948354DC01CB017C018D018091D40CE6
:101CE0009091D50CA091D60CB091D70C9C01AD0170
:101CF000C801B7010E94FB52DC01CB01BC01CD0140
:101D00000E946753DC01CB01BC01CD010E948553C9
:101D1000DC01CB018093CE0C8091CE0C8F3018F07B
:101D20008EE08093CE0C0000DF91CF911F910F9138
:101D3000FF90EF90DF90CF90BF90AF909F908F90EB
:101D40000895CF93DF9300D0CDB7DEB71A82198202
:101D50004BC029813A8145E1429FC001439F900DCC
:101D600011248E51934FFC018081282F30E049814E
:101D70005A8165E1649FC001659F900D11248551D2
:101D8000934FFC018081882F90E0820F931F41E0E8
:101D900004970CF440E029813A8155E1529FC0013B
:101DA000539F900D11248451934FFC01408329814E
:101DB0003A8145E1429FC001439F900D11248E510D
:101DC000934FFC01108229813A8145E1429FC00175
:101DD000439F900D11248551934FFC0110828981FE
:101DE0009A8101969A83898389819A810F970CF44D
:101DF000B0CF00000F900F90DF91CF910895CF9357
:101E0000DF93CDB7DEB729970FB6F894DEBF0FBECC
:101E1000CDBF19821A821B821C8286E291E0E8ED16
:101E2000FCE0AEEFBDE001900D920197E1F71E825C
:101E30001D823CC02D813E8145E1429FC001439FF0
:101E4000900D11248150924FFC018081882369F408
:101E50002D813E8145E1429FC001439F900D112499
:101E60008150924F27E1FC0120832D813E8145E185
:101E7000429FC001439F900D11248150924FFC015D
:101E80008081882F90E0A0E0B0E029813A814B81E9
:101E90005C81820F931FA41FB51F89839A83AB8334
:101EA000BC838D819E8101969E838D838D819E81D1
:101EB0000F970CF4BFCF89819A81AB81BC812EE052
:101EC00030E040E050E0BC01CD010E940455DA0151
:101ED000C90189839A83AB83BC8389819A81AB8151
:101EE000BC814897A105B10540F489E190E0A0E0EC
:101EF000B0E089839A83AB83BC8327E73CE045E16C
:101F000050E06EE070E08EEF9DE00E949D55809164
:101F1000330F8E5F89878985882F90E08D5C904F85
:101F2000FC018081882F90E002969C018985882F92
:101F300090E08D5C904FA901BC0183E39FE00E947B
:101F4000A7588091330F8E5F89871F8218863CC007
:101F50008885282F30E045E1429FC001439F900DC6
:101F600011248150924FFC018081282F30E040E005
:101F700050E089819A81AB81BC81281739074A07D3
:101F80005B07F0F08985282F30E08F81882F90E063
:101F9000820F931F02962F81422F50E065E1649FCC
:101FA0009001659F300D11242250324FF90120819C
:101FB0008D5C904FFC0120838F818F5F8F8301C0E8
:101FC000000088858F5F88878091CE0C9885981750
:101FD00008F4BECF8985882F90E08D5C904F2F81CB
:101FE000FC0120838985882F90E001968D5C904FBD
:101FF00024E0FC012083000029960FB6F894DEBF90
:102000000FBECDBFDF91CF910895CF93DF931F9285
:10201000CDB7DEB71092CE0C1092240F198284C077
:102020008981282F30E0898141E0480F55E1529F96
:10203000C001539F900D11248852934FFC0140839F
:102040008981282F30E045E1429FC001439F900DD8
:1020500011248752934FFC0110828981282F30E090
:1020600045E1429FC001439F900D11248652934F3A
:10207000FC011082FC011182FC011282FC0113821E
:10208000FC011482FC011582FC011682FC011782FE
:102090008981282F30E045E1429FC001439F900D88
:1020A00011248D51934FFC011082FC011182FC011F
:1020B0001282FC011382FC011482FC011582FC01D6
:1020C0001682FC0117828981282F30E045E1429F6A
:1020D000C001439F900D11248E51934FFC0110823B
:1020E0008981282F30E045E1429FC001439F900D38
:1020F00011248551934FFC0110828981282F30E0F3
:1021000045E1429FC001439F900D11248451934F9C
:10211000FC0110828981882F90E08B5D904FFC013B
:10212000108289818F5F898389818E3008F478CF0E
:1021300040E250E060E070E083E39FE00E94B0582E
:1021400000000F90DF91CF910895AF92BF92CF9290
:10215000DF92EF92FF920F931F93CF93DF9300D004
:1021600000D0CDB7DEB79C838B838B819C81DC0153
:102170008D919C91892B09F440C18B819C81FC013C
:10218000808191810F9708F038C18B819C81DC019F
:1021900017968D919C9118979A8389838B819C8146
:1021A000FC01808191819C01215031098B819C81AE
:1021B000DC011B968C91582F45E1429FC001439F43
:1021C000900D11248752934FFC01508389819A818D
:1021D000DC018C91813009F073C08B819C81FC0102
:1021E00080819181FC01319725E12E9FC0012F9FB5
:1021F000900D11248652934FDC01AC90DC011196B6
:10220000BC90DC011296CC90DC011396DC90DC01D2
:102210001496EC90DC011596FC90DC0116960C915E
:10222000DC0117961C912A2D3B2D4C2D5D2D6E2D1A
:102230007F2D802F912FA1E00E943555A22EB32E25
:10224000C42ED52EE62EF72E082F192F25E12E9F0E
:10225000C0012F9F900D11248652934FFC01A08244
:10226000DC011196BC92FC01C282DC011396DC9267
:10227000FC01E482DC011596FC92FC010683DC0182
:1022800017961C938B819C81FC0180819181019721
:1022900045E1489F9001499F300D11242E51334F45
:1022A000D9012C9141E0420F55E1589F9001599F6F
:1022B000300D1124C9018E51934FFC0140839EC003
:1022C00089819A81DC018C91823009F073C08B8105
:1022D0009C81FC0180819181FC01319725E12E9F39
:1022E000C0012F9F900D11248D51934FDC01AC90B4
:1022F000DC011196BC90DC011296CC90DC011396A7
:10230000DC90DC011496EC90DC011596FC90DC016D
:1023100016960C91DC0117961C912A2D3B2D4C2D05
:102320005D2D6E2D7F2D802F912FA1E00E943555C0
:10233000A22EB32EC42ED52EE62EF72E082F192F3F
:1023400025E12E9FC0012F9F900D11248D51934F99
:10235000FC01A082DC011196BC92FC01C282DC016E
:102360001396DC92FC01E482DC011596FC92FC01E0
:102370000683DC0117961C938B819C81FC01808174
:102380009181019745E1489F9001499F300D1124AB
:102390002551334FD9012C9141E0420F55E1589F0F
:1023A0009001599F300D1124C9018551934FFC01B3
:1023B000408324C089819A81DC018C918330F1F4BF
:1023C0008B819C81FC018081918101978B5D904F75
:1023D000DC018C91882391F48B819C81FC018081AC
:1023E000918101978B5D904F21E0DC012C938091CE
:1023F000240F8F5F8093240F01C000000F900F9077
:102400000F900F90DF91CF911F910F91FF90EF9060
:10241000DF90CF90BF90AF900895CF93DF931F923E
:10242000CDB7DEB70E946E0D8091340F882329F05E
:102430008091340F81508093340F8091340F882322
:1024400021F40E94A10E0E94FF0E198210C0898102
:10245000282F30E045E1429FC001439F900D112499
:102460008752934FFC01108289818F5F8983898114
:102470008E3068F300000F90DF91CF910895CF93D5
:10248000DF9300D0CDB7DEB79A83898389819A81A3
:1024900020E2E3E3FFE0DC0101900D922A95E1F7F1
:1024A00000000F900F90DF91CF910895CF93DF93AD
:1024B00000D0CDB7DEB79A83898389819A812EE0D7
:1024C000E5E2FFE0DC0101900D922A95E1F78091B1
:1024D000240F0F900F90DF91CF910895CF93DF934A
:1024E0001F92CDB7DEB789838981282F30E045E17F
:1024F000429FC001439F900D11248852934F0F902B
:10250000DF91CF910895CF93DF931F92CDB7DEB7C0
:102510001092B21D1092B31D1092AF1D1092AE1DFD
:102520001092D51D1092D41D19820EC08981882F5A
:1025300090E00396880F991F8255924EFC011182FC
:10254000108289818F5F89838981803178F30E942D
:10255000E51E0E94A3180E94D9160E948F130E94A4
:10256000DD1700000F90DF91CF910895CF93DF9397
:1025700000D0CDB7DEB79A83898389819A81909301
:10258000AF1D8093AE1D89819A810E940D240000A9
:102590000F900F90DF91CF910895CF93DF9300D0EC
:1025A000CDB7DEB79A83898389819A819093B11DD3
:1025B0008093B01D89819A810E94E92300000F90C9
:1025C0000F90DF91CF910895CF93DF9300D01F92AA
:1025D000CDB7DEB789837B836A838981882F90E0BA
:1025E0000396880F991F8255924E2A813B81FC01E8
:1025F0003183208300000F900F900F90DF91CF91D7
:102600000895CF93DF93CDB7DEB78091D41D90911D
:10261000D51D21E0892B09F420E0822FDF91CF9195
:102620000895CF93DF93CDB7DEB78091D41D9091FD
:10263000D51D01969093D51D8093D41D0000DF9188
:10264000CF910895CF93DF93CDB7DEB78091D41D9E
:102650009091D51D01979093D51D8093D41D0000B6
:10266000DF91CF910895CF93DF93CDB7DEB70E946E
:1026700047240000DF91CF910895CF93DF93CDB72A
:10268000DEB70E9475240000DF91CF910895CF93AB
:10269000DF93CDB7DEB72C970FB6F894DEBF0FBE31
:1026A000CDBF8C8789E0E2EAF2E0DE01139601906B
:1026B0000D928A95E1F789E189831A8215C09C857C
:1026C0008981981758F48A81882F90E09E012D5FA8
:1026D0003F4F820F931FFC0180810AC08981875E72
:1026E00089838A818F5F8A838A81893040F38FEF63
:1026F0002C960FB6F894DEBF0FBECDBFDF91CF9101
:102700000895CF93DF93CDB7DEB70E94A41E0E9439
:10271000DD210E94A3160000DF91CF910895CF9391
:10272000DF93CDB7DEB71092540F1092530F000015
:10273000DF91CF910895CF93DF9300D0CDB7DEB76F
:102740009A83898389819A81FC01148289819A8183
:10275000FC01118A89819A81FC0113821282809185
:10276000D41D9091D51D01969093D51D8093D41DB5
:102770008091530F9091540F892B61F489819A8134
:10278000FC011182108289819A819093540F809369
:10279000530F0FC02091530F3091540F89819A81AC
:1027A000FC013183208389819A819093540F809317
:1027B000530F00000F900F90DF91CF910895CF93AA
:1027C000DF9300D000D000D0CDB7DEB79E838D83DD
:1027D0000E94F8169A83898389819A81892B59F4FA
:1027E0008D819E8122E0FC0124838D819E8122E0E7
:1027F000FC01218BF2C18D819E8129813A81FC01EE
:10280000338322838D819E8121E0FC012483898191
:102810009A8189579F4F26EF35E1FC013183208350
:102820008D819E81FC018185882F90E0807299279F
:10283000892B09F47DC089819A81FC0181812BE07B
:10284000280F89819A81FC01218389819A818F5780
:102850009F4FFC01808191819C01255F3F4F8981C1
:102860009A818F579F4FFC013183208389819A8100
:102870008A579F4FFC01108289819A81FC01218532
:10288000207F2860FC01218789819A81FC012185B4
:102890002F702066FC01218789819A81FC012285A5
:1028A000207F2160FC01228789819A81FC01228599
:1028B0002061FC01228789819A81FC0122852064A4
:1028C000FC01228789819A81FC0122852F77FC01F6
:1028D000228789819A81FC01138689819A81FC0172
:1028E00014868D819E81FC018685482F50E08D8164
:1028F0009E81FC012485358589819A818F579F4F60
:10290000FC0180819181B9010E94A75889819A8137
:10291000FC0121818D819E81FC018685280F8981A2
:102920009A81FC01218389819A810E94191F55C1D6
:1029300089819A81FC01818120E1280F89819A8116
:10294000FC01218389819A818F579F4FFC018081EF
:1029500091819C01205F3F4F89819A818F579F4FC2
:10296000FC01318320838D819E81FC018185882F2C
:1029700090E08470992721E0892B09F420E0898177
:102980009A818A579F4FFC0120838D819E81FC0193
:102990008185882F90E08170992721E0892B09F4A7
:1029A00020E089819A812170FC0133853E7F232BB1
:1029B000FC0123878D819E81FC018185882F90E019
:1029C0008870992721E0892B09F420E089819A8178
:1029D0002170220F220FFC0133853B7F232BFC014A
:1029E00023878D819E81FC018185882F90E08072F4
:1029F000992721E0892B09F420E089819A812170AF
:102A00002295207FFC0133853F7E232BFC01238709
:102A10008D819E81FC018185882F90E080719927AE
:102A200021E0892B09F420E089819A812170220F0D
:102A3000220F220FFC013385377F232BFC012387D4
:102A400089819A81FC0183858870882309F462C09A
:102A500089819A818F579F4FFC01808191819C834E
:102A60008B838D819E81FC018285282F2F708B8125
:102A70009C812F70FC013181307F232BFC0121834D
:102A80008D819E81FC018285282F2F708B819C81F6
:102A90002295207FFC0131813F70232BFC01218393
:102AA0008D819E81FC018385282F2F708B819C81D5
:102AB0002F70FC013081307F232BFC0120838D811E
:102AC0009E81FC018385282F2F708B819C8122950C
:102AD000207FFC0130813F70232BFC012083898102
:102AE0009A818F579F4FFC01808191819C012E5FBD
:102AF0003F4F89819A818F579F4FFC0131832083FB
:102B000089819A81FC01818122E0280F89819A8143
:102B1000FC0121838091B21D8F5F8093B21D2091B3
:102B2000B21D89819A81FC0124872091AE1D3091CC
:102B3000AF1D89819A81FC01368725878D819E8111
:102B4000FC012581368189819A81FC01308B2787A0
:102B50008D819E81FC018085282F2F7089819A812B
:102B60002F70FC013189307F232BFC01218B8D815B
:102B70009E81FC018781282F2F7089819A8122955F
:102B8000207FFC0131893F70232BFC01218B8D813B
:102B90009E81FC018685482F50E08D819E81FC013D
:102BA0002485358589819A818F579F4FFC018081CB
:102BB0009181B9010E94A75889819A81FC012181E4
:102BC0008D819E81FC018685280F89819A81FC0177
:102BD000218389819A810E94641F26960FB6F894FA
:102BE000DEBF0FBECDBFDF91CF910895CF93DF93AE
:102BF00000D000D0CDB7DEB79C838B838091530F7C
:102C00009091540F9A8389832BC089819A81FC010A
:102C1000228133818B819C8128173907D1F48B81E4
:102C20009C818D579F4FFC01208189819A81FC01F5
:102C3000218B8B819C818A579F4FFC012081898148
:102C40009A81FC01228B89819A8122E0FC012483F4
:102C50000BC089819A81FC01808191819A8389834B
:102C600089819A81892B89F68B819C810E946A17C0
:102C700000000F900F900F900F90DF91CF9108956B
:102C8000CF93DF9300D000D0CDB7DEB79C838B838A
:102C90002091530F3091540F8B819C812817390755
:102CA00061F48091530F9091540FFC0180819181C8
:102CB0009093540F8093530F25C08091530F9091A0
:102CC000540F9A83898307C089819A81FC0180818E
:102CD00091819A83898389819A81FC012081318144
:102CE0008B819C812817390779F789819A81FC01AA
:102CF00080819181FC012081318189819A81FC014F
:102D0000318320838091D41D9091D51D019790939C
:102D1000D51D8093D41D8B819C81FC018785908972
:102D2000892B49F08B819C81FC01278530898B811F
:102D30009C81F901099500000F900F900F900F9062
:102D4000DF91CF910895CF93DF9300D0CDB7DEB759
:102D50008091530F9091540F9A83898321C0898168
:102D60009A81FC018481882F90E08130910581F067
:102D70008230910541F0892B09F00BC089819A813D
:102D80000E94DF1311C089819A810E9440160CC0F5
:102D9000000089819A81FC01808191819A838983D5
:102DA00089819A81892BD9F60F900F90DF91CF916D
:102DB0000895CF93DF931F92CDB7DEB7198210C06D
:102DC0008981282F30E049E8429FC001439F900D40
:102DD00011248B5A904FFC01108289818F5F898367
:102DE0008981843168F300000F90DF91CF910895BD
:102DF000CF93DF931F92CDB7DEB7198261C089816F
:102E0000282F30E049E8429FC001439F900D1124D4
:102E10008B5A904FFC018081882309F04EC0898134
:102E2000282F30E049E8429FC001439F900D1124B4
:102E30008B5A904F49E850E060E070E00E94B05833
:102E40008981282F30E049E8429FC001439F900DBF
:102E500011248A5A904FFC0110828981482F50E03A
:102E60008981282F30E069E8629FC001639F900D3F
:102E7000112402969C012B5A304F69E8649FC001CF
:102E8000659F900D11248A52904FFC01318320835D
:102E90008091D41D9091D51D01969093D51D80935E
:102EA000D41D8981282F30E049E8429FC001439F0B
:102EB000900D11248B5A904F09C089818F5F8983AF
:102EC0008981843108F49BCF80E090E00F90DF91FE
:102ED000CF910895CF93DF9300D0CDB7DEB79A831B
:102EE000898389819A81FC0110828091D41D9091FF
:102EF000D51D01979093D51D8093D41D00000F9090
:102F00000F90DF91CF910895CF93DF9300D0CDB78D
:102F1000DEB79A83898389819A81892B29F485E593
:102F20009FE09A83898316C089819A8187579F4F32
:102F30009A8389830FC089819A81FC0180818823CB
:102F400019F089819A810DC089819A8187579F4F95
:102F50009A83898389819A8189509A4160F380E0BC
:102F600090E00F900F90DF91CF910895CF93DF9372
:102F700000D0CDB7DEB79A83898389819A818D5736
:102F80009F4FFC0110828091B21D8F5F8093B21D14
:102F90002091B21D89819A81FC0124872091AE1D68
:102FA0003091AF1D89819A81FC0136872587000009
:102FB0000F900F90DF91CF910895CF93DF931F92E1
:102FC000CDB7DEB719820FC08981882F90E0880FB6
:102FD000991F875F954E2FEF3FEFFC0131832083D0
:102FE00089818F5F89838981833070F300000F901E
:102FF000DF91CF910895CF93DF9300D0CDB7DEB7A7
:103000009A83898389819A81BC018FEF9FEF0E9407
:1030100048180F900F90DF91CF910895CF93DF93D1
:1030200000D0CDB7DEB79A83898389819A816FEF0B
:103030007FEF0E9448180F900F90DF91CF91089575
:10304000CF93DF9300D01F92CDB7DEB79B838A83E7
:10305000198214C08981882F90E0880F991F875F9B
:10306000954EFC01208131818A819B812817390787
:1030700011F481E007C089818F5F89838981833062
:1030800048F380E00F900F900F90DF91CF9108955B
:10309000CF93DF9300D000D01F92CDB7DEB79B83D4
:1030A0008A837D836C83198220C08981882F90E078
:1030B000880F991F875F954EFC01208131818A819D
:1030C0009B812817390771F48981882F90E0880F38
:1030D000991F875F954E2C813D81FC0131832083B0
:1030E00081E007C089818F5F898389818330E8F21D
:1030F00080E00F900F900F900F900F90DF91CF9185
:103100000895CF93DF9300D0CDB7DEB79A8389833C
:1031100089819A81FC01418189819A818F579F4FD2
:10312000FC01808191819C0189819A810296B9017B
:10313000681B790BCB01742F781B872F0F900F9092
:10314000DF91CF910895CF93DF931F92CDB7DEB774
:10315000198211C08981282F30E0C901880F991F79
:10316000880F991F820F931F8D5E954EFC01108270
:1031700089818F5F89838981823360F384E690E05F
:10318000A0E0B0E08093101B9093111BA093121B42
:10319000B093131B1092141B8CE49AE19093161BAE
:1031A0008093151B6DE67BE180E00E94E412000035
:1031B0000F90DF91CF910895CF93DF9300D000D08F
:1031C000CDB7DEB79C838B838B819C81FC01808192
:1031D00091810196FC0180818838D1F48B819C819A
:1031E000FC0180819181FC018081813651F08B81CD
:1031F0009C81FC0180819181FC018081813409F0F6
:10320000A8C08B819C81FC0182818031E8F4A1C03F
:103210008B819C81FC01808191810196FC018081E0
:10322000803809F098C08B819C81FC01808191815C
:10323000FC018081882309F090C08B819C81FC0176
:1032400082818B3008F489C00E94F8169A838983A2
:1032500089819A81892B09F482C08B819C81FC0130
:10326000808191810196FC018081883811F420E2EF
:1032700001C025E289819A81FC01208389819A819C
:10328000FC0180818532E1F489819A81FC01818190
:103290002BE0280F89819A81FC01218389819A8101
:1032A0008F579F4FFC01808191819C01255F3F4F8B
:1032B00089819A818F579F4FFC01318320831BC0E6
:1032C00089819A81FC01818120E1280F89819A817D
:1032D000FC01218389819A818F579F4FFC01808156
:1032E00091819C01205F3F4F89819A818F579F4F29
:1032F000FC01318320838B819C81FC0122818981A7
:103300009A81FC0121838B819C81FC01238189812D
:103310009A818D579F4FFC0120838B819C81FC01FA
:10332000248189819A818C579F4FFC0120838B8156
:103330009C81FC018281482F50E08B819C81FC01A3
:103340002081318189819A810296B9010E94A75812
:1033500007C0000005C0000003C0000001C000005D
:103360000F900F900F900F90DF91CF910895CF9312
:10337000DF9300D000D000D0CDB7DEB79E838D8321
:103380000E94F8169A83898389819A81892B09F48E
:103390006BC08D819E81FC01818120E1280F8D8190
:1033A0009E81FC0121838D819E818F579F4FFC015F
:1033B000808191819C01205F3F4F8D819E818F573D
:1033C0009F4FFC013183208389819A810E94B61727
:1033D00089819A81FC01818123E0280F89819A816A
:1033E000FC01218389819A8189579F4FFC011182B9
:1033F00010828D819E81FC01838581FB222720F92B
:1034000089819A812170220FFC0133853D7F232B16
:10341000FC0123878D819E81FC012585368589816C
:103420009A81FC01308B278789819A818F579F4F22
:10343000FC01808191819C838B838B819C81FC0129
:1034400010822091091B8B819C81FC0122838D813C
:103450009E81FC0124858B819C81FC0121838981D3
:103460009A810E94641F01C0000026960FB6F8944E
:10347000DEBF0FBECDBFDF91CF910895CF93DF9315
:103480001F92CDB7DEB7898389818093091B000025
:103490000F90DF91CF910895CF93DF9300D000D0AC
:1034A000CDB7DEB79C838B8319821A8230C08A81A4
:1034B000282F30E0C901880F991F880F991F820FAC
:1034C000931F8D5E954EFC0180818823E9F08A81EF
:1034D000282F30E0C901880F991F880F991F820F8C
:1034E000931F8D5E954EFC0180814FEF480FC901FF
:1034F000880F991F880F991F820F931F8D5E954E1D
:10350000FC01408381E089838A818F5F8A838A817D
:10351000823368F28981882321F08B819C810E940B
:10352000282700000F900F900F900F90DF91CF9100
:103530000895CF93DF93CDB7DEB729970FB6F894F0
:10354000DEBF0FBECDBF998788871A8219821B8282
:1035500090C08B81282F30E0C901880F991F880FF8
:10356000991F820F931F815F954E9D838C838C8161
:103570009D81FC018481882309F46EC0888599852A
:10358000FC01238534858C819D81FC0180819181A2
:103590002817390709F060C08C819D81FC012281C8
:1035A00088859985FC018285F22FF81B8F2F8E83E9
:1035B0008E81883058F58C819D81FC018381882F14
:1035C00090E02E81222F30E002C0959587952A95B4
:1035D000E2F781709927892B11F081E075C08C8109
:1035E0009D81FC018381482F8E81282F30E081E06E
:1035F00090E002C0880F991F2A95E2F7842B282FAC
:103600008C819D81FC01238380E05EC08E81819549
:103610008F8388859985FC0122858C819D81FC01A1
:1036200022838C819D81FC018381882F90E02F81F2
:10363000222F30E002C0880F991F2A95E2F781609F
:10364000282F8C819D81FC0123838C819D8125E124
:10365000FC01248380E038C08C819D81FC01848141
:10366000882321F48C819D819A8389838B818F5F4C
:103670008B838B81823308F46CCF89819A81892B6B
:1036800011F481E021C088859985FC01238534856A
:1036900089819A81FC013183208388859985FC0189
:1036A000228589819A81FC01228389819A8121E086
:1036B000FC01238389819A8125E1FC0124838AE02E
:1036C0009BE10E94282780E029960FB6F894DEBF80
:1036D0000FBECDBFDF91CF910895CF93DF9300D080
:1036E000CDB7DEB79A83898389819A81FC01818570
:1036F000882311F480E011C089819A81FC018781BF
:103700009085FC018081882F90E0892B29F48981A4
:103710009A810E948A2001C080E00F900F90DF9173
:10372000CF910895CF93DF93CDB7DEB728970FB62B
:10373000F894DEBF0FBECDBF98878F838F819885A9
:1037400002969B838A838F81988524E2FC012083E3
:103750008A819B81FC0181858270882309F03BC1AD
:103760008A819B81FC0181858870882341F08A8150
:103770009B81FC0181858170882309F02EC18A819B
:103780009B81FC01838194810196D1F42091AE1D2F
:103790003091AF1D8A819B81FC0185859685281714
:1037A000390741F08A819B81FC01858596850196C8
:1037B00009F015C18F81988522E2FC0120830FC199
:1037C0008A819B81FC0185859685019641F48A81D9
:1037D0009B81FC0181858170882309F002C12091C1
:1037E000AE1D3091AF1D8A819B81FC01838594853C
:1037F0002817390709F4F7C08A819B810E94991A1A
:10380000882309F0F2C08A819B81FC018185887040
:10381000882309F4A9C08F8198858F579F4FFC0199
:10382000808191819D838C838A819B81FC01858528
:1038300096850E9420188E8319828A819B81FC01C3
:1038400085819681019609F061C08E81882379F186
:103850008C819D81FC0181818F70882F90E021E017
:10386000181619060CF020E029838C819D81FC013B
:1038700081818F702FE0280F2F708C819D812F7098
:10388000FC013181307F232BFC0121838C819D81C0
:10389000FC018081282F22952F708C819D812F70B3
:1038A000FC013081307F232BFC0120833BC08C81C5
:1038B0009D81FC0180818F70882F90E021E0181697
:1038C00019060CF020E029838C819D81FC01808108
:1038D0008F702FE0280F2F708C819D812F70FC013D
:1038E0003081307F232BFC0120838C819D81FC0162
:1038F0008181282F22952F708C819D812F70FC0152
:103900003181307F232BFC0121830CC08E818823E1
:1039100049F081E089838A819B81FC0121852460B3
:10392000FC0121878981882321F08F8198850E945D
:10393000FB1F8E81882309F459C08F8198858F578A
:103940009F4FFC01808191819C012E5F3F4F8F81B1
:1039500098858F579F4FFC01318320838F819885F5
:1039600022E2FC01208342C08A819B81FC01858187
:1039700096810196B9F42091AE1D3091AF1D8A81D8
:103980009B81FC01858596852817390759F08A8126
:103990009B81FC0181858470882321F48F81988527
:1039A0000E94FB1F2091AE1D3091AF1D8A819B812B
:1039B000FC01858596852817390739F08A819B8116
:1039C000FC0185859685019689F48F81988522E290
:1039D000FC0120830BC0000009C0000007C00000EC
:1039E00005C0000003C0000001C0000028960FB60B
:1039F000F894DEBF0FBECDBFDF91CF910895CF9376
:103A0000DF93CDB7DEB760970FB6F894DEBF0FBE79
:103A1000CDBF988B8F878F85988902969A838983EB
:103A200089819A81FC01878582958F70882F90E02B
:103A30000396880F991F8255924EFC0180819181D7
:103A4000892B11F480E0B9C089819A81FC018385BA
:103A500094859C838B8389819A81FC0185859685D9
:103A60009E838D8389819A81FC0187858F708F83E6
:103A700089819A81FC01878582958F7088878F85DF
:103A800098898F579F4FFC01808191819B878A87FE
:103A90008F8598890E9481188C878F8598898D578A
:103AA0009F4FFC0180818D878F8598898C579F4F10
:103AB000FC0180818E8789819A81FC018185982F04
:103AC000917081E0992309F480E089878985282F06
:103AD00089819A81FC0181858270822B8987898501
:103AE000282F89819A81FC0181858470882311F0B7
:103AF00080E201C080E0822B89878985282F898117
:103B00009A81FC0181858870882311F080E401C0CE
:103B100080E0822B89878985282F89819A81FC0101
:103B200081858071882311F080E801C080E0822BBC
:103B300089878985282F89819A81FC0185859685C9
:103B4000019611F484E001C080E0822B8987898589
:103B5000482F89819A81FC012385348589819A8146
:103B6000FC01878190852817390711F488E001C08E
:103B700080E0842B89878985282F89819A81FC019F
:103B800083819481019611F480E101C080E0822B51
:103B9000898789819A81FC01878582958F70882F1A
:103BA00090E00396880F991F8255924EFC01208168
:103BB0003181CE010396F901099560960FB6F8940C
:103BC000DEBF0FBECDBFDF91CF910895CF93DF93BE
:103BD000CDB7DEB760970FB6F894DEBF0FBECDBF8E
:103BE000988B8F878F85988902969A8389838F8592
:103BF000988924E2FC0120838091B41D9091B51D29
:103C0000892B11F480E042C08F859889FC0187815F
:103C100090859C838B838F859889FC018781908513
:103C20009E838D831F8218868F8598898F579F4F1B
:103C3000FC01808191819B878A878F8598890E946A
:103C400081188C878F8598898D579F4FFC018081C3
:103C50008D878F8598898C579F4FFC0180818E8737
:103C600080E8898789819A81FC01878582958F7098
:103C7000882F90E00396880F991F8255924EFC0181
:103C800020813181CE010396F901099560960FB626
:103C9000F894DEBF0FBECDBFDF91CF910895CF93D3
:103CA000DF9300D01F92CDB7DEB79B838A8310923B
:103CB000091B8A819B810E94FF1C89838A819B81C9
:103CC000FC0183858170882309F419828A819B8194
:103CD000FC01878190850196A9F42091AE1D309159
:103CE000AF1D8A819B81FC01878590892817390740
:103CF00049F48A819B81FC0183858870882311F4B3
:103D000081E089838A819B81FC018581968101966E
:103D100009F419828091AE1D9091AF1D019609F4AE
:103D200019828981882321F08A819B810E94B71999
:103D30008A819B8124E2FC01208300000F900F9078
:103D40000F90DF91CF910895CF93DF9300D0CDB73F
:103D5000DEB71A82198229C089819A81FC0180818B
:103D6000882F90E08232910589F0833291051CF40E
:103D7000809739F01AC08432910569F0859781F0F7
:103D800014C089819A810E94921B0FC089819A81F7
:103D90000E944F1E0AC089819A810E946A1705C03D
:103DA00089819A810E94E61D000089819A810E9482
:103DB00084179A83898389819A81892B69F6000007
:103DC0000F900F90DF91CF910895CF93DF93CDB7F0
:103DD000DEB71092181B1092171B82E390E0A0E050
:103DE000B0E080931F1B9093201BA093211BB093E6
:103DF000221B1092231B89ED90E29093251B809348
:103E0000241B8AE090E0A0E0B0E080932C1B90930C
:103E10002D1BA0932E1BB0932F1B1092301B83E4FD
:103E200091E29093321B8093311B0000DF91CF9180
:103E30000895CF93DF9300D000D0CDB7DEB79C8339
:103E40008B838B819C8102969A8389838B819C8151
:103E500023E1FC0120838B819C818D579F4FFC01C6
:103E600010828B819C818C579F4FFC0111821082A4
:103E700089819A8120E030E8FC01318320838091A0
:103E8000B31D8F5F8093B31D2091B31D89819A81EB
:103E9000FC0122832091B01D3091B11D89819A814E
:103EA000FC01348323832091AE1D3091AF1D8981A5
:103EB0009A81FC013683258300000F900F900F90AC
:103EC0000F90DF91CF910895CF93DF9300D000D072
:103ED000CDB7DEB79C838B838B819C8102969A83BE
:103EE00089838B819C818A579F4FFC018081882F19
:103EF00090E082709927892B31F08B819C8122E19F
:103F0000FC01208305C08B819C8122E1FC01208380
:103F10008B819C818D579F4FFC0110828B819C81EE
:103F20008A579F4FFC018081882F90E081709927EC
:103F3000892B41F089819A812FEF3FEFFC01348377
:103F4000238309C02091B01D3091B11D89819A81D0
:103F5000FC013483238389819A81FC012585368580
:103F600089819A81FC01368325832091AE1D309191
:103F7000AF1D89819A81FC01308727838091B31D11
:103F80008F5F8093B31D2091B31D89819A81FC01BD
:103F9000228389819A81FC01858196810196A9F409
:103FA00089819A8121E438E8FC01318320830E94D1
:103FB000B5578770992701969C018B819C818C57FE
:103FC0009F4FFC01318320830EC089819A8121E4B7
:103FD00038E8FC01318320838B819C818C579F4F73
:103FE000FC011182108200000F900F900F900F9033
:103FF000DF91CF910895CF93DF9300D000D0CDB75C
:10400000DEB79C838B830E94F8169A83898389810B
:104010009A81892B09F476C089819A818F579F4FA5
:10402000FC01808191819C01205F3F4F89819A81B1
:104030008F579F4FFC013183208389819A8122E130
:10404000FC0120838B819C81FC01218189819A81E3
:10405000FC01218389819A818D579F4FFC01108239
:104060000E94B5578770992701969C0189819A8192
:104070008C579F4FFC013183208389819A81895716
:104080009F4FFC01118210828B819C81FC018181F8
:10409000482F50E08B819C819C012E5F3F4F89818E
:1040A0009A810296B9010E94A75889819A8121E4D8
:1040B00038E8FC013383228389819A812FEF3FEF17
:1040C000FC01308727838B819C81FC01258136810F
:1040D00089819A81FC01368325832091AE1D309120
:1040E000AF1D89819A81FC01328721878091B31DA0
:1040F0008F5F8093B31D2091B31D89819A81FC014C
:10410000248301C000000F900F900F900F90DF915B
:10411000CF910895CF93DF9300D000D000D0CDB7DA
:10412000DEB79E838D838D819E81FC018781908582
:104130009C838B831A8219828D819E81FC018185EB
:10414000833019F180E02CC089819A81FC01808143
:104150008631D9F489819A81FC0124858B819C81E7
:10416000FC018181281789F489819A8127E1FC016A
:1041700020838B819C81FC01228189819A818A57CD
:104180009F4FFC01208381E00BC089819A810E94AE
:1041900084179A83898389819A81892BA9F680E083
:1041A00026960FB6F894DEBF0FBECDBFDF91CF913C
:1041B0000895CF93DF9300D000D01F92CDB7DEB724
:1041C0009D838C831A8219821B8227C089819A81E0
:1041D000FC018081863109F581E08B8389819A8198
:1041E0008C579F4FFC01808191819C0121503109A6
:1041F00089819A818C579F4FFC013183208389816B
:104200009A818C579F4FFC0180819181892B29F4E1
:1042100089819A8160E10E94272189819A810E9487
:1042200084179A83898389819A81892B79F68B8176
:10423000882321F08C819D810E94282700000F9007
:104240000F900F900F900F90DF91CF910895CF9323
:10425000DF9300D01F92CDB7DEB79A8389836B833B
:1042600089819A8127E1FC01208389819A818D5778
:104270009F4F2B81FC01208300000F900F900F9027
:10428000DF91CF910895CF93DF9300D000D01F929C
:10429000CDB7DEB79D838C831A8219821B8227C01B
:1042A00089819A81FC018081813109F581E08B83CC
:1042B00089819A818C579F4FFC01808191819C015B
:1042C0002150310989819A818C579F4FFC0131839C
:1042D000208389819A818C579F4FFC018081918135
:1042E000892B29F489819A8123E1FC01208389812A
:1042F0009A810E9484179A83898389819A81892B64
:1043000079F68B81882321F08C819D810E9428275A
:1043100000000F900F900F900F900F90DF91CF91B2
:104320000895CF93DF931F92CDB7DEB7898389813C
:10433000882F90E08130910539F08230910531F07D
:10434000892B31F480E005C080E203C081E201C026
:1043500081E00F90DF91CF9108950F931F93CF933A
:10436000DF931F92CDB7DEB789830091171B1091A1
:10437000181B89810E949121282FC8018D579F4FBA
:10438000FC0120838091171B9091181B25E1FC01F3
:1043900020831092181B1092171B8091D41D9091AE
:1043A000D51D01979093D51D8093D41D00000F90CB
:1043B000DF91CF911F910F910895CF93DF9300D09C
:1043C000CDB7DEB71A821982AEC089819A81FC010D
:1043D0008081882F90E08431910509F4A4C0853153
:1043E000910534F48231910579F0439731F19AC007
:1043F0008631910509F497C0863191050CF43EC0D1
:10440000479709F475C08EC089819A818C579F4F58
:10441000FC0180819181892B51F089819A8121E170
:10442000FC01208386E29BE10E9428277CC08981D1
:104430009A8123E1FC01208376C08091171B909123
:10444000181B892B09F06FC089819A819093181BE2
:104450008093171B89819A8124E1FC012083898143
:104460009A8101960E9489248091D41D9091D51D36
:1044700001969093D51D8093D41D55C089819A8152
:104480008D579F4FFC018081882361F589819A8136
:10449000FC01258536858091AE1D9091AF1D2817B2
:1044A0003907D1F489819A81FC0183858170882341
:1044B00099F089819A8126E1FC01208389819A8182
:1044C0008C579F4F25E130E0FC013183208389E147
:1044D0009BE10E9428270BC089819A8127E1FC017A
:1044E000208321C089819A8127E1FC0120831BC0A0
:1044F00089819A8189579F4FFC0180819181892B05
:1045000029F489819A810E946A170DC089819A8154
:1045100089579F4FFC012081318189819A81F9015E
:10452000099501C0000089819A810E9484179A83AD
:10453000898389819A81892B09F047CF00000F90E8
:104540000F90DF91CF910895CF93DF9300D0CDB737
:10455000DEB79A83898389819A81892B09F47BC08C
:1045600089819A818837910549F461E080E00E9451
:10457000D54260E180E00E94D5426DC089819A8178
:10458000803C910529F462E080E00E94D54263C03E
:1045900089819A818C34910529F464E080E00E943D
:1045A000D54259C089819A818038910529F468E003
:1045B00080E00E94D5424FC089819A818434910560
:1045C00029F460E280E00E94D54245C089819A8149
:1045D000803B910529F460E480E00E94D5423BC015
:1045E00089819A81883B910529F460E880E00E94E6
:1045F000D54231C089819A81883C910529F461E0D6
:1046000081E00E94D54227C089819A818039910535
:1046100029F468E081E00E94D5421DC089819A8119
:10462000803A910529F460E181E00E94D54213C0EF
:1046300089819A818032914029F460E281E00E9470
:10464000D54209C089819A818334914021F460E484
:1046500081E00E94D54200000F900F90DF91CF9132
:1046600008956150710981099109D9F708950F934F
:104670001F93CF93DF93CDB7DEB783E491E00E9421
:10468000A42289E391E0FC0120812160FC012083C8
:104690001092B41B81E08093331B88E00E94662552
:1046A0008CE491E0FC0120812068FC0120830DE670
:1046B00011E00E94CA24F80180838DE491E0FC019E
:1046C00020812C7F2260FC0120838AE491E0FC01A0
:1046D0002081207F2360FC0120838DE491E0FC0198
:1046E00020812860FC0120838DE491E0FC01208181
:1046F0002460FC01208384E491E0FC012081206897
:10470000FC0120830000DF91CF911F910F9108954C
:10471000CF93DF931F92CDB7DEB78983898188233A
:10472000B1F08CE691E0FC0120812F70FC01208328
:104730008CE691E0FC0120812E60FC0120838EE656
:1047400091E0FC0120812061FC01208317C08CE6F0
:1047500091E0FC0120812F702063FC0120838CE616
:1047600091E0FC012081217F2860FC0120838EE6FE
:1047700091E0FC0120812F7EFC01208300000F903E
:10478000DF91CF910895CF93DF931F92CDB7DEB71E
:10479000898389818093B41B0E944F2500000F906C
:1047A000DF91CF910895CF93DF931F92CDB7DEB7FE
:1047B000898388E491E029812F712F71FC01308178
:1047C000307E232BFC01208300000F90DF91CF91DE
:1047D0000895CF93DF9300D000D0CDB7DEB79C8390
:1047E0008B83CE0103969A83898382E691E02981A7
:1047F0003A81F9012081FC01208383E691E029813F
:104800003A81F9012181FC01208300000F900F9073
:104810000F900F90DF91CF910895CF93DF9300D049
:1048200000D0CDB7DEB79C838B83CE0103969A83ED
:10483000898380E691E029813A81F9012081FC0198
:10484000208381E691E029813A81F9012181FC01EF
:10485000208300000F900F900F900F90DF91CF9169
:104860000895CF93DF931F92CDB7DEB7898385E498
:1048700091E029812F702F70FC013081307F232B34
:10488000FC01208300000F90DF91CF910895CF931A
:10489000DF93CDB7DEB78091331B823069F088E0BB
:1048A0000E94662589E391E0FC0120812260FC01E1
:1048B000208382E08093331B8DE491E0FC01208112
:1048C0002B7FFC0120838DE491E0FC012081277F78
:1048D000FC01208384E491E0FC0120812F77FC011E
:1048E00020830000DF91CF910895CF93DF93CDB760
:1048F000DEB789E391E0FC0120812D7FFC0120835C
:104900000E944F2581E08093331B0000DF91CF91FF
:104910000895CF93DF9300D01F92CDB7DEB79B836E
:104920008A8389E10E94662580E891E02A813B81A3
:10493000F90120812E5FFC012083198215C0898135
:10494000882F90E08F579E4FAC018981882F90E08F
:1049500001962A813B81820F931FFC018081FA011D
:10496000808389818F5F89838A819B81FC0190810B
:104970008981891720F383E08093331B82E491E0DF
:1049800022E0FC01208300000F900F900F90DF9138
:10499000CF910895CF93DF9300D01F92CDB7DEB7AC
:1049A0001A82198286E00E9466251B8222C062E07C
:1049B00070E080E090E00E94312386E491E0FC0109
:1049C00080818295869587708370882F90E02B81F7
:1049D000222F30E002C0880F991F2A95E2F79C0130
:1049E00089819A81822B932B9A8389838B818E5F15
:1049F0008B838B818031D8F20E944F2589819A81E7
:104A00000F900F900F90DF91CF910895CF93DF9388
:104A100000D000D0CDB7DEB79A8389837C836B83C7
:104A20008B819C8140E060E00E94C93589819A8138
:104A30000E94D53689819A810E940B3700000F9021
:104A40000F900F900F90DF91CF910895CF93DF9348
:104A50001F92CDB7DEB786E00E9466258FE491E015
:104A6000FC0120812061FC01208387E491E0FC01AE
:104A7000108200008FE491E0FC01808182958170BA
:104A80008823C1F387E491E0FC0180818A55898302
:104A90000E944F2589810F90DF91CF910895CF9388
:104AA000DF93CDB7DEB788E00E9466258FE491E002
:104AB0002FEFFC0120838091B41B882319F086E13D
:104AC0000E9466250000DF91CF910895CF93DF9378
:104AD0001F92CDB7DEB789838091331B8230A9F452
:104AE0008DE491E0FC0120812860FC0120838DE4AD
:104AF00091E0FC0120812460FC01208384E491E0AA
:104B0000FC0120812068FC01208382E491E023E005
:104B1000FC01208381E491E0FC0180818F71883069
:104B2000A1F782E491E02981FC01208381E491E0F6
:104B3000FC0180818F71982F8981981791F700006F
:104B40000F90DF91CF910895CF93DF9300D000D0E5
:104B5000CDB7DEB79C838B838B819C819A838983BD
:104B600024E631E089819A81AC014F5F5F4F5A831F
:104B70004983FC018081F901808325E631E0898148
:104B80009A81AC014F5F5F4F5A834983FC0180815A
:104B9000F901808326E631E089819A81AC014F5F7B
:104BA0005F4F5A834983FC018081F901808327E6A6
:104BB00031E089819A81AC014F5F5F4F5A8349830D
:104BC000FC018081F901808328E631E089819A81A6
:104BD000AC014F5F5F4F5A834983FC018081F9012B
:104BE000808329E631E089819A81AC014F5F5F4F74
:104BF0005A834983FC018081F90180832AE631E0F0
:104C000089819A81AC014F5F5F4F5A834983FC01D0
:104C10008081F90180838BE691E029813A81F90155
:104C20002081FC01208300000F900F900F900F90C7
:104C3000DF91CF910895CF93DF93CDB7DEB728975B
:104C40000FB6F894DEBF0FBECDBF8091331B82300C
:104C500009F49EC08FE491E0FC01808183FB8827EA
:104C600080F9882309F459C08BE791E0FC01808129
:104C70008B83198211C08981882F90E02981222F8E
:104C800030E020583E4FF90120818C5C944EFC01AD
:104C9000208389818F5F89838981282F30E08B81F0
:104CA000882F90E00196281739072CF384E39BE1C5
:104CB0009D838C838B8182508E838B81882F90E0A3
:104CC0008C5C944EFC0180818F8387E491E0FC0131
:104CD00080818A558887CE0104960E94DC180000E6
:104CE00081E491E0FC0180818F718631C9F78FE406
:104CF00091E0FC0120812860FC0120838CE491E09C
:104D0000FC0120812F77FC0120838CE491E0FC01E1
:104D100020812068FC0120833CC08FE491E0FC01ED
:104D2000808186FB882780F9882399F181E491E0CE
:104D3000FC0180818F71893119F582E491E0FC01D9
:104D400080818295869587708A838A81882311F471
:104D50001A820EC08A81833019F481E08A8308C0E8
:104D60008A81853019F482E08A8302C083E08A83D5
:104D70000E944F2581E08093331B8A810E94AD21E0
:104D80008FE491E0FC0120812064FC01208301C0BC
:104D9000000028960FB6F894DEBF0FBECDBFDF919E
:104DA000CF910895CF93DF93CDB7DEB70E94102740
:104DB0000E94C1350E9437230E9483120000DF91B8
:104DC000CF910895CF93DF93CDB7DEB70E941B2616
:104DD0000E9481130E94E2270000DF91CF91089585
:104DE000CF93DF931F92CDB7DEB78FE590E0FC0144
:104DF00080818983F89489810F90DF91CF91089504
:104E0000CF93DF931F92CDB7DEB789838FE590E014
:104E10002981FC01208300000F90DF91CF9108953C
:104E2000CF93DF93CDB7DEB71092D61D8AE799E214
:104E30000E944F4F0E94014F80E197E20E94974EDF
:104E40001092B61B1092B51B0000DF91CF91089510
:104E5000CF93DF9300D0CDB7DEB79A838983898162
:104E60009A810E94B727982F81E08927882321F013
:104E700089819A810E94A52800000F900F90DF91F0
:104E8000CF910895CF93DF9300D000D000D0CDB75D
:104E9000DEB79E838D831A8219828091B51B909113
:104EA000B61B9C838B8352C02B813C818D819E815C
:104EB0002817390709F03FC089819A81892B59F059
:104EC0008B819C81FC012081318189819A81FC0147
:104ED0003183208309C08B819C81FC018081918179
:104EE0009093B61B8093B51B8B819C81FC018081C4
:104EF0009181892B89F18B819C81FC016081718179
:104F00008B819C81FC0180819181FC012281338114
:104F1000448155818D819E81FC0182819381A48190
:104F2000B581820F931FA41FB51FFB01828393835A
:104F3000A483B58311C08B819C819A8389838B81E3
:104F40009C81FC01808191819C838B838B819C81DE
:104F5000892B09F0A9CF01C00000000026960FB6EA
:104F6000F894DEBF0FBECDBFDF91CF910895CF93F0
:104F7000DF9300D000D0CDB7DEB79C838B838091C8
:104F8000B51B9091B61B9A83898310C029813A8101
:104F90008B819C812817390711F481E00CC089812D
:104FA0009A81FC01808191819A83898389819A8188
:104FB000892B61F780E00F900F900F900F90DF9199
:104FC000CF910895EF92FF920F931F93CF93DF93AA
:104FD000CDB7DEB728970FB6F894DEBF0FBECDBFB2
:104FE0008091D61D882309F4A2C00E94F0268D83EB
:104FF0008091D61D8E831092D61D8D810E94002730
:105000008E81882F90E0A0E0B0E0880F991FAA1F42
:10501000BB1F9C01AD01220F331F441F551F220FE0
:10502000331F441F551F820F931FA41FB51F898371
:105030009A83AB83BC833DC08091B51B9091B61B16
:1050400098878F838091B51B9091B61BFC0182815C
:105050009381A481B58129813A814B815C81790159
:105060008A01E81AF90A0A0B1B0BD801C7018983C8
:105070009A83AB83BC838091B51B9091B61BFC01D6
:10508000808191819093B61B8093B51B8F81988509
:10509000FC018285813021F48F8198850E94A528AA
:1050A0008F819885FC01238534858F819885F9014E
:1050B00009958091B51B9091B61B892B99F0809131
:1050C000B51B9091B61BFC0122813381448155812F
:1050D00089819A81AB81BC8182179307A407B507A8
:1050E00008F0AACF8091B51B9091B61B892B01F1D6
:1050F0006091B51B7091B61B8091B51B9091B61B4A
:10510000FC01228133814481558189819A81AB815F
:10511000BC8179018A01E81AF90A0A0B1B0BD80134
:10512000C701FB0182839383A483B58301C0000080
:1051300028960FB6F894DEBF0FBECDBFDF91CF919A
:105140001F910F91FF90EF900895EF92FF920F93B0
:105150001F93CF93DF93CDB7DEB72A970FB6F8949E
:10516000DEBF0FBECDBF9A8789878091B51B909116
:10517000B61B892B09F497C01A82198289859A85F2
:10518000FC0186819781A085B1858B839C83AD834B
:10519000BE838091B51B9091B61B98878F834DC0BD
:1051A0008F819885FC0122813381448155818B81D7
:1051B0009C81AD81BE8182179307A407B507D8F4FF
:1051C0008F819885FC0122813381448155818B81B7
:1051D0009C81AD81BE8179018A01E81AF90A0A0B26
:1051E0001B0BD801C7012F813885F9018283938376
:1051F000A483B58327C08F819885FC018281938128
:10520000A481B5812B813C814D815E8179018A0128
:10521000E81AF90A0A0B1B0BD801C7018B839C8380
:10522000AD83BE838F8198859A8389838F8198858A
:10523000FC018081918198878F838F819885892B4C
:1052400009F0AECF29853A858B819C81AD81BE81E5
:10525000F90182839383A483B58389819A81892B01
:1052600091F089819A81FC012081318189859A851B
:10527000FC013183208389819A8129853A85FC014B
:105280003183208329C02091B51B3091B61B8985BD
:105290009A85FC013183208389859A859093B61B7A
:1052A0008093B51B19C089859A85FC0111821082F3
:1052B00089859A85FC0186819781A085B18529859C
:1052C0003A85F90182839383A483B58389859A857E
:1052D0009093B61B8093B51B00002A960FB6F894E6
:1052E000DEBF0FBECDBFDF91CF911F910F91FF9019
:1052F000EF900895CF93DF93CDB7DEB78091D61DA1
:105300008F5F8093D61D80E197E20E94974E000048
:10531000DF91CF910895CF93DF931F92CDB7DEB782
:105320008FE590E0FC0180818983F89489810F905A
:10533000DF91CF910895CF93DF931F92CDB7DEB762
:1053400089838FE590E02981FC01208300000F9084
:10535000DF91CF910895CF93DF93CDB7DEB780E093
:1053600094E2A4EFB0E0BC01CD01DF91CF910895AC
:10537000CF93DF93CDB7DEB70E94AB29DC01CB0121
:10538000BC01CD01DF91CF910895CF93DF9300D081
:10539000CDB7DEB79A83898389819A81892B21F4DD
:1053A00080E090E0DC01A3C089819A818837910573
:1053B00029F40E94B829DC01CB0199C089819A8126
:1053C000803C910529F40E94B829DC01CB018FC0F3
:1053D00089819A818C34910529F40E94B829DC01D5
:1053E000CB0185C089819A818038910529F40E947A
:1053F000B829DC01CB017BC089819A818434910575
:1054000029F40E94B829DC01CB0171C089819A81FD
:10541000803B910529F40E94B829DC01CB0167C0CB
:1054200089819A81803C910529F40E94B829DC0188
:10543000CB015DC089819A81883B910529F40E9446
:10544000B829DC01CB0153C089819A81803991054B
:1054500029F40E94B829DC01CB0149C089819A81D5
:10546000803A910529F40E94B829DC01CB013FC0A4
:1054700089819A818032914029F40E94B829DC0107
:10548000CB0135C089819A818334914029F40E94EF
:10549000B829DC01CB012BC089819A8185339140E9
:1054A00029F40E94B829DC01CB0121C089819A81AD
:1054B0008433914029F40E94B829DC01CB0117C044
:1054C00089819A818333914029F40E94B829DC01B3
:1054D000CB010DC089819A818233914029F40E94C9
:1054E000B829DC01CB0103C080E090E0DC01BC0105
:1054F000CD010F900F90DF91CF910895CF93DF935F
:1055000000D01F92CDB7DEB79A8389836B838981E0
:105510009A818038910559F481E890E021E830E0E3
:10552000F90130812B81232BFC0120832FC089813D
:105530009A818039910559F481E990E021E930E0C0
:10554000F90130812B81232BFC0120831FC089812D
:105550009A81803A910559F481EA90E021EA30E09D
:10556000F90130812B81232BFC0120830FC089811D
:105570009A818032914051F481E291E021E231E060
:10558000F90130812B81232BFC01208300000F9037
:105590000F900F90DF91CF910895CF93DF9300D0BC
:1055A000CDB7DEB79A83898389819A818038910546
:1055B00051F48FE690E02FE630E0F9012081216080
:1055C000FC0120832CC089819A818039910551F496
:1055D00081E790E021E730E0F90120812160FC01C2
:1055E00020831DC089819A81803A910551F482E718
:1055F00090E022E730E0F90120812160FC01208366
:105600000EC089819A818032914049F483E790E00D
:1056100023E730E0F90120812160FC0120830000B4
:105620000F900F90DF91CF910895CF93DF9300D02B
:10563000CDB7DEB79A83898389819A8180389105B5
:1056400051F48FE690E02FE630E0F90120812260EE
:10565000FC0120832CC089819A818039910551F405
:1056600081E790E021E730E0F90120812260FC0130
:1056700020831DC089819A81803A910551F482E787
:1056800090E022E730E0F90120812260FC012083D4
:105690000EC089819A818032914049F483E790E07D
:1056A00023E730E0F90120812260FC012083000023
:1056B0000F900F90DF91CF910895CF93DF9300D09B
:1056C000CDB7DEB79A83898389819A818038910525
:1056D00051F48FE690E02FE630E0F90120812D7F34
:1056E000FC0120832CC089819A818039910551F475
:1056F00081E790E021E730E0F90120812D7FFC0176
:1057000020831DC089819A81803A910551F482E7F6
:1057100090E022E730E0F90120812D7FFC01208319
:105720000EC089819A818032914049F483E790E0EC
:1057300023E730E0F90120812D7FFC012083000068
:105740000F900F90DF91CF910895CF93DF93CDB756
:10575000DEB727970FB6F894DEBF0FBECDBF9C8390
:105760008B836D835F834E838B819C819A83898336
:105770008D81882F90E0019629813A81820F931FB5
:105780002D81222F30E02F5F3F4F49815A81240F16
:10579000351FF90140812E813F81232F3327242B90
:1057A000FC0120838D81882F90E029813A81820F2E
:1057B000931F2D81222F30E049815A81240F351FFC
:1057C000F90130812E81232BFC01208300002796D4
:1057D0000FB6F894DEBF0FBECDBFDF91CF91089515
:1057E000CF93DF9300D0CDB7DEB79A8389838981C9
:1057F0009A818038910551F486E390E026E330E009
:10580000F90120812160FC0120832CC089819A81CB
:105810008039910551F488E390E028E330E0F90104
:1058200020812160FC0120831DC089819A81803AFA
:10583000910551F489E390E029E330E0F9012081FA
:105840002160FC0120830EC089819A8180329140C1
:1058500049F48AE390E02AE330E0F90120812160F5
:10586000FC01208300000F900F90DF91CF910895ED
:10587000CF93DF9300D0CDB7DEB79A838983898138
:105880009A818038910551F486E390E026E330E078
:10589000F90120812260FC0120832CC089819A813A
:1058A0008039910551F488E390E028E330E0F90174
:1058B00020812260FC0120831DC089819A81803A69
:1058C000910551F489E390E029E330E0F90120816A
:1058D0002260FC0120830EC089819A818032914030
:1058E00049F48AE390E02AE330E0F9012081226064
:1058F000FC01208300000F900F90DF91CF9108955D
:10590000CF93DF9300D0CDB7DEB79A8389838981A7
:105910009A818038910531F484E890E0FC0180811F
:10592000918123C089819A818039910531F484E97C
:1059300090E0FC018081918118C089819A81803A30
:10594000910531F484EA90E0FC01808191810DC0E1
:1059500089819A818032914031F484E291E0FC01A6
:105960008081918102C080E090E00F900F90DF91E4
:10597000CF910895CF93DF9300D000D01F92CDB781
:10598000DEB79C838B836D838B819C819A83898313
:105990008D81882349F489819A81FC012081898144
:1059A0009A81FC0120830FC08D81843061F489814C
:1059B0009A81019629813A812F5F3F4FF901208119
:1059C0002860FC01208300000F900F900F900F9033
:1059D0000F90DF91CF910895CF93DF93CDB7DEB7CE
:1059E00080E890E00E94802CDF91CF910895CF93C2
:1059F000DF93CDB7DEB780E890E00E945D2B80E8B2
:105A000090E00E94382C0000DF91CF910895CF9351
:105A1000DF93CDB7DEB780E890E00E94382C80E8B5
:105A200090E00E94152B0000DF91CF910895CF9355
:105A3000DF93CDB7DEB780E890E00E94CD2A80E802
:105A400090E00E94F02B0000DF91CF910895CF935A
:105A5000DF93CDB7DEB780E890E00E94A434000069
:105A6000DF91CF910895CF93DF9300D0CDB7DEB70C
:105A70009A83898389819A81AC0168E080E890E00B
:105A80000E94A52B00000F900F90DF91CF910895F9
:105A9000CF93DF93CDB7DEB70E948B29DF91CF91F3
:105AA0000895CF93DF931F92CDB7DEB789838981A5
:105AB0000E949B2900000F90DF91CF910895CF9312
:105AC000DF931F92CDB7DEB780E890E00E948B3461
:105AD00068EF7DE280E890E00E94BD3460E080E8FD
